:020000040020DA
:102000000000082059202000FF212000016010005E
:10201000FD212000F9212000E52A20000000000019
:10202000000000000000000000000000156010002B
:10203000FB21200000000000DD292000092A2000EB
:10204000DFF810D000F032FC00F052F800480047F2
:10205000C5CB200000000820014880470148004708
:10206000752A2000E5CB20000649074A086850433E
:1020700043F2390210440860400870470149086083
:1020800070470000688F00206D4EC64140EA010392
:102090009B0703D009E008C9121F08C0042AFAD21E
:1020A00003E011F8013B00F8013B521EF9D27047E2
:1020B000D2B201E000F8012B491EFBD2704700228A
:1020C000F6E710B513460A4604461946FFF7F0FF37
:1020D000204610BD30B504460020034600E05B1CDE
:1020E000934203D2E05CCD5C401BF8D030BD0000D1
:1020F00070B5054C054D03E0206820448047241D41
:10210000AC42F9D170BD0000E00E2100E40E2100C8
:102110002DE9FE4F81EA030404F0004421F0004160
:1021200000944FF0000B23F0004350EA01045ED00E
:1021300052EA03045BD0C3F30A54C1F30A552C449A
:10214000A4F2F3340194A0FB0254C1F3130141F44F
:102150008011C3F3130343F4801301FB024400FB1B
:10216000034E840A970A44EA815447EA8357A4FB42
:10217000076802958D0A05FB07854FEA932C04FB3F
:102180000C542705029D4FEA065847EA1637B5EB6F
:1021900008056EEB070C870E920E47EA811742EA9C
:1021A0008312A7FB0201B6EB0B0164EB00042B0DBD
:1021B00043EA0C335E1844EB1C50DA465146E7FB09
:1021C0000201C5F313044FEA0B3343EA14534FEAF9
:1021D0000432019C43EA0603A4F10C040294009C1F
:1021E000CDE900B400F088FA03B0BDE8F08F00201C
:1021F0000146F9E702F054BCFEE7FEE7FEE7FEE722
:1022000058585247010000002655000000202000C9
:10221000002020007FED9247010100000000000037
:1022200000000000000000000000000000000000AE
:10223000000000000000000000000000000000009E
:102240002DE9FE4F804681EA0300C00F0C46009046
:1022500021F0004123F00045B8EB0200A94105D26E
:102260004046214690461C460B46024623F000405D
:10227000104347D0270DC7F30A00C3F30A51029059
:10228000401A019040286BDAC3F3130040F4801B1E
:102290000098924620B10023D2EB030A63EB0B0BAC
:1022A00001985946C0F14002504600F0AEF906468A
:1022B0000D4650465946019A00F0C6F910EB080049
:1022C0006141002487EA115284EAE7731A4340D03F
:1022D000009A62B3019A012A4FEA075215DC001BEB
:1022E00061EB02014FF0004202EA0752CDE90042E1
:1022F000001C41F5801132462B4600F0FDF903B079
:10230000BDE8F08F40462146F9E7001B61EB020172
:10231000001C41F5801300185B412018A2F500173E
:1023200047EB030140EAD570B6196D4111E06D0825
:102330004FEA360645EAC0754FEA0752001B61EBCB
:102340000201001C41F5801149084FEA30000019D4
:10235000514132462B4603B0BDE8F04F00F0BDB905
:102360000098012240000023D0EB020263EBE073EF
:10237000009821464FEAE074B8EB000061EB0401DD
:10238000E9E783F000435BE781F0004158E72DE97E
:10239000F04D81EA030404F0004B21F0004514469F
:1023A0004FF0000A23F0004150EA050220D054EA21
:1023B00001021DD0C5F30A570246C5F31303C1F34A
:1023C0001300C1F30A5640F4801543F48013A7EBC1
:1023D0000608101BD64608F2FD3873EB050002D341
:1023E00008F1010801E092185B41B8F1000F03DA2F
:1023F00000200146BDE8F08D00204FF48011064614
:1024000084460EE0171B73EB050705D3121B63EB25
:10241000050306434CEA010C49084FEA30009218C4
:102420005B4150EA0107EDD152EA030012D082EA83
:10243000040083EA0501084305D0101BAB4106D216
:102440000122002306E000224FF0004302E06FF07B
:10245000010253101AEB06004CEB085110EB0A0076
:1024600041EB0B01BDE8F04D00F037B930B4044644
:1024700096230800214604D0B62330BC002200F089
:10248000FEB820460021F8E70EB540F23341029134
:102490000021CDE900110A460B4600F02DF903B0EA
:1024A00000BD0EB540F2334202920022CDE9002277
:1024B000134600F021F903B000BD20F00040C20D2A
:1024C000C0F3160040F400007F2A02DA0020014623
:1024D00070470021962A03DCC2F19602D040704773
:1024E000963A00F092B870B5C1F30A5201F0004577
:1024F0000024C1F3130140F2FF3341F480119A42EA
:1025000001DA002070BD40F233439A42A2F2334216
:1025100003DC524200F088F800E090402C43F1D0F8
:10252000404270BDC1F30A5210B5C1F3130140F22D
:10253000FF3341F480119A4201DA002010BD40F2CD
:1025400033439A42A2F2334203DC524200F06CF869
:1025500010BD904010BD00F0004230F000400AD0A5
:10256000C10D01F56071C0F3160042EA0151C208C5
:1025700040071143704700200146704730B50B46B5
:10258000014600202022012409E021FA02F59D42A3
:1025900005D303FA02F5491B04FA02F52844151E77
:1025A000A2F10102F1DC30BD2DE9F05F054600200B
:1025B00092469B4688460646814640241BE02846B4
:1025C00041464746224600F02FF853465A46C01A65
:1025D000914110D311461846224600F016F82D1AE4
:1025E00067EB01084F4622460120002100F00DF85C
:1025F00017EB00094E41201EA4F10104DFDC484620
:1026000031462A464346BDE8F09F202A04DB203AA3
:1026100000FA02F1002070479140C2F1200320FA35
:1026200003F3194390407047202A04DB203A21FA33
:1026300002F00021704721FA02F3D040C2F12002DB
:102640009140084319467047202A06DBCB17203AF1
:1026500041FA02F043EAE07306E041FA02F3D040A7
:10266000C2F1200291400843194670470029A8BFD3
:102670007047401C490008BF20F00100704710B4AB
:10268000B0FA80FC00FA0CF050EA010404BF10BC60
:10269000704749B1CCF1200421FA04F411FA0CF18D
:1026A00018BF012121430843A3EB0C01CB1D4FEAC6
:1026B00000614FEA102042BF002010BC704700EBC1
:1026C000C35010440029A4BF10BC7047401C4900EF
:1026D00008BF20F0010010BC704710B5141E73F144
:1026E000000408DA401C41F1000192185B411A43D2
:1026F00001D120F0010010BD2DE9F04D92469B461E
:1027000011B1B1FA81F202E0B0FA80F220329046C3
:10271000FFF77BFF04460F4640EA0A0041EA0B013F
:1027200053465A46084313D0114653EA010019D0C4
:10273000C8F140025046FFF777FF05460E46504667
:1027400059464246FFF761FF084305D0012004E0E7
:1027500020463946BDE8F08D0020054346EAE07684
:102760002C4337430A986305E40AA0EB08000022D3
:10277000FD0A44EA47540A3002D500200146E9E741
:10278000010510196941DDE9084500196941BDE8F5
:10279000F04DA2E72DE9F041054621F000400C463E
:1027A000284309D0C4F30A5040F23341884205DD82
:1027B00028462146BDE8F0812846FBE740F2FE317D
:1027C000884210DC0CDB4FEA043040EA155050EA36
:1027D000053105D0104804F0004101430020E9E72D
:1027E00000200146E6E7A0F233404642C6F140022F
:1027F00028462146FFF709FF074688462846214616
:102800003246FFF711FF43463A46FFF766FF32466E
:10281000BDE8F041FFF7F9BE0000F03FC1F30A52F6
:10282000C1F3130140F2FF3341F480119A4202DAFE
:1028300000200146704740F233439A42A2F23342ED
:1028400002DC5242FFF7F0BEFFF7DFBE30B5041ED8
:1028500071F1000404DB4FF00044404264EB0101DD
:10286000141E73F1000405DB1C464FF00043524276
:1028700063EB04038B4208BF824230BD30B5041EB7
:1028800071F1000404DB4FF00044404264EB0101AD
:10289000141E73F1000405DB1C464FF00043524246
:1028A00063EB0403994208BF904230BD064C074DCC
:1028B00006E0E06840F0010394E807009847103410
:1028C000AC42F6D3FFF7C0FBA00E2100E00E2100C2
:1028D00070B58C1810F8015B15F0070301D110F8E2
:1028E000013B2A1106D110F8012B03E010F8016B0F
:1028F00001F8016B5B1EF9D12B0705D40023521E92
:102900000DD401F8013BFAE710F8013BCB1A921CF9
:1029100003E013F8015B01F8015B521EF9D5A142F7
:10292000D8D3002070BD00000B48016809070BD404
:10293000C16921F00301C161016841F00801016032
:10294000016821F0080101600448416E21F0800116
:1029500041667EF6E9BE0000005001B0002001B0E3
:1029600010B502F0F3FA10BD70B5032017490968DD
:1029700041F38001491C164D00290CD113490C313B
:102980000968C1F3000131B110498C39096801F0BF
:102990000701884303D02869401C286170BD0D4C95
:1029A000206820F001002060206840F004002060D2
:1029B00009494FF40030086002F078FBE868401CD9
:1029C000E860206840F00100206070BDD4A40040A1
:1029D000C48C002088E2004084E200E0FEE728F694
:1029E000DDB8000005280CD2064A116801F4E02188
:1029F000B1EB004F05D0116821F4E02141EA00401D
:102A00001060704700A00040FEE70000024909681E
:102A100001F007010170704700A0004070B5044646
:102A2000072C20D2104E306800F00700A04214D0CE
:102A3000032008F04FFCF06820F0070545F0010086
:102A4000F06000BF00BF00BF00BF204608F042FC9E
:102A5000064850F824002843F060044804491C3814
:102A600050F82400086070BD00A000409C082100C0
:102A7000600300200248016841F470010160704762
:102A800088ED00E002480068001D05F05BBD000015
:102A90003891002002484068001D05F053BD000039
:102AA0003891002002488068001D05F04BBD0000F1
:102AB000389100200248C068001D05F043BD0000A9
:102AC0003891002002480069001D05F03BBD000060
:102AD0003891002002484069001D05F033BD000018
:102AE00038910020FEE700000FB4054B10B503A994
:102AF000044A029800F062FC10BC5DF814FB000070
:102B0000D15A200068890020002809DB00F01F024C
:102B1000012191404009800000F1E020C0F88012BE
:102B20007047002809DB00F01F0201219140400995
:102B3000800000F1E020C0F88012704700280DDB13
:102B400000F01F02012191404009800000F1E020C7
:102B5000C0F88011BFF34F8FBFF36F8F704700280D
:102B600009DB00F01F02012191404009800000F1C3
:102B7000E020C0F800117047002809DB00F01F02B8
:102B8000012191404009800000F1E020C0F80011CF
:102B90007047002804DB00F1E02090F80004704743
:102BA00000F00F0000F1E02090F8140D70470028AD
:102BB00004DB00F1E02090F80004704700F00F0003
:102BC00000F1E02090F8140D7047002804DB00F1BC
:102BD000E02090F80004704700F00F0000F1E020C2
:102BE00090F8140D7047002804DB00F1E02090F805
:102BF0000004704700F00F0000F1E02090F8140D81
:102C00007047000002480068C0F3022070470000CF
:102C10000CED00E002480068C0F30220704700009D
:102C20000CED00E0EFF310807047000000000000A2
:102C30002DE9F0412DED020B9FED3D0B2DED028BAB
:102C40009FED3D8BDDE90254C4F30A50A0F2FF363C
:102C5000142E37DA002E18DA53EC102B9DED020BF0
:102C600051EC100BFFF7ECFA53EC182BFFF706FEB4
:102C700057D2002CBCBF4FF00044002551DB54EA72
:102C8000050018BF2E4C1BD14BE02E4820FA06F74A
:102C900004EA070028431FD053EC102B9DED020BD4
:102CA00051EC100BFFF7CCFA53EC182BFFF7E6FDB5
:102CB00037D2002C03DD4FF48010F0400444BC43B5
:102CC00000252EE0332E07DCA6F114004FF0FF3173
:102CD00021FA00F73D4206D19DED020BBDEC028BBF
:102CE00002B0BDE8F08153EC102B9DED020B51ECCE
:102CF000100BFFF749FB53EC182BFFF7BFFD10D269
:102D0000002C0DDD142E08BF641C09D0C6F1340060
:102D1000012101FA00F02844A84238BF641C05468E
:102D2000BD43CDE902549DED020BD7E70000000042
:102D30009C7500883CE4377E000000000000000025
:102D40000000F03FFFFF0F0010B52DED020B2DED41
:102D5000088B84B09DED0C0B51EC100BFFF71AFDA6
:102D600041EC180B9DED0C0B53EC182B51EC100B98
:102D7000FFF707FB41EC190B0D989FED290B10F0A5
:102D8000004F53EC102B51EC190B9FED21AB9FED35
:102D900022BB0ED0FFF75AFD0ED953EC1B2B51EC82
:102DA000190BFFF76BFD1CD214E000BF41EC180BB0
:102DB00017E0FFF74BFD06D253EC1A2B51EC180B22
:102DC000FFF7DFFAF2E753EC1B2B51EC190BFFF77F
:102DD00055FD06D853EC1A2B51EC180BFFF730FABF
:102DE000E4E78DED028B9DED0C0B18EE901A10EEC2
:102DF000900A8DED000B61F31E0003909DED020B18
:102E000004B0BDEC088B02B010BD00000000000053
:102E1000000000000000F03F000000000000E03F64
:102E2000000000000000E0BF02E008C8121F08C157
:102E3000002AFAD170477047002001E001C1121F3B
:102E4000002AFBD1704780F3108870472DE9F74FB7
:102E500007460298DFF888A1DFF888814FEA500B17
:102E60005C46019D6048CAF800003F20D8F8041075
:102E700060F30501C8F80410D8F8040020F480308D
:102E8000C8F80400DAF8000020F4700040EA0750A7
:102E9000CAF80000DAF8000020F4702040EA074089
:102EA000CAF800000D2F05D1DAF8000040F4004008
:102EB000CAF800000E2F05D1DAF8000040F4804077
:102EC000CAF80000DAF8000040F40050CAF8000028
:102ED000DAF8000020F06050CAF80000DAF80000CC
:102EE00020F00F0040F00300CAF80000002000F0BE
:102EF000CFF8012871D1DAF8000040F08040CAF81C
:102F00000000002008E0D8F8081041F48031C8F82B
:102F10000810401C411C05D0D8F80810C1F300214E
:102F20000029F0D1072000F0B3F8012855D141E085
:102F300000264FF47A7924E04E451ED9DAF80000D5
:102F400020F08040CAF80000DAF8000040F00040AD
:102F5000CAF80000DAF8000020F00040CAF80000CB
:102F6000002000F095F8012837D12049086A401C5C
:102F7000086205200CF64AFB72E701200CF646FBBE
:102F8000761CD8F80800C0F300200028D4D0D8F868
:102F9000080000F07F02A24200D92246002006E08D
:102FA000D8F800102980090C69802D1D401C904222
:102FB000F6D3A41A002CBBD10298C00708D0D8F8C9
:102FC0000800C0F300200028F9D0D8F800002880BD
:102FD000BDE8FE4F002000F05BB8BDE8FE8F0000AA
:102FE00000A8004000E000400A070807C48C002049
:102FF0002DE9F041044615480021C0F89410012144
:103000004161134D686A134EF06200F001014942BC
:103010000140C80512D440F2011704E044B1641E17
:1030200001200CF6F3FAA869B84204D1012003E0AC
:103030000020BDE8F08100200028EFD0064800689D
:1030400070626868B0620120F3E7000000D01D42A2
:1030500000E00040C48C002000A8004009480A4954
:10306000826A4A60094B426A1A60808D00F0010250
:1030700052420240D00503D4086A20F001000862E1
:1030800070470000C48C002000E0004000A8004011
:103090002DE9F0410546114FF868C0F30240A842FF
:1030A00002D10120BDE8F081F86820F00700284334
:1030B000F86000244FF6FF76F868C0F30240A8429B
:1030C00005D001200CF6A2FA641CB442F4D3B44239
:1030D00001D10020E6E70120E4E7000000E0004025
:1030E0002DE9FF5F82B00021DDE90430020DDDF83B
:1030F00040B0034318D044F61050A2F2FF324243CE
:103100001514119801281FD0A5EB0B00401C5FEA95
:10311000000A4FF000064E4FDFF83891B046504697
:1031200015D5CAF1000413E0119801244AA301281F
:1031300001D16FEA0B010298119AC0E90031C0E990
:10314000024206B0BDE8F09FCBF10000DFE7044685
:103150000021404A491842EB0450CDE9001012E02A
:10316000E00707D032463B4640464946FEF7D0FFCF
:103170008046894632463B4610461946FEF7C8FF50
:1031800006460F466410002CEAD1DDE90401DDE9B2
:103190000023BAF1000F06DAFEF7BAFF42464B46AB
:1031A000FEF7B6FF05E0FFF7F2F842464B46FFF7A1
:1031B000EEF804460E460022284BFFF75FFB03D8CB
:1031C0004FF0FF30014607E00022254B20463146F4
:1031D000FFF736F8FFF722FB102409E0002C0ADB8A
:1031E0000A220023FFF7E0F9039B30321A55641ED0
:1031F00050EA0102F2D1641C039AC4F11103144491
:10320000119A012A03D0012208430DD10AE0084394
:1032100004D000204FF0110B119072E7A3EB0B05C7
:103220006D1E0DE05B4504DD4FF0000205F1010568
:1032300004E003DA4FF00002A5F10105002AECD00A
:1032400002981199C0E90231C0E9004579E7000010
:10325000000014400000F03F300000000000F04388
:103260000000E03FF0B506462DED068B89B00D4617
:103270009FED459B202101A8FEF721FFB0EE498A72
:10328000F0EE698A4248C08BFFF7FEF89FED411BC4
:1032900053EC112BFFF77BF841EC1A0B102201A91C
:1032A0003046FFF7D3FD002401AF04F1080037F8E2
:1032B0001000FFF7E9F853EC182BFEF7C1FF41ECC3
:1032C000180B641CE4B2082CEFD351EC180B9FEDE3
:1032D000330B53EC102BFEF71BFF41EC180B0D2E9C
:1032E00002D00E2E29D046E09FED2E0B51EC100B94
:1032F00081F0004141EC190B6888FFF7C5F853ECE9
:10330000192BFEF705FF41EC190B2888FFF7BCF8D5
:1033100053EC182BFFF738F853EC192BFFF737F85D
:103320009FED221B53EC112BFFF731F853EC1A2BB6
:10333000FEF786FF41EC190B1DE09FED1E0B51ECD3
:10334000100B81F0004141EC190B6888FFF79CF8E5
:1033500041EC1A0BA888FFF797F853EC182BFFF7EE
:1033600013F853EC1A2BFFF712F853EC192BFEF756
:10337000CFFE41EC190B09B0B0EE490AF0EE690A34
:10338000BDEC068BF0BD0000000000000000000056
:10339000B04500200000000000005940000000007F
:1033A0000000C03F000000000000004079E9263125
:1033B00008AC5CBFB76DDBB66DDB0E402DE9FF4F8F
:1033C00095B09B468946064600250FE2252877D111
:1033D00000242746F84A0121059400E0044316F82A
:1033E000013F203B01FA03F01042F7D130782A2840
:1033F00011D06FF02F033078A0F13002092A16D8CF
:10340000059A44F0020402EB820203EB42021044EC
:10341000761C0590EFE759F8042B0592002A03DA91
:10342000504244F40054059044F00204761C307875
:103430002E2816D116F8010F44F004042A280DD0C6
:103440006FF02F023078A0F13003092B09D807EB79
:10345000870302EB4303C718761CF3E759F8047B94
:10346000761C30786C280FD006DC4C2817D06828E2
:103470000DD06A2814D104E0742810D07A280FD116
:103480000DE044F400140AE044F4801401E044F434
:1034900040147278824202D104F58014761C761CA6
:1034A000307866280BD013DC582877D009DC002848
:1034B00075D04528F6D04628F4D047281AD19DE18A
:1034C00018E0632835D0642879D0652812D195E1B9
:1034D000702873D008DC6728F1D069286FD06E2877
:1034E0000DD06F2806D1B5E073282CD0752875D083
:1034F000782874D05A46179990476D1C75E1C4F32B
:103500000250022809D003280DD0D9F80010042851
:103510000DD00D6009F1040967E1D9F80010EA1730
:10352000C1E90052F6E7D9F800100D80F2E70D70FE
:10353000F0E719F8041B8DF8001000208DF8010049
:10354000EA46012003E059F804AB4FF0FF30610771
:103550004FF0000102D40DE008F101018846B942A4
:103560000FDA8045F8DB1AF808100029F4D108E0DA
:1035700008F1010188468142FADB1AF80810002997
:10358000F6D105985B46A0EB080721463846179A06
:1035900000F094FA284400EB080507E04DE029E12B
:1035A0000DE01AF8010B5A4617999047B8F1010837
:1035B000F7D25B4621463846179A13E142E00A22C9
:1035C0000092C4F302524FF0000A022A08D059F8C0
:1035D00004CB032A4FEAEC710AD00DE029E02AE07F
:1035E00009F1070121F00702F2E802C1914609E062
:1035F0000FFA8CFC4FEAEC71042A03D14FFA8CFCD1
:103600004FEAEC71002907DA0A460021DCF1000CD0
:1036100061EB02012D2202E0220504D52B228DF858
:103620000420012203E0E20701D02022F7E79046C0
:1036300059E00A2102E010220DE010214FF0000AAB
:1036400000910BE010224FF0000A44F00404082718
:10365000009203E008224FF0000A0092C4F30252E5
:10366000022A05D059F804CB0021032A08D009E02A
:1036700009F1070121F00702F2E802C1914605E0D5
:103680001FFA8CFC042A01D10CF0FF0C4FF000084B
:10369000220728D5702806D0009B83F0100353EA38
:1036A0000A0305D00EE040228DF80420012208E034
:1036B0005CEA010206D030228DF804208DF8050066
:1036C00002229046009B83F0080353EA0A030AD1C2
:1036D0005CEA010201D1620705D530228DF8042091
:1036E0004FF001087F1E582804D034A003900EA884
:1036F00002900DE036A0F9E753466046009AFEF7C7
:1037000053FF84460398825C0298401E0290027028
:103710005CEA0100F0D1029806A9081A00F1200A1B
:10372000600702D524F4803400E00127574502DD0C
:10373000A7EB0A0000E0002000EB0A0100900598CA
:103740004144401A0590E00306D45B462146179A8F
:10375000059800F0B3F90544002706E001A85A4691
:10376000C05D179990476D1C7F1C4745F6DBE00351
:103770000CD55B462146179A059800F09FF9054441
:1037800004E030205A46179990476D1C0099481E56
:1037900000900029F5DC08E0029802995A4600786A
:1037A000491C0291179990476D1CBAF10001AAF1CA
:1037B000010AF1DC65E100000928010030313233F3
:1037C000343536373839616263646566000000005D
:1037D0003031323334353637383941424344454647
:1037E0000000000000F058F90544761C30780028ED
:1037F0007FF4ECAD19B02846BDE8F08F620700D425
:10380000062709F1070222F0070CFCE80223E14633
:1038100003F000485FEA080C02D00FF2702C0DE0B4
:103820005FEA045C02D50FF2682C07E05FEAC47C13
:1038300002D00FF2602C01E0AFF2700C4FF0FF38B5
:1038400023F00043CDF850C065280CD006DC452895
:1038500009D046281DD047283DD13DE0662818D024
:1038600067287ED138E00021112F01DB112000E014
:10387000781CCDE9000106A90EA8FFF731FCDDE9AF
:103880000F010E9A03910021009207F1010A0491A1
:103890004DE04FF000400097CDE9011006A90EA8B9
:1038A000FFF71EFCDDE90F0203920E9B1199002227
:1038B000DDF80CA00093049211B9791C00EB010A09
:1038C000B7EB0A0004D4C0F1FF3007F1010A0490FD
:1038D000AAEB0700019044E0012F00DA0127002144
:1038E000112F01DD112000E03846CDE9000106A9C5
:1038F0000EA8FFF7F5FBDDE90F010E9A03910021F9
:1039000004910092BA4621070CD40399514500DA7C
:103910008A46BAF1010F05DD009AAAF10101515C56
:10392000302908D0B84202DA10F1040F06DA01217A
:10393000CDE9011015E0AAF10101E9E7002805DC55
:10394000049901440491AAEB000102E0411C514595
:1039500000DD8A460499401A401C01904FF0004057
:103960000290200704D40198504501DBCDF8048073
:1039700000208DF84F0002980DF14F07B0F1004F75
:1039800025D02B200E9002984FF0020800280CDA68
:10399000404202902D200E9007E00A210298FEF787
:1039A000EDFD3031029007F8011DB8F10001A8F1DA
:1039B0000108F2DC02980028EFD1791E0E980870F9
:1039C000307800F0200040F0450007F8020D12A802
:1039D000C01B00F107081498007800B1012000EB2B
:1039E0000A01019801EBE07105984144401A401E1C
:1039F0000590E00306D45B462146179A059800F02F
:103A00005DF805441498007818B15A461799904704
:103A10006D1CE00324D55B462146179A059800F0FB
:103A20004DF805441CE00498002807DBDDE903019C
:103A3000884203DD0098405C179901E01799302017
:103A40005A469047049805F10105401C04900198DE
:103A5000401E019004D12E205A46179990476D1CA4
:103A6000BAF10001AAF1010ADDDC05E017F8010B4B
:103A70005A46179990476D1CB8F10001A8F101084A
:103A8000F4DC5B462146179A0598ABE62D00000052
:103A90002B000000200000002DE9F0410446002525
:103AA0001E461746880404D405E039462020B04756
:103AB0006D1C641EF9D52846BDE8F0812DE9F04162
:103AC000044600251E469046C80301D5302700E075
:103AD0002027880404D505E041463846B0476D1CD0
:103AE000641EF9D52846BDE8F081000010B596F6B1
:103AF00025F808B1002010BDBDE810403C21014868
:103B000001F000BB7445002010B501F0E9F910BDCB
:103B100009F0EABD70B504460D46294620460CF072
:103B200051F92946204609F02FF82946204609F088
:103B300055F970BD10B56FF6C3FF0246012307218A
:103B400018463CF6FFFE01210170BDE810403CF62E
:103B500045BF3CF643BF00002DE9FC4704468846BC
:103B60002788ADF800706088ADF80200A188ADF834
:103B70000410B4F80690ADF806900025C2B20C2AE5
:103B800008D1050B20F47040ADF8020021F470401C
:103B9000ADF80400BDF80200824614F6B9FC00EB53
:103BA0000546F04310F0FF0F18D0BDF8040014F6DE
:103BB000AFFC00EB054082B2ADF80420134800785A
:103BC000C8B12806000AC6F3072140EA012040F0E8
:103BD0004D014B4638463CF6B5FE11E00AEB054276
:103BE0004B4607214FF45F603CF6ACFE40B1A0F1BC
:103BF00014010F6104E04B46314638463CF6A2FE04
:103C0000E188A8F80010BDE8FC870000648F002060
:103C100003490A6822F4C06242EA40200860704703
:103C200004A8004070B58EB005460C46474991E89F
:103C30004D00CDE90A02CDE90C36D1E9052308692A
:103C400006AEC9690DC6099114224049203101A868
:103C5000FEF71CFAD4B13E4906200BF045FB3D4966
:103C600007200BF041FB3C491B200BF03DFB3B497F
:103C700012200BF039FB35493C39A1F12C02052DFE
:103C800061D2DFE805F0060606213900E5200EB016
:103C900070BD207931F810000B90607932F8100077
:103CA0000C90A0790D9020680A902848543850F85C
:103CB000350021880904090C04D018B10AA904F0C0
:103CC0003BFB39E0E420E2E7207901EB4000808A09
:103CD0000790607902EB4000C0880890A0790990B5
:103CE00020680690207810F0FF0F03D006A804F09B
:103CF000B7F921E0E420CAE72079031F042B01D89B
:103D0000E720C4E7022819D001200290207901EBB6
:103D10004000008D0390607902EB400080890490A0
:103D2000A079059020680190207810F0FF0F08D04E
:103D300001A9002023F6E2FA0020A8E70220029061
:103D4000E4E7E420A3E7E620A1E7000074072100F0
:103D5000C1611000BB611000B7611000B1611000BB
:103D6000002806D0002904D0024AD269002A00D0D7
:103D70001047704720C400200248006A002800D085
:103D80000047704720C4002010B50848017800297A
:103D90000AD101210170064893F6ECFBBDE8104002
:103DA0000021044893F67CBD10BD00004889002026
:103DB000D56110007DD720002DE9F04104460D4665
:103DC0001746002D04D0012D02D00120BDE8F0815E
:103DD000E4B1DFB1607801281AD0EFF31186022038
:103DE000FEF7D7FE8046FEF70DFF401C0121814003
:103DF00008EB0100C0B280F3118800206070A5704C
:103E0000E761F0B280F311880020DFE70120DDE7F1
:103E10000620DBE710B50446002C0CD0204600F04D
:103E2000B3F9FF2060700021A160E1602161616150
:103E30000020E06110BD012010BDF0B5DDE90745AF
:103E4000059981614FF47A76A2FB061C03FB06C339
:103E5000002702FB0732C0E9021209196A41C0E9D2
:103E6000041200210162F0BD2DE9F0410446002C4E
:103E700013D0EFF311850220FEF78BFE0746FEF705
:103E8000C1FE401C012606FA00F03844C0B280F39F
:103E900011881248002121620EE00020BDE8F08167
:103EA000D4E90432D1E9047CDB1B72EB0C0202D2B0
:103EB000016A216203E00846016A0029F0D1046228
:103EC0006670064810380168491C0160016B41604A
:103ED000E8B280F311880120E0E70000E8C200208A
:103EE0002DE9F04105460024EFF311860220FEF78C
:103EF00050FE0746FEF786FE401C012181407818DF
:103F0000C0B280F31188134A106BE8B115B102F109
:103F1000100010E00446206A10631068401E106014
:103F20000CE0A94206D11168491E1160296A01629C
:103F30002C4603E00846016A0029F2D124B1002092
:103F400020626070106B5060F0B280F311882046E0
:103F5000BDE8F081D8C200202DE9F041EFF31187D0
:103F60000220FEF716FE0446FEF74CFE401C01211F
:103F700081406018C0B280F31188114D002608E01E
:103F80002078012804D1E16909B1A0698847267029
:103F90002D6A2C6A002CF3D1094D103D07E0E16930
:103FA00009B1A06988472670206AA8632662AC6BB5
:103FB000002CF4D1F8B280F311880120BDE8F08123
:103FC000E8C200202DE9F041EFF311870220FEF74F
:103FD000E0FD0446FEF716FE401C012606FA00F03E
:103FE0002044C0B280F311881D4DA5F110082DE0CA
:103FF000D4E90430D8E902125B1A60EB0200D8E978
:104000001021D21A814124D326702046FFF768FF81
:10401000A078012806D012482830002121620168CA
:1040200061B10FE0D8E90220D4E9021351185841D8
:10403000C4E904102046FFF717FF07E0046005E01D
:1040400001F1200001680029FAD104602C6A002CDB
:10405000CED1F8B280F311880120BDE8F0810000D4
:10406000E8C200202DE9FF5F82460E4693464FF0DE
:104070000008BAF1000F20D0414886421DD8E6B1B1
:10408000EFF311870220FEF784FD0446FEF7BAFD28
:10409000401C012181406018C0B280F31188504655
:1040A00006F0C0F810B19AF8010040B1F8B280F300
:1040B00011880F2004B0BDE8F09F0120FAE708F056
:1040C0007FFC04460D464FF47A7106FB01F0224650
:1040D0002B46002105F06AFFDFF8A890B0B1D9F8AF
:1040E000040048B1D0E90410091B60EB0500C9E9E0
:1040F000021008F0DFFC04E00021C9F80810C9F83C
:104100000C104FF00108D9E9020106E0D9F80400CB
:10411000D0E90421101B61EB0501CDE90201324613
:104120000023CDF800B05046FFF787FE5046FFF75A
:104130009BFE0BF03FF84FF0E024D4F800014FF065
:10414000806510F0806F01D0012000E0002020B9D0
:104150001A20FEF7D9FCC4F80051B8F1000F0AD0BC
:10416000D9F80400D0E90431D9E90202181A61EB48
:10417000020108F05BFCF8B280F31188002099E797
:10418000008AB907D8C200202DE9F0410446002575
:10419000002C39D0EFF311870220FEF7FAFC064617
:1041A000FEF730FD401C012181407018C0B280F341
:1041B00011886078012824D1144E7068A0420BD178
:1041C00008F0FEFBD4E90432181A62EB0102C6E9DA
:1041D000020208F06FFC01252046FFF781FE5DB169
:1041E000706848B1D0E90421D6E90203101A61EBE6
:1041F000030108F01BFC04E01DB9706808B908F061
:1042000059FCF8B280F31188BDE8F081D8C20020D3
:10421000002070472DE9F04105460F46002D06D0DD
:104220002AB12C78062C04D3E820BDE8F081E520E3
:10423000FBE7384E05F1580046F82400D2E900317A
:104240000A46703019460AF0DBFB291D286D0BF079
:1042500005FE0028E9D156F82410281D486656F8B6
:104260002400076056F824001822083005F14001A8
:10427000FDF70CFF284856F8241000EBC4056868C9
:10428000486056F82400001D04F034F956F8240064
:10429000001D04F04BF9204801220321103809F0D9
:1042A00001FB56F82410012081F86C0056F8241008
:1042B000002081F8000156F8241081F8010156F819
:1042C000241081F8020156F8241081F803011349E3
:1042D0000C200BF009F812490D200BF005F81149DC
:1042E00034200BF001F8104935200AF0FDFF0F498A
:1042F00036200AF0F9FF0E4937200AF0F5FF95F94C
:10430000010023F647F895F9010023F661F8002033
:104310008BE7000038910020B8072100852A200093
:10432000952A2000A52A2000B52A2000C52A2000B1
:10433000D52A200070B5062801D3E82070BD134CA3
:1043400054F820304BB193F86C5035B139B132B1DB
:1043500093F80351012D04D010E0E52070BDE42056
:1043600070BD002583F8035154F820305B680225A6
:10437000C3F8885054F820305B681B6854F820005C
:10438000001D04F03DF90028EAD170BD38910020ED
:104390002DE9F04104461A4D55F8240070300AF01A
:1043A00044FB82B2164600277AB155F8240090F8F3
:1043B0000111012909D0802A0ED300F1800170304B
:1043C00080220AF047FB80260BE055F8240080F895
:1043D00000710020BDE8F08100F1800170300AF02A
:1043E00039FB55F8240080F8047155F82400324652
:1043F00000F18001001D2CF6CBFF0028EAD1E9E78F
:104400003891002070B50446062C01D3E82070BD19
:10441000184D55F8240090B190F86C307BB181B103
:104420007AB1002680F8026155F8240070300AF055
:1044300055FB55F8240090F8001121B10AE0E52061
:1044400070BDE42070BD90F8011119B990F86C109E
:10445000012901D0E22070BD012180F80011204621
:10446000FFF796FF20B155F8241081F8006170BD68
:10447000002070BD389100202DE9F84307460C4616
:10448000904604F1080520468FF690FE0346344E10
:1044900070680021A7F58042DFF8C8C0B2F5804FF0
:1044A00003D2DCF80010401A0121E218824202DD3A
:1044B0000520BDE8F8833068421EC2F30B02821A61
:1044C00002F6FF72C2F3073211B1DCF8001000E00F
:1044D0000021DFF894C0DFF89490DCF800C0D9F830
:1044E0000090ACEB090C96F80990A2EB09020CEBDA
:1044F000C202101A401A001FE918814229DD002566
:104500004FF4004911231F2249462846009573F6AF
:10451000A5F80021084603F005F840B113231F2237
:1045200049460020009573F699F80F20C1E7707A8C
:1045300005F07AFC0028BCD112231F2249460095C1
:1045400073F68CF8424621463846BDE8F8430BF036
:104550009FBD424621463846BDE8F8430BF098BD62
:1045600090470020B8350020C4350020BC3500201D
:104570000948006800280DD090F82E10012909D1B3
:1045800090F83000FF2805D24FF03041086840F025
:104590008060086070470000400C002010B586B0B5
:1045A000044668466FF6BEFF9DE80E0003A80EC0E5
:1045B0000B4A891C21F070415160104670F6A0F939
:1045C000074870F611FA207F002806D1054991F8B6
:1045D0000101054A01EB0010426006B010BD000069
:1045E0008C290020A029002095C8200010B507F0D4
:1045F000AFFBBDE8104002F067BC10B501F0EAFE69
:1046000000F016F80AF04EFB09F0BAFB0AF074FE4F
:104610000BF0DEFC08F02AF806F064FC0AF066FBFA
:104620000AF06CFB04F0ACFFBDE810400AF014BBCC
:1046300010B50549054803F019F9BDE810400449D3
:10464000044803F013B9000015BA2000E1F2040099
:10465000E15A20009DDD08002DE9F0413D4C6FF04E
:104660000200C4F898003C490125280608603B492F
:1046700000200860394A1C32106840F002001060C7
:10468000106840F001001060106820F00200106017
:104690000B1F186840F001001860186820F0020035
:1046A00018602E4834380168C1F300410029FAD15E
:1046B0002A4940F2AA2638390F6866F301070F60CD
:1046C0000E6826F00C0646F008060E600E6826F00E
:1046D000C00646F080060E60204940F2FF374039A0
:1046E0000E6867F301060E600E6826F00C0646F0B1
:1046F0000C060E600E6826F0C00646F0C0060E607E
:1047000005600168C1F300410029FAD1106820F06A
:1047100004001060186820F004001860106840F071
:1047200004001060186840F00400186001200AF0CE
:1047300064FE04F52074206820F0400020602068AA
:1047400020F010002060206820F020002060BDE8EC
:10475000F081000000A0004084E200E0C4A400401A
:1047600010B506F0E5FF06F091FF01F0D3FF06F06B
:1047700075FF07F0DFFEBDE8104006F07FBF0000C8
:104780000F49086820F0040008600D4820300268D6
:1047900022F0040202600A6842F002020A600A681B
:1047A00022F001020A60016841F001010160016824
:1047B00041F002010160016821F0010101607047D0
:1047C000C0A4004070B50AF0F3FF40F21A4120B1D6
:1047D00040F24C400AF05CFE03E040F22E400AF04A
:1047E00057FE0D4CA07850B1E0880AF061FE0546F6
:1047F00020890AF05DFE29460AF0A0FF05E04FF48B
:1048000061714FF47A700AF099FFBDE87040024878
:104810004A3008F0B9BE0000C48C002010B5044630
:10482000002C0CD0204600F057F9002807D104498D
:104830004968002903D02046BDE81040084710BD54
:10484000B88B002010B50088B0F5807F01D100F052
:104850009FF810BD044A52F8200050F84B2F0A6010
:104860008088888070470000141900202DE9F05FCF
:1048700081460C46B9F1000F20D0FCB1EFF311884E
:104880000220FEF7A2F901461F480068C0F302208B
:10489000401C012282408818C0B280F31188002792
:1048A0001A48C688B0F808B08588D0F800A000F093
:1048B00045F8A04204D21020BDE8F09F0120FBE79C
:1048C000B34504D83119A94201D3481B87B2E21B72
:1048D0000AEB06004946FDF7D9FB09EB0400C11BB2
:1048E0003A465046FDF7D2FB301980B2A84201D3B8
:1048F000401B80B20549C88008F0FF0080F3118892
:1049000003F090FF0020D7E70CED00E098120120A3
:1049100010B500280ED0026862B1828852B149B148
:10492000054A116003F09AFF0348001D00F06CF87F
:10493000002010BD012010BD488C00202DE9F04161
:10494000114FFC883D89EFF311860220FEF73DF9F7
:104950000E490968C1F30222521C0121914008440A
:10496000C0B280F31188A54203D9281B401E80B233
:1049700004E0B888001B2844401E80B2F1B281F3E5
:104980001188BDE8F0810000981201200CED00E0D4
:10499000002000F037B9000010B54FF4B071154891
:1049A000FDF78DFB13480322027000210171427153
:1049B0001023836001730174427420234361012337
:1049C00003764FF4E134046442648164C164016598
:1049D0004365094A0949FFF71DFC074808490830A3
:1049E000FFF796FFBDE810404FF4805205490320C1
:1049F000FFF7A0BC50C100204C890020FD99200089
:104A00001988200050B1002010B50446002C20D099
:104A10002068F0B12169E1B16169D1B18047606876
:104A200000B180470C486EF655FF0C486EF616FF35
:104A30000B486EF655FF20460BF040F909486EF61C
:104A400019FF09486EF61CFF08486EF60DFF00209E
:104A500010BD022010BD0000B9962000DD7A2000B4
:104A6000F196200009A92000BDA92000D9A82000A6
:104A700000B5AFB0094901200870FF22B82101A894
:104A8000FDF716FB4FF48070ADF804000020ADF880
:104A9000060001A8FFF7C2FE2FB000BDB88B0020B2
:104AA00000214FF03040C1608161C0F8D011C117C2
:104AB00041610162C0F8D81103496FF48060086059
:104AC0000220FEF72EB8000084A00040014900201B
:104AD00000F0D6BF15BA200010B50446002C22D035
:104AE0000021228840F20253A2F202509A4279D069
:104AF00033DC40F20643A2F206409A425DD01BDC52
:104B000040F20243A2F202409A424ED00DDCA2F5DE
:104B10004072013A3DD0012A3BD0FF2A41D0B2F584
:104B2000807F55D13FE0002010BD01283FD00228F2
:104B30003FD003284CD13EE0042846D006DC0128B3
:104B40003DD002283DD0032842D13CE005283ED08C
:104B5000FA2842D0FB283BD144E0082847D007DCA4
:104B6000082835D2DFE800F0343E3E3E3E3E3E436C
:104B70000C283CD006DC092839D00A2837D00B286D
:104B800026D134E00D2832D00E2830D0FF281FD196
:104B900032E0204602F0A8FC204602F08BFB002009
:104BA00010BD218914E0218912E0218910E061897A
:104BB0000EE0218A0CE021890AE0618908E0A189E0
:104BC00006E0618904E0A18902E0218A00E06189B0
:104BD0002046BDE8104002F097BC2046BDE81040DA
:104BE00002F024BC2046BDE8104002F08BBB2046FA
:104BF000BDE8104002F06EBB204602F0AFFA002084
:104C000010BD000070B50446002C1CD00225114ECA
:104C1000707A844210D0304690F90610ACB103206F
:104C2000C91CB1710C490A6800EB92030A6863F36E
:104C300089020A6009F0B0FF74720849086C65F3D4
:104C40008710086470BD0025E1E76FF00200C91EFF
:104C5000B171E7E79C8A0020201101B0002001B06B
:104C600070472DE9F04105460E4614461F46204682
:104C700000F032F83B46224631462846BDE8F04176
:104C800085F694BF2DE9F04105460E4614461F46B1
:104C9000204600F021F83B46224631462846BDE832
:104CA000F04186F6B9B92DE9F04105460E461446A5
:104CB0001F46204600F010F83B4622463146284663
:104CC000BDE8F04186F610BA02490878FF220A7062
:104CD00070470000748E002010B5C0B285F642FA0D
:104CE00001491438087010BD748E002010B51521CC
:104CF0000B4808F0D3FE06210948A83008F0D4FE7E
:104D000001210748083808F0C3FEFFF776FCFFF7DB
:104D100027FDFFF7A5FFBDE81040FFF767BC0000C7
:104D20007489002000230849496808E00A89824202
:104D300004D84A89824201D3CB6802E0096800297D
:104D4000F4D1184670470000608E002010B5084A64
:104D50001378002B01D00F2010BD31B150600448F2
:104D6000083000F013F8002010BD022010BD000034
:104D7000B88B002070B504460D46FFF7B7FF2946F3
:104D80002046BDE87040FFF7E1BF000070B5044663
:104D90000D46FFF79BFE074901200AF0A5FA0649D8
:104DA00002200AF0A1FA29462046BDE8704087F6A5
:104DB00081BA00009D1708003D16080010B5124882
:104DC000016821F0070141F0040101600A200AF6A0
:104DD0001DFC0D488438016821F4807101600121B7
:104DE000002025F6B9FE01201BF658FC07490220D9
:104DF00008700AF0EFF9064932200AF075FABDE8AA
:104E000010403220FDF7ABBE90A80040908C0020EF
:104E10006129200010B519480068C0F30B0017493C
:104E20000831096821F07F41401C00EE100ADFEDD7
:104E3000140AB8EE400A60EE200A00EE101A11497A
:104E4000B8EE400A80EE801AB6EE000A31EE000A93
:104E5000BCEEC00A10EE100A486008F059FB0AF0D8
:104E6000D7FC0948016841F480710160064884302C
:104E7000016821F00701016010BD000004E400405A
:104E80000024F44B908C00200CA800400A2804D881
:104E900040F6641101EB40007047242804D840F626
:104EA000661101EB40007047252804D0262805D064
:104EB0004FF41B60704740F66210704740F67A105E
:104EC0007047000001218140044842688A434260E3
:104ED0004068002801D194F627BC70476C8E0020F2
:104EE000052110F1190F01DC022110E000F114027C
:104EF0000F2A01D803210AE00F2801D8042106E077
:104F0000A0F11402192A02D932280CDB0621064826
:104F10000268C2F303328A4205D0026822F470426A
:104F200042EA01310160704714A8004010B5002129
:104F3000084625F611FE01201BF690FB0248816809
:104F400021F48071816010BD00A0004010B51448AC
:104F50000068C0F30000002807D011480838006836
:104F6000C0F3000008B10AF08DF90E480068C0F3E4
:104F7000000038B10B4808380068C0F3000008B1E1
:104F800000F056FC0AF00CF9002807D004F08AFD66
:104F9000002803D0BDE81040FFF7C8BF10BD0000D7
:104FA00008E4004008E5004010B50AF0F9F820B127
:104FB00004F078FD08B1012010BD002010BD10B52F
:104FC0000AF080F900F0E0FB10BD10B503F054F8D2
:104FD00008F036F808F05EFCBDE8104000F0AEB80E
:104FE0002DE9FC4104468846164D4FF6FF76164FD4
:104FF00012E02968082201EB0030694687F60AFCB6
:10500000082802D01020BDE8FC81BDF80000B042A5
:1050100008D12078401C20702078797A8842E8D323
:105020000020F0E709489DF80010C170BDF802109B
:1050300081809DF8011088F80010217841700020CF
:10504000E1E70000BC35002090470020C835002073
:1050500010B51248016821F0004101600F23011DC5
:105060000A6863F31F720A600A6822F4E07242F46D
:10507000C0720A60016841F000410160084801689F
:1050800041F001010160074931200AF02DF906497C
:105090004FF40030C1F8000110BD000004A9004029
:1050A00088E200406929200004E000E0F8B5EFF351
:1050B0001085012080F31088072000906846FDF7D6
:1050C000A5FC0220FDF7AAFC32200AF69FFA0B4C41
:1050D000206840F002002060094E70890AF696FAB6
:1050E000206820F002002060B0890AF68FFA9DF84F
:1050F0000000FDF793FC85F31088F8BD04A900407B
:10510000288D002030B54FF0FF330022064C07E019
:10511000855C5D40EDB254F8255085EA1323521C9E
:105120008A42F5D3D84330BDF808210008B5009075
:105130006A460121092084F65BFF08BD0249014847
:105140000860704741801000CC05002002490148EA
:1051500008607047CD781000440D002010B594F61B
:10516000EDFC002800D0FEE710BD00000148408B98
:10517000704700007445002000B585B00021019102
:10518000029103910491134A537E127E1B0243EA5B
:10519000004010430090019102910391049102910B
:1051A0000D48019001A802F0ADFF01A802F0ACFF8C
:1051B00001236A464A2101A803F000F80F23054A9B
:1051C000442101A81DF6FEFE01A802F09BFF05B0D8
:1051D00000BD0000744500200064014070B5064623
:1051E0000C4615466FF4004010EAC43F05D040F26B
:1051F00073420AA10FA002F691FDE80B05D040F220
:10520000744206A11AA002F689FD9420464327485D
:1052100045EAC4313044A0F8661170BD72665F671C
:1052200064785F62616C695F62315F70617463684A
:105230002E63000028282875696E7431365F742942
:10524000727877696465203C3C203135292026201E
:105250007E282875696E7431365F74293078303055
:105260003030383030302929203D3D2030000000DA
:1052700028282875696E7431365F742972787769C9
:105280006E737A203C3C2030292026207E28287509
:10529000696E7431365F742930783030303037467B
:1052A00046462929203D3D2030000000008000B006
:1052B000024928220248FCF7E9BE000058082100F4
:1052C000008100B000B500F00BF85DF804EB04F0CD
:1052D00079BC00000148007870470000501301209D
:1052E00030B5084C012525706060E2602361A16043
:1052F00005488068884201D2081A00E0401A6061BF
:1053000030BD000050130120AC8C002010B504F01B
:1053100033FC044618210548FCF7D1FE034A00215E
:1053200011702046BDE8104000F046B9501301202E
:10533000F0B404460E462C482C4FB968057802623A
:1053400044628C4201D9631A00E00B1BFF689F4244
:1053500006D3134632462146F0BC0020FFF7B2BF09
:1053600087699F4201D98361C261012D0AD0022D54
:1053700027D0032D36D1134632462146F0BC0020FB
:10538000FFF7A0BF44618C4203D90169491EC16087
:1053900002E00169491C8160D0E90212914209D200
:1053A0001144490801610121017001693046F0BCD6
:1053B00000F01EB80221017081683046F0BC00F098
:1053C00017B8C169914206D1134632462146F0BC56
:1053D0000020FFF777BF03210170C1693046F0BCA0
:1053E00000F006B8F0BC7047F8120120AC8C002029
:1053F000054A936A5B1C93628AB2C1B20348044BAC
:10540000406804F05DBB0000F8120120AC8C002065
:105410003153200070B505460D4C2C212046FCF779
:105420004EFE0020A06040F2FF10E060FF222261EB
:105430004FF0FF30A061A06A401CA06201202070E4
:105440000448E9B2044B4068BDE8704004F038BB42
:10545000F8120120AC8C0020315320002DE9F843D4
:1054600007460D4690462E4C207801280BD0022886
:1054700013D00820E06101B043462A463946BDE812
:10548000F043FFF71FBFE76040F2FF11216128469C
:10549000BDE8F843022200F079B800260096676163
:1054A000684600F03FF870B1012810D002281FD0E4
:1054B00003282DD00720E06143462A463946FFF7EE
:1054C00001FFBDE8F8832846FFF7A4FFF9E70F2D99
:1054D00006D23146A6600122681C00F057F8F0E7BA
:1054E0000520E06143462A463946FFF7EBFEE8E730
:1054F00035B1A66001220021681E00F047F8E0E700
:105500000620E06143462A463946FFF7DBFED8E72E
:105510000098E06143462A463946FFF7D3FED0E7BC
:10552000D812012010B5174B17490A698968154C24
:10553000DB6864698B4203D98C4201D9022010BD1B
:105540008B4203D28C4201D2012010BD8B4201D983
:105550005B1A00E0CB1A8C4201D9611A00E0091BEA
:10556000934203D3914201D3002010BD934201D254
:10557000022010BD914201D2012010BD0221016024
:10558000032010BDD8120120AC8C002030B4074B92
:105590009C69641C9C6158601A708AB2C1B204484C
:1055A000044B406830BC04F08BBA0000D8120120D4
:1055B000AC8C00205D54200070B50546064C2021BF
:1055C0002046FCF77CFD0021A1602846BDE8704024
:1055D0000122FFF7DBBF0000D8120120F8B50E460C
:1055E0001F4C00250095E169491CE1616660A260DD
:1055F000E1682161E0601B498B68834201D2C01AD7
:1056000000E0181A6169814201D96061A2616846AF
:1056100000F02AF858B101280ED0022814D003282F
:1056200018D00098A062204600F0BFF8F8BDA5622F
:10563000204600F0BAF8F8BD012084F8200030467A
:10564000A16900F077F8F8BDA1683046491C00F068
:1056500071F8F8BDA1683046491E00F06BF8F8BD3E
:1056600024130120AC8C00202DE9F0432F4A304F49
:10567000B96800250026D3688B4201D95C1A00E086
:10568000CC1AFF68A74202D30020BDE8F083D2F80D
:105690002480B8F1010F10D092F82040012C0ED0D8
:1056A000224CD2F81CC04FF00109A769A468C44578
:1056B0000BD3A74205D10020E7E70020E5E7002053
:1056C000E3E782F820900120DFE7BCF1010F11D958
:1056D000D2F810C08C4501D98B4203D38C4509D236
:1056E0008B4207D9A74201D10020CEE782F8209053
:1056F0000120CAE78B4201D9012600E0012545B10E
:10570000B4F5FF7F03D9092101600420BDE7022021
:10571000BBE736B10CB10320B7E70A2101600420D2
:10572000B3E70B2101600420AFE700002413012040
:10573000AC8C00208AB2C1B20248034B406804F02E
:10574000BFB90000AC8C0020DD55200070B50446C8
:105750000E4615462C210948FCF7B1FC074B0021E9
:1057600083F82010491E59615C620548AAB2F1B263
:105770004068BDE87040034B04F0A2B92413012037
:10578000AC8C0020DD55200010B504F07BF900281A
:105790000AD0FFF79FFD18B1BDE8104000F028B80F
:1057A000BDE81040FFF7B2BD10BD00B500F004F831
:1057B0005DF804EB04F006BA0B4901220A71826A13
:1057C0008A60C269CA60C2680A6142684A618268C6
:1057D0008A61064AC0689268904201D9801A00E046
:1057E000101AC8617047000068130120AC8C0020BB
:1057F0002DE9F04104F0C0F9074604F0CFF98046E6
:10580000094C26680948456920212046FCF757FCC9
:10581000761C266000202071424639462846BDE8A5
:10582000F041FFF793BF000068130120AC8C00200B
:1058300010B50E4C2069401C206104F0C9F9E060ED
:1058400004F09AF9606004F0A9F9A060084A002108
:1058500011606161E3692BB182B22179E068BDE832
:1058600010401847BDE8104004F0ACB9B812012050
:1058700000E50040054904480860064904480861FD
:1058800005490520087070479D452000380D00200F
:10589000714520008C290020858E00202DE9FC41D7
:1058A000164804680834164E3078002802D00020CC
:1058B00090F65AFC134D4FF6FF77082269462046B2
:1058C00090F65CFCBDF80000B84211D080B1BDF884
:1058D00002008EF66BFCBDF802100830084481B25D
:1058E00020468EF63FFF044628688442E5D32C68A4
:1058F000307890F639FC2046BDE8FC81BC350020AC
:10590000B5350020C435002010B50021084B5A6879
:105910001B8809E052F83140844203D102EBC100F8
:10592000406810BD491C89B29942F3D310BD0000F4
:10593000208C002010B50021084B5A695B8809E0D3
:1059400052F83140844203D102EBC100406810BDDF
:10595000491C89B29942F3D310BD0000288C002065
:1059600010B50021084B5A681B8809E052F83140F5
:10597000844203D102EBC100406810BD491C89B2CA
:105980009942F3D310BD0000088C00200349095C44
:10599000002902D0002106F0D1B8704788130120F9
:1059A00008B51A48016821F070010160016821F012
:1059B000070141F00401016015490978002909D067
:1059C000124984390A6842F480720A60016821F041
:1059D00007010160012007F09BF90020FEF718F98C
:1059E00007F02EFC80B100208DF80000A3208DF878
:1059F000010002208DF80200684691F699F907F03F
:105A00002BFB07F065FC08BDFEE7000090A80040F6
:105A1000388D002070B5044600BFFDF703F9054638
:105A20000120FDF710FA0948047024B948220849FA
:105A30000848FCF72BFB1DB90020FDF704FA02E033
:105A40000120FDF700FA00BF70BD0000908A002021
:105A5000080E0120002000E010B507484068074903
:105A6000486006480830402203490831FCF70EFB25
:105A700003200249086010BDC00D0120002000E095
:105A80007047000070B500BFFDF7CCF80546012057
:105A9000FDF7D9F90B48047834B948220A490B4874
:105AA000FCF7F4FAFFF7D8FF0120064908701DB98A
:105AB0000020FDF7C8F902E00120FDF7C4F900BF9E
:105AC000204670BD908A0020002000E0080E0120D2
:105AD00013B501216846FEF743F901201CBD000003
:105AE0002DE9FE4F00254FF001084FF00209002676
:105AF000834FF1E0EFF3118B0220FDF758F80446D5
:105B0000FDF788F8401C08FA00F02044C0B280F38A
:105B100011887C487CF628FE82460BF0FF0080F35B
:105B200011880AF108042078082823D2DFE800F061
:105B30000423495E738DA8BC6078CDE9008602908D
:105B40001D2309221021002071F688FD6078C0EB2A
:105B5000C00007EB8000407A00280BD1012578882F
:105B600040F00400788087F80190607887F894000E
:105B700089F6F2FEADE094F801B01E23CDE9016B89
:105B8000092210210020CDF8008071F667FD6078B1
:105B9000C0EBC00007EB8000407A072810D1012538
:105BA000CBEBCB0007EB800080F8209087F80190CA
:105BB000607887F89400544A00215846126890474C
:105BC00087E01F23092210210020009671F646FD70
:105BD00097F8990000287CD10125788840F00800CA
:105BE00078800320787089F6B7FE72E020230922BE
:105BF00010210020009671F631FD97F899000728D2
:105C000067D1012587F89C90032078703F490020D8
:105C1000096888475DE021230922102100200096B1
:105C200071F61CFD607807EB001090F8B10030BBF6
:105C30000125788840F02000788005207870607811
:105C400087F8000189F688FE43E02223092210210B
:105C50000020009671F602FD607807EB001191F8C4
:105C6000B120072A35D1012581F8B390052179703B
:105C7000617887F80011264A00211268904728E0D1
:105C80002323092210210020009671F6E7FC97F8E3
:105C9000A500F0B90125788840F010007880042034
:105CA000787089F659FE14E024230922102100207F
:105CB000009671F6D3FC97F8A500072809D10125B5
:105CC000042078701349002009688847062087F867
:105CD000A800504687F628FF88F6BEFC10B9002DB4
:105CE0003FF408AF88F6B8FC002806D02523092227
:105CF00010210020009671F6B1FCBDE8FE8F000077
:105D0000F4380020EC3B00203434002038340020EC
:105D10003C340020403400202DE9F04387B00C468D
:105D200007276278A178CDE903720020CDE905014B
:105D300021784FF00308CDE900800291EE2309227B
:105D4000102171F68BFC60780126DFF8F8900525AC
:105D500030B1012834D0022846D003286ED157E054
:105D6000207889F6A3FEC0EBC00109EB81014D72DA
:105D7000A278452A09D1CA681278022A16D091F869
:105D80002020022A01D081F8206091F82020012AE9
:105D900003D0022A01D081F8208091F82020022A25
:105DA0004CD0C9680978022905D101E04F72ECE7AF
:105DB000A178452942D0244A0021126890473DE04D
:105DC00089F89950A078452805D199F89C000228B7
:105DD00001D089F89C6099F89C0002282ED01B49BC
:105DE00000200968884729E089F8A550A07845284F
:105DF00005D199F8A800062801D089F8A86099F87B
:105E0000A80006281AD0124900200968884715E022
:105E1000207889F6B9FE09EB001181F8B150A2781B
:105E2000462A01D0CE2A01D181F8B35091F8B3109F
:105E3000022903D0074A00211268904707B00020CA
:105E4000BDE8F083F43800203434002038340020DA
:105E5000403400203C34002010B5AEB00C46FF2288
:105E6000B8216846FCF724F940F20A20ADF800009A
:105E7000ADF802406846FEF7D1FC2EB010BD10B55B
:105E8000AEB00446FF22B8216846FCF711F940F293
:105E90000D20ADF800000020ADF802001C222146C4
:105EA00002A8FCF7F3F81C3409946846FEF7B6FC28
:105EB0002EB010BD30B5AFB005460C46FF22B8215C
:105EC00001A8FCF7F5F840F20722ADF80420ADF880
:105ED00006408DF8085001A8FEF7A0FC2FB030BD99
:105EE00037B5AEB005460C46FF22B8216846FCF730
:105EF000DFF84FF40272ADF80020ADF802408DF8E3
:105F000004509DF8C0008DF808006846FEF786FC36
:105F100031B030BD00B5AFB0FF22B82101A8FCF709
:105F2000C7F84FF44170ADF804000020ADF806004A
:105F300001A8FEF773FC2FB000BD30B5AFB004462A
:105F40000D46FF22B82101A8FCF7B2F84FF44372C6
:105F5000ADF804200022ADF806208DF80840B022EC
:105F6000294603A8FCF792F801A8FEF757FC2FB0CA
:105F700030BD10B5AEB00446FF22B8216846FCF72C
:105F800097F840F20331ADF80010ADF802406846D2
:105F9000FEF744FC2EB010BD70B5AEB005460C4601
:105FA0001646FF22B8216846FCF782F840F201311C
:105FB000ADF80010ADF802408DF8045012223146C1
:105FC00002A8FCF763F86846FEF728FC2EB070BD07
:105FD00070B5AEB006460D461446FF22B82168469D
:105FE000FCF766F84FF44273ADF80030ADF802509C
:105FF0008DF8046020680290A088ADF80C00684617
:10600000FEF70CFC2EB070BD2DE9F04186B00C46B9
:10601000C3F30725284680F657FA0746284680F638
:1060200053FA0026CDE901650721CDE903100220CE
:106030000090172309221021304671F60FFBFF2D27
:1060400066D035492088088060884880A08888808C
:10605000E088C880207A0872607A48720F74D4F899
:106060000A20C1F80A20E289CA812C4B03EBC50241
:1060700016605660B4F800C023F835C0DFF8A08081
:1060800001280CD1C87B0121B1EB901F07D198F8F2
:106090001C01400703D5234841780A2931D804F16F
:1060A0000A02617A1646284692F634FD617A324633
:1060B00028468BF60BFF1C4C6FB1002087F618FCAE
:1060C000206828B1836B1BB1134A002128469847EA
:1060D00087F656FC1CE0032088F8A800D8F8AC002E
:1060E0000078012814D1002087F602FC206828B12E
:1060F000836B1BB1084A00212846984787F640FC6D
:1061000006E006700449074A0A3128468AF660FA12
:1061100006B00020BDE8F08190380020A2380020B1
:10612000F4380020403500208433002070B5AEB034
:1061300006460D461446FF22B8216846FBF7B8FF15
:1061400040F20533ADF80030ADF802508DF8046030
:1061500020680290A088ADF80C006846FEF75EFB50
:106160002EB070BD30B5AFB005460C46FF22B82149
:1061700001A8FBF79DFF40F20632ADF80420002293
:10618000ADF806208DF808502068039060680490F0
:1061900001A8FEF743FB2FB030BD30B5AFB00446C9
:1061A0000D46FF22B82101A8FBF782FF40F20D3215
:1061B000ADF804200022ADF806208DF80840B0228A
:1061C000294603A8FBF762FF01A8FEF727FB2FB0C3
:1061D00030BDF0B5AFB00C460026E079FF282ED0D8
:1061E000002789F643FC054615B1032D05D008E0CC
:1061F000E07989F65BFC074603E0E07989F6C4FCA8
:106200000746002087F674FBFF22B82101A8FBF7A0
:106210004FFF40F21220ADF80400ADF806608DF893
:1062200008708DF80C502068CDF80D00A088ADF8EE
:10623000110001A8FEF7F2FA87F6A2FB3AE000216E
:106240000E2082F651FF0546A5B36179A079CDE90C
:106250000D61CDE90F60E1782079CDE90961CDE9E3
:106260000B606178A078CDE90561CDE90760E1793F
:106270002078CDE90161CDE9036008200090F32387
:1062800009221021002071F6E9F901202870206808
:10629000C5F80300A088A5F80700A0796872E07926
:1062A00089F604FCA8700E21284688F6B3F9284622
:1062B00082F617FF2FB00020F0BD30B5AFB0044616
:1062C0000D46FF22B82101A8FBF7F2FE40F206229C
:1062D000ADF80420ADF806400E22294603A8FBF7CE
:1062E000D5FE01A8FEF79AFA2FB030BD30B58BB0BD
:1062F00006200A90364C032020700F206070002585
:1063000084F82F5084F82E504FF40070E0842085DC
:106310000A2084F82A00FB20608440F64800A0840C
:1063200008AA0AA9012083F647FE18B104A893F62B
:10633000F1FB90B1A5764FF461706080208C40F045
:1063400080002084009501950295039504A893F69A
:10635000E1FB1F4C0A3448B335E00120A0769DF8DC
:106360001000412813D09DF81A00A0719DF81D005F
:10637000E0719DF81E0020729DF81F0040F0C000E3
:106380006072FDF7B3FB6071000A2071D3E79DF8DE
:106390001800A0719DF81900E0719DF81A00207294
:1063A0009DF81B0040F0C0006072EAE710226946C9
:1063B00004A8FBF78FFE30B1102204A92046FBF79A
:1063C00065FE0BB030BD204692F6BEFAF9E700003C
:1063D000F63900200249014808607047ED6220004C
:1063E0003034002030B5AFB004460D46FF22B8214E
:1063F00001A8FBF75DFE40F20B32ADF8042000224D
:10640000ADF806208DF808402868039001A8FEF733
:1064100005FA2FB030BD10B5AEB00446FF22B8214A
:106420006846FBF745FE40F21531ADF80010ADF8B7
:1064300002406846FEF7F2F92EB010BD70B5AEB05E
:1064400005460C461646FF22B8216846FBF730FE8B
:1064500040F20233ADF80030ADF802408DF8045040
:106460008DF808606846FEF7D9F92EB070BD0000BF
:10647000FEB50E461C46B07800250127CDE9007513
:106480000290182309221021284671F6E7F8EFF34D
:1064900011811C4802781C480068C0F30220401C8F
:1064A0008740D019C0B280F31188C4F30724174A7B
:1064B00002EBC400056045604FF6FF7022F834001F
:1064C000C8B280F31188204692F6A4FB20468BF6D2
:1064D0006FFD204692F68AFA204600F0DFF9002090
:1064E00087F606FA0A48006838B1C36B2BB1B0785A
:1064F0009030C2B200212046984787F641FA00202A
:10650000FEBD000002E400E00CED00E0A238002037
:10651000843300202DE9F04F87B00446EFF3118952
:106520000220FCF744FB0546FCF774FB401C4FF0CF
:10653000010808FA00F02844C0B280F3118887F6F9
:106540001FFA8246694D0727002695F8A500DC232F
:10655000CDE90170CDE903640220009009221021E9
:10656000304671F67BF88DF8194095F8A5000C219E
:106570000D224FF0090B0A2874D2DFE800F0050C59
:106580009C9C9C19283C424D88F6B6FC85F8A58059
:1065900085F8A86094E0002C09D085F8A56085F8FE
:1065A000A6608DF8181006A9002087F6CBFA87E0C0
:1065B00095F8A600A22804D088F656FE85F8A5B066
:1065C0007EE08AF665FD062085F8A50078E04CB1EE
:1065D00088F64AFE85F8A5B0042085F8A80085F85D
:1065E000A9406DE085F8A5708DF8181006A9002067
:1065F00087F6A8FA64E08AF66DFE082085F8A50003
:106600005EE0002C5CD085F8A5708DF8182006A9F6
:10661000002087F697FA53E0A4356E70FF202870AB
:106620002879A43D042807D0062812D0304C012830
:1066300019D0032824D043E085F8A8608DF81810FD
:1066400095F8A9008DF8190006A9002087F67AFAB6
:1066500036E085F8A8608DF8182006A9002087F696
:1066600071FA2DE027E085F8A860002087F640F950
:10667000206810B1406C00B1804787F681F91FE0B7
:1066800085F8A860D5F8AC000078012818D0002063
:1066900087F62EF9206858B1806B48B115480088FC
:1066A0008DF6BAFD2168C0B2124A8B6B0021984763
:1066B00087F666F904E0AF220FA115A001F62EFBC4
:1066C00095F8A500CDE900870290DD23092210216D
:1066D000002070F6C3FF504687F60AF909F0FF0064
:1066E00080F3118807B0BDE8F08F0000F438002077
:1066F0008433002090380020626C655F73646B5FA8
:106700006761706D5F70617463682E6300000000E4
:1067100030000000024901480860704715652000FC
:106720004034002070B5AEB006460D461446FF2238
:10673000B8216846FBF7BCFC40F20A33ADF80030E4
:10674000ADF802508DF804602068029060680390F4
:106750006846FEF763F82EB070BD70B5AEB0064661
:106760000D461446FF22B8216846FBF7A1FC40F213
:106770000E33ADF80030ADF802508DF8046020887B
:10678000ADF80800A0788DF80A006846FEF746F8D4
:106790002EB070BD30B5AFB005460C46FF22B82113
:1067A00001A8FBF785FC4FF6FF72ADF80420ADF8A9
:1067B000065034B1012C09D0022C0CD0032C13D17B
:1067C0000EE04FF40070ADF804000DE040F201203F
:1067D000ADF8040008E040F20220ADF8040003E048
:1067E00040F20320ADF8040001A8FEF717F82FB01F
:1067F00030BD30B5AFB004460D46FF22B82101A828
:10680000FBF756FC40F21132ADF804200022ADF83F
:1068100006208DF808402888ADF80C0001A8FDF787
:10682000FDFF2FB030BD70B5AEB006460D46144624
:10683000FF22B8216846FBF73BFC40F20933ADF874
:106840000030ADF802508DF8046020680290606856
:1068500003902089ADF810006846FDF7DFFF2EB0E9
:1068600070BD30B5AFB005460C46FF22B82101A877
:10687000FBF71EFC40F20731ADF804100021ADF823
:1068800006108DF808502068039060680490083462
:10689000059401A8FDF7C2FF2FB030BD70B50646C4
:1068A00000240D4D05EB041090F8B11007290DD10F
:1068B000D0F8BC100A79022A08D14979B14205D131
:1068C00090F8B80010B920467EF68AFC641CE4B249
:1068D000052CE7D370BD0000F438002070B5AEB0D1
:1068E00005460C461646FF22B8216846FBF7E0FB3A
:1068F0004FF44073ADF80030ADF802408DF804500D
:106900003088ADF808006846FDF788FF2EB070BDEE
:1069100030B5AFB004460D46FF22B82101A8FBF701
:10692000C7FB4FF6FF72ADF80420ADF8064045B145
:1069300040F20520ADF8040001A8FDF76FFF2FB06D
:1069400030BD4FF40170ADF80400F5E730B5AFB0DD
:1069500004460D46FF22B82101A8FBF7A9FB4FF41E
:106960004572ADF804200022ADF806208DF80840ED
:1069700028788DF80C0001A8FDF750FF2FB030BD2E
:1069800030B5AFB004460D46FF22B82101A8FBF791
:106990008FFB40F21232ADF804200022ADF8062041
:1069A0008DF8084028788DF80C0001A8FDF736FF17
:1069B0002FB030BD30B5AFB005460C46FF22B82130
:1069C00001A8FBF775FB40F21332ADF8042000225A
:1069D000ADF806208DF8085003CCCDE9030101A8DD
:1069E000FDF71CFF2FB030BD70B5AEB006460D46AA
:1069F0001446FF22B8216846FBF75AFB40F20F33DA
:106A0000ADF80030ADF802508DF804602088ADF884
:106A10000800A0788DF80A006846FDF7FFFE2EB04A
:106A200070BD30B5AFB005460C46FF22B82101A8B5
:106A3000FBF73EFB40F21122ADF80420ADF8065002
:106A400020680390A088ADF81000A0798DF812009E
:106A500001A8FDF7E3FE2FB030BD10B5AEB00C4677
:106A6000FF22B8216846FBF723FB40F20920ADF86E
:106A700000000020ADF8020020680290A088ADF868
:106A80000C00A0798DF80E006846FDF7C7FE2EB009
:106A900010BD10B5AEB00446FF22B8216846FBF722
:106AA00007FB40F20B21ADF80010ADF8024068463C
:106AB000FDF7B4FE2EB010BD13B5AEB00446FF22F4
:106AC000B8216846FBF7F4FA4FF40371ADF80010F3
:106AD000ADF802409DF8BC008DF808006846FDF74F
:106AE0009DFE30B010BD30B5AFB005460C46FF225C
:106AF000B82101A8FBF7DCFA40F20F22ADF8042020
:106B0000ADF806408DF8085001A8FDF787FE2FB0BC
:106B100030BD70B5AEB006460D461446FF22B82112
:106B20006846FBF7C5FA40F21633ADF80030ADF811
:106B300002508DF8046020680290606803906846F7
:106B4000FDF76CFE2EB070BD70B5AEB004460D46BC
:106B50001646FF22B8216846FBF7AAFA40F20E203B
:106B6000ADF80000ADF802501422314602A8FBF740
:106B70008DFA8DF804406846FDF750FE2EB070BDCA
:106B800010B5AEB00446FF22B8216846FBF790FA74
:106B90004FF40471ADF800100021ADF802108DF82B
:106BA00004406846FDF73AFE2EB010BD30B5AFB0D8
:106BB00005460C46FF22B82101A8FBF779FA4FF4ED
:106BC0004472ADF804200022ADF806208DF808507C
:106BD0002068039020798DF8100001A8FDF71EFEB3
:106BE0002FB030BD2DE9F0410027002500266FF4BD
:106BF00088540419184806D0012C07D0022C0CD058
:106C0000032C0CD105E00568466808E08568C66875
:106C100005E08569C6690B7801E0056946690024CD
:106C200014E035F8340098420FD105EBC4004468F5
:106C300074B1A4F54F30F93803D098B2A047074695
:106C400006E098B202F012FB02E0641CB442E8D302
:106C50003846BDE8F0810000D80F00202DE9FC4146
:106C60000E4629A003C8CDE900016A46314601203D
:106C700012F612FE0746012F43D1304610F630F9C6
:106C80000446200037D110F6BFF90546FF2D09D084
:106C90003078A02808D0A1280CD0A22816D0A3288C
:106CA00019D10DE04B2426E03146284610F60EFEA1
:106CB000044610E03146284612F6B0FF04460AE0CA
:106CC0003146284600F064F9044604E0314628467F
:106CD00011F670FD044674B9707860B90C4890F8EC
:106CE0007410C90707D000EB8501C968C26E8A61BC
:106CF000B0F87000888324B1064A2146012012684A
:106D000090473846BDE8FC81A0A1A3A20000000086
:106D100084190020E8060020F8B540240221C68826
:106D2000684DF2074FF0000304D095F873100A295C
:106D30000BD00A214279042A10D300930F23092291
:106D40001021002070F68AFCBAE0432400930D2342
:106D500009221021002070F681FCB1E012B1032A53
:106D600000D00A2195F87250A94308D0422400931C
:106D7000102309221946002070F670FCA0E0057966
:106D8000022D07D90093112309221021002070F64B
:106D900065FC95E0710708D53AB1009312230922EA
:106DA0001021002070F65AFC8AE065B126F010012F
:106DB000C1800E073AD50093162309221021002026
:106DC00070F64CFC7CE046F01001C1808E0601D4C8
:106DD0004E0607D50093132309221021002070F6D8
:106DE0003DFC6DE0CE0715D04E0709D48E0711D4B7
:106DF0000093142309221021002070F62FFC5FE07D
:106E00008E0707D50093152309221021002070F664
:106E100025FC55E04E0738D5C90736D10093162317
:106E200009221021002070F619FC49E0012D02D042
:106E3000CE0722D11DE0CE0709D08E0707D50093DB
:106E4000172309221021002070F608FC38E08E0676
:106E50001BD5012A05D0022A03D0CE0701D189070C
:106E600013D50093162309221021002070F6F6FB9B
:106E700026E08E0701D4890607D50093182309223E
:106E80001021002070F6EAFB1AE0022D17D2407A9A
:106E9000032807D90093192309221021002070F636
:106EA000DDFB0DE0012A01D0022A08D138B10093A0
:106EB0001A2309221021002070F6D0FB00E00024E4
:106EC0002046F8BD84190020024901480860704737
:106ED000196D2000F006002070B5054608460178BF
:106EE000A92903D0AA2901D0AB2909D1094C94F8CA
:106EF0009410C1EBC10104EB8101497A072905D047
:106F000001462846BDE870408AF608BC87F61AFD9F
:106F1000002070BDF43800202DE9F04102460F46F4
:106F20001E460020002400256FF48851511804D01B
:106F3000012906D003290CD107E012490C684D68DD
:106F400007E011490C684D6803E010490C684D6872
:106F50003E78002212E034F83210B1420DD104EB39
:106F6000C201496800290BD00846FEF7CDFC024655
:106F7000B0B23946BDE8F0411047521CAA42EAD3EC
:106F8000BDE8F0811C070020140700200C0700203A
:106F900070B500253C210FF68BFF04468CB1032011
:106FA0006073012011F68EFA60610748206007487F
:106FB00060600748A060002120460FF699FF284630
:106FC00070BD4B25FBE7000081970100D56F2000C5
:106FD000059501007CB504461D4D207B85F8800099
:106FE000207CC10707D020F0010020742046BDE8B6
:106FF0007C4012F6B3BBA07B022806D0204612F6D6
:107000005EFBFF2085F881007CBD94F838000BF60C
:1070100023FCA0F57F41FF390ED094F838000BF621
:107020001BFC014600200A22CDE90020034602464F
:10703000204612F6F9F902E0204612F640FB94F8D9
:1070400038200121286D9140884328657CBD0000CF
:10705000841900202DE9F8430C463BA000680090FD
:107060006A462146002012F617FC0746012F62D11E
:10707000607800F00F084FF00009A18C608C11F6C9
:1070800071F808B1402550E0304E86F8749086F8CB
:10709000729002F647FB2E4920460968884705464C
:1070A000280042D102206BF6E9FB86F8728011F6C7
:1070B000F5FC86F87B9094F82A0086F87A0096F81A
:1070C0007200800820D04120E17E86F875108A0782
:1070D00004D421F0020086F875001720E18C4FF4EB
:1070E0000062914200D31146884200D9014689B21C
:1070F000A6F87610228D8A4200D21146884200D826
:107100000846A6F8780001E086F875900F4810222E
:1071100004F10A015C30FAF7B9FFA07EC00704D081
:107120006068F0662089A6F870003DB1094A2946DA
:107130000020126890473846BDE8F883064A0021CF
:10714000084612689047F6E7030000008419002003
:10715000FC060020E8060020F806002070B5054671
:107160000548446804E0E16809B128468847246876
:10717000002CF8D170BD0000608E002070B5AEB05C
:1071800005460C461646FF22B8216846FAF790FFDE
:107190004FF4C063ADF80030ADF802408DF80450F4
:1071A000ADF806606846FDF739FB2EB070BD30B50E
:1071B000AFB004460D46FF22B82101A8FAF778FFC8
:1071C00040F20162ADF80420ADF806408DF80A5097
:1071D00001A8FDF723FB2FB030BD70B5AEB005465A
:1071E0000C461646FF22B8216846FAF761FF4FF4B5
:1071F000A160ADF80000ADF802400021582C03D189
:10720000ADF802108DF80910592C04D1ADF8021018
:1072100001208DF809008DF804508DF8086068464B
:10722000FDF7FCFA2EB070BD70B5AEB006460D4647
:107230001446FF22B8216846FAF73AFF40F204529A
:10724000ADF80020ADF802508DF804602CB134F890
:10725000040BADF80800039404E02088ADF80800A2
:10726000042003906846FDF7D9FA2EB070BD70B5C2
:10727000AEB006460D461446FF22B8216846FAF71E
:1072800017FF40F20352ADF80020ADF802508DF820
:1072900004602CB134F8040BADF80800039403E04B
:1072A0000020ADF8080003906846FDF7B7FA2EB04D
:1072B00070BD000070B505460548846804E0E168CB
:1072C00009B1284688472468002CF8D170BD000019
:1072D000608E002070B5054609488468FDF7F4FC0F
:1072E0000AE0E16839B1217C814204D1E168284695
:1072F0008847012070BD2468002CF2D1002070BDA9
:10730000608E002070B505460548846804E0E16899
:1073100009B1284688472468002CF8D1002070BDA8
:10732000608E002070B5AEB006460D461446FF22B2
:10733000B8216846FAF7BCFE40F20252ADF80020D0
:10734000ADF802508DF804602CB134F8040BADF8A0
:107350000800039403E00020ADF80800039068469D
:10736000FDF75CFA2EB070BD30B5AFB005460C46E7
:10737000FF22B82101A8FAF79BFE40F20752ADF8B0
:1073800004200022ADF806208DF80850D4E901024F
:107390002168CDE90402039101A8FDF73FFA2FB05F
:1073A00030BD70B5AEB006460D461446FF22B8217A
:1073B0006846FAF77DFE40F20552ADF80020ADF8C0
:1073C00002508DF804602CB134F8040BADF80800BD
:1073D000039403E00020ADF8080003906846FDF731
:1073E0001DFA2EB070BD70B5AEB006460D461446FF
:1073F000FF22B8216846FAF75BFE4FF4A061ADF8B2
:107400000010ADF802508DF804603CB11622214600
:1074100002A8FAF73BFE1634089401E00020089019
:107420006846FDF7FBF92EB070BD000070B505464B
:10743000002D04D00D48846805F10A0612E00020F2
:1074400070BD20796A7A90420BD13146A068FAF774
:1074500041FE30B9E06820B1E16828468847012044
:1074600070BD2468002CECD1002070BD608E00201F
:1074700070B5AEB006460D461446FF22B8216846E8
:10748000FAF716FE40F20152ADF80020ADF80250B6
:107490008DF804602CB134F8040BADF808000394A7
:1074A00003E00020ADF8080003906846FDF7B6F948
:1074B0002EB070BD70B5AEB005460C461646FF2224
:1074C000B8216846FAF7F4FD40F20653ADF80030F3
:1074D000ADF802408DF80450ADF808606846FDF73D
:1074E0009DF92EB070BD000070B505460548446892
:1074F00004E0E16809B1284688472468002CF8D1E7
:1075000070BD0000608E002070B50546084600245E
:10751000FDF708FC014611B10124284688472046A2
:1075200070BD00002DE9F04F8DB008220C920022B2
:107530000B924FF008080A92099100269A4FDFF843
:107540006CB24FF0010A002848D0082204A938681C
:1075500085F660F9082803D00F200DB0BDE8F08F44
:107560009DF81000A52806D09148C1880C91447858
:1075700080780B9046E09DF81100DBF800100222A5
:1075800001EB0030083001A985F644F9BDF804107C
:10759000A1F57F40FF380AD09DF81100DBF80010FC
:1075A00001EB00304FF480518EF6B6FD90B19DF89E
:1075B0001200BDF816100C919DF81110491CCCB2A8
:1075C0000B9009AB0CAA0BA904A808F0B3FE012884
:1075D00002D017E01020C0E70020BEE7FEF75EF9FA
:1075E000411EC1F30B01401ADBF80010401A00F6EF
:1075F000FF70FF2101EB1030C4B20B9414B1CDF831
:1076000024A0012692F658FDC7E0002506950795AF
:107610005CB1DBF80000042200EB043006A985F61B
:10762000F9F8042801D00F2097E76148056045600C
:10763000A521017044709DF82C108170BDF83010A8
:10764000C1809DF81810C170BDF81A108180DBF858
:10765000000000EB043040440A90386800EB080159
:1076600008914FF480518EF657FD50B19DF81820C7
:107670004AB1012308A90AA808F030FE18B10F206A
:107680006BE7102069E7BDF81A203AB1002308A97A
:107690000AA808F023FE08B10F205EE7C4F1000934
:1076A0000A98DBF80010401A00EB0930C0F580554D
:1076B000082D2CDD082302AA08A90AA8CDF800A0ED
:1076C00093F60CF908B10F2047E7BDF80810A1F5B3
:1076D0007F40FF3830D0083DBDF80A008CF666FDCB
:1076E000BDF80A100844A84208DDAAB2002308A980
:1076F0000AA808F0F3FDC8B10F202EE782B20023DC
:1077000008A90AA808F0EAFD80B10F2025E7A8B271
:107710008CF64CFD284483B2264A08A90AA8CDF865
:1077200000A093F6DBF808B10F2016E73868089937
:1077300000F580508142B3D308221D49386885F690
:10774000B7F8082801D00F2007E7DBF800004FF456
:10775000805100EB04308EF6DFFC60B176B1DBF8CF
:107760000000042200EB043006A985F6A1F80428E5
:1077700003D00F20F1E61020EFE6002609AB0CAA9B
:107780000BA90B4808F0D6FD012802D018B10F2034
:10779000E3E60020E1E6641CE4B20748407AA04238
:1077A000BFF433AF0020D8E6C0350020BC35002040
:1077B000C835002064460020904700200748C16972
:1077C000C1F31601026AC2F316030068C0F3C112C6
:1077D000581A034951F8221048437047802001B0DD
:1077E000BC8A0020024600210BE0084850F83130E6
:1077F000501E834204D1054800EBC1004068704729
:10780000491C1029F1DB0020F9E70000500E01208F
:10781000002101E0491C4008C207FBD00846704720
:1078200010B507F0C5FF50B14FF48C6421462046D7
:1078300007F02EFE2146204607F080FF09E040F2C7
:107840004C442146204607F023FE2146204607F0FF
:1078500075FFBDE81040014805F096BE188D002068
:107860000148407870470000C48C00202DE9F047A3
:1078700004460D464FF0000800BFFBF7D3F98146E0
:107880000120FBF7E0FA30480068102802D34FF0DF
:10789000FF384BE048222D492D48FAF7F7FB4822E4
:1078A0002C492A48FAF7F2FB2B482749096840F887
:1078B00031402549096800EBC100456027884DF635
:1078C000FF7624F0010425F0010504F0030080B1E7
:1078D000A01E40F001011D4808301B4A126840F804
:1078E000221007EB06401D49174A126841F8220092
:1078F0000CE044F0010115480830134A126840F8C2
:10790000221016481049096840F8216048220F49A2
:107910001048FAF7BBFB48220D490C48FAF7B6FBB2
:1079200009480068401C0849086000BFB9F1000F11
:1079300003D10020FBF787FA02E00120FBF783FA6E
:1079400000BF4046BDE8F087948A0020002000E098
:10795000080E0120C00D0120500E012080160120CC
:1079600070B5044600BFFBF75DF905460120FBF743
:107970006AFA00201449087014481549086015482F
:1079800015490860482215491548FAF77FFB154844
:10799000124948600320086048221348FAF776FB32
:1079A00048220F490D48FAF771FB882C01D008F0E6
:1079B00089F81DB90020FBF746FA02E00120FBF729
:1079C00042FA00BF70BD0000908A0020155A2000C6
:1079D00084380020855A200080380020002000E0F4
:1079E000080E012080160120C00D012070B5134D36
:1079F00005F10804082038F699FB2146284600F0D6
:107A000039F9618879B1208800F080FE686028B17A
:107A100061882846BDE8704000F00CB92846BDE8F2
:107A2000704000F09DB800222088114600F0B6FE9C
:107A30002846BDE8704000F00BB900002814012072
:107A400070B5184D05F10804062038F66FFB214685
:107A5000284600F01AF9A17859B1208801F074FA8B
:107A60000146A07881420DD22846BDE8704000F062
:107A700077B82088002201F06FFA2846BDE87040F0
:107A800000F0E6B8022138F6FBFD686028B1A17865
:107A90002846BDE8704000F0CDB82846BDE87040EB
:107AA00000F05EB82814012070B50B4C04F10805F5
:107AB000072038F63BFBA9782888626801F04CFA69
:107AC000606818B138F6FEFB002060602046BDE813
:107AD000704000F0BDB800002814012070B50546C4
