:020000040020DA
:10200000000008204D2120008327200001601000DF
:1020100081272000F52120008928200000000000F1
:10202000000000000000000000000000156010002B
:10203000FF2120000000000085272000AD272000A0
:1020400000F002F800F071F80AA090E8000C824459
:102050008344AAF10107DA4501D100F066F8AFF236
:10206000090EBAE80F0013F0010F18BFFB1A43F076
:102070000103184758640000986400000A444FF0B8
:10208000000C10F8013B13F0070408BF10F8014BD7
:102090001D1108BF10F8015B641E05D010F8016B1C
:1020A000641E01F8016BF9D113F0080F1EBF10F880
:1020B000014BAD1C0C1B09D16D1E58BF01F801CBA3
:1020C000FAD505E014F8016B01F8016B6D1EF9D526
:1020D0009142D6D370470000103A24BF78C878C127
:1020E000FAD8520724BF30C830C144BF04680C601E
:1020F000704700000023002400250026103A28BF66
:1021000078C1FBD8520728BF30C148BF0B60704769
:10211000782900F0C080002070471FB506F0C9F88C
:1021200000F050F81FBD10B510BDDFF810D0FFF75C
:10213000F4FF03F0A9FA00F0DFFA00000000082025
:1021400003B4FFF7F0FF03BC00F08BFE01488047AB
:102150000148004719282000935620000FB4044975
:1021600010B503AA029800F0B5FA10BC5DF814FB94
:102170004C7D002070B5044685690068C10601D514
:10218000302600E02026C00707D070BDD4E9012129
:1021900030469047206A401C20626D1EF6D570BD07
:1021A00070B5044685690078C00707D170BDD4E9D1
:1021B000012120209047206A401C20626D1EF6D528
:1021C00070BD000070B5064C7C44064D7D4403E0B4
:1021D000206820448047241DAC42F9D170BD000026
:1021E0004063000040630000007B00F08000704707
:1021F00001F090BBFEE710B501F040FC10BDFEE71A
:1022000058585247010000002655000000202000C9
:10221000002020007FED9247010100000000000037
:1022200000000000000000000000000000000000AE
:10223000000000000000000000000000000000009E
:10224000F0B40D460188090502D5214C7C4402E01A
:102250001F4C7C440E34002100F1240608E002F0FB
:102260000F071209E75D42EA03721B097754491C04
:1022700052EA0307F3D102780023120704D5702D28
:1022800006D009B1022311342246F0BC00F0B0B9E7
:1022900001231034F8E770B504460D462146106856
:1022A000AFF30080024629462046BDE87040002377
:1022B000C6E7D21D22F00703D3E90023C0E7036875
:1022C000126843F0200303600823C3610023B7E7CB
:1022D000406200002DE9F05F894604464FF0000A95
:1022E000DFF874B1FB44C0F820A02046E1688847BD
:1022F000002874D0252806D0D4E901219047206A0F
:10230000401C2062F1E700265F462046E1688847CE
:102310002028054607DB312D05D2781910F8200C4E
:1023200008B10643F1E7B00701D526F00406C4F86A
:102330001CA00027C4F818A02A2D09D0284600F0B8
:1023400089FD38B304EB8708303DC8F8185019E010
:1023500059F8041B204604EB87029161E168884725
:10236000012F054618D1E069002820DA26F0200662
:102370001DE0D8F8180000EB800005EB4000303875
:10238000C8F818002046E1688847054600F062FD5D
:102390000028EED1012F0AD02E2D08D12046E16869
:1023A00088477F1C0546022F46F02006C4DBA06943
:1023B000002803DA404246F00106A061F00701D090
:1023C00026F010066C2D0BD0682D09D04C2D39D07D
:1023D0006A2D35D0742D35D07A2D33D016E038E003
:1023E000E1682F4620468847B842054609D16C2F40
:1023F00026D04FF48060E1680643204688470546B2
:1024000004E06C2F1AD04FF4807006430DB3A5F191
:102410004100192802D8203546F400664A4629466C
:10242000204626604E46FFF773FE80B101280BD090
:10243000F61D26F0070000F1080956E74020E4E702
:102440008020D8E70020D6E706F104094DE72846AA
:1024500052E7206ABDE8F09FD061000040EA010326
:1024600010B59B070FD1042A0DD310C808C9121F3D
:102470009C42F8D020BA19BA884201D9012010BD77
:102480004FF0FF3010BD1AB1D30703D0521C07E044
:10249000002010BD10F8013B11F8014B1B1B07D1A8
:1024A00010F8013B11F8014B1B1B01D1921EF1D119
:1024B000184610BD032A40F2308010F0030C00F0E3
:1024C000158011F8013BBCF1020F624498BF11F86E
:1024D00001CB00F8013B38BF11F8013BA2F1040227
:1024E00098BF00F801CB38BF00F8013B11F003039F
:1024F00000F02580083AC0F0088051F8043B083A03
:1025000051F804CBA0E80810F5E7121D5CBF51F8A4
:10251000043B40F8043BAFF30080D20724BF11F81E
:10252000013B11F801CB48BF11F8012B24BF00F883
:10253000013B00F801CB48BF00F8012B704710B5F4
:10254000203AC0F00B80B1E81850203AA0E81850AB
:10255000B1E81850A0E81850BFF4F5AF5FEA027C6C
:1025600024BFB1E81850A0E8185044BF18C918C0DB
:10257000BDE810405FEA827C24BF51F8043B40F87C
:10258000043B08BF7047D20728BF31F8023B48BF61
:1025900011F8012B28BF20F8023B48BF00F8012B9F
:1025A00070474FF0000200B5134694469646203916
:1025B00022BFA0E80C50A0E80C50B1F12001BFF4FC
:1025C000F7AF090728BFA0E80C5048BF0CC05DF862
:1025D00004EB890028BF40F8042B08BF704748BFB0
:1025E00020F8022B11F0804F18BF00F8012B704724
:1025F0002DE9F0470D4699469246044600F124081D
:102600000168880604D5E06921F01001216000E02E
:102610000120A84201DD471B00E00027A1697A19CB
:1026200002EB0900081AA0612078C00602D42046F7
:10263000FFF7A0FD002608E0D4E901211AF8060002
:102640009047206A401C761C20624E45F4DB2078BF
:10265000C0060AD52046FFF78DFD06E0D4E901212A
:1026600030209047206A401C2062381EA7F10107E5
:10267000F4DC07E0D4E9012118F805009047206A4E
:10268000401C2062281EA5F10105F3DC2046FFF75F
:1026900087FD2078000602D50220BDE8F0870120E2
:1026A000FBE7000001694A1C02610878704700B529
:1026B0008FB0CDE901310021059105497944CDE97B
:1026C000031011466846FFF705FE0FB000BD00007D
:1026D000E5FFFFFF074B70B50D467B44FFF7E7FFB3
:1026E00004462846FFF780FD10B14FF0FF3070BD63
:1026F000204670BDEB1D000010B50446AFF300800E
:102700002046BDE81040FFF71BBD000070B5032058
:102710001749096841F38001491C164D00290CD165
:1027200013490C310968C1F3000131B110498C39EA
:10273000096801F00701884303D02869401C28611B
:1027400070BD0D4C206820F001002060206840F032
:102750000400206009494FF40030086001F03EFA9F
:10276000E868401CE860206840F00100206070BD0F
:10277000D4A40040787F002088E2004084E200E09A
:10278000FEE7FEE7FEE7000005280CD2064A1168C6
:1027900001F4E021B1EB004F05D0116821F4E021F4
:1027A00041EA00401060704700A00040FEE70000D2
:1027B0000249096801F007010170704700A000405C
:1027C00070B50446072C20D2104E306800F0070088
:1027D000A04214D0032002F023FEF06820F0070589
:1027E00045F00100F06000BF00BF00BF00BF204601
:1027F00002F016FE064850F824002843F060044812
:1028000004491C3850F82400086070BD00A0004046
:1028100034842000600300200248016841F4700104
:102820000160704788ED00E002480068001D02F07A
:10283000C9B90000B888002002484068001D02F0B5
:10284000C1B90000B888002002488068001D02F06D
:10285000B9B90000B88800200248C068001D02F025
:10286000B1B90000B888002002480069001D02F0DC
:10287000A9B90000B888002002484069001D02F094
:10288000A1B90000B8880020FEE7002809DB00F0AD
:102890001F02012191404009800000F1E020C0F8B2
:1028A0008012704700280DDB00F01F0201219140CB
:1028B0004009800000F1E020C0F88011BFF34F8F85
:1028C000BFF36F8F7047002809DB00F01F02012162
:1028D00091404009800000F1E020C0F800117047ED
:1028E000002809DB00F01F0201219140400980000F
:1028F00000F1E020C0F80011704700280FDB41090B
:10290000890001F1E021D1F8001100F01F0201203F
:102910009040014201D00120704700207047002004
:102920007047002804DB00F1E02090F800047047B5
:1029300000F00F0000F1E02090F8140D7047EFF365
:1029400010807047000000002DE9F0412DED020BD2
:102950009FED3D0B2DED028B9FED3D8BDDE902548C
:10296000C4F30A50A0F2FF36142E37DA002E18DA1C
:1029700053EC102B9DED020B51EC100B04F016FFE5
:1029800053EC182B05F0C8FA57D2002CBCBF4FF0FF
:102990000044002551DB54EA050018BF2E4C1BD122
:1029A0004BE02E4820FA06F704EA070028431FD020
:1029B00053EC102B9DED020B51EC100B04F0F6FEC6
:1029C00053EC182B05F0A8FA37D2002C03DD4FF496
:1029D0008010F0400444BC4300252EE0332E07DC79
:1029E000A6F114004FF0FF3121FA00F73D4206D165
:1029F0009DED020BBDEC028B02B0BDE8F08153EC03
:102A0000102B9DED020B51EC100B05F0BBFA53ECB3
:102A1000182B05F081FA10D2002C0DDD142E08BF02
:102A2000641C09D0C6F13400012101FA00F02844E9
:102A3000A84238BF641C0546BD43CDE902549DED54
:102A4000020BD7E7000000009C7500883CE4377E4D
:102A500000000000000000000000F03FFFFF0F003A
:102A600080F31088704700002DE9F74F0746029861
:102A7000DFF888A1DFF888814FEA500B5C46019DA2
:102A80006048CAF800003F20D8F8041060F3050140
:102A9000C8F80410D8F8040020F48030C8F8040006
:102AA000DAF8000020F4700040EA0750CAF800008D
:102AB000DAF8000020F4702040EA0740CAF800006D
:102AC0000D2F05D1DAF8000040F40040CAF80000EC
:102AD0000E2F05D1DAF8000040F48040CAF800005B
:102AE000DAF8000040F40050CAF80000DAF80000FC
:102AF00020F06050CAF80000DAF8000020F00F0063
:102B000040F00300CAF80000002000F0CFF80128D0
:102B100071D1DAF8000040F08040CAF800000020CF
:102B200008E0D8F8081041F48031C8F80810401CBB
:102B3000411C05D0D8F80810C1F300210029F0D1BC
:102B4000072000F0B3F8012855D141E000264FF4EA
:102B50007A7924E04E451ED9DAF8000020F0804052
:102B6000CAF80000DAF8000040F00040CAF800009F
:102B7000DAF8000020F00040CAF80000002000F061
:102B800095F8012837D12049086A401C08620520C1
:102B90000CF63CFD72E701200CF638FD761CD8F8E7
:102BA0000800C0F300200028D4D0D8F8080000F0B6
:102BB0007F02A24200D92246002006E0D8F8001089
:102BC0002980090C69802D1D401C9042F6D3A41A5F
:102BD000002CBBD10298C00708D0D8F80800C0F379
:102BE00000200028F9D0D8F800002880BDE8FE4F6A
:102BF000002000F05BB8BDE8FE8F000000A8004098
:102C000000E000400A070807787F00202DE9F04126
:102C1000044615480021C0F8941001214161134D6C
:102C2000686A134EF06200F0010149420140C80594
:102C300012D440F2011704E044B1641E01200CF6E6
:102C4000E5FCA869B84204D1012003E00020BDE8FA
:102C5000F08100200028EFD00648006870626868A4
:102C6000B0620120F3E7000000D01D4200E0004008
:102C7000787F002000A8004009480A49826A4A601B
:102C8000094B426A1A60808D00F0010252420240F4
:102C9000D00503D4086A20F00100086270470000E4
:102CA000787F002000E0004000A800402DE9F041BE
:102CB0000546114FF868C0F30240A84202D1012036
:102CC000BDE8F081F86820F007002843F860002490
:102CD0004FF6FF76F868C0F30240A84205D0012005
:102CE0000CF694FC641CB442F4D3B44201D100202D
:102CF000E6E70120E4E7000000E00040F0B506460A
:102D00002DED068B89B00D469FED459B202101A836
:102D1000FFF747FCB0EE498AF0EE698A4248C08B63
:102D200004F0ADFF9FED411B53EC112B04F0F2FDBD
:102D300041EC1A0B102201A93046FFF795FE002442
:102D400001AF04F1080037F8100004F098FF53ECCD
:102D5000182B04F02BFD41EC180B641CE4B2082C7A
:102D6000EFD351EC180B9FED330B53EC102B04F009
:102D7000D5FF41EC180B0D2E02D00E2E29D046E0C7
:102D80009FED2E0B51EC100B04F004FD41EC190BE0
:102D9000688804F074FF53EC192B04F0BFFF41EC7A
:102DA000190B288804F06BFF53EC182B05F0EAF898
:102DB00053EC192B04F0AEFD9FED221B53EC112BAD
:102DC00004F0A8FD53EC1A2B04F0F0FC41EC190BB5
:102DD0001DE09FED1E0B51EC100B04F0DBFC41ECF1
:102DE000190B688804F04BFF41EC1A0BA88804F01B
:102DF00046FF53EC182B05F0C5F853EC1A2B04F0E2
:102E000089FD53EC192B04F089FF41EC190B09B033
:102E1000B0EE490AF0EE690ABDEC068BF0BD000089
:102E20000000000000000000B0450020000000008D
:102E300000005940000000000000C03F00000000FA
:102E40000000004079E9263108AC5CBFB76DDBB605
:102E50006DDB0E4030380A2801D201207047002077
:102E60007047704710B500F0D3FD10BD03F0C2B835
:102E700070B504460D462946204603F0FBFF29465F
:102E8000204602F0E3FB2946204602F0FDFC70BD1F
:102E900003490A6822F4C06242EA40200860704791
:102EA00004A800400C2801D30020704700EBC000AC
:102EB000054900EB400011F820201AB101EB800019
:102EC000001D704700207047FC8100202DE9F05F55
:102ED0000546894600244FF0FF3846464FF0010A68
:102EE000002D16D04749032003F0EEFA464923206F
:102EF00003F0EAFA287970B101280CD002280AD030
:102F0000032808D0042806D0052804D04046BDE890
:102F1000F09FE520FBE7EFF31083012181F3108898
:102F20003A4F04EBC40101EB410117F8212052B1E3
:102F300007EB8102D5F800B0D2F804C0DC4514D10B
:102F4000127A824211D104EBC40000EB400207EB7D
:102F50008202384692F83120022A04D026B2012299
:102F600000F8212004E00C2402E0641C0C2CD8D3CF
:102F700083F310880C2C3FD200220321244803F055
:102F8000C9F804EBC40000EB400007EB800429689B
:102F900061602879207204F10C00242205F10801F7
:102FA000FFF7CDFA1B48A0631B4820641B48E06371
:102FB00000206064C4F868901949606888420AD1AA
:102FC0000320FFF79AFC98B9032024F6E3F90320C5
:102FD00024F6FEF90CE01349884209D12320FFF7BB
:102FE0008CFC28B9232024F6D5F9232024F6F0F907
:102FF000201D01F0BDFC8246BAF1000F00D046460C
:10300000304684E7B1611000E1611000FC810020CE
:10301000D4822000253D2000953C2000453C200026
:103020000090014000A0014070B58EB005460C46EE
:10303000474991E84D00CDE90A02CDE90C36D1E9C6
:103040000523086906AEC9690DC6099114224049D5
:10305000203101A8FFF773FAD4B13E49062003F0EE
:1030600033FA3D49072003F02FFA3C491B2003F0B7
:103070002BFA3B49122003F027FA35493C39A1F1DC
:103080002C02052D61D2DFE805F006060621390085
:10309000E5200EB070BD207931F810000B906079FA
:1030A00032F810000C90A0790D9020680A90284802
:1030B000543850F8350021880904090C04D018B19F
:1030C0000AA901F007FD39E0E420E2E7207901EBED
:1030D0004000808A0790607902EB4000C088089029
:1030E000A079099020680690207810F0FF0F03D097
:1030F00006A801F0EBFB21E0E420CAE72079031FDA
:10310000042B01D8E720C4E7022819D0012002903F
:10311000207901EB4000008D0390607902EB4000C4
:1031200080890490A079059020680190207810F0A3
:10313000FF0F08D001A9002024F6E0F80020A8E73E
:1031400002200290E4E7E420A3E7E620A1E70000E4
:10315000448320000963100003631000FF62100025
:10316000F9621000002806D0002904D0024AD26972
:10317000002A00D010477047D08900200248006A1A
:10318000002800D000477047D089002010B50848BB
:10319000017800290AD101210170064894F6EAF964
:1031A000BDE810400021044894F67ABB10BD000031
:1031B000487D0020816210004D60200070B50446FB
:1031C000012520780A4E012800D135702078022888
:1031D00008D17570A088708072880649A1F50070CA
:1031E000FFF768F92078002801D13570757070BD3F
:1031F000507D0020F88B002010B50446114822783D
:103200004FF0FF3150F82220A2F86810227850F8D1
:103210002200A0F86A10606B002801D1A16B71B187
:1032200020B1204600F070F8002807D1A06B20B133
:10323000204600F009F8002800D1002010BDE4204D
:1032400010BD0000B888002030B58BB004462C219A
:103250006846FFF7A6F9A06B009094F83D008DF842
:1032600004002548009B2549254A834205D123783F
:1032700001EB03114968029107E0009B934204D1DE
:10328000237801EB0311C9680291029929B10099D1
:10329000814205D10B20039007E0E7200BB030BD41
:1032A0000098904201D1092003904FF4001004903F
:1032B000C0120590002006900790089009904020C9
:1032C0000A9000216846FFF701FE21780D4D55F860
:1032D0002110A1F86A00002801DAE420DEE7FFF7F8
:1032E000E1FD217855F821104863217855F8211027
:1032F000091D01630020D1E700900140B883200040
:1033000000A00140B888002030B58BB004462C21C5
:103310006846FFF746F9606B009094F83C008DF822
:1033200004002548009A2549824202D10B220292CC
:1033300004E0009A8A4201D109220292009B204AAD
:10334000834205D1207802EB00100068039007E06B
:103350000098884204D1207802EB00108068039026
:103360000398D0B14FF480100490002005904FF4E2
:10337000807106910790089009900A900021684694
:10338000FFF7A4FD21780F4D55F82110A1F8680032
:10339000002804DAE4200BB030BDE720FBE7FFF79C
:1033A00081FD217855F821100863217855F8211006
:1033B000091D01630020EEE70090014000A00140DC
:1033C000B8832000B88800207CB500251B480090F9
:1033D0004FF4007601966A4619491A4800F000F940
:1033E00000282AD1174941F2883423464D22583902
:1033F000032000F0BFF91349234609220B390320AB
:1034000000F0B8F90F4800F023F8002815D10D4C52
:103410005C3C0BE060780028FCD0257062880A498B
:10342000032000F0A3F820780028FCD06570324615
:103430000649032000F032F8ECE77CBDF88D00204F
:10344000BD312000AC7D0020F8890020F88B0020E1
:1034500070B500280CD004780F4E56F8241049B1EE
:1034600091F86C2032B191F86D1029B1EA2070BD4D
:10347000E52070BDE92070BDEFF31085012181F3D7
:103480001088FFF7B9FE20B956F82420012182F8F0
:103490006D1085F3108870BDB888002070B50628BF
:1034A00001D3E82070BD134C54F820304BB193F891
:1034B0006D5035B139B132B193F80351012D04D0BB
:1034C00010E0E92070BDE42070BD002583F80351B1
:1034D00054F820305B680225C3F8885054F8203037
:1034E0005B681B6854F82000001D01F0C9FB002830
:1034F000EAD170BDB888002070B504461A4D55F861
:103500002400703002F08BFE82B21646A2B155F84C
:10351000240090F8011101290ED0012180F8041136
:10352000802A0FD355F82400802200F180017030EA
:1035300002F08AFE80260CE055F82410002081F865
:10354000000170BD55F8240000F18001703002F0D8
:103550007BFE55F82400324600F18001001D2DF657
:1035600053FE0028EDD170BDB888002070B5044628
:10357000062C01D3E82070BD184D55F8240090B1F9
:1035800090F86D307BB181B17AB1002680F802618C
:1035900055F82400703002F09BFE55F8240090F896
:1035A000001121B10AE0E92070BDE42070BD90F85F
:1035B000011119B990F86C10012901D0E22070BDF9
:1035C000012180F800112046FFF796FF20B155F841
:1035D000241081F8006170BD002070BDB888002003
:1035E0002DE9F04105460F46002D06D02AB12C7872
:1035F000062C04D3E820BDE8F081E520FBE7384E37
:1036000005F1580046F82400D2E900310A4670302E
:10361000194602F0EFFD291D286D03F077FC002804
:10362000E9D156F82410281D486656F82400076092
:1036300056F824001822083005F14001FEF77FFFFC
:10364000284856F8241000EBC4056868486056F80E
:103650002400001D01F08EFA56F82400001D01F030
:10366000A5FA204801220321103802F053FD56F834
:103670002410012081F86C0056F82410002081F8F5
:10368000000156F8241081F8010156F8241081F841
:10369000020156F8241081F8030113490C2002F0AE
:1036A00013FF12490D2002F00FFF1149342002F0E0
:1036B0000BFF1049352002F007FF0F49362002F0BA
:1036C00003FF0E49372002F0FFFE95F9010023F6B3
:1036D00061FE95F9010023F67BFE00208BE70000D8
:1036E000B88800208883200029282000392820005D
:1036F0004928200059282000692820007928200026
:103700002DE9F04104461A4D55F82400703002F0BE
:1037100086FD82B2164600277AB155F8240090F84B
:103720000111012909D0802A0ED300F180017030E7
:10373000802202F089FD80260BE055F8240080F8F5
:1037400000710020BDE8F08100F18001703002F0CE
:103750007BFD55F8240080F8047155F824003246AA
:1037600000F18001001D2DF613FE0028EAD1E9E7E3
:10377000B888002070B5062801D3E82070BD104D30
:1037800055F8204064B194F86C604EB151B14AB123
:103790005E1C09D044F62066B34205D9E42070BD12
:1037A000E52070BDE42070BD002684F8026155F864
:1037B0002000001D2DF6D5FC0028F4D170BD0000BE
:1037C000B88800202DE9F84307460C46904604F1DE
:1037D0000805204690F6EAFC0346344E7068002146
:1037E000A7F58042DFF8C8C0B2F5804F03D2DCF8FD
:1037F0000010401A0121E218824202DD0520BDE8D6
:10380000F8833068421EC2F30B02821A02F6FF727E
:10381000C2F3073211B1DCF8001000E00021DFF83C
:1038200094C0DFF89490DCF800C0D9F80090ACEBBD
:10383000090C96F80990A2EB09020CEBC202101ACF
:10384000401A001FE918814229DD00254FF4004984
:1038500011231F2249462846009573F6FFFE0021DA
:10386000084600F039FE40B113231F2249460020CC
:10387000009573F6F3FE0F20C1E7707A01F0B0FBFC
:103880000028BCD112231F224946009573F6E6FE9C
:10389000424621463846BDE8F84303F049BC42465B
:1038A00021463846BDE8F84303F042BC904700206B
:1038B000B8350020C4350020BC35002070B502F0BA
:1038C000F7FF40F21A4120B140F24C4002F060FE96
:1038D00003E040F22E4002F05BFE0D4CA07850B1A8
:1038E000E08802F065FE0546208902F061FE294667
:1038F00002F0A4FF05E04FF461714FF47A7002F01A
:103900009DFFBDE8704002484A3002F0C3BA000093
:10391000787F002000214FF03040C1608161C0F805
:10392000D011C11741610162C0F8D81103496FF489
:10393000806008600220FEF7A8BF000084A000405D
:1039400010B51248016821F0070141F0040101603F
:103950000A200BF65BFE0D488438016821F4807163
:1039600001600121002027F6F7F801201CF696FEE1
:1039700007490220087002F01DFD0649322002F0BE
:10398000A3FDBDE810403220FEF79DBF90A8004087
:10399000447F0020F721200010B519480068C0F3CB
:1039A0000B0017490831096821F07F41401C00EEE7
:1039B000100ADFED140AB8EE400A60EE200A00EEAD
:1039C000101A1149B8EE400A80EE801AB6EE000ACD
:1039D00031EE000ABCEEC00A10EE100A486002F098
:1039E00037FA02F095FF0948016841F480710160DF
:1039F00006488430016821F00701016010BD000015
:103A000004E400400024F44B447F00200CA8004054
:103A1000052110F1190F01DC022110E000F1140260
:103A20000F2A01D803210AE00F2801D8042106E05B
:103A3000A0F11402192A02D932280CDB062106480B
:103A40000268C2F303328A4205D0026822F470424F
:103A500042EA01310160704714A8004010B500210E
:103A6000084627F679F801201CF6F8FD024881681F
:103A700021F48071816010BD00A0004010B5144891
:103A80000068C0F30000002807D01148083800681B
:103A9000C0F3000008B102F0E5FC0E480068C0F376
:103AA000000038B10B4808380068C0F3000008B1C6
:103AB00000F01CFC02F074FC002807D001F0C4F9EF
:103AC000002803D0BDE81040FFF7C8BF10BD0000BC
:103AD00008E4004008E5004010B502F061FC20B1A8
:103AE00001F0B2F908B1012010BD002010BD10B5E1
:103AF00002F0D8FC00F0A6FB10BD10B500F0F2FEFD
:103B000001F0F4FF02F0FEFABDE8104000F092B8B8
:103B10002DE9FC4104468846164D4FF6FF76164FB8
:103B200012E02968082201EB0030694688F672FE2F
:103B3000082802D01020BDE8FC81BDF80000B0428A
:103B400008D12078401C20702078797A8842E8D308
:103B50000020F0E709489DF80010C170BDF8021080
:103B600081809DF8011088F80010217841700020B4
:103B7000E1E70000BC35002090470020C835002058
:103B800010B51248016821F0004101600F23011DAA
:103B90000A6863F31F720A600A6822F4E07242F452
:103BA000C0720A60016841F0004101600848016884
:103BB00041F0010101600749312002F085FC06490E
:103BC0004FF40030C1F8000110BD000004A900400E
:103BD00088E200400D27200004E000E0F8B5EFF394
:103BE0001085012080F31088072000906846FEF7BA
:103BF000DFFD0220FEF7E4FD32200BF607FD0B4C43
:103C0000206840F002002060094E70890BF6FEFC2F
:103C1000206820F002002060B0890BF6F7FC9DF8C8
:103C20000000FEF7CDFD85F31088F8BD04A9004023
:103C3000DC7F00200249014808607047BD73100016
:103C4000CC05002030B40021114B01EBC10202EB86
:103C5000420213F82240012C15D103EB82020579B0
:103C6000147AAC420FD152680468A2420BD101EB26
:103C7000C10000EB400003EB8000816E002905D0FD
:103C800030BC02200847491C0C29DED330BC7047E9
:103C9000FC81002030B40021114B01EBC10202EB8A
:103CA000420213F82240012C15D103EB8202057960
:103CB000147AAC420FD152680468A2420BD101EBD6
:103CC000C10000EB400003EB8000816E002905D0AD
:103CD00030BC00200847491C0C29DED330BC70479B
:103CE000FC81002070B500240D4E04EBC40000EBF5
:103CF000400016F8201001290DD106EB8000054682
:103D0000001D1DF663F818B1012801D0002070BD18
:103D1000281D1DF6DDFD641C0C2CE6D3012070BDB2
:103D2000FC81002030B40021114B01EBC10202EBF9
:103D3000420213F82240012C15D103EB82020579CF
:103D4000147AAC420FD152680468A2420BD101EB45
:103D5000C10000EB400003EB8000816E002905D01C
:103D600030BC01200847491C0C29DED330BC704709
:103D7000FC81002010B595F6E1FE002800D0FEE79A
:103D800010BD00B500F00AF85DF804EB01F0ECB8E6
:103D90000148007870470000A091002030B5084C21
:103DA000012525706060E2602361A160054880689C
:103DB000884201D2081A00E0401A606130BD00005C
:103DC000A0910020607F002010B501F0A7F8044604
:103DD00018210548FEF7E5FB034A00211170204633
:103DE000BDE8104000F046B9A0910020F0B40446B0
:103DF0000E462C482C4FB9680578026244628C420A
:103E000001D9631A00E00B1BFF689F4206D31346DB
:103E100032462146F0BC0020FFF7B3BF87699F42BE
:103E200001D98361C261012D0AD0022D27D0032D53
:103E300036D1134632462146F0BC0020FFF7A1BF21
:103E400044618C4203D90169491EC16002E00169E5
:103E5000491C8160D0E90212914209D211444908FB
:103E600001610121017001693046F0BC00F01EB80B
:103E70000221017081683046F0BC00F017B8C169BA
:103E8000914206D1134632462146F0BC0020FFF78E
:103E900078BF03210170C1693046F0BC00F006B85C
:103EA000F0BC704748910020607F0020054A936A6B
:103EB0005B1C93628AB2C1B20348044B406800F0B5
:103EC000D1BF000048910020607F0020ED3D200020
:103ED00070B505460D4C2C212046FEF762FB0020F4
:103EE000A06040F2FF10E060FF2222614FF0FF303F
:103EF000A061A06A401CA062012020700448E9B2C1
:103F0000044B4068BDE8704000F0ACBF4891002011
:103F1000607F0020ED3D20002DE9F84307460D4667
:103F200090462E4C207801280BD0022813D0082070
:103F3000E06101B043462A463946BDE8F043FFF749
:103F400020BFE76040F2FF1121612846BDE8F84339
:103F5000022200F079B8002600966761684600F0FA
:103F60003FF870B1012810D002281FD003282DD0AF
:103F70000720E06143462A463946FFF702FFBDE8C5
:103F8000F8832846FFF7A4FFF9E70F2D06D2314644
:103F9000A6600122681C00F057F8F0E70520E061F8
:103FA00043462A463946FFF7ECFEE8E735B1A660FE
:103FB00001220021681E00F047F8E0E70620E061DA
:103FC00043462A463946FFF7DCFED8E70098E06111
:103FD00043462A463946FFF7D4FED0E72891002011
:103FE00010B5174B17490A698968154CDB68646975
:103FF0008B4203D98C4201D9022010BD8B4203D2DF
:104000008C4201D2012010BD8B4201D95B1A00E025
:10401000CB1A8C4201D9611A00E0091B934203D3E9
:10402000914201D3002010BD934201D2022010BD65
:10403000914201D2012010BD02210160032010BD78
:1040400028910020607F002030B4074B9C69641CDD
:104050009C6158601A708AB2C1B20448044B40682F
:1040600030BC00F0FFBE000028910020607F0020DF
:10407000193F200070B50546064C20212046FEF76A
:1040800090FA0021A1602846BDE870400122FFF7A8
:10409000DBBF000028910020F8B50E461F4C00251C
:1040A0000095E169491CE1616660A260E1682161F7
:1040B000E0601B498B68834201D2C01A00E0181AE5
:1040C0006169814201D96061A261684600F02AF805
:1040D00058B101280ED0022814D0032818D0009817
:1040E000A062204600F0BFF8F8BDA562204600F0AF
:1040F000BAF8F8BD012084F820003046A16900F02C
:1041000077F8F8BDA1683046491C00F071F8F8BD99
:10411000A1683046491E00F06BF8F8BD749100208C
:10412000607F00202DE9F0432F4A304FB968002509
:104130000026D3688B4201D95C1A00E0CC1AFF68D4
:10414000A74202D30020BDE8F083D2F82480B8F162
:10415000010F10D092F82040012C0ED0224CD2F842
:104160001CC04FF00109A769A468C4450BD3A7423E
:1041700005D10020E7E70020E5E70020E3E782F82B
:1041800020900120DFE7BCF1010F11D9D2F810C057
:104190008C4501D98B4203D38C4509D28B4207D978
:1041A000A74201D10020CEE782F820900120CAE783
:1041B0008B4201D9012600E0012545B1B4F5FF7F0E
:1041C00003D9092101600420BDE70220BBE736B115
:1041D0000CB10320B7E70A2101600420B3E70B21EB
:1041E00001600420AFE7000074910020607F002090
:1041F0008AB2C1B20248034B406800F033BE0000EF
:10420000607F00209940200070B504460E46154698
:104210002C210948FEF7C5F9074B002183F820102F
:10422000491E59615C620548AAB2F1B24068BDE816
:104230007040034B00F016BE74910020607F002098
:104240009940200010B500F0EFFD00280AD0FFF7DC
:104250009FFD18B1BDE8104000F028B8BDE810403F
:10426000FFF7B2BD10BD00B500F004F85DF804EB37
:1042700000F07ABE0B4901220A71826A8A60C26923
:10428000CA60C2680A6142684A6182688A61064AF5
:10429000C0689268904201D9801A00E0101AC86183
:1042A00070470000B8910020607F00202DE9F041A8
:1042B00000F034FE074600F043FE8046094C2668B5
:1042C0000948456920212046FEF76BF9761C2660D7
:1042D00000202071424639462846BDE8F041FFF7EC
:1042E00093BF0000B8910020607F002010B50E4CF5
:1042F0002069401C206100F03DFEE06000F00EFEF1
:10430000606000F01DFEA060084A0021116061613C
:10431000E3692BB182B22179E068BDE8104018470B
:10432000BDE8104000F020BE0891002000E50040EC
:104330002DE9FC41164804680834164E30780028F0
:1043400002D0002091F610FF134D4FF6FF770822A0
:104350006946204691F612FFBDF80000B84211D020
:1043600080B1BDF802008FF621FFBDF802100830C1
:10437000084481B2204690F6F5F904462868844244
:10438000E5D32C68307891F6EFFE2046BDE8FC813D
:10439000BC350020B5350020C435002008B51A48CA
:1043A000016821F070010160016821F0070141F00E
:1043B0000401016015490978002909D0124984399E
:1043C0000A6842F480720A60016821F00701016006
:1043D000012001F0F3F90020FEF75AFD01F0F4FB93
:1043E00080B100208DF80000A3208DF8010002208C
:1043F0008DF80200684692F69BFC01F083FB01F009
:104400002BFC08BDFEE7000090A80040EC7F0020D8
:1044100070B5044600BFFEF792FA05460120FEF78C
:104420001FFB0948047024B9482208490848FEF7D0
:1044300086F81DB90020FEF713FB02E00120FEF70D
:104440000FFB00BF70BD00000C7F002040900020DB
:10445000002000E010B5074840680749486006485A
:104460000830402203490831FEF769F80320024969
:10447000086010BDF88F0020002000E070B500BF7C
:10448000FEF75DFA05460120FEF7EAFA0B480478CC
:1044900034B948220A490B48FEF751F8FFF7DAFF12
:1044A0000120064908701DB90020FEF7D9FA02E084
:1044B0000120FEF7D5FA00BF204670BD0C7F00201A
:1044C000002000E04090002013B501216846FEF76F
:1044D00049FE01201CBD00002DE9F04F8DB00822DF
:1044E0000C9200220B924FF008080A9209910026C4
:1044F0009A4FDFF86CB24FF0010A002848D008222A
:1045000004A9386888F686F9082803D00F200DB072
:10451000BDE8F08F9DF81000A52806D09148C1880D
:104520000C91447880780B9046E09DF81100DBF800
:104530000010022201EB0030083001A988F66AF968
:10454000BDF80410A1F57F40FF380AD09DF8110096
:10455000DBF8001001EB00304FF4805191F6DCFDE8
:1045600090B19DF81200BDF816100C919DF8111035
:10457000491CCCB20B9009AB0CAA0BA904A802F001
:1045800029FF012802D017E01020C0E70020BEE775
:10459000FFF7CEFE411EC1F30B01401ADBF80010FD
:1045A000401A00F6FF70FF2101EB1030C4B20B94EB
:1045B00014B1CDF824A0012695F67EFDC7E00025B4
:1045C000069507955CB1DBF80000042200EB04308F
:1045D00006A988F61FF9042801D00F2097E7614843
:1045E00005604560A521017044709DF82C10817014
:1045F000BDF83010C1809DF81810C170BDF81A10B8
:104600008180DBF8000000EB043040440A903868F9
:1046100000EB080108914FF4805191F67DFD50B1F7
:104620009DF818204AB1012308A90AA802F0A6FEA5
:1046300018B10F206BE7102069E7BDF81A203AB1D6
:10464000002308A90AA802F099FE08B10F205EE72E
:10465000C4F100090A98DBF80010401A00EB093099
:10466000C0F58055082D2CDD082302AA08A90AA848
:10467000CDF800A096F632F908B10F2047E7BDF853
:104680000810A1F57F40FF3830D0083DBDF80A0082
:104690008FF68CFDBDF80A100844A84208DDAAB2C6
:1046A000002308A90AA802F069FEC8B10F202EE76E
:1046B00082B2002308A90AA802F060FE80B10F2090
:1046C00025E7A8B28FF672FD284483B2264A08A9CE
:1046D0000AA8CDF800A096F601F908B10F2016E758
:1046E0003868089900F580508142B3D308221D49EB
:1046F000386888F6DDF8082801D00F2007E7DBF8D6
:1047000000004FF4805100EB043091F605FD60B1DC
:1047100076B1DBF80000042200EB043006A988F62D
:10472000C7F8042803D00F20F1E61020EFE600269A
:1047300009AB0CAA0BA90B4802F04CFE012802D0D1
:1047400018B10F20E3E60020E1E6641CE4B207485C
:10475000407AA042BFF433AF0020D8E6C035002035
:10476000BC350020C835002064460020904700205A
:10477000024600210BE0084850F83130501E8342B9
:1047800004D1054800EBC10040687047491C10295E
:10479000F1DB0020F9E7000088900020002101E013
:1047A000491C4008C207FBD00846704710B502F00C
:1047B0007FF850B14FF48C642146204601F0E8FEAA
:1047C0002146204602F03AF809E040F24C442146E6
:1047D000204601F0DDFE2146204602F02FF8BDE81C
:1047E0001040014801F056BBCC7F002001484078C2
:1047F00070470000787F002070B5044600BFFEF7C8
:104800009EF805460120FEF72BF900201449087098
:10481000144815490860154815490860482215498B
:104820001548FDF78CFE15481249486003200860C2
:1048300048221348FDF783FE48220F490D48FDF733
:104840007EFE882C01D002F0BDF91DB90020FEF7D4
:1048500007F902E00120FEF703F900BF70BD000078
:104860000C7F002011442000843800207D4420006B
:1048700080380020002000E04090002000930020BD
:10488000F88F00202DE9FE430546002403208DF813
:10489000000000260C4F4FF00108E8070BD008FA83
:1048A00004F0019007EBC4004068029057F8341000
:1048B00009B168468847641CA4B26D08761C082EAE
:1048C000EBDBBDE8FE8300007888002010B50446CD
:1048D00003481BF675F82046BDE810401BF61CB8CF
:1048E000187F002000B5012001F0FCFF02490148BB
:1048F000086000BD797310001400002010B5EFF3BC
:104900001084012181F310881BF68EFE0348006895
:1049100008B900F005F884F3108810BDD005002018
:1049200010B595F60FFA00281ED1EFF31084012080
:1049300080F310880D48016841F0040101600B49C3
:10494000083108684007FCD502F000FF012000F0A4
:1049500059FD012000F056FD04481C38016821F083
:104960005001016084F3108810BD000040A4004095
:10497000F0B58DB00446002C06D094F82D00314ED1
:10498000314F002518B111E001200DB0F0BD84F8C1
:104990002C5020682D49B04202D1C1F88C5303E05D
:1049A000B84201D1C1F89053C1F808510221204604
:1049B0000AF6B2FF01A841F6D9FDA0680A90E068A6
:1049C0000B9060690590A0690690E0690790206AE5
:1049D000089020690390606A0490A06A0C90217985
:1049E00001AA206800F02AFD6564012120460AF62C
:1049F00093FF20460AF6B0FF002120460AF6BAFFD0
:104A000020680121124AB04209D1237910789940D7
:104A1000084310700F49002025F6ECFF0AE0B84269
:104A200008D12379507899400843507009490120F2
:104A300025F6E0FF012120460AF62AFF84F82C50D3
:104A40000020A2E70090014000A0014000D01D42DC
:104A5000147F0020594A200070B50546002401202B
:104A6000002D00D170BD55F8241021B108461CF668
:104A700083FB012804D0641CE4B2062CF3D370BD80
:104A8000012070BD2DE9FE4380460F463846FFF7F2
:104A900085FE85B20024DFF834900D4E59F83400BD
:104AA00040450ED105EB041085B28DF8004001970A
:104AB00006EBC5004068029056F835200AB16846FA
:104AC0009047641C032CE9DBBDE8FE83F0822000E4
:104AD0006887002070B504460D4604481FF682F82A
:104AE00029462046BDE870401FF671B81C7F0020A3
:104AF0001CB502F0F9F905218DF8001006490022D5
:104B000051F8203083F8002151F820000168002975
:104B100001D0684688471CBDB88800201CB502F04B
:104B2000E3F904218DF800100649002251F82030E5
:104B300083F8002151F820000168002901D068465F
:104B400088471CBDB88800201CB502F0CDF90321B0
:104B50008DF800100649002251F8203083F800211A
:104B600051F820000168002901D0684688471CBD23
:104B7000B88800202BF6CCBE1CB50446204602F0B7
:104B8000B3F900228DF80020E16B0191064951F83C
:104B9000203083F8002151F820000168002901D05D
:104BA000684688471CBD0000B888002010B5044640
:104BB00003482CF61FFA2046BDE810402CF61AB820
:104BC000207F002070B504462268906800F00F0036
:104BD0000021022809D004280CD0062816D00C2861
:104BE00044D1A06901280BD00BE02046BDE87040FD
:104BF00002F0FAB92046BDE87040002173F65CB8B7
:104C000001212046BDE8704073F656B85069E16B4B
:104C100000F01E000143E163D06FC0F3C00018B183
:104C20000021204673F648F8E06B4FF0000580073E
:104C30001DD5204672F6DBFF94F83500012804D01C
:104C40002046BDE87040FFF797BF206B48B10A4986
:104C50000164206B1BF62EFF30B1206B016C88477E
:104C600002E02046FFF788FF84F8355070BD2046EB
:104C7000FFF782FFE56370BD1D7A0700704770473C
:104C800070B504460E461546002C0AD05EB155B1EB
:104C9000206B40B194F8380010280AD0022528462D
:104CA00070BD012070BDE06B40F48060E0630120C6
:104CB00070BD0021204673F64FF8204673F6A3F826
:104CC0000021206B0AF6E4FD206B0AF645FEA06980
:104CD000E0B320680121C0F89C10206B4FF4004223
:104CE0000179006800F032FC666225856585002642
:104CF000E66312220121204673F658F8012084F859
:104D00003500216B25484863216B2548C863206B1B
:104D1000066420684169890703D501680221C0F84B
:104D2000881084F8366021682B46626A206B1CF676
:104D30006FFA0546280015D0E06B40F48070E06300
:104D400010220121204673F631F8A8E7FFE720681A
:104D50000021C0F89C10206B00220179006800F04F
:104D6000F5FBC1E7EFF31081012080F31088206884
:104D7000426842F00402426081F31088A069012871
:104D80008DD1EFF3108180F310882068426842F0E3
:104D90000102426081F3108881E70000737A070006
:104DA0002D7A07001CB50446204602F09DF802212A
:104DB0008DF80010218D628D891AADF80410044918
:104DC00051F820000168002901D0684688471CBDC1
:104DD000B88800207CB50546284602F085F80446D0
:104DE00001208DF80000288C698C401AADF8040071
:104DF0000C4D55F8240090F8040118B12046FEF738
:104E00007BFB02E02046FEF77BFC55F8240090F87F
:104E10000011002904D10168002901D068468847A3
:104E20007CBD0000B888002005484069002804D0F7
:104E30000448006808B10020704701207047000056
:104E400008910020D805002000B5FFF7EDFF20B144
:104E50000348806908B1012000BD002000BD0000AA
:104E6000089100202DE9F04105460C46164698466B
:104E7000FFF7DAFF002847D00121002025F66CFE5D
:104E800001201BF60BFC214F012078613D607C6006
:104E9000BE60C7F81C800020B8611D4D286820F056
:104EA00001002860204600F041F8304600F050F83C
:104EB000174CDFF85C80174E143408F10C08B0680A
:104EC00040F48070B060022000F04CFB386800F0C5
:104ED00053FB206840F001002060206840F0020091
:104EE0002060286840F001002860D8F8000020F019
:104EF0007F400028E3D00849322001F0E5FABDE800
:104F0000F0413220FDF7DFBCBDE8F08108910020C0
:104F100000E5004000A00040F721200002480068A2
:104F200000F00F007047000054A8004003490A68D1
:104F300022F00F0202430A607047000054A80040AC
:104F400002480068C0F308407047000050A80040C5
:104F500003490A68034B1A4042EA00400860704760
:104F600050A80040FFFF00FE014901208861704702
:104F7000089100202DE9F0412DED028B16480068C4
:104F800020F07F400022144B083B1B68C3F30B0446
:104F90001146641C0D4647F61223A0FB032701FBB4
:104FA0000371002600FB0611104603F00CF908EE11
:104FB000100A2046294603F006F900EE100A0749B8
:104FC000C8EE000ABCEEE00A10EE100AC860BDECA4
:104FD000028BBDE8F08100000CE50040447F00201A
:104FE0002DE9F04F87B05B490E6808364FF0000B93
:104FF000CDF818B0584F787208213960C0EB4020C6
:105000006FF00B0101EBC00806A800F0ABF820B16F
:105010009DF818100120FFF75FFA08F1080078608A
:105020004FF001094FF0000A4C48007810B1002001
:1050300091F69AF8042204A9304691F69FF8BDF83B
:105040001010A1F57F40FF3829D0082204A930466E
:1050500091F694F8BDF8120000F108048FF6A6F856
:105060000546BDF8100090B304A895F6B5FAC8B18E
:1050700078686119401A7860002822DA0E231F220E
:105080004FF400410020CDF800B072F6E7FA334843
:10509000007891F669F80E2007B0BDE8F08F4FF068
:1050A000010A22E00C231F224FF400410020CDF81A
:1050B00000B072F6D3FA2948007891F655F80B2023
:1050C000EAE74FF00009314604A895F603F86019A5
:1050D00081B230468FF646FB06461E480068301AFD
:1050E00038601F4800688642A4D31C48007891F6B7
:1050F0003BF8BAF1000F05D0B9F1000F04D0C7F8A2
:1051000004800AE00D20C7E77868082802DD083827
:10511000786002E03872C7F804B07868012205218F
:1051200040450BD8CDE9002102900F231F224FF4F8
:105130000041002072F692FA0020ADE7CDE900218F
:10514000102302901F22D902002072F687FA0E2047
:10515000A2E70000BC35002090470020B5350020B4
:10516000C43500202DE9F04F85B00746DFF8FC91EB
:10517000D9F8004008342646DFF8F4810822694651
:10518000D8F8000087F646FB082803D0002005B0B9
:10519000BDE8F08F9DF80000A5280BD0DFF8D4B152
:1051A000DFF8D4A1082202A9204687F64DFB082883
:1051B00042D0A4E001254FF6FF761EE0082202A9A6
:1051C000204687F641FB082817D1BDF80800B042F9
:1051D00013D0BDF80A008EF6E9FFBDF80A100830BA
:1051E000084481B220468FF6BDFA0446D8F8000084
:1051F000844202D33D700120C9E79DF80210D9F81E
:105200000020BDF8060002EB01310844A042D5D8C9
:105210009DF80210D9F80020BDF8060002EB01311C
:105220000844A04201D23D7003E002D14FF00000DB
:1052300038704FF00100AAE7BDF80810A1F57F40D3
:10524000FF3837D02646BDF80A008EF6AFFFBDF80E
:105250000A100830084481B220468FF683FA0446CB
:10526000D8F8000084424AD3701EC0F30B00D9F86E
:105270000010301A401A00F6FF70C0F3073504958D
:10528000394604A8FEF744FC98BB387888B39AF8EE
:105290000300C0F108003044411EC1F30B01411A64
:1052A000081AC0F10100AAF806006D1E8AF8025023
:1052B00001206CE7601EC0F30B00211AD9F8000032
:1052C000081A00F6FF70C0F3073504959BF8090033
:1052D000A84201D100205AE7D8F80020944209D210
:1052E000401EA84206D101F6FF71914202D1002072
:1052F0004DE704E0394604A8FEF70AFC30B1D8F8BF
:1053000000008442FFF44EAF002040E79BF8090004
:105310009DF81010884226D03878B0B19AF8030072
:1053200038B1C0F1080081B230468FF61BFA04464E
:105330000BE0BAF8040040B1241A601EC0F30B0061
:10534000201AC01DA04200D9083C601EC0F30B000B
:10535000201A001BC0F10100AAF806006D1E8AF891
:105360000250012013E7002011E70000BC350020A7
:10537000C035002090470020C83500200248006852
:10538000C0F380507047000014A8004003490A6829
:1053900022F4F81242EA00400860704714A8004066
:1053A00003490A6822F4F85242EA00200860704774
:1053B00098A8004003490A6822F4706242EA00207B
:1053C0000860704794A8004003490A6822F4C0525C
:1053D00042EAC0200860704704A8004003490A68F8
:1053E00022F00F0202430A607047000094A80040B8
:1053F00003490A6822F0030202430A607047000072
:105400003CA6004005498A6922F0010202438A61F4
:105410008A6922F0010202438A61704700A00040BD
:1054200005490A6822F0070202430A600A6822F06E
:10543000070202430A60704700A000402DE9F041D6
:1054400006460D461446D6F89803C0F3000001271F
:1054500000286AD02946304600F06EF850B105F1B8
:1054600008008740C6F8A0732946304600F064F86B
:105470000028F9D14FF4606000EB451105EB4500C1
:1054800000EBC50006EBC005296404216964002116
:10549000A961E9612269A1681143D4E905231A438E
:1054A0001143E2691143AA69214B1A400A43AA61D8
:1054B000296C21F440612964E1682A6C22F04042A1
:1054C0000A432A64296C1B4A11402964216846F862
:1054D00030106068A860206AE9696FF30B0101432E
:1054E000E961D4E90912304640F63EFC94F8240004
:1054F00000F00F006062696C21F4F06141EAC010B5
:10550000686494F8280000F00F00A062696C21F430
:10551000F04141EAC0206864E06A296C21F0E001B2
:10552000014329640120BDE8F081C6F89873A1E722
:105530004900CEFFFFFF0FC0D0F8A00301228A4030
:10554000104201D0012070470020704701EB410359
:1055500003EBC10100EBC100816921F4E03111438B
:105560008161704703490A6822F0FF0202430A6022
:105570007047000020E5004003490A686FF30B0202
:1055800002430A607047000004E5004003490A68CE
:1055900022F0030202430A60704700003CA500406D
:1055A00010B50121002025F6D7FA01201BF676F868
:1055B00007490120087000F0AFFF00F0FBFE05492D
:1055C000322000F081FFBDE810403220FDF77BB9AA
:1055D000447F0020F721200010B518480068C0F370
:1055E0000B0016490831096821F07F41401C00EE8C
:1055F000100ADFED130A134CB8EE400A60EE200AE1
:1056000000EE101AB8EE401A80EE810A84ED020A0C
:10561000F6EE000A0C4930EE200ABCEEC00A10EE8D
:10562000100A086094F642FB6069002804D094EDEB
:10563000020ABDE81040004710BD000004E400402D
:105640000024F44B447F00205C030020002304224C
:1056500010F10A0F01DBC82901DA012305220848ED
:10566000016821F0700141EA0311016005490978E0
:10567000002904D1016821F007011143016070473E
:1056800090A80040EC7F002010B5FDF79DFE0020A3
:1056900010BD10B591F6B4FF10B101F014FDFEE796
:1056A000BDE81040FCF7CCBC70B501F001F940F248
:1056B0002E424FF47A7528B1114640F24C4000F06A
:1056C00067FF03E02946104600F062FF0C4CA0780B
:1056D00050B1E08800F06CFF0546208900F068FFBB
:1056E000294601F0ABF804E04FF46171284601F05F
:1056F000A5F8BDE870400248403000F0CBBB000088
:10570000787F00202DE9FF410446002000900190A1
:105710000290039021482249B0F5001F02D9B0F54C
:10572000401F08D3C0F31300C1F3130100F062F867
:1057300021680843206000251A4F1B48C61B10E053
:1057400007EB051110226846FCF7B4FE0198C0F380
:1057500013000299014400F04DF8216808432060CD
:105760006D1CB5EB161FEBD31048C0F313001049A6
:10577000C1F3130100F03EF82168084320600D4892
:10578000C0F313000C49C1F31301884204D000F0A8
:1057900031F8216808432060BDE8FF810020200027
:1057A00010852000CC8420000C85200000D007202C
:1057B000000008200090072000D0072038B50F21F6
:1057C0000091012809D00A4C204690F665FD20463C
:1057D00090F64EFD00F03CF838BD6846FFF792FFAA
:1057E000009890F659FD009890F642FDF2E700000F
:1057F000FFFF3F00F0B502460020002500230026F1
:105800000024124F57F824C06544AA4201D223460F
:1058100003E0641CE4B20B2CF4D30024002257F8FC
:1058200022502C44A14201D8164603E0521CD2B2A9
:105830000B2AF4D3032405E05A0004FA02F10843CA
:105840005B1CDBB2B342F7D9F0BD000064842000DA
:105850000C48016821F4401141F40011016009482D
:105860000838016821F4401141F4401101600548F5
:105870000121083001600168C1F300410029FAD11B
:105880007047000088A400402DE9F0410125002464
:1058900000261930502800D3032518480068C0F3AB
:1058A000C120A84228D01649097821B12846BDE870
:1058B000F041FFF789BD114F8C37854205D9386813
:1058C00000F00704062C00D2012646B1386820F00B
:1058D000070040F006003860322009F697FE28469F
:1058E000FFF772FD002E07D0322009F68FFE3868D0
:1058F00020F0070020433860BDE8F08104A8004094
:10590000EC7F0020F0B58DB004460D46002D0BD085
:105910000BA90CA890F60AFC374E681C8CB1210527
:1059200004D009200DB0F0BD0820FBE704EB0031E6
:105930000B9800F50010814201D8346008E00A207D
:10594000F0E70B99404201EB003000F500103060A9
:105950004FF4D0712948FCF724FE294C0020207018
:105960003068284900EB05300860274F386090F612
:10597000E7FB26490870082207A9306886F64AFF27
:105980000126082817D01DF699FD04461DF6A2FD34
:1059900004AB022113C30321CDE90016072240F214
:1059A00077100392002302901F22F103184671F62C
:1059B00055FE1020B6E7082209A9386886F62AFFA6
:1059C000082801D01020ADE70822114907A8FCF7EC
:1059D00045FD18B19DF82400FF2807D02846FFF7A1
:1059E000FFFA00289ED1267000209BE728468FF6FC
:1059F00041F90028F7D095E7BC35002090470020FA
:105A0000B4350020C4350020C0350020B535002055
:105A1000A4B709002DE9FF4706460C4690463248D8
:105A20000078002839D0B8F1000F34D094B340F694
:105A3000EC7084422FD86EB3A6F57F40FF382AD091
:105A400003A9304687F61AFE0746C7B3082201A904
:105A5000384686F6F9FE01A894F6BEFDF8B1BDF809
:105A60000C0000254FF40049A04229D108213846F6
:105A70008EF678FE424621468FF644FA88B1082316
:105A80001F2249460020009571F6E8FD002004B071
:105A9000BDE8F087FFE70720F9E70320F7E71020CC
:105AA000F5E709231F2249460020009571F6D6FD2F
:105AB000434622463146384600F044FBE7E70DE016
:105AC0000A231F2249460020009571F6C7FD434670
:105AD00022463146384600F035FBD8E7424621469B
:105AE0003046FDF76FFED2E7B43500200348024987
:105AF0000160034981607047055920007C47002000
:105B0000155A200010B50121002090F69BFD0028B9
:105B100015D0022802D0102800D0FEE790F68CFDA8
:105B200004468EF610FF014620468EF6D1FE28B1BF
:105B30000121204690F686FD002800D0FEE710BD2A
:105B40000220FEF759BE00002DE9F04104460D4643
:105B500016461F4600F0D4FF1349012041F8D00C2F
:105B6000C8678867384692F609FA3146284600F039
:105B7000C5F8284600F034F9284600F03DF80B48F7
:105B800010F824200A48416962F303014161416928
:105B900064F347114161074804702146BDE8F041B4
:105BA000054891F637BD000080D11D4234842000A5
:105BB000BC2C0020407F0020F07F002013460A46C6
:105BC0000121FFF7C1BF000010B500F02DF9084C0E
:105BD0000020E061A0618EF6A4FE0121E16105498B
:105BE000096801F40061002900D0FEE710BD000043
:105BF000BC10002000D0004010B50446962009F6E5
:105C000005FD012C07D0022C04D10648016821F0C3
:105C10008001016010BD03484430016821F4004157
:105C2000016010BD04A8004070B50024094D55F86E
:105C3000240000B18047641C032CF8D30024054DD8
:105C40000C3D55F8240000B18047641C002CF8D0AE
:105C500070BD0000C882200038B51A49192000F034
:105C600033FC1949382000F02FFC00F0ADFFFDF7A0
:105C700044FF174915480860174916480860184935
:105C800016480860184917480860002400946A46BE
:105C900001214CF2050090F659FDFDF771FF134804
:105CA000016821F0C0010160124811490160011F23
:105CB0000A684FF080720A600460BDE838400E4800
:105CC00091F61CBF63691000E1160800976E100082
:105CD000A40D0020196F100018000020936F100011
:105CE000A80D0020F16F1000AC0D00200CA80040A2
:105CF000A2B4982B04A70040F16610002DE9F843E8
:105D00000D464FF002084FF4FA710091314FD7F869
:105D1000801221F44034304E4FF47A71012812D0B1
:105D2000022840D0D7F8800244F480310843C7F8F5
:105D30008002002D05D06A4641464CF2030090F6E1
:105D400005FDBDE8F8830095DFF88C90A9F14409C2
:105D5000D9F8000020F08000C9F80000084609F6D4
:105D600055FC306820F4F81040F440303060306862
:105D700020F07C5040F08060306018480221808C18
:105D8000B1EB102F03D1306840F400103060D9F827
:105D9000000040F08000C9F80000962009F636FCAB
:105DA000C7F88042C5E70095306842F20B726FF386
:105DB0000F0010443060084609F628FC306840F4B3
:105DC00000403060962009F621FC44F48030C7F88A
:105DD0008002AEE700A0004048A8004074450020C3
:105DE00010B510490A6822F003020A600D4CBC3C51
:105DF00001280CD00020FFF7C9FB0220FFF7F8FABA
:105E0000E06B20F0030040F00200E06310BD0320CF
:105E1000FFF7BCFB0320FFF7EBFAE06B40F0030059
:105E2000E06310BD3CA700400549044808600648EF
:105E30000449016005494162704700003D6A100055
:105E4000900500201D641000D4030020016510009F
:105E500000EE100A9FED081AF8EE400A80EE810A63
:105E6000DFED060A20EE200AF5EE000A044820EED7
:105E7000200A80ED000A70470000FA468941803F01
:105E8000D87F002010B500F091F8BDE81040FDF774
:105E90002EBE00000449098F018004490968C1F33E
:105EA0000441818000F004B8787F002014A80040ED
:105EB00010B504460648808F608006480068C0F32D
:105EC0000420E080FFF75AFA00B10120207210BDD3
:105ED000787F002098A8004030B587B0182101A82D
:105EE000FCF75FFBEFF311850220FCF71AFD2A494E
:105EF0000968C1F30221491C01228A401044C0B242
:105F000080F31188012091F6DDFF2448C06810F469
:105F1000E02000D00120224C88BB6420FCF776FEF4
:105F200068B301A893F68AFC38BBBDF8040020B31F
:105F300001A90D20FCF7E2FE51EC100B01F042FE2E
:105F400060616069FCF78EFF01A90E20FCF7D6FEA8
:105F50009FED141B51EC100B53EC112B01F0DEFEE6
:105F600001F030FEA061A069FCF780FFA1696069C3
:105F7000FCF77EFFE069401CE061FCF77DFEE8B2C3
:105F800080F3118800F0BCFA002802D0207800F0DD
:105F90008FFB07B030BD00000CED00E000E00040DA
:105FA000787F00200000000000005940FFF794BFF8
:105FB00010B50E4CA08BA0F58E4144390AD114F8CF
:105FC0002C0FFFF7E3F9E078C01C1F2800D91F2031
:105FD000FFF7E6F90648016841F001010160044855
:105FE0008438016821F48001016010BD74450020EF
:105FF00098A8004070B5044693F6A0FD05460DBB79
:106000008EF670FF010010480FD0B4F5AC7F04DCB1
:10601000016841F08061016014E0B4F5AF7F11DDEB
:10602000016821F0806101600CE0C32C04DA016892
:1060300041F08061016005E0C82C03DD016821F0BA
:1060400080610160284670BD10A800402DE9F05F16
:10605000244F3868002804D1DFF88C80D8F800007D
:1060600010B10020BDE8F09F204D28684FF00009D6
:106070000126A8B10024DFF878A0DFF878B05AF83C
:10608000241041B15BF8240028B12B6806FA04F211
:106090001A4200D08847641C202CF0D3C5F8009029
:1060A000154D2868A0B10024DFF850A0DFF850B0EB
:1060B0005AF8241039B12A6806FA04F0104202D0C6
:1060C0005BF824008847641C042CF1D3C5F80090C9
:1060D000386810B9D8F8000008B10020C2E70120E4
:1060E000C0E7000094050020980500209C050020D2
:1060F0000411002004120020A005002084120020BA
:10610000A412002002490148086070476570100021
:10611000F837002070B506460D461446FDF736F8F0
:10612000122C02D2681E022801D9122070BD044828
:1061300040F82460204480F84850204670BD00009C
:106140000C8700202DE9F0438BB006460F469046A1
:10615000994600250A95032402220AA9304686F6AC
:106160008DFB022803D0641E14F0FF04F4D1022832
:106170001AD01DF6A3F904461DF6ACF904AB0221B2
:1061800013C30722039201210322CDE9002140F22B
:106190005B20029004231F22C903002071F65EFADF
:1061A00010200BB0BDE8F083082208A9304686F61F
:1061B0004BFBBDF822008DF6F9FF0D4A516871B115
:1061C000BDF822300830194408445060384693F630
:1061D00099FF4A4641463846FDF7F4FAE1E7117A5D
:1061E000BDF822301944084450601572EEE70000F3
:1061F0009047002010B500290FD070B16AB1EFF3BD
:106200001083012484F310880260416000218160C2
:10621000C16083F31088012010BD002010BD00284C
:106220000AD0EFF31083012181F310888168C268DE
:106230008A4203D8881A04E0002070470068801A58
:10624000084483F3108870472DE9F04705468A46D5
:106250004FF00008EFF31089012080F31088AF6839
:10626000EE68002D2ED0696861B3BAF1000F29D015
:10627000B74204D3BC1BA2420DD814460BE02868D9
:10628000831BDC19A24200D814463219824202D381
:10629000A219A2EB0008A4EB080231445046FCF717
:1062A00009F90AEB0400A0EB080042466968FCF714
:1062B00001F930192968814202D8B84200D9401A40
:1062C000E86000E0002489F310882046BDE8F087EC
:1062D0002DE9F047044689460027EFF31088012096
:1062E00080F31088A668E068002C2AD0636843B366
:1062F000B9F1000F25D0B04205D9851B6D1EAA4209
:106300000CD815460AE021688D1B05446D1EAA4273
:1063100000D815467019884200D3471AEA1B98190D
:106320004946FCF7C7F809EB0500C11B3A4660680F
:10633000FCF7C0F870192168814200D8401AA060AB
:1063400000E0002588F310882846BDE8F0870000AB
:1063500010B500224FF4FA711046FFF72FFC002011
:1063600000F0E2FC0020FCF72BFA0020FCF70CFA0E
:10637000094CD4F88403C00602D40020FFF782FD44
:10638000FCF704FFD4F88403C00604D4BDE8104031
:10639000024800F085BE10BD00E0004040420F0002
:1063A00003480078032801D000207047012070477F
:1063B000447F00202DE9F043DFF89CC0DCF800109A
:1063C00021F00101CCF800100021244B244C224E76
:1063D000A4F11C08204A2568203698F803400CF1E7
:1063E00004071432D6F8009029F0FF0949EA0009A1
:1063F000C6F80090D7F800906FF30B0949EA050939
:10640000C7F80090D2F8009049F00109C2F8009056
:10641000D2F8009049F00209C2F80090DCF8009030
:1064200049F00109CCF800900CB14FF47A73894619
:10643000491C994504D9641C88F80340BDE8F083E1
:10644000DFF8149009F10C09D9F8009029F07F4980
:10645000B9F1000FC6D0F1E700E4004040420F0060
:10646000607F00202DE9F0410C4C00250C4E207877
:10647000012806D0032702280AD027703560BDE81E
:10648000F081FFF7A9F83560BDE8F041FDF758BA93
:10649000FDF782FA35602770F1E70000447F0020A5
:1064A00000E4004010B5FFF77BFF002803D0BDE8F3
:1064B0001040FFF775B810BD10B500F0D1FDBDE874
:1064C0001040FFF7B1BB0000024A103042F8201024
:1064D00070470000007C002002480068002800D0BF
:1064E000004770470078002010B500F01BF9FEF758
:1064F0005DF9FDF7E3F9BDE81040FFF7D5B80000FE
:106500000448008CA0F58441323901D00020704746
:1065100001207047744500200748006800F44030AF
:10652000002804D0B0F5803F03D001207047002040
:10653000704701207047000080A2004010B5029C07
:10654000002C01D0801A00E0101A40B200FB01308C
:1065500010BD000008B5083040F24C420B49904293
:1065600002DD91F82C1001E091F82D1002DD40F2CF
:106570007E4301E040F21A434FF0000200924AB21B
:106580004FF0110100F09AF908BD00007445002099
:1065900070B5064D2A78002A00D0084604462046E9
:1065A000FFF7D8FFFEF7F2FEAC6370BD787F0020E6
:1065B00008B50D490A780D49002A05D091F82E102A
:1065C00005D140F21A4304E091F82F10F8E74FF498
:1065D00061734FF0010200924AB24FF0110140B2D4
:1065E000FFF7ACFF08BD0000787F00207445002055
:1065F00070B5024601231D4C002904D0606BAA2807
:106600001ED2002070BD216B8C2901D2002070BDEC
:10661000A1F18C004631824204D2208910B1FEF7EC
:10662000E5F838B18A4209D920891F2806D2401CD2
:10663000208119E02089401E208115E0002313E00D
:10664000A0F1AA0500F1AA060848AA42C18803D20F
:1066500011B1491EE18007E0B24204D91F2902D2DC
:10666000491CE18000E00023184670BD787F0020BF
:1066700008B508300C490A780C49002A05D091F871
:106680002E1005D140F21A4304E091F82F10F8E7DC
:106690004FF461734FF0010200924AB24FF01101C2
:1066A00000F00CF908BD0000787F00207445002040
:1066B00070B506461A4CA078002830D0FEF75EFE72
:1066C00000282CD1032019F6E9FF00F069F800F04A
:1066D0009BF80546032019F6C1FF002D1FD0314657
:1066E0002846FFF785FF88B1E088FFF761FF054680
:1066F0002089FFF75DFF294600F0A0F804F1400073
:10670000FFF7D6FB04F14A00FFF7D2FB1EB1E08889
:106710001F2804D1FEE720891F2800D1FEE770BDA5
:10672000787F002070B5EFF31085012080F310888A
:10673000032019F6B3FF174E96F82C00FEF726FE3D
:106740000120FCF73DF800F02BF813480168C1F375
:106750000B110029FAD01F2140F26C7000F040F8B4
:106760000E4C2081217829B1014640F6BE2000F070
:1067700037F8E080032019F671FF96F82F00218981
:10678000884201D8012000E00020E07085F31088E5
:1067900070BD0000744500200CE80040787F0020A8
:1067A0000E48016821F0C04141F000510160012113
:1067B000026861F3DF72026008493C310A6842F006
:1067C00001020A60011F0A6842F001020A600168C2
:1067D00021F0F05141F080610160704704E8004011
:1067E00070B505460C460BE02046FEF7D9FD0120AA
:1067F00008F606FF00F008F8A84203D2641EA4B20F
:10680000002CF1D1204670BD2DE9F0410024002676
:106810000025094F09E0C82008F6F8FE3868C0F3E3
:106820000B1008B106446D1C641C052CF3D3B6FB99
:10683000F5F080B2BDE8F0810CE8004070B50F4D76
:106840002A78002A12D00C462046FFF711FFFEF7E7
:10685000A7FDEC63A86B0A49A04202D9001B1F28C0
:1068600006D8086840F48000086070BD0446EBE775
:10687000086820F48000086070BD0000787F002068
:1068800014A8004010B58EF62DFB074910B191F801
:10689000310001E091F8300004490A6822F0FE421C
:1068A00042EA0060086010BD7445002004A8004062
:1068B0000148C07870470000787F002010B5029C26
:1068C000002C01D0C01A00E0181A90FBF1F010441F
:1068D00040B21F2800DD1F20002800DA0020C0B2CF
:1068E00010BD0000064A0749002804D00648106081
:1068F000064808607047002010600860704700007C
:10690000D8050020D4050020FD482000AD06020077
:106910002DE9F05F2DED028BB0EE408A764CA08819
:1069200000EE100AB8EE400A20EE080A10EE100A37
:1069300001F01EFC41EC100BFCF706F851EC100BBB
:1069400001F070F90546E08800EE100AB8EE400A42
:1069500020EE080A10EE100A01F00AFC41EC100BC0
:10696000FBF7F2FF51EC100B01F05CF907462088B1
:1069700000EE100AB8EE400A20EE080A10EE100AE7
:1069800001F0F6FB41EC100BFBF7DEFF51EC100BB6
:1069900001F048F98246608800EE100AB8EE400A1D
:1069A00020EE080A10EE100A01F0E2FB41EC100B99
:1069B000FBF7CAFF51EC100B01F034F983466089F4
:1069C00000EE100AB8EE400A20EE080A10EE100A97
:1069D00001F0CEFB41EC100BFBF7B6FF51EC100BB6
:1069E00001F020F90646A08900EE100AB8EE400A30
:1069F00020EE080A10EE100A01F0BAFB41EC100B71
:106A0000FBF7A2FF51EC100B01F00CF98046208936
:106A100000EE100AB8EE400A20EE080A10EE100A46
:106A200001F0A6FB41EC100BFBF78EFF51EC100BB5
:106A300001F0F8F88146E08900EE100AB8EE400A4D
:106A400020EE080A10EE100A01F092FB41EC100B48
:106A5000FBF77AFF51EC100B01F0E4F803466A1ED5
:106A60002648016821F0FF01114301607F1E016883
:106A700021F47F0141EA07410160AAF1010A001DEA
:106A8000016821F0FF0141EA0A010160ABF1010B4D
:106A9000016821F47F0141EA0B410160A8F101087E
:106AA000001D016821F0FF0141EA08010160711E2B
:106AB000026822F47F0242EA014101605B1E001D70
:106AC000016821F0FF0119430160A9F10101026889
:106AD00022F47F0242EA0141016005EB09003044E3
:106AE000401E064910310A6822F0FF0202430A6084
:106AF000BDEC028BBDE8F09FDC7F002000A40040CD
:106B000070B5294801686FF30A0101602648083012
:106B1000016821F007010160001D016821F0A061FA
:106B20000160214A14321168204B19401160111D77
:106B30000A6842F6AA239A430A6040F223441A4B99
:106B40001B1D1A6841F27F75AA4322431A60184B35
:106B50000268184C22401A43026041F255520868FC
:106B6000904310430860081D016821F03F0141F087
:106B70003B01016070F64AFF60B10F490020C1F887
:106B80008000C1F8E4010860C1F8E001C1F8200309
:106B9000C1F824030948016841F4F0610160084923
:106BA0000220086070BD000080EE0040C00000FCC4
:106BB000FFCF7F300030800000D01D4200D0004069
:106BC00090A200407047000048480121C0F880139F
:106BD000016841F080510160464A454911604649CB
:106BE0000A6842F400520A60DD21C0F8C0110F218A
:106BF000C0F8C41140495C310A6842F03F020A60A3
:106C00000A6822F47C1242F480120A603B490A6846
:106C100022F4C05242F480520A60384910310A68A6
:106C200022F4704242F4A0420A603449091D0A6805
:106C300022F480420A60314948310A6842F08002F9
:106C40000A600A6842F020020A60091F0A6842F4DA
:106C500080020A60016821F08041016028490A68C9
:106C600022F480720A600A6842F480520A60244961
:106C7000BC310A6842F001020A600A6842F002026E
:106C80000A600A6822F001020A601D499C310A6804
:106C900042F002020A600A6822F001020A60184A01
:106CA0000021A0321160174AC0F884202030C26F42
:106CB000C167C26F42F00202C267826F8167134BE5
:106CC000114A1A60124A91616FF07C41D16150F80B
:106CD000141C41F4807140F8141C08480C30016801
:106CE00041F040710160642008F690BC00A00040B3
:106CF000170003006C0500200CA9004004A8004008
:106D000024A4004000F0FFFF0000F04300F4004026
:106D10000090004010B500F0B3F991F653FBBDE8C8
:106D20001040FFF7C9BB000010B504460420FEF771
:106D300055FB0420FEF73EFB10490A6842F00202B0
:106D40000A600F48047092F6F9FE28B9FFF730F98F
:106D5000FFF798FDFFF7C8FB08483838016821F4B1
:106D60000001016005480C30016841F0010101603B
:106D7000016841F03E01016010BD00004CA80040D8
:106D8000787F002001460420BE2901DC09207047DD
:106D9000DC2901DC06207047FA2901DC0520704758
:106DA000B1F5967FFBDDB1F5B97F01DC03207047BB
:106DB0000220704701460420BE2901DC0A207047EA
:106DC000DC2901DC07207047FA2901DC0620704726
:106DD000B1F5967FFBDDB1F5C87F01DC032070477C
:106DE0000220704701460420BE2901DC0A207047BA
:106DF000DC2901DC07207047FA2901DC06207047F6
:106E0000B1F5967FFBDDB1F5B97F01DC032070475A
:106E10000320704701460420BE2901DC0B20704787
:106E2000DC2901DC08207047FA2901DC06207047C4
:106E3000B1F5967F01DC05207047B1F5B97FFBDD28
:106E40000320704701460420BE2901DC0D20704755
:106E5000DC2901DC09207047FA2901DC0720704792
:106E6000B1F5967F01DC05207047B1F5B97FFBDDF8
:106E70000320704710B5034608461A498A6B40F252
:106E80007E418A4203D9FFF7DDFF044618E0154929
:106E900040F21A44A24209780ED919B1FFF78AFFCD
:106EA00004460DE00A2B03DDFFF7B4FF044607E0BC
:106EB000FFF780FF044603E051B1FFF763FF04468C
:106EC0002046FEF78BFA2046BDE81040FEF772BA66
:106ED0000A2B03DDFFF786FF0446F1E7FFF752FFB9
:106EE0000446EDE7787F00200021074A006802EBA6
:106EF000C1035B68984202D112F831007047491C07
:106F00000629F4D306207047888320007CB5054607
:106F10000C462148C1688068CDE90001207A8DF8CF
:106F2000050003208DF804006068009060788DF8FB
:106F3000060020786946FCF777F800282BD1207DE1
:106F40008DF8050020690090607B8DF80600207B9D
:106F50006946FCF769F800281DD1222D1BD194F851
:106F600020008DF80500E0690090607E8DF8060035
:106F7000207E6946FCF758F800280CD12434207A8A
:106F80008DF805006068009060788DF80600207824
:106F90006946FCF749F87CBD7883200070B5002471
:106FA000104E56F82400B8B190F86C10012913D196
:106FB000001D29F685FD18B1102801D0002070BDF4
:106FC000EFF31085012080F3108856F82400001D8F
:106FD0002AF6A8F885F31088641C062CE1D301205A
:106FE00070BD0000B888002010B504462068D0F8B5
:106FF0008000C0F18000C0B294F83710112904D08D
:10700000204670F60BFE022010BD618CD9B941F20A
:10701000883300224021204670F6D2FF08B10320B9
:1070200010BD204670F6FAFD2046FDF7D3FE14E0B1
:10703000E16922684B1CE36109781160401EC0B20F
:10704000618C491E618410B1618C0029F0D1608C83
:1070500018B920680021C0F8A010002010BD000061
:1070600004480068C00703D0044903480860FEE7ED
:1070700070470000E8A400400001A1C58CE2004078
:10708000BFF35F8F044801680A6804490A60016021
:10709000BFF34F8F7047000008ED00E0007C002038
:1070A00070B505460126002407E0012008F6AEFA77
:1070B000641CAC4201D3002603E0FCF70DFD002860
:1070C000F3D0304670BD10B5FFF7DAFFBDE81040D1
:1070D000FFF638BB2DE9F04385B00546DDE90C89A4
:1070E0000E4617461C462246394628688FF646F853
:1070F000A04215D10020CDE901900498009030689D
:1071000042462146039B00F0DBFA224639463046D0
:107110008FF65EF8A04205D00F2005B0BDE8F083E1
:107120000F20FAE72868204428600020F5E70000D7
:107130002DE9F74F8EB004460D4628468DF636F8F9
:107140008046ADF82C40ADF82E500BA88CF6FEFF13
:107150000BA810998DF601F80026ADF832604FF0BB
:10716000030A844FDFF8109208223968D9F800002A
:1071700008440BA985F682FB0446082C04D0AAF12A
:10718000010A1AF0FF0AEFD10821D9F800008DF6A4
:10719000E7FF82465FEA0A0021D009960A96D9F8ED
:1071A0000000C0F1010000F6F77040428DF82400A5
:1071B000FF208DF8250028468CF6F8FF2844ADF80E
:1071C0002600D9F800000422411EC1F30B01401A29
:1071D0003968084400F6FF7009A985F669FB4FF08D
:1071E000020B082C3BD01CF669F904461CF672F918
:1071F000CDE905B40721CDE9031040F2BD1201200D
:10720000CDE9010203210091C10305231F220020C3
:1072100070F624FAADF82C60ADF82E608DF8306071
:107220008DF83160D9F800003968082208440BA9AC
:1072300085F624FBD9F80010BAF1000F01D0082020
:1072400000E0002008300844C9F80000D9F8040024
:107250000838C9F80400102011B0BDE8F08FD9F843
:107260000010BAF1000F01D0082000E00020083023
:107270000C18386805EB080A1FFA8AF220441099A6
:107280008EF6BDFF504509D1D9F800003968014498
:107290000BA892F61FFF00200D9023E01CF60EF9BC
:1072A00008901CF617F908990722CDE905B1CDE938
:1072B000032040F2D9120120CDE9010203210091FF
:1072C000C10305231F22002070F6C8F9ADF82C6019
:1072D000D9F800003968082208440BA985F6CEFACF
:1072E00010200D90BDF82E00404481B220468DF64E
:1072F00037FF83465FEA0B001CD009960A968DF88B
:107300002460FF208DF8250028468CF64FFF411998
:10731000601EC0F30B00201A021B891AA1F6FF7130
:10732000ADF8261039680422084400F6FF7009A958
:1073300085F6BEFA60194044C9F80000BBF1000FA1
:1073400001D0082100E000210844C9F80000D9F864
:1073500004000830A0EB0A000838082803D90838D0
:10736000C9F8040003E089F80800C9F804600D9822
:1073700072E70000BC350020904700202DE9F8435B
:107380000746884614461D464FF480761BE0334678
:107390009C420DD90E4A41463846009593F69EFA16
:1073A00010B10F20BDE8F883A4F58074A4B20AE000
:1073B0002346074A41463846009593F68FFA08B1AE
:1073C0000F20EFE70024002CE1D10020EAE70000C5
:1073D000644600202DE9FF4F89B007460D469846C8
:1073E000DFF864B2B978F888DBF8002002EB0131ED
:1073F00008440690DFF854A2DAF80000083005903F
:107400002878002810D192480168029140680390C2
:10741000082202A9DBF8000085F64AFA082803D002
:107420000F200DB0BDE8F08FFA784FF0010922B3BC
:107430008849059885F6EEF9F97888422BD198F8B5
:107440000000B0B1B888ADF81E00CDE90159089828
:107450000090F978DDE906030A4600F031F9FA7880
:107460007C4906A885F63EFAF978884201D00F20BB
:10747000D7E7F878059908440590BA8882B198F85A
:10748000000050B1134606A905A8009500F0E6F8E3
:1074900030B10F20C5E70F20C3E7059810440590D1
:1074A00088F800900598DAF80010411AC1F5805468
:1074B000082C5CDD082207A985F6ACF9082801D064
:1074C0000F20AEE7BDF81C10A1F57F40FF381CD09F
:1074D000BDF81E008CF66AFEBDF81E104618BDF8F9
:1074E0001C0010B3CDE9015908980090DDE90603AE
:1074F0000822114600F0E4F8082207A906A885F63C
:10750000F1F9082819D00F208BE75348DBF8002049
:10751000417A2878091A401C02EB00308EF6FCFDF7
:1075200008B101207DE70F207BE705983044083043
:107530000590002088F8000065E005980830059067
:10754000083CA64209DDB3B2A2B206A905A800957F
:1075500000F084F8C0B30F2063E7B3B2B2B206A95B
:1075600005A8009500F07AF870B30F2059E722467D
:1075700007A9059885F64EF9A0423ED1BDF81C102A
:10758000A1F57F40FF3811D07878DBF80010401C5F
:1075900001EB00300830C4F1080207A91646214467
:1075A00085F638F9B04212D00F203AE72A48DBF8C6
:1075B0000020417A2878091A401C02EB00308EF630
:1075C000ABFD10B101202CE71DE00F2029E7BDF82D
:1075D0001C00A0B1CDE9015908980090DDE906032F
:1075E000A1B2082200F06CF8A2B207A906A885F69D
:1075F00079F9A0420FD00F2013E70F2011E70020E8
:1076000088F8000007E0DAF80000059900F58050DE
:107610008142FFF445AF0698411EC1F30B01411AA8
:10762000081A0B99C0F10100088000200490012283
:1076300004A9DAF8000085F63BF9012801D00F20F3
:10764000EFE60020EDE60000BC350020C03500204C
:10765000A4B7090064460020904700202DE9FC47AC
:1076600080460A9E894614461D464FF4807720E0E6
:107670003B469C4211D9CDE90056104A4946404646
:10768000FFF728FD10B10F20BDE8FC87A4F580743A
:10769000A4B2A5F58075ADB20BE0CDE90056234646
:1076A000064A49464046FFF715FD08B10F20EBE7B3
:1076B0000024002CDCD10020E6E700006446002016
:1076C0000FB42DE9FC41DDE90D57441EC4F30B0452
:1076D000041B431826464FF0FF0C04F6FF74002FDE
:1076E0001DD09C4217D8C0F10100081A401C8DF82B
:1076F00000008DF801C0BDF82E6030468CF656FDB6
:107700003044ADF802002878401C2870204604223E
:10771000694685F6CDF8BDE8FC015DF814FB9C4296
:10772000F9D800218DF800108DF801C0301A101A18
:10773000A0F6FF70ADF802002878401C28702046A3
:107740000422694685F6B4F8E5E7000010480168B0
:1077500001F00701022909D1016821F00701491D43
:107760000160016821F00701491D01600168C1F352
:10777000024104290BD1016821F4E02141F4403198
:107780000160016821F4E02141F44031016070475B
:1077900000A0004081F00041704780F00040704739
:1077A00021F00041704720F00040704710B591EA89
:1077B000030F48BF83F0004300F1F883841A71EB94
:1077C000030C05D2121943EB0C03001B61EB0C01F7
:1077D000DFF824E14FEA1154A4EB135C1EEA430FD7
:1077E00018BF9EEA445F73D023EA0E03DCF1200E3B
:1077F00021EA045143F4801332D322FA0CFE10EB39
:107800000E0023FA0CFE41EB0E01CCF1200E03FA20
:107810000EFE10EB0E0051F10001B1F5801FCCF10E
:10782000200E32D201EB045112FA0EF2BDE81040E4
:1078300058BF7047401C38BF5FEA420218BF70470C
:10784000002814BF20F0010041F100014FEA41037C
:1078500013F5001F38BF7047A1F1C04100F056BBBF
:10786000012A43EB0302ACF1200CDCF11F0E32BF06
:107870004FF0000E23FA0CF310EB030041EB045120
:10788000B4EB115FD0D0A1EB045101F58011490890
:107890005FEA300001EB04510ED350F1000038BF15
:1078A00012FA0EFE08D1BDE81040C9E7401C38BFEF
:1078B0005FEA4202CAD1C3E7BDE810404FEA410384
:1078C00013F5001F38BF7047A1F1C04100F01EBB87
:1078D0009EEA445F08D011EA5E0FBDE8104004BF85
:1078E00001F0004100207047BDE8104070B500F085
:1078F000BFFA00BF64FBBE3E0000E0FF491058BF66
:10790000C1F140415B1058BFC3F140438B42EFF3DC
:10791000008070472DE9C04130B4DFF8A0C23CEAD6
:10792000111418BF3CEA131400F0EC8081EA03053F
:107930001CEA111444EAD57418BF1CEA131500F0B0
:10794000C780A4EB05044FF0004545EAC12145EA94
:10795000C32341EA505143EA525304F17F749942E0
:1079600004F500344FEAC0204FEAC22208BF90421B
:1079700000F09C804FEA13650FF24016765D4FEAE7
:10798000134506FB05F7C7F1807706FB07F74FEABB
:10799000D737A7FB03687642C8F58038A7FB06CE29
:1079A00038BFA8F1010807FB08E64FF0000EA6FB60
:1079B000028CE6FB03CEDCF1000CCEF1004E38BFAA
:1079C000AEF1010EA6FB0C584FF000074FF000057A
:1079D000E6FB0E87A1FB08C6A0FB07CE16EB0E0642
:1079E00045F10005E1FB076515F1E04E7EBFA4F50A
:1079F00080345FEA46066D4116F1800745F10005C7
:107A00004FEA17274FEA066647EA0567A6F1DE4602
:107A1000B6F1805F4FEA15251FD9384624F0010CD6
:107A200005EBC471BCF1FE6F01EB0C1102D8F0BC88
:107A3000BDE8008124425CBF01F5801E9EEAC47F40
:107A400002D4F0BCBDE80081244238D4F0BCA1F1DE
:107A5000C041BDE8004100F059BA4FEAD22242EAE3
:107A600043524FEAD323A7FB02864FEAD02040EAD5
:107A7000415007FB03661EEA0E0F4FEAD12105FBBA
:107A8000026658BFA6EB0056B6EB00564FEA520E00
:107A90004EEAC37E18EB0E0E56EB530EBDD518EB17
:107AA00002085E417F1C55F10005B6E74FF48015D2
:107AB0004FF000074FF000064FF00008ADE7F0BCB4
:107AC0004FF0000001F1C04101F00041BDE800812C
:107AD00011EA0C1F0CEA131500D00CE013EA0C1F7E
