:020000040020DA
:1020000000000820592020006120200001601000FD
:10201000F7212000ED212000FD212000000000001C
:10202000000000000000000000000000156010002B
:102030006B202000000000006D2020007120200097
:10204000DFF810D000F048FC00F062F800480047CC
:10205000CDC0200000000820064880470648004701
:10206000FEE7FEE7FEE7FEE7FEE7FEE7FEE7FEE748
:10207000FEE70000852A2000EDC020000649074A3F
:102080000868504343F23902104408604008704722
:102090000149086070470000948300206D4EC641DE
:1020A00040EA01039B0703D009E008C9121F08C0DA
:1020B000042AFAD203E011F8013B00F8013B521E5A
:1020C000F9D27047D2B201E000F8012B491EFBD2D1
:1020D00070470022F6E710B513460A460446194633
:1020E000FFF7F0FF204610BD421C10F8011B00292D
:1020F000FBD1801A704730B504460020034600E04B
:102100005B1C934203D2E05CCD5C401BF8D030BD39
:1021100070B5054C054D03E0206820448047241D20
:10212000AC42F9D170BD0000D00E2100D40E2100C8
:1021300030B4044696230800214604D0B62330BCB0
:10214000002200F0B2BA20460021F8E70EB540F2B6
:10215000334102910021CDE900110A460B4600F0FF
:10216000E1FA03B000BD0EB540F233420292002204
:10217000CDE90022134600F0D5FA03B000BD20F0EF
:102180000040C20DC0F3160040F400007F2A02DABE
:102190000020014670470021962A03DCC2F1960216
:1021A000D0407047963A00F046BA70B5C1F30A5273
:1021B00001F000450024C1F3130140F2FF3341F464
:1021C00080119A4201DA002070BD40F233439A42F6
:1021D000A2F2334203DC524200F03CFA00E09040AD
:1021E0002C43F1D0404270BD03F012BDFEE710B5A4
:1021F00004F058F810BDFEE728F6D0BCFEE77047A3
:1022000058585247010000002655000000202000C9
:10221000002020007FED9247010100000000000037
:1022200000000000000000000000000000000000AE
:10223000000000000000000000000000000000009E
:102240002DE9FE4F804681EA0300C00F0C46009046
:1022500021F0004123F00045B8EB0200A94105D26E
:102260004046214690461C460B46024623F000405D
:10227000104347D0270DC7F30A00C3F30A51029059
:10228000401A019040286BDAC3F3130040F4801B1E
:102290000098924620B10023D2EB030A63EB0B0BAC
:1022A00001985946C0F14002504600F0C4F9064674
:1022B0000D4650465946019A00F0DCF910EB080033
:1022C0006141002487EA115284EAE7731A4340D03F
:1022D000009A62B3019A012A4FEA075215DC001BEB
:1022E00061EB02014FF0004202EA0752CDE90042E1
:1022F000001C41F5801132462B4600F013FA03B062
:10230000BDE8F08F40462146F9E7001B61EB020172
:10231000001C41F5801300185B412018A2F500173E
:1023200047EB030140EAD570B6196D4111E06D0825
:102330004FEA360645EAC0754FEA0752001B61EBCB
:102340000201001C41F5801149084FEA30000019D4
:10235000514132462B4603B0BDE8F04F00F0D3B9EF
:102360000098012240000023D0EB020263EBE073EF
:10237000009821464FEAE074B8EB000061EB0401DD
:10238000E9E783F000435BE781F0004158E72DE97E
:10239000FE4F81EA030404F0004421F00041009460
:1023A0004FF0000B23F0004350EA01045ED052EAE4
:1023B00003045BD0C3F30A54C1F30A552C44A4F2BE
:1023C000F3340194A0FB0254C1F3130141F48011D2
:1023D000C3F3130343F4801301FB024400FB034ED9
:1023E000840A970A44EA815447EA8357A4FB0768A2
:1023F00002958D0A05FB07854FEA932C04FB0C54CC
:102400002705029D4FEA065847EA1637B5EB08053F
:102410006EEB070C870E920E47EA811742EA831291
:10242000A7FB0201B6EB0B0164EB00042B0D43EAA2
:102430000C335E1844EB1C50DA465146E7FB0201B0
:10244000C5F313044FEA0B3343EA14534FEA043243
:10245000019C43EA0603A4F10C040294009CCDE91C
:1024600000B400F05FF903B0BDE8F08F0020014632
:10247000F9E72DE9F04D81EA030404F0004B21F067
:10248000004514464FF0000A23F0004150EA0502CF
:1024900020D054EA01021DD0C5F30A570246C5F305
:1024A0001303C1F31300C1F30A5640F4801543F43B
:1024B0008013A7EB0608101BD64608F2FD3873EB15
:1024C000050002D308F1010801E092185B41B8F160
:1024D000000F03DA00200146BDE8F08D00204FF424
:1024E0008011064684460EE0171B73EB050705D3E3
:1024F000121B63EB050306434CEA010C49084FEA43
:10250000300092185B4150EA0107EDD152EA030016
:1025100012D082EA040083EA0501084305D0101BAB
:10252000AB4106D20122002306E000224FF0004317
:1025300002E06FF0010253101AEB06004CEB085159
:1025400010EB0A0041EB0B01BDE8F04D00F0DBB8E9
:10255000C1F30A5210B5C1F3130140F2FF3341F445
:1025600080119A4201DA002010BD40F233439A42B2
:10257000A2F2334203DC524200F06CF810BD9040EE
:1025800010BD00F0004230F000400AD0C10D01F54E
:102590006071C0F3160042EA0151C20840071143BE
:1025A000704700200146704730B50B4601460020B9
:1025B0002022012409E021FA02F59D4205D303FA05
:1025C00002F5491B04FA02F52844151EA2F1010286
:1025D000F1DC30BD2DE9F05F0546002092469B46B8
:1025E00088460646814640241BE028464146474629
:1025F000224600F02FF853465A46C01A914110D394
:1026000011461846224600F016F82D1A67EB01080D
:102610004F4622460120002100F00DF817EB00097B
:102620004E41201EA4F10104DFDC484631462A4613
:102630004346BDE8F09F202A04DB203A00FA02F16D
:10264000002070479140C2F1200320FA03F31943A0
:1026500090407047202A04DB203A21FA02F0002142
:10266000704721FA02F3D040C2F1200291400843A2
:1026700019467047202A06DBCB17203A41FA02F0B0
:1026800043EAE07306E041FA02F3D040C2F12002CF
:1026900091400843194670470029A8BF7047401C65
:1026A000490008BF20F00100704710B4B0FA80FC68
:1026B00000FA0CF050EA010404BF10BC704749B1A5
:1026C000CCF1200421FA04F411FA0CF118BF012115
:1026D00021430843A3EB0C01CB1D4FEA00614FEAF5
:1026E000102042BF002010BC704700EBC3501044C4
:1026F0000029A4BF10BC7047401C490008BF20F04F
:10270000010010BC704710B5141E73F1000408DA04
:10271000401C41F1000192185B411A4301D120F0A5
:10272000010010BD2DE9F04D92469B4611B1B1FA62
:1027300081F202E0B0FA80F220329046FFF77BFF90
:1027400004460F4640EA0A0041EA0B0153465A4646
:10275000084313D0114653EA010019D0C8F14002D2
:102760005046FFF777FF05460E465046594642460B
:10277000FFF761FF084305D0012004E020463946F9
:10278000BDE8F08D0020054346EAE0762C43374350
:102790000A986305E40AA0EB08000022FD0A44EA57
:1027A00047540A3002D500200146E9E70105101917
:1027B0006941DDE9084500196941BDE8F04DA2E72E
:1027C0002DE9F041054621F000400C46284309D090
:1027D000C4F30A5040F23341884205DD28462146C1
:1027E000BDE8F0812846FBE740F2FE31884210DC6C
:1027F0000CDB4FEA043040EA155050EA053105D0B1
:10280000104804F0004101430020E9E700200146A0
:10281000E6E7A0F233404642C6F140022846214690
:10282000FFF709FF07468846284621463246FFF74C
:1028300011FF43463A46FFF766FF3246BDE8F041D6
:10284000FFF7F9BE0000F03FC1F30A52C1F31301D4
:1028500040F2FF3341F480119A4202DA002001462F
:10286000704740F233439A42A2F2334202DC5242B2
:10287000FFF7F0BEFFF7DFBE30B5041E71F10004B4
:1028800004DB4FF00044404264EB0101141E73F17D
:10289000000405DB1C464FF00043524263EB040387
:1028A0008B4208BF824230BD30B5041E71F1000476
:1028B00004DB4FF00044404264EB0101141E73F14D
:1028C000000405DB1C464FF00043524263EB040357
:1028D000994208BF904230BD064C074D06E0E068C3
:1028E00040F0010394E8070098471034AC42F6D357
:1028F000FFF7AAFB900E2100D00E210070B58C18B6
:1029000010F8015B15F0070301D110F8013B2A1103
:1029100006D110F8012B03E010F8016B01F8016BF0
:102920005B1EF9D12B0705D40023521E0DD401F8EC
:10293000013BFAE710F8013BCB1A921C03E013F8B5
:10294000015B01F8015B521EF9D5A142D8D30020EA
:1029500070BD00000948C16921F00301C16101682F
:1029600041F008010160016821F00801016004489C
:10297000416E21F0800141667EF6D6BE005001B066
:10298000002001B070B503201749096841F38001A8
:10299000491C164D00290CD113490C310968C1F3AB
:1029A000000131B110498C39096801F007018843F1
:1029B00003D02869401C286170BD0D4C206820F0B0
:1029C00001002060206840F00400206009494FF4B5
:1029D0000030086003F00CFDE868401CE8602068E7
:1029E00040F00100206070BDD4A40040948000201D
:1029F00088E2004084E200E005280CD2064A116813
:102A000001F4E021B1EB004F05D0116821F4E02181
:102A100041EA00401060704700A000400249096888
:102A200001F007010170704700A0004070B5044636
:102A3000072C20D2104E306800F00700A04214D0BE
:102A4000032007F0AFFFF06820F0070545F0010014
:102A5000F06000BF00BF00BF00BF204607F0A2FF2C
:102A6000064850F824002843F060044804491C3804
:102A700050F82400086070BD00A00040400721000D
:102A8000600300200248016841F470010160704752
:102A900088ED00E002480068001D06F01DBD000042
:102AA000C48A002002484068001D06F015BD0000E1
:102AB000C48A002002488068001D06F00DBD000099
:102AC000C48A00200248C068001D06F005BD000051
:102AD000C48A002002480069001D06F0FDBC000009
:102AE000C48A002002484069001D06F0F5BC0000C1
:102AF000C48A00200FB4054B10B503A9044A0298FC
:102B000000F094FC10BC5DF814FB00003D6F200049
:102B1000687D00200FB41CB50246002007AC0029D8
:102B20000BD0491ECDE90021054B6A462146069887
:102B300000F07CFC009A002111701CBC5DF814FBB5
:102B40005B3B20000FB4084B10B504A902AA039800
:102B500000F06CFC044602A9002001F009F82046B0
:102B600010BC5DF814FB0000713B20007CB50446EE
:102B700000201D46164600290BD0491ECDE9004114
:102B8000044B6A462946304600F050FC009A00216A
:102B900011707CBD5B3B2000002809DB00F01F02A8
:102BA000012191404009800000F1E020C0F880122E
:102BB000704700280DDB00F01F0201219140400901
:102BC000800000F1E020C0F88011BFF34F8FBFF309
:102BD0006F8F7047002809DB00F01F020121914030
:102BE0004009800000F1E020C0F800117047002883
:102BF00009DB00F01F02012191404009800000F133
:102C0000E020C0F800117047002804DB00F1E0204C
:102C100090F80004704700F00F0000F1E02090F8F9
:102C2000140D7047002804DB00F1E02090F8000448
:102C3000704700F00F0000F1E02090F8140D70478D
:102C4000002804DB00F1E02090F80004704700F059
:102C50000F0000F1E02090F8140D7047002804DB0D
:102C600000F1E02090F80004704700F00F0000F140
:102C7000E02090F8140D704702480068C0F302206D
:102C8000704700000CED00E002480068C0F302202D
:102C9000704700000CED00E0EFF31080704700007B
:102CA0002DE9F0412DED020B9FED3D0B2DED028B3B
:102CB0009FED3D8BDDE90254C4F30A50A0F2FF36CC
:102CC000142E37DA002E18DA53EC102B9DED020B80
:102CD00051EC100BFFF7B4FA53EC182BFFF7E4FD9F
:102CE00057D2002CBCBF4FF00044002551DB54EA02
:102CF000050018BF2E4C1BD14BE02E4820FA06F7DA
:102D000004EA070028431FD053EC102B9DED020B63
:102D100051EC100BFFF794FA53EC182BFFF7C4FD9E
:102D200037D2002C03DD4FF48010F0400444BC4344
:102D300000252EE0332E07DCA6F114004FF0FF3102
:102D400021FA00F73D4206D19DED020BBDEC028B4E
:102D500002B0BDE8F08153EC102B9DED020B51EC5D
:102D6000100BFFF711FB53EC182BFFF79DFD10D252
:102D7000002C0DDD142E08BF641C09D0C6F13400F0
:102D8000012101FA00F02844A84238BF641C05461E
:102D9000BD43CDE902549DED020BD7E700000000D2
:102DA0009C7500883CE4377E0000000000000000B5
:102DB0000000F03FFFFF0F0010B52DED020B2DEDD1
:102DC000088B84B09DED0C0B51EC100BFFF7F8FC59
:102DD00041EC180B9DED0C0B53EC182B51EC100B28
:102DE000FFF7CFFA41EC190B0D989FED290B10F06E
:102DF000004F53EC102B51EC190B9FED21AB9FEDC5
:102E000022BB0ED0FFF738FD0ED953EC1B2B51EC33
:102E1000190BFFF749FD1CD214E000BF41EC180B61
:102E200017E0FFF729FD06D253EC1A2B51EC180BD3
:102E3000FFF7A7FAF2E753EC1B2B51EC190BFFF746
:102E400033FD06D853EC1A2B51EC180BFFF7F8F9A9
:102E5000E4E78DED028B9DED0C0B18EE901A10EE51
:102E6000900A8DED000B61F31E0003909DED020BA7
:102E700004B0BDEC088B02B010BD000000000000E3
:102E8000000000000000F03F000000000000E03FF4
:102E9000000000000000E0BF02E008C8121F08C1E7
:102EA000002AFAD17047002001E001C1121F002A58
:102EB000FBD1704780F31088704700002DE9F74F71
:102EC00007460298DFF888A1DFF888814FEA500BA7
:102ED0005C46019D6048CAF800003F20D8F8041005
:102EE00060F30501C8F80410D8F8040020F480301D
:102EF000C8F80400DAF8000020F4700040EA075037
:102F0000CAF80000DAF8000020F4702040EA074018
:102F1000CAF800000D2F05D1DAF8000040F4004097
:102F2000CAF800000E2F05D1DAF8000040F4804006
:102F3000CAF80000DAF8000040F40050CAF80000B7
:102F4000DAF8000020F06050CAF80000DAF800005B
:102F500020F00F0040F00300CAF80000002000F04D
:102F6000CFF8012871D1DAF8000040F08040CAF8AB
:102F70000000002008E0D8F8081041F48031C8F8BB
:102F80000810401C411C05D0D8F80810C1F30021DE
:102F90000029F0D1072000F0B3F8012855D141E015
:102FA00000264FF47A7924E04E451ED9DAF8000065
:102FB00020F08040CAF80000DAF8000040F000403D
:102FC000CAF80000DAF8000020F00040CAF800005B
:102FD000002000F095F8012837D12049086A401CEC
:102FE000086205200CF612FB72E701200CF60EFBBE
:102FF000761CD8F80800C0F300200028D4D0D8F8F8
:10300000080000F07F02A24200D92246002006E01C
:10301000D8F800102980090C69802D1D401C9042B1
:10302000F6D3A41A002CBBD10298C00708D0D8F858
:103030000800C0F300200028F9D0D8F8000028804C
:10304000BDE8FE4F002000F05BB8BDE8FE8F000039
:1030500000A8004000E000400A0708079480002014
:103060002DE9F041044615480021C0F894100121D3
:103070004161134D686A134EF06200F0010149424C
:103080000140C80512D440F2011704E044B1641EA7
:1030900001200CF6BBFAA869B84204D1012003E074
:1030A0000020BDE8F08100200028EFD0064800682D
:1030B00070626868B0620120F3E7000000D01D4232
:1030C00000E000409480002000A8004009480A4920
:1030D000826A4A60094B426A1A60808D00F00102E0
:1030E00052420240D00503D4086A20F00100086271
:1030F000704700009480002000E0004000A80040DD
:103100002DE9F0410546114FF868C0F30240A8428E
:1031100002D10120BDE8F081F86820F007002843C3
:10312000F86000244FF6FF76F868C0F30240A8422A
:1031300005D001200CF66AFA641CB442F4D3B44200
:1031400001D10020E6E70120E4E7000000E00040B4
:103150002DE9FF5F82B00021DDE90430020DDDF8CA
:1031600040B0034318D044F61050A2F2FF3242435D
:103170001514119801281FD0A5EB0B00401C5FEA25
:10318000000A4FF000064E4FDFF83891B046504627
:1031900015D5CAF1000413E0119801244AA30128AF
:1031A00001D16FEA0B010298119AC0E90031C0E920
:1031B000024206B0BDE8F09FCBF10000DFE7044615
:1031C0000021404A491842EB0450CDE9001012E0BA
:1031D000E00707D032463B4640464946FFF7D7F85E
:1031E0008046894632463B4610461946FFF7CFF8DF
:1031F00006460F466410002CEAD1DDE90401DDE942
:103200000023BAF1000F06DAFFF7C1F842464B4639
:10321000FFF7BDF805E0FFF72CF942464B46FFF7F4
:1032200028F904460E460022284BFFF73DFB03D841
:103230004FF0FF30014607E00022254B2046314683
:10324000FEF7FEFFFFF700FB102409E0002C0ADB6D
:103250000A220023FFF7BEF9039B30321A55641E81
:1032600050EA0102F2D1641C039AC4F11103144420
:10327000119A012A03D0012208430DD10AE0084324
:1032800004D000204FF0110B119072E7A3EB0B0557
:103290006D1E0DE05B4504DD4FF0000205F10105F8
:1032A00004E003DA4FF00002A5F10105002AECD09A
:1032B00002981199C0E90231C0E9004579E70000A0
:1032C000000014400000F03F300000000000F04318
:1032D0000000E03FF0B506462DED068B89B00D46A7
:1032E0009FED459B202101A8FEF7F3FEB0EE498A31
:1032F000F0EE698A4248C08BFEF728FF9FED411B24
:1033000053EC112BFFF7B5F841EC1A0B102201A971
:103310003046FFF7D3FD002401AF04F1080037F871
:103320001000FEF713FF53EC182BFEF789FF41EC5A
:10333000180B641CE4B2082CEFD351EC180B9FED72
:10334000330B53EC102BFFF722F841EC180B0D2E2A
:1033500002D00E2E29D046E09FED2E0B51EC100B23
:1033600081F0004141EC190B6888FEF7EFFE53EC49
:10337000192BFFF70CF841EC190B2888FEF7E6FE35
:1033800053EC182BFFF700F853EC192BFFF771F8EB
:103390009FED221B53EC112BFFF76BF853EC1A2B0C
:1033A000FEF74EFF41EC190B1DE09FED1E0B51EC9B
:1033B000100B81F0004141EC190B6888FEF7C6FE46
:1033C00041EC1A0BA888FEF7C1FE53EC182BFEF750
:1033D000DBFF53EC1A2BFFF74CF853EC192BFEF7DD
:1033E000D6FF41EC190B09B0B0EE490AF0EE690ABC
:1033F000BDEC068BF0BD00000000000000000000E6
:10340000B04500200000000000005940000000000E
:103410000000C03F000000000000004079E92631B4
:1034200008AC5CBFB76DDBB66DDB0E402DE9FF4F1E
:1034300095B09B468946064600250FE2252877D1A0
:1034400000242746F84A0121059400E0044316F8B9
:10345000013F203B01FA03F01042F7D130782A28CF
:1034600011D06FF02F033078A0F13002092A16D85E
:10347000059A44F0020402EB820203EB420210447C
:10348000761C0590EFE759F8042B0592002A03DA21
:10349000504244F40054059044F00204761C307805
:1034A0002E2816D116F8010F44F004042A280DD056
:1034B0006FF02F023078A0F13003092B09D807EB09
:1034C000870302EB4303C718761CF3E759F8047B24
:1034D000761C30786C280FD006DC4C2817D0682872
:1034E0000DD06A2814D104E0742810D07A280FD1A6
:1034F0000DE044F400140AE044F4801401E044F4C4
:1035000040147278824202D104F58014761C761C35
:10351000307866280BD013DC582877D009DC0028D7
:1035200075D04528F6D04628F4D047281AD19DE119
:1035300018E0632835D0642879D0652812D195E148
:10354000702873D008DC6728F1D069286FD06E2806
:103550000DD06F2806D1B5E073282CD0752875D012
:10356000782874D05A46179990476D1C75E1C4F3BA
:103570000250022809D003280DD0D9F800100428E1
:103580000DD00D6009F1040967E1D9F80010EA17C0
:10359000C1E90052F6E7D9F800100D80F2E70D708E
:1035A000F0E719F8041B8DF8001000208DF80100D9
:1035B000EA46012003E059F804AB4FF0FF30610701
:1035C0004FF0000102D40DE008F101018846B94234
:1035D0000FDA8045F8DB1AF808100029F4D108E06A
:1035E00008F1010188468142FADB1AF80810002927
:1035F000F6D105985B46A0EB080721463846179A96
:1036000000F094FA284400EB080507E04DE029E1BA
:103610000DE01AF8010B5A4617999047B8F10108C6
:10362000F7D25B4621463846179A13E142E00A2258
:103630000092C4F302524FF0000A022A08D059F84F
:1036400004CB032A4FEAEC710AD00DE029E02AE00E
:1036500009F1070121F00702F2E802C1914609E0F1
:103660000FFA8CFC4FEAEC71042A03D14FFA8CFC60
:103670004FEAEC71002907DA0A460021DCF1000C60
:1036800061EB02012D2202E0220504D52B228DF8E8
:103690000420012203E0E20701D02022F7E7904650
:1036A00059E00A2102E010220DE010214FF0000A3B
:1036B00000910BE010224FF0000A44F004040827A8
:1036C000009203E008224FF0000A0092C4F3025275
:1036D000022A05D059F804CB0021032A08D009E0BA
:1036E00009F1070121F00702F2E802C1914605E065
:1036F0001FFA8CFC042A01D10CF0FF0C4FF00008DB
:10370000220728D5702806D0009B83F0100353EAC7
:103710000A0305D00EE040228DF80420012208E0C3
:103720005CEA010206D030228DF804208DF80500F5
:1037300002229046009B83F0080353EA0A030AD151
:103740005CEA010201D1620705D530228DF8042020
:103750004FF001087F1E582804D034A003900EA813
:1037600002900DE036A0F9E753466046009AFEF756
:1037700031FF84460398825C0298401E02900270DA
:103780005CEA0100F0D1029806A9081A00F1200AAB
:10379000600702D524F4803400E00127574502DD9C
:1037A000A7EB0A0000E0002000EB0A01009005985A
:1037B0004144401A0590E00306D45B462146179A1F
:1037C000059800F0B3F90544002706E001A85A4621
:1037D000C05D179990476D1C7F1C4745F6DBE003E1
:1037E0000CD55B462146179A059800F09FF90544D1
:1037F00004E030205A46179990476D1C0099481EE6
:1038000000900029F5DC08E0029802995A460078F9
:10381000491C0291179990476D1CBAF10001AAF159
:10382000010AF1DC65E10000092801003031323382
:1038300034353637383961626364656600000000EC
:1038400030313233343536373839414243444546D6
:103850000000000000F058F90544761C307800287C
:103860007FF4ECAD19B02846BDE8F08F620700D4B4
:10387000062709F1070222F0070CFCE80223E146C3
:1038800003F000485FEA080C02D00FF2702C0DE044
:103890005FEA045C02D50FF2682C07E05FEAC47CA3
:1038A00002D00FF2602C01E0AFF2700C4FF0FF3845
:1038B00023F00043CDF850C065280CD006DC452825
:1038C00009D046281DD047283DD13DE0662818D0B4
:1038D00067287ED138E00021112F01DB112000E0A4
:1038E000781CCDE9000106A90EA8FFF731FCDDE93F
:1038F0000F010E9A03910021009207F1010A049131
:103900004DE04FF000400097CDE9011006A90EA848
:10391000FFF71EFCDDE90F0203920E9B11990022B6
:10392000DDF80CA00093049211B9791C00EB010A98
:10393000B7EB0A0004D4C0F1FF3007F1010A04908C
:10394000AAEB0700019044E0012F00DA01270021D3
:10395000112F01DD112000E03846CDE9000106A954
:103960000EA8FFF7F5FBDDE90F010E9A0391002188
:1039700004910092BA4621070CD40399514500DA0C
:103980008A46BAF1010F05DD009AAAF10101515CE6
:10399000302908D0B84202DA10F1040F06DA01210A
:1039A000CDE9011015E0AAF10101E9E7002805DCE5
:1039B000049901440491AAEB000102E0411C514525
:1039C00000DD8A460499401A401C01904FF00040E7
:1039D0000290200704D40198504501DBCDF8048003
:1039E00000208DF84F0002980DF14F07B0F1004F05
:1039F00025D02B200E9002984FF0020800280CDAF8
:103A0000404202902D200E9007E00A210298FEF716
:103A1000CBFD3031029007F8011DB8F10001A8F18B
:103A20000108F2DC02980028EFD1791E0E98087088
:103A3000307800F0200040F0450007F8020D12A891
:103A4000C01B00F107081498007800B1012000EBBA
:103A50000A01019801EBE07105984144401A401EAB
:103A60000590E00306D45B462146179A059800F0BE
:103A70005DF805441498007818B15A461799904794
:103A80006D1CE00324D55B462146179A059800F08B
:103A90004DF805441CE00498002807DBDDE903012C
:103AA000884203DD0098405C179901E017993020A7
:103AB0005A469047049805F10105401C049001986E
:103AC000401E019004D12E205A46179990476D1C34
:103AD000BAF10001AAF1010ADDDC05E017F8010BDB
:103AE0005A46179990476D1CB8F10001A8F10108DA
:103AF000F4DC5B462146179A0598ABE62D000000E2
:103B00002B000000200000002DE9F04104460025B4
:103B10001E461746880404D405E039462020B047E5
:103B20006D1C641EF9D52846BDE8F0812DE9F041F1
:103B3000044600251E469046C80301D5302700E004
:103B40002027880404D505E041463846B0476D1C5F
:103B5000641EF9D52846BDE8F0814A68002A06D0DF
:103B60000A68531C0B6010704868401E486070471C
:103B70000A68531C0B601070704710B502F05CFBB4
:103B800010BD09F0F9B870B504460D462946204627
:103B90000BF044FE2946204608F07AFA29462046D2
:103BA00008F0A0FB70BD000003490A6822F4C0625F
:103BB00042EA40200860704704A800400EB507485C
:103BC00007A140F221220078CDE9002102900D4B9F
:103BD0000DA213A1032000F031FE0EBDCC7D00200C
:103BE0004164766572746973696E6720537461729B
:103BF000742C20496E7374616E6365204944583A91
:103C000025642E00FC0521002E2E5C5372635C752A
:103C10007365725C757365725F6170702E6300000E
:103C20004E4F5F544147000006460F46154672B698
:103C30003846FEF759FA402801D9402002E03846BC
:103C4000FEF752FA80463046FEF74EFA402801D978
:103C5000402002E03046FEF747FA04469C21104817
:103C6000FEF737FA424639460D48FEF719FA0C4876
:103C7000224631465C30FEF713FA09484FF0AA316C
:103C8000016445644FF0BB3181644FF0CC31016574
:103C90004FF0DD318165002000F004F8FEE7000000
:103CA000648E002030B5ADF20C4D04464FF48061B7
:103CB00003A8FEF70EFA184D202085F83F0085F87E
:103CC0009B003CB12846012C436DC26C09D0022CEC
:103CD0000CD00FE0104A11A15C3203A8FEF732FFAE
:103CE00008E011A103A8FEF72DFF03E016A103A829
:103CF000FEF728FF03A90BA2686CCDE90121009013
:103D000018A3054A18A1002000F098FD00F062FDFC
:103D10000DF20C4D30BD0000648E00205B45525208
:103D20004F525D20257300005B5741524E494E476C
:103D30005D20506172616D303A25642C5061726172
:103D40006D313A25640000005B504152414D5D20C9
:103D5000506172616D303A25642C506172616D3131
:103D60003A256400000000006170705F6173736544
:103D700072742E6300000000014895F691BD0000AA
:103D80006C7D002006460F4690461D4672B64046A2
:103D9000FEF7AAF9402801D9402002E04046FEF78C
:103DA000A3F904469C210D48FEF793F922464146AB
:103DB0000A48FEF775F909484FF05531016445642A
:103DC0004FF066318164C6644FF077310165476515
:103DD000C94381650220FFF765FFFEE7648E00207E
:103DE0002DE9F04106460F4690461D464046FEF737
:103DF0007BF9402801D9402002E04046FEF774F9E3
:103E000004469C210D48FEF764F9224641460B48C2
:103E1000FEF746F909484FF0113101644564490045
:103E20008164C6644FF03331016547654FF044311A
:103E30008165BDE8F0410120FFF734BF648E0020AA
:103E400070B588B006468A7ACB7A0C7B4D7BCDE97B
:103E50000632CDE90454887BC97B1CA24FF40A7357
:103E6000CDE90032CDE90210264B27A22CA1022079
:103E700000F0E4FC2CA0CDE901064FF40C71009198
:103E8000204B21A226A1032000F0D8FC2C4DA878BD
:103E9000A0B900224FF4FA612A4800F0F5FE04466A
:103EA00054B114221749173103A8FEF7F9F8ADF8F9
:103EB000104003A800F0A2F80120A8702889401C37
:103EC00028812878401C287008B070BD436F6E6E42
:103ED0006563746564207769746820746865207010
:103EE00065657220253032583A253032583A2530EF
:103EF00032583A253032583A253032583A25303245
:103F0000582E0000110621002E2E5C5372635C7542
:103F10007365725C757365725F6170702E6300000B
:103F20004E4F5F5441470000436F6E6E656374658A
:103F3000642C204C696E6B204944583A256400007B
:103F4000CC7D002018D100207FB5044601AD17A01C
:103F500013C540F23F2200921D4B1EA223A1022056
:103F600000F06CFC234D2889401E80B2288105F1A9
:103F70002E0100260E55491D0E5560B91E4800F051
:103F800015FF1D48283000F011FF1B48283800F0AD
:103F90000DFF6E70AE702878401EC0B228700428E5
:103FA00003D1BDE87F4008F0DBB97FBD446973638E
:103FB0006F6E6E65637465642028307825303258E2
:103FC000292C204C696E6B204944583A25642E00F8
:103FD0003C0621002E2E5C5372635C757365725C27
:103FE000757365725F6170702E6300004E4F5F5491
:103FF00041470000CC7D002040D100203EB5044662
:104000004FF400711A48FEF764F8207810B10128C7
:1040100019D01DE000211748A28830F831309A42AB
:1040200007D100EBC10014A143681148FEF78AFDD7
:104030000EE02E2902D0491CC9B2EEE714A10C48AB
:10404000FEF780FD04E01DA109486268FEF77AFDD5
:10405000074921A22069CDE901210090D4E902237A
:104060001EA1002000F0EAFBBDE83E4000F0B2BB1C
:10407000648C0020280221004572726F7220636FE9
:104080006465203078253034583A202573000000CC
:104090004572726F7220636F64652030782530340A
:1040A000583A204E6F20666F756E6420696E666F99
:1040B000726D6174696F6E2E0000000028257329EF
:1040C000206973206E6F742065737461626C69730C
:1040D0006865642E00000000257300006170705F49
:1040E0006572726F722E63002DE9F041014600295E
:1040F0001BD000240F4E0E4A357814E002EB04105A
:104100000F780378BB420CD14B684068034208D05B
:10411000707808B900F030FB2046BDE8F04100F0AF
:1041200053BA641CE4B2AC42E8D3BDE8F0810000AD
:104130000C8F0020787D00207CB505460E46002DB2
:1041400001D0002418E0E5207CBD05EB0410416897
:104150000091017A8DF80410417A8DF8051007213D
:104160008DF80610C26800780023694600F038F820
:104170000028E9D1641CE4B2B442E6D300207CBD3F
:1041800010B502460846052A25D2DFE802F00303EF
:1041900003111900114951F832200104090C05D00E
:1041A00022B10146104605F057F810E0E42010BD9A
:1041B00010F0FF0F02D004F0F9FE08E0E42010BD7B
:1041C00010F0FF0F05D00146002005F087F8002011
:1041D00010BDE42010BDE62010BD000060012100EC
:1041E0002DE9F05F05460C46904699462668002763
:1041F000042D11D031462846FFF7C2FF214628463C
:1042000000F05EF8002808D1032D08D04FF0100A06
:104210002807070E002448E0E620BDE8F09F4FF095
:10422000080AF7E7F0073DD03DB1012D05D0022D7A
:1042300003D0032D21D0E620EFE71E4800EBC50098
:1042400090F904B0BBF1000F15D0EFF310810120FD
:1042500080F31088184AE01942F8308002EBC00061
:10426000C0F8049081F31088584623F693F8584616
:1042700023F6AEF816E0E420CFE7EFF3108101203B
:1042800080F310880D4AE01942F8308002EBC0003C
:10429000C0F8049081F310881B2023F67BF81B20C4
:1042A00023F696F87608641CE4B25445BAD300208D
:1042B000B3E700006001210018890020288A00204F
:1042C00070B58EB005460C46474991E84D00CDE9E2
:1042D0000A02CDE90C36D1E90523086906AEC969A1
:1042E0000DC6099114224049203101A8FDF7D8FEDE
:1042F000D4B13E4906200AF027FD3D4907200AF0C7
:1043000023FD3C491B200AF01FFD3B4912200AF007
:104310001BFD35493C39A1F12C02052D61D2DFE8A6
:1043200005F0060606213900E5200EB070BD2079A3
:1043300031F810000B90607932F810000C90A079E1
:104340000D9020680A902848543850F8350021888C
:104350000904090C04D018B10AA904F0B1FF39E02E
:10436000E420E2E7207901EB4000808A0790607941
:1043700002EB4000C0880890A07909902068069060
:10438000207810F0FF0F03D006A804F019FE21E0FA
:10439000E420CAE72079031F042B01D8E720C4E7F3
:1043A000022819D001200290207901EB4000008DF5
:1043B0000390607902EB400080890490A079059019
:1043C00020680190207810F0FF0F08D001A900208C
:1043D00004F092FF0020A8E702200290E4E7E42026
:1043E000A3E7E620A1E70000B4012100C1611000AD
:1043F000BB611000B7611000B161100002460020DF
:10440000052A11D2DFE802F0030303090C00074874
:1044100050F8320089B21FF6DCBB88B21BF6C2BA74
:1044200089B2002022F66CBF7047000060012100B5
:10443000002803D00249086001207047002070471F
:10444000807D002070B505460024091F062917D27B
:10445000DFE801F003070C111315284600F0A4F85B
:104460000EE00124284600F09FF809E002242846C7
:1044700000F09AF804E0032402E0042400E005249C
:10448000034A214628461268BDE8704010470000E4
:10449000807D00202DE9F0410446204600F0AEF872
:1044A00001462E4800230826025D00F10A0700F1AC
:1044B0001405AAB1052A33D0082A2AD1092945D0E2
:1044C000082926D1295D491CC9B22955142920D3B0
:1044D0002B5506552046BDE8F0410821FFF7B2BF35
:1044E000052913D0042916D0072914D0082910D182
:1044F000295D491CC9B2295514290AD32B550655E3
:104500002046BDE8F0410821FFF79CBF3B5505213F
:104510000155BDE8F0812046BDE8F041FFF792BFAC
:1045200005290CD0395D491CC9B239553229F0D35F
:1045300003552046BDE8F0410521FFF783BF035531
:104540002046BDE8F0410621FFF77CBF0355204619
:10455000BDE8F0410921FFF775BF0000EC8F002096
:1045600070B504460D4600F00FF808B100F01AF9D6
:104570000348044A2946005D5268BDE87040104770
:10458000008F0020787D00200020064911F81020BF
:104590000AB100207047401CC0B20A28F6D301209F
:1045A000704700000A9000200349002201F8102003
:1045B00001EB4000427070470A900020014A02F867
:1045C000101070470A900020024A012102EB4000BF
:1045D000417070470A90002070B50024064D05EB2D
:1045E0004400407810B12046FFF754FF641CE4B249
:1045F0000A2CF4D370BD00000A90002070B5002191
:104600001D4B03F132051A5C002A09D0002403F186
:104610000A06012A0AD0022A12D0032A24D11FE056
:1046200015F8102002B301221A541DE015F81020CD
:104630001AB1345402221A5416E01C54042113E017
:1046400015F810204AB1325C521CD2B23254642A9E
:104650000AD3072103221A5406E005211C5403E063
:1046600015F8101011B10821084670BD1C54FFF751
:104670009BFF0921F8E70000D88F00207047000059
:104680002DE9F0410F4690460A2F04D8B8F1000FEB
:1046900001D0002323E00020BDE8F08103EB4306B6
:1046A00010F826402CB1012C03D0022C01D0032C91
:1046B00013D100EB8605124AA97AD154104910F89B
:1046C00026200C3101EB0314227069686160297A9D
:1046D0002172697A61720B49E1605B1CDBB2BB42FB
:1046E000DCD3074839460C30FFF726FD0648077033
:1046F000C0F804800548FFF79BFE0120CCE70000CE
:10470000008F0020E9402000787D002061452000D6
:104710002DE9F0410024124FDFF8488019E000260F
:1047200007EB041528786968FFF768FE10B9697A05
:10473000012902D0012802D005E0012603E0687AB1
:10474000022800D1012631462046FFF737FF641CBE
:10475000E4B298F800008442E1D3BDE8F0810000A3
:104760000C8F0020787D002010B5FFF7D1FFBDE849
:104770001040FFF731BF000010B5074A012107487C
:1047800000F070F900220A21044800F07DFA044983
:104790000120487010BD000069472000B08F002044
:1047A000787D002010B5034800F085F9024900200B
:1047B000487010BDB08F0020787D0020002806D002
:1047C000002904D0024AD269002A00D0104770475D
:1047D000408C00200248006A002800D00047704743
:1047E000408C002070B50D4616460D4C00280AD0AE
:1047F0000178032911D80121A17601461A22204609
:10480000FDF74EFC05E00020A0761A210448FDF7D4
:1048100060FCE5612662002070BD012070BD0000D3
:10482000408C0020044A1044807D084201D00120C1
:104830007047002070470000408C00202DE9FE4F9B
:10484000DDF830B0064692469946002400270197CD
:1048500002975A480178B14202D2807E00287DD169
:104860000DF13808CDF80080EFF311850220FEF736
:10487000D9F9014652480068C0F30220401C0122C9
:1048800082408818C0B280F3118801213046FFF7BA
:10489000C9FF38B14B484C4950F82620204600F05B
:1048A000A5F804461C213046FFF7BCFF00285ED067
:1048B00046A24549204600F099F8204484B20421DC
:1048C0003046FFF7AFFFF8B152463F49204600F0AF
:1048D0008DF8204484B208213046FFF7A3FF38B199
:1048E0003BA23949204600F081F8204484B20BE015
:1048F00010213046FFF796FF30B136A232492046EC
:1049000000F074F8204484B208213046FFF78AFF93
:1049100090B14A462C49204600F068F8204484B201
:1049200010213046FFF77EFF30B12BA226492046EA
:1049300000F05CF8204484B210213046FFF772FF8B
:1049400070B15B4626A2052101A8FEF7E3F801AA93
:104950001D49204600F04AF8204400E02BE084B2D4
:1049600020A21949204600F041F8204484B216489C
:10497000C4F58071204443460D9AFEF7F7F800977E
:104980004FF48071002804DB2044884201DC86B2A9
:1049900000E00E46B01C884200D9FE2612A20A4949
:1049A000304600F023F8304481B20748FFF706FF95
:1049B000E8B280F31188BDE8FE8F0000408C002033
:1049C0000CED00E0587D0020408B00202800000006
:1049D000200000003A000000204C696E653A00009B
:1049E000256C6400292000000D0A000030B5054642
:1049F000002000290CD0002A0AD006E02B18FF2B3B
:104A000006D8CC54521C401C80B21478002CF5D12E
:104A100030BD000010B5064A06214CF2010091F6A7
:104A200095FE01F0E3FABDE81040022008F09CBAC0
:104A30009E04210010B50848017800290AD10121FF
:104A40000170064892F696FDBDE81040002104482A
:104A500092F626BF10BD0000487D0020D5611000F1
:104A6000B1CE20002DE9F04104460D461746002D39
:104A700004D0012D02D00120BDE8F081CCB1C7B136
:104A8000EFF311860220FEF7BFF88046FEF7F4F838
:104A9000401C0121814008EB0100C0B280F3118865
:104AA00000206070A570E761F0B280F311880020EB
:104AB000E2E70120E0E710B50446002C0CD02046C8
:104AC00000F074F9FF2060700021A160E1602161B5
:104AD00061610020E06110BD012010BD10B586B0FD
:104AE0001C4A01211C48FFF7BDFF04464CB11422AB
:104AF0001A4901A8FDF7D4FAADF8084001A8FFF75C
:104B00007DFA1548164A01212830FFF7ABFF04460D
:104B100054B114221149143101A8FDF7C1FAADF8BE
:104B2000084001A8FFF76AFA0B480E4A012128380D
:104B3000FFF798FF0446002C0AD0142207492831B9
:104B400001A8FDF7ADFAADF8084001A8FFF756FA45
:104B500006B010BD8999200040D10020C005210079
:104B6000CDE02000E5552000F0B5DDE907450599C9
:104B700081614FF47A76A2FB061C03FB06C3002773
:104B800002FB0732C0E9021209196A41C0E90412A6
:104B900000210162F0BD00002DE9F0410446002C27
:104BA00013D0EFF311850220FEF72EF80746FEF72B
:104BB00063F8401C012606FA00F03844C0B280F3C6
:104BC00011881248002121620EE00020BDE8F0812A
:104BD000D4E90432D1E9047CDB1B72EB0C0202D273
:104BE000016A216203E00846016A0029F0D10462EB
:104BF0006670064810380168491C0160016B41600D
:104C0000E8B280F311880120E0E70000F08A00207C
:104C10002DE9F04105460024EFF311860220FDF74F
:104C2000F3FF0746FEF728F8401C01218140781861
:104C3000C0B280F31188134A106BE8B115B102F1CC
:104C4000100010E00446206A10631068401E1060D7
:104C50000CE0A94206D11168491E1160296A01625F
:104C60002C4603E00846016A0029F2D124B1002055
:104C700020626070106B5060F0B280F311882046A3
:104C8000BDE8F081E08A00202DE9FF5F82460E46F4
:104C900093464FF00008BAF1000F20D041488642F9
:104CA0001DD8E6B1EFF311870220FDF7ADFF0446F2
:104CB000FDF7E2FF401C012181406018C0B280F383
:104CC0001188504605F060FC10B19AF8010040B11F
:104CD000F8B280F311880F2004B0BDE8F09F0120E6
:104CE000FAE707F0F1F804460D464FF47A7106FB37
:104CF00001F022462B46002105F00AFBDFF8A890C0
:104D0000B0B1D9F8040048B1D0E90410091B60EB38
:104D10000500C9E9021007F051F904E00021C9F8C3
:104D20000810C9F80C104FF00108D9E9020106E09B
:104D3000D9F80400D0E90421101B61EB0501CDE98D
:104D4000020132460023CDF800B05046FFF70CFFB9
:104D50005046FFF721FF09F063FF4FF0E021D1F843
:104D600000014FF0806210F0806F01D0012000E060
:104D7000002018B9C1F88022C1F80021B8F1000F55
:104D80000AD0D9F80400D0E90431D9E90202181A8E
:104D900061EB020107F0CEF8F8B280F31188002031
:104DA0009AE70000008AB907E08A00202DE9F04167
:104DB00004460025002C39D0EFF311870220FDF7BF
:104DC00023FF0646FDF758FF401C01218140701863
:104DD000C0B280F311886078012824D1144E706825
:104DE000A0420BD107F070F8D4E90432181A62EB34
:104DF0000102C6E9020207F0E1F801252046FFF7AB
:104E000007FF5DB1706848B1D0E90421D6E902031B
:104E1000101A61EB030107F08DF804E01DB970680A
:104E200008B907F0CBF8F8B280F31188BDE8F0813B
:104E3000E08A002070B504461A4D55F82400703001
:104E400009F0EBF882B21646A2B155F8240090F8AA
:104E5000011101290ED0012180F80411802A0FD3FD
:104E600055F82400802200F18001703009F0EAF842
:104E700080260CE055F82410002081F8000170BD58
:104E800055F8240000F18001703009F0DBF855F886
:104E90002400324600F18001001D2CF6B5F90028EF
:104EA000EDD170BDC48A0020704700002DE9F843A1
:104EB00004464B4E56F82400071D062C7ED290F86F
:104EC0006C1000297AD0012978D180F801110025D1
:104ED00056F82400D0E903120A44017D01F00101D3
:104EE000C91D02EB01084168CA6FC2F38002002AA3
:104EF000FAD090F80411E1B1DFF8E8906D1C56F893
:104F00002400001D2BF6DCFD10280BD056F82400E1
:104F1000D9F800108068B1FBF0F000FB08F0B5EBA9
:104F2000C01FEBD956F82400703009F076F885B22E
:104F300026E0B0F82480C58C001D2BF6DFFB56F868
:104F4000240041F2883300EB0801491B8031001D29
:104F50002A462CF606F9E5E756F8240001227030BF
:104F6000694609F06FF856F824004068C16FC1F334
:104F700040010029FAD09DF8001001606D1EADB20D
:104F8000002DE9D156F82400703009F046F80028C9
:104F9000C8D1386841694906FCD5EFF31085012076
:104FA00080F3108856F82400703009F036F868B1A4
:104FB000EFF31081012080F3108800E00DE03868E5
:104FC000426842F08202426081F3108856F8241051
:104FD000002081F8010185F31088BDE8F883000006
:104FE000C48A0020600300202DE9F04105460F46E9
:104FF0002C78002D05D022B1062C04D3E820BDE882
:10500000F081E520FBE7384E05F1580046F8240012
:10501000D2E900310A467030194608F0E9FF291D2F
:10502000286D0AF047FC0028E9D156F82410281D05
:10503000486656F82400076056F824001822083005
:1050400005F14001FDF72CF8284856F8241000EB34
:10505000C4056868486056F82400001D04F014FA7E
:1050600056F82400001D04F02BFA204801220321E9
:10507000103807F0B1FF56F82410012081F86C00B9
:1050800056F82410002081F8000156F8241081F809
:10509000010156F8241081F8020156F8241081F815
:1050A000030113490C2009F04FFE12490D2009F0AD
:1050B0004BFE1149342009F047FE1049352009F014
:1050C00043FE0F49362009F03FFE0E49372009F014
:1050D0003BFE95F9010022F65DF995F9010022F6F3
:1050E00077F900208BE70000C48A0020F801210036
:1050F000952A2000A52A2000B52A2000C52A2000D4
:10510000D52A2000E52A20002DE9F04104461A4D59
:1051100055F82400703008F080FF82B21646002750
:105120007AB155F8240090F80111012909D0802A9C
:105130000ED300F180017030802208F083FF8026BA
:105140000BE055F8240080F800710020BDE8F081E4
:1051500000F18001703008F075FF55F8240080F8E8
:10516000047155F82400324600F18001001D2CF630
:105170000FF90028EAD1E9E7C48A002070B50628B3
:1051800001D3E82070BD0C4D55F820407CB194F857
:105190006C6066B169B162B1002684F8026155F8AD
:1051A0002000001D2BF6DDFF0028EBD170BDE520AF
:1051B00070BDE42070BD0000C48A00202DE9F843D2
:1051C00007460C46904604F1080520468EF6EEFF91
:1051D0000346344E70680021A7F58042DFF8C8C04E
:1051E000B2F5804F03D2DCF80010401A0121E2181A
:1051F000824202DD0520BDE8F8833068421EC2F31A
:105200000B02821A02F6FF72C2F3073211B1DCF808
:10521000001000E00021DFF894C0DFF89490DCF883
:1052200000C0D9F80090ACEB090C96F80990A2EBFD
:1052300009020CEBC202101A401A001FE918814241
:1052400029DD00254FF4004911231F224946284635
:10525000009572F603FA0021084603F023FC40B1E2
:1052600013231F2249460020009572F6F7F90F20FC
:10527000C1E7707A04F08AFF0028BCD112231F22F4
:105280004946009572F6EAF9424621463846BDE89D
:10529000F8430AF021BC424621463846BDE8F843AF
:1052A0000AF01ABC90470020B8350020C435002011
:1052B000BC3500203EB505461A20124B1B7899429A
:1052C0001FD8C1EBC10101EB41030F4901EB83047E
:1052D000627104EB45014989012912D100208DF842
:1052E0000000221D2189022007F090FDADF8020088
:1052F0000120ADF80400641D02946946284682F638
:105300006AFE3EBD847D002020900020002816D03B
:10531000028800F10801B2F5806F0AD0A2F5806220
:10532000013A09D0032A0AD1428A018A007900F0A1
:1053300007B8007900F058B8007900F0F9B8704764
:105340002DE9F84F0746894616464FF0000A00241B
:10535000304607F090FD00282FD0214DDFF88480E3
:1053600011E0C4EBC40000EB400005EB8000031D1E
:1053700001890522484607F064FD8246BAF1000F14
:1053800005D1641CE4B298F800008442E9D3BAF174
:10539000030F14D000208DF800009DF800000028B5
:1053A0000BD0C4EBC40000EB400055F820100029DE
:1053B00003D08DF8017068468847BDE8F88FC4EBCC
:1053C000C40000EB400005EB800000EB4700468185
:1053D000012E03D002208DF80000DEE70120FAE75D
:1053E00020900020847D00202DE9F04385B0814687
:1053F0000E78ADF8006000278DF804700024294D68
:10540000DFF8A4800EE0C4EBC40000EB400005EB25
:105410008002131D11890522304607F012FD28B9BC
:10542000641CE4B298F800108C42ECD301210228ED
:105430000ED0032817D0042823D0ADF802708DF8C1
:1054400004106946484682F6D2FD05B0BDE8F083F7
:10545000ADF80210C4EBC40000EB400005EB800087
:10546000401D0290EDE70220ADF80200C4EBC4003D
:1054700000EB400005EB800000EB49000A30029091
:10548000DFE70720ADF80200C4EBC40000EB4000EA
:1054900005EB80011E3103A807F0F7FC03A802907A
:1054A000CFE7000020900020847D002070B50646E4
:1054B0000D460020002E03D0012D03D9012070BD20
:1054C000022070BD002426E0C4EBC40000EB4001C4
:1054D000134806EBC40200EB810006CAC0E90012C3
:1054E0000021018100F1080282620E4AC262021D9F
:1054F0000263052280F8342080F8521080F853109F
:105500000849891C81632830074900F041FB0028C5
:10551000D7D1641CE4B2AC42D6D304490D7070BD3F
:1055200020900020980321000D532000847D00204E
:105530002DE9FC4706460F46B7F8008000200024FE
:10554000ADF8008000218DF80210244DDFF8909016
:105550000EE0C4EBC40000EB400005EB8000031D2F
:1055600001890522404607F06CFC28B9641CE4B2AE
:1055700099F800108C42ECD303281AD001208DF842
:1055800002009DF8020001280DD09DF8040050B1E2
:10559000C4EBC40000EB400055F8201019B18DF8A1
:1055A000056001A888476946304682F62BFFBDE8B2
:1055B000FC87B86805F09AF9C4EBC40101EB41011E
:1055C00005EB810101EB46014881012803D002204F
:1055D0008DF80400D5E70120FAE7000020900020B4
:1055E000847D0020F0B585B01249A1F13E0009F09C
:1055F00074FA104F563FF871002407F13306305DFE
:1056000090B1FA7900212046FFF754FE05461A2D85
:105610000AD04DB1142208496846FCF741FDADF8A7
:1056200004506846FEF7EAFC641CE4B2052CE6D39D
:1056300005B0F0BD227E0020C404210010B50A4C44
:105640000278A4F13303012AD97807D0022A04D1C1
:10565000407800222254491ED97010BD40780122A2
:105660002254491CD97010BDFF7D002009480068F4
:1056700000280DD090F82E10012909D190F83000A3
:10568000FF2805D24FF03041086840F08060086084
:1056900070470000400C002010B586B004466846F4
:1056A0006EF640FF9DE80E0003A80EC00B4A891C51
:1056B00021F07041516010466FF622F907486FF6ED
:1056C00093F9207F002806D1054991F80101054A88
:1056D00001EB0010426006B010BD00008C290020D4
:1056E000A02900209DBD200002F032BC10B58CB076
:1056F00008A809F0A3FDBDF8221009989DF8212003
:10570000CDE904109DF8203028A04FF42371CDE995
:105710000232CDE900102F4B2FA235A10220FFF756
:105720008DF80AA87DF664F9044654B1142229497B
:105730000F3103A8FCF7B4FCADF8104003A8FEF746
:105740005DFC9DF828209DF829109DF82A009DF801
:105750002B30CDE90612CDE904309DF82C009DF8E0
:105760002D1025A240F29123CDE90032CDE902109F
:10577000184B19A21EA10220FFF760F829A04FF4D0
:105780002671CDE90010134B13A219A10220FFF7D7
:1057900055F809F043F909F0AFF902F055F806F0B1
:1057A000DFFDFFF79BF90CB010BD0000476F6F6481
:1057B000697820424C452053444B205625642E25C1
:1057C000642E25642028636F6D6D69742025782907
:1057D00000000000650621002E2E5C5372635C758C
:1057E0007365725C757365725F6170702E63000023
:1057F0004E4F5F54414700004C6F63616C20426F15
:1058000061726420253032583A253032583A2530BA
:1058100032583A253032583A253032583A2530320B
:10582000582E000048656172742052617465206DC5
:10583000756C7469206C696E6B206578616D706C35
:105840006520737461727465642E000000207047D7
:105850000020704710B508F0E3FC07F045FD09F0A3
:105860007BFA0AF0D1F806F0CBF904F099FE08F0C3
:105870008FFE08F095FE04F059F8BDE8104008F0DE
:10588000C1BC00002DE9F0413D4C6FF00200C4F8AE
:1058900098003C490125280608603B490020086023
:1058A000394A1C32106840F002001060106840F065
:1058B00001001060106820F0020010600B1F1868D3
:1058C00040F001001860186820F0020018602E48AF
:1058D00034380168C1F300410029FAD12A4940F265
:1058E000AA2638390F6866F301070F600E6826F0A4
:1058F0000C0646F008060E600E6826F0C00646F05C
:1059000080060E60204940F2FF3740390E6867F389
:1059100001060E600E6826F00C0646F00C060E60BE
:105920000E6826F0C00646F0C0060E6005600168ED
:10593000C1F300410029FAD1106820F00400106082
:10594000186820F004001860106840F0040010602F
:10595000186840F004001860012009F07EFA04F590
:105960002074206820F040002060206820F01000A3
:105970002060206820F020002060BDE8F081000059
:1059800000A0004084E200E0C4A4004010B505F08F
:1059900031FA05F0DDF901F0E7FE05F0C9F9BDE8DF
:1059A000104005F04FBE00000F49086820F00400C9
:1059B00008600D482030026822F0040202600A6884
:1059C00042F002020A600A6822F001020A600168DD
:1059D00041F001010160016841F0020101600168CC
:1059E00021F0010101607047C0A4004070B509F0CA
:1059F0000BFC40F21A4120B140F24C4009F078FA19
:105A000003E040F22E4009F073FA0D4CA07850B13B
:105A1000E08809F07DFA0546208909F079FA2946DF
:105A200009F0B8FB05E04FF461714FF47A7009F0AA
:105A3000B1FBBDE8704002484A3007F0EDB8000005
:105A40009480002010B50446002C0CD0204600F0B5
:105A5000FBF8002807D104494968002903D02046F3
:105A6000BDE81040084710BD247F00203EB5044625
:105A700040F201322088A0F2013190423DD019DC81
:105A8000B0F5807F21D0A0F50070073821D0012823
:105A90000FD106F065FC207A00280AD11EA040F242
:105AA0007321CDE90010224B22A228A10320FEF78A
:105AB000C5FE3EBD012928D00529FAD1207903B0C1
:105AC0000121BDE830407DF65BBEBDE83E40FFF7FA
:105AD0000DBE608860B11FA140F26B22CDE90021AC
:105AE0000290134B13A219A10320FEF7A7FE3EBD9F
:105AF0002079BDE83E40FEF761B8207903B004F19B
:105B00000801BDE83040FEF79BB9217A207903B047
:105B1000BDE83040FEF718BA416476657274697367
:105B2000696E672074696D656F75742E00000000E2
:105B3000550621002E2E5C5372635C757365725C92
:105B4000757365725F6170702E6300004E4F5F5415
:105B500041470000416476657274696E6720737412
:105B60006172746564206661696C656428305825CB
:105B7000303258292E000000044A52F8200050F814
:105B80004B2F0A608088888070470000141900201D
:105B900070B504460E46002C05D00F4886F604FA70
:105BA000054615B113E0022070BD142094F696F856
:105BB000014671B10C6120680088C880CE60074A38
:105BC00010780871401C1070101D04F094FE2846D7
:105BD00070BD102070BD0000F40621001080002070
:105BE00000B5AFB0094901200870FF22B82101A813
:105BF000FCF768FA4FF48070ADF804000020ADF8AF
:105C0000060001A8FFF71EFF2FB000BD247F002073
:105C100000214FF03040C1608161C0F8D011C11740
:105C200041610162C0F8D81103496FF480600860D7
:105C30000220FCF7B1BF000084A000400149002011
:105C400001F058B9F5AE200010B50446002C22D062
:105C50000021228840F20253A2F202509A4279D0E7
:105C600033DC40F20643A2F206409A425DD01BDCD0
:105C700040F20243A2F202409A424ED00DDCA2F55D
:105C80004072013A3DD0012A3BD0FF2A41D0B2F503
:105C9000807F55D13FE0002010BD01283FD0022871
:105CA0003FD003284CD13EE0042846D006DC012832
:105CB0003DD002283DD0032842D13CE005283ED00B
:105CC000FA2842D0FB283BD144E0082847D007DC23
:105CD000082835D2DFE800F0343E3E3E3E3E3E43EB
:105CE0000C283CD006DC092839D00A2837D00B28EC
:105CF00026D134E00D2832D00E2830D0FF281FD115
:105D000032E0204602F06EFD204602F0F7FA002055
:105D100010BD218914E0218912E0218910E06189F8
:105D20000EE0218A0CE021890AE0618908E0A1895E
:105D300006E0618904E0A18902E0218A00E061892E
:105D40002046BDE8104002F01BBE2046BDE81040D2
:105D500002F0C4BC2046BDE8104002F02BBC204637
:105D6000BDE8104002F024BB204602F01BFA0020E0
:105D700010BD000070B50446002C1CD00225114E49
:105D8000F079844210D0304690F90610ACB103206F
:105D9000C91CB1710C490A6800EB92030A6863F3ED
:105DA00089020A6008F0CEF9F4710849086C65F3BD
:105DB0008710086470BD0025E1E76FF00200C91E7E
:105DC000B171E7E724820020201101B0002001B06A
:105DD0002DE9F04105460E4614461F46204600F0C8
:105DE00033F83B46224631462846BDE8F04184F66A
:105DF000DDBE2DE9F04105460E4614461F462046FD
:105E000000F022F83B46224631462846BDE8F041E4
:105E100085F602B92DE9F04105460E4614461F46A7
:105E2000204600F011F83B46224631462846BDE8A0
:105E3000F04185F659B9000002490878FF220A703E
:105E4000704700007A82002010B5C0B284F68AF94B
:105E500001491438087010BD7A82002010B5132152
:105E60000A4807F0D7F805210848983007F0D8F815
:105E700001210648083807F0C7F8FFF7EBFCFFF7E9
:105E800085FDBDE81040FFF72FBC00000C78002016
:105E900030B58568027B002D02D0002001210CE086
:105EA000104630BDCB0801F00704EB5CE340DB0794
:105EB00001D0401CC0B2491CC9B28A42F2D830BDE0
:105EC00000230849496808E00A89824204D84A89BF
:105ED000824201D3CB6802E009680029F4D1184658
:105EE000704700001080002001460548406803E02C
:105EF00002798A4202D000680028F9D17047000078
:105F000010800020F0B5AFB0204E7078FFF7ECFFA6
:105F1000044620000AD02169E088096808802069C9
:105F200082F6B2F8054600271DB124E00C202FB000
:105F3000F0BD2069FFF7ACFF0146206902681288B6
:105F400022810068008808446081E06898B1FF22DF
:105F5000B82101A8FCF7B6F840F20C40ADF80400F7
:105F6000ADF806702089ADF80C006089ADF80E0020
:105F7000E16801A888477078401CC0B27070317821
:105F8000884200D17770E8B2D1E70000108000208D
:105F900010B5084A1378002B01D00F2010BD31B185
:105FA00050600448083000F007F8002010BD0220BF
:105FB00010BD0000247F002070B504460D46FFF799
:105FC0003DFE0849012008F0BFFE0749022008F005
:105FD000BBFEFFF743FF29462046BDE8704086F62A
:105FE00069B900009D1708003D16080010B500F0C3
:105FF000ADF800F06DF8BDE8104000F08BB800007F
:1060000010B51248016821F0070141F00401016058
:106010000A2009F6FBFA0D488438016821F48071E2
:1060200001600121002024F697FD01201AF636FBBD
:1060300007490220087008F003FE0649322008F0E4
:1060400083FEBDE810403220FCF7D1BD90A800408F
:1060500094820020EF21200010B519480068C0F399
:106060000B0017490831096821F07F41401C00EE00
:10607000100ADFED140AB8EE400A60EE200A00EEC6
:10608000101A1149B8EE400A80EE801AB6EE000AE6
:1060900031EE000ABCEEC00A10EE100A486006F0AD
:1060A0007FFD09F0E7F80948016841F4807101605B
:1060B00006488430016821F00701016010BD00002E
:1060C00004E400400024F44B948200200CA800401B
:1060D00000B587B003218DF804100220029005223C
:1060E0008DF80C2001208DF80D0000238DF80E3066
:1060F0008DF8101005908DF818208DF819008DF886
:106100001A00034A022101A8FEF7BAFA07B000BD3F
:106110007D4620007CB51020009002248DF80440BC
:106120008DF8054007258DF8065069460420FEF7D6
:10613000C7F8402000908DF804408DF805408DF898
:10614000065069460420FEF7BBF87CBD00B587B059
:1061500000F01EF803208DF800001D208DF81600B9
:1061600001208DF817008DF818008DF81900044AE9
:1061700004496846FEF736FBFDF7FEFD07B000BD9B
:1061800089612000F56120000320FEF78FBE00002A
:106190001CB5144800904FF480600190124803220F
:1061A00002704FF4E1310164426400218164C164F2
:1061B0000165012343650174202444614274037620
:1061C0000171102383604271017308494163816347
:1061D000022180F83C1080F83D206A460449FEF711
:1061E00003FF1CBDB8830020B88700200090014049
:1061F000A94E20000A4601464FF47A730320FEF7A9
:10620000BDBF0A2804D840F6641101EB4000704776
:10621000242804D840F6661101EB40007047252879
:1062200004D0262805D04FF41B60704740F662105A
:10623000704740F67A107047052110F1190F01DC04
:10624000022110E000F114020F2A01D803210AE014
:106250000F2801D8042106E0A0F11402192A02D95E
:1062600032280CDB062106480268C2F303328A4258
:1062700005D0026822F4704242EA013101607047A1
:1062800014A8004010B50021084624F665FC012042
:106290001AF6E4F90248816821F48071816010BD2A
:1062A00000A0004010B514480068C0F300000028AA
:1062B00007D0114808380068C0F3000008B108F0A2
:1062C00017FD0E480068C0F3000038B10B480838CD
:1062D0000068C0F3000008B100F0EAFC08F096FC8A
:1062E000002807D003F06CFC002803D0BDE8104064
:1062F000FFF7C8BF10BD000008E4004008E50040FB
:1063000010B508F015FD00F07FFC10BD10B502F0CF
:1063100063FE06F073F906F057FEBDE8104000F08A
:106320009BB800002DE9FC4104468846164D4FF607
:10633000FF76164F12E02968082201EB003069460B
:1063400086F668FA082802D01020BDE8FC81BDF866
:106350000000B04208D12078401C20702078797A63
:106360008842E8D30020F0E709489DF80010C1708A
:10637000BDF8021081809DF8011088F80010217886
:1063800041700020E1E70000BC350020904700206C
:10639000C835002010B51248016821F000410160A5
:1063A0000F23011D0A6863F31F720A600A6822F452
:1063B000E07242F4C0720A60016841F0004101607D
:1063C0000848016841F0010101600749312008F0E7
:1063D000BBFC06494FF40030C1F8000110BD0000BD
:1063E00004A9004088E200408529200004E000E084
:1063F000F8B5EFF31085012080F310880720009096
:106400006846FCF70BFB0220FCF710FB322009F674
:10641000FDF80B4C206840F002002060094E7089A6
:1064200009F6F4F8206820F002002060B08909F62F
:10643000EDF89DF80000FCF7F9FA85F31088F8BD37
:1064400004A90040F880002008B500906A460121A8
:10645000092083F6CDFD08BD024901480860704758
:1064600071711000CC050020002809D00188B1F519
:10647000806F05D1027900F10801104600F002B8E2
:106480007047000070B586B006460D883B4C13225D
:106490002346B4F84410284606F0D3FCADF80C505F
:1064A00000218DF81010801E11285CD2DFE800F06A
:1064B000095B0F5B155B225B1B5B285B2F5B355B0E
:1064C0003C000820ADF80E00606B059050E0207B8A
:1064D000ADF80E00206905904AE0207DADF80E0071
:1064E000A069059044E094F82400ADF80E00A06A7D
:1064F00005903DE0207FADF80E00206A059037E062
:1065000094F82C00ADF80E00206B059030E0207957
:10651000ADF80E00A06805902AE094F83C00ADF8B4
:106520000E00A06B059023E0206C01788DF804101C
:1065300081788DF805104188090A8DF806100179D7
:106540008DF807108188090A8DF8081081798DF877
:106550000910C088000A8DF80A000720ADF80E0067
:1065600001A8059004E0ADF80E1001208DF8100090
:1065700003A9304681F63BFD06B070BD7490002043
:1065800010B500281DD0014644220F48FBF788FDB6
:106590000D480021A0F8441000F1440282640B4A27
:1065A000C2640065132200F8542F8177C177074930
:1065B000891C41600448BDE8104005494830FFF798
:1065C000E7BA022010BD000074900020C203210031
:1065D000696420000249014808607047316D10006D
:1065E000440D002010B593F6A9FA002800D0FEE76C
:1065F00010BD00000148408B70470000744500202A
:1066000000B585B000210191029103910491124AD5
:10661000537E127E1B0243EA00401043009001911A
:106620000291039104910120029001A802F01AFD49
:1066300001A802F021FD01236A464A2101A802F0C7
:1066400075FD0F23044A442101A81CF6BBFC01A8D8
:1066500002F008FD05B000BD7445002070B5064687
:106660000C4615466FF4004010EAC43F05D040F2D6
:106670004D420AA10FA001F651FBE80B05D040F2F4
:106680004E4206A11AA001F649FB94204643274832
:1066900045EAC4313044A0F8661170BD72665F6788
:1066A00064785F62616C695F62315F7061746368B6
:1066B0002E63000028282875696E7431365F7429AE
:1066C000727877696465203C3C203135292026208A
:1066D0007E282875696E7431365F742930783030C1
:1066E0003030383030302929203D3D203000000046
:1066F00028282875696E7431365F74297278776935
:106700006E737A203C3C2030292026207E28287574
:10671000696E7431365F74293078303030303746E6
:1067200046462929203D3D2030000000008000B071
:10673000024928220248FBF7B3BC000014082100DC
:10674000008100B000B500F00BF85DF804EB03F039
:10675000C7BA000001480078704700000CD700203D
:1067600030B5084C012525706060E2602361A160AE
:1067700005488068884201D2081A00E0401A60612A
:1067800030BD00000CD70020B082002010B503F00F
:1067900081FA044618210548FBF79BFC034A0021B7
:1067A00011702046BDE8104000F046B90CD700201B
:1067B000F0B404460E462C482C4FB96805780262A6
:1067C00044628C4201D9631A00E00B1BFF689F42B0
:1067D00006D3134632462146F0BC0020FFF7B2BF75
:1067E00087699F4201D98361C261012D0AD0022DC0
:1067F00027D0032D36D1134632462146F0BC002067
:10680000FFF7A0BF44618C4203D90169491EC160F2
:1068100002E00169491C8160D0E90212914209D26B
:106820001144490801610121017001693046F0BC41
:1068300000F01EB80221017081683046F0BC00F003
:1068400017B8C169914206D1134632462146F0BCC1
:106850000020FFF777BF03210170C1693046F0BC0B
:1068600000F006B8F0BC7047B4D60020B08200201B
:10687000054A936A5B1C93628AB2C1B20348044B17
:10688000406803F0ABB90000B4D60020B08200200D
:10689000B167200070B505460D4C2C212046FBF752
:1068A00018FC0020A06040F2FF10E060FF2222618F
:1068B0004FF0FF30A061A06A401CA0620120207050
:1068C0000448E9B2044B4068BDE8704003F086B963
:1068D000B4D60020B0820020B16720002DE9F84333
:1068E00007460D4690462E4C207801280BD00228F2
:1068F00013D00820E06101B043462A463946BDE87E
:10690000F043FFF71FBFE76040F2FF112161284607
:10691000BDE8F843022200F079B8002600966761CE
:10692000684600F03FF870B1012810D002281FD04F
:1069300003282DD00720E06143462A463946FFF759
:1069400001FFBDE8F8832846FFF7A4FFF9E70F2D04
:1069500006D23146A6600122681C00F057F8F0E725
:106960000520E06143462A463946FFF7EBFEE8E79B
:1069700035B1A66001220021681E00F047F8E0E76B
:106980000620E06143462A463946FFF7DBFED8E79A
:106990000098E06143462A463946FFF7D3FED0E728
:1069A00094D6002010B5174B17490A698968154C11
:1069B000DB6864698B4203D98C4201D9022010BD87
:1069C0008B4203D28C4201D2012010BD8B4201D9EF
:1069D0005B1A00E0CB1A8C4201D9611A00E0091B56
:1069E000934203D3914201D3002010BD934201D2C0
:1069F000022010BD914201D2012010BD0221016090
:106A0000032010BD94D60020B082002030B4074B84
:106A10009C69641C9C6158601A708AB2C1B20448B7
:106A2000044B406830BC03F0D9B8000094D6002075
:106A3000B0820020DD68200070B50546064C20219C
:106A40002046FBF746FB0021A1602846BDE87040C8
:106A50000122FFF7DBBF000094D60020F8B50E46F8
:106A60001F4C00250095E169491CE1616660A26048
:106A7000E1682161E0601B498B68834201D2C01A42
:106A800000E0181A6169814201D96061A26168461B
:106A900000F02AF858B101280ED0022814D003289B
:106AA00018D00098A062204600F0BFF8F8BDA5629B
:106AB000204600F0BAF8F8BD012084F820003046E6
:106AC000A16900F077F8F8BDA1683046491C00F0D4
:106AD00071F8F8BDA1683046491E00F06BF8F8BDAA
:106AE000E0D60020B08200202DE9F0432F4A304F3D
:106AF000B96800250026D3688B4201D95C1A00E0F2
:106B0000CC1AFF68A74202D30020BDE8F083D2F878
:106B10002480B8F1010F10D092F82040012C0ED043
:106B2000224CD2F81CC04FF00109A769A468C445E3
:106B30000BD3A74205D10020E7E70020E5E70020BE
:106B4000E3E782F820900120DFE7BCF1010F11D9C3
:106B5000D2F810C08C4501D98B4203D38C4509D2A1
:106B60008B4207D9A74201D10020CEE782F82090BE
:106B70000120CAE78B4201D9012600E0012545B179
:106B8000B4F5FF7F03D9092101600420BDE702208D
:106B9000BBE736B10CB10320B7E70A21016004203E
:106BA000B3E70B2101600420AFE70000E0D600202E
:106BB000B08200208AB2C1B20248034B406803F0A1
:106BC0000DB80000B08200205D6A200070B5044658
:106BD0000E4615462C210948FBF77BFA074B00218E
:106BE00083F82010491E59615C620548AAB2F1B2CF
:106BF0004068BDE87040034B02F0F0BFE0D60020D3
:106C0000B08200205D6A200010B502F0C9FF0028A4
:106C10000AD0FFF79FFD18B1BDE8104000F028B87A
:106C2000BDE81040FFF7B2BD10BD00B500F004F89C
:106C30005DF804EB03F054B80B4901220A71826A33
:106C40008A60C269CA60C2680A6142684A61826831
:106C50008A61064AC0689268904201D9801A00E0B1
:106C6000101AC8617047000024D70020B0820020AD
:106C70002DE9F04103F00EF8074603F01DF88046B9
:106C8000094C26680948456920212046FBF721FA6E
:106C9000761C266000202071424639462846BDE811
:106CA000F041FFF793BF000024D70020B0820020FE
:106CB00010B50E4C2069401C206103F017F8E0600D
:106CC00002F0E8FF606002F0F7FFA060084A0021D0
:106CD00011606161E3692BB182B22179E068BDE89E
:106CE00010401847BDE8104002F0FABF74D60020EB
:106CF00000E5004005490448086006490448086169
:106D0000054905200870704799562000380D00206D
:106D10006D5620008C290020898200202DE9FC413D
:106D2000164804680834164E3078002802D0002037
:106D30008FF61AFA134D4FF6FF7708226946204660
:106D40008FF61CFABDF80000B84211D080B1BDF832
:106D500002008DF62BFABDF802100830084481B20B
:106D600020468DF6FFFC044628688442E5D32C6853
:106D700030788FF6F9F92046BDE8FC81BC3500205B
:106D8000B5350020C435002010B50021084B5A68E5
:106D90001B8809E052F83140844203D102EBC10064
:106DA000406810BD491C89B29942F3D310BD000060
:106DB0003C80002010B50021084B5A695B8809E02F
:106DC00052F83140844203D102EBC100406810BD4B
:106DD000491C89B29942F3D310BD000044800020C1
:106DE00010B50021084B5A681B8809E052F8314061
:106DF000844203D102EBC100406810BD491C89B236
:106E00009942F3D310BD0000248000200349095C9F
:106E1000002902D0002104F001B9704768D6002093
:106E200008B51A48016821F070010160016821F07D
:106E3000070141F00401016015490978002909D0D2
:106E4000124984390A6842F480720A60016821F0AC
:106E500007010160012005F0DFF90020FCF7A4FE26
:106E600005F040FD80B100208DF80000A3208DF8D2
:106E7000010002208DF8020068468FF659FF05F0E8
:106E8000C9FB05F06DFD08BDFEE7000090A80040BD
:106E90000881002070B5044600BFFBF7FDFE0546E3
:106EA0000120FCF707F80648047024B94822054978
:106EB0000548FBF7F5F82846FBF7FCFF00BF70BD5F
:106EC000487E0020D8D10020002000E010B50748FF
:106ED00040680749486006480830402203490831A5
:106EE000FBF7DEF803200249086010BD90D10020B6
:106EF000002000E07047000070B500BFFBF7CCFE3B
:106F000005460120FBF7D6FF0948047834B948222A
:106F100008490948FBF7C4F8FFF7D8FF01200449E6
:106F200008702846FBF7C6FF00BF204670BD000072
:106F3000487E0020002000E0D8D1002013B50121B8
:106F40006846FDF73BFC01201CBD00002DE9F04325
:106F500087B00C4607276278A178CDE9037200203C
:106F6000CDE9050121784FF00308CDE900800291B9
:106F7000EE230922102170F671FB60780126DFF8FC
:106F8000F890052530B1012834D0022846D00328D6
:106F90006ED157E0207888F689FDC0EBC00109EB7F
:106FA00081014D72A278452A09D1CA681278022A55
:106FB00016D091F82020022A01D081F8206091F8A3
:106FC0002020012A03D0022A01D081F8208091F8E4
:106FD0002020022A4CD0C9680978022905D101E095
:106FE0004F72ECE7A178452942D0244A002112686B
:106FF00090473DE089F89950A078452805D199F847
:107000009C00022801D089F89C6099F89C00022815
:107010002ED01B4900200968884729E089F8A5502F
:10702000A078452805D199F8A800062801D089F84C
:10703000A86099F8A80006281AD01249002009680B
:10704000884715E0207888F69FFD09EB001181F84C
:10705000B150A278462A01D0CE2A01D181F8B3508E
:1070600091F8B310022903D0074A00211268904713
:1070700007B00020BDE8F083F4380020343400204D
:1070800038340020403400203C34002010B5AEB02D
:107090000C46FF22B8216846FBF714F840F20A209C
:1070A000ADF80000ADF802406846FEF7CBFC2EB00C
:1070B00010BD10B5AEB00446FF22B8216846FBF7FC
:1070C00001F840F20D20ADF800000020ADF80200FC
:1070D0001C22214602A8FAF7E3FF1C3409946846F3
:1070E000FEF7B0FC2EB010BD30B5AFB005460C4673
:1070F000FF22B82101A8FAF7E5FF40F20722ADF818
:107100000420ADF806408DF8085001A8FEF79AFC5F
:107110002FB030BD37B5AEB005460C46FF22B821C2
:107120006846FAF7CFFF4FF40272ADF80020ADF8D1
:1071300002408DF804509DF8C0008DF808006846A4
:10714000FEF780FC31B030BD00B5AFB0FF22B821F2
:1071500001A8FAF7B7FF4FF44170ADF80400002022
:10716000ADF8060001A8FEF76DFC2FB000BD30B5EC
:10717000AFB004460D46FF22B82101A8FAF7A2FFDE
:107180004FF44372ADF804200022ADF806208DF8CC
:107190000840B022294603A8FAF782FF01A8FEF7AB
:1071A00051FC2FB030BD10B5AEB00446FF22B8215F
:1071B0006846FAF787FF40F20331ADF80010ADF8EA
:1071C00002406846FEF73EFC2EB010BD70B5AEB072
:1071D00005460C461646FF22B8216846FAF772FFAC
:1071E00040F20131ADF80010ADF802408DF80450C6
:1071F0001222314602A8FAF753FF6846FEF722FC36
:107200002EB070BD70B5AEB006460D461446FF22D6
:10721000B8216846FAF756FF4FF44273ADF80030D4
:10722000ADF802508DF8046020680290A088ADF897
:107230000C006846FEF706FC2EB070BD2DE9F0414B
:1072400086B00C46C3F3072528467FF63DF907466E
:1072500028467FF639F90026CDE901650721CDE9F9
:10726000031002200090172309221021304670F6E7
:10727000F5F9FF2D66D03549208808806088488060
:10728000A0888880E088C880207A0872607A487276
:107290000F74D4F80A20C1F80A20E289CA812C4B65
:1072A00003EBC50216605660B4F800C023F835C081
:1072B000DFF8A08001280CD1C87B0121B1EB901F21
:1072C00007D198F81C01400703D5234841780A29C3
:1072D00031D804F10A02617A1646284691F61AFC62
:1072E000617A324628468AF6F1FD1C4C6FB10020C7
:1072F00086F6FEFA206828B1836B1BB1134A002181
:107300002846984786F63CFB1CE0032088F8A80036
:10731000D8F8AC000078012814D1002086F6E8FAED
:10732000206828B1836B1BB1084A00212846984782
:1073300086F626FB06E006700449074A0A3128460D
:1073400089F646F906B00020BDE8F08190380020AB
:10735000A2380020F438002040350020843300207B
:1073600070B5AEB006460D461446FF22B8216846F9
:10737000FAF7A8FE40F20533ADF80030ADF8025040
:107380008DF8046020680290A088ADF80C00684673
:10739000FEF758FB2EB070BD30B5AFB005460C46B9
:1073A000FF22B82101A8FAF78DFE40F20632ADF8AF
:1073B00004200022ADF806208DF8085020680390C4
:1073C0006068049001A8FEF73DFB2FB030BD30B5DA
:1073D000AFB004460D46FF22B82101A8FAF772FEAD
:1073E00040F20D32ADF804200022ADF806208DF8F1
:1073F0000840B022294603A8FAF752FE01A8FEF77A
:1074000021FB2FB030BD30B5AFB004460D46FF2292
:10741000B82101A8FAF756FE40F20622ADF8042082
:10742000ADF806400E22294603A8FAF739FE01A856
:10743000FEF708FB2FB030BD30B5AFB004460D46A7
:10744000FF22B82101A8FAF73DFE40F20B32ADF859
:1074500004200022ADF806208DF80840286803902B
:1074600001A8FEF7EFFA2FB030BD10B5AEB004465C
:10747000FF22B8216846FAF725FE40F21531ADF833
:107480000010ADF802406846FEF7DCFA2EB010BDE1
:1074900070B5AEB005460C461646FF22B8216846C8
:1074A000FAF710FE40F20233ADF80030ADF80240BA
:1074B0008DF804508DF808606846FEF7C3FA2EB0C8
:1074C00070BD0000FEB50E461C46B07800250127B1
:1074D000CDE900750290182309221021284670F684
:1074E000BDF8EFF311811C4802781C480068C0F316
:1074F0000220401C8740D019C0B280F31188C4F329
:107500000724174A02EBC400056045604FF6FF7080
:1075100022F83400C8B280F31188204691F67AFB35
:1075200020468AF645FD204691F660FA204600F096
:10753000F9F9002086F6DCF90A48006838B1C36B17
:107540002BB1B0789030C2B200212046984786F621
:1075500017FA0020FEBD000002E400E00CED00E0A0
:10756000A2380020843300202DE9F04F87B0044674
:10757000EFF311890220FBF763FB0546FBF784FB61
:10758000401C4FF0010808FA00F02844C0B280F314
:10759000118886F6F5F98246694D0727002695F889
:1075A000A500DC23CDE90170CDE903640220009041
:1075B00009221021304670F651F88DF8194095F8DF
:1075C000A5000C210D224FF0090B0A2874D2DFE828
:1075D00000F0050C9C9C9C19283C424D87F68CFCC5
:1075E00085F8A58085F8A86094E0002C09D085F87E
:1075F000A56085F8A6608DF8181006A9002086F60B
:10760000A1FA87E095F8A600A22804D087F62CFE00
:1076100085F8A5B07EE089F63BFD062085F8A5003B
:1076200078E04CB187F620FE85F8A5B0042085F8F7
:10763000A80085F8A9406DE085F8A5708DF81810B0
:1076400006A9002086F67EFA64E089F643FE08204B
:1076500085F8A5005EE0002C5CD085F8A5708DF85B
:10766000182006A9002086F66DFA53E0A4356E7046
:10767000FF2028702879A43D042807D0062812D0BE
:10768000304C012819D0032824D043E085F8A860A5
:107690008DF8181095F8A9008DF8190006A900209A
:1076A00086F650FA36E085F8A8608DF8182006A90D
:1076B000002086F647FA2DE027E085F8A860002034
:1076C00086F616F9206810B1406C00B1804786F646
:1076D00057F91FE085F8A860D5F8AC0000780128BC
:1076E00018D0002086F604F9206858B1806B48B1A4
:1076F000154800888CF690FD2168C0B2124A8B6B49
:107700000021984786F63CF904E09D220FA115A0C0
:1077100000F604FB95F8A500CDE900870290DD2373
:107720000922102100206FF699FF504686F6E0F8F6
:1077300009F0FF0080F3118807B0BDE8F08F00006A
:10774000F43800208433002090380020626C655F9C
:1077500073646B5F6761706D5F70617463682E63E3
:107760000000000030000000024901480860704736
:10777000697520004034002070B5AEB006460D4655
:107780001446FF22B8216846FAF79CFC40F20A33FF
:10779000ADF80030ADF802508DF80460206802901A
:1077A000606803906846FEF74DF92EB070BD70B565
:1077B000AEB006460D461446FF22B8216846FAF7D9
:1077C00081FC40F20E33ADF80030ADF802508DF878
:1077D00004602088ADF80800A0788DF80A0068469B
:1077E000FEF730F92EB070BD30B5AFB005460C468F
:1077F000FF22B82101A8FAF765FC4FF6FF72ADF839
:107800000420ADF8065034B1012C09D0022C0CD064
:10781000032C13D10EE04FF40070ADF804000DE01E
:1078200040F20120ADF8040008E040F20220ADF87B
:10783000040003E040F20320ADF8040001A8FEF7C5
:1078400001F92FB030BD000010B500207DF610F812
:107850000748A02181812021418100210170072258
:10786000827301224270817002488170018010BDD4
:1078700000D10020E07D002030B5AFB004460D46B9
:10788000FF22B82101A8FAF71DFC40F21132ADF831
:1078900004200022ADF806208DF808402888ADF8B5
:1078A0000C0001A8FEF7CEF82FB030BD70B5AEB019
:1078B00006460D461446FF22B8216846FAF702FC38
:1078C00040F20933ADF80030ADF802508DF8046095
:1078D00020680290606803902089ADF81000684627
:1078E000FEF7B0F82EB070BD30B5AFB005460C460F
:1078F000FF22B82101A8FAF7E5FB40F20731ADF805
:1079000004100021ADF806108DF80850206803908F
:10791000606804900834059401A8FEF793F82FB02E
:1079200030BD000070B5064600240D4D05EB041077
:1079300090F8B11007290DD1D0F8BC100A79022AAD
:1079400008D14979B14205D190F8B80010B9204664
:107950007DF646FC641CE4B2052CE7D370BD000044
:10796000F438002070B5AEB005460C461646FF222E
:10797000B8216846FAF7A6FB4FF44073ADF8003023
:10798000ADF802408DF804503088ADF80800684624
:10799000FEF758F82EB070BD30B5AFB004460D46B6
:1079A000FF22B82101A8FAF78DFB4FF6FF72ADF860
:1079B0000420ADF8064045B140F20520ADF80400C2
:1079C00001A8FEF73FF82FB030BD4FF40170ADF8BD
:1079D0000400F5E730B5AFB004460D46FF22B821EC
:1079E00001A8FAF76FFB4FF44572ADF804200022AE
:1079F000ADF806208DF8084028788DF80C0001A815
:107A0000FEF720F82FB030BD30B5AFB004460D46BC
:107A1000FF22B82101A8FAF755FB40F21232ADF867
:107A200004200022ADF806208DF8084028788DF853
:107A30000C0001A8FEF706F82FB030BD30B5AFB08E
:107A400005460C46FF22B82101A8FAF73BFB40F29D
:107A50001332ADF804200022ADF806208DF808504E
:107A600003CCCDE9030101A8FDF7ECFF2FB030BD39
:107A700070B5AEB006460D461446FF22B8216846E2
:107A8000FAF720FB40F20F33ADF80030ADF80250AA
:107A90008DF804602088ADF80800A0788DF80A0001
:107AA0006846FDF7CFFF2EB070BD30B5AFB00546CC
:107AB0000C46FF22B82101A8FAF704FB40F211227C
:107AC000ADF80420ADF8065020680390A088ADF80A
:107AD0001000A0798DF8120001A8FDF7B3FF2FB0B8
