:020000040020DA
:1020000000000820ED212000E13D200001601000CB
:10201000DF3D20005D3D2000E93E20000000000083
:10202000000000000000000000000000156010002B
:10203000DD3D200000000000E33D20000D3E2000BB
:1020400000F002F800F0C2F80AA090E8000C824408
:102050008344AAF10107DA4501D100F0B7F8AFF2E5
:10206000090EBAE80F0013F0010F18BFFB1A43F076
:1020700001031847489D0000889D00000A444FF066
:10208000000C10F8013B13F0070408BF10F8014BD7
:102090001D1108BF10F8015B641E05D010F8016B1C
:1020A000641E01F8016BF9D113F0080F1EBF10F880
:1020B000014BAD1C0C1B09D16D1E58BF01F801CBA3
:1020C000FAD505E014F8016B01F8016B6D1EF9D526
:1020D0009142D6D370470000103A24BF78C878C127
:1020E000FAD8520724BF30C830C144BF04680C601E
:1020F000704700000023002400250026103A28BF66
:1021000078C1FBD8520728BF30C148BF0B60704769
:102110006E2900F01084702900F0B581662909F05D
:10212000D384652909F0D084672909F0CD84612919
:1021300009F0CC8403681B0A28BF41F0800169299B
:1021400000F02681642900F02381752900F02081A8
:102150006F2900F01E87782900F08181E92900F0BD
:10216000B986E42900F0B686F52900F0B386EF2998
:1021700000F01B87F82900F080810368DB0928BF85
:1021800041F08001632900F02886732900F02D8634
:10219000E32901F02781F32901F02C810020704709
:1021A0001FB509F05EFC00F00BFF040000200021C9
:1021B00008F06CFE401C60600020002108F050FE1A
:1021C000E06000F03BFB1FBD10B510BDDFF80CD088
:1021D000FFF7E6FF06F07CFB01F0AEF900000820F7
:1021E00003B4FFF7F1FF03BC02F0BBF901488047DD
:1021F00001480047793E2000A98A200003F08ABFE9
:1022000058585247010000002655000000202000C9
:10221000002020007FED9247010100000000000037
:1022200000000000000000000000000000000000AE
:10223000000000000000000000000000000000009E
:102240007CB51D4616460C00009001D02044401E6F
:10225000074B7B442A4669460190304600F093FDC7
:1022600005461CB10020694600F0A0FD28467CBD53
:10227000610B00000FB4044910B503AA029800F0E6
:10228000B9FD10BC5DF814FB707D00200FB41CB5C7
:10229000084B06AA7B4469460090059800F073FD40
:1022A00004460020694600F081FD20461CBC5DF814
:1022B00014FB0000150B00000FB47CB50C0009AA3C
:1022C000009001D02044401E084B7B446946019099
:1022D000089800F058FD05461CB10020694600F042
:1022E00065FD28467CBC5DF814FB0000E90A00008F
:1022F00070B5044685690068C10601D5302600E046
:102300002026C00707D070BDD4E901213046904790
:10231000206A401C20626D1EF6D570BD70B5044663
:1023200085690078C00707D170BDD4E9012120205C
:102330009047206A401C20626D1EF6D570BD70B5B6
:102340000C460546012A05D02878800600D5EA69A2
:10235000002302E0012305E05B1C934202D2E05C13
:102360000028F9D1A869E618C01AA861286A18449B
:1023700028622846FFF7BCFF04E0D5E9012114F8E4
:10238000010B9047B442F8D32846FFF7C7FF70BD52
:102390002DE9F0410646002410687529314616A53E
:1023A00010D000F05DFA002802DA404213A507E0E1
:1023B00031688A0701D512A502E0490704D511A5A5
:1023C000012401E000F055FA00210A2206F1240759
:1023D00009E0B0FBF2FCB0FBF2F302FB1C00303072
:1023E00078541846491C0028F3D123462A46304623
:1023F000BDE8F04100F046BA000000002D000000EA
:102400002B00000020000000F0B40D4601880905F3
:1024100002D5214C7C4402E01F4C7C440E34002148
:1024200000F1240608E002F00F071209E75D42EA16
:1024300003721B097754491C52EA0307F3D102784F
:102440000023120704D5702D06D009B102231134E0
:102450002246F0BC00F016BA01231034F8E770B53C
:1024600004460D462146106800F003FA024629464C
:102470002046BDE870400023C6E7D21D22F00703C6
:10248000D3E90023C0E70368126843F02003036028
:102490000823C3610023B7E7849800002DE9F05FAB
:1024A000894604464FF0000ADFF874B1FB44C0F8D7
:1024B00020A02046E1688847002874D0252806D04F
:1024C000D4E901219047206A401C2062F1E70026F0
:1024D0005F462046E16888472028054607DB312D06
:1024E00005D2781910F8200C08B10643F1E7B007BF
:1024F00001D526F00406C4F81CA00027C4F818A0D3
:102500002A2D09D0284602F025F838B304EB8708B5
:10251000303DC8F8185019E059F8041B204604EB68
:1025200087029161E1688847012F054618D1E0696B
:10253000002820DA26F020061DE0D8F8180000EB6D
:10254000800005EB40003038C8F818002046E168EC
:102550008847054601F0FEFF0028EED1012F0AD082
:102560002E2D08D12046E16888477F1C0546022FA2
:1025700046F02006C4DBA069002803DA404246F09A
:102580000106A061F00701D026F010066C2D0BD0DB
:10259000682D09D04C2D39D06A2D35D0742D35D009
:1025A0007A2D33D016E038E0E1682F462046884780
:1025B000B842054609D16C2F26D04FF48060E168FF
:1025C000064320468847054604E06C2F1AD04FF496
:1025D000807006430DB3A5F14100192802D82035BB
:1025E00046F400664A462946204626604E46FFF7D6
:1025F0008FFD80B101280BD0F61D26F0070000F1F9
:10260000080956E74020E4E78020D8E70020D6E715
:1026100006F104094DE7284652E7206ABDE8F09F1D
:102620001498000040EA010310B59B070FD1042A5B
:102630000DD310C808C9121F9C42F8D020BA19BA8D
:10264000884201D9012010BD4FF0FF3010BD1AB1F2
:10265000D30703D0521C07E0002010BD10F8013B47
:1026600011F8014B1B1B07D110F8013B11F8014B6E
:102670001B1B01D1921EF1D1184610BD10B5431C91
:1026800002E010F8011B71B18107FAD14FF001325D
:1026900002C88C1A8C4314EAC211F9D0C01A0A0677
:1026A00003D0C01E10BDC01A10BD0A0401D0801E88
:1026B00010BD0902FCD0401E10BD032A40F230803C
:1026C00010F0030C00F0158011F8013BBCF1020F73
:1026D000624498BF11F801CB00F8013B38BF11F8F4
:1026E000013BA2F1040298BF00F801CB38BF00F80B
:1026F000013B11F0030300F02580083AC0F0088088
:1027000051F8043B083A51F804CBA0E80810F5E76B
:10271000121D5CBF51F8043B40F8043BAFF300804E
:10272000D20724BF11F8013B11F801CB48BF11F8C3
:10273000012B24BF00F8013B00F801CB48BF00F893
:10274000012B704710B5203AC0F00B80B1E818504B
:10275000203AA0E81850B1E81850A0E81850BFF48B
:10276000F5AF5FEA027C24BFB1E81850A0E818502A
:1027700044BF18C918C0BDE810405FEA827C24BF7E
:1027800051F8043B40F8043B08BF7047D20728BF0C
:1027900031F8023B48BF11F8012B28BF20F8023B5B
:1027A00048BF00F8012B70474FF000020429C0F029
:1027B000128010F0030C00F01B80CCF1040CBCF173
:1027C000020F18BF00F8012BA8BF20F8022BA1EBC5
:1027D0000C0100F00DB85FEAC17C24BF00F8012BAA
:1027E00000F8012B48BF00F8012B70474FF00002A2
:1027F00000B5134694469646203922BFA0E80C50F7
:10280000A0E80C50B1F12001BFF4F7AF090728BFD1
:10281000A0E80C5048BF0CC05DF804EB890028BF4D
:1028200040F8042B08BF704748BF20F8022B11F076
:10283000804F18BF00F8012B7047000070B5064CA0
:102840007C44064D7D4403E0206820448047241DDD
:10285000AC42F9D170BD0000E4960000E49600009F
:1028600009684A0501D540B27047C905FCD500B2D8
:10287000704709684A0501D5C0B27047C905FCD543
:1028800080B270472DE9F0470D46994692460446BE
:1028900000F124080168880604D5E06921F01001E0
:1028A000216000E00120A84201DD471B00E0002775
:1028B000A1697A1902EB0900081AA0612078C00604
:1028C00002D42046FFF714FD002608E0D4E90121D8
:1028D0001AF806009047206A401C761C20624E457C
:1028E000F4DB2078C0060AD52046FFF701FD06E09C
:1028F000D4E9012130209047206A401C2062381E14
:10290000A7F10107F4DC07E0D4E9012118F805007C
:102910009047206A401C2062281EA5F10105F3DCC7
:102920002046FFF7FBFC2078000602D50220BDE818
:10293000F0870120FBE711680268006A530501D5A2
:1029400008700AE0D30501D5088006E0130603D518
:10295000C217C1E9000200E008600120704770471B
:102960002DE9FF4F0C461E464FF0FF378BB0D2E9E2
:102970000001DDF860800A908A46C1F30A5505B966
:102980003D46002108464FF00000BAF1000F00F468
:10299000400005DA00EB80004FF4400101EA5000EE
:1029A0004FEA9059B9F1010F00DDB9460A9850EA93
:1029B0004A000ED044F61050A5F2FF3545432F14BF
:1029C000B8F1000F1ED07542291E1EDDC9F10002AC
:1029D0001CE0B8F1010F4FF0000001D0302103E0FE
:1029E000F24305E02154401CB042FBDB304600229C
:1029F000002121540B99C1F80880C1E900200FB0D3
:102A0000BDE8F08FBD1B6D1CDEE74A4600DA694267
:102A100006A800F0F3FC06AB93E8070003AB83E8DD
:102A2000070050460A9900F0D1FD8DE80700A0F597
:102A300000501F3800900398002D0ADD42F21F015C
:102A40004A460844002303A90390684601F03AF877
:102A500009E0A0F500504A461F38002303A903905F
:102A6000684601F044F88DE807000004000C03D02C
:102A70004FF0FF30410800E01046B8F1000F03D0DE
:102A80000022009215461EE0751E05D400F09CFA47
:102A9000303262556D1EF9D5B3460122084302D08B
:102AA00000227F1C04E02078302801D100227F1E04
:102AB000002A099784D01DE0112D07DA00F084FA6E
:102AC000303262556D1C50EA0102F5D1084302D044
:102AD0000098C8B10EE00021681E05E0235C625C2E
:102AE00063542254401E491C8142F7DBAB46A81BAD
:102AF000401E0990002004F80B000B98099AC0F8BA
:102B00000880C0E9002B7AE711264FF0000857E74C
:102B10002DE9F04F88460446D21D22F0070191B0FE
:102B2000D1E90001CDE90A0101F0DFF902460B9875
:102B3000C00F01D02D2007E02068810701D52B2090
:102B400002E0202101EAC000032A099001D0072AEF
:102B500005DB03464146204600F0FAFB0BE12078F6
:102B6000800601D5E06900E00620B8F1650F8146D6
:102B700006D0B8F1660F18D0B8F1670F70D131E008
:102B80000020B9F1110F009001DB112301E009F1E0
:102B900001030AAA01A90CA8FFF7E2FEDDE90C7007
:102BA000002609F10105834647E001204B460090CD
:102BB0004FF000470AAA01A90CA8FFF7D1FEDDE9F2
:102BC0000DB00C995D46002610B909F101000D18F1
:102BD000B9EB050003D4C0F1FF3609F10105A5EBFF
:102BE00009002BE0B9F1010F01DA4FF001090020D3
:102BF000B9F1110F0090484601DD112300E00346B2
:102C00000AAA01A90CA8FFF7ABFEDDE90C704D463E
:102C100000268346207800070AD4AB4500DA5D46DB
:102C200001A8012D04DD411911F8011C302907D03C
:102C30004F4502DA17F1040F04DA012082460FE053
:102C40006D1EEEE7002F02DCED1B3E4403E0781C16
:102C5000A84200DD7D1CB81B00F1010A4FF00047BF
:102C60002078000703D4AA4501DB4FF0FF3A00218A
:102C7000B7F1004F0DF143088DF8431024D0022026
:102C80002B23002F01DA7F422D230A21021EA0F1FF
:102C9000010000DC5FB197FBF1FC97FBF1F201FB57
:102CA0001C7C17460CF1300C08F801CDEEE7A8F1BA
:102CB000010003702188090501D5452100E0652147
:102CC000A0F1010800F8011C09980FA9A1EB080761
:102CD000FF1D00B10120411901EBEA70A1693844E0
:102CE000081A401EA0612078C00602D42046FFF7D3
:102CF000FFFA099828B1D4E901219047206A401CC5
:102D000020622078C00622D52046FFF7F1FA1EE0A7
:102D1000002E04DBB34502DD01A8805D00E0302019
:102D2000D4E901219047206A401C2062761CAAF158
:102D300001005FEA000A0AD100F042F9C0680168A8
:102D4000405CD4E901219047206A401C2062281E83
:102D5000A5F10105DCDC07E0D4E9012118F8010B3D
:102D60009047206A401C2062381EA7F10107F3DC5F
:102D70002046FFF7D3FA032011B041E601694A1C4F
:102D800002610878704700B58FB0CDE901310021AC
:102D9000059105497944CDE9031011466846FFF7CE
:102DA0007DFB0FB000BD0000E5FFFFFF0A6802F8E1
:102DB000010B0A607047D1E900239A4202D2531CEA
:102DC0000B601070704710B5436913B1AFF300800A
:102DD00001E0FFF7B4FA012010BD127800F12401E0
:102DE0000A7000224A700122EDE711684FF0FF32AD
:102DF000E9E70000074B70B50D467B44FFF7C3FFC2
:102E00000446284600F06CFB10B14FF0FF3070BD57
:102E1000204670BD3B4000002DE9FF5F15468A4605
:102E20000446DFF8AC80F8440027D8E900103E469D
:102E3000CDE9001010E03AF816106A4602A800F03A
:102E400053FB411C07D02178890603D5E269391864
:102E500091420DD80744761C2078800602D5E0699F
:102E6000B84205DDAE42E6DB3AF816000028E2D1B2
:102E7000A069C01BA0612046FFF73AFAD8E900100C
:102E8000CDE90010002017E03AF818106A4602A8B1
:102E900000F02AFBB0F1FF3F81460BD000250DF179
:102EA000080B05E0D4E901211BF8050090476D1CD3
:102EB0004D45F7D308F10100B0428046E4DB206ABB
:102EC000384420622046FFF729FABDE8FF9F000042
:102ED000AE8E00002DE9F0418046D21D22F007029F
:102EE0000025D2E90002F52915A614D0011E72F1C1
:102EF000000106DA0023D0EB030063EB020211A607
:102F000008E0D8F800108B0701D50FA602E04907AA
:102F100001D50EA601251146002408F1240704E07E
:102F200000F052F830323A55641C50EA0102F7D1F1
:102F30002B46324621464046BDE8F041FFF7A2BC91
:102F4000000000002D0000002B0000002000000009
:102F500030B4002100F1240408E002F00705D20893
:102F6000303542EA4372DB086554491C52EA0305D6
:102F7000F3D10468002310A2250707D5A40600D4C6
:102F800021B1C46901230DA2641EC46130BCFFF7E6
:102F900079BC10B5044621461068FFF76AFC02466A
:102FA0002046BDE810400023D2E7D21D22F00701E1
:102FB000D1E90023CCE70000000000003000000051
:102FC000004870479898002030B5B0F10A024FEAE7
:102FD000900E71F100034EEA817EB0EB0E0061EBC2
:102FE00091014FEA101E4EEA017E10EB0E0041EBFC
:102FF00011114FEA102E4EEA016E10EB0E0041EB5C
:1030000011214FEA104E4EEA014E10EB0E0041EB3B
:103010001141401841F100014FEAD00040EA4170EF
:103020004FEAD10110EB80054FEA810444EA907425
:1030300044EB01046D1944EB0404521BA3414FF00F
:10304000000348BF0A3200D530BD401C41F10001E9
:1030500030BD00002DE9F04F04460D46D21D22F090
:10306000070089B0D0E900974846394600F03DFF97
:103070000246F80F01D02D2307E02068810701D513
:103080002B2302E0202101EAC0038DF820300BB190
:10309000012000E00020032A824601D0072A04DB39
:1030A0002946204600F054F93FE12078800601D4FB
:1030B0000D2500E0E569C7F30A560D2D49DA002118
:1030C0004FEA175B08464FF00000002F00F4400065
:1030D00007DA00EB80004FF4400100EBD07001EA0A
:1030E00060008115012901DD4FF0FF3100224FEA18
:1030F000850CBCF1180F06D31346ACF118004FF045
:103100008052C24003E04FF4801323FA0CF30CF119
:103110000C0CBCF1200F04D3ACF1200C09FA0CF01C
:1031200001E007FA0CF000294FF0004801DD18B962
:103130000FE00ED140450CD319EB02095F4121B9D4
:10314000404502D19F4329EA0209BBEB175F00D03B
:10315000761C2088000502D57B48784402E07A4836
:103160007844193808AA302302F80A30037C0AF19F
:103170000101002E0AF1020A53546A4602DC4FF0A4
:10318000300101E04FF031014FF001088DF80010DF
:1031900002D0A6F2FF3603E059EA470100D06B4E99
:1031A000002D02DC2178090704D54FF002082E21FA
:1031B0008DF80110C44600210BE0C7F303433F0123
:1031C000C35C491C6D1E02F80830052908F101088E
:1031D00001DA002DF1DC00210CE000EB1973491C31
:1031E0001B786D1E082902F808304FEA091908F10A
:1031F000010801DA002DF0DC21688B0602D516E00B
:10320000A8F10108E04505DD02EB080313F8013CD5
:10321000302BF5D0B8F1000F09DD02EB080313F8ED
:10322000013C2E2B03D1090701D4A8F10108002D80
:1032300005DD3E2102F808106D1E08F10108407CF2
:10324000002E02F8080008F1010804DA2D20764269
:1032500002F8080002E02B2002F808000A214FF4CF
:103260007A70864208F101080BDB96FBF0F33033ED
:1032700002F8083096FBF0F308F1010800FB136632
:1032800001E0642E0CDB642096FBF0F3303302F88F
:10329000083096FBF0F308F1010800FB136601E02B
:1032A0000A2E06DB96FBF1F0303002F8080008F138
:1032B000010896FBF1F001FB1060303002F80800C5
:1032C000A16908F1010808EB050202EB0A00081ADF
:1032D000A0612078C00602D42046FFF709F8216AD1
:1032E00008AE01EB0A00206204E0D4E9012116F8DF
:1032F000010B9047BAF1010AF7D22078C00602D537
:103300002046FEF7F5FF6E4609E016F8010B3E2851
:103310000FD0D4E901219047206A401C2062B8F107
:103320000108F2D22046FEF7F9FF09B00320BDE8FC
:10333000F08F206A2844206203E0D4E90121302084
:1033400090476D1EEBD3F8E7958B000002FCFFFF62
:103350002DE9F0411F46044603260168072A01F4BF
:10336000006004DB08B116A505E016A503E008B16E
:1033700015A500E015A521F010002060A069C01E71
:10338000A0610FB1401EA0612046FEF7B1FF4FB112
:10339000D4E9012138469047206A401C2062C01CB5
:1033A000206206E0206AFAE7D4E9012115F8010B52
:1033B0009047761EF8D22046FEF7B0FFBDE8F081B8
:1033C0004E414E006E616E00494E4600696E6600C9
:1033D00010B5436913B1AFF3008001E0FFF71CFDA6
:1033E000012010BD128800F1240182840022C284D1
:1033F0000122EDE711684FF0FF32E9E72DE9F047D0
:10340000814616468AB0354878440DC88DE80D00CF
:1034100032487844801C03AC0DC884E80D0041F6A6
:103420009B300844372190FBF1F290FBF1F5A5F1B8
:10343000800501FB12041B3C02D56442012000E020
:103440000020DFF898A080460027FA44AAF1BE0ABF
:103450000EE0E0070AD03246684607EB4701012339
:103460000AEB810100F043FB8DE8070064107F1C2C
:10347000002CEED1194F7F44AE3F19E0E80715D07C
:1034800007EB04100DF1180A90E80E008AE80E0010
:10349000C068F04201D1981908903246012306A96C
:1034A00003A800F024FB03AB83E807006D10641C45
:1034B000002DE3D14FF0010332466946B8F1000F09
:1034C00003A802D000F0FEFA01E000F010FBC9E909
:1034D0000001C9F808200AB0BDE8F087788900002B
:1034E000007B00F08000704770B516460C4605461C
:1034F00000F01AF8036893F80101012806D0FF2CA8
:103500000FD8185D68B101202C7070BDD3F8070189
:103510003246214603F2071303442846BDE87040B3
:1035200018474FF0FF3070BD10B5FFF749FD001D83
:1035300010BD00BF5979000010B50446AFF30080FC
:103540002046BDE81040FEF74BBE00004FF0013CA6
:1035500050F8042B51F8043B9A4221D1A2EB0C0302
:10356000934313EACC1317D150F8042B51F8043BC2
:103570009A4215D1A2EB0C03934313EACC130BD15F
:1035800050F8042B51F8043B9A4209D1A2EB0C03EA
:10359000934313EACC13DBD04FF00000704700BF19
:1035A000D01A01BAB1FA81F101F0180122FA01F042
:1035B000CB40C1F12001DBB2C0B2C01A2CFA01F33A
:1035C000D11A914311EAC311E6D170475FEA400C6A
:1035D00008BF91F0000F4FEA8C234FEAC12243EA63
:1035E00051514FEA1C5018BF00F5F0404FEA30002F
:1035F00018BF41F000415FEA6C5C00F02980BCF12B
:10360000FF3F08BF40F080407047130C06BF120414
:103610004FF0100C4FF0000C130E04BF12020CF10F
:10362000080C130F04BF12010CF1040C930F04BF1C
:1036300092000CF1020CD30F04BF52000CF1010CEC
:1036400011464FF00002A0F11F00A0EB0C007047E4
:1036500011F0004F08BF704731F000413FF4D5AF83
:103660000B0C06BF09044FF0100C4FF0000C0B0EB2
:1036700004BF09020CF1080C0B0F04BF09010CF187
:10368000040C8B0F04BF89000CF1020CCB0F04BF9C
:1036900049000CF1010CCCF12003A0EB0C0022FA44
:1036A00003F302FA0CF241EA030100F10100704752
:1036B00020F07F4C80EA030023F07F47ACEB070348
:1036C00003F57C5300F0004003F1FF032DE980492E
:1036D0004FEA154B09B44FEA144325EA0B4E24EA8E
:1036E00003480FF2042606EB132749083E785FEAE9
:1036F000320203FB0667C7F5000707FB06F64FEA31
:1037000054374FEAD64606F1020607FB066CCCF1A9
:10371000005C4FEA1C472CEA074C07FB06F40CFB45
:1037200006F504EB15464FEA961634BF00204FF01D
:1037300000404FEAD13706FB07FC4FEA1C4C0CFB5C
:103740000BF7D21B03FB0CF761EB07010CFB0EF729
:10375000B0EB074072EB17420CFB08F734BFA2EB4B
:103760000742B2EB074261EB17414FEA0C444FEAC4
:10377000910706FB07FC4FEA1C4C0CFB0BF7B0EB68
:10378000C74072EB573203FB0CF734BFA2EBC742C2
:10379000B2EBC74261EB57310CFB0EF7B0EBC70041
:1037A00072EB57720CFB08F734BFA2EBC702B2EB07
:1037B000C70261EB5771039F4FEA816141EA9211A1
:1037C00004EBCC044FEAD1374FEA826206FB07FCD8
:1037D00042EA90124FEA80604FEA1C4C0CFB0BF758
:1037E000D21B03FB0CF761EB07010CFB0EF7B0EBF0
:1037F000074072EB17420CFB08F734BFA2EB0742FD
:10380000B2EB074261EB17414FEA8C554FEA910743
:1038100004EB9C2406FB07FC4FEA1C4C0CFB0BF74B
:10382000B0EBC74072EB573203FB0CF734BFA2EB8F
:10383000C742B2EBC74261EB57310CFB0EF7B0EB5E
:10384000C70072EB57720CFB08F734BFA2EBC7023C
:10385000B2EBC70261EB577115EB4C254FEA816162
:1038600041EA92114FEA82624FEAD13742EA90125E
:1038700006FB07FC44F100044FEA80604FEA1C4C51
:103880000CFB0BF7D21B03FB0CF761EB07010CFBE6
:103890000EF7B0EB074072EB17420CFB08F734BF92
:1038A000A2EB0742B2EB074261EB174115EB1C1587
:1038B0004FEA813141EA92414FEA823242EA904234
:1038C0004FEA80304FEA0C7644F1000448EA0343A3
:1038D0004EEA0B484FF0000EB2EB080C71EB0307F9
:1038E00024BF624639464EEB0E0E4FF0000B001817
:1038F000524149414BEB0B0BB2EB080C71EB030748
:103900007BF1000B24BF624639464EEB0E0E4FF0A2
:10391000000B0018524149414BEB0B0BB2EB080C6A
:1039200071EB03077BF1000B24BF624639464EEB77
:103930000E0E51EA020718BF46F0010616EB0E768E
:1039400055F1000254F1000103D5BDE88901BDE83D
:103950000088BDE88901BDE80048B619524141EB35
:103960000101A3F10103704780807F7E7D7C7B7A1B
:103970007978777676757473727171706F6E6E6D1B
:103980006C6C6B6A6A6968686766666564646363C1
:1039900062616160605F5F5E5E5D5D5C5C5B5B5A47
:1039A0005A595958585757565655555554545353B4
:1039B00052525251515050504F4F4F4E4E4D4D4D0F
:1039C0004C4C4C4B4B4B4A4A4A494949484848475A
:1039D0004747474646464545454444444443434398
:1039E0004342424242414141002B9C4630D4770041
:1039F0002BD01CB54FEA370703B44FF010004FF03F
:103A00001001BAF1000F06D0BCF1000FDCBF40F08E
:103A1000080040F008014FF000000FBCBDE8104066
:103A20000BF1010BBBF1010F08BF5FEA170722BFC3
:103A300012F1010211F101014FF0004143F10003C5
:103A400000F0004043EA00007047F9D35708D0E780
:103A500046EA064613F1400F4FEA16461FDD13F102
:103A6000200FDFBF16430A46002120335B42BED041
:103A7000C3F1200746EA064602FA07F74FEA164660
:103A800046EA0706C3F1200722FA03F201FA07F714
:103A900021FA03F14FF0000342EA0702A7E746EAE2
:103AA000020646EA06464FEA164646EA0106BCBF4B
:103AB00046EA0646360C4FF000034FF000024FF086
:103AC000000194E72DE9804C9A46934670B491E842
:103AD000380007C831EA400C48BF34EA430C03D52C
:103AE000FFF7E6FDFFF780FFF0BCBDE8008C2DE995
:103AF000804C9A46934670B491E8380007C810F09D
:103B0000804F08BF13F0804F03D100F005F8FFF796
:103B10006BFFF0BCBDE8008C20F07F4780EA03001B
:103B200023F07F4C07EB0C03A3F57C5300F000401F
:103B3000A3F1FE0392F0000F00F0B38095F0000FA8
:103B400000F077802DE901494FEA11404FEA144611
:103B500021EA004800FB06FC24EA064708FB06F6BB
:103B600007FB08F800FB07F718EB06484CEB164C70
:103B70004FEA124B18EB07484FEA15464CEB17403B
:103B800022EA0B4E0BFB06FC25EA06470EFB06F667
:103B900007FB0EFE0BFB07F71EEB064E4CEB164C1D
:103BA0004FF000061EEB074E4CEB174B18EB0B08C3
:103BB00040F1000018EB0E0B58EB000840F100003C
:103BC0008F1A4FF000013CBFC943661B14BFB5EB11
:103BD000040C00213CBFC943F61B4FEA17444EEAD0
:103BE0008E0E27EA04454FEA1C4704FB07622CEAC5
:103BF000074C05FB07F70CFB05F604FB0CFC16EB6A
:103C0000074642EB174216EB0C4642EB1C421BEBFD
:103C1000060658EB0202414146EA9E0601D5BDE880
:103C20000189B619524141EB0101A3F10103BDE83D
:103C300001894FEA14454FEA114724EA054621EA73
:103C4000074C05FB07F406FB07F70CFB06F105FB29
:103C50000CFC11EB074144EB17444FEA124711EB00
:103C60000C4144EB1C4422EA074C05FB07F206FB1F
:103C700007F70CFB06F605FB0CFC16EB074642EBC0
:103C8000174216EB0C4642EB1C456A1854F1000132
:103C900048BF7047B619524141EB0101A3F101033E
:103CA000704795F0000F37D04FEA11424FEA1447A2
:103CB00021EA024624EA074C02FB07F106FB07F75C
:103CC0000CFB06F402FB0CFC14EB074441EB174120
:103CD0004FEA154714EB0C4441EB1C4125EA074C15
:103CE00002FB07F506FB07F70CFB06F602FB0CFCD4
:103CF00016EB074645EB174516EB0C4645EB1C4209
:103D0000121951F1000148BF7047B619524141EBF9
:103D10000101A3F1010370474FEA14454FEA11472F
:103D200024EA054621EA074C05FB07F106FB07F7E5
:103D30000CFB06F24FF0000605FB0CFC12EB0742F1
:103D400041EB174112EB0C4251EB1C4148BF70474D
:103D5000921841EB0101A3F101037047FEE710B592
:103D600002F012FB10BD000070B50320174909686E
:103D700041F38001491C164D00290CD113490C3127
:103D80000968C1F3000131B110498C39096801F0AB
:103D90000701884303D02869401C286170BD0D4C81
:103DA000206820F001002060206840F004002060BE
:103DB00009494FF40030086002F096FBE868401CA7
:103DC000E860206840F00100206070BDD4A400408D
:103DD000907E002088E2004084E200E0FEE7FEE7FB
:103DE000FEE7FEE726F6DABE05280CD2064A116881
:103DF00001F4E021B1EB004F05D0116821F4E0217E
:103E000041EA00401060704700A00040FEE700005B
:103E10000249096801F007010170704700A00040E5
:103E200070B50446072C20D2104E306800F0070011
:103E3000A04214D0032004F013FBF06820F0070523
:103E400045F00100F06000BF00BF00BF00BF20468A
:103E500004F006FB064850F824002843F0600448AC
:103E600004491C3850F82400086070BD00A00040D0
:103E700040BC2000600300200248016841F470014A
:103E80000160704788ED00E002480068001D03F003
:103E9000F7BE00002088002002484068001D03F0A3
:103EA000EFBE00002088002002488068001D03F05B
:103EB000E7BE0000208800200248C068001D03F013
:103EC000DFBE00002088002002480069001D03F0CA
:103ED000D7BE00002088002002484069001D03F082
:103EE000CFBE000020880020FEE703B40198410007
:103EF000009850EAC12018BF04204A0D18BF40F0B6
:103F0000010040F2FF72B2EB515F08BF40F00200C7
:103F1000012808BF052002B07047002809DB00F027
:103F20001F02012191404009800000F1E020C0F80B
:103F300080127047002809DB00F01F020121914028
:103F40004009800000F1E020C0F88012704700288E
:103F50000DDB00F01F02012191404009800000F1BB
:103F6000E020C0F88011BFF34F8FBFF36F8F704711
:103F7000002809DB00F01F02012191404009800068
:103F800000F1E020C0F800117047002809DB00F0C4
:103F90001F02012191404009800000F1E020C0F89B
:103FA0000011704700280FDB4109890001F1E02171
:103FB000D1F8001100F01F0201209040014201D011
:103FC000012070470020704700207047002804DB64
:103FD00000F1E02090F80004704700F00F0000F1BD
:103FE000E02090F8140D7047002804DB00F1E02079
:103FF00090F80004704700F00F0000F1E02090F806
:10400000140D7047002804DB00F1E02090F8000454
:10401000704700F00F0000F1E02090F8140D704799
:1040200002480068C0F30220704700000CED00E079
:1040300002480068C0F30220704700000CED00E069
:10404000EFF31080704700002DE9F0412DED020BD9
:104050009FED3D0B2DED028B9FED3D8BDDE9025475
:10406000C4F30A50A0F2FF36142E37DA002E18DA05
:1040700053EC102B9DED020B51EC100B06F028FFBA
:1040800053EC182B07F020FB57D2002CBCBF4FF08D
:104090000044002551DB54EA050018BF2E4C1BD10B
:1040A0004BE02E4820FA06F704EA070028431FD009
:1040B00053EC102B9DED020B51EC100B06F008FF9A
:1040C00053EC182B07F000FB37D2002C03DD4FF424
:1040D0008010F0400444BC4300252EE0332E07DC62
:1040E000A6F114004FF0FF3121FA00F73D4206D14E
:1040F0009DED020BBDEC028B02B0BDE8F08153ECEC
:10410000102B9DED020B51EC100B07F013FB53EC41
:10411000182B07F0D9FA10D2002C0DDD142E08BF91
:10412000641C09D0C6F13400012101FA00F02844D2
:10413000A84238BF641C0546BD43CDE902549DED3D
:10414000020BD7E7000000009C7500883CE4377E36
:1041500000000000000000000000F03FFFFF0F0023
:1041600080F31088704700002DE9F74F074602984A
:10417000DFF888A1DFF888814FEA500B5C46019D8B
:104180006048CAF800003F20D8F8041060F3050129
:10419000C8F80410D8F8040020F48030C8F80400EF
:1041A000DAF8000020F4700040EA0750CAF8000076
:1041B000DAF8000020F4702040EA0740CAF8000056
:1041C0000D2F05D1DAF8000040F40040CAF80000D5
:1041D0000E2F05D1DAF8000040F48040CAF8000044
:1041E000DAF8000040F40050CAF80000DAF80000E5
:1041F00020F06050CAF80000DAF8000020F00F004C
:1042000040F00300CAF80000002000F0CFF80128B9
:1042100071D1DAF8000040F08040CAF800000020B8
:1042200008E0D8F8081041F48031C8F80810401CA4
:10423000411C05D0D8F80810C1F300210029F0D1A5
:10424000072000F0B3F8012855D141E000264FF4D3
:104250007A7924E04E451ED9DAF8000020F080403B
:10426000CAF80000DAF8000040F00040CAF8000088
:10427000DAF8000020F00040CAF80000002000F04A
:1042800095F8012837D12049086A401C08620520AA
:104290000BF6BCF972E701200BF6B8F9761CD8F8DA
:1042A0000800C0F300200028D4D0D8F8080000F09F
:1042B0007F02A24200D92246002006E0D8F8001072
:1042C0002980090C69802D1D401C9042F6D3A41A48
:1042D000002CBBD10298C00708D0D8F80800C0F362
:1042E00000200028F9D0D8F800002880BDE8FE4F53
:1042F000002000F05BB8BDE8FE8F000000A8004081
:1043000000E000400A070807907E00202DE9F041F8
:10431000044615480021C0F8941001214161134D55
:10432000686A134EF06200F0010149420140C8057D
:1043300012D440F2011704E044B1641E01200BF6D0
:1043400065F9A869B84204D1012003E00020BDE866
:10435000F08100200028EFD006480068706268688D
:10436000B0620120F3E7000000D01D4200E00040F1
:10437000907E002000A8004009480A49826A4A60ED
:10438000094B426A1A60808D00F0010252420240DD
:10439000D00503D4086A20F00100086270470000CD
:1043A000907E002000E0004000A800402DE9F04190
:1043B0000546114FF868C0F30240A84202D101201F
:1043C000BDE8F081F86820F007002843F860002479
:1043D0004FF6FF76F868C0F30240A84205D00120EE
:1043E0000BF614F9641CB442F4D3B44201D100209A
:1043F000E6E70120E4E7000000E00040F0B50646F3
:104400002DED068B89B00D469FED459B202101A81F
:10441000FEF7ECF9B0EE498AF0EE698A4248C08BAB
:1044200006F0BFFF9FED411B53EC112B06F004FE7D
:1044300041EC1A0B102201A93046FFF795FE00242B
:1044400001AF04F1080037F8100006F0AAFF53ECA2
:10445000182B06F03DFD41EC180B641CE4B2082C4F
:10446000EFD351EC180B9FED330B53EC102B07F0EF
:104470002DF841EC180B0D2E02D00E2E29D046E05F
:104480009FED2E0B51EC100B06F016FD41EC190BB5
:10449000688806F086FF53EC192B07F017F841ECFB
:1044A000190B288806F07DFF53EC182B07F042F912
:1044B00053EC192B06F0C0FD9FED221B53EC112B82
:1044C00006F0BAFD53EC1A2B06F002FD41EC190B75
:1044D0001DE09FED1E0B51EC100B06F0EDFC41ECC6
:1044E000190B688806F05DFF41EC1A0BA88806F0EE
:1044F00058FF53EC182B07F01DF953EC1A2B06F05C
:104500009BFD53EC192B06F0E1FF41EC190B09B0B0
:10451000B0EE490AF0EE690ABDEC068BF0BD000072
:104520000000000000000000B04500200000000076
:1045300000005940000000000000C03F00000000E3
:104540000000004079E9263108AC5CBFB76DDBB6EE
:104550006DDB0E4030380A2801D201207047002060
:104560007047704710B501F0D9FE10BD04F04EBF82
:1045700010B58CB004462C2101A8FEF737F9A069CC
:10458000019016490198884202D0E4200CB010BD79
:10459000207F8DF808000A2003904FF4001005904A
:1045A000C012069000200790202108910421099153
:1045B0000A900B90002101A800F0A8FB084C21688C
:1045C0008887002801DAE420E0E700F08BFB21680F
:1045D0008862091D01630020D8E7000000900140B7
:1045E0005C7D00200FB41CB50B9C1C49CA6889680F
:1045F000CDE9001209218DF8041000218DF8051075
:1046000000280CD1069800909DF815008DF8060042
:104610009DF81400694600F013FD00281AD108988F
:1046200000909DF81D008DF806009DF81C0069465D
:1046300000F006FD00280DD1B4F1C05F0AD30A983E
:1046400000909DF825008DF806009DF8240069462D
:1046500000F0F6FC1CBC5DF814FB0000CCBB200095
:1046600095F6ECB870B50D4D286890F83E1001290C
:1046700012D1001D1AF6CEF8012802D008B1002090
:1046800070BDEFF31084012080F310882868001DAE
:104690001AF6A4FB84F31088012070BD5C7D002015
:1046A00070B52349234800F045F920B1BDE87040BA
:1046B00021A0FDF7DFBD1F4800F00EF920B1BDE8D5
:1046C00070402CA0FDF7D6BD4FF480713948FEF73D
:1046D0006BF839A0FDF7CEFD164C0020241F20807A
:1046E0008021344800F0A2F820880028FCD08022E5
:1046F0003849304800F08EF937A0FDF7BBFD0024A3
:10470000344D05EBC40090ED000B38A053EC102B9A
:10471000FDF7B0FD00F026FF641C802CF1D314A03F
:10472000FDF7A8FD00F0C2F8BDE8704000F09CB8AD
:1047300021492000847D00200D0A41444320696EF8
:10474000697469616C206661696C65642120506CD4
:104750006561736520636865636B207468652069B3
:104760006E70757420706172616D65746572732E00
:104770000D0A00000D0A41444320696E69746961A5
:104780006C20646D61206661696C65642120506CE9
:104790006561736520636865636B20746865206973
:1047A0006E70757420706172616D65746572732EC0
:1047B0000D0A0000789000205374617274207369B0
:1047C0006E676C652073616D706C696E672E0D0A83
:1047D0000000000078910020436F6E766572736967
:1047E0006F6E2076616C75653A0D0A0025302E33A8
:1047F000665620200000000070B504460D4629468C
:10480000204605F0E1FD2946204604F043F82946FC
:10481000204604F045FA70BD03490A6822F4C062DC
:1048200042EA40200860704704A8004010B50D4AD5
:104830001368002B0FD093F83E2062B168B161B1CC
:1048400093F83F205AB10A460146181D02F0A6FD12
:104850000028FFD110BDE92010BDE42010BDE720E5
:1048600010BD00005C7D002070B50F4D2868002849
:1048700015D090F83E1091B1002480F83E400464B9
:104880004464072004F06AFE2868001D02F0DAFC88
:10489000002805D1286890F83F0010B102E0E92017
:1048A00070BD2C60002070BD5C7D002010B5094CEF
:1048B0002068002803D090F83F10012901D0E9209A
:1048C00010BDB0F93C0000F0CDF92168002081F85E
:1048D0003F0010BD5C7D002070B500280AD00F4D50
:1048E000296849B191F83E2032B191F83F1029B1C1
:1048F000EA2070BDE52070BDE92070BDEFF31084A3
:10490000012181F31088FFF733FE18B92A680121CD
:1049100082F83F1084F3108870BD00005C7D002099
:104920000078002802D10249012008807047000069
:10493000807D00207FB504460E46002C30D0194DF6
:1049400004F138002860E06A0390D4E90412E068BA
:104950008DE8070094E80E00A06AFFF743FE0028E8
:104960001CD1286840C0182204F12001FDF7EAFE9E
:104970002868001D02F066FC00280FD12868001D81
:1049800002F09EFC002809D107220321064804F00A
:10499000CDFD2968012081F83E00002004B070BDE3
:1049A000E520FBE75C7D0020CCBB200010B50B4B65
:1049B0001C68002C0DD094F83E3053B158B151B161
:1049C0004AB113460A460146201D02F0A7FD002009
:1049D00010BDE92010BDE42010BD00005C7D00206A
:1049E00010B50B4B1C68002C0DD094F83E3053B121
:1049F00058B151B14AB113460A460146201D02F092
:104A0000EFFD002010BDE92010BDE42010BD000026
:104A10005C7D002010B50B4B1C68002C0DD094F869
:104A20003E3053B158B151B14AB113460A4601461E
:104A3000201D02F013FE002010BDE92010BDE4206F
:104A400010BD00005C7D002006460F46154672B67C
:104A50003846FDF713FE402801D9402002E03846D1
:104A6000FDF70CFE80463046FDF708FE402801D9D0
:104A7000402002E03046FDF701FE04469C2110482C
:104A8000FDF7B4FE424639460D48FDF716FE0C48C8
:104A9000224631465C30FDF710FE09484FF0AA313E
:104AA000016445644FF0BB3181644FF0CC31016546
:104AB0004FF0DD318165002000F004F8FEE70000D2
:104AC000D88F002030B5ADF20C4D04464FF4806114
:104AD00003A8FDF78BFE194D202085F83F0085F8CF
:104AE0009B003CB12846012C436DC26C09D0022CBE
:104AF0000CD00FE0114A12A15C3203A8FDF7C6FBEF
:104B000008E012A103A8FDF7C1FB03E017A103A869
:104B1000FDF7BCFB03A90CA2686CCDE90121009054
:104B200019A3064A19A1002000F050FD012C01D064
:104B300000F004FD0DF20C4D30BD0000D88F0020B8
:104B40005B4552524F525D20257300005B57415226
:104B50004E494E475D20506172616D303A25642C9C
:104B6000506172616D313A25640000005B50415222
:104B7000414D5D20506172616D303A25642C506169
:104B800072616D313A256400000000006170705F51
:104B90006173736572742E6300000000014894F61F
:104BA0007FBE0000747D002006460F4690461D46DD
:104BB00072B64046FDF762FD402801D9402002E070
:104BC0004046FDF75BFD04469C210D48FDF70EFEB7
:104BD000224641460A48FDF770FD09484FF055311D
:104BE000016445644FF066318164C6644FF07731EB
:104BF00001654765C94381650220FFF763FFFEE752
:104C0000D88F00202DE9F04106460F4690461D46FC
:104C10004046FDF733FD402801D9402002E04046E0
:104C2000FDF72CFD04469C210D48FDF7DFFD2246D3
:104C300041460B48FDF741FD09484FF01131016431
:104C4000456449008164C6644FF0333101654765AE
:104C50004FF044318165BDE8F0410120FFF732BFDC
:104C6000D88F00202DE9F0410C2802D3E820BDE8C0
:104C7000F08100EBC0001A4C00EB400614F826004F
:104C8000F0B1EFF31085012080F3108804EB86006B
:104C90000746001D02F0CAFD002004F82600FF2090
:104CA0003872002000EBC00101EB410114F8211023
:104CB000012902D0401C0C28F4D30C2802D00AE0B1
:104CC000E920D4E7002004F049FC032022F66FFB22
:104CD000232022F66CFB85F310880020C7E7000034
:104CE000808800200C2801D30020704700EBC00012
:104CF000054900EB400011F820201AB101EB8000BB
:104D0000001D704700207047808800202DE9F05F6B
:104D10000546894600244FF0FF3846464FF0010A09
:104D2000002D16D04749032004F0B4FD4649232046
:104D300004F0B0FD287970B101280CD002280AD007
:104D4000032808D0042806D0052804D04046BDE832
:104D5000F09FE520FBE7EFF31083012181F310883A
:104D60003A4F04EBC40101EB410117F8212052B185
:104D700007EB8102D5F800B0D2F804C0DC4514D1AD
:104D8000127A824211D104EBC40000EB400207EB1F
:104D90008202384692F83120022A04D026B201223B
:104DA00000F8212004E00C2402E0641C0C2CD8D371
:104DB00083F310880C2C3FD200220321244804F0F6
:104DC000B5FB04EBC40000EB400007EB800429684E
:104DD00061602879207204F10C00242205F1080199
:104DE000FDF7B0FC1B48A0631B4820641B48E06330
:104DF00000206064C4F868901949606888420AD14C
:104E00000320FFF7CFF898B9032022F6C3FA032056
:104E100022F6DEFA0CE01349884209D12320FFF77D
:104E2000C1F828B9232022F6B5FA232022F6D0FAB9
:104E3000201D02F06BFD8246BAF1000F00D04646FD
:104E4000304684E799621000C96210008088002013
:104E5000C4BB20009566200005662000B5652000D3
:104E60000090014000A001402DE9F04101460029D9
:104E70001BD000240F4E0E4A357814E002EB0410CC
:104E80000F780378BB420CD14B684068034208D0CE
:104E9000707808B900F030FB2046BDE8F04100F022
:104EA00053BA641CE4B2AC42E8D3BDE8F081000020
:104EB000E48D0020547D00207CB505460E46002D73
:104EC00001D0002418E0E5207CBD05EB041041680A
:104ED0000091017A8DF80410417A8DF805100721B0
:104EE0008DF80610C26800780023694600F038F893
:104EF0000028E9D1641CE4B2B442E6D300207CBDB2
:104F000010B502460846052A25D2DFE802F0030361
:104F100003111900114951F832200104090C05D080
:104F200022B10146104602F07BFD10E0E42010BDE6
:104F300010F0FF0F02D002F025FC08E0E42010BDC5
:104F400010F0FF0F05D00146002022F6C7F900201F
:104F500010BDE42010BDE62010BD0000FCBA20000A
:104F60002DE9F05F05460C469046994626680027D5
:104F7000042D11D031462846FFF7C2FF21462846AE
:104F800000F05EF8002808D1032D08D04FF0100A79
:104F90002807070E002448E0E620BDE8F09F4FF008
:104FA000080AF7E7F0073DD03DB1012D05D0022DED
:104FB00003D0032D21D0E620EFE71E4800EBC5000B
:104FC00090F904B0BBF1000F15D0EFF31081012070
:104FD00080F31088184AE01942F8308002EBC000D4
:104FE000C0F8049081F31088584622F6D3F9584649
:104FF00022F6EEF916E0E420CFE7EFF3108101206E
:1050000080F310880D4AE01942F8308002EBC000AE
:10501000C0F8049081F310881B2022F6BBF91B20F6
:1050200022F6D6F97608641CE4B25445BAD30020BF
:10503000B3E70000FCBA2000D0860020E087002003
:1050400070B58EB005460C46474991E84D00CDE954
:105050000A02CDE90C36D1E90523086906AEC96913
:105060000DC6099114224049203101A8FDF76AFBC1
:10507000D4B13E49062004F00DFC3D49072004F060
:1050800009FC3C491B2004F005FC3B49122004F0BC
:1050900001FC35493C39A1F12C02052D61D2DFE834
:1050A00005F0060606213900E5200EB070BD207916
:1050B00031F810000B90607932F810000C90A07954
:1050C0000D9020680A902848543850F835002188FF
:1050D0000904090C04D018B10AA902F0CBFC39E08C
:1050E000E420E2E7207901EB4000808A07906079B4
:1050F00002EB4000C0880890A079099020680690D3
:10510000207810F0FF0F03D006A802F03DFB21E04D
:10511000E420CAE72079031F042B01D8E720C4E765
:10512000022819D001200290207901EB4000008D67
:105130000390607902EB400080890490A07905908B
:1051400020680190207810F0FF0F08D001A90020FE
:1051500022F6D4F80020A8E702200290E4E7E42039
:10516000A3E7E620A1E7000050BB20003962100051
:10517000336210002F6210002962100002460020E6
:10518000052A11D2DFE802F0030303090C000748E7
:1051900050F8320089B21EF61CBD88B21AF602BC65
:1051A00089B2002022F6ACB870470000FCBA20009B
:1051B000002803D002490860012070470020704792
:1051C0004C7D002070B505460024091F062917D222
:1051D000DFE801F003070C111315284600F0A4F8CE
:1051E0000EE00124284600F09FF809E0022428463A
:1051F00000F09AF804E0032402E0042400E005240F
:10520000034A214628461268BDE870401047000056
:105210004C7D00202DE9F0410446204600F0AEF818
:1052200001462E4800230826025D00F10A0700F11E
:105230001405AAB1052A33D0082A2AD1092945D054
:10524000082926D1295D491CC9B22955142920D322
:105250002B5506552046BDE8F0410821FFF7B2BFA7
:10526000052913D0042916D0072914D0082910D1F4
:10527000295D491CC9B2295514290AD32B55065555
:105280002046BDE8F0410821FFF79CBF3B550521B2
:105290000155BDE8F0812046BDE8F041FFF792BF1F
:1052A00005290CD0395D491CC9B239553229F0D3D2
:1052B00003552046BDE8F0410521FFF783BF0355A4
:1052C0002046BDE8F0410621FFF77CBF035520468C
:1052D000BDE8F0410921FFF775BF00004C880020B0
:1052E00070B504460D4600F00FF808B100F01AF949
:1052F0000348044A2946005D5268BDE870401047E3
:10530000D88D0020547D00200020064911F810207F
:105310000AB100207047401CC0B20A28F6D3012011
:10532000704700006A8800200349002201F810201D
:1053300001EB4000427070476A880020014A02F881
:10534000101070476A880020024A012102EB4000D9
:10535000417070476A88002070B50024064D05EB47
:105360004400407810B12046FFF754FF641CE4B2BB
:105370000A2CF4D370BD00006A88002070B50021AB
:105380001D4B03F132051A5C002A09D0002403F1F9
:105390000A06012A0AD0022A12D0032A24D11FE0C9
:1053A00015F8102002B301221A541DE015F8102040
:1053B0001AB1345402221A5416E01C54042113E08A
:1053C00015F810204AB1325C521CD2B23254642A11
:1053D0000AD3072103221A5406E005211C5403E0D6
:1053E00015F8101011B10821084670BD1C54FFF7C4
:1053F0009BFF0921F8E70000388800207047000073
:105400002DE9F0410F4690460A2F04D8B8F1000F5D
:1054100001D0002323E00020BDE8F08103EB430628
:1054200010F826402CB1012C03D0022C01D0032C03
:1054300013D100EB8605124AA97AD154104910F80D
:1054400026200C3101EB0314227069686160297A0F
:105450002172697A61720B49E1605B1CDBB2BB426D
:10546000DCD3074839460C30FFF726FD06480770A5
:10547000C0F804800548FFF79BFE0120CCE7000040
:10548000D88D0020694E2000547D0020E15220007C
:105490002DE9F0410024124FDFF8488019E0002682
:1054A00007EB041528786968FFF768FE10B9697A78
:1054B000012902D0012802D005E0012603E0687A24
:1054C000022800D1012631462046FFF737FF641C31
:1054D000E4B298F800008442E1D3BDE8F081000016
:1054E000E48D0020547D002010B5FFF7D1FFBDE80A
:1054F0001040FFF731BF000010B5074A01210748EF
:1055000000F064F900220A21044800F0B5FA0449C9
:105510000120487010BD0000E9542000888E002052
:10552000547D002010B5034800F07EF902490020A8
:10553000487010BD888E0020547D00200248406ACB
:10554000002800D000477047B08F0020002806D008
:10555000002904D0024AD269002A00D010477047BF
:10556000B08F00200248006A002800D00047704732
:10557000B08F002070B50D4616460D4C00280AD09D
:105580000178032911D80121A17601461A2220466B
:10559000FDF793F805E00020A0761A210448FDF7F6
:1055A00025F9E5612662002070BD012070BD000074
:1055B000B08F0020044A1044807D084201D00120B1
:1055C0007047002070470000B08F00202DE9FE4F8B
:1055D0000746924699460024A046CDF80480CDF8AF
:1055E000088059480178B94202D2807E00287DD1D6
:1055F0000EAD0095EFF311860220FEF7F5FC834611
:10560000FEF716FD401C012181400BEB0100C0B2EA
:1056100080F3118801213846FFF7CCFF38B14B48A1
:105620004B4950F82720204600F0A4F804461C21DE
:105630003846FFF7BFFF00285ED046A24449204607
:1056400000F098F8204484B204213846FFF7B2FFF6
:10565000F8B152463E49204600F08CF8204484B20E
:1056600008213846FFF7A6FF38B13BA2384920464B
:1056700000F080F8204484B20BE010213846FFF798
:1056800099FF30B135A23249204600F073F820442A
:1056900084B208213846FFF78DFF90B14A462C4965
:1056A000204600F067F8204484B210213846FFF706
:1056B00081FF30B12AA22649204600F05BF8204441
:1056C00084B210213846FFF775FF60B126A205218C
:1056D00001A80C9BFCF7F0FD01AA1D49204600F033
:1056E00049F8204484B221A2194900E029E020466B
:1056F00000F040F8204484B21548C4F5807120447D
:105700002B460D9AFCF79CFDCDF800804FF480717C
:10571000002804DB2044884201DC85B200E00D460D
:10572000A81C884200D9FE2511A20949284600F08C
:1057300021F8284481B20648FFF708FFF0B280F351
:105740001188BDE8FE8F0000B08F0020607D002032
:10575000B08E002028000000200000003A00000069
:10576000204C696E653A0000256C64002920000019
:105770000D0A000030B50546002000290CD0002A93
:105780000AD006E02B18FF2B06D8CC54521C401C24
:1057900080B21478002CF5D130BD000010B5084857
:1057A000017800290AD101210170064891F6E2FE34
:1057B000BDE810400021044892F672B810BD000008
:1057C000487D0020B1611000659420002DE9F04172
:1057D00004460D461746002D04D0012D02D00120AD
:1057E000BDE8F081E4B1DFB1607801281AD0EFF3B1
:1057F00011860220FEF7EAFB8046FEF711FC401CF2
:105800000121814008EB0100C0B280F31188002023
:105810006070A570E761F0B280F311880020DFE7C7
:105820000120DDE70620DBE710B50446002C0CD094
:10583000204600F0B3F9FF2060700021A160E16014
:10584000216161610020E06110BD012010BDF0B553
:10585000DDE90745059981614FF47A76A2FB061CC4
:1058600003FB06C3002702FB0732C0E90212091935
:105870006A41C0E9041200210162F0BD2DE9F04146
:105880000446002C13D0EFF311850220FEF79EFB97
:105890000746FEF7C5FB401C012606FA00F0384417
:1058A000C0B280F311881248002121620EE000206E
:1058B000BDE8F081D4E90432D1E9047CDB1B72EB52
:1058C0000C0202D2016A216203E00846016A002943
:1058D000F0D104626670064810380168491C016006
:1058E000016B4160E8B280F311880120E0E700001D
:1058F000A08D00202DE9F04105460024EFF311862C
:105900000220FEF763FB0746FEF78AFB401C0121DD
:1059100081407818C0B280F31188134A106BE8B147
:1059200015B102F1100010E00446206A10631068FF
:10593000401E10600CE0A94206D11168491E11609A
:10594000296A01622C4603E00846016A0029F2D167
:1059500024B1002020626070106B5060F0B280F3C0
:1059600011882046BDE8F081908D00202DE9F0419E
:10597000EFF311870220FEF729FB0446FEF750FBE8
:10598000401C012181406018C0B280F31188114D84
:10599000002608E02078012804D1E16909B1A06956
:1059A000884726702D6A2C6A002CF3D1094D103DD2
:1059B00007E0E16909B1A06988472670206AA863F9
:1059C0002662AC6B002CF4D1F8B280F31188012070
:1059D000BDE8F081A08D00202DE9F041EFF31187A3
:1059E0000220FEF7F3FA0446FEF71AFB401C0126DC
:1059F00006FA00F02044C0B280F311881D4DA5F1D5
:105A000010082DE0D4E90430D8E902125B1A60EBEB
:105A10000200D8E91021D21A814124D326702046F1
:105A2000FFF768FFA078012806D01248283000212F
:105A30002162016861B10FE0D8E90220D4E90213C4
:105A400051185841C4E904102046FFF717FF07E03A
:105A5000046005E001F1200001680029FAD104602A
:105A60002C6A002CCED1F8B280F311880120BDE859
:105A7000F0810000A08D00202DE9FF5F82460E46D8
:105A800093464FF00008BAF1000F20D041488642FB
:105A90001DD8E6B1EFF311870220FEF797FA04460E
:105AA000FEF7BEFA401C012181406018C0B280F3AD
:105AB0001188504602F05EFC10B19AF8010040B126
:105AC000F8B280F311880F2004B0BDE8F09F0120E8
:105AD000FAE702F0FBFD04460D464FF47A7106FB2F
:105AE00001F022462B46002102F008FBDFF8A890C7
:105AF000B0B1D9F8040048B1D0E90410091B60EB3B
:105B00000500C9E9021002F05BFE04E00021C9F8BB
:105B10000810C9F80C104FF00108D9E9020106E09D
:105B2000D9F80400D0E90421101B61EB0501CDE98F
:105B3000020132460023CDF800B05046FFF787FE41
:105B40005046FFF79BFE03F00BFE4FF0E024D4F825
:105B500000014FF0806510F0806F01D0012000E05F
:105B6000002020B91A20FEF7D8F9C4F80051B8F186
:105B7000000F0AD0D9F80400D0E90431D9E90202B3
:105B8000181A61EB020102F0D7FDF8B280F3118818
:105B9000002099E7008AB907908D00202DE9F04197
:105BA00004460025002C39D0EFF311870220FEF7C0
:105BB0000DFA0646FEF734FA401C012181407018A8
:105BC000C0B280F311886078012824D1144E706827
:105BD000A0420BD102F07AFDD4E90432181A62EB2C
:105BE0000102C6E9020202F0EBFD01252046FFF7A3
:105BF00081FE5DB1706848B1D0E90421D6E90203A5
:105C0000101A61EB030102F097FD04E01DB9706802
:105C100008B902F0D5FDF8B280F31188BDE8F08133
:105C2000908D002070B504461A4D55F82400703050
:105C300003F00BFD82B21646A2B155F8240090F88D
:105C4000011101290ED0012180F80411802A0FD3FF
:105C500055F82400802200F18001703003F00AFD25
:105C600080260CE055F82410002081F8000170BD5A
:105C700055F8240000F18001703003F0FBFC55F86A
:105C80002400324600F18001001D2BF6BDFA0028E9
:105C9000EDD170BD20880020704700002DE9F84349
:105CA00004464D4F57F82400061D062C7ED290F86E
:105CB0006C1000297AD0012978D190F800110129BF
:105CC00074D190F80111002970D1012180F80111DF
:105CD000002157F82400D0E903231344027D02F089
:105CE0000102D21D9D184268D36FC3F38003002BBD
:105CF000FAD090F80421A2B1384A1368491C90F8F0
:105D00003B20102A06D08268B3FBF2F26A43B1EB63
:105D1000C21FF3D957F82400703003F096FC85B207
:105D200026E0B0F82480C58C001D2AF6E7FC57F861
:105D3000240041F2883300EB0801491B8031001D2B
:105D40002A462BF60EFAE5E757F8240001227030B8
:105D5000694603F08FFC57F824004068C16FC1F317
:105D600040010029FAD09DF8001001606D1EADB20F
:105D7000002DE9D157F82400703003F066FC0028AC
:105D8000C8D1306841694906FCD5EFF31085012080
:105D900080F3108857F82400703003F056FC68B187
:105DA000EFF31081012080F3108800E011E03068EB
:105DB000426842F08202426081F3108857F8241052
:105DC000002081F8000157F8241081F8010185F3C3
:105DD0001088BDE8F88300002088002060030020C0
:105DE0002DE9F04105460F46002D06D02AB12C784A
:105DF000062C04D3E820BDE8F081E520FBE7384E0F
:105E000005F1580046F82400D2E900310A46703006
:105E1000194603F005FC291D286D04F021FB00281C
:105E2000E9D156F82410281D486656F8240007606A
:105E300056F824001822083005F14001FCF782FCD6
:105E4000284856F8241000EBC4056868486056F8E6
:105E50002400001D01F0ECFE56F82400001D01F0A6
:105E600003FF204801220321103803F05FFB56F89E
:105E70002410012081F86C0056F82410002081F8CD
:105E8000000156F8241081F8010156F8241081F819
:105E9000020156F8241081F8030113490C2003F085
:105EA000F9FC12490D2003F0F5FC1149342003F0F0
:105EB000F1FC1049352003F0EDFC0F49362003F0CA
:105EC000E9FC0E49372003F0E5FC95F9010021F6C5
:105ED00061FA95F9010021F67BFA00208BE70000BA
:105EE0002088002094BB2000893E2000993E20009D
:105EF000A93E2000B93E2000C93E2000D93E200026
:105F00002DE9F04104461A4D55F82400703003F095
:105F10009CFB82B2164600277AB155F8240090F80F
:105F20000111012909D0802A0ED300F180017030BF
:105F3000802203F09FFB80260BE055F8240080F8B8
:105F400000710020BDE8F08100F18001703003F0A5
:105F500091FB55F8240080F8047155F8240032466E
:105F600000F18001001D2BF613FA0028EAD1E9E7C1
:105F70002088002070B5062801D3E82070BD104DA0
:105F800055F8204064B194F86C604EB151B14AB1FB
:105F90005E1C09D044F62066B34205D9E42070BDEA
:105FA000E52070BDE42070BD002684F8026155F83C
:105FB0002000001D2BF6D5F80028F4D170BD00009C
:105FC000208800202DE9F84307460C46904604F14E
:105FD000080520468EF6EAF80346344E7068002124
:105FE000A7F58042DFF8C8C0B2F5804F03D2DCF8D5
:105FF0000010401A0121E218824202DD0520BDE8AE
:10600000F8833068421EC2F30B02821A02F6FF7256
:10601000C2F3073211B1DCF8001000E00021DFF814
:1060200094C0DFF89490DCF800C0D9F80090ACEB95
:10603000090C96F80990A2EB09020CEBC202101AA7
:10604000401A001FE918814229DD00254FF400495C
:1060500011231F2249462846009571F6FFFA0021B8
:10606000084600F0F1FE40B113231F2249460020EC
:10607000009571F6F3FA0F20C1E7707A01F07CFF0A
:106080000028BCD112231F224946009571F6E6FA7A
:10609000424621463846BDE8F84304F0AFBB4246CD
:1060A00021463846BDE8F84304F0A8BB90470020DD
:1060B000B8350020C4350020BC35002070B503F091
:1060C000DDFD40F21A4120B140F24C4003F046FCA5
:1060D00003E040F22E4003F041FC0D4CA07850B19B
:1060E000E08803F04BFC0546208903F047FC294675
:1060F00003F08AFD05E04FF461714FF47A7003F00C
:1061000083FDBDE8704002484A3003F0CFB800007C
:10611000907E002000214FF03040C1608161C0F8C6
:10612000D011C11741610162C0F8D81103496FF461
:10613000806008600220FDF7FDBE000084A00040E2
:1061400010B500F08FF8BDE8104000F069B800000D
:1061500010B51248016821F0070141F00401016007
:106160000A2009F653FA0D488438016821F4807139
:1061700001600121002024F6EFFC01201AF68EFABE
:1061800007490220087003F0FBFA0649322003F0A9
:1061900081FBBDE810403220FDF7EABE90A8004028
:1061A0005C7E00205F3D200010B519480068C0F3F8
:1061B0000B0017490831096821F07F41401C00EEAF
:1061C000100ADFED140AB8EE400A60EE200A00EE75
:1061D000101A1149B8EE400A80EE801AB6EE000A95
:1061E00031EE000ABCEEC00A10EE100A486003F05F
:1061F0003BF803F073FD0948016841F480710160C8
:1062000006488430016821F00701016010BD0000DC
:1062100004E400400024F44B5C7E00200CA8004005
:1062200000B587B003218DF80410022002900522EA
:106230008DF80C2001208DF80D0000238DF80E3014
:106240008DF8101005908DF818208DF819008DF834
:106250001A00034A022101A8FFF7D2F807B000BDD7
:10626000FD53200000B587B000F01EF803208DF824
:1062700000001D208DF8160001208DF817008DF804
:1062800018008DF81900044A04496846FFF772F9AE
:10629000FEF784FC07B000BDA16220000D63200062
:1062A0000320FFF7FBBC00001CB5144800904FF41E
:1062B000806001901248032202704FF4E1310164C2
:1062C000426400218164C164016501234365017456
:1062D000202444614274037601711023836042716B
:1062E0000173084941638163022180F83C1080F802
:1062F0003D206A460449FFF773FD1CBD1481002050
:106300001485002000900140995C20000A46014657
:106310004FF47A730320FFF72DBE0000052110F122
:10632000190F01DC022110E000F114020F2A01D83C
:1063300003210AE00F2801D8042106E0A0F114028D
:10634000192A02D932280CDB062106480268C2F35A
:1063500003328A4205D0026822F4704242EA0131D7
:106360000160704714A8004010B50021084624F6CB
:10637000F3FB01201AF672F90248816821F480715A
:10638000816010BD00A0004010B514480068C0F343
:106390000000002807D0114808380068C0F300004A
:1063A00008B103F045FA0E480068C0F3000038B1A8
:1063B0000B4808380068C0F3000008B100F04EFC3C
:1063C00003F0C4F9002807D001F00AFD002803D02B
:1063D000BDE81040FFF7C8BF10BD000008E4004052
:1063E00008E5004010B503F0B1F920B101F0F8FC68
:1063F00008B1012010BD002010BD10B503F038FA1F
:1064000000F0D8FB10BD10B501F0CAF902F07AFD1A
:1064100003F084F8BDE8104000F092B82DE9FC418B
:1064200004468846164D4FF6FF76164F12E029684F
:10643000082201EB0030694686F6ECF9082802D004
:106440001020BDE8FC81BDF80000B04208D12078E2
:10645000401C20702078797A8842E8D30020F0E749
:1064600009489DF80010C170BDF8021081809DF8A8
:10647000011088F80010217841700020E1E7000049
:10648000BC35002090470020C835002010B51248C8
:10649000016821F0004101600F23011D0A6863F3C8
:1064A0001F720A600A6822F4E07242F4C0720A6045
:1064B000016841F0004101600848016841F00101B4
:1064C00001600749312003F0E5F906494FF4003037
:1064D000C1F8000110BD000004A9004088E200409E
:1064E000693D200004E000E0F8B5EFF310850120DD
:1064F00080F31088072000906846FDF789FC022091
:10650000FDF78EFC322009F681F80B4C206840F034
:1065100002002060094E708909F678F8206820F0A2
:1065200002002060B08909F671F89DF80000FDF7BF
:1065300077FC85F31088F8BD04A90040F47E0020A4
:106540000249014808607047E5731000CC0500203F
:10655000F0B58BB004460025282101A8FCF746F9C8
:10656000666827680F2060602060204600F06AFEA1
:10657000204600F0A5FE132201A9204618F6CCF90A
:10658000032101A830F811201544491C89B21329B0
:10659000F8D3C5F30F1566602760204600F052FE61
:1065A000204600F08DFE4FF6FF700BB000EA45006C
:1065B000F0BD000030B40021114B01EBC10202EB31
:1065C000420213F82240012C15D103EB8202057917
:1065D000147AAC420FD152680468A2420BD101EB8D
:1065E000C10000EB400003EB8000816E002905D064
:1065F00030BC02200847491C0C29DED330BC704750
:106600008088002030B40021114B01EBC10202EB65
:10661000420213F82240012C15D103EB82020579C6
:10662000147AAC420FD152680468A2420BD101EB3C
:10663000C10000EB400003EB8000816E002905D013
:1066400030BC00200847491C0C29DED330BC704701
:106650008088002070B500240D4E04EBC40000EBD0
:10666000400016F8201001290DD106EB80000546E8
:10667000001D1AF6ABFB18B1012801D0002070BD37
:10668000281D1BF625F9641C0C2CE6D3012070BDD7
:106690008088002030B40021114B01EBC10202EBD5
:1066A000420213F82240012C15D103EB8202057936
:1066B000147AAC420FD152680468A2420BD101EBAC
:1066C000C10000EB400003EB8000816E002905D083
:1066D00030BC01200847491C0C29DED330BC704770
:1066E0008088002010B593F629FA002800D0FEE734
:1066F00010BD00B500F00AF85DF804EB01F000BC35
:1067000001480078704700002097002030B5084C01
:10671000012525706060E2602361A1600548806802
:10672000884201D2081A00E0401A606130BD0000C2
:1067300020970020787E002010B501F0BBFB0446B6
:1067400018210548FCF752F8034A00211170204631
:10675000BDE8104000F046B920970020F0B4044690
:106760000E462C482C4FB9680578026244628C4270
:1067700001D9631A00E00B1BFF689F4206D3134642
:1067800032462146F0BC0020FFF7B3BF87699F4225
:1067900001D98361C261012D0AD0022D27D0032DBA
:1067A00036D1134632462146F0BC0020FFF7A1BF88
:1067B00044618C4203D90169491EC16002E001694C
:1067C000491C8160D0E90212914209D21144490862
:1067D00001610121017001693046F0BC00F01EB872
:1067E0000221017081683046F0BC00F017B8C16921
:1067F000914206D1134632462146F0BC0020FFF7F5
:1068000078BF03210170C1693046F0BC00F006B8C2
:10681000F0BC7047C8960020787E0020054A936A35
:106820005B1C93628AB2C1B20348044B406801F01A
:10683000E5BA0000C8960020787E00205D67200041
:1068400070B505460D4C2C212046FBF7CFFF0020EC
:10685000A06040F2FF10E060FF2222614FF0FF30A5
:10686000A061A06A401CA062012020700448E9B227
:10687000044B4068BDE8704001F0C0BAC8960020E3
:10688000787E00205D6720002DE9F84307460D461D
:1068900090462E4C207801280BD0022813D00820D7
:1068A000E06101B043462A463946BDE8F043FFF7B0
:1068B00020BFE76040F2FF1121612846BDE8F843A0
:1068C000022200F079B8002600966761684600F061
:1068D0003FF870B1012810D002281FD003282DD016
:1068E0000720E06143462A463946FFF702FFBDE82C
:1068F000F8832846FFF7A4FFF9E70F2D06D23146AB
:10690000A6600122681C00F057F8F0E70520E0615E
:1069100043462A463946FFF7ECFEE8E735B1A66064
:1069200001220021681E00F047F8E0E70620E06140
:1069300043462A463946FFF7DCFED8E70098E06177
:1069400043462A463946FFF7D4FED0E7A8960020F2
:1069500010B5174B17490A698968154CDB686469DB
:106960008B4203D98C4201D9022010BD8B4203D245
:106970008C4201D2012010BD8B4201D95B1A00E08C
:10698000CB1A8C4201D9611A00E0091B934203D350
:10699000914201D3002010BD934201D2022010BDCC
:1069A000914201D2012010BD02210160032010BDDF
:1069B000A8960020787E002030B4074B9C69641CA8
:1069C0009C6158601A708AB2C1B20448044B406896
:1069D00030BC01F013BA0000A8960020787E002099
:1069E0008968200070B50546064C20212046FBF73B
:1069F000FDFE0021A1602846BDE870400122FFF79E
:106A0000DBBF0000A8960020F8B50E461F4C0025FD
:106A10000095E169491CE1616660A260E16821615D
:106A2000E0601B498B68834201D2C01A00E0181A4B
:106A30006169814201D96061A261684600F02AF86B
:106A400058B101280ED0022814D0032818D000987D
:106A5000A062204600F0BFF8F8BDA562204600F015
:106A6000BAF8F8BD012084F820003046A16900F092
:106A700077F8F8BDA1683046491C00F071F8F8BD00
:106A8000A1683046491E00F06BF8F8BDF49600206E
:106A9000787E00202DE9F0432F4A304FB968002559
:106AA0000026D3688B4201D95C1A00E0CC1AFF683B
:106AB000A74202D30020BDE8F083D2F82480B8F1C9
:106AC000010F10D092F82040012C0ED0224CD2F8A9
:106AD0001CC04FF00109A769A468C4450BD3A742A5
:106AE00005D10020E7E70020E5E70020E3E782F892
:106AF00020900120DFE7BCF1010F11D9D2F810C0BE
:106B00008C4501D98B4203D38C4509D28B4207D9DE
:106B1000A74201D10020CEE782F820900120CAE7E9
:106B20008B4201D9012600E0012545B1B4F5FF7F74
:106B300003D9092101600420BDE70220BBE736B17B
:106B40000CB10320B7E70A2101600420B3E70B2151
:106B500001600420AFE70000F4960020787E00205A
:106B60008AB2C1B20248034B406801F047B9000045
:106B7000787E0020096A200070B504460E4615464E
:106B80002C210948FBF732FE074B002183F8201027
:106B9000491E59615C620548AAB2F1B24068BDE87D
:106BA0007040034B01F02AB9F4960020787E002053
:106BB000096A200010B501F003F900280AD0FFF798
:106BC0009FFD18B1BDE8104000F028B8BDE81040A6
:106BD000FFF7B2BD10BD00B500F004F85DF804EB9E
:106BE00001F08EB90B4901220A71826A8A60C2697A
:106BF000CA60C2680A6142684A6182688A61064A5C
:106C0000C0689268904201D9801A00E0101AC861E9
:106C10007047000038970020787E00202DE9F04171
:106C200001F048F9074601F057F98046094C2668FB
:106C30000948456920212046FBF7D8FD761C2660CF
:106C400000202071424639462846BDE8F041FFF752
:106C500093BF000038970020787E002010B50E4CBE
:106C60002069401C206101F051F9E06001F022F937
:106C7000606001F031F9A060084A00211160616193
:106C8000E3692BB182B22179E068BDE81040184772
:106C9000BDE8104001F034B98896002000E50040BE
:106CA0002DE9FC41164804680834164E3078002857
:106CB00002D000208FF658FA134D4FF6FF770822C6
:106CC000694620468FF65AFABDF80000B84211D046
:106CD00080B1BDF802008DF669FABDF802100830E7
:106CE000084481B220468DF63DFD04462868844262
:106CF000E5D32C6830788FF637FA2046BDE8FC8162
:106D0000BC350020B5350020C435002008B51A4830
:106D1000016821F070010160016821F0070141F074
:106D20000401016015490978002909D01249843904
:106D30000A6842F480720A60016821F0070101606C
:106D4000012001F047FF0020FDF766FD02F048F941
:106D500080B100208DF80000A3208DF801000220F2
:106D60008DF8020068468FF6E3FF02F0D7F802F0D4
:106D70007FF908BDFEE7000090A80040047F0020D6
:106D800070B5044600BFFDF75BF905460120FDF72D
:106D9000E7F90948047024B9482208490848FBF774
:106DA000D1FC1DB90020FDF7DBF902E00120FDF761
:106DB000D7F900BF70BD0000047E0020C095002000
:106DC000002000E010B507484068074948600648C1
:106DD0000830402203490831FBF7B4FC0320024984
:106DE000086010BD78950020002000E070B500BF5D
:106DF000FDF726F905460120FDF7B2F90B480478A6
:106E000034B948220A490B48FBF79CFCFFF7DAFF2C
:106E10000120064908701DB90020FDF7A1F902E024
:106E20000120FDF79DF900BF204670BD047E0020C3
:106E3000002000E0C095002013B501216846FEF750
:106E400085FB01201CBD00002DE9F04F8DB008220C
:106E50000C9200220B924FF008080A92099100262A
:106E60009A4FDFF86CB24FF0010A002848D0082290
:106E700004A9386885F6CEFC082803D00F200DB091
:106E8000BDE8F08F9DF81000A52806D09148C18874
:106E90000C91447880780B9046E09DF81100DBF867
:106EA0000010022201EB0030083001A985F6B2FC87
:106EB000BDF80410A1F57F40FF380AD09DF81100FD
:106EC000DBF8001001EB00304FF480518FF624F90D
:106ED00090B19DF81200BDF816100C919DF811109C
:106EE000491CCCB20B9009AB0CAA0BA904A803F067
:106EF000D7FD012802D017E01020C0E70020BEE730
:106F0000FFF7CEFE411EC1F30B01401ADBF8001063
:106F1000401A00F6FF70FF2101EB1030C4B20B9451
:106F200014B1CDF824A0012693F6C6F8C7E00025D9
:106F3000069507955CB1DBF80000042200EB0430F5
:106F400006A985F667FC042801D00F2097E7614861
:106F500005604560A521017044709DF82C1081707A
:106F6000BDF83010C1809DF81810C170BDF81A101E
:106F70008180DBF8000000EB043040440A90386860
:106F800000EB080108914FF480518FF6C5F850B11D
:106F90009DF818204AB1012308A90AA803F054FD5E
:106FA00018B10F206BE7102069E7BDF81A203AB13D
:106FB000002308A90AA803F047FD08B10F205EE7E7
:106FC000C4F100090A98DBF80010401A00EB093000
:106FD000C0F58055082D2CDD082302AA08A90AA8AF
:106FE000CDF800A093F67AFC08B10F2047E7BDF872
:106FF0000810A1F57F40FF3830D0083DBDF80A00E9
:107000008DF6D4F8BDF80A100844A84208DDAAB2EB
:10701000002308A90AA803F017FDC8B10F202EE726
:1070200082B2002308A90AA803F00EFD80B10F2048
:1070300025E7A8B28DF6BAF8284483B2264A08A9F3
:107040000AA8CDF800A093F649FC08B10F2016E776
:107050003868089900F580508142B3D308221D4951
:10706000386885F625FC082801D00F2007E7DBF8F3
:1070700000004FF4805100EB04308FF64DF860B102
:1070800076B1DBF80000042200EB043006A985F697
:107090000FFC042803D00F20F1E61020EFE60026B5
:1070A00009AB0CAA0BA90B4803F0FAFC012802D08B
:1070B00018B10F20E3E60020E1E6641CE4B20748C3
:1070C000407AA042BFF433AF0020D8E6C03500209C
:1070D000BC350020C83500206446002090470020C1
:1070E000024600210BE0084850F83130501E834220
:1070F00004D1054800EBC10040687047491C1029C5
:10710000F1DB0020F9E7000008960020002101E0F3
:10711000491C4008C207FBD00846704710B502F072
:10712000ADFD50B14FF48C642146204602F016FCB0
:107130002146204602F068FD09E040F24C44214619
:10714000204602F00BFC2146204602F05DFDBDE822
:107150001040014802F0AAB8E47E002001484078BF
:1071600070470000907E002070B5044600BFFCF719
:1071700067FF05460120FCF7F3FF00201449087063
:1071800014481549086015481549086048221549F2
:107190001548FBF7D7FA15481249486003200860E4
:1071A00048221348FBF7CEFA48220F490D48FBF757
:1071B000C9FA882C01D002F0EBFE1DB90020FCF7C3
:1071C000CFFF02E00120FCF7CBFF00BF70BD000045
:1071D000047E0020816D200084380020ED6D2000A9
:1071E00080380020002000E0C09500200099002099
:1071F0007895002008B511480068416C002901D03D
:10720000491E4164416C89B1016CC96801640988F7
:107210000B4A136823F4702343EA01411160016CA7
:10722000001D8A68496800F0B9F808BD0021009186
:1072300001680029F9D06846884708BD5C7D0020B8
:1072400000A80040AFF300802DE9F0410446002C77
:107250002ED094F8280001282CD0012784F828701B
:10726000154E002535603DF695FC002017F6C6FD4D
:10727000204600F091F8E56200212046FFF5E2F992
:107280000E48016A21F001010162376046F8805C16
:1072900001212046FFF54CFA1E2023F6BDFB0121FB
:1072A0002046FFF5A3F984F828500020BDE8F081BE
:1072B0000120FBE70220F9E794D01D4200E00040E6
:1072C00010B50446034817F6B9FB2046BDE8104048
:1072D00000F002B8107E00202DE9F04104460025A0
:1072E000002C0BD094F8280001280AD0012784F83C
:1072F000287094F82900002628B119E00120BDE883
:10730000F0810220FBE784F828602048C0F89460F0
:1073100047614FF47A712046FFF5BAF9054625B169
:10732000E76284F828600120E9E7204600F035F89C
:10733000174F386820F08040386020463DF64AFC00
:107340008046002017F65AFDB8F1010F04D0012540
:1073500084F828602846D2E7386840F080403860DA
:10736000E66201212046FFF56DF92046FFF582F91E
:1073700000212046FFF5DCF906491E2023F63AFBE2
:1073800001212046FFF532F9E2E7000000D01D425E
:1073900000A8004049EA0100704770472DE9F04716
:1073A0000446894616460025002C21D0B9F1000F6D
:1073B00020D0FEB194F82800012821D04FF0010A16
:1073C00084F828A0DFF84881D8F824000027A0F529
:1073D0008071013916D04FF47A712046FFF558F9C3
:1073E00080B1C4F82CA084F828700120BDE8F08793
:1073F0000120FBE7E06A40F00800E0620120F5E7C9
:107400000220F3E794F82900012804D0022584F82B
:1074100028702846EAE700212046FFF5E7F82046D5
:10742000FFF528F9E76202212046FFF50BF9606AB3
:10743000C169202904D0E16A41F00801E162012517
:1074400035B101212046FFF5FDF884F82870E0E70A
:10745000002108F61DFA606A08F67EFA102000F096
:10746000A5FFD8F8040020F48030C8F80400102EDE
:1074700006D2606A00220179006801F0FDF806E09A
:10748000606A4FF400420179006801F0F5F8266265
:10749000206AE061C4F81890616A1E484863616A16
:1074A0001D48C863606A0764606A876301E000F092
:1074B0006DFF00F073FF0028F9D1D8F804004146B1
:1074C00040F48030C8F80400206A012812D0206AF5
:1074D000A2694308606A19F69BFE05468DB1E06A11
:1074E00040F00400E06201212046FFF5ABF884F88B
:1074F00028708EE70123A269606A19F689FE0546A5
:10750000ECE784F82870606917F678FC81E70000E2
:1075100000E0004069650000B1650000F0B50D466F
:107520002DED088B83B016461F4601AA02A917F657
:1075300029F9012841D1BDF8040003F032FF41ECE4
:107540001A0BBDF8080003F02CFF03F0B5FC41EC6A
:10755000190B1C48C08B03F024FF9FED1B1B53EC41
:10756000112B03F069FD41EC1B0B002423E09FED80
:10757000180B51EC190B53EC102B03F0A7FF41EC47
:10758000180B35F8140003F00CFF53EC1A2B04F021
:10759000DDF853EC182B03F04FFD9FED0F1B53EC60
:1075A000112B03F049FD53EC1B2B03F091FC06EB70
:1075B000C40203C2641CBC42D9D303B0BDEC088B27
:1075C000F0BD0000B0450020000000000000594060
:1075D000000000000000004079E9263108AC5CBFE3
:1075E000F0B50D462DED048B83B016461F4601AA5B
:1075F00002A917F6C7F8012827D1BDF8040003F047
:10760000D0FE41EC180BBDF8080003F0CAFE03F0F1
:1076100053FC41EC190B002415E035F8140003F07D
:10762000C0FE53EC182B04F091F853EC192B03F027
:1076300003FD9FED081B53EC112B03F047FF06EBF6
:10764000C40203C2641CBC42E7D303B0BDEC048B8C
:10765000F0BD0000B76DDBB66DDB0E402DE9F041EB
:1076600004462DED048B82B00D4616461F466A4631
:1076700001A9204617F686F801283BD1BDF8000085
:1076800003F08FFE41EC190BBDF8040003F089FEF6
:1076900003F012FC41EC180BA068B0F5005F15D0A8
:1076A000DFF88C802069D8F80410884206D0C8F82A
:1076B00004002046FEF74CFFA8F80000B8F80000D0
:1076C00003F06FFE41EC190B00242EE000240FE0C4
:1076D00035F8140003F065FE53EC192B04F036F86E
:1076E00053EC182B03F0A8FC06EBC40203C2641C85
:1076F000BC42EDD302B0BDEC048BBDE8F08135F89F
:10770000140003F04EFE9FED0B1B53EC112B03F006
:10771000DDFE53EC192B04F00DF853EC182B03F09D
:107720008BFC06EBC40203C2641CBC42E7D3E1E756
:10773000487E002000000000000000402DE9FE43CC
:107740000546002403208DF8000000260C4F4FF062
:107750000108E8070BD008FA04F0019007EBC40019
:107760004068029057F8341009B168468847641C95
:10777000A4B26D08761C082EEBDBBDE8FE8300008A
:10778000E087002018F6B0B810B50446034818F694
:1077900017F92046BDE8104018F6BEB8207E00203C
:1077A00000B5012002F084FA02490148086000BDDA
:1077B000A17310001400002010B5EFF31084012114
:1077C00081F3108818F630FF0348006808B900F00C
:1077D00005F884F3108810BDD005002010B592F68E
:1077E000B1FA00281ED1EFF31084012080F3108835
:1077F0000D48016841F0040101600B490831086837
:107800004007FCD503F008FB012000F01BFE01201F
:1078100000F018FE04481C38016821F05001016096
:1078200084F3108810BD000040A400402DE9F84307
:10783000044620200090002C0BD0DFF8C080206888
:10784000DFF8BC9000262F4D404505D1C5F88C636C
:1078500006E00120BDE8F883484501D1C5F89063F2
:107860002179206800F00AFE204608F675F8666463
:107870000021204608F650F820680121224F40459B
:1078800009D12279387801FA02F29043387068B948
:10789000C5F88C130AE0484508D12279787801FAB6
:1078A00002F29043787008B9C5F89013387818B987
:1078B000787808B9C5F808110121204608F65AF869
:1078C0006946204607F6CAFF01280ED19DF8000040
:1078D00010B1012805D008E0397831B923F69CF8B9
:1078E00003E0797809B923F697F80121204607F6D5
:1078F000CFFF84F82C600020ACE70000009001402E
:1079000000A0014000D01D420C7E0020F0B58DB0DB
:107910000446002C06D094F82D00314E314F00253E
:1079200018B111E001200DB0F0BD84F82C50206892
:107930002D49B04202D1C1F88C5303E0B84201D1C5
:10794000C1F89053C1F808510221204607F6E4FF20
:1079500001A83EF60BFEA0680A90E0680B906069F3
:107960000590A0690690E0690790206A0890206958
:107970000390606A0490A06A0C90217901AA2068A3
:1079800000F0F2FD65640121204607F6C5FF2046A0
:1079900007F6E2FF0021204607F6ECFF20680121F0
:1079A000124AB04209D123791078994008431070E7
:1079B0000F49002023F61EF80AE0B84208D12379C7
:1079C00050789940084350700949012023F612F875
:1079D0000121204607F65CFF84F82C500020A2E726
:1079E0000090014000A0014000D01D420C7E00200C
:1079F000F579200070B5054600240120002D00D146
:107A000070BD55F8241021B1084619F6B5FB0128C0
:107A100004D0641CE4B2062CF3D370BD012070BD09
:107A20001CF6A4B82DE9FE4380460F463846FFF702
:107A30006DFB85B20024DFF834900D4E59F8340008
:107A400040450ED105EB041085B28DF8004001973A
:107A500006EBC5004068029056F835200AB168462A
:107A60009047641C032CE9DBBDE8FE83FCBA2000D0
:107A7000D086002070B504460D4604481CF6B2F8C6
:107A800029462046BDE870401CF6A1B8247E00209F
:107A90002DE9F041EFF311870220FCF797FA044635
:107AA000FCF7BEFA401C012181406018C0B280F38F
:107AB00011880020FDF71EFF0546254ED5E904126A
:107AC000C6E902122348081A72F11E0019D306F102
:107AD00010000EE0DCE90412D6E90234B1EB030831
