:020000040020DA
:1020000000000820592120006121200001601000FB
:1020100009292000FF2120000D2A200000000000D7
:10202000000000000000000000000000156010002B
:102030006B212000000000006D2120007121200094
:1020400000F002F800F077F80AA090E8000C824453
:102050008344AAF10107DA4501D100F06CF8AFF230
:10206000090EBAE80F0013F0010F18BFFB1A43F076
:102070000103184724950000649500000A444FF0BE
:10208000000C10F8013B13F0070408BF10F8014BD7
:102090001D1108BF10F8015B641E05D010F8016B1C
:1020A000641E01F8016BF9D113F0080F1EBF10F880
:1020B000014BAD1C0C1B09D16D1E58BF01F801CBA3
:1020C000FAD505E014F8016B01F8016B6D1EF9D526
:1020D0009142D6D370470000103A24BF78C878C127
:1020E000FAD8520724BF30C830C144BF04680C601E
:1020F000704700000023002400250026103A28BF66
:1021000078C1FBD8520728BF30C148BF0B60704769
:10211000642900F0E580782900F04981732900F0F6
:102120008E83002070471FB509F0F1F800F0ECFA3B
:102130001FBD10B510BDDFF810D0FFF7F4FF05F09C
:102140005DFF00F097FB00000000082003B4FFF7DC
:10215000F0FF03BC00F05DFF0648804706480047DB
:10216000FEE7FEE7FEE7FEE7FEE7FEE7FEE7FEE747
:10217000FEE700009D292000618320000FB4044980
:1021800010B503AA029800F05FFB10BC5DF814FBC9
:10219000547D00200FB41CB5084B06AA7B44694649
:1021A0000090059800F021FB04460020694600F0ED
:1021B0002FFB20461CBC5DF814FB000071060000DC
:1021C00010B5431C02E010F8011B71B18107FAD170
:1021D0004FF0013202C88C1A8C4314EAC211F9D0B4
:1021E000C01A0A0603D0C01E10BDC01A10BD0A04D2
:1021F00001D0801E10BD0902FCD0401E10BDFEE7BC
:1022000058585247010000002655000000202000C9
:10221000002020007FED9247010100000000000037
:1022200000000000000000000000000000000000AE
:10223000000000000000000000000000000000009E
:1022400070B5044685690068C10601D5302600E0F6
:102250002026C00707D070BDD4E901213046904741
:10226000206A401C20626D1EF6D570BD70B5044614
:1022700085690078C00707D170BDD4E9012120200D
:102280009047206A401C20626D1EF6D570BD70B567
:102290000C460546012A05D02878800600D5EA6953
:1022A000002302E0012305E05B1C934202D2E05CC4
:1022B0000028F9D1A869E618C01AA861286A18444C
:1022C00028622846FFF7BCFF04E0D5E9012114F895
:1022D000010B9047B442F8D32846FFF7C7FF70BD03
:1022E0002DE9F0410646002410687529314616A5EF
:1022F00010D0AFF30080002802DA404213A507E0B7
:1023000031688A0701D512A502E0490704D511A555
:10231000012401E0AFF3008000210A2206F1240726
:1023200009E0B0FBF2FCB0FBF2F302FB1C00303022
:1023300078541846491C0028F3D123462A463046D3
:10234000BDE8F04100F0F2B9000000002D000000EF
:102350002B00000020000000F0B40D4601880905A4
:1023600002D5214C7C4402E01F4C7C440E340021F9
:1023700000F1240608E002F00F071209E75D42EAC7
:1023800003721B097754491C52EA0307F3D1027800
:102390000023120704D5702D06D009B10223113491
:1023A0002246F0BC00F0C2B901231034F8E770B542
:1023B00004460D4621461068AFF3008002462946C8
:1023C0002046BDE870400023C6E7D21D22F0070377
:1023D000D3E90023C0E70368126843F020030360D9
:1023E0000823C3610023B7E7949100002DE9F05F53
:1023F000894604464FF0000ADFF874B1FB44C0F888
:1024000020A02046E1688847002874D0252806D0FF
:10241000D4E901219047206A401C2062F1E70026A0
:102420005F462046E16888472028054607DB312DB6
:1024300005D2781910F8200C08B10643F1E7B0076F
:1024400001D526F00406C4F81CA00027C4F818A083
:102450002A2D09D0284600F0D5FD38B304EB8708B3
:10246000303DC8F8185019E059F8041B204604EB19
:1024700087029161E1688847012F054618D1E0691C
:10248000002820DA26F020061DE0D8F8180000EB1E
:10249000800005EB40003038C8F818002046E1689D
:1024A0008847054600F0AEFD0028EED1012F0AD086
:1024B0002E2D08D12046E16888477F1C0546022F53
:1024C00046F02006C4DBA069002803DA404246F04B
:1024D0000106A061F00701D026F010066C2D0BD08C
:1024E000682D09D04C2D39D06A2D35D0742D35D0BA
:1024F0007A2D33D016E038E0E1682F462046884731
:10250000B842054609D16C2F26D04FF48060E168AF
:10251000064320468847054604E06C2F1AD04FF446
:10252000807006430DB3A5F14100192802D820356B
:1025300046F400664A462946204626604E46FFF786
:10254000E7FD80B101280BD0F61D26F0070000F151
:10255000080956E74020E4E78020D8E70020D6E7C6
:1025600006F104094DE7284652E7206ABDE8F09FCE
:102570002491000040EA010310B59B070FD1042A03
:102580000DD310C808C9121F9C42F8D020BA19BA3E
:10259000884201D9012010BD4FF0FF3010BD1AB1A3
:1025A000D30703D0521C07E0002010BD10F8013BF8
:1025B00011F8014B1B1B07D110F8013B11F8014B1F
:1025C0001B1B01D1921EF1D1184610BD032A40F207
:1025D000308010F0030C00F0158011F8013BBCF1C5
:1025E000020F624498BF11F801CB00F8013B38BFDD
:1025F00011F8013BA2F1040298BF00F801CB38BFEB
:1026000000F8013B11F0030300F02580083AC0F008
:10261000088051F8043B083A51F804CBA0E80810B0
:10262000F5E7121D5CBF51F8043B40F8043BAFF3E3
:102630000080D20724BF11F8013B11F801CB48BF3D
:1026400011F8012B24BF00F8013B00F801CB48BF73
:1026500000F8012B704710B5203AC0F00B80B1E8AC
:102660001850203AA0E81850B1E81850A0E81850C7
:10267000BFF4F5AF5FEA027C24BFB1E81850A0E8D0
:10268000185044BF18C918C0BDE810405FEA827CEA
:1026900024BF51F8043B40F8043B08BF7047D20701
:1026A00028BF31F8023B48BF11F8012B28BF20F8A2
:1026B000023B48BF00F8012B70474FF0000200B505
:1026C000134694469646203922BFA0E80C50A0E855
:1026D0000C50B1F12001BFF4F7AF090728BFA0E803
:1026E0000C5048BF0CC05DF804EB890028BF40F8CF
:1026F000042B08BF704748BF20F8022B11F0804F11
:1027000018BF00F8012B704770B5064C7C44064D8D
:102710007D4403E0206820448047241DAC42F9D169
:1027200070BD0000C88E0000C88E00002DE9F04783
:102730000D4699469246044600F124080168880631
:1027400004D5E06921F01001216000E00120A842D9
:1027500001DD471B00E00027A1697A1902EB09009F
:10276000081AA0612078C00602D42046FFF768FD51
:10277000002608E0D4E901211AF806009047206AF3
:10278000401C761C20624E45F4DB2078C0060AD53A
:102790002046FFF755FD06E0D4E90121302090479F
:1027A000206A401C2062381EA7F10107F4DC07E014
:1027B000D4E9012118F805009047206A401C2062E6
:1027C000281EA5F10105F3DC2046FFF74FFD207818
:1027D000000602D50220BDE8F0870120FBE70000DB
:1027E00001694A1C02610878704700B58FB0CDE9D5
:1027F00001310021059105497944CDE903101146C5
:102800006846FFF7F3FD0FB000BD0000E5FFFFFFD6
:102810000A6802F8010B0A60704710B5436913B1EA
:10282000AFF3008001E0FFF732FD012010BD127808
:1028300000F124010A7000224A700122EDE71168BC
:102840004FF0FF32E9E70000074B70B50D467B44BF
:10285000FFF7CBFF0446284600F008F810B14FF010
:10286000FF3070BD204670BD6F2C0000007B00F073
:102870008000704710B50446AFF300802046BDE8E5
:102880001040FFF763BC01F0D9BE10B502F06CF840
:1028900010BD000070B503201749096841F380019D
:1028A000491C164D00290CD113490C310968C1F39C
:1028B000000131B110498C39096801F007018843E2
:1028C00003D02869401C286170BD0D4C206820F0A1
:1028D00001002060206840F00400206009494FF4A6
:1028E0000030086002F0E6F8E868401CE860206804
:1028F00040F00100206070BDD4A40040847F00201F
:1029000088E2004084E200E0FEE728F647B90000D4
:1029100005280CD2064A116801F4E021B1EB004F02
:1029200005D0116821F4E02141EA004010607047B1
:1029300000A000400249096801F0070101707047DA
:1029400000A0004070B50446072C20D2104E30681D
:1029500000F00700A04214D0032004F023FFF06829
:1029600020F0070545F00100F06000BF00BF00BF88
:1029700000BF204604F016FF064850F82400284304
:10298000F060044804491C3850F82400086070BD09
:1029900000A00040A0B420006003002002480168AD
:1029A00041F470010160704788ED00E00248006862
:1029B000001D03F0ABBE00005C8E002002484068A2
:1029C000001D03F0A3BE00005C8E0020024880685A
:1029D000001D03F09BBE00005C8E00200248C06812
:1029E000001D03F093BE00005C8E002002480069C9
:1029F000001D03F08BBE00005C8E00200248406981
:102A0000001D03F083BE00005C8E0020FEE700285E
:102A100009DB00F01F02012191404009800000F114
:102A2000E020C0F88012704700280DDB00F01F0284
:102A3000012191404009800000F1E020C0F88011A0
:102A4000BFF34F8FBFF36F8F7047002809DB00F093
:102A50001F02012191404009800000F1E020C0F8F0
:102A600000117047002809DB00F01F02012191408E
:102A70004009800000F1E020C0F8001170470028F4
:102A80000FDB4109890001F1E021D1F8001100F0CC
:102A90001F0201209040014201D001207047002018
:102AA000704700207047002804DB00F1E02090F818
:102AB0000004704700F00F0000F1E02090F8140DC2
:102AC0007047002804DB00F1E02090F80004704714
:102AD00000F00F0000F1E02090F8140D70470000A6
:102AE00002480068C0F30220704700000CED00E0CF
:102AF000EFF31080704700002DE9F0412DED020B3F
:102B00009FED3D0B2DED028B9FED3D8BDDE90254DA
:102B1000C4F30A50A0F2FF36142E37DA002E18DA6A
:102B200053EC102B9DED020B51EC100B07F026FE21
:102B300053EC182B08F01EFA57D2002CBCBF4FF0F4
:102B40000044002551DB54EA050018BF2E4C1BD170
:102B50004BE02E4820FA06F704EA070028431FD06E
:102B600053EC102B9DED020B51EC100B07F006FE01
:102B700053EC182B08F0FEF937D2002C03DD4FF48C
:102B80008010F0400444BC4300252EE0332E07DCC7
:102B9000A6F114004FF0FF3121FA00F73D4206D1B3
:102BA0009DED020BBDEC028B02B0BDE8F08153EC51
:102BB000102B9DED020B51EC100B08F011FA53ECA9
:102BC000182B08F0D7F910D2002C0DDD142E08BFF9
:102BD000641C09D0C6F13400012101FA00F0284438
:102BE000A84238BF641C0546BD43CDE902549DEDA3
:102BF000020BD7E7000000009C7500883CE4377E9C
:102C000000000000000000000000F03FFFFF0F0088
:102C100080F31088704700002DE9F74F07460298AF
:102C2000DFF888A1DFF888814FEA500B5C46019DF0
:102C30006048CAF800003F20D8F8041060F305018E
:102C4000C8F80410D8F8040020F48030C8F8040054
:102C5000DAF8000020F4700040EA0750CAF80000DB
:102C6000DAF8000020F4702040EA0740CAF80000BB
:102C70000D2F05D1DAF8000040F40040CAF800003A
:102C80000E2F05D1DAF8000040F48040CAF80000A9
:102C9000DAF8000040F40050CAF80000DAF800004A
:102CA00020F06050CAF80000DAF8000020F00F00B1
:102CB00040F00300CAF80000002000F0CFF801281F
:102CC00071D1DAF8000040F08040CAF8000000201E
:102CD00008E0D8F8081041F48031C8F80810401C0A
:102CE000411C05D0D8F80810C1F300210029F0D10B
:102CF000072000F0B3F8012855D141E000264FF439
:102D00007A7924E04E451ED9DAF8000020F08040A0
:102D1000CAF80000DAF8000040F00040CAF80000ED
:102D2000DAF8000020F00040CAF80000002000F0AF
:102D300095F8012837D12049086A401C086205200F
:102D40000CF664FC72E701200CF660FC761CD8F8E7
:102D50000800C0F300200028D4D0D8F8080000F004
:102D60007F02A24200D92246002006E0D8F80010D7
:102D70002980090C69802D1D401C9042F6D3A41AAD
:102D8000002CBBD10298C00708D0D8F80800C0F3C7
:102D900000200028F9D0D8F800002880BDE8FE4FB8
:102DA000002000F05BB8BDE8FE8F000000A80040E6
:102DB00000E000400A070807847F00202DE9F04169
:102DC000044615480021C0F8941001214161134DBB
:102DD000686A134EF06200F0010149420140C805E3
:102DE00012D440F2011704E044B1641E01200CF635
:102DF0000DFCA869B84204D1012003E00020BDE821
:102E0000F08100200028EFD00648006870626868F2
:102E1000B0620120F3E7000000D01D4200E0004056
:102E2000847F002000A8004009480A49826A4A605D
:102E3000094B426A1A60808D00F001025242024042
:102E4000D00503D4086A20F0010008627047000032
:102E5000847F002000E0004000A800402DE9F04100
:102E60000546114FF868C0F30240A84202D1012084
:102E7000BDE8F081F86820F007002843F8600024DE
:102E80004FF6FF76F868C0F30240A84205D0012053
:102E90000CF6BCFB641CB442F4D3B44201D1002054
:102EA000E6E70120E4E7000000E00040F0B5064658
:102EB0002DED068B89B00D469FED459B202101A885
:102EC000FFF7FBFBB0EE498AF0EE698A4248C08BFF
:102ED00007F0BDFE9FED411B53EC112B07F002FDE7
:102EE00041EC1A0B102201A93046FFF795FE002491
:102EF00001AF04F1080037F8100007F0A8FE53EC0A
:102F0000182B07F03BFC41EC180B641CE4B2082CB6
:102F1000EFD351EC180B9FED330B53EC102B07F054
:102F20002BFF41EC180B0D2E02D00E2E29D046E0BF
:102F30009FED2E0B51EC100B07F014FC41EC190B1C
:102F4000688807F084FE53EC192B07F015FF41EC5D
:102F5000190B288807F07BFE53EC182B08F040F87B
:102F600053EC192B07F0BEFC9FED221B53EC112BE9
:102F700007F0B8FC53EC1A2B07F000FC41EC190BDE
:102F80001DE09FED1E0B51EC100B07F0EBFB41EC2D
:102F9000190B688807F05BFE41EC1A0BA88807F054
:102FA00056FE53EC182B08F01BF853EC1A2B07F0C5
:102FB00099FC53EC192B07F0DFFE41EC190B09B01B
:102FC000B0EE490AF0EE690ABDEC068BF0BD0000D8
:102FD0000000000000000000B045002000000000DC
:102FE00000005940000000000000C03F0000000049
:102FF0000000004079E9263108AC5CBFB76DDBB654
:103000006DDB0E4030380A2801D2012070470020C5
:103010007047704710B501F071FC10BD05F040BE5F
:1030200070B504460D462946204606F02FFF294676
:10303000204604F0C5FF2946204605F08DFA70BDF4
:1030400003490A6822F4C06242EA402008607047DF
:1030500004A80040014896F623BC0000587D0020DB
:103060000C2801D30020704700EBC000054900EB9D
:10307000400011F820201AB101EB8000001D7047BC
:1030800000207047A08700202DE9F05F05468946A3
:1030900000244FF0FF3846464FF0010A002D16D0AD
:1030A0004749032006F01AFA4649232006F016FA8B
:1030B000287970B101280CD002280AD0032808D042
:1030C000042806D0052804D04046BDE8F09FE5203E
:1030D000FBE7EFF31083012181F310883A4F04EBF3
:1030E000C40101EB410117F8212052B107EB810225
:1030F000D5F800B0D2F804C0DC4514D1127A82426F
:1031000011D104EBC40000EB400207EB8202384609
:1031100092F83120022A04D026B2012200F82120A0
:1031200004E00C2402E0641C0C2CD8D383F3108838
:103130000C2C3FD200220321244805F09BFE04EB17
:10314000C40000EB400007EB800429686160287927
:10315000207204F10C00242205F10801FFF77BFA2C
:103160001B48A0631B4820641B48E0630020606488
:10317000C4F868901949606888420AD10320FFF7B3
:103180007EFC98B9032024F605F9032024F620F9E3
:103190000CE01349884209D12320FFF770FC28B9BD
:1031A000232024F6F7F8232024F612F9201D02F03C
:1031B000BBFF8246BAF1000F00D04646304684E796
:1031C00075601000A5601000A0870020A0B320004B
:1031D000FD4B20006D4B20001D4B20000090014056
:1031E00000A001402DE9F041014600291BD0002438
:1031F0000F4E0E4A357814E002EB04100F78037876
:10320000BB420CD14B684068034208D0707808B9C3
:1032100000F094FD2046BDE8F04100F0B7BC641C0E
:10322000E4B2AC42E8D3BDE8F0810000E48F0020B6
:10323000647D00207CB505460E46002D01D000249B
:1032400018E0E5207CBD05EB041041680091017A8F
:103250008DF80410417A8DF8051007218DF80610BD
:10326000C26800780023694600F09CFA0028E9D182
:10327000641CE4B2B442E6D300207CBD10B5044621
:10328000114822784FF0FF3150F82220A2F86C103C
:10329000227850F82200A0F86E10606B002801D14F
:1032A000A16B71B120B1204600F060F8002807D171
:1032B000A06B20B1204600F009F8002800D10020C2
:1032C00010BDE42010BD0000487D002030B58BB05B
:1032D00004462C216846FFF7F0F92249A06B88428A
:1032E00002D1E4200BB030BD009094F83D008DF881
:1032F0000400207890B105200290092003904FF43B
:1033000000100490C012059000200690216C022944
:1033100006D8102107910221089105E00720EBE76C
:10332000202107910421089109900A900021684604
:10333000FFF7AAFE21780C4D55F82110A1F86E0078
:10334000002801DAE420CDE7FFF78AFE217855F85E
:103350002110C863217855F82110091D0163002050
:10336000C0E7000000900140487D002030B58BB0E0
:1033700004462C216846FFF7A0F92249606B884279
:1033800002D1E4200BB030BD009094F83C008DF8E1
:10339000040009200290207888B1042003904FF4A3
:1033A00080100490002005904FF480710691216CEC
:1033B000022906D8102107910221089105E0062074
:1033C000ECE7202107910421089109900A9000213F
:1033D0006846FFF759FE21780B4D55F82110A1F8EA
:1033E0006C00002801DAE420CCE7FFF739FE2178F1
:1033F00055F821108863217855F82110091D0163C3
:103400000020BFE700900140487D0020022801D342
:10341000E8207047074951F8200048B190F8701033
:1034200031B14068C16821F00101C16000207047DE
:10343000E9207047487D002070B5047800280BD043
:103440000F4E56F8241049B191F8702032B191F81E
:10345000711029B1EA2070BDE52070BDE92070BD72
:10346000EFF31085012181F31088FFF707FF20B9E2
:1034700056F82420012182F8711085F3108870BD60
:10348000487D002070B50446022C01D3E82070BDB1
:10349000114D55F8240048B190F8703033B139B16E
:1034A00032B190F872302BB1E22070BDE92070BDCE
:1034B000E42070BD012380F8723055F82400001D0F
:1034C00022F68EFF28B155F82420002182F87210D0
:1034D00070BD002070BD0000487D002070B504461E
:1034E000022C01D3E82070BD114D55F8240048B1DD
:1034F00090F8703033B139B132B190F872302BB1ED
:10350000E22070BDE92070BDE42070BD012380F889
:10351000723055F82400001D23F64EF928B155F8F5
:103520002420002182F8721070BD002070BD0000C0
:10353000487D0020022801D3E8207047064951F851
:10354000200038B190F8701021B14068012141612C
:1035500000207047E9207047487D0020022801D3F1
:10356000E8207047064951F8200038B190F87010F3
:1035700021B140680121816100207047E920704736
:10358000487D00202DE9F04105460F462C78002D9E
:1035900004D0022C04D3E820BDE8F081E520FBE74D
:1035A000264E05F1500046F824002878291D03F026
:1035B000B7FC0028F0D156F82410281D886656F86C
:1035C00024000760403556F824002ECD08302EC068
:1035D0001B4856F8241050F82400486056F8240080
:1035E000001D02F06DFE0028D6D156F82400001D03
:1035F00002F08AFE0028CFD111480B2203210830A7
:1036000005F038FC56F82410012081F8700056F8B7
:103610002410002081F872000A491E2005F05EFF88
:1036200009491D2005F05AFF054D2D1F285723F687
:10363000B1FE285723F6CCFE0020ADE7487D0020E0
:1036400088B32000636010005960100070B5044614
:10365000022C01D3E82070BD114D55F8240048B16B
:1036600090F8703033B139B132B190F872302BB17B
:10367000E22070BDE92070BDE42070BD012380F818
:10368000723055F82400001D22F6B8FE28B155F816
:103690002420002182F8721070BD002070BD00004F
:1036A000487D002070B50446022C01D3E82070BD8F
:1036B000114D55F8240048B190F8703033B139B14C
:1036C00032B190F872302BB1E22070BDE92070BDAC
:1036D000E42070BD012380F8723055F82400001DED
:1036E00023F67AF828B155F82420002182F87210C8
:1036F00070BD002070BD0000487D002003780121CE
:10370000064A012B00D111700378022B00D15170B1
:103710000078002801D1117051707047707D002031
:1037200003780121064A012B00D191700378022B06
:1037300000D1D1700078002801D19170D17070470C
:10374000707D002010B502460846052A25D2DFE824
:1037500002F0030303111900114951F8322001044A
:10376000090C05D022B10146104602F067FD10E0B9
:10377000E42010BD10F0FF0F02D002F079FC08E049
:10378000E42010BD10F0FF0F05D00146002002F02C
:10379000BFFE002010BDE42010BDE62010BD0000DB
:1037A000BCB320002DE9F05F05460C4690469946D3
:1037B00026680027042D11D031462846FFF7C2FFA6
:1037C0002146284600F05EF8002808D1032D08D0D5
:1037D0004FF0100A2807070E002448E0E620BDE855
:1037E000F09F4FF0080AF7E7F0073DD03DB1012DFB
:1037F00005D0022D03D0032D21D0E620EFE71E488F
:1038000000EBC50090F904B0BBF1000F15D0EFF349
:103810001081012080F31088184AE01942F83080A6
:1038200002EBC000C0F8049081F31088584623F6DC
:10383000B1FD584623F6CCFD16E0E420CFE7EFF3C8
:103840001081012080F310880D4AE01942F8308081
:1038500002EBC000C0F8049081F310881B2023F60F
:1038600099FD1B2023F6B4FD7608641CE4B2544590
:10387000BAD30020B3E70000BCB320000C8D0020B9
:103880001C8E002070B58EB005460C46474991E865
:103890004D00CDE90A02CDE90C36D1E905230869CE
:1038A00006AEC9690DC6099114224049203101A80C
:1038B000FEF7D1FED4B13E49062005F00FFE3D498A
:1038C000072005F00BFE3C491B2005F007FE3B4995
:1038D000122005F003FE35493C39A1F12C02052DDB
:1038E00061D2DFE805F0060606213900E5200EB0BA
:1038F00070BD207931F810000B90607932F810001B
:103900000C90A0790D9020680A902848543850F8FF
:10391000350021880904090C04D018B10AA902F065
:10392000C1FC39E0E420E2E7207901EB4000808A25
:103930000790607902EB4000C0880890A079099058
:1039400020680690207810F0FF0F03D006A802F040
:1039500099FB21E0E420CAE72079031F042B01D85A
:10396000E720C4E7022819D001200290207901EB5A
:103970004000008D0390607902EB40008089049044
:10398000A079059020680190207810F0FF0F08D0F2
:1039900001A9002002F0CAFD0020A8E70220029041
:1039A000E4E7E420A3E7E620A1E7000010B420004C
:1039B000CD611000C7611000C3611000BD6110002F
:1039C00002460020052A11D2DFE802F003030309B2
:1039D0000C00074850F8320089B220F6FAB888B2D5
:1039E0001BF6E0BF89B2002023F68ABC70470000B6
:1039F000BCB32000002803D00249086001207047B2
:103A0000002070476C7D002070B505460024091F1A
:103A1000062917D2DFE801F003070C111315284619
:103A200000F0A4F80EE00124284600F09FF809E019
:103A30000224284600F09AF804E0032402E004245B
:103A400000E00524034A214628461268BDE870407C
:103A5000104700006C7D00202DE9F041044620460F
:103A600000F0AEF801462E4800230826025D00F162
:103A70000A0700F11405AAB1052A33D0082A2AD171
:103A8000092945D0082926D1295D491CC9B22955E3
:103A9000142920D32B5506552046BDE8F0410821B6
:103AA000FFF7B2BF052913D0042916D0072914D077
:103AB000082910D1295D491CC9B2295514290AD3F6
:103AC0002B5506552046BDE8F0410821FFF79CBF65
:103AD0003B5505210155BDE8F0812046BDE8F04188
:103AE000FFF792BF05290CD0395D491CC9B2395581
:103AF0003229F0D303552046BDE8F0410521FFF7F8
:103B000083BF03552046BDE8F0410621FFF77CBF87
:103B100003552046BDE8F0410921FFF775BF0000BD
:103B2000C490002070B504460D4600F00FF808B1AF
:103B300000F01AF90348044A2946005D5268BDE8BE
:103B400070401047D88F0020647D00200020064977
:103B500011F810200AB100207047401CC0B20A289A
:103B6000F6D3012070470000E290002003490022B4
:103B700001F8102001EB400042707047E2900020F5
:103B8000014A02F810107047E2900020024A012119
:103B900002EB400041707047E290002070B50024B5
:103BA000064D05EB4400407810B12046FFF754FF66
:103BB000641CE4B20A2CF4D370BD0000E290002033
:103BC00070B500211D4B03F132051A5C002A09D0A3
:103BD000002403F10A06012A0AD0022A12D0032A7D
:103BE00024D11FE015F8102002B301221A541DE061
:103BF00015F810201AB1345402221A5416E01C543D
:103C0000042113E015F810204AB1325C521CD2B2E4
:103C10003254642A0AD3072103221A5406E00521EC
:103C20001C5403E015F8101011B10821084670BDAE
:103C30001C54FFF79BFF0921F8E70000B09000201B
:103C4000704700002DE9F0410F4690460A2F04D836
:103C5000B8F1000F01D0002323E00020BDE8F0817F
:103C600003EB430610F826402CB1012C03D0022CA4
:103C700001D0032C13D100EB8605124AA97AD15446
:103C8000104910F826200C3101EB031422706968EA
:103C90006160297A2172697A61720B49E1605B1C6B
:103CA000DBB2BB42DCD3074839460C30FFF7C2FA1F
:103CB00006480770C0F804800548FFF79BFE012006
:103CC000CCE70000D88F0020E5312000647D002083
:103CD000253B20002DE9F0410024124FDFF84880F9
:103CE00019E0002607EB041528786968FFF768FEDD
:103CF00010B9697A012902D0012802D005E0012615
:103D000003E0687A022800D1012631462046FFF7F9
:103D100037FF641CE4B298F800008442E1D3BDE8A8
:103D2000F0810000E48F0020647D002010B5FFF7D3
:103D3000D1FFBDE81040FFF731BF000010B5074AC2
:103D40000121074800F060F800220A21044800F031
:103D500027F904490120487010BD00002D3D2000C6
:103D600088900020647D002010B5034800F075F8AD
:103D700002490020487010BD88900020647D00201A
:103D8000002806D0002904D0024AD269002A00D0B7
:103D900010477047B08F002070B50D4616460D4C89
:103DA00000280AD00178032911D80121A176014603
:103DB0001A222046FEF70AFC05E00020A0761A2110
:103DC0000448FEF77AFCE5612662002070BD012000
:103DD00070BD0000B08F002010B5084801780029A0
:103DE0000AD101210170064893F6C4FBBDE81040DA
:103DF0000021044893F654BD10BD0000507D002002
:103E000045611000AD8D20002DE9F04104460D46BE
:103E10001746002D04D0012D02D00120BDE8F0810D
:103E2000CCB1C7B1EFF311860220FEF73CFE80460D
:103E3000FEF756FE401C0121814008EB0100C0B294
:103E400080F3118800206070A570E761F0B280F304
:103E500011880020E2E70120E0E710B50446002CBD
:103E60000CD0204600F02EF9FF2060700021A160E8
:103E7000E160216161610020E06110BD012010BDA1
:103E8000F0B5DDE90745059981614FF47A76A2FB2B
:103E9000061C03FB06C3002702FB0732C0E902121F
:103EA00009196A41C0E9041200210162F0BD000055
:103EB0002DE9F0410446002C13D0EFF311850220C8
:103EC000FEF7F1FD0746FEF70BFE401C012606FA41
:103ED00000F03844C0B280F31188124800212162FA
:103EE0000EE00020BDE8F081D4E90432D1E9047C81
:103EF000DB1B72EB0C0202D2016A216203E008466E
:103F0000016A0029F0D10462667006481038016821
:103F1000491C0160016B4160E8B280F31188012007
:103F2000E0E70000888E00202DE9F04105460024DE
:103F3000EFF311860220FEF7B6FD0746FEF7D0FD2F
:103F4000401C012181407818C0B280F31188134AC7
:103F5000106BE8B115B102F1100010E00446206AC0
:103F600010631068401E10600CE0A94206D1116871
:103F7000491E1160296A01622C4603E00846016A65
:103F80000029F2D124B1002020626070106B5060D3
:103F9000F0B280F311882046BDE8F081788E0020D1
:103FA0002DE9FF5F82460E4693464FF00008BAF1B6
:103FB000000F20D0414886421DD8E6B1EFF31187AB
:103FC0000220FEF770FD0446FEF78AFD401C012129
:103FD00081406018C0B280F31188504603F00EFB98
:103FE00010B19AF8010040B1F8B280F311880F20A7
:103FF00004B0BDE8F09F0120FAE703F0FDFE04469F
:104000000D464FF47A7106FB01F022462B46002143
:1040100003F0B8F9DFF8A890B0B1D9F8040048B1BE
:10402000D0E90410091B60EB0500C9E9021003F098
:104030005DFF04E00021C9F80810C9F80C104FF02A
:104040000108D9E9020106E0D9F80400D0E9042109
:10405000101B61EB0501CDE9020132460023CDF8CA
:1040600000B05046FFF70CFF5046FFF721FF05F068
:10407000A1F94FF0E021D1F800014FF0806210F07B
:10408000806F01D0012000E0002018B9C1F8802223
:10409000C1F80021B8F1000F0AD0D9F80400D0E926
:1040A0000431D9E90202181A61EB020103F0DAFEC9
:1040B000F8B280F3118800209AE70000008AB9075F
:1040C000788E00202DE9F04104460025002C39D0DF
:1040D000EFF311870220FEF7E6FC0646FEF700FD2F
:1040E000401C012181407018C0B280F311886078B3
:1040F000012824D1144E7068A0420BD103F07CFE3D
:10410000D4E90432181A62EB0102C6E9020203F094
:10411000EDFE01252046FFF707FF5DB1706848B14D
:10412000D0E90421D6E90203101A61EB030103F080
:1041300099FE04E01DB9706808B903F0D7FEF8B223
:1041400080F31188BDE8F081788E002070B50446B8
:104150001A4D55F82400703004F011FF82B2164653
:10416000A2B155F8240090F8011101290ED00121C7
:1041700080F80411802A0FD355F82400802200F122
:104180008001703004F010FF80260CE055F82410F8
:10419000002081F8000170BD55F8240000F1800175
:1041A000703004F001FF55F82400324600F1800120
:1041B000001D2DF629F80028EDD170BD5C8E002081
:1041C000704700002DE9F84304464B4E56F8240092
:1041D000071D062C7ED290F86C1000297AD0012998
:1041E00078D180F80111002556F82400D0E9031297
:1041F0000A44017D01F00101C91D02EB010841687B
:10420000CA6FC2F38002002AFAD090F80411E1B11B
:10421000DFF8E8906D1C56F82400001D2CF650FCC9
:1042200010280BD056F82400D9F800108068B1FB94
:10423000F0F000FB08F0B5EBC01FEBD956F82400F6
:10424000703004F09CFE85B226E0B0F82480C58C66
:10425000001D2CF653FA56F8240041F2883300EB87
:104260000801491B8031001D2A462CF67AFFE5E73C
:1042700056F8240001227030694604F095FE56F885
:1042800024004068C16FC1F340010029FAD09DF8B5
:10429000001001606D1EADB2002DE9D156F824006A
:1042A000703004F06CFE0028C8D1386841694906B6
:1042B000FCD5EFF31085012080F3108856F8240018
:1042C000703004F05CFE68B1EFF31081012080F3E0
:1042D000108800E00DE03868426842F082024260D7
:1042E00081F3108856F82410002081F8010185F32D
:1042F0001088BDE8F88300005C8E00206003002079
:104300002DE9F04105460F462C78002D05D022B14D
:10431000062C04D3E820BDE8F081E520FBE7384E09
:1043200005F1580046F82400D2E900310A46703001
:10433000194604F00FFE291D286D05F0F3FD002835
:10434000E9D156F82410281D486656F82400076065
:1043500056F824001822083005F14001FEF77BF9D9
:10436000284856F8241000EBC4056868486056F8E1
:104370002400001D02F0A2F956F82400001D02F0EE
:10438000B9F9204801220321103804F073FD56F8D2
:104390002410012081F86C0056F82410002081F8C8
:1043A000000156F8241081F8010156F8241081F814
:1043B000020156F8241081F8030113490C2005F07E
:1043C0008DF812490D2005F089F81149342005F0C7
:1043D00085F81049352005F081F80F49362005F0A1
:1043E0007DF80E49372005F079F895F9010022F69D
:1043F000D1FF95F9010022F6EBFF00208BE70000CA
:104400005C8E002054B42000AD292000BD2920007E
:10441000CD292000DD292000ED292000FD292000E4
:104420002DE9F04104461A4D55F82400703004F08F
:10443000A6FD82B2164600277AB155F8240090F8FE
:104440000111012909D0802A0ED300F180017030BA
:10445000802204F0A9FD80260BE055F8240080F8A6
:1044600000710020BDE8F08100F18001703004F09F
:104470009BFD55F8240080F8047155F8240032465D
:1044800000F18001001D2CF683FF0028EAD1E9E746
:104490005C8E002070B5062801D3E82070BD0C4D5D
:1044A00055F820407CB194F86C6066B169B162B196
:1044B000002684F8026155F82000001D2CF651FEFC
:1044C0000028EBD170BDE52070BDE42070BD000078
:1044D0005C8E00202DE9F84307460C46904604F117
:1044E000080520468FF662FE0346344E70680021B0
:1044F000A7F58042DFF8C8C0B2F5804F03D2DCF8E0
:104500000010401A0121E218824202DD0520BDE8B8
:10451000F8833068421EC2F30B02821A02F6FF7261
:10452000C2F3073211B1DCF8001000E00021DFF81F
:1045300094C0DFF89490DCF800C0D9F80090ACEBA0
:10454000090C96F80990A2EB09020CEBC202101AB2
:10455000401A001FE918814229DD00254FF4004967
:1045600011231F2249462846009573F677F800214B
:10457000084601F00DFB40B113231F2249460020DD
:10458000009573F66BF80F20C1E7707A02F038FEE1
:104590000028BCD112231F224946009573F65EF80D
:1045A000424621463846BDE8F84305F0A9BD4246DB
:1045B00021463846BDE8F84305F0A2BD90470020EB
:1045C000B8350020C4350020BC35002070B505F09A
:1045D00075F940F21A4120B140F24C4004F0E2FF7C
:1045E00003E040F22E4004F0DDFF0D4CA07850B106
:1045F000E08804F0E7FF0546208904F0E3FF294640
:1046000005F022F905E04FF461714FF47A7005F07E
:104610001BF9BDE8704002484A3004F091BA00002E
:10462000847F0020044A52F8200050F84B2F0A6083
:1046300080888880704700001419002000214FF006
:104640003040C1608161C0F8D011C1174161016281
:10465000C0F8D81103496FF4806008600220FEF7AB
:10466000D6B9000084A000402DE9F04105460E4671
:1046700014461F46204600F02BF83B4622463146A2
:104680002846BDE8F04186F691BA2DE9F04105468D
:104690000E4614461F46204600F01AF83B462246B6
:1046A00031462846BDE8F04186F6B6BC2DE9F0411A
:1046B00005460E4614461F46204600F009F83B46C4
:1046C000224631462846BDE8F04186F60DBD000081
:1046D00010B5C0B285F646FD01491438087010BD0A
:1046E0001C81002010B500F0ADF800F06DF8BDE8B9
:1046F000104000F08BB8000010B51248016821F09E
:10470000070141F0040101600A200AF67FFF0D480D
:104710008438016821F4807101600121002026F6AF
:104720001BFA01201BF6BAFF07490220087004F0AB
:1047300051FE0649322004F0D1FEBDE8104032207F
:10474000FEF790B990A80040208100208B2820001F
:1047500010B519480068C0F30B0017490831096803
:1047600021F07F41401C00EE100ADFED140AB8EE84
:10477000400A60EE200A00EE101A1149B8EE400A15
:1047800080EE801AB6EE000A31EE000ABCEEC00AD6
:1047900010EE100A486004F0B1F905F0BFF80948BE
:1047A000016841F48071016006488430016821F09D
:1047B0000701016010BD000004E400400024F44B38
:1047C000208100200CA8004000B587B003218DF89F
:1047D00004100220029005228DF80C2001208DF893
:1047E0000D0000238DF80E308DF8101005908DF817
:1047F00018208DF819008DF81A00034A022101A82B
:10480000FFF720FA07B000BD413C20007CB5102026
:10481000009002248DF804408DF8054007258DF89E
:10482000065069460420FFF72DF8402000908DF8CF
:1048300004408DF805408DF8065069460420FFF7C6
:1048400021F87CBD00B587B000F01EF803208DF87C
:1048500000001D208DF8160001208DF817008DF83E
:1048600018008DF81900044A04496846FFF794FAC5
:10487000FEF7F0FB07B000BD81482000ED482000A6
:104880000320FFF79FBC00001CB5144800904FF4B4
:10489000806001901248032202704FF4E1310164FC
:1048A000426400218164C164016501234365017490
:1048B00020244461427403760171102383604271A5
:1048C0000173084941638163022180F83C1080F83C
:1048D0003D206A460449FFF713FD1CBD40820020BD
:1048E0004086002000900140C14120000A46014658
:1048F0004FF47A730320FFF7CDBD0000052110F1BE
:10490000190F01DC022110E000F114020F2A01D876
:1049100003210AE00F2801D8042106E0A0F11402C7
:10492000192A02D932280CDB062106480268C2F394
:1049300003328A4205D0026822F4704242EA013111
:104940000160704714A8004010B50021084626F603
:1049500003F901201BF682FE0248816821F4807170
:10496000816010BD00A0004010B514480068C0F37D
:104970000000002807D0114808380068C0F3000084
:1049800008B104F07FFD0E480068C0F3000038B1A4
:104990000B4808380068C0F3000008B100F012FCB2
:1049A00004F0FEFC002807D002F07AF8002803D0BB
:1049B000BDE81040FFF7C8BF10BD000008E400408C
:1049C00008E5004010B504F07DFD00F0A7FB10BD28
:1049D00010B501F063FB03F0F1FE04F043FABDE80B
:1049E000104000F093B800002DE9FC4104468846D1
:1049F000164D4FF6FF76164F12E02968082201EB9C
:104A00000030694687F606FF082802D01020BDE86E
:104A1000FC81BDF80000B04208D12078401C207015
:104A20002078797A8842E8D30020F0E709489DF899
:104A30000010C170BDF8021081809DF8011088F847
:104A40000010217841700020E1E70000BC35002013
:104A500090470020C835002010B51248016821F0A9
:104A6000004101600F23011D0A6863F31F720A6091
:104A70000A6822F4E07242F4C0720A60016841F0F0
:104A8000004101600848016841F0010101600749E7
:104A9000312004F023FD06494FF40030C1F8000135
:104AA00010BD000004A9004088E2004095282000C5
:104AB00004E000E0F8B5EFF31085012080F31088E2
:104AC000072000906846FDF735FF0220FDF73AFF0A
:104AD00032200AF69BFD0B4C206840F0020020605B
:104AE000094E70890AF692FD206820F002002060CD
:104AF000B0890AF68BFD9DF80000FDF723FF85F3D2
:104B00001088F8BD04A90040E87F00200249014850
:104B100008607047BD701000CC05002030B4002143
:104B2000114B01EBC10202EB420213F82240012CAF
:104B300015D103EB82020579147AAC420FD1526889
:104B40000468A2420BD101EBC10000EB400003EB73
:104B50008000816E002905D030BC02200847491C26
:104B60000C29DED330BC7047A087002030B4002170
:104B7000114B01EBC10202EB420213F82240012C5F
:104B800015D103EB82020579147AAC420FD1526839
:104B90000468A2420BD101EBC10000EB400003EB23
:104BA0008000816E002905D030BC00200847491CD8
:104BB0000C29DED330BC7047A087002070B50024DC
:104BC0000D4E04EBC40000EB400016F82010012944
:104BD0000DD106EB80000546001D1CF6F7F818B154
:104BE000012801D0002070BD281D1CF671FE641C38
:104BF0000C2CE6D3012070BDA087002030B400212A
:104C0000114B01EBC10202EB420213F82240012CCE
:104C100015D103EB82020579147AAC420FD15268A8
:104C20000468A2420BD101EBC10000EB400003EB92
:104C30008000816E002905D030BC01200847491C46
:104C40000C29DED330BC7047A087002010B594F645
:104C500075FF002800D0FEE710BD00B500F00AF88F
:104C60005DF804EB01F0ACBF01480078704700002C
:104C70006097002030B5084C012525706060E26027
:104C80002361A16005488068884201D2081A00E0CB
:104C9000401A606130BD0000609700203C81002018
:104CA00010B501F067FF044618210548FDF705FD22
:104CB000034A002111702046BDE8104000F046B9BB
:104CC00060970020F0B404460E462C482C4FB9687B
:104CD0000578026244628C4201D9631A00E00B1B22
:104CE000FF689F4206D3134632462146F0BC00209F
:104CF000FFF7B3BF87699F4201D98361C261012D6C
:104D00000AD0022D27D0032D36D113463246214634
:104D1000F0BC0020FFF7A1BF44618C4203D90169B8
:104D2000491EC16002E00169491C8160D0E902129C
:104D3000914209D2114449080161012101700169C0
:104D40003046F0BC00F01EB8022101708168304688
:104D5000F0BC00F017B8C169914206D11346324643
:104D60002146F0BC0020FFF778BF03210170C16924
:104D70003046F0BC00F006B8F0BC70470897002041
:104D80003C810020054A936A5B1C93628AB2C1B2DF
:104D90000348044B406801F091BE000008970020D2
:104DA0003C810020C54C200070B505460D4C2C21DF
:104DB0002046FDF782FC0020A06040F2FF10E0607A
:104DC000FF2222614FF0FF30A061A06A401CA06268
:104DD000012020700448E9B2044B4068BDE87040EF
:104DE00001F06CBE089700203C810020C54C2000DB
:104DF0002DE9F84307460D4690462E4C20780128B1
:104E00000BD0022813D00820E06101B043462A46A7
:104E10003946BDE8F043FFF720BFE76040F2FF11DD
:104E200021612846BDE8F843022200F079B8002647
:104E300000966761684600F03FF870B1012810D015
:104E400002281FD003282DD00720E06143462A46C0
:104E50003946FFF702FFBDE8F8832846FFF7A4FFB5
:104E6000F9E70F2D06D23146A6600122681C00F03A
:104E700057F8F0E70520E06143462A463946FFF738
:104E8000ECFEE8E735B1A66001220021681E00F0C3
:104E900047F8E0E70620E06143462A463946FFF737
:104EA000DCFED8E70098E06143462A463946FFF722
:104EB000D4FED0E7E896002010B5174B17490A69D1
:104EC0008968154CDB6864698B4203D98C4201D92F
:104ED000022010BD8B4203D28C4201D2012010BDB2
:104EE0008B4201D95B1A00E0CB1A8C4201D9611ABE
:104EF00000E0091B934203D3914201D3002010BD6F
:104F0000934201D2022010BD914201D2012010BD76
:104F100002210160032010BDE89600203C810020A2
:104F200030B4074B9C69641C9C6158601A708AB24B
:104F3000C1B20448044B406830BC01F0BFBD000062
:104F4000E89600203C810020F14D200070B5054618
:104F5000064C20212046FDF7B0FB0021A160284629
:104F6000BDE870400122FFF7DBBF0000E89600209B
:104F7000F8B50E461F4C00250095E169491CE1611A
:104F80006660A260E1682161E0601B498B68834232
:104F900001D2C01A00E0181A6169814201D960612A
:104FA000A261684600F02AF858B101280ED0022804
:104FB00014D0032818D00098A062204600F0BFF853
:104FC000F8BDA562204600F0BAF8F8BD012084F8CB
:104FD00020003046A16900F077F8F8BDA16830469E
:104FE000491C00F071F8F8BDA1683046491E00F078
:104FF0006BF8F8BD349700203C8100202DE9F04388
:105000002F4A304FB96800250026D3688B4201D95A
:105010005C1A00E0CC1AFF68A74202D30020BDE86A
:10502000F083D2F82480B8F1010F10D092F820401C
:10503000012C0ED0224CD2F81CC04FF00109A769F8
:10504000A468C4450BD3A74205D10020E7E70020A0
:10505000E5E70020E3E782F820900120DFE7BCF1DC
:10506000010F11D9D2F810C08C4501D98B4203D35E
:105070008C4509D28B4207D9A74201D10020CEE747
:1050800082F820900120CAE78B4201D9012600E076
:10509000012545B1B4F5FF7F03D909210160042042
:1050A000BDE70220BBE736B10CB10320B7E70A2108
:1050B00001600420B3E70B2101600420AFE700008A
:1050C000349700203C8100208AB2C1B20248034BD1
:1050D000406801F0F3BC00003C810020714F2000CB
:1050E00070B504460E4615462C210948FDF7E5FA31
:1050F000074B002183F82010491E59615C62054866
:10510000AAB2F1B24068BDE87040034B01F0D6BCD2
:10511000349700203C810020714F200010B501F031
:10512000AFFC00280AD0FFF79FFD18B1BDE8104082
:1051300000F028B8BDE81040FFF7B2BD10BD00B5C3
:1051400000F004F85DF804EB01F03ABD0B490122D0
:105150000A71826A8A60C269CA60C2680A6142686A
:105160004A6182688A61064AC0689268904201D9A1
:10517000801A00E0101AC86170470000789700207C
:105180003C8100202DE9F04101F0F4FC074601F0DC
:1051900003FD8046094C26680948456920212046C0
:1051A000FDF78BFA761C26600020207142463946B6
:1051B0002846BDE8F041FFF793BF00007897002034
:1051C0003C81002010B50E4C2069401C206101F08C
:1051D000FDFCE06001F0CEFC606001F0DDFCA06051
:1051E000084A002111606161E3692BB182B2217923
:1051F000E068BDE810401847BDE8104001F0E0BC91
:10520000C896002000E500402DE9F04106460F4613
:105210001C4C4FF6FF75238C102B0AD32088214697
:105220006084CD835B1E0B841E22891C2046FDF703
:10523000CDF9608C3246394691F688FA10B10C20CF
:10524000BDE8F081208C102804D3401C2084608CA1
:10525000E08308E0618C24F81010208C401C20842E
:10526000608C401C608400F00FF80028E8D0218C8E
:10527000491E89B22184628C521E628424F8115026
:10528000DEE70000F894002010B5054A24214FF411
:10529000204091F65BFA08B10C2010BD002010BD33
:1052A000F89400202DE9FC41164804680834164E95
:1052B0003078002802D0002090F656FF134D4FF6AC
:1052C000FF7708226946204690F658FFBDF8000097
:1052D000B84211D080B1BDF802008EF667FFBDF86C
:1052E00002100830084481B220468FF63BFA04468B
:1052F00028688442E5D32C68307890F635FF204644
:10530000BDE8FC81BC350020B5350020C435002047
:1053100010B50021084B5A681B8809E052F831404B
:10532000844203D102EBC100406810BD491C89B220
:105330009942F3D310BD0000147F002010B5002166
:10534000084B5A695B8809E052F83140844203D126
:1053500002EBC100406810BD491C89B29942F3D3E9
:1053600010BD00001C7F002010B50021084B5A68BA
:105370001B8809E052F83140844203D102EBC1009E
:10538000406810BD491C89B29942F3D310BD00009A
:105390000C7F00200349095C002902D0002102F0A3
:1053A000C5BB7047BC96002008B51A48016821F0BB
:1053B00070010160016821F0070141F00401016002
:1053C00015490978002909D0124984390A6842F43C
:1053D00080720A60016821F007010160012003F07A
:1053E00055F80020FDF72CFE03F04EFA80B10020A6
:1053F0008DF80000A3208DF8010002208DF8020036
:10540000684691F695FC03F0E5F903F07BFA08BDD8
:10541000FEE7000090A80040F87F002070B5044629
:1054200000BFFDF765FB05460120FDF7F1FB0648CF
:10543000047024B9482205490548FDF70CF92846AF
:10544000FDF7E6FB00BF70BDFC7E0020F495002058
:10545000002000E010B5074840680749486006484A
:105460000830402203490831FDF7F5F803200249CE
:10547000086010BDAC950020002000E070B500BFB2
:10548000FDF736FB05460120FDF7C2FB094804780D
:1054900034B9482208490948FDF7DDF8FFF7DAFF7B
:1054A0000120044908702846FDF7B2FB00BF2046E2
:1054B00070BD0000FC7E0020002000E0F49500207C
:1054C00013B501216846FEF75BFC01201CBD0000FE
:1054D0002DE9F04387B00C4607276278A178CDE923
:1054E00003720020CDE9050121784FF00308CDE9D2
:1054F00000800291EE230922102172F6AFF8607845
:105500000126DFF8F890052530B1012834D00228B3
:1055100046D003286ED157E020788AF6C7FAC0EB50
:10552000C00109EB81014D72A278452A09D1CA68F0
:105530001278022A16D091F82020022A01D081F890
:10554000206091F82020012A03D0022A01D081F89E
:10555000208091F82020022A4CD0C96809780229BD
:1055600005D101E04F72ECE7A178452942D0244AE9
:105570000021126890473DE089F89950A0784528AD
:1055800005D199F89C00022801D089F89C6099F80F
:105590009C0002282ED01B4900200968884729E07A
:1055A00089F8A550A078452805D199F8A8000628C3
:1055B00001D089F8A86099F8A80006281AD01249E5
:1055C00000200968884715E020788AF6DDFA09EBA3
:1055D000001181F8B150A278462A01D0CE2A01D11B
:1055E00081F8B35091F8B310022903D0074A002183
:1055F0001268904707B00020BDE8F083F43800201F
:105600003434002038340020403400203C34002062
:105610002DE9F04186B00C46C3F30725284680F6F5
:1056200053FF0746284680F64FFF0026CDE9016567
:105630000721CDE903100220009017230922102131
:10564000304672F60BF8FF2D66D035492088088069
:1056500060884880A0888880E088C880207A0872A6
:10566000607A48720F74D4F80A20C1F80A20E289DF
:10567000CA812C4B03EBC50216605660B4F800C01B
:1056800023F835C0DFF8A08001280CD1C87B0121A8
:10569000B1EB901F07D198F81C01400703D52348B0
:1056A00041780A2931D804F10A02617A164628465F
:1056B00093F630FA617A324628468CF607FC1C4C89
:1056C0006FB1002088F614F9206828B1836B1BB1F4
:1056D000134A00212846984788F652F91CE0032017
:1056E00088F8A800D8F8AC000078012814D1002070
:1056F00088F6FEF8206828B1836B1BB1084A0021A8
:105700002846984788F63CF906E006700449074A9F
:105710000A3128468AF65CFF06B00020BDE8F08119
:1057200090380020A2380020F438002040350020B6
:1057300084330020FEB50E461C46B07800250127B4
:10574000CDE900750290182309221021284671F630
:1057500085FFEFF311811C4802781C480068C0F3F4
:105760000220401C8740D019C0B280F31188C4F3D6
:105770000724174A02EBC400056045604FF6FF702E
:1057800022F83400C8B280F31188204693F642FA1A
:1057900020468CF60DFC204693F628F9204600F0B2
:1057A0001BF8002088F6A4F80A48006838B1C36BDB
:1057B0002BB1B0789030C2B200212046984788F6CD
:1057C000DFF80020FEBD000002E400E00CED00E088
:1057D000A23800208433002070B5064600240D4D09
:1057E00005EB041090F8B11007290DD1D0F8BC10CA
:1057F0000A79022A08D14979B14205D190F8B80056
:1058000010B920467FF6ECFC641CE4B2052CE7D30B
:1058100070BD0000F43800202DE9F041002700257C
:1058200000266FF488540419184806D0012C07D0BC
:10583000022C0CD0032C0CD105E00568466808E06A
:105840008568C66805E08569C6690B7801E0056969
:105850004669002414E035F8340098420FD105EB76
:10586000C400446874B1A4F54F30F93803D098B23D
:10587000A047074606E098B201F012F802E0641C67
:10588000B442E8D33846BDE8F0810000D80F0020CC
:105890002DE9FC410E4629A003C8CDE900016A4666
:1058A0003146012013F6F8FF0746012F43D1304659
:1058B00011F616FB0446200037D111F6A5FB05466C
:1058C000FF2D09D03078A02808D0A1280CD0A2281C
:1058D00016D0A32819D10DE04B2426E031462846E6
:1058E00011F6F4FF044610E03146284614F696F906
:1058F00004460AE03146284600F064F8044604E015
:105900003146284612F656FF044674B9707860B9DD
:105910000C4890F87410C90707D000EB8501C968DE
:10592000C26E8A61B0F87000888324B1064A2146AD
:105930000120126890473846BDE8FC81A0A1A3A2CF
:105940000000000084190020E80600202DE9F04145
:1059500002460F461E460020002400256FF48851A1
:10596000511804D0012906D003290CD107E01249AF
:105970000C684D6807E011490C684D6803E0104958
:105980000C684D683E78002212E034F83210B142C3
:105990000DD104EBC201496800290BD00846FFF77E
:1059A000B7FC0246B0B23946BDE8F0411047521C80
:1059B000AA42EAD3BDE8F0811C07002014070020AA
:1059C0000C07002070B500253C2111F671FA044641
:1059D0008CB103206073012012F674FD60610748EA
:1059E0002060074860600748A0600021204611F64B
:1059F0007FFA284670BD4B25FBE700008197010028
:105A0000095A2000059501007CB504461D4D207BF8
:105A100085F88000207CC10707D020F001002074A9
:105A20002046BDE87C4013F699BEA07B022806D034
:105A3000204613F644FEFF2085F881007CBD94F8D3
:105A400038000CF609FFA0F57F41FF390ED094F81D
:105A500038000CF601FF014600200A22CDE90020A3
:105A600003460246204613F6DFFC02E0204613F60A
:105A700026FE94F838200121286D9140884328653E
:105A80007CBD0000841900202DE9F8430C463BA0A2
:105A9000006800906A462146002013F6FDFE074686
:105AA000012F62D1607800F00F084FF00009A18C3F
:105AB000608C12F657FB08B1402550E0304E86F856
:105AC000749086F8729003F62DFE2E4920460968E0
:105AD00088470546280042D102206CF6CFFE86F8A2
:105AE000728012F6DBFF86F87B9094F82A0086F825
:105AF0007A0096F87200800820D04120E17E86F876
:105B000075108A0704D421F0020086F8750017206A
:105B1000E18C4FF40062914200D31146884200D9D3
:105B2000014689B2A6F87610228D8A4200D211462B
:105B3000884200D80846A6F8780001E086F87590FB
:105B40000F48102204F10A015C30FCF73FFDA07EF3
:105B5000C00704D06068F0662089A6F870003DB1E7
:105B6000094A29460020126890473846BDE8F88364
:105B7000064A0021084612689047F6E70300000035
:105B800084190020FC060020E8060020F80600200A
:105B90002DE9F04F8DB008220C9200220B924FF0AD
:105BA00008080A92099100269A4FDFF86CB24FF06C
:105BB000010A002848D0082204A9386886F62AFE7F
:105BC000082803D00F200DB0BDE8F08F9DF810001D
:105BD000A52806D09148C1880C91447880780B9014
:105BE00046E09DF81100DBF80010022201EB0030C6
:105BF000083001A986F60EFEBDF80410A1F57F401D
:105C0000FF380AD09DF81100DBF8001001EB0030DE
:105C10004FF4805190F680FA90B19DF81200BDF8D3
:105C200016100C919DF81110491CCCB20B9009ABC9
:105C30000CAA0BA904A804F0B5FB012802D017E0B8
:105C40001020C0E70020BEE7FFF72CFB411EC1F388
:105C50000B01401ADBF80010401A00F6FF70FF211C
:105C600001EB1030C4B20B9414B1CDF824A001267E
:105C700094F622FAC7E00025069507955CB1DBF89B
:105C80000000042200EB043006A986F6C3FD0428B8
:105C900001D00F2097E7614805604560A52101709C
:105CA00044709DF82C108170BDF83010C1809DF8B3
:105CB0001810C170BDF81A108180DBF8000000EBED
:105CC000043040440A90386800EB080108914FF412
:105CD000805190F621FA50B19DF818204AB1012365
:105CE00008A90AA804F032FB18B10F206BE71020B6
:105CF00069E7BDF81A203AB1002308A90AA804F000
:105D000025FB08B10F205EE7C4F100090A98DBF813
:105D10000010401A00EB0930C0F58055082D2CDD2D
:105D2000082302AA08A90AA8CDF800A094F6D6FD77
:105D300008B10F2047E7BDF80810A1F57F40FF38F4
:105D400030D0083DBDF80A008EF630FABDF80A10D2
:105D50000844A84208DDAAB2002308A90AA804F052
:105D6000F5FAC8B10F202EE782B2002308A90AA8CD
:105D700004F0ECFA80B10F2025E7A8B28EF616FAEF
:105D8000284483B2264A08A90AA8CDF800A094F6B0
:105D9000A5FD08B10F2016E73868089900F5805076
:105DA0008142B3D308221D49386886F681FD082850
:105DB00001D00F2007E7DBF800004FF4805100EB23
:105DC000043090F6A9F960B176B1DBF80000042246
:105DD00000EB043006A986F66BFD042803D00F20E3
:105DE000F1E61020EFE6002609AB0CAA0BA90B4840
:105DF00004F0D8FA012802D018B10F20E3E6002001
:105E0000E1E6641CE4B20748407AA042BFF433AF35
:105E10000020D8E6C0350020BC350020C835002061
:105E20006446002090470020024600210BE008480D
:105E300050F83130501E834204D1054800EBC100B8
:105E400040687047491C1029F1DB0020F9E7000089
:105E50003C960020002101E0491C4008C207FBD00D
:105E6000084670470248006800F4807070470000E0
:105E700040A3004010B503F021FD50B14FF48C64F5
:105E80002146204603F08EFB2146204603F0DCFC31
:105E900009E040F24C442146204603F083FB2146B2
:105EA000204603F0D1FCBDE81040014802F048BE96
:105EB000D87F00200148407870470000847F002090
:105EC0002DE9F04704460D464FF0000800BFFCF7EF
:105ED0000FFE81460120FCF79BFE2D48006810282C
:105EE00002D34FF0FF384BE048222A492A48FCF7FA
:105EF000B2FB482229492748FCF7ADFB2848244932
:105F0000096840F831402249096800EBC10045604A
:105F100027884DF6FF7624F0010425F0010504F0F2
:105F2000030080B1A01E40F001011A480830184A51
:105F3000126840F8221007EB06401A49144A12680A
:105F400041F822000CE044F0010112480830104AE8
:105F5000126840F8221013480D49096840F8216082
:105F600048220C490D48FCF776FB48220A490948AB
:105F7000FCF771FB06480068401C0549086000BF3B
:105F80004846FCF745FE00BF4046BDE8F0870000EC
:105F9000007F0020002000E0F4950020AC95002058
:105FA0003C9600200099002070B5044600BFFCF725
:105FB0009FFD05460120FCF72BFE002011490870CB
:105FC00011481249086012481249086048221249D3
:105FD0001248FCF740FB12480F4948600320086054
:105FE00048221048FCF737FB48220C490A48FCF7C6
:105FF00032FB882C01D003F0EBFD2846FCF708FEAD
:1060000000BF70BDFC7E00201D542000843800209D
:106010007D54200080380020002000E0F49500200E
:1060200000990020AC9500202DE9FE430546002490
:1060300003208DF8000000260C4F4FF00108E80700
:106040000BD008FA04F0019007EBC40040680290FE
:1060500057F8341009B168468847641CA4B26D082B
:10606000761C082EEBDBBDE8FE8300001C8E0020B2
:1060700010B50446002019F6A3FC2046BDE81040E8
:1060800019F632BC10B50446034819F699FC2046AF
:10609000BDE8104019F640BC3C7F002000B501204F
:1060A00003F026FC02490148086000BD7970100029
:1060B0001400002010B5EFF31084012181F3108843
:1060C0001AF6B2FA0348006808B900F005F884F33C
:1060D000108810BDD005002010B593F633FE0028BF
:1060E0001ED1EFF31084012080F310880D48016861
:1060F00041F0040101600B49083108684007FCD5F4
:1061000004F00CFB012001F03FFB012001F03CFBFF
:1061100004481C38016821F05001016084F31088A4
:1061200010BD000040A40040F0B58DB00446002C26
:1061300006D094F82D00314E314F002518B111E0F2
:1061400001200DB0F0BD84F82C5020682D49B042DC
:1061500002D1C1F88C5303E0B84201D1C1F8905389
:10616000C1F808510221204609F6D6FB01A840F6E5
:10617000FDF9A0680A90E0680B9060690590A0693D
:106180000690E0690790206A089020690390606A91
:106190000490A06A0C90217901AA206801F010FBFC
:1061A00065640121204609F6B7FB204609F6D4FBB9
:1061B0000021204609F6DEFB20680121124AB04288
:1061C00009D1237910789940084310700F490020B5
:1061D00024F610FC0AE0B84208D12379507899409F
:1061E000084350700949012024F604FC012120468F
:1061F00009F64EFB84F82C500020A2E700900140E5
:1062000000A0014000D01D42387F00201162200014
:1062100070B5054600240120002D00D170BD55F851
:10622000241021B108461AF6A7FF012804D0641CE7
:10623000E4B2062CF3D370BD012070BD70B50446E6
:106240000D4600201DF6CEFC29462046BDE87040D4
:106250001DF68CBC2DE9FE4380460F463846FFF7FD
:10626000F9FD85B20024DFF834900D4E59F8340062
:1062700040450ED105EB041085B28DF80040019722
:1062800006EBC5004068029056F835200AB1684612
:106290009047641C032CE9DBBDE8FE83BCB32000FF
:1062A0000C8D002070B504460D4604481DF69AFC7E
:1062B00029462046BDE870401DF689BC407F00207D
:1062C00010B50446002020F615F92046BDE8104020
:1062D0001FF6BEBE1CB50446204600F00FFE00228D
:1062E0008DF80020216C0191064951F8203083F887
:1062F000722051F820000168002901D068468847C3
:106300001CBD0000487D002010B50446034820F65F
:10631000F1F82046BDE810401FF652BF447F002030
:1063200070B504462068816B01F0330515F0220F2B
:106330003AD0202101F0F2FA20B90221206801F0C0
:10634000EDFA48B32068C16B41F03301C1632068A6
:10635000016C416C3A49884203D1C16821F00101C6
:10636000C160A80603D5206C40F010002064A80787
:1063700003D5206C40F020002064206801F0BCFAB6
:1063800058B1616B2F480864A16B0864606B1AF602
:1063900091FBA06B1AF68EFB06E00121204638F631
:1063A000EDF92046FFF796FFE80726D00121206887
:1063B00001F0B4FA08B3216B20468847A06AE0B91F
:1063C0002068C16B41F00301C16394F83D002228AD
:1063D00004D094F83D00322808D00EE00121204678
:1063E00038F6CCF9204600F031F806E001212046CD
:1063F00038F6C4F9204600F069F8E8061ED51021E9
:10640000206801F08BFA002818D0E06920B12046FE
:10641000E16ABDE8704008472068C16B41F0300177
:10642000C16394F83D00122808D10121204638F6B6
:10643000A5F92046BDE8704000F02AB870BD000004
:1064400000F20040BDE20300704770471CB50446EF
:10645000204600F053FD02218DF80010616AA26A07
:10646000891AADF8041021684A6822F001024A60D6
:106470000649002251F8203083F8722051F820009C
:106480000168002901D0684688471CBD487D00206E
:106490001CB50446204600F031FD01218DF80010A6
:1064A000A169E269891AADF804100749002251F880
:1064B000203083F8722051F820000168002901D0B3
:1064C000684688471CBD0000487D00201CB5044676
:1064D000204600F013FD03218DF80010616AA26AC6
:1064E000891AADF8041021684A6822F001024A6056
:1064F0000649002251F8203083F8722051F820001C
:106500000168002901D0684688471CBD487D0020ED
:1065100070B504460D46002020F600FF29462046AF
:10652000BDE8704020F6DABE7047000070B5044642
:106530000D46044820F6F2FE29462046BDE870408C
:1065400020F6DCBE5C7F00202DE9F0410020FDF745
:10655000EBFC0546214FD5E90412C7E90212204899
:10656000081A72F11E0017D307F110000EE0D6E9E9
:106570000412D7E90234B1EB030C72EB040C04D320
:10658000C91A62EB0402C6E90412006A066A002E08
:10659000EDD10021B960F960A87801280AD1D7E9C6
:1065A0000230D5E9021259185041C5E904102846B5
:1065B000FDF77EFC786840B1D0E90431D7E90202EA
:1065C000181A61EB020101F04DFCE969002903D0C2
:1065D000A869BDE8F0410847BDE8F081788E002049
:1065E0000010C32C70B504460D46044824F6C6FAC4
:1065F00029462046BDE8704024F672B9496520005E
:1066000009484178002907D101214170074A1268E1
:1066100002F0030202B90170007810B1044800686A
:1066200070470448006870473A7F00203CA500404E
:10663000248100205C0300201CB503F061FC0521CF
:106640008DF800100649002251F8203083F800210F
:1066500051F820000168002901D0684688471CBD18
:106660005C8E00201CB503F04BFC04218DF800105B
:106670000649002251F8203083F8002151F820000B
:106680000168002901D0684688471CBD5C8E002047
:106690001CB503F035FC03218DF8001006490022DB
:1066A00051F8203083F8002151F8200001680029BA
:1066B00001D0684688471CBD5C8E00202AF628B9A8
:1066C0001CB50446204603F01BFC00228DF8002078
:1066D000E16B0191064951F8203083F8002151F80F
:1066E00020000168002901D0684688471CBD0000D1
:1066F0005C8E002010B5044603482AF67BFC204639
:10670000BDE810402AF676BA607F002070B50446D6
:106710002268906800F00F000021022809D00428A8
:106720000CD0062816D00C2844D1A06901280BD023
:106730000BE02046BDE8704003F062BC2046BDE897
:106740007040002171F6B8BA01212046BDE87040C2
:1067500071F6B2BA5069E16B00F01E000143E163CB
:10676000D06FC0F3C00018B10021204671F6A4FA22
:10677000E06B4FF0000580071DD5204671F637FA13
:1067800094F83500012804D02046BDE87040FFF79A
:1067900097BF206B48B10A490164206B1AF68AF949
:1067A00030B1206B016C884702E02046FFF788FF7C
:1067B00084F8355070BD2046FFF782FFE56370BD59
:1067C0001D7A0700704770471CB50446204603F049
:1067D00097FB02218DF80010218D628D891AADF88A
:1067E0000410044951F820000168002901D06846CE
:1067F00088471CBD5C8E00207CB50546284603F00A
:106800007FFB044601208DF80000288C698C401A1B
:10681000ADF804000C4D55F8240090F8040118B1AF
:106820002046FDF793FC02E02046FDF7F9FD55F800
:10683000240090F80011002904D10168002901D03A
:10684000684688477CBD00005C8E00202DE9F04F33
:1068500087B0046845688668C768D0F81080D0F8AB
:106860001490D0F818A0D0F81CB04FF480610A48FA
:10687000FBF723FF8DE8C00F2B4622460749064849
:10688000FBF788FC0448FBF79BFC07B081B2BDE82E
:10689000F04F0148FEF7B8BCF890002038B5200052
:1068A00070B50C46154628463AF614F9C5F3072587
:1068B0003F281DD028460BF6F3FF0346A278217926
:1068C00028460CF64DFE0B4850F82500C268FF2AFA
:1068D00009D0207808B1903000E00020C3B2012137
:1068E00028460CF650FE22796188284611F65CFB9A
:1068F000002070BD141900202DE9FC4104460F460C
:1069000012254FF000082178012946D8601C68F64E
:10691000F3FE264E142807D200EB800006EB400061
:1069200090F81505C0F340082178601C6AF662FDF6
:106930000A2832D30025C5EBC50000EB45103044D2
:106940008079FF2803D06D1CEDB20A2DF3D30A2DF8
:106950002AD02078CDE9000804F117039846E21DFB
:10696000611C28465EF6D8FCC5EBC50101EB45115C
:106970008D192078A871D4F801002860B4F80500BA
:10698000A880E81D10224146FBF720FE05F1170004
:106990001022E11DFBF71AFE00252946384668F64D
:1069A0007DFE0020BDE8FC810725F6E75822002087
:1069B00070B50D4600220A4CFF23C2EBC20000EB6B
:1069C000421020448371521CD2B20A2AF5D35EF6DB
:1069D0003FFD0021284668F661FE002070BD0000E2
:1069E0005822002070B50D4610F8011B6AF602FD12
:1069F00004460A2C0CD220465EF6A0FDC4EBC4016E
:106A0000064A01EB44111144FF208871002100E087
:106A10000221284668F642FE002070BD5822002060
:106A200010B50A460078012806D800B101200549B2
:106A300081F81206002100E01221104668F62EFEB1
:106A4000002010BD5822002070B504460D46E079A4
:106A500001280ED8217801290BD8601C6AF6CAFCDF
:106A60000A2804D2E1795EF643FD002102E002210A
:106A700000E01221284668F611FE002070BD0000DB
:106A800005484069002804D00448006808B1002087
:106A90007047012070470000C8960020D8050020EC
:106AA00000B5FFF7EDFF20B10348806908B1012070
:106AB00000BD002000BD0000C89600202DE9F04177
:106AC00005460C4616469846FFF7DAFF002847D0E1
:106AD0000121002024F640F8012019F6DFFD214FA6
:106AE000012078613D607C60BE60C7F81C8000209A
:106AF000B8611D4D286820F001002860204600F094
:106B000041F8304600F050F8174CDFF85C80174E23
:106B1000143408F10C08B06840F48070B0600220B2
:106B200000F0D6FE386800F0DDFE206840F001007D
:106B30002060206840F002002060286840F00100DA
:106B40002860D8F8000020F07F400028E3D00849F2
:106B5000322002F0C3FCBDE8F0413220FBF782BFD7
:106B6000BDE8F081C896002000E5004000A000408C
:106B70008B2820000248006800F00F0070470000DA
:106B800054A8004003490A6822F00F0202430A6039
:106B90007047000054A8004002480068C0F3084055
:106BA0007047000050A8004003490A68034B1A4090
:106BB00042EA00400860704750A80040FFFF00FE16
:106BC0000149012088617047C89600202DE9F041F5
:106BD0002DED028B1648006820F07F400022144BF8
:106BE000083B1B68C3F30B041146641C0D4647F6B3
:106BF0001223A0FB032701FB0371002600FB0611F3
:106C0000104604F00EFB08EE100A2046294604F058
:106C100008FB00EE100A0749C8EE000ABCEEE00AC5
:106C200010EE100AC860BDEC028BBDE8F0810000D8
:106C30000CE50040208100202DE9F05F80468B4666
:106C40001F464FF00009C2F307400004C7F30721B5
:106C500040EA012AD0B24AEA000A002400263B4654
:106C60005946404685F62DFD08B1154C0DE0FDB2A4
:106C7000042D1DD0062D1DD0072D1FD0082D1BD093
:106C8000A8F510600A2800D20E4E3CB1A2884046FA
:106C900021688DF635FDFEF767FB06462EB13B46B3
:106CA000524659464046B04781464846BDE8F09FA7
:106CB000054CEAE7054CE8E7054CE6E7054CE4E758
:106CC0005036002065A408005434002070340020A1
:106CD0001C340020443400202DE9F041ADF5006D56
:106CE0000226770239460DF58060FBF7E6FC39464F
:106CF0006846FBF7E2FC51495148FCF743FC30B1D0
:106D000050A0FBF73BFA0DF5006DBDE8F0814C4853
:106D10005B49C430FCF736FC18B14AA0FBF72EFAE9
:106D2000F1E700200DF580616A464FF400730025FD
:106D300021F8100022F81050401C9842F8D3404827
:106D4000FCF77AFB18B13FA0FBF718FADBE73C48E9
:106D5000C430FCF771FB18B13AA0FBF70FFAD2E789
:106D60003748006C022800D9042646A0FBF706FA33
:106D70000120FCF7F3FB0120FCF7DCFB0020FCF713
:106D8000EDFB0020FCF7D6FB2D4C241F2570E57091
:106D90004FF48078424669460020FCF773FB424678
:106DA0000DF580610120FCF799FB20780028FCD0CC
:106DB000E0780028F9D0022008F622FC0120FCF738
:106DC00025FB33463A46694635A001F095FF4FF45E
:106DD0007A7008F615FC3AA0FBF7D0F90120FCF711
:106DE000BDFB0120FCF7A6FB0020FCF7B7FB002051
:106DF000FCF7A0FB6570A57039466846FBF75DFCA3
:106E000042460DF580610020FCF768FB424669466A
:106E10000120FCF737FB60780028FCD0A078002820
:106E2000F9D0022008F6ECFB0120FCF7EFFA33461C
:106E30003A46694629A001F05FFF64E7FD3620006D
:106E4000747D00200D0A4932534D20696E697469C2
:106E5000616C206661696C65642120506C656173AA
:106E60006520636865636B2074686520696E707562
:106E70007420706172616D656E74732E0D0A00006E
:106E8000213720000D0A4932534D20646D6120776F
:106E9000726974652073746172742E0D0A000000AB
:106EA000506C6561736520636865636B204932537C
:106EB000532052656365697665643A2000000000DE
:106EC0000D0A4932534D20646D6120726561642062
:106ED00073746172742E0D0A00000000506C6561BD
:106EE000736520636865636B204932534D2052659A
:106EF0006365697665643A2000000000014602205F
:106F00000968054A914201D100207047034A914225
:106F1000FBD101207047000000F0004000F200406B
:106F20001CB50C46204881694069CDE90001207AF2
:106F30008DF8050003208DF80400606800906078EB
:106F40008DF8060020786946FCF79CFC002829D1C2
:106F5000207D8DF8050020690090607B8DF806008B
:106F6000207B6946FCF78EFC00281BD194F820009A
:106F70008DF80500E0690090607E8DF80600207EA7
:106F80006946FCF77FFC00280CD12434207A8DF868
:106F900005006068009060788DF8060020786946EA
:106FA000FCF770FC1CBD000084B320002DE9F0410B
:106FB000ADF5006D0226770239460DF58060FBF7CE
:106FC0007CFB39466846FBF778FB002033020DF561
:106FD00080616A46002521F8100022F81050401CFC
:106FE0009842F8D341494248FCF7CCFA30B141A06D
:106FF000FBF7C4F80DF5006DBDE8F0813C484C4945
:10700000C430FCF7BFFA18B13AA0FBF7B7F8F1E7C4
:107010003748006C022800D9042646A0FBF7AEF8DA
:107020000120FCF79BFA0120FCF784FA0020FCF712
:1070300095FA0020FCF77EFA2D4C241F2570E57090
:107040004FF48078424669460020FCF7FFFA42463A
:107050000DF580610120FCF725FB20780028FCD08D
:10706000E0780028F9D0022008F6CAFA0120FCF7DF
:10707000CDF933463A46694636A001F03DFE4FF45D
:107080007A7008F6BDFA3BA0FBF778F80120FCF710
:1070900065FA0120FCF74EFA0020FCF75FFA0020A9
:1070A000FCF748FA6570A57039466846FBF705FBA2
:1070B00042460DF580610020FCF7F4FA424669462D
:1070C0000120FCF7C3FA60780028FCD0A0780028E3
:1070D000F9D0022008F694FA0120FCF797F933461C
:1070E0003A4669462BA001F007FE83E7FD362000F3
:1070F000747D00200D0A4932534D20696E69746910
:10710000616C206661696C65642120506C656173F7
:107110006520636865636B2074686520696E7075AF
:107120007420706172616D656E74732E0D0A0000BB
:10713000213720000D0A4932534D20696E74657263
:1071400072757074207772697465207374617274DB
:107150002E0D0A00506C6561736520636865636B72
:1071600020493253532052656365697665643A203D
:10717000000000000D0A4932534D20696E7465729B
:107180007275707420726561642073746172742EFC
:107190000D0A0000506C6561736520636865636B60
:1071A000204932534D2052656365697665643A2003
:1071B0000000000070B50024104E56F82400B8B14D
:1071C00090F87010012913D1001D1EF65EFF0128F2
:1071D00002D008B1002070BDEFF31085012080F3CC
:1071E000108856F82400001D1FF670FA85F31088E9
:1071F000641C022CE1D3012070BD0000487D0020FA
:107200002DE9F04F87B05B490E6808364FF0000B50
:10721000CDF818B0584F787208213960C0EB402083
:107220006FF00B0101EBC00806A800F0DBF820B1FD
:107230009DF818100120FEF7ABFC08F108007860FB
:107240004FF001094FF0000A4C48007810B10020BF
:107250008EF68AFF042204A930468EF68FFFBDF811
:107260001010A1F57F40FF3829D0082204A930462C
:107270008EF684FFBDF8120000F108048CF696FF2C
:107280000546BDF8100090B304A893F6A5F9C8B15F
:1072900078686119401A7860002822DA0E231F22CC
:1072A0004FF400410020CDF800B070F6D7F9334814
:1072B00000788EF659FF0E2007B0BDE8F08F4FF032
:1072C000010A22E00C231F224FF400410020CDF8D8
:1072D00000B070F6C3F9294800788EF645FF0B2000
:1072E000EAE74FF00009314604A892F6F3FE601970
:1072F00081B230468DF636FA06461E480068301ACE
:1073000038601F4800688642A4D31C4800788EF677
:107310002BFFBAF1000F05D0B9F1000F04D0C7F868
:1073200004800AE00D20C7E77868082802DD0838E5
:10733000786002E03872C7F804B07868012205214D
:1073400040450BD8CDE9002102900F231F224FF4B6
:107350000041002070F682F90020ADE7CDE9002160
:10736000102302901F22D902002070F677F90E2018
:10737000A2E70000BC35002090470020B535002072
:10738000C43500202DE9F04705460E4617469846BD
:10739000EFF311840220FBF786FB8146FBF7A0FB8D
:1073A000401C0121814009EB0100C0B280F311882B
:1073B0000B48406848B1E81B76EB08060AD2E0B2F9
:1073C00080F311880120BDE8F087E0B280F31188D6
:1073D0000120F8E7E0B280F311880020F3E7000015
:1073E000788E00202DE9F04F85B00746DFF8FC913C
:1073F000D9F8004008342646DFF8F48108226946AF
:10740000D8F8000085F606FA082803D0002005B059
:10741000BDE8F08F9DF80000A5280BD0DFF8D4B1AF
:10742000DFF8D4A1082202A9204685F60DFA082823
:1074300042D0A4E001254FF6FF761EE0082202A903
:10744000204685F601FA082817D1BDF80800B04299
:1074500013D0BDF80A008CF6A9FEBDF80A1008305A
:10746000084481B220468DF67DF90446D8F8000024
:10747000844202D33D700120C9E79DF80210D9F87B
:107480000020BDF8060002EB01310844A042D5D827
:107490009DF80210D9F80020BDF8060002EB01317A
:1074A0000844A04201D23D7003E002D14FF0000039
:1074B00038704FF00100AAE7BDF80810A1F57F4031
:1074C000FF3837D02646BDF80A008CF66FFEBDF8AF
:1074D0000A100830084481B220468DF643F904466C
:1074E000D8F8000084424AD3701EC0F30B00D9F8CC
:1074F0000010301A401A00F6FF70C0F307350495EB
:10750000394604A8FDF770FA98BB387888B39AF822
:107510000300C0F108003044411EC1F30B01411AC1
:10752000081AC0F10100AAF806006D1E8AF8025080
:1075300001206CE7601EC0F30B00211AD9F800008F
:10754000081A00F6FF70C0F3073504959BF8090090
:10755000A84201D100205AE7D8F80020944209D26D
:10756000401EA84206D101F6FF71914202D10020CF
:107570004DE704E0394604A8FDF736FA30B1D8F8F3
:1075800000008442FFF44EAF002040E79BF8090062
:107590009DF81010884226D03878B0B19AF80300D0
:1075A00038B1C0F1080081B230468DF6DBF80446F0
:1075B0000BE0BAF8040040B1241A601EC0F30B00BF
:1075C000201AC01DA04200D9083C601EC0F30B0069
:1075D000201A001BC0F10100AAF806006D1E8AF8EF
:1075E0000250012013E7002011E70000BC35002005
:1075F000C035002090470020C8350020002805D065
:10760000C16919B1807818B1012801D000207047F4
:10761000012070472DE9FF4F89B00C461546E288DE
:1076200021890120CDE90502CDE907012278A18851
:107630004FF0000ACDE901A2CDE903010420402367
:1076400000900D221946504670F608F8C5F3072839
:10765000A188404613F67CF90646D1460B2E48D247
:107660002789300440EA08218B468A1D2078891D2D
:10767000A0B100204A3083B240F6132039F662F9F7
:107680000546A5F802A021782970207800B10027CE
:10769000AF80A07A2872207810B116E03846E9E76A
:1076A0000420E880208900F14A01089104F10A01D0
:1076B000CDE90010114FAA1C08AB3F68291D4046B8
:1076C000B847A088E88028782870A28831464046CC
:1076D00008F658FC284639F681F96CF6F1F94A2883
:1076E00007D14BF04A0120460C9A39F65EF94FF06B
:1076F00001090DB04846BDE8F08F000018090020D0
:1077000002480068C0F380507047000014A8004091
:1077100003490A6822F4F81242EA00400860704700
:1077200014A8004003490A6822F4F85242EA0020F3
:107730000860704798A8004003490A6822F4706204
:1077400042EA00200860704794A8004003490A6894
:1077500022F4C05242EAC0200860704704A80040EA
:1077600003490A6822F00F0202430A6070470000D2
:1077700094A8004003490A6822F0030202430A6009
:10778000704700003CA6004005498A6922F00102CA
:1077900002438A618A6922F0010202438A617047CA
:1077A00000A0004005490A6822F0070202430A606F
:1077B0000A6822F0070202430A60704700A00040F6
:1077C0002DE9F04106460D461446D6F89803C0F35D
:1077D0000000012700286AD02946304600F06EF8E4
:1077E00050B105F108008740C6F8A073294630461D
:1077F00000F064F80028F9D14FF4606000EB451107
:1078000005EB450000EBC50006EBC005296404212B
:1078100069640021A961E9612269A1681143D4E981
:1078200005231A431143E2691143AA69214B1A4007
:107830000A43AA61296C21F440612964E1682A6C39
:1078400022F040420A432A64296C1B4A11402964F1
:10785000216846F830106068A860206AE9696FF313
:107860000B010143E961D4E9091230463EF67CFA86
:1078700094F8240000F00F006062696C21F4F0615C
:1078800041EAC010686494F8280000F00F00A0627C
:10789000696C21F4F04141EAC0206864E06A296C17
:1078A00021F0E001014329640120BDE8F081C6F820
:1078B0009873A1E74900CEFFFFFF0FC0D0F8A003E7
:1078C00001228A40104201D00120704700207047F9
:1078D00003490A6822F0FF0202430A607047000071
:1078E00020E5004003490A686FF30B0202430A6077
:1078F0007047000004E50040064A0749904204D161
:10790000D1F86C02C0F300007047D1F86C02C0F3EC
:107910000010704700F2004000E00040C06B0842D9
:1079200001D10120704700207047000003490A6818
:1079300022F0030202430A60704700003CA50040A9
:10794000002909D001290CD002290AD0032908D026
:10795000842304A200F6F2B91278084B04211B68B4
:10796000184770476C6C635F63685F636C61737327
:107970005F70617463682E6300000000C40900201A
:10798000002909D001290CD002290AD0032908D0E6
:10799000B52304A200F6D2B91278084B04211B6863
:1079A000184770476C6C635F63685F636C617373E7
:1079B0005F70617463682E6300000000C8090020D6
:1079C000084602490160114645F67ABD417920001A
:1079D000084602490160114645F672BD81792000D2
:1079E00030B4064C2478002C04D1054C2588CD8178
:1079F00064888C8130BC45F68DBF0000440A0020AD
:107A0000087F00202DE9F04780460F461546414883
:107A100050F828900121404646F62EFE04460026E6
:107A2000204646F6A3FEB8420BD0142F00D03D25C9
:107A30003D2D04D101222946404642F633FB012662
:107A40005DE0204646F692FE0A380A284CD2DFE86E
:107A500000F0050B10151A262C32464822464946DE
:107A6000404647F6EFFB4AE02146404648F6A0F97B
:107A700045E02146404648F64FF940E02146404661
:107A800048F662F93BE0218F04F10802404643F6D4
:107A9000C4F80F224146204646F66AFE2FE02A46E9
:107AA0002146404648F678FA29E04A4621464046B3
:107AB00048F624FA23E040F2622007F6A7FD2146AB
:107AC000404600F07FF8D4B115B194F83A00B0B157
:107AD00094F83A202946404642F6A6FF0FE00126D8
