:020000040020DA
:1020000000000820592020006120200001601000FD
:10201000F7212000ED212000FD212000000000001C
:10202000000000000000000000000000156010002B
:102030006B202000000000006D2020007120200097
:10204000DFF810D000F048FC00F062F800480047CC
:1020500041C020000000082006488047064800478D
:10206000FEE7FEE7FEE7FEE7FEE7FEE7FEE7FEE748
:10207000FEE70000852A200061C020000649074ACB
:102080000868504343F23902104408604008704722
:1020900001490860704700008C8300206D4EC641E6
:1020A00040EA01039B0703D009E008C9121F08C0DA
:1020B000042AFAD203E011F8013B00F8013B521E5A
:1020C000F9D27047D2B201E000F8012B491EFBD2D1
:1020D00070470022F6E710B513460A460446194633
:1020E000FFF7F0FF204610BD421C10F8011B00292D
:1020F000FBD1801A704730B504460020034600E04B
:102100005B1C934203D2E05CCD5C401BF8D030BD39
:1021100070B5054C054D03E0206820448047241D20
:10212000AC42F9D170BD0000B40D2100B80D210002
:1021300030B4044696230800214604D0B62330BCB0
:10214000002200F0B2BA20460021F8E70EB540F2B6
:10215000334102910021CDE900110A460B4600F0FF
:10216000E1FA03B000BD0EB540F233420292002204
:10217000CDE90022134600F0D5FA03B000BD20F0EF
:102180000040C20DC0F3160040F400007F2A02DABE
:102190000020014670470021962A03DCC2F1960216
:1021A000D0407047963A00F046BA70B5C1F30A5273
:1021B00001F000450024C1F3130140F2FF3341F464
:1021C00080119A4201DA002070BD40F233439A42F6
:1021D000A2F2334203DC524200F03CFA00E09040AD
:1021E0002C43F1D0404270BD03F070BFFEE710B544
:1021F00004F0B6FA10BDFEE728F6D0BCFEE7704743
:1022000058585247010000002655000000202000C9
:10221000002020007FED9247010100000000000037
:1022200000000000000000000000000000000000AE
:10223000000000000000000000000000000000009E
:102240002DE9FE4F804681EA0300C00F0C46009046
:1022500021F0004123F00045B8EB0200A94105D26E
:102260004046214690461C460B46024623F000405D
:10227000104347D0270DC7F30A00C3F30A51029059
:10228000401A019040286BDAC3F3130040F4801B1E
:102290000098924620B10023D2EB030A63EB0B0BAC
:1022A00001985946C0F14002504600F0C4F9064674
:1022B0000D4650465946019A00F0DCF910EB080033
:1022C0006141002487EA115284EAE7731A4340D03F
:1022D000009A62B3019A012A4FEA075215DC001BEB
:1022E00061EB02014FF0004202EA0752CDE90042E1
:1022F000001C41F5801132462B4600F013FA03B062
:10230000BDE8F08F40462146F9E7001B61EB020172
:10231000001C41F5801300185B412018A2F500173E
:1023200047EB030140EAD570B6196D4111E06D0825
:102330004FEA360645EAC0754FEA0752001B61EBCB
:102340000201001C41F5801149084FEA30000019D4
:10235000514132462B4603B0BDE8F04F00F0D3B9EF
:102360000098012240000023D0EB020263EBE073EF
:10237000009821464FEAE074B8EB000061EB0401DD
:10238000E9E783F000435BE781F0004158E72DE97E
:10239000FE4F81EA030404F0004421F00041009460
:1023A0004FF0000B23F0004350EA01045ED052EAE4
:1023B00003045BD0C3F30A54C1F30A552C44A4F2BE
:1023C000F3340194A0FB0254C1F3130141F48011D2
:1023D000C3F3130343F4801301FB024400FB034ED9
:1023E000840A970A44EA815447EA8357A4FB0768A2
:1023F00002958D0A05FB07854FEA932C04FB0C54CC
:102400002705029D4FEA065847EA1637B5EB08053F
:102410006EEB070C870E920E47EA811742EA831291
:10242000A7FB0201B6EB0B0164EB00042B0D43EAA2
:102430000C335E1844EB1C50DA465146E7FB0201B0
:10244000C5F313044FEA0B3343EA14534FEA043243
:10245000019C43EA0603A4F10C040294009CCDE91C
:1024600000B400F05FF903B0BDE8F08F0020014632
:10247000F9E72DE9F04D81EA030404F0004B21F067
:10248000004514464FF0000A23F0004150EA0502CF
:1024900020D054EA01021DD0C5F30A570246C5F305
:1024A0001303C1F31300C1F30A5640F4801543F43B
:1024B0008013A7EB0608101BD64608F2FD3873EB15
:1024C000050002D308F1010801E092185B41B8F160
:1024D000000F03DA00200146BDE8F08D00204FF424
:1024E0008011064684460EE0171B73EB050705D3E3
:1024F000121B63EB050306434CEA010C49084FEA43
:10250000300092185B4150EA0107EDD152EA030016
:1025100012D082EA040083EA0501084305D0101BAB
:10252000AB4106D20122002306E000224FF0004317
:1025300002E06FF0010253101AEB06004CEB085159
:1025400010EB0A0041EB0B01BDE8F04D00F0DBB8E9
:10255000C1F30A5210B5C1F3130140F2FF3341F445
:1025600080119A4201DA002010BD40F233439A42B2
:10257000A2F2334203DC524200F06CF810BD9040EE
:1025800010BD00F0004230F000400AD0C10D01F54E
:102590006071C0F3160042EA0151C20840071143BE
:1025A000704700200146704730B50B4601460020B9
:1025B0002022012409E021FA02F59D4205D303FA05
:1025C00002F5491B04FA02F52844151EA2F1010286
:1025D000F1DC30BD2DE9F05F0546002092469B46B8
:1025E00088460646814640241BE028464146474629
:1025F000224600F02FF853465A46C01A914110D394
:1026000011461846224600F016F82D1A67EB01080D
:102610004F4622460120002100F00DF817EB00097B
:102620004E41201EA4F10104DFDC484631462A4613
:102630004346BDE8F09F202A04DB203A00FA02F16D
:10264000002070479140C2F1200320FA03F31943A0
:1026500090407047202A04DB203A21FA02F0002142
:10266000704721FA02F3D040C2F1200291400843A2
:1026700019467047202A06DBCB17203A41FA02F0B0
:1026800043EAE07306E041FA02F3D040C2F12002CF
:1026900091400843194670470029A8BF7047401C65
:1026A000490008BF20F00100704710B4B0FA80FC68
:1026B00000FA0CF050EA010404BF10BC704749B1A5
:1026C000CCF1200421FA04F411FA0CF118BF012115
:1026D00021430843A3EB0C01CB1D4FEA00614FEAF5
:1026E000102042BF002010BC704700EBC3501044C4
:1026F0000029A4BF10BC7047401C490008BF20F04F
:10270000010010BC704710B5141E73F1000408DA04
:10271000401C41F1000192185B411A4301D120F0A5
:10272000010010BD2DE9F04D92469B4611B1B1FA62
:1027300081F202E0B0FA80F220329046FFF77BFF90
:1027400004460F4640EA0A0041EA0B0153465A4646
:10275000084313D0114653EA010019D0C8F14002D2
:102760005046FFF777FF05460E465046594642460B
:10277000FFF761FF084305D0012004E020463946F9
:10278000BDE8F08D0020054346EAE0762C43374350
:102790000A986305E40AA0EB08000022FD0A44EA57
:1027A00047540A3002D500200146E9E70105101917
:1027B0006941DDE9084500196941BDE8F04DA2E72E
:1027C0002DE9F041054621F000400C46284309D090
:1027D000C4F30A5040F23341884205DD28462146C1
:1027E000BDE8F0812846FBE740F2FE31884210DC6C
:1027F0000CDB4FEA043040EA155050EA053105D0B1
:10280000104804F0004101430020E9E700200146A0
:10281000E6E7A0F233404642C6F140022846214690
:10282000FFF709FF07468846284621463246FFF74C
:1028300011FF43463A46FFF766FF3246BDE8F041D6
:10284000FFF7F9BE0000F03FC1F30A52C1F31301D4
:1028500040F2FF3341F480119A4202DA002001462F
:10286000704740F233439A42A2F2334202DC5242B2
:10287000FFF7F0BEFFF7DFBE30B5041E71F10004B4
:1028800004DB4FF00044404264EB0101141E73F17D
:10289000000405DB1C464FF00043524263EB040387
:1028A0008B4208BF824230BD30B5041E71F1000476
:1028B00004DB4FF00044404264EB0101141E73F14D
:1028C000000405DB1C464FF00043524263EB040357
:1028D000994208BF904230BD064C074D06E0E068C3
:1028E00040F0010394E8070098471034AC42F6D357
:1028F000FFF7AAFB740D2100B40D210070B58C18F0
:1029000010F8015B15F0070301D110F8013B2A1103
:1029100006D110F8012B03E010F8016B01F8016BF0
:102920005B1EF9D12B0705D40023521E0DD401F8EC
:10293000013BFAE710F8013BCB1A921C03E013F8B5
:10294000015B01F8015B521EF9D5A142D8D30020EA
:1029500070BD00000948C16921F00301C16101682F
:1029600041F008010160016821F00801016004489C
:10297000416E21F0800141667EF6D6BE005001B066
:10298000002001B070B503201749096841F38001A8
:10299000491C164D00290CD113490C310968C1F3AB
:1029A000000131B110498C39096801F007018843F1
:1029B00003D02869401C286170BD0D4C206820F0B0
:1029C00001002060206840F00400206009494FF4B5
:1029D0000030086003F06AFFE868401CE860206887
:1029E00040F00100206070BDD4A400408C80002025
:1029F00088E2004084E200E005280CD2064A116813
:102A000001F4E021B1EB004F05D0116821F4E02181
:102A100041EA00401060704700A000400249096888
:102A200001F007010170704700A0004070B5044636
:102A3000072C20D2104E306800F00700A04214D0BE
:102A4000032007F069FFF06820F0070545F001005A
:102A5000F06000BF00BF00BF00BF204607F05CFF72
:102A6000064850F824002843F060044804491C3804
:102A700050F82400086070BD00A00040F804210058
:102A8000600300200248016841F470010160704752
:102A900088ED00E002480068001D06F045BF000018
:102AA000BC8A002002484068001D06F03DBF0000BF
:102AB000BC8A002002488068001D06F035BF000077
:102AC000BC8A00200248C068001D06F02DBF00002F
:102AD000BC8A002002480069001D06F025BF0000E6
:102AE000BC8A002002484069001D06F01DBF00009E
:102AF000BC8A00200FB4054B10B503A9044A029804
:102B000000F094FC10BC5DF814FB000095722000EE
:102B1000747D00200FB41CB50246002007AC0029CC
:102B20000BD0491ECDE90021054B6A462146069887
:102B300000F07CFC009A002111701CBC5DF814FBB5
:102B40005B3B20000FB4084B10B504A902AA039800
:102B500000F06CFC044602A9002001F009F82046B0
:102B600010BC5DF814FB0000713B20007CB50446EE
:102B700000201D46164600290BD0491ECDE9004114
:102B8000044B6A462946304600F050FC009A00216A
:102B900011707CBD5B3B2000002809DB00F01F02A8
:102BA000012191404009800000F1E020C0F880122E
:102BB000704700280DDB00F01F0201219140400901
:102BC000800000F1E020C0F88011BFF34F8FBFF309
:102BD0006F8F7047002809DB00F01F020121914030
:102BE0004009800000F1E020C0F800117047002883
:102BF00009DB00F01F02012191404009800000F133
:102C0000E020C0F800117047002804DB00F1E0204C
:102C100090F80004704700F00F0000F1E02090F8F9
:102C2000140D7047002804DB00F1E02090F8000448
:102C3000704700F00F0000F1E02090F8140D70478D
:102C4000002804DB00F1E02090F80004704700F059
:102C50000F0000F1E02090F8140D7047002804DB0D
:102C600000F1E02090F80004704700F00F0000F140
:102C7000E02090F8140D704702480068C0F302206D
:102C8000704700000CED00E002480068C0F302202D
:102C9000704700000CED00E0EFF31080704700007B
:102CA0002DE9F0412DED020B9FED3D0B2DED028B3B
:102CB0009FED3D8BDDE90254C4F30A50A0F2FF36CC
:102CC000142E37DA002E18DA53EC102B9DED020B80
:102CD00051EC100BFFF7B4FA53EC182BFFF7E4FD9F
:102CE00057D2002CBCBF4FF00044002551DB54EA02
:102CF000050018BF2E4C1BD14BE02E4820FA06F7DA
:102D000004EA070028431FD053EC102B9DED020B63
:102D100051EC100BFFF794FA53EC182BFFF7C4FD9E
:102D200037D2002C03DD4FF48010F0400444BC4344
:102D300000252EE0332E07DCA6F114004FF0FF3102
:102D400021FA00F73D4206D19DED020BBDEC028B4E
:102D500002B0BDE8F08153EC102B9DED020B51EC5D
:102D6000100BFFF711FB53EC182BFFF79DFD10D252
:102D7000002C0DDD142E08BF641C09D0C6F13400F0
:102D8000012101FA00F02844A84238BF641C05461E
:102D9000BD43CDE902549DED020BD7E700000000D2
:102DA0009C7500883CE4377E0000000000000000B5
:102DB0000000F03FFFFF0F0010B52DED020B2DEDD1
:102DC000088B84B09DED0C0B51EC100BFFF7F8FC59
:102DD00041EC180B9DED0C0B53EC182B51EC100B28
:102DE000FFF7CFFA41EC190B0D989FED290B10F06E
:102DF000004F53EC102B51EC190B9FED21AB9FEDC5
:102E000022BB0ED0FFF738FD0ED953EC1B2B51EC33
:102E1000190BFFF749FD1CD214E000BF41EC180B61
:102E200017E0FFF729FD06D253EC1A2B51EC180BD3
:102E3000FFF7A7FAF2E753EC1B2B51EC190BFFF746
:102E400033FD06D853EC1A2B51EC180BFFF7F8F9A9
:102E5000E4E78DED028B9DED0C0B18EE901A10EE51
:102E6000900A8DED000B61F31E0003909DED020BA7
:102E700004B0BDEC088B02B010BD000000000000E3
:102E8000000000000000F03F000000000000E03FF4
:102E9000000000000000E0BF02E008C8121F08C1E7
:102EA000002AFAD17047002001E001C1121F002A58
:102EB000FBD1704780F31088704700002DE9F74F71
:102EC00007460298DFF888A1DFF888814FEA500BA7
:102ED0005C46019D6048CAF800003F20D8F8041005
:102EE00060F30501C8F80410D8F8040020F480301D
:102EF000C8F80400DAF8000020F4700040EA075037
:102F0000CAF80000DAF8000020F4702040EA074018
:102F1000CAF800000D2F05D1DAF8000040F4004097
:102F2000CAF800000E2F05D1DAF8000040F4804006
:102F3000CAF80000DAF8000040F40050CAF80000B7
:102F4000DAF8000020F06050CAF80000DAF800005B
:102F500020F00F0040F00300CAF80000002000F04D
:102F6000CFF8012871D1DAF8000040F08040CAF8AB
:102F70000000002008E0D8F8081041F48031C8F8BB
:102F80000810401C411C05D0D8F80810C1F30021DE
:102F90000029F0D1072000F0B3F8012855D141E015
:102FA00000264FF47A7924E04E451ED9DAF8000065
:102FB00020F08040CAF80000DAF8000040F000403D
:102FC000CAF80000DAF8000020F00040CAF800005B
:102FD000002000F095F8012837D12049086A401CEC
:102FE000086205200CF612FB72E701200CF60EFBBE
:102FF000761CD8F80800C0F300200028D4D0D8F8F8
:10300000080000F07F02A24200D92246002006E01C
:10301000D8F800102980090C69802D1D401C9042B1
:10302000F6D3A41A002CBBD10298C00708D0D8F858
:103030000800C0F300200028F9D0D8F8000028804C
:10304000BDE8FE4F002000F05BB8BDE8FE8F000039
:1030500000A8004000E000400A0708078C8000201C
:103060002DE9F041044615480021C0F894100121D3
:103070004161134D686A134EF06200F0010149424C
:103080000140C80512D440F2011704E044B1641EA7
:1030900001200CF6BBFAA869B84204D1012003E074
:1030A0000020BDE8F08100200028EFD0064800682D
:1030B00070626868B0620120F3E7000000D01D4232
:1030C00000E000408C80002000A8004009480A4928
:1030D000826A4A60094B426A1A60808D00F00102E0
:1030E00052420240D00503D4086A20F00100086271
:1030F000704700008C80002000E0004000A80040E5
:103100002DE9F0410546114FF868C0F30240A8428E
:1031100002D10120BDE8F081F86820F007002843C3
:10312000F86000244FF6FF76F868C0F30240A8422A
:1031300005D001200CF66AFA641CB442F4D3B44200
:1031400001D10020E6E70120E4E7000000E00040B4
:103150002DE9FF5F82B00021DDE90430020DDDF8CA
:1031600040B0034318D044F61050A2F2FF3242435D
:103170001514119801281FD0A5EB0B00401C5FEA25
:10318000000A4FF000064E4FDFF83891B046504627
:1031900015D5CAF1000413E0119801244AA30128AF
:1031A00001D16FEA0B010298119AC0E90031C0E920
:1031B000024206B0BDE8F09FCBF10000DFE7044615
:1031C0000021404A491842EB0450CDE9001012E0BA
:1031D000E00707D032463B4640464946FFF7D7F85E
:1031E0008046894632463B4610461946FFF7CFF8DF
:1031F00006460F466410002CEAD1DDE90401DDE942
:103200000023BAF1000F06DAFFF7C1F842464B4639
:10321000FFF7BDF805E0FFF72CF942464B46FFF7F4
:1032200028F904460E460022284BFFF73DFB03D841
:103230004FF0FF30014607E00022254B2046314683
:10324000FEF7FEFFFFF700FB102409E0002C0ADB6D
:103250000A220023FFF7BEF9039B30321A55641E81
:1032600050EA0102F2D1641C039AC4F11103144420
:10327000119A012A03D0012208430DD10AE0084324
:1032800004D000204FF0110B119072E7A3EB0B0557
:103290006D1E0DE05B4504DD4FF0000205F10105F8
:1032A00004E003DA4FF00002A5F10105002AECD09A
:1032B00002981199C0E90231C0E9004579E70000A0
:1032C000000014400000F03F300000000000F04318
:1032D0000000E03FF0B506462DED068B89B00D46A7
:1032E0009FED459B202101A8FEF7F3FEB0EE498A31
:1032F000F0EE698A4248C08BFEF728FF9FED411B24
:1033000053EC112BFFF7B5F841EC1A0B102201A971
:103310003046FFF7D3FD002401AF04F1080037F871
:103320001000FEF713FF53EC182BFEF789FF41EC5A
:10333000180B641CE4B2082CEFD351EC180B9FED72
:10334000330B53EC102BFFF722F841EC180B0D2E2A
:1033500002D00E2E29D046E09FED2E0B51EC100B23
:1033600081F0004141EC190B6888FEF7EFFE53EC49
:10337000192BFFF70CF841EC190B2888FEF7E6FE35
:1033800053EC182BFFF700F853EC192BFFF771F8EB
:103390009FED221B53EC112BFFF76BF853EC1A2B0C
:1033A000FEF74EFF41EC190B1DE09FED1E0B51EC9B
:1033B000100B81F0004141EC190B6888FEF7C6FE46
:1033C00041EC1A0BA888FEF7C1FE53EC182BFEF750
:1033D000DBFF53EC1A2BFFF74CF853EC192BFEF7DD
:1033E000D6FF41EC190B09B0B0EE490AF0EE690ABC
:1033F000BDEC068BF0BD00000000000000000000E6
:10340000B04500200000000000005940000000000E
:103410000000C03F000000000000004079E92631B4
:1034200008AC5CBFB76DDBB66DDB0E402DE9FF4F1E
:1034300095B09B468946064600250FE2252877D1A0
:1034400000242746F84A0121059400E0044316F8B9
:10345000013F203B01FA03F01042F7D130782A28CF
:1034600011D06FF02F033078A0F13002092A16D85E
:10347000059A44F0020402EB820203EB420210447C
:10348000761C0590EFE759F8042B0592002A03DA21
:10349000504244F40054059044F00204761C307805
:1034A0002E2816D116F8010F44F004042A280DD056
:1034B0006FF02F023078A0F13003092B09D807EB09
:1034C000870302EB4303C718761CF3E759F8047B24
:1034D000761C30786C280FD006DC4C2817D0682872
:1034E0000DD06A2814D104E0742810D07A280FD1A6
:1034F0000DE044F400140AE044F4801401E044F4C4
:1035000040147278824202D104F58014761C761C35
:10351000307866280BD013DC582877D009DC0028D7
:1035200075D04528F6D04628F4D047281AD19DE119
:1035300018E0632835D0642879D0652812D195E148
:10354000702873D008DC6728F1D069286FD06E2806
:103550000DD06F2806D1B5E073282CD0752875D012
:10356000782874D05A46179990476D1C75E1C4F3BA
:103570000250022809D003280DD0D9F800100428E1
:103580000DD00D6009F1040967E1D9F80010EA17C0
:10359000C1E90052F6E7D9F800100D80F2E70D708E
:1035A000F0E719F8041B8DF8001000208DF80100D9
:1035B000EA46012003E059F804AB4FF0FF30610701
:1035C0004FF0000102D40DE008F101018846B94234
:1035D0000FDA8045F8DB1AF808100029F4D108E06A
:1035E00008F1010188468142FADB1AF80810002927
:1035F000F6D105985B46A0EB080721463846179A96
:1036000000F094FA284400EB080507E04DE029E1BA
:103610000DE01AF8010B5A4617999047B8F10108C6
:10362000F7D25B4621463846179A13E142E00A2258
:103630000092C4F302524FF0000A022A08D059F84F
:1036400004CB032A4FEAEC710AD00DE029E02AE00E
:1036500009F1070121F00702F2E802C1914609E0F1
:103660000FFA8CFC4FEAEC71042A03D14FFA8CFC60
:103670004FEAEC71002907DA0A460021DCF1000C60
:1036800061EB02012D2202E0220504D52B228DF8E8
:103690000420012203E0E20701D02022F7E7904650
:1036A00059E00A2102E010220DE010214FF0000A3B
:1036B00000910BE010224FF0000A44F004040827A8
:1036C000009203E008224FF0000A0092C4F3025275
:1036D000022A05D059F804CB0021032A08D009E0BA
:1036E00009F1070121F00702F2E802C1914605E065
:1036F0001FFA8CFC042A01D10CF0FF0C4FF00008DB
:10370000220728D5702806D0009B83F0100353EAC7
:103710000A0305D00EE040228DF80420012208E0C3
:103720005CEA010206D030228DF804208DF80500F5
:1037300002229046009B83F0080353EA0A030AD151
:103740005CEA010201D1620705D530228DF8042020
:103750004FF001087F1E582804D034A003900EA813
:1037600002900DE036A0F9E753466046009AFEF756
:1037700031FF84460398825C0298401E02900270DA
:103780005CEA0100F0D1029806A9081A00F1200AAB
:10379000600702D524F4803400E00127574502DD9C
:1037A000A7EB0A0000E0002000EB0A01009005985A
:1037B0004144401A0590E00306D45B462146179A1F
:1037C000059800F0B3F90544002706E001A85A4621
:1037D000C05D179990476D1C7F1C4745F6DBE003E1
:1037E0000CD55B462146179A059800F09FF90544D1
:1037F00004E030205A46179990476D1C0099481EE6
:1038000000900029F5DC08E0029802995A460078F9
:10381000491C0291179990476D1CBAF10001AAF159
:10382000010AF1DC65E10000092801003031323382
:1038300034353637383961626364656600000000EC
:1038400030313233343536373839414243444546D6
:103850000000000000F058F90544761C307800287C
:103860007FF4ECAD19B02846BDE8F08F620700D4B4
:10387000062709F1070222F0070CFCE80223E146C3
:1038800003F000485FEA080C02D00FF2702C0DE044
:103890005FEA045C02D50FF2682C07E05FEAC47CA3
:1038A00002D00FF2602C01E0AFF2700C4FF0FF3845
:1038B00023F00043CDF850C065280CD006DC452825
:1038C00009D046281DD047283DD13DE0662818D0B4
:1038D00067287ED138E00021112F01DB112000E0A4
:1038E000781CCDE9000106A90EA8FFF731FCDDE93F
:1038F0000F010E9A03910021009207F1010A049131
:103900004DE04FF000400097CDE9011006A90EA848
:10391000FFF71EFCDDE90F0203920E9B11990022B6
:10392000DDF80CA00093049211B9791C00EB010A98
:10393000B7EB0A0004D4C0F1FF3007F1010A04908C
:10394000AAEB0700019044E0012F00DA01270021D3
:10395000112F01DD112000E03846CDE9000106A954
:103960000EA8FFF7F5FBDDE90F010E9A0391002188
:1039700004910092BA4621070CD40399514500DA0C
:103980008A46BAF1010F05DD009AAAF10101515CE6
:10399000302908D0B84202DA10F1040F06DA01210A
:1039A000CDE9011015E0AAF10101E9E7002805DCE5
:1039B000049901440491AAEB000102E0411C514525
:1039C00000DD8A460499401A401C01904FF00040E7
:1039D0000290200704D40198504501DBCDF8048003
:1039E00000208DF84F0002980DF14F07B0F1004F05
:1039F00025D02B200E9002984FF0020800280CDAF8
:103A0000404202902D200E9007E00A210298FEF716
:103A1000CBFD3031029007F8011DB8F10001A8F18B
:103A20000108F2DC02980028EFD1791E0E98087088
:103A3000307800F0200040F0450007F8020D12A891
:103A4000C01B00F107081498007800B1012000EBBA
:103A50000A01019801EBE07105984144401A401EAB
:103A60000590E00306D45B462146179A059800F0BE
:103A70005DF805441498007818B15A461799904794
:103A80006D1CE00324D55B462146179A059800F08B
:103A90004DF805441CE00498002807DBDDE903012C
:103AA000884203DD0098405C179901E017993020A7
:103AB0005A469047049805F10105401C049001986E
:103AC000401E019004D12E205A46179990476D1C34
:103AD000BAF10001AAF1010ADDDC05E017F8010BDB
:103AE0005A46179990476D1CB8F10001A8F10108DA
:103AF000F4DC5B462146179A0598ABE62D000000E2
:103B00002B000000200000002DE9F04104460025B4
:103B10001E461746880404D405E039462020B047E5
:103B20006D1C641EF9D52846BDE8F0812DE9F041F1
:103B3000044600251E469046C80301D5302700E004
:103B40002027880404D505E041463846B0476D1C5F
:103B5000641EF9D52846BDE8F0814A68002A06D0DF
:103B60000A68531C0B6010704868401E486070471C
:103B70000A68531C0B601070704710B502F0BAFD54
:103B800010BD09F061B970B504460D4629462046BE
:103B90000BF05CFD2946204608F034FA2946204601
:103BA00008F05AFB70BD1CB502228DF80020CDF83C
:103BB00001008DF8051006226946002000F0C4F9C6
:103BC0001CBD000008B58DF8000000208DF8010034
:103BD0000E4A88885388984208D105208DF8010044
:103BE0004A888868114600F0EDF90AE0128990428F
:103BF00007D106208DF801004A888868114600F038
:103C0000AFF9684600F076F808BD00006C96002019
:103C100008B58DF8000000208DF801000B4883885E
:103C2000934206D119B107208DF8010008E0032066
:103C3000FAE74089904203D131B107208DF80100A5
:103C4000684600F057F808BD0420F7E76C9600209E
:103C5000002819D0028800F10801B2F5A06F08D041
:103C6000A2F5A062063A0AD0012A0DD10079FFF729
:103C7000A9BF83780A460079194600F0F5B8028991
:103C800081780079FFF7C4BF70470000002809D091
:103C9000054900220A604A608A60C86003490448F6
:103CA00002F0D6B9022070476C960020513C2000EB
:103CB0008C7D00201CB5019106494989002906D058
:103CC00001AA00920223002283F642FF1CBD0120BC
:103CD0001CBD00006C96002000224FF47A71014850
:103CE00001F0E0BA38D80020014983F6A7BE0000F1
:103CF0008C7D00200449C968002903D04278002A3D
:103D000000D00847704700006C96002010B586B0C0
:103D100004466078082816D2DFE800F0150415176D
:103D2000351515412078012100F08CF80446002C4F
:103D300009D01422204901A8FEF7B2F9ADF80840D5
:103D400001A800F0B3FB06B010BD1CA0AA21CDE96C
:103D50000010194B25A2143B2AA1022001F048F8BB
:103D600020780121FFF7A6FF0446002CEBD0142297
:103D70001149143101A8FEF793F9ADF8084001A8E4
:103D800000F094FBDFE721A0B021CDE900100A4B41
:103D900016A2143B1BA1022001F02AF8D3E725A0AC
:103DA000BA21CDE90010044B10A2143B15A102204A
:103DB00001F01EF8C7E700006C032100414E435399
:103DC000206E6F74696669636174696F6E20736FCA
:103DD00075726365206E6F74696669636174696F7B
:103DE0006E20656E61626C65642E00002E2E5C5341
:103DF00072635C757365725C757365725F61707018
:103E00002E6300004E4F5F5441470000414E435324
:103E1000206461746120736F75726365206E6F74C6
:103E2000696669636174696F6E20656E61626C6555
:103E3000642E00005772697465206572726F722E6D
:103E4000000000001CB5019106498988002906D0B0
:103E500001AA00920223002283F67AFE1CBD0120F3
:103E60001CBD00006C9600202DE9F84315468DF826
:103E700000004FF002098DF80190687810284DD1AC
:103E800010222F49A81CFEF736F970BB2D4F688A07
:103E9000388000203AE000F1010841448CB200EB88
:103EA0004002A96902EBC00011F81020032A02D0D9
:103EB000042A21D027E009EB400688192049102266
:103EC0001031FEF718F988B1A8691D493044102255
:103ED0002031FEF710F958B1A86919493044102271
:103EE0003031FEF708F928B10EE017E07C800BE0D6
:103EF000FC8009E03C8107E009EB4000085AA0F58E
:103F0000245102390FD032B11FFA88F0AA8A698A87
:103F1000521A8242BFDC01208DF801006846FFF78B
:103F2000E9FEBDE8F8837888401CA04201D1BC803E
:103F3000EAE73889401CA042E6D17C81E4E7000032
:103F4000280221006C96002008B513460091034911
:103F50000022C98883F6FCFD08BD00006C96002095
:103F600070B503460C46154D00266888002810D011
:103F70001349224608441946FEF792F868882A88B1
:103F80002044A0F10801914215D100F04BF86E8059
:103F900070BDD8882880224619460948FEF780F867
:103FA0002988A4F10800814203D100F03BF86E801B
:103FB00070BD6C8070BD688070BD0000947D002075
:103FC0007C96002010B50446204608F083F960680E
:103FD000BDE8104000F0AEB80148406870470000EE
:103FE000947D00201CB500228DF80020CDF8010042
:103FF0008DF80510012909D0022907D0032905D021
:10400000062269460020FFF79FFF1CBDF4208DF8B3
:10401000060001208DF80700082269460020FFF7FE
:1040200093FF1CBD70B588B0234D28780021069100
:10403000D5F801100791E9880691002803D00128DE
:1040400037D100242BE068791C49BDF818601CA208
:1040500051F82000BDF81C10CDE90306CDE901217F
:10406000702000901F4B20A22EA1022000F0C0FE65
:10407000002406E02819017A2CA0FEF73BFD641C01
:10408000A4B2B442F6D308B029A0BDE87040FEF750
:1040900031BD295D25A0FEF72DFD641CA4B2BDF83D
:1040A00018008442F5D308B021A0BDE87040FEF7A7
:1040B00021BD08B070BD00007C960020D87D002096
:1040C0005549443D25642C20415454525F49443A9B
:1040D0002025732C20415454525F53495A453D25A5
:1040E00064000000680221002E2E5C2E2E5C2E2E15
:1040F0005C2E2E5C2E2E5C636F6D706F6E656E7421
:10410000735C70726F66696C65735C616E63735F1C
:10411000635C616E63735F70726F746F636F6C2E3C
:10412000630000004E4F5F544147000025630000CC
:104130000D0A00000149486070470000947D00208E
:1041400003490A6822F4C06242EA402008607047CE
:1041500004A8004006460F46154672B63846FDF7DD
:10416000C3FF402801D9402002E03846FDF7BCFFDC
:1041700080463046FDF7B8FF402801D9402002E0D4
:104180003046FDF7B1FF04469C211048FDF7A1FF22
:10419000424639460D48FDF783FF0C48224631461A
:1041A0005C30FDF77DFF09484FF0AA31016445649A
:1041B0004FF0BB3181644FF0CC3101654FF0DD3100
:1041C0008165002000F004F8FEE700007C8F0020ED
:1041D00030B5ADF20C4D04464FF4806103A8FDF7F5
:1041E00078FF184D202085F83F0085F89B003CB1F2
:1041F0002846012C436DC26C09D0022C0CD00FE074
:10420000104A11A15C3203A8FEF79CFC08E011A142
:1042100003A8FEF797FC03E016A103A8FEF792FCA3
:1042200003A90BA2686CCDE90121009018A3054AEF
:1042300018A1002000F0DCFD00F0A6FD0DF20C4DF1
:1042400030BD00007C8F00205B4552524F525D20F4
:10425000257300005B5741524E494E475D20506127
:1042600072616D303A25642C506172616D313A256E
:10427000640000005B504152414D5D20506172610D
:104280006D303A25642C506172616D313A256400BD
:10429000000000006170705F6173736572742E635B
:1042A00000000000014895F6FBBA0000787D002070
:1042B00006460F4690461D4672B64046FDF714FF6F
:1042C000402801D9402002E04046FDF70DFF04469A
:1042D0009C210D48FDF7FDFE224641460A48FDF7A8
:1042E000DFFE09484FF05531016445644FF06631F7
:1042F0008164C6644FF0773101654765C9438165C4
:104300000220FFF765FFFEE77C8F00202DE9F041DA
:1043100006460F4690461D464046FDF7E5FE4028FE
:1043200001D9402002E04046FDF7DEFE04469C2114
:104330000D48FDF7CEFE224641460B48FDF7B0FE84
:1043400009484FF011310164456449008164C66435
:104350004FF03331016547654FF044318165BDE869
:10436000F0410120FFF734BF7C8F002070B588B08A
:1043700006468A7ACB7A0C7B4D7BCDE90632CDE9B5
:104380000454887BC97B10A240F20F13CDE90032A0
:10439000CDE902101A4B1BA220A1022000F028FD3B
:1043A000304687F69BFC0446002C0AD014221449A0
:1043B000183103A8FDF774FEADF8104003A800F013
:1043C00075F808B070BD0000436F6E6E656374656C
:1043D0006420776974682074686520706565722050
:1043E000253032583A253032583A253032583A255D
:1043F0003032583A253032583A253032582E0000A3
:10440000D80321002E2E5C5372635C757365725C59
:10441000757365725F6170702E6300004E4F5F545C
:104420004147000010B586B0044610A24FF48F73C8
:10443000CDE900320291134B13A219A1022000F022
:10444000D7FC194920467EF609FD0446002C0AD007
:1044500014220C491C3101A8FDF722FEADF80840DA
:1044600001A800F023F806B010BD00004469736392
:104470006F6E6E656374656420283078253032581D
:10448000292E0000040421002E2E5C5372635C75FB
:104490007365725C757365725F6170702E63000086
:1044A0004E4F5F54414700003C7E00203EB504461D
:1044B0004FF400711A48FDF70CFE207810B1012866
:1044C00019D01DE000211748A28830F831309A42F7
:1044D00007D100EBC10014A143681148FEF732FB7D
:1044E0000EE02E2902D0491CC9B2EEE714A10C48F7
:1044F000FEF728FB04E01DA109486268FEF722FBD5
:10450000074921A22069CDE901210090D4E90223C5
:104510001EA1002000F06CFCBDE83E4000F034BC61
:104520007C8D0020B80021004572726F7220636F8D
:104530006465203078253034583A20257300000017
:104540004572726F7220636F646520307825303455
:10455000583A204E6F20666F756E6420696E666FE4
:10456000726D6174696F6E2E00000000282573293A
:10457000206973206E6F742065737461626C697357
:104580006865642E00000000257300006170705F94
:104590006572726F722E63002DE9F04101460029A9
:1045A0001BD000240F4E0E4A357814E002EB0410A5
:1045B0000F780378BB420CD14B684068034208D0A7
:1045C000707808B900F0B2FB2046BDE8F04100F079
:1045D00053BA641CE4B2AC42E8D3BDE8F0810000F9
:1045E0001C8B00204C7D00207CB505460E46002D1E
:1045F00001D0002418E0E5207CBD05EB04104168E3
:104600000091017A8DF80410417A8DF80510072188
:104610008DF80610C26800780023694600F038F86B
:104620000028E9D1641CE4B2B442E6D300207CBD8A
:1046300010B502460846052A25D2DFE802F003033A
:1046400003111900114951F832200104090C05D059
:1046500022B10146104605F027F810E0E42010BD15
:1046600010F0FF0F02D004F0C9FE08E0E42010BDF6
:1046700010F0FF0F05D00146002005F057F800208C
:1046800010BDE42010BDE62010BD0000F0FF2000AA
:104690002DE9F05F05460C469046994626680027AE
:1046A000042D11D031462846FFF7C2FF2146284687
:1046B00000F05EF8002808D1032D08D04FF0100A52
:1046C0002807070E002448E0E620BDE8F09F4FF0E1
:1046D000080AF7E7F0073DD03DB1012D05D0022DC6
:1046E00003D0032D21D0E620EFE71E4800EBC500E4
:1046F00090F904B0BBF1000F15D0EFF31081012049
:1047000080F31088184AE01942F8308002EBC000AC
:10471000C0F8049081F31088584622F63BFE5846B4
:1047200022F656FE16E0E420CFE7EFF310810120D9
:1047300080F310880D4AE01942F8308002EBC00087
:10474000C0F8049081F310881B2022F623FE1B2062
:1047500022F63EFE7608641CE4B25445BAD300202B
:10476000B3E70000F0FF200010890020208A00201D
:1047700070B58EB005460C46474991E84D00CDE92D
:104780000A02CDE90C36D1E90523086906AEC969EC
:104790000DC6099114224049203101A8FDF780FC83
:1047A000D4B13E4906200AF0E7F93D4907200AF056
:1047B000E3F93C491B200AF0DFF93B4912200AF0DB
:1047C000DBF935493C39A1F12C02052D61D2DFE836
:1047D00005F0060606213900E5200EB070BD2079EF
:1047E00031F810000B90607932F810000C90A0792D
:1047F0000D9020680A902848543850F835002188D8
:104800000904090C04D018B10AA904F081FF39E0A9
:10481000E420E2E7207901EB4000808A079060798C
:1048200002EB4000C0880890A079099020680690AB
:10483000207810F0FF0F03D006A804F0E9FD21E076
:10484000E420CAE72079031F042B01D8E720C4E73E
:10485000022819D001200290207901EB4000008D40
:104860000390607902EB400080890490A079059064
:1048700020680190207810F0FF0F08D001A90020D7
:1048800004F062FF0020A8E702200290E4E7E420A1
:10489000A3E7E620A1E7000044002100C161100069
:1048A000BB611000B7611000B1611000024600202A
:1048B000052A11D2DFE802F0030303090C000748C0
:1048C00050F8320089B21FF684B988B21BF66AB874
:1048D00089B2002022F614BD70470000F0FF2000CE
:1048E000002803D00249086001207047002070476B
:1048F000547D002070B505460024091F062917D2F3
:10490000DFE801F003070C111315284600F0A4F8A6
:104910000EE00124284600F09FF809E00224284612
:1049200000F09AF804E0032402E0042400E00524E7
:10493000034A214628461268BDE87040104700002F
:10494000547D00202DE9F0410446204600F0AEF8E9
:1049500001462E4800230826025D00F10A0700F1F7
:104960001405AAB1052A33D0082A2AD1092945D02D
:10497000082926D1295D491CC9B22955142920D3FB
:104980002B5506552046BDE8F0410821FFF7B2BF80
:10499000052913D0042916D0072914D0082910D1CD
:1049A000295D491CC9B2295514290AD32B5506552E
:1049B0002046BDE8F0410821FFF79CBF3B5505218B
:1049C0000155BDE8F0812046BDE8F041FFF792BFF8
:1049D00005290CD0395D491CC9B239553229F0D3AB
:1049E00003552046BDE8F0410521FFF783BF03557D
:1049F0002046BDE8F0410621FFF77CBF0355204665
:104A0000BDE8F0410921FFF775BF0000FC8B0020D5
:104A100070B504460D4600F00FF808B100F09CF99F
:104A20000348044A2946005D5268BDE870401047BB
:104A3000108B00204C7D00200020064911F810202A
:104A40000AB100207047401CC0B20A28F6D30120EA
:104A5000704700001A8C00200349002201F8102042
:104A600001EB4000427070471A8C0020014A02F8A6
:104A7000101070471A8C0020024A012102EB4000FE
:104A8000417070471A8C002070B50024064D05EB6C
:104A90004400407810B12046FFF754FF641CE4B294
:104AA0000A2CF4D370BD00001A8C002070B50021D0
:104AB0001D4B03F132051A5C002A09D0002403F1D2
:104AC0000A06012A0AD0022A12D0032A24D11FE0A2
:104AD00015F8102002B301221A541DE015F8102019
:104AE0001AB1345402221A5416E01C54042113E063
:104AF00015F810204AB1325C521CD2B23254642AEA
:104B00000AD3072103221A5406E005211C5403E0AE
:104B100015F8101011B10821084670BD1C54FFF79C
:104B20009BFF0921F8E70000E88B00201CB5012954
:104B300053D1042815D002283BD003284DD127A0FB
:104B40005C21CDE900102A4B2AA233A1022000F0FB
:104B50004FF9FFF741FA80B2BDE81C400021FFF792
:104B600022B8012008F016FAFFF736FA84B20021C5
:104B70002046FFF737FA01212046FFF733FA0221DA
:104B80002046FFF72FFA03212046FFF72BFA0421D6
:104B90002046FFF727FA05212046FFF723FA0621D2
:104BA0002046FFF71FFA2046BDE81C400721FFF70B
:104BB00019BA1BA05321CDE900100D4B0DA216A16F
:104BC000022000F015F9FFF707FA80B2002804D0A0
:104BD000BDE81C400121FEF7E6BF1CBD7072657385
:104BE000736564206B6579207269676874000000E2
:104BF000A00221002E2E5C5372635C706C6174669F
:104C00006F726D5C757365725F7065726970685FF5
:104C100073657475702E63004E4F5F5441470000FA
:104C200070726573736564206B6579206C6566745A
:104C3000000000002DE9F0410F4690460A2F04D8ED
:104C4000B8F1000F01D0002323E00020BDE8F0817F
:104C500003EB430610F826402CB1012C03D0022CA4
:104C600001D0032C13D100EB8605124AA97AD15446
:104C7000104910F826200C3101EB031422706968EA
:104C80006160297A2172697A61720B49E1605B1C6B
:104C9000DBB2BB42DCD3074839460C30FFF7A4FC3B
:104CA00006480770C0F804800548FFF719FE012088
:104CB000CCE70000108B0020994520004C7D00209F
:104CC000114A20002DE9F0410024124FDFF84880FE
:104CD00019E0002607EB041528786968FFF7E6FD60
:104CE00010B9697A012902D0012802D005E0012615
:104CF00003E0687A022800D1012631462046FFF7FA
:104D0000B5FE641CE4B298F800008442E1D3BDE82B
:104D1000F08100001C8B00204C7D002010B5FFF7B7
:104D2000D1FFBDE81040FFF7AFBE000010B5074A45
:104D30000121074800F0CEF900220A21044800F0C2
:104D4000B1FA04490120487010BD00001D4D20003B
:104D5000C08B00204C7D002010B5034800F0E3F923
:104D600002490020487010BDC08B00204C7D0020FF
:104D7000002806D0002904D0024AD269002A00D0B7
:104D800010477047588D00200248006A002800D064
:104D900000477047588D002070B50D4616460D4CE3
:104DA00000280AD00178032911D80121A1760146F3
:104DB0001A222046FDF774F905E00020A0761A219A
:104DC0000448FDF786F9E5612662002070BD0120E8
:104DD00070BD0000588D0020044A1044807D0842B8
:104DE00001D001207047002070470000588D00203E
:104DF0002DE9FE4FDDF830B0064692469946002474
:104E00000027019702975A480178B14202D2807E6A
:104E100000287DD10DF13808CDF80080EFF3118521
:104E20000220FDF7FFFE014652480068C0F3022051
:104E3000401C012282408818C0B280F311880121F1
:104E40003046FFF7C9FF38B14B484C4950F826208F
:104E5000204600F0A5F804461C213046FFF7BCFFB1
:104E600000285ED046A24549204600F099F820442B
:104E700084B204213046FFF7AFFFF8B152463F49F4
:104E8000204600F08DF8204484B208213046FFF718
:104E9000A3FF38B13BA23949204600F081F82044F5
:104EA00084B20BE010213046FFF796FF30B136A2F6
:104EB0003249204600F074F8204484B2082130467C
:104EC000FFF78AFF90B14A462C49204600F068F867
:104ED000204484B210213046FFF77EFF30B12BA270
:104EE0002649204600F05CF8204484B21021304668
:104EF000FFF772FF70B15B4626A2052101A8FDF7FE
:104F000009FE01AA1D49204600F04AF8204400E0AD
:104F10002BE084B220A21949204600F041F8204439
:104F200084B21648C4F58071204443460D9AFDF7BB
:104F30001DFE00974FF48071002804DB2044884256
:104F400001DC86B200E00E46B01C884200D9FE2685
:104F500012A20A49304600F023F8304481B20748D3
:104F6000FFF706FFE8B280F31188BDE8FE8F00006E
:104F7000588D00200CED00E0647D0020588C00204E
:104F800028000000200000003A000000204C696E5C
:104F9000653A0000256C6400292000000D0A00001D
:104FA00030B50546002000290CD0002A0AD006E0C2
:104FB0002B18FF2B06D8CC54521C401C80B21478FE
:104FC000002CF5D130BD000010B5074A06214CF287
:104FD000010091F6BBFB01F067FA0AF001FCBDE8A5
:104FE0001040022007F0D6BF9A02210010B50848F1
:104FF000017800290AD101210170064892F6BAFA17
:10500000BDE810400021044892F64ABC10BD0000E3
:10501000487D0020D5611000DDCE200070B58CB039
:1050200006460C46002C30D0242103A8FDF751F889
:1050300020780025012410B1012822D104E08DF848
:105040000C508DF80D401CE011A0F921CDE90010A5
:10505000174B18A21DA10220FFF7CAFE8DF80C40C5
:105060008DF80D4010210DF10E00FDF732F84020B3
:105070008DF80E00E2208DF80F008DF810408DF8AD
:10508000115003A9304686F6A1FD0CB070BD00009A
:10509000506C6561736520496E7075742070696E1F
:1050A00020636F64653A203132333435362E000088
:1050B000BC0321002E2E5C5372635C757365725CB9
:1050C000757365725F6170702E6300004E4F5F54A0
:1050D000414700002DE9F04104460D461746002DDA
:1050E00004D0012D02D00120BDE8F081CCB1C7B1C0
:1050F000EFF311860220FDF787FD8046FDF7BCFD2A
:10510000401C0121814008EB0100C0B280F31188EE
:1051100000206070A570E761F0B280F31188002074
:10512000E2E70120E0E710B50446002C0CD0204651
:1051300000F04AF9FF2060700021A160E160216168
:1051400061610020E06110BD012010BD10B586B086
:10515000094A00210948FFF7BDFF0446002C09D089
:105160001422074901A8FCF79BFFADF8084001A8ED
:10517000FFF79CF906B010BD2569200038D8002043
:10518000A8032100F0B5DDE90745059981614FF4D9
:105190007A76A2FB061C03FB06C3002702FB07323C
:1051A000C0E9021209196A41C0E904120021016232
:1051B000F0BD00002DE9F0410446002C13D0EFF3C0
:1051C00011850220FDF720FD0746FDF755FD401C27
:1051D000012606FA00F03844C0B280F31188124864
:1051E000002121620EE00020BDE8F081D4E9043204
:1051F000D1E9047CDB1B72EB0C0202D2016A216252
:1052000003E00846016A0029F0D10462667006488E
:1052100010380168491C0160016B4160E8B280F3FD
:1052200011880120E0E70000E88A00202DE9F04124
:1052300005460024EFF311860220FDF7E5FC074642
:10524000FDF71AFD401C012181407818C0B280F39F
:105250001188134A106BE8B115B102F1100010E08B
:105260000446206A10631068401E10600CE0A942DA
:1052700006D11168491E1160296A01622C4603E0BB
:105280000846016A0029F2D124B100202062607032
:10529000106B5060F0B280F311882046BDE8F081B9
:1052A000D88A00202DE9FF5F82460E4693464FF0D4
:1052B0000008BAF1000F20D0414886421DD8E6B15F
:1052C000EFF311870220FDF79FFC0446FDF7D4FCA5
:1052D000401C012181406018C0B280F31188504603
:1052E00005F012F910B19AF8010040B1F8B280F35C
:1052F00011880F2004B0BDE8F09F0120FAE706F006
:105300009DFD04460D464FF47A7106FB01F02246DE
:105310002B46002104F0BCFFDFF8A890B0B1D9F80B
:10532000040048B1D0E90410091B60EB0500C9E98D
:10533000021006F0FDFD04E00021C9F80810C9F8CC
:105340000C104FF00108D9E9020106E0D9F8040079
:10535000D0E90421101B61EB0501CDE902013246C1
:105360000023CDF800B05046FFF70CFF5046FFF782
:1053700021FF09F06DFB4FF0E021D1F800014FF063
:10538000806210F0806F01D0012000E0002018B989
:10539000C1F88022C1F80021B8F1000F0AD0D9F875
:1053A0000400D0E90431D9E90202181A61EB0201C4
:1053B00006F07AFDF8B280F3118800209AE7000029
:1053C000008AB907D88A00202DE9F041044600255B
:1053D000002C39D0EFF311870220FDF715FC0646AB
:1053E000FDF74AFC401C012181407018C0B280F3D7
:1053F00011886078012824D1144E7068A0420BD126
:1054000006F01CFDD4E90432181A62EB0102C6E969
:10541000020206F08DFD01252046FFF707FF5DB172
:10542000706848B1D0E90421D6E90203101A61EB93
:10543000030106F039FD04E01DB9706808B906F0F3
:1054400077FDF8B280F31188BDE8F081D88A00209A
:1054500070B504461A4D55F82400703008F0F3FD7D
:1054600082B21646A2B155F8240090F80111012924
:105470000ED0012180F80411802A0FD355F82400A2
:10548000802200F18001703008F0F2FD80260CE0EF
:1054900055F82410002081F8000170BD55F8240053
:1054A00000F18001703008F0E3FD55F82400324629
:1054B00000F18001001D2BF6A7FE0028EDD170BD84
:1054C000BC8A0020704700002DE9F84304464B4E8B
:1054D00056F82400071D062C7ED290F86C10002987
:1054E0007AD0012978D180F80111002556F82400DE
:1054F000D0E903120A44017D01F00101C91D02EB4C
:1055000001084168CA6FC2F38002002AFAD090F8FD
:105510000411E1B1DFF8E8906D1C56F82400001D7D
:105520002BF6CEFA10280BD056F82400D9F800102C
:105530008068B1FBF0F000FB08F0B5EBC01FEBD9C1
:1055400056F82400703008F07EFD85B226E0B0F8F1
:105550002480C58C001D2BF6D1F856F8240041F2AA
:10556000883300EB0801491B8031001D2A462BF6C9
:10557000F8FDE5E756F8240001227030694608F08E
:1055800077FD56F824004068C16FC1F3400100293F
:10559000FAD09DF8001001606D1EADB2002DE9D16A
:1055A00056F82400703008F04EFD0028C8D1386845
:1055B00041694906FCD5EFF31085012080F310887E
:1055C00056F82400703008F03EFD68B1EFF310810A
:1055D000012080F3108800E00DE03868426842F056
:1055E0008202426081F3108856F82410002081F86E
:1055F000010185F31088BDE8F8830000BC8A002013
:10560000600300202DE9F04105460F462C78002D5F
:1056100005D022B1062C04D3E820BDE8F081E520B6
:10562000FBE7384E05F1580046F82400D2E9003176
:105630000A467030194608F0F1FC291D286D0AF061
:1056400061F80028E9D156F82410281D486656F85C
:105650002400076056F824001822083005F14001A4
:10566000FCF71EFD284856F8241000EBC4056868B6
:10567000486056F82400001D04F02EF956F8240066
:10568000001D04F045F9204801220321103807F0DD
:10569000B9FC56F82410012081F86C0056F824104B
:1056A000002081F8000156F8241081F8010156F815
:1056B000241081F8020156F8241081F803011349DF
:1056C0000C2009F059FA12490D2009F055FA114938
:1056D000342009F051FA1049352009F04DFA0F49EC
:1056E000362009F049FA0E49372009F045FA95F9B4
:1056F000010021F64FFE95F9010021F669FE002018
:105700008BE70000BC8A002088002100952A200039
:10571000A52A2000B52A2000C52A2000D52A20006D
:10572000E52A200070B5062801D3E82070BD134C8F
:1057300054F820304BB193F86C5035B139B132B1D7
:1057400093F80351012D04D010E0E52070BDE42052
:1057500070BD002583F8035154F820305B680225A2
:10576000C3F8885054F820305B681B6854F8200058
:10577000001D04F037F90028EAD170BDBC8A002072
:1057800070B5007802285BD1FF25002402222DA1EC
:105790002D48FCF7B0FCC0B104222CA12A48FCF72C
:1057A000AAFCA8B104222BA12748FCF7A4FC90B1C5
:1057B00005222AA12448FCF79EFC78B1022229A1E7
:1057C0002148FCF798FC60B10DE0022400250AE0B6
:1057D0000424012507E00424022504E00524032510
:1057E00001E0022404251848012204441EA1204699
:1057F000FCF781FC80B1204601221CA1FCF77BFC58
:10580000A0B10124F4211048FCF763FC214628468E
:10581000BDE87040FFF78AB92046022214A1FCF7C8
:105820006AFC08B10224EDE70324EBE720460222DC
:1058300010A1FCF760FC08B10524E3E70424E1E7CC
:1058400070BD00007570000018940020646F776EC2
:10585000000000006C6566740000000072696768F3
:10586000740000006F6B00002B0000002D00000092
:105870002B2B00002D2D00002DE9F04104461A4D80
:1058800055F82400703008F0DEFB82B2164600277F
:105890007AB155F8240090F80111012909D0802A25
:1058A0000ED300F180017030802208F0E1FB8026E9
:1058B0000BE055F8240080F800710020BDE8F0816D
:1058C00000F18001703008F0D3FB55F8240080F817
:1058D000047155F82400324600F18001001D2BF6BA
:1058E00057FD0028EAD1E9E7BC8A002070B50628F8
:1058F00001D3E82070BD0C4D55F820407CB194F8E0
:105900006C6066B169B162B1002684F8026155F835
:105910002000001D2BF625FC0028EBD170BDE520F2
:1059200070BDE42070BD0000BC8A00202DE9F84362
:1059300007460C46904604F1080520468EF636FCD4
:105940000346344E70680021A7F58042DFF8C8C0D6
:10595000B2F5804F03D2DCF80010401A0121E218A2
:10596000824202DD0520BDE8F8833068421EC2F3A2
:105970000B02821A02F6FF72C2F3073211B1DCF891
:10598000001000E00021DFF894C0DFF89490DCF80C
:1059900000C0D9F80090ACEB090C96F80990A2EB86
:1059A00009020CEBC202101A401A001FE9188142CA
:1059B00029DD00254FF4004911231F2249462846BE
:1059C000009571F64BFE0021084603F093FA40B1B2
:1059D00013231F2249460020009571F63FFE0F2039
:1059E000C1E7707A04F092FB0028BCD112231F2279
:1059F0004946009571F632FE424621463846BDE8DA
:105A0000F84309F0B1BF424621463846BDE8F843A5
:105A100009F0AABF90470020B8350020C435002007
:105A2000BC3500200948006800280DD090F82E10E1
:105A3000012909D190F83000FF2805D24FF03041FC
:105A4000086840F08060086070470000400C00204B
:105A500010B586B0044668466EF664FD9DE80E00FB
:105A600003A80EC00B4A891C21F0704151601046FA
:105A70006EF646FF07486EF6B7FF207F002806D176
:105A8000054991F80101054A01EB0010426006B09A
:105A900010BD00008C290020A029002011BD20008D
:105AA00002F07EBC10B58CB008A809F0DFFABDF892
:105AB000221009989DF82120CDE904109DF820308E
:105AC0002FA040F26311CDE90232CDE90010364B30
:105AD00036A23CA10220FFF78BF90AA87CF688FFCA
:105AE000044654B114223049103103A8FCF7D8FA07
:105AF000ADF8104003A8FEF7D9FC9DF828009DF8EA
:105B00002910CDE906109DF82A209DF82B30CDE90B
:105B100004329DF82C109DF82D002CA24FF4B47384
:105B2000CDE90032CDE902011F4B20A225A10220C0
:105B3000FFF75EF930A040F26F11CDE900101A4B6B
:105B40001AA220A10220FFF753F908F05FFF02F02C
:105B500027F8FFF7FBFA354900207DF67FF9044668
:105B6000002C0AD014221049243103A8FCF798FA1B
:105B7000ADF8104003A8FEF799FC0CB010BD000072
:105B8000476F6F64697820424C452053444B205640
:105B900025642E25642E25642028636F6D6D69743D
:105BA0002025782900000000440421002E2E5C539B
:105BB00072635C757365725C757365725F6170703A
:105BC0002E6300004E4F5F54414700004C6F6361ED
:105BD0006C20426F61726420253032583A25303291
:105BE000583A253032583A253032583A2530325812
:105BF0003A253032582E00004170706C65204E6F8F
:105C000074696669636174696F6E2043656E74655B
:105C10007220436C69656E74206578616D706C6587
:105C200020737461727465642E0000003C7E002055
:105C3000002070470020704710B508F0E9FA07F01F
:105C400069FB08F0A1FF09F043FE05F093FF04F0A3
:105C500067FC08F095FC08F09BFC04F0D3F8BDE865
:105C6000104008F0C7BA00002DE9F0413D4C6FF03C
:105C70000200C4F898003C490125280608603B4909
:105C800000200860394A1C32106840F002001060A1
:105C9000106840F001001060106820F002001060F1
:105CA0000B1F186840F001001860186820F002000F
:105CB00018602E4834380168C1F300410029FAD138
:105CC0002A4940F2AA2638390F6866F301070F60A7
:105CD0000E6826F00C0646F008060E600E6826F0E8
:105CE000C00646F080060E60204940F2FF3740397A
:105CF0000E6867F301060E600E6826F00C0646F08B
:105D00000C060E600E6826F0C00646F0C0060E6057
:105D100005600168C1F300410029FAD1106820F044
:105D200004001060186820F004001860106840F04B
:105D300004001060186840F004001860012008F0AA
:105D4000A4FF04F52074206820F040002060206843
:105D500020F010002060206820F020002060BDE8C6
:105D6000F081000000A0004084E200E0C4A40040F4
:105D700010B504F0F9FF04F0A5FF01F0A1FE04F056
:105D800091FFBDE8104005F017BC00000F490868FE
:105D900020F0040008600D482030026822F0040260
:105DA00002600A6842F002020A600A6822F00102F8
:105DB0000A60016841F001010160016841F00201DF
:105DC0000160016821F0010101607047C0A400403A
:105DD00070B509F031F940F21A4120B140F24C405F
:105DE00008F09EFF03E040F22E4008F099FF0D4CB2
:105DF000A07850B1E08808F0A3FF0546208908F09C
:105E00009FFF294609F0DEF805E04FF461714FF479
:105E10007A7009F0D7F8BDE8704002484A3006F0C1
:105E200063BF00008C80002010B50446002C0CD00D
:105E3000204600F067F9002807D104494968002985
:105E400003D02046BDE81040084710BD1C7F00204D
:105E50000EB5018840F20233A1F20232994246D0D7
:105E600013DCB1F5807F1FD0A1F5007107391FD079
:105E700001292DD0FA292AD1027903B000F10801B5
:105E800010465DF804EBFEF771BA042A36D0A2F58D
:105E90004072FE3A39D0012A19D14088002816D123
:105EA000BDE80E40FDF718BFBDE80E40FFF7FABD94
:105EB000408800280BD019A14FF49C72CDE9002135
:105EC00002901F4B1FA225A10320FEF791FF0EBDDC
:105ED000007A0028FBD123A040F23F11CDE9001049
:105EE000174B18A21DA10320FEF782FF0EBD017AF9
:105EF000007903B05DF804EBFEF794BA007903B0C3
:105F000001215DF804EB7DF63BBC027903B0411D35
:105F100010465DF804EBFFF781B800004164766538
:105F20007274696E6720737461727465642066614F
:105F3000696C656428305825303258292E000000DD
:105F4000340421002E2E5C5372635C757365725CA1
:105F5000757365725F6170702E6300004E4F5F5401
:105F6000414700004164766572746973696E672009
:105F700074696D656F75742E00000000044A52F854
:105F8000200050F84B2F0A608088888070470000FE
:105F9000141900202DE9F04786B004460D4600276D
:105FA000EFF311860220FCF74BFE8046FCF76CFEF7
:105FB000401C4FF0010A0AFA00F04044C0B280F3DE
:105FC000118887F6DDFC8046CDE901A4B946CDE90C
:105FD0000395022000902D2309221021484671F6D6
:105FE0003DFB95B1601E4AF2B811884209D32E23B9
:105FF000092210210020CDF8009071F62FFB012717
:106000001AE0952803D2962401E04FF461740F48FA
:10601000A0F8044135B190F81C1141F0040180F85A
:106020001C1105E090F81C1121F0040180F81C11EE
:10603000418841F002014180404687F659FCF0B2A8
:1060400080F3118806B03846BDE8F087F4380020A8
:1060500038B504460D4600200090002C05D0694656
:106060000C487CF6FBFA10B110E0022038BD142079
:1060700093F634FE014659B105CCC1E90102CD6069
:106080009DF800000874044804F0F0FB002038BDBF
:10609000102038BDD00421001080002000B5AFB022
:1060A000094901200870FF22B82101A8FCF70AF86D
:1060B0004FF48070ADF804000020ADF8060001A890
:1060C000FFF7B2FE2FB000BD1C7F002000214FF073
:1060D0003040C1608161C0F8D011C11741610162D7
:1060E000C0F8D81103496FF4806008600220FCF703
:1060F00053BD000084A000400149002001F0A6B873
:1061000069AE200010B50446002C22D00021228860
:1061100040F20253A2F202509A4279D033DC40F2AC
:106120000643A2F206409A425DD01BDC40F20243D5
:10613000A2F202409A424ED00DDCA2F54072013A22
:106140003DD0012A3BD0FF2A41D0B2F5807F55D106
:106150003FE0002010BD01283FD002283FD0032897
:106160004CD13EE0042846D006DC01283DD0022870
:106170003DD0032842D13CE005283ED0FA2842D049
:10618000FB283BD144E0082847D007DC082835D25B
:10619000DFE800F0343E3E3E3E3E3E430C283CD01D
:1061A00006DC092839D00A2837D00B2826D134E05C
:1061B0000D2832D00E2830D0FF281FD132E02046E3
:1061C00002F038FD204602F0C1FA002010BD2189FE
:1061D00014E0218912E0218910E061890EE0218A12
:1061E0000CE021890AE0618908E0A18906E0618963
:1061F00004E0A18902E0218A00E061892046BDE82F
:10620000104002F0E5BD2046BDE8104002F08EBC13
:106210002046BDE8104002F0F5BB2046BDE8104026
:1062200002F0EEBA204602F0E5F9002010BD0000B1
:1062300070B50446002C1CD00225114EF079844222
:1062400010D0304690F90610ACB10320C91CB171D2
:106250000C490A6800EB92030A6863F389020A603A
:1062600007F068FFF4710849086C65F3871008644B
:1062700070BD0025E1E76FF00200C91EB171E7E7CC
:106280001C820020201101B0002001B02DE9F04156
:1062900005460E4614461F46204600F033F83B469E
:1062A000224631462846BDE8F04184F67FBC2DE900
:1062B000F04105460E4614461F46204600F022F8DF
:1062C0003B46224631462846BDE8F04184F6A4BE4E
:1062D0002DE9F04105460E4614461F46204600F0C3
:1062E00011F83B46224631462846BDE8F04184F687
:1062F000FBBE000002490878FF220A7070470000C8
:106300007282002010B5C0B283F62CFF0149143808
:10631000087010BD7282002010B513210A4806F0E3
:106320008FFE05210848983006F090FE01210648AE
:10633000083806F07FFEFFF77FFCFFF719FDBDE888
:106340001040FFF7ADBB00000C78002030B5856829
:10635000027B002D02D0002001210CE0104630BD50
:10636000CB0801F00704EB5CE340DB0701D0401CE5
:10637000C0B2491CC9B28A42F2D830BD00230849D4
:10638000496808E00A89824204D84A89824201D3D6
:10639000CB6802E009680029F4D118467047000074
:1063A0000880002001460548406803E002798A42DF
:1063B00002D000680028F9D1704700000880002052
:1063C000F0B5AFB0204E7078FFF7ECFF0446200028
:1063D0000AD02169E08809680880206981F654FEA6
:1063E000054600271DB124E00C202FB0F0BD206928
:1063F000FFF7ACFF0146206902681288228100681D
:10640000008808446081E06898B1FF22B82101A8A3
:10641000FBF758FE40F20C40ADF80400ADF80670F2
:106420002089ADF80C006089ADF80E00E16801A884
:1064300088477078401CC0B270703178884200D1B3
:106440007770E8B2D1E700000880002010B5084A54
:106450001378002B01D00F2010BD31B150600448DB
:10646000083000F007F8002010BD022010BD000029
:106470001C7F002070B504460D46FFF73DFE08491D
:10648000012008F079FB0749022008F075FBFFF7AF
:1064900043FF29462046BDE8704085F60BBF00004B
:1064A0009D1708003D16080010B500F0ADF800F08B
:1064B0006DF8BDE8104000F08BB8000010B5124830
:1064C000016821F0070141F0040101600A2009F68A
:1064D0009DF80D488438016821F480710160012124
:1064E000002024F639FB01201AF6D8F807490220CB
:1064F000087008F0BDFA0649322008F03DFBBDE8FF
:1065000010403220FCF773BB90A800408C82002022
:10651000EF21200010B519480068C0F30B0017499F
:106520000831096821F07F41401C00EE100ADFEDC0
:10653000140AB8EE400A60EE200A00EE101A114963
:10654000B8EE400A80EE801AB6EE000A31EE000A7C
:10655000BCEEC00A10EE100A486006F089FB08F095
:10656000A1FD0948016841F480710160064884304A
:10657000016821F00701016010BD000004E4004043
:106580000024F44B8C8200200CA8004000B587B09A
:1065900003218DF804100220029005228DF80C20B2
:1065A00001208DF80D0000238DF80E308DF81010AD
:1065B00005908DF818208DF819008DF81A00034AFF
:1065C000022101A8FEF736FB07B000BD2D4B2000CD
:1065D0007CB51020009002248DF804408DF8054011
:1065E00007258DF8065069460420FEF7C1F84020C3
:1065F00000908DF804408DF805408DF806506946EE
:106600000420FEF7B5F87CBD00B587B000F01EF899
:1066100003208DF800001D208DF8160001208DF854
:1066200017008DF818008DF81900044A04496846CF
:10663000FEF7B2FBFDF736FE07B000BD4566200051
:10664000B16620000320FEF73FBF00001CB51448D0
:1066500000904FF4806001901248032202704FF4C2
:10666000E1310164426400218164C1640165012358
:106670004365017420244461427403760171102340
:10668000836042710173084941638163022180F88C
:106690003C1080F83D206A460449FEF7B3FF1CBD5C
:1066A000B0830020B087002000900140C554200036
:1066B0000A4601464FF47A730320FFF717B90A28F8
:1066C00004D840F6641101EB40007047242804D838
:1066D00040F6661101EB40007047252804D02628BB
:1066E00005D04FF41B60704740F66210704740F6CB
:1066F0007A107047052110F1190F01DC022110E01A
:1067000000F114020F2A01D803210AE00F2801D852
:10671000042106E0A0F11402192A02D932280CDB68
:10672000062106480268C2F303328A4205D0026895
:1067300022F4704242EA01310160704714A800401F
:1067400010B50021084624F607FA012019F686FF45
:106750000248816821F48071816010BD00A0004072
:1067600010B514480068C0F30000002807D0114895
:1067700008380068C0F3000008B108F0D1F90E48ED
:106780000068C0F3000038B10B4808380068C0F357
:10679000000008B100F038FC08F050F9002807D0DC
:1067A00003F06EFB002803D0BDE81040FFF7C8BF20
:1067B00010BD000008E4004008E5004010B508F0F6
:1067C000CFF900F0CDFB10BD10B502F02DFE05F0A5
:1067D0007DFF06F00FFCBDE8104000F09BB8000004
:1067E0002DE9FC4104468846164D4FF6FF76164FBC
:1067F00012E02968082201EB0030694686F60AF8A3
:10680000082802D01020BDE8FC81BDF80000B0428D
:1068100008D12078401C20702078797A8842E8D30B
:106820000020F0E709489DF80010C170BDF8021083
:1068300081809DF8011088F80010217841700020B7
:10684000E1E70000BC35002090470020C83500205B
:1068500010B51248016821F0004101600F23011DAD
:106860000A6863F31F720A600A6822F4E07242F455
:10687000C0720A60016841F0004101600848016887
:1068800041F0010101600749312008F075F906491E
:106890004FF40030C1F8000110BD000004A9004011
:1068A00088E200408529200004E000E0F8B5EFF31D
:1068B0001085012080F31088072000906846FCF7BF
:1068C000ADF80220FCF7B2F8322008F69FFE0B4C20
:1068D000206840F002002060094E708908F696FE9C
:1068E000206820F002002060B08908F68FFE9DF835
:1068F0000000FCF79BF885F31088F8BD04A9004060
:10690000F080002008B500906A460121092083F636
:106910006FFB08BD024901480860704771711000A3
:10692000CC0500200020FDF7DFB900000249014836
:1069300008607047316D1000440D002010B593F6CB
:10694000FDF8002800D0FEE710BD00000148408B94
:10695000704700007445002000B585B0002101910A
:10696000029103910491124A537E127E1B0243EA64
:106970000040104300900191029103910491012085
:10698000029001A802F096FD01A802F09DFD0123EE
:106990006A464A2101A802F0F1FD0F23044A44216E
:1069A00001A81CF60FFB01A802F084FD05B000BD94
:1069B0007445002070B506460C4615466FF400403D
:1069C00010EAC43F05D040F24D420AA10FA001F6E3
:1069D000A5F9E80B05D040F24E4206A11AA001F637
:1069E0009DF994204643274845EAC4313044A0F835
:1069F000661170BD72665F6764785F62616C695F23
:106A000062315F70617463682E6300002828287506
:106A1000696E7431365F7429727877696465203CD9
:106A20003C203135292026207E282875696E743156
:106A3000365F7429307830303030383030302929A2
:106A4000203D3D203000000028282875696E7431F3
:106A5000365F7429727877696E737A203C3C2030F7
:106A6000292026207E282875696E7431365F7429A6
:106A7000307830303030374646462929203D3D2099
:106A800030000000008000B0024928220248FBF7D5
:106A900007BB0000CC052100008100B000B500F06C
:106AA0000BF85DF804EB03F07BBA000001480078B6
:106AB00070470000DCDD002030B5084C0125257052
:106AC0006060E2602361A16005488068884201D26D
:106AD000081A00E0401A606130BD0000DCDD0020D3
:106AE000A882002010B503F035FA044618210548A5
:106AF000FBF7EFFA034A002111702046BDE8104071
:106B000000F046B9DCDD0020F0B404460E462C4807
:106B10002C4FB9680578026244628C4201D9631A2D
:106B200000E00B1BFF689F4206D313463246214606
:106B3000F0BC0020FFF7B2BF87699F4201D9836193
:106B4000C261012D0AD0022D27D0032D36D1134664
:106B500032462146F0BC0020FFF7A0BF44618C42C2
:106B600003D90169491EC16002E00169491C8160C5
:106B7000D0E90212914209D2114449080161012170
:106B8000017001693046F0BC00F01EB802210170AE
:106B900081683046F0BC00F017B8C169914206D157
:106BA000134632462146F0BC0020FFF777BF032191
:106BB0000170C1693046F0BC00F006B8F0BC704707
:106BC00084DD0020A8820020054A936A5B1C936242
:106BD0008AB2C1B20348044B406803F05FB90000B9
:106BE00084DD0020A8820020096B200070B50546D6
:106BF0000D4C2C212046FBF76CFA0020A06040F2DF
:106C0000FF10E060FF2222614FF0FF30A061A06A18
:106C1000401CA062012020700448E9B2044B406887
:106C2000BDE8704003F03AB984DD0020A88200205E
:106C3000096B20002DE9F84307460D4690462E4C7F
:106C4000207801280BD0022813D00820E06101B081
:106C500043462A463946BDE8F043FFF71FBFE760C9
:106C600040F2FF1121612846BDE8F843022200F0FE
:106C700079B8002600966761684600F03FF870B169
:106C8000012810D002281FD003282DD00720E06152
:106C900043462A463946FFF701FFBDE8F8832846F8
:106CA000FFF7A4FFF9E70F2D06D23146A6600122B7
:106CB000681C00F057F8F0E70520E06143462A46DB
:106CC0003946FFF7EBFEE8E735B1A6600122002167
:106CD000681E00F047F8E0E70620E06143462A46D8
:106CE0003946FFF7DBFED8E70098E06143462A46C5
:106CF0003946FFF7D3FED0E764DD002010B5174B0F
:106D000017490A698968154CDB6864698B4203D9A5
:106D10008C4201D9022010BD8B4203D28C4201D299
:106D2000012010BD8B4201D95B1A00E0CB1A8C42C6
:106D300001D9611A00E0091B934203D3914201D3A8
:106D4000002010BD934201D2022010BD914201D219
:106D5000012010BD02210160032010BD64DD002070
:106D6000A882002030B4074B9C69641C9C61586069
:106D70001A708AB2C1B20448044B406830BC03F0B8
:106D80008DB8000064DD0020A8820020356C200052
:106D900070B50546064C20212046FBF79AF90021E4
:106DA000A1602846BDE870400122FFF7DBBF00006C
:106DB00064DD0020F8B50E461F4C00250095E16902
:106DC000491CE1616660A260E1682161E0601B49E5
:106DD0008B68834201D2C01A00E0181A61698142AF
:106DE00001D96061A261684600F02AF858B1012813
:106DF0000ED0022814D0032818D00098A062204694
:106E000000F0BFF8F8BDA562204600F0BAF8F8BD62
:106E1000012084F820003046A16900F077F8F8BD21
:106E2000A1683046491C00F071F8F8BDA1683046F1
:106E3000491E00F06BF8F8BDB0DD0020A8820020EC
:106E40002DE9F0432F4A304FB96800250026D3685A
:106E50008B4201D95C1A00E0CC1AFF68A74202D32A
:106E60000020BDE8F083D2F82480B8F1010F10D0E3
:106E700092F82040012C0ED0224CD2F81CC04FF0CA
:106E80000109A769A468C4450BD3A74205D1002016
:106E9000E7E70020E5E70020E3E782F82090012003
:106EA000DFE7BCF1010F11D9D2F810C08C4501D930
:106EB0008B4203D38C4509D28B4207D9A74201D11B
:106EC0000020CEE782F820900120CAE78B4201D94A
:106ED000012600E0012545B1B4F5FF7F03D9092162
:106EE00001600420BDE70220BBE736B10CB10320EE
:106EF000B7E70A2101600420B3E70B2101600420F9
:106F0000AFE70000B0DD0020A88200208AB2C1B245
:106F10000248034B406802F0C1BF0000A882002075
:106F2000B56D200070B504460E4615462C21094863
:106F3000FBF7CFF8074B002183F82010491E596159
:106F40005C620548AAB2F1B24068BDE87040034BEC
:106F500002F0A4BFB0DD0020A8820020B56D2000A3
:106F600010B502F07DFF00280AD0FFF79FFD18B191
:106F7000BDE8104000F028B8BDE81040FFF7B2BDF2
:106F800010BD00B500F004F85DF804EB03F008B89C
:106F90000B4901220A71826A8A60C269CA60C268AA
:106FA0000A6142684A6182688A61064AC0689268DA
:106FB000904201D9801A00E0101AC86170470000A1
:106FC000F4DD0020A88200202DE9F04102F0C2FF8C
:106FD000074602F0D1FF8046094C266809484569FA
:106FE00020212046FBF775F8761C266000202071D2
:106FF000424639462846BDE8F041FFF793BF0000FE
:10700000F4DD0020A882002010B50E4C2069401C41
:10701000206102F0CBFFE06002F09CFF606002F0B4
:10702000ABFFA060084A002111606161E3692BB1E8
:1070300082B22179E068BDE810401847BDE81040F1
:1070400002F0AEBF44DD002000E5004005490448E1
:107050000860064904480861054905200870704722
:10706000515A2000380D0020255A20008C2900207C
:10707000818200202DE9FC41164804680834164E30
:107080003078002802D000208FF66EF8134D4FF6AE
:10709000FF770822694620468FF670F8BDF8000099
:1070A000B84211D080B1BDF802008DF67FF8BDF86E
:1070B00002100830084481B220468DF653FB044686
:1070C00028688442E5D32C6830788FF64DF8204646
:1070D000BDE8FC81BC350020B5350020C43500205A
:1070E00010B50021084B5A681B8809E052F831405E
:1070F000844203D102EBC100406810BD491C89B233
:107100009942F3D310BD00003480002010B5002157
:10711000084B5A695B8809E052F83140844203D138
:1071200002EBC100406810BD491C89B29942F3D3FB
:1071300010BD00003C80002010B50021084B5A68AB
:107140001B8809E052F83140844203D102EBC100B0
:10715000406810BD491C89B29942F3D310BD0000AC
:107160001C8000200349095C002902D0002103F0A3
:107170000FBF704738DD002008B51A48016821F0BC
:1071800070010160016821F0070141F00401016014
:1071900015490978002909D0124984390A6842F44E
:1071A00080720A60016821F007010160012004F08B
:1071B000EDFF0020FCF7C4FF05F0FCFB80B10020D0
:1071C0008DF80000A3208DF8010002208DF8020048
:1071D00068468FF6ADFD05F085FA05F029FC08BD7F
:1071E000FEE7000090A800400081002070B5044632
:1071F00000BFFBF751FD05460120FBF75BFE06488B
:10720000047024B9482205490548FAF749FF284681
:10721000FBF750FE00BF70BD407E0020A8D80020C4
:10722000002000E010B5074840680749486006485C
:107230000830402203490831FAF732FF032002499F
:10724000086010BD60D80020002000E070470000FA
:1072500070B500BFFBF720FD05460120FBF72AFEB5
:107260000948047834B9482208490948FAF718FF50
:10727000FFF7D8FF0120044908702846FBF71AFEE3
:1072800000BF204670BD0000407E0020002000E0CE
:10729000A8D8002013B501216846FDF769FD01203B
:1072A0001CBD00002DE9F04387B00C46072762782B
:1072B000A178CDE903720020CDE9050121784FF0D6
:1072C0000308CDE900800291EE230922102170F617
:1072D000C5F960780126DFF8F890052530B101285E
:1072E00034D0022846D003286ED157E0207888F6A3
:1072F000DDFBC0EBC00109EB81014D72A278452A8C
:1073000009D1CA681278022A16D091F82020022AE0
:1073100001D081F8206091F82020012A03D0022AB0
:1073200001D081F8208091F82020022A4CD0C96831
:107330000978022905D101E04F72ECE7A1784529CF
:1073400042D0244A0021126890473DE089F89950C4
:10735000A078452805D199F89C00022801D089F829
:107360009C6099F89C0002282ED01B4900200968D7
:10737000884729E089F8A550A078452805D199F8D3
:10738000A800062801D089F8A86099F8A800062866
:107390001AD0124900200968884715E0207888F63D
:1073A000F3FB09EB001181F8B150A278462A01D015
:1073B000CE2A01D181F8B35091F8B310022903D03D
:1073C000074A00211268904707B00020BDE8F0830B
:1073D000F4380020343400203834002040340020B9
:1073E0003C34002010B5AEB00C46FF22B8216846F0
:1073F000FAF768FE40F20A20ADF80000ADF802404E
:107400006846FEF711FD2EB010BD10B5AEB00446B3
:10741000FF22B8216846FAF755FE40F20D20ADF87C
:1074200000000020ADF802001C22214602A8FAF755
:1074300037FE1C3409946846FEF7F6FC2EB010BDEA
:1074400030B5AFB005460C46FF22B82101A8FAF7C7
:1074500039FE40F20722ADF80420ADF806408DF861
:10746000085001A8FEF7E0FC2FB030BD37B5AEB034
:1074700005460C46FF22B8216846FAF723FE4FF472
:107480000272ADF80020ADF802408DF804509DF86E
:10749000C0008DF808006846FEF7C6FC31B030BD6C
:1074A00000B5AFB0FF22B82101A8FAF70BFE4FF4E8
:1074B0004170ADF804000020ADF8060001A8FEF709
:1074C000B3FC2FB000BD30B5AFB004460D46FF226F
:1074D000B82101A8FAF7F6FD4FF44372ADF8042085
:1074E0000022ADF806208DF80840B022294603A8F6
:1074F000FAF7D6FD01A8FEF797FC2FB030BD10B506
:10750000AEB00446FF22B8216846FAF7DBFD40F230
:107510000331ADF80010ADF802406846FEF784FC78
:107520002EB010BD70B5AEB005460C461646FF2213
:10753000B8216846FAF7C6FD40F20131ADF80010F7
:10754000ADF802408DF804501222314602A8FAF735
:10755000A7FD6846FEF768FC2EB070BD70B5AEB0F2
:1075600006460D461446FF22B8216846FAF7AAFDE2
:107570004FF44273ADF80030ADF802508DF804605E
:1075800020680290A088ADF80C006846FEF74CFC1D
:107590002EB070BD2DE9F04186B00C46C3F307252F
:1075A00028467EF691FF074628467EF68DFF002688
:1075B000CDE901650721CDE90310022000901723D2
:1075C00009221021304670F649F8FF2D66D0354962
:1075D0002088088060884880A0888880E088C880EB
:1075E000207A0872607A48720F74D4F80A20C1F8C1
:1075F0000A20E289CA812C4B03EBC5021660566053
:10760000B4F800C023F835C0DFF8A08001280CD101
:10761000C87B0121B1EB901F07D198F81C014007EE
:1076200003D5234841780A2931D804F10A02617A46
:107630001646284691F66EFA617A324628468AF650
:1076400045FC1C4C6FB1002086F652F9206828B129
:10765000836B1BB1134A00212846984786F690F9A0
:107660001CE0032088F8A800D8F8AC0000780128B6
:1076700014D1002086F63CF9206828B1836B1BB139
:10768000084A00212846984786F67AF906E00670EF
:107690000449074A0A31284688F69AFF06B00020B6
:1076A000BDE8F08190380020A2380020F438002096
:1076B000403500208433002070B5AEB006460D463C
:1076C0001446FF22B8216846FAF7FCFC40F2053365
:1076D000ADF80030ADF802508DF8046020680290DB
:1076E000A088ADF80C006846FEF79EFB2EB070BD7A
:1076F00030B5AFB005460C46FF22B82101A8FAF715
:10770000E1FC40F20632ADF804200022ADF806207C
:107710008DF80850206803906068049001A8FEF777
:1077200083FB2FB030BD30B5AFB004460D46FF220D
:10773000B82101A8FAF7C6FC40F20D32ADF80420DA
:107740000022ADF806208DF80840B022294603A893
:10775000FAF7A6FC01A8FEF767FB2FB030BD30B5E5
:10776000AFB004460D46FF22B82101A8FAF7AAFCE3
:1077700040F20622ADF80420ADF806400E2229465C
:1077800003A8FAF78DFC01A8FEF74EFB2FB030BD21
:1077900030B5AFB004460D46FF22B82101A8FAF774
:1077A00091FC40F20B32ADF804200022ADF8062027
:1077B0008DF808402868039001A8FEF735FB2FB02C
:1077C00030BD10B5AEB00446FF22B8216846FAF7C6
:1077D00079FC40F21531ADF80010ADF80240684672
:1077E000FEF722FB2EB010BD70B5AEB005460C46BC
:1077F0001646FF22B8216846FAF764FC40F20233CD
:10780000ADF80030ADF802408DF804508DF80860F6
:107810006846FEF709FB2EB070BD0000FEB50E46AF
:107820001C46B07800250127CDE900750290182389
:107830000922102128466FF611FFEFF311811C4831
:1078400002781C480068C0F30220401C8740D01911
:10785000C0B280F31188C4F30724174A02EBC400B6
:10786000056045604FF6FF7022F83400C8B280F31F
:107870001188204691F6CEF920468AF699FB2046DB
:1078800091F6B4F8204600F075FA002086F630F83C
:107890000A48006838B1C36B2BB1B0789030C2B2DF
:1078A00000212046984786F66BF80020FEBD0000B8
:1078B00002E400E00CED00E0A23800208433002058
:1078C0002DE9F04F87B00446EFF311890220FBF752
:1078D000B7F90546FBF7D8F9401C4FF0010808FA44
:1078E00000F02844C0B280F3118886F649F8824639
:1078F000694D0727002695F8A500DC23CDE9017026
:10790000CDE90364022000900922102130466FF671
:10791000A5FE8DF8194095F8A5000C210D224FF019
:10792000090B0A2874D2DFE800F0050C9C9C9C1916
:10793000283C424D87F6E0FA85F8A58085F8A860D6
:1079400094E0002C09D085F8A56085F8A6608DF834
:10795000181006A9002086F6F5F887E095F8A6002D
:10796000A22804D087F680FC85F8A5B07EE089F6D1
:107970008FFB062085F8A50078E04CB187F674FCF3
:1079800085F8A5B0042085F8A80085F8A9406DE029
:1079900085F8A5708DF8181006A9002086F6D2F893
:1079A00064E089F697FC082085F8A5005EE0002CCD
:1079B0005CD085F8A5708DF8182006A9002086F601
:1079C000C1F853E0A4356E70FF2028702879A43DDB
:1079D000042807D0062812D0304C012819D00328DB
:1079E00024D043E085F8A8608DF8181095F8A90018
:1079F0008DF8190006A9002086F6A4F836E085F86F
:107A0000A8608DF8182006A9002086F69BF82DE0C6
:107A100027E085F8A860002085F66AFF206810B18D
:107A2000406C00B1804785F6ABFF1FE085F8A86089
:107A3000D5F8AC000078012818D0002085F658FF52
:107A4000206858B1806B48B1154800888CF6E4FB7B
:107A50002168C0B2124A8B6B0021984785F690FFCF
:107A600004E09D220FA115A000F658F995F8A50095
:107A7000CDE900870290DD230922102100206FF656
:107A8000EDFD504685F634FF09F0FF0080F31188C4
:107A900007B0BDE8F08F0000F438002084330020E8
:107AA00090380020626C655F73646B5F6761706D16
:107AB0005F70617463682E63000000003000000096
:107AC0000249014808607047C17820004034002016
:107AD00070B5AEB006460D461446FF22B821684682
