:020000040020DA
:1020000000000820ED212000313E2000016010007A
:102010002F3E2000AD3D2000393F20000000000091
:10202000000000000000000000000000156010002B
:102030002D3E200000000000333E20005D3E2000C9
:1020400000F002F800F0C2F80AA090E8000C824408
:102050008344AAF10107DA4501D100F0B7F8AFF2E5
:10206000090EBAE80F0013F0010F18BFFB1A43F076
:10207000010318472C9F00006C9F00000A444FF09A
:10208000000C10F8013B13F0070408BF10F8014BD7
:102090001D1108BF10F8015B641E05D010F8016B1C
:1020A000641E01F8016BF9D113F0080F1EBF10F880
:1020B000014BAD1C0C1B09D16D1E58BF01F801CBA3
:1020C000FAD505E014F8016B01F8016B6D1EF9D526
:1020D0009142D6D370470000103A24BF78C878C127
:1020E000FAD8520724BF30C830C144BF04680C601E
:1020F000704700000023002400250026103A28BF66
:1021000078C1FBD8520728BF30C148BF0B60704769
:102110006E2900F03884702900F0B581662909F035
:102120008985652909F08685672909F083856129F4
:1021300009F0828503681B0A28BF41F080016929E4
:1021400000F02681642900F02381752900F02081A8
:102150006F2900F03885782900F08181E92900F0A5
:10216000D384E42900F0D084F52900F0CD84EF2950
:1021700000F03585F82900F080810368DB0928BF6D
:1021800041F08001632900F04284732900F0478404
:10219000E32901F00B81F32901F010810020704741
:1021A0001FB509F014FD01F039F9040000200021E9
:1021B00008F022FF401C60600020002108F006FFAC
:1021C000E06000F063FB1FBD10B510BDDFF80CD060
:1021D000FFF7E6FF06F048FD01F0D6F90000082001
:1021E00003B4FFF7F1FF03BC02F0E3F901488047B5
:1021F00001480047C93E2000958E200004F01EBB18
:1022000058585247010000002655000000202000C9
:10221000002020007FED9247010100000000000037
:1022200000000000000000000000000000000000AE
:10223000000000000000000000000000000000009E
:102240007CB51D4616460C00009001D02044401E6F
:10225000074B7B442A4669460190304600F0ADFBAF
:1022600005461CB10020694600F0BAFB28467CBD3B
:10227000950700000FB4044910B503AA029800F0B6
:10228000D3FB10BC5DF814FB687D00200FB41CB5B7
:10229000084B06AA7B4469460090059800F08DFB28
:1022A00004460020694600F09BFB20461CBC5DF8FC
:1022B00014FB0000490700000FB47CB50C0009AA0C
:1022C000009001D02044401E084B7B446946019099
:1022D000089800F072FB05461CB10020694600F02A
:1022E0007FFB28467CBC5DF814FB00001D07000046
:1022F00070B5044685690068C10601D5302600E046
:102300002026C00707D070BDD4E901213046904790
:10231000206A401C20626D1EF6D570BD70B5044663
:1023200085690078C00707D170BDD4E9012120205C
:102330009047206A401C20626D1EF6D570BD70B5B6
:102340000C460546012A05D02878800600D5EA69A2
:10235000002302E0012305E05B1C934202D2E05C13
:102360000028F9D1A869E618C01AA861286A18449B
:1023700028622846FFF7BCFF04E0D5E9012114F8E4
:10238000010B9047B442F8D32846FFF7C7FF70BD52
:102390002DE9F0410646002410687529314616A53E
:1023A00010D000F085FA002802DA404213A507E0B9
:1023B00031688A0701D512A502E0490704D511A5A5
:1023C000012401E000F07DFA00210A2206F1240731
:1023D00009E0B0FBF2FCB0FBF2F302FB1C00303072
:1023E00078541846491C0028F3D123462A46304623
:1023F000BDE8F04100F06EBA000000002D000000C2
:102400002B00000020000000F0B40D4601880905F3
:1024100002D5214C7C4402E01F4C7C440E34002148
:1024200000F1240608E002F00F071209E75D42EA16
:1024300003721B097754491C52EA0307F3D102784F
:102440000023120704D5702D06D009B102231134E0
:102450002246F0BC00F03EBA01231034F8E770B514
:1024600004460D462146106800F02BFA0246294624
:102470002046BDE870400023C6E7D21D22F00703C6
:10248000D3E90023C0E70368126843F02003036028
:102490000823C3610023B7E7689A00002DE9F05FC5
:1024A000894604464FF0000ADFF874B1FB44C0F8D7
:1024B00020A02046E1688847002874D0252806D04F
:1024C000D4E901219047206A401C2062F1E70026F0
:1024D0005F462046E16888472028054607DB312D06
:1024E00005D2781910F8200C08B10643F1E7B007BF
:1024F00001D526F00406C4F81CA00027C4F818A0D3
:102500002A2D09D0284602F04DF838B304EB87088D
:10251000303DC8F8185019E059F8041B204604EB68
:1025200087029161E1688847012F054618D1E0696B
:10253000002820DA26F020061DE0D8F8180000EB6D
:10254000800005EB40003038C8F818002046E168EC
:102550008847054602F026F80028EED1012F0AD060
:102560002E2D08D12046E16888477F1C0546022FA2
:1025700046F02006C4DBA069002803DA404246F09A
:102580000106A061F00701D026F010066C2D0BD0DB
:10259000682D09D04C2D39D06A2D35D0742D35D009
:1025A0007A2D33D016E038E0E1682F462046884780
:1025B000B842054609D16C2F26D04FF48060E168FF
:1025C000064320468847054604E06C2F1AD04FF496
:1025D000807006430DB3A5F14100192802D82035BB
:1025E00046F400664A462946204626604E46FFF7D6
:1025F0008FFD80B101280BD0F61D26F0070000F1F9
:10260000080956E74020E4E78020D8E70020D6E715
:1026100006F104094DE7284652E7206ABDE8F09F1D
:10262000F899000040EA010310B59B070FD1042A76
:102630000DD310C808C9121F9C42F8D020BA19BA8D
:10264000884201D9012010BD4FF0FF3010BD1AB1F2
:10265000D30703D0521C07E0002010BD10F8013B47
:1026600011F8014B1B1B07D110F8013B11F8014B6E
:102670001B1B01D1921EF1D1184610BD10B5431C91
:1026800002E010F8011B71B18107FAD14FF001325D
:1026900002C88C1A8C4314EAC211F9D0C01A0A0677
:1026A00003D0C01E10BDC01A10BD0A0401D0801E88
:1026B00010BD0902FCD0401E10BD40EA010370B5F8
:1026C0009B072ED14FF00136042A2AD308C810C91F
:1026D0009D1B9D43121F15EAC61517D0D8B2E1B253
:1026E000401A50EA056110D198B2A1B2401A50EADE
:1026F00005410AD123F07F4024F07F41401A50EA7F
:10270000052102D1180EA0EB146070BDA342DBD0EE
:1027100018BA21BA884201D9012070BD4FF0FF30AC
:1027200070BD0AB9002070BD10F8013B11F8014BD3
:1027300063B1A3420AD1521E08D010F8013B11F830
:10274000014B1BB1A34201D1521EEDD1181B70BD2C
:10275000032A40F2308010F0030C00F0158011F8CD
:10276000013BBCF1020F624498BF11F801CB00F8A5
:10277000013B38BF11F8013BA2F1040298BF00F8F9
:1027800001CB38BF00F8013B11F0030300F02580B6
:10279000083AC0F0088051F8043B083A51F804CBDD
:1027A000A0E80810F5E7121D5CBF51F8043B40F8A3
:1027B000043BAFF30080D20724BF11F8013B11F8AE
:1027C00001CB48BF11F8012B24BF00F8013B00F8F2
:1027D00001CB48BF00F8012B704710B5203AC0F07C
:1027E0000B80B1E81850203AA0E81850B1E8185012
:1027F000A0E81850BFF4F5AF5FEA027C24BFB1E84F
:102800001850A0E8185044BF18C918C0BDE81040BF
:102810005FEA827C24BF51F8043B40F8043B08BFC8
:102820007047D20728BF31F8023B48BF11F8012B8F
:1028300028BF20F8023B48BF00F8012B70474FF03B
:10284000000200B5134694469646203922BFA0E800
:102850000C50A0E80C50B1F12001BFF4F7AF09070C
:1028600028BFA0E80C5048BF0CC05DF804EB8900FD
:1028700028BF40F8042B08BF704748BF20F8022B40
:1028800011F0804F18BF00F8012B704770B5064C4F
:102890007C44064D7D4403E0206820448047241D8D
:1028A000AC42F9D170BD0000789800007898000023
:1028B00009684A0501D540B27047C905FCD500B288
:1028C000704709684A0501D5C0B27047C905FCD5F3
:1028D00080B270472DE9F0470D469946924604466E
:1028E00000F124080168880604D5E06921F0100190
:1028F000216000E00120A84201DD471B00E0002725
:10290000A1697A1902EB0900081AA0612078C006B3
:1029100002D42046FFF7ECFC002608E0D4E90121B0
:102920001AF806009047206A401C761C20624E452B
:10293000F4DB2078C0060AD52046FFF7D9FC06E074
:10294000D4E9012130209047206A401C2062381EC3
:10295000A7F10107F4DC07E0D4E9012118F805002C
:102960009047206A401C2062281EA5F10105F3DC77
:102970002046FFF7D3FC2078000602D50220BDE8F0
:10298000F0870120FBE711680268006A530501D552
:1029900008700AE0D30501D5088006E0130603D5C8
:1029A000C217C1E9000200E0086001207047000082
:1029B00001694A1C02610878704700B58FB0CDE903
:1029C00001310021059105497944CDE903101146F3
:1029D0006846FFF763FD0FB000BD0000E5FFFFFF95
:1029E0000A6802F8010B0A607047D1E900239A4295
:1029F00002D2531C0B601070704710B5436913B1BD
:102A0000AFF3008001E0FFF79AFC012010BD1278BF
:102A100000F124010A7000224A700122EDE71168DA
:102A20004FF0FF32E9E70000074B70B50D467B44DD
:102A3000FFF7C3FF0446284600F0C4FC10B14FF076
:102A4000FF3070BD204670BDCB4A00002DE9FF5F0E
:102A500015468A460446DFF8AC80F8440027D8E9DA
:102A600000103E46CDE9001010E03AF816106A4614
:102A700002A800F0ABFC411C07D02178890603D5E1
:102A8000E269391891420DD80744761C20788006F7
:102A900002D5E069B84205DDAE42E6DB3AF8160041
:102AA0000028E2D1A069C01BA0612046FFF720FCEE
:102AB000D8E90010CDE90010002017E03AF818100E
:102AC0006A4602A800F082FCB0F1FF3F81460BD0BD
:102AD00000250DF1080B05E0D4E901211BF80500E4
:102AE00090476D1C4D45F7D308F10100B042804678
:102AF000E4DB206A384420622046FFF70FFCBDE883
:102B0000FF9F00005E9400002DE9F0418046D21D39
:102B100022F007020025D2E90002F52915A614D0FB
:102B2000011E72F1000106DA0023D0EB030063EB13
:102B3000020211A608E0D8F800108B0701D50FA6F5
:102B400002E0490701D50EA601251146002408F12F
:102B5000240704E000F04EF830323A55641C50EA85
:102B60000102F7D12B46324621464046BDE8F041EE
:102B7000FFF7B0BE000000002D0000002B00000099
:102B80002000000030B4002100F1240408E002F02D
:102B90000705D208303542EA4372DB086554491C08
:102BA00052EA0305F3D10468002310A2250707D5D4
:102BB000A40600D421B1C46901230DA2641EC4611E
:102BC00030BCFFF787BE10B5044621461068FFF7FA
:102BD00078FE02462046BDE810400023D2E7D21D11
:102BE00022F00701D1E90023CCE70000000000003B
:102BF0003000000030B5B0F10A024FEA900E71F1DA
:102C000000034EEA817EB0EB0E0061EB91014FEACA
:102C1000101E4EEA017E10EB0E0041EB11114FEA3F
:102C2000102E4EEA016E10EB0E0041EB11214FEA1F
:102C3000104E4EEA014E10EB0E0041EB11414018D0
:102C400041F100014FEAD00040EA41704FEAD10162
:102C500010EB80054FEA810444EA907444EB0104D0
:102C60006D1944EB0404521BA3414FF0000348BF0D
:102C70000A3200D530BD401C41F1000130BD704723
:102C80002DE9FF4F0C461E464FF0FF378BB0D2E9BF
:102C90000001DDF860800A908A46C1F30A5505B943
:102CA0003D46002108464FF00000BAF1000F00F445
:102CB000400005DA00EB80004FF4400101EA5000CB
:102CC0004FEA9059B9F1010F00DDB9460A9850EA70
:102CD0004A000ED044F61050A5F2FF3545432F149C
:102CE000B8F1000F1ED07542291E1EDDC9F1000289
:102CF0001CE0B8F1010F4FF0000001D0302103E0DB
:102D0000F24305E02154401CB042FBDB3046002278
:102D1000002121540B99C1F80880C1E900200FB0AF
:102D2000BDE8F08FBD1B6D1CDEE74A4600DA694244
:102D300006A800F0B7FB06AB93E8070003AB83E8F7
:102D4000070050460A9900F069FC8DE80700A0F5DD
:102D500000501F3800900398002D0ADD42F21F0139
:102D60004A460844002303A90390684600F0D2FEB7
:102D700009E0A0F500504A461F38002303A903903C
:102D8000684600F0DCFE8DE807000004000C03D06C
:102D90004FF0FF30410800E01046B8F1000F03D0BB
:102DA0000022009215461EE0751E05D4FFF722FF93
:102DB000303262556D1EF9D5B3460122084302D068
:102DC00000227F1C04E02078302801D100227F1EE1
:102DD000002A099784D01DE0112D07DAFFF70AFFBA
:102DE000303262556D1C50EA0102F5D1084302D021
:102DF0000098C8B10EE00021681E05E0235C625C0B
:102E000063542254401E491C8142F7DBAB46A81B89
:102E1000401E0990002004F80B000B98099AC0F896
:102E20000880C0E9002B7AE711264FF0000857E729
:102E30002DE9F04F88460446D21D22F0070191B0DB
:102E4000D1E90001CDE90A0101F077F802460B98BB
:102E5000C00F01D02D2007E02068810701D52B206D
:102E600002E0202101EAC000032A099001D0072ACC
:102E700005DB03464146204600F0D4FA0BE12078FA
:102E8000800601D5E06900E00620B8F1650F8146B3
:102E900006D0B8F1660F18D0B8F1670F70D131E0E5
:102EA0000020B9F1110F009001DB112301E009F1BD
:102EB00001030AAA01A90CA8FFF7E2FEDDE90C70E4
:102EC000002609F10105834647E001204B460090AA
:102ED0004FF000470AAA01A90CA8FFF7D1FEDDE9CF
:102EE0000DB00C995D46002610B909F101000D18CE
:102EF000B9EB050003D4C0F1FF3609F10105A5EBDC
:102F000009002BE0B9F1010F01DA4FF001090020AF
:102F1000B9F1110F0090484601DD112300E003468E
:102F20000AAA01A90CA8FFF7ABFEDDE90C704D461B
:102F300000268346207800070AD4AB4500DA5D46B8
:102F400001A8012D04DD411911F8011C302907D019
:102F50004F4502DA17F1040F04DA012082460FE030
:102F60006D1EEEE7002F02DCED1B3E4403E0781CF3
:102F7000A84200DD7D1CB81B00F1010A4FF000479C
:102F80002078000703D4AA4501DB4FF0FF3A002167
:102F9000B7F1004F0DF143088DF8431024D0022003
:102FA0002B23002F01DA7F422D230A21021EA0F1DC
:102FB000010000DC5FB197FBF1FC97FBF1F201FB34
:102FC0001C7C17460CF1300C08F801CDEEE7A8F197
:102FD000010003702188090501D5452100E0652124
:102FE000A0F1010800F8011C09980FA9A1EB08073E
:102FF000FF1D00B10120411901EBEA70A1693844BD
:10300000081A401EA0612078C00602D42046FFF7AF
:103010006FF9099828B1D4E901219047206A401C32
:1030200020622078C00622D52046FFF761F91EE015
:10303000002E04DBB34502DD01A8805D00E03020F6
:10304000D4E901219047206A401C2062761CAAF135
:1030500001005FEA000A0AD100F0E0F9C0680168E7
:10306000405CD4E901219047206A401C2062281E60
:10307000A5F10105DCDC07E0D4E9012118F8010B1A
:103080009047206A401C2062381EA7F10107F3DC3C
:103090002046FFF743F9032011B041E62DE9F04F38
:1030A00004460D46D21D22F0070089B0D0E90097F2
:1030B0004846394600F041FF0246F80F01D02D2363
:1030C00007E02068810701D52B2302E0202101EAD7
:1030D000C0038DF820300BB1012000E00020032A4E
:1030E000824601D0072A04DB2946204600F09AF9DF
:1030F0003FE12078800601D40D2500E0E569C7F3A3
:103100000A560D2D49DA00214FEA175B08464FF0A9
:103110000000002F00F4400007DA00EB80004FF4BD
:10312000400100EBD07001EA60008115012901DD4A
:103130004FF0FF3100224FEA850CBCF1180F06D387
:103140001346ACF118004FF08052C24003E04FF438
:10315000801323FA0CF30CF10C0CBCF1200F04D3F8
:10316000ACF1200C09FA0CF001E007FA0CF0002990
:103170004FF0004801DD18B90FE00ED140450CD3E7
:1031800019EB02095F4121B9404502D19F4329EA69
:103190000209BBEB175F00D0761C2088000502D522
:1031A0007B48784402E07A487844193808AA3023EA
:1031B00002F80A30037C0AF10101002E0AF1020A2A
:1031C00053546A4602DC4FF0300101E04FF0310108
:1031D0004FF001088DF8001002D0A6F2FF3603E090
:1031E00059EA470100D06B4E002D02DC2178090717
:1031F00004D54FF002082E218DF80110C44600219D
:103200000BE0C7F303433F01C35C491C6D1E02F88A
:103210000830052908F1010801DA002DF1DC002150
:103220000CE000EB1973491C1B786D1E082902F88D
:1032300008304FEA091908F1010801DA002DF0DC25
:1032400021688B0602D516E0A8F10108E04505DDEE
:1032500002EB080313F8013C302BF5D0B8F1000F56
:1032600009DD02EB080313F8013C2E2B03D10907FB
:1032700001D4A8F10108002D05DD3E2102F8081057
:103280006D1E08F10108407C002E02F8080008F1CC
:10329000010804DA2D20764202F8080002E02B2013
:1032A00002F808000A214FF47A70864208F10108FA
:1032B0000BDB96FBF0F3303302F8083096FBF0F3AB
:1032C00008F1010800FB136601E0642E0CDB6420AA
:1032D00096FBF0F3303302F8083096FBF0F308F178
:1032E000010800FB136601E00A2E06DB96FBF1F0F5
:1032F000303002F8080008F1010896FBF1F001FBFC
:103300001060303002F80800A16908F1010808EBEC
:10331000050202EB0A00081AA0612078C00602D458
:103320002046FEF7E5FF216A08AE01EB0A002062A5
:1033300004E0D4E9012116F8010B9047BAF1010A23
:10334000F7D22078C00602D52046FEF7D1FF6E46A0
:1033500009E016F8010B3E280FD0D4E9012190476F
:10336000206A401C2062B8F10108F2D22046FEF724
:10337000D5FF09B00320BDE8F08F206A2844206201
:1033800003E0D4E90121302090476D1EEBD3F8E72C
:10339000318D000002FCFFFF10B5436913B1AFF39C
:1033A000008001E0FFF752FB012010BD128800F100
:1033B000240182840022C2840122EDE711684FF0CB
:1033C000FF32E9E7007B00F08000704770B51646D9
:1033D0000C46054600F01AF8036893F8010101282D
:1033E00006D0FF2C0FD8185D68B101202C7070BD7D
:1033F000D3F807013246214603F207130344284657
:10340000BDE8704018474FF0FF3070BD10B500F0B8
:1034100005F8001D10BD00BFE17B000000487047AB
:10342000509600202DE9F0411F460446032601680E
:10343000072A01F4006004DB08B116A505E016A513
:1034400003E008B115A500E015A521F010002060EB
:10345000A069C01EA0610FB1401EA0612046FEF70A
:1034600047FF4FB1D4E9012138469047206A401CFC
:103470002062C01C206206E0206AFAE7D4E901213C
:1034800015F8010B9047761EF8D22046FEF746FF4E
:10349000BDE8F0814E414E006E616E00494E46001F
:1034A000696E66002DE9F047814616468AB03548B8
:1034B00078440DC88DE80D0032487844801C03AC78
:1034C0000DC884E80D0041F69B300844372190FB7D
:1034D000F1F290FBF1F5A5F1800501FB12041B3C14
:1034E00002D56442012000E00020DFF898A0804669
:1034F0000027FA44AAF1BE0A0EE0E0070AD03246DD
:10350000684607EB470101230AEB810100F017FB36
:103510008DE8070064107F1C002CEED1194F7F440A
:10352000AE3F19E0E80715D007EB04100DF1180ABB
:1035300090E80E008AE80E00C068F04201D19819A8
:1035400008903246012306A903A800F0F8FA03AB5D
:1035500083E807006D10641C002DE3D14FF00103D8
:1035600032466946B8F1000F03A802D000F0D2FA43
:1035700001E000F0E4FAC9E90001C9F808200AB046
:10358000BDE8F087B48A000010B50446AFF30080B0
:103590002046BDE81040FEF723BE00004FF0013C7E
:1035A00050F8042B51F8043B9A4221D1A2EB0C03B2
:1035B000934313EACC1317D150F8042B51F8043B72
:1035C0009A4215D1A2EB0C03934313EACC130BD10F
:1035D00050F8042B51F8043B9A4209D1A2EB0C039A
:1035E000934313EACC13DBD04FF00000704700BFC9
:1035F000D01A01BAB1FA81F101F0180122FA01F0F2
:10360000CB40C1F12001DBB2C0B2C01A2CFA01F3E9
:10361000D11A914311EAC311E6D170475FEA400C19
:1036200008BF91F0000F4FEA8C234FEAC12243EA12
:1036300051514FEA1C5018BF00F5F0404FEA3000DE
:1036400018BF41F000415FEA6C5C00F02980BCF1DA
:10365000FF3F08BF40F080407047130C06BF1204C4
:103660004FF0100C4FF0000C130E04BF12020CF1BF
:10367000080C130F04BF12010CF1040C930F04BFCC
:1036800092000CF1020CD30F04BF52000CF1010C9C
:1036900011464FF00002A0F11F00A0EB0C00704794
:1036A00011F0004F08BF704731F000413FF4D5AF33
:1036B0000B0C06BF09044FF0100C4FF0000C0B0E62
:1036C00004BF09020CF1080C0B0F04BF09010CF137
:1036D000040C8B0F04BF89000CF1020CCB0F04BF4C
:1036E00049000CF1010CCCF12003A0EB0C0022FAF4
:1036F00003F302FA0CF241EA030100F10100704702
:1037000020F07F4C80EA030023F07F47ACEB0703F7
:1037100003F57C5300F0004003F1FF032DE98049DD
:103720004FEA154B09B44FEA144325EA0B4E24EA3D
:1037300003480FF2042606EB132749083E785FEA98
:10374000320203FB0667C7F5000707FB06F64FEAE0
:1037500054374FEAD64606F1020607FB066CCCF159
:10376000005C4FEA1C472CEA074C07FB06F40CFBF5
:1037700006F504EB15464FEA961634BF00204FF0CD
:1037800000404FEAD13706FB07FC4FEA1C4C0CFB0C
:103790000BF7D21B03FB0CF761EB07010CFB0EF7D9
:1037A000B0EB074072EB17420CFB08F734BFA2EBFB
:1037B0000742B2EB074261EB17414FEA0C444FEA74
:1037C000910706FB07FC4FEA1C4C0CFB0BF7B0EB18
:1037D000C74072EB573203FB0CF734BFA2EBC74272
:1037E000B2EBC74261EB57310CFB0EF7B0EBC700F1
:1037F00072EB57720CFB08F734BFA2EBC702B2EBB7
:10380000C70261EB5771039F4FEA816141EA921150
:1038100004EBCC044FEAD1374FEA826206FB07FC87
:1038200042EA90124FEA80604FEA1C4C0CFB0BF707
:10383000D21B03FB0CF761EB07010CFB0EF7B0EB9F
:10384000074072EB17420CFB08F734BFA2EB0742AC
:10385000B2EB074261EB17414FEA8C554FEA9107F3
:1038600004EB9C2406FB07FC4FEA1C4C0CFB0BF7FB
:10387000B0EBC74072EB573203FB0CF734BFA2EB3F
:10388000C742B2EBC74261EB57310CFB0EF7B0EB0E
:10389000C70072EB57720CFB08F734BFA2EBC702EC
:1038A000B2EBC70261EB577115EB4C254FEA816112
:1038B00041EA92114FEA82624FEAD13742EA90120E
:1038C00006FB07FC44F100044FEA80604FEA1C4C01
:1038D0000CFB0BF7D21B03FB0CF761EB07010CFB96
:1038E0000EF7B0EB074072EB17420CFB08F734BF42
:1038F000A2EB0742B2EB074261EB174115EB1C1537
:103900004FEA813141EA92414FEA823242EA9042E3
:103910004FEA80304FEA0C7644F1000448EA034352
:103920004EEA0B484FF0000EB2EB080C71EB0307A8
:1039300024BF624639464EEB0E0E4FF0000B0018C6
:10394000524149414BEB0B0BB2EB080C71EB0307F7
:103950007BF1000B24BF624639464EEB0E0E4FF052
:10396000000B0018524149414BEB0B0BB2EB080C1A
:1039700071EB03077BF1000B24BF624639464EEB27
:103980000E0E51EA020718BF46F0010616EB0E763E
:1039900055F1000254F1000103D5BDE88901BDE8ED
:1039A0000088BDE88901BDE80048B619524141EBE5
:1039B0000101A3F10103704780807F7E7D7C7B7ACB
:1039C0007978777676757473727171706F6E6E6DCB
:1039D0006C6C6B6A6A696868676666656464636371
:1039E00062616160605F5F5E5E5D5D5C5C5B5B5AF7
:1039F0005A59595858575756565555555454535364
:103A000052525251515050504F4F4F4E4E4D4D4DBE
:103A10004C4C4C4B4B4B4A4A4A4949494848484709
:103A20004747474646464545454444444443434347
:103A30004342424242414141002B9C4630D47700F0
:103A40002BD01CB54FEA370703B44FF010004FF0EE
:103A50001001BAF1000F06D0BCF1000FDCBF40F03E
:103A6000080040F008014FF000000FBCBDE8104016
:103A70000BF1010BBBF1010F08BF5FEA170722BF73
:103A800012F1010211F101014FF0004143F1000375
:103A900000F0004043EA00007047F9D35708D0E730
:103AA00046EA064613F1400F4FEA16461FDD13F1B2
:103AB000200FDFBF16430A46002120335B42BED0F1
:103AC000C3F1200746EA064602FA07F74FEA164610
:103AD00046EA0706C3F1200722FA03F201FA07F7C4
:103AE00021FA03F14FF0000342EA0702A7E746EA92
:103AF000020646EA06464FEA164646EA0106BCBFFB
:103B000046EA0646360C4FF000034FF000024FF035
:103B1000000194E72DE9804C9A46934670B491E8F1
:103B2000380007C831EA400C48BF34EA430C03D5DB
:103B3000FFF7E6FDFFF780FFF0BCBDE8008C2DE944
:103B4000804C9A46934670B491E8380007C810F04C
:103B5000804F08BF13F0804F03D100F005F8FFF746
:103B60006BFFF0BCBDE8008C20F07F4780EA0300CB
:103B700023F07F4C07EB0C03A3F57C5300F00040CF
:103B8000A3F1FE0392F0000F00F0B38095F0000F58
:103B900000F077802DE901494FEA11404FEA1446C1
:103BA00021EA004800FB06FC24EA064708FB06F66B
:103BB00007FB08F800FB07F718EB06484CEB164C20
:103BC0004FEA124B18EB07484FEA15464CEB1740EB
:103BD00022EA0B4E0BFB06FC25EA06470EFB06F617
:103BE00007FB0EFE0BFB07F71EEB064E4CEB164CCD
:103BF0004FF000061EEB074E4CEB174B18EB0B0873
:103C000040F1000018EB0E0B58EB000840F10000EB
:103C10008F1A4FF000013CBFC943661B14BFB5EBC0
:103C2000040C00213CBFC943F61B4FEA17444EEA7F
:103C30008E0E27EA04454FEA1C4704FB07622CEA74
:103C4000074C05FB07F70CFB05F604FB0CFC16EB19
:103C5000074642EB174216EB0C4642EB1C421BEBAD
:103C6000060658EB0202414146EA9E0601D5BDE830
:103C70000189B619524141EB0101A3F10103BDE8ED
:103C800001894FEA14454FEA114724EA054621EA23
:103C9000074C05FB07F406FB07F70CFB06F105FBD9
:103CA0000CFC11EB074144EB17444FEA124711EBB0
:103CB0000C4144EB1C4422EA074C05FB07F206FBCF
:103CC00007F70CFB06F605FB0CFC16EB074642EB70
:103CD000174216EB0C4642EB1C456A1854F10001E2
:103CE00048BF7047B619524141EB0101A3F10103EE
:103CF000704795F0000F37D04FEA11424FEA144752
:103D000021EA024624EA074C02FB07F106FB07F70B
:103D10000CFB06F402FB0CFC14EB074441EB1741CF
:103D20004FEA154714EB0C4441EB1C4125EA074CC4
:103D300002FB07F506FB07F70CFB06F602FB0CFC83
:103D400016EB074645EB174516EB0C4645EB1C42B8
:103D5000121951F1000148BF7047B619524141EBA9
:103D60000101A3F1010370474FEA14454FEA1147DF
:103D700024EA054621EA074C05FB07F106FB07F795
:103D80000CFB06F24FF0000605FB0CFC12EB0742A1
:103D900041EB174112EB0C4251EB1C4148BF7047FD
:103DA000921841EB0101A3F101037047FEE710B542
:103DB00002F07EFE10BD000070B5032017490968AF
:103DC00041F38001491C164D00290CD113490C31D7
:103DD0000968C1F3000131B110498C39096801F05B
:103DE0000701884303D02869401C286170BD0D4C31
:103DF000206820F001002060206840F0040020606E
:103E000009494FF40030086002F002FFE868401CE6
:103E1000E860206840F00100206070BDD4A400403C
:103E2000487F002088E2004084E200E0FEE7FEE7F1
:103E3000FEE7FEE726F6B2BE05280CD2064A116858
:103E400001F4E021B1EB004F05D0116821F4E0212D
:103E500041EA00401060704700A00040FEE700000B
:103E60000249096801F007010170704700A0004095
:103E700070B50446072C20D2104E306800F00700C1
:103E8000A04214D0032004F0B7FCF06820F007052E
:103E900045F00100F06000BF00BF00BF00BF20463A
:103EA00004F0AAFC064850F824002843F0600448B7
:103EB00004491C3850F82400086070BD00A0004080
:103EC00024BE2000600300200248016841F4700114
:103ED0000160704788ED00E002480068001D03F0B3
:103EE0008DBF0000548F002002484068001D03F081
:103EF00085BF0000548F002002488068001D03F039
:103F00007DBF0000548F00200248C068001D03F0F0
:103F100075BF0000548F002002480069001D03F0A7
:103F20006DBF0000548F002002484069001D03F05F
:103F300065BF0000548F0020FEE703B401984100E4
:103F4000009850EAC12018BF04204A0D18BF40F065
:103F5000010040F2FF72B2EB515F08BF40F0020077
:103F6000012808BF052002B07047002809DB00F0D7
:103F70001F02012191404009800000F1E020C0F8BB
:103F800080127047002809DB00F01F0201219140D8
:103F90004009800000F1E020C0F88012704700283E
:103FA0000DDB00F01F02012191404009800000F16B
:103FB000E020C0F88011BFF34F8FBFF36F8F7047C1
:103FC000002809DB00F01F02012191404009800018
:103FD00000F1E020C0F800117047002809DB00F074
:103FE0001F02012191404009800000F1E020C0F84B
:103FF0000011704700280FDB4109890001F1E02121
:10400000D1F8001100F01F0201209040014201D0C0
:10401000012070470020704700207047002804DB13
:1040200000F1E02090F80004704700F00F0000F16C
:10403000E02090F8140D7047002804DB00F1E02028
:1040400090F80004704700F00F0000F1E02090F8B5
:10405000140D7047002804DB00F1E02090F8000404
:10406000704700F00F0000F1E02090F8140D704749
:1040700002480068C0F30220704700000CED00E029
:1040800002480068C0F30220704700000CED00E019
:10409000EFF31080704700002DE9F0412DED020B89
:1040A0009FED3D0B2DED028B9FED3D8BDDE9025425
:1040B000C4F30A50A0F2FF36142E37DA002E18DAB5
:1040C00053EC102B9DED020B51EC100B06F0B6FFDC
:1040D00053EC182B07F0AEFB57D2002CBCBF4FF0AF
:1040E0000044002551DB54EA050018BF2E4C1BD1BB
:1040F0004BE02E4820FA06F704EA070028431FD0B9
:1041000053EC102B9DED020B51EC100B06F096FFBB
:1041100053EC182B07F08EFB37D2002C03DD4FF445
:104120008010F0400444BC4300252EE0332E07DC11
:10413000A6F114004FF0FF3121FA00F73D4206D1FD
:104140009DED020BBDEC028B02B0BDE8F08153EC9B
:10415000102B9DED020B51EC100B07F0A1FB53EC63
:10416000182B07F067FB10D2002C0DDD142E08BFB2
:10417000641C09D0C6F13400012101FA00F0284482
:10418000A84238BF641C0546BD43CDE902549DEDED
:10419000020BD7E7000000009C7500883CE4377EE6
:1041A00000000000000000000000F03FFFFF0F00D3
:1041B00080F31088704700002DE9F74F07460298FA
:1041C000DFF888A1DFF888814FEA500B5C46019D3B
:1041D0006048CAF800003F20D8F8041060F30501D9
:1041E000C8F80410D8F8040020F48030C8F804009F
:1041F000DAF8000020F4700040EA0750CAF8000026
:10420000DAF8000020F4702040EA0740CAF8000005
:104210000D2F05D1DAF8000040F40040CAF8000084
:104220000E2F05D1DAF8000040F48040CAF80000F3
:10423000DAF8000040F40050CAF80000DAF8000094
:1042400020F06050CAF80000DAF8000020F00F00FB
:1042500040F00300CAF80000002000F0CFF8012869
:1042600071D1DAF8000040F08040CAF80000002068
:1042700008E0D8F8081041F48031C8F80810401C54
:10428000411C05D0D8F80810C1F300210029F0D155
:10429000072000F0B3F8012855D141E000264FF483
:1042A0007A7924E04E451ED9DAF8000020F08040EB
:1042B000CAF80000DAF8000040F00040CAF8000038
:1042C000DAF8000020F00040CAF80000002000F0FA
:1042D00095F8012837D12049086A401C086205205A
:1042E0000BF694F972E701200BF690F9761CD8F8DA
:1042F0000800C0F300200028D4D0D8F8080000F04F
:104300007F02A24200D92246002006E0D8F8001021
:104310002980090C69802D1D401C9042F6D3A41AF7
:10432000002CBBD10298C00708D0D8F80800C0F311
:1043300000200028F9D0D8F800002880BDE8FE4F02
:10434000002000F05BB8BDE8FE8F000000A8004030
:1043500000E000400A070807487F00202DE9F041EF
:10436000044615480021C0F8941001214161134D05
:10437000686A134EF06200F0010149420140C8052D
:1043800012D440F2011704E044B1641E01200BF680
:104390003DF9A869B84204D1012003E00020BDE83E
:1043A000F08100200028EFD006480068706268683D
:1043B000B0620120F3E7000000D01D4200E00040A1
:1043C000487F002000A8004009480A49826A4A60E4
:1043D000094B426A1A60808D00F00102524202408D
:1043E000D00503D4086A20F001000862704700007D
:1043F000487F002000E0004000A800402DE9F04187
:104400000546114FF868C0F30240A84202D10120CE
:10441000BDE8F081F86820F007002843F860002428
:104420004FF6FF76F868C0F30240A84205D001209D
:104430000BF6ECF8641CB442F4D3B44201D1002072
:10444000E6E70120E4E7000000E00040F0B50646A2
:104450002DED068B89B00D469FED459B202101A8CF
:10446000FEF7EDF9B0EE498AF0EE698A4248C08B5A
:1044700007F04DF89FED411B53EC112B06F092FE17
:1044800041EC1A0B102201A93046FFF795FE0024DB
:1044900001AF04F1080037F8100007F038F853ECCA
:1044A000182B06F0CBFD41EC180B641CE4B2082C71
:1044B000EFD351EC180B9FED330B53EC102B07F09F
:1044C000BBF841EC180B0D2E02D00E2E29D046E081
:1044D0009FED2E0B51EC100B06F0A4FD41EC190BD7
:1044E000688807F014F853EC192B07F0A5F841EC95
:1044F000190B288807F00BF853EC182B07F0D0F9AC
:1045000053EC192B06F04EFE9FED221B53EC112BA2
:1045100006F048FE53EC1A2B06F090FD41EC190B07
:104520001DE09FED1E0B51EC100B06F07BFD41ECE6
:10453000190B688806F0EBFF41EC1A0BA88806F00F
:10454000E6FF53EC182B07F0ABF953EC1A2B06F0EF
:1045500029FE53EC192B07F06FF841EC190B09B049
:10456000B0EE490AF0EE690ABDEC068BF0BD000022
:104570000000000000000000B04500200000000026
:1045800000005940000000000000C03F0000000093
:104590000000004079E9263108AC5CBFB76DDBB69E
:1045A0006DDB0E4030380A2801D201207047002010
:1045B0007047704710B502F045FA10BD05F01CB900
:1045C00070B504460D462946204606F06FF8294688
:1045D000204604F02BFB2946204604F057FD70BD11
:1045E00003490A6822F4C06242EA4020086070472A
:1045F00004A8004006460F46154672B63846FEF738
:104600003DF8402801D9402002E03846FEF736F850
:1046100080463046FEF732F8402801D9402002E0BB
:104620003046FEF72BF804469C211048FEF707F9A8
:10463000424639460D48FEF78BF80C482246314673
:104640005C30FEF785F809484FF0AA3101644564F3
:104650004FF0BB3181644FF0CC3101654FF0DD315B
:104660008165002000F004F8FEE70000949000202F
:1046700030B5ADF20C4D04464FF4806103A8FEF74F
:10468000DEF8194D202085F83F0085F89B003CB1ED
:104690002846012C436DC26C09D0022C0CD00FE0CF
:1046A000114A12A15C3203A8FDF7F0FD08E012A147
:1046B00003A8FDF7EBFD03E017A103A8FDF7E6FD56
:1046C00003A90CA2686CCDE90121009019A3064A48
:1046D00019A1002000F050FD012C01D000F004FDD4
:1046E0000DF20C4D30BD0000949000205B455252FD
:1046F0004F525D20257300005B5741524E494E4793
:104700005D20506172616D303A25642C5061726198
:104710006D313A25640000005B504152414D5D20EF
:10472000506172616D303A25642C506172616D3157
:104730003A256400000000006170705F617373656A
:1047400072742E6300000000014895F6A9B80000BD
:104750006C7D002006460F4690461D4672B64046C8
:10476000FDF78CFF402801D9402002E04046FDF7CC
:1047700085FF04469C210D48FEF761F8224641461C
:104780000A48FDF7E5FF09484FF0553101644564DB
:104790004FF066318164C6644FF07731016547653B
:1047A000C94381650220FFF763FFFEE79490002074
:1047B0002DE9F04106460F4690461D464046FDF75E
:1047C0005DFF402801D9402002E04046FDF756FF3A
:1047D00004469C210D48FEF732F8224641460B481C
:1047E000FDF7B6FF09484FF01131016445644900F7
:1047F0008164C6644FF03331016547654FF0443141
:104800008165BDE8F0410120FFF732BF94900020A0
:104810002DE9F0410C2802D3E820BDE8F08100EB3F
:10482000C0001A4C00EB400614F82600F0B1EFF37C
:104830001085012080F3108804EB86000746001DD8
:1048400003F0B2F8002004F82600FF2038720020A0
:1048500000EBC00101EB410114F82110012902D045
:10486000401C0C28F4D30C2802D00AE0E920D4E73D
:10487000002005F069F8032022F699FD232022F696
:1048800096FD85F310880020C7E700009888002077
:104890000C2801D30020704700EBC000054900EB55
:1048A000400011F820201AB101EB8000001D704774
:1048B00000207047988800202DE9F05F0546894662
:1048C00000244FF0FF3846464FF0010A002D16D065
:1048D0004749032005F014FA4649232005F010FA51
:1048E000287970B101280CD002280AD0032808D0FA
:1048F000042806D0052804D04046BDE8F09FE520F6
:10490000FBE7EFF31083012181F310883A4F04EBAA
:10491000C40101EB410117F8212052B107EB8102DC
:10492000D5F800B0D2F804C0DC4514D1127A824226
:1049300011D104EBC40000EB400207EB82023846C1
:1049400092F83120022A04D026B2012200F8212058
:1049500004E00C2402E0641C0C2CD8D383F31088F0
:104960000C2C3FD200220321244804F0D5FF04EB95
:10497000C40000EB400007EB8004296861602879DF
:10498000207204F10C00242205F10801FDF725FF37
:104990001B48A0631B4820641B48E0630020606440
:1049A000C4F868901949606888420AD10320FFF76B
:1049B00021FB98B9032022F6EDFC032022F608FD26
:1049C0000CE01349884209D12320FFF713FB28B9D3
:1049D000232022F6DFFC232022F6FAFC201D03F020
:1049E00053F88246BAF1000F00D04646304684E7BD
:1049F000B1611000E16110009888002054BC2000D3
:104A0000596D2000C96C2000796C20000090014095
:104A100000A001402DE9F041014600291BD00024EF
:104A20000F4E0E4A357814E002EB04100F7803782D
:104A3000BB420CD14B684068034208D0707808B97B
:104A400000F030FB2046BDE8F04100F053BA641C92
:104A5000E4B2AC42E8D3BDE8F081000084870020D6
:104A60004C7D00207CB505460E46002D01D000246B
:104A700018E0E5207CBD05EB041041680091017A47
:104A80008DF80410417A8DF8051007218DF8061075
:104A9000C26800780023694600F038F80028E9D1A0
:104AA000641CE4B2B442E6D300207CBD10B50246DB
:104AB0000846052A25D2DFE802F003030311190096
:104AC000114951F832200104090C05D022B10146E8
:104AD000104603F063F810E0E42010BD10F0FF0F63
:104AE00002D002F00DFF08E0E42010BD10F0FF0F2F
:104AF00005D00146002022F6F1FB002010BDE42085
:104B000010BDE62010BD000070BC20002DE9F05F54
:104B100005460C469046994626680027042D11D07C
:104B200031462846FFF7C2FF2146284600F05EF8CE
:104B3000002808D1032D08D04FF0100A2807070ECF
:104B4000002448E0E620BDE8F09F4FF0080AF7E7B0
:104B5000F0073DD03DB1012D05D0022D03D0032D2E
:104B600021D0E620EFE71E4800EBC50090F904B025
:104B7000BBF1000F15D0EFF31081012080F31088F6
:104B8000184AE01942F8308002EBC000C0F80490E7
:104B900081F31088584622F6FDFB584622F618FC91
:104BA00016E0E420CFE7EFF31081012080F31088B6
:104BB0000D4AE01942F8308002EBC000C0F80490C2
:104BC00081F310881B2022F6E5FB1B2022F600FC57
:104BD0007608641CE4B25445BAD30020B3E7000061
:104BE00070BC2000048E0020148F002070B58EB0A1
:104BF00005460C46474991E84D00CDE90A02CDE94A
:104C00000C36D1E90523086906AEC9690DC60991BC
:104C100014224049203101A8FDF7DFFDD4B13E49FF
:104C2000062005F06DF83D49072005F069F83C497C
:104C30001B2005F065F83B49122005F061F8354965
:104C40003C39A1F12C02052D61D2DFE805F0060602
:104C500006213900E5200EB070BD207931F8100032
:104C60000B90607932F810000C90A0790D902068BC
:104C70000A902848543850F8350021880904090C56
:104C800004D018B10AA902F0B3FF39E0E420E2E74A
:104C9000207901EB4000808A0790607902EB4000A8
:104CA000C0880890A079099020680690207810F0BC
:104CB000FF0F03D006A802F025FE21E0E420CAE79A
:104CC0002079031F042B01D8E720C4E7022819D05C
:104CD00001200290207901EB4000008D0390607963
:104CE00002EB400080890490A07905902068019033
:104CF000207810F0FF0F08D001A9002022F6FEFA5C
:104D00000020A8E702200290E4E7E420A3E7E620E1
:104D1000A1E70000C4BC2000096310000363100079
:104D2000FF621000F962100002460020052A11D22D
:104D3000DFE802F0030303090C00074850F83200D3
:104D400089B21EF646BF88B21AF62CBE89B2002080
:104D500022F6D6BA7047000070BC2000002803D0AD
:104D6000024908600120704700207047487D0020FC
:104D700070B505460024091F062917D2DFE801F0A7
:104D800003070C111315284600F0A4F80EE00124C7
:104D9000284600F09FF809E00224284600F09AF81F
:104DA00004E0032402E0042400E00524034A214631
:104DB00028461268BDE8704010470000487D00207A
:104DC0002DE9F0410446204600F0AEF801462E4899
:104DD00000230826025D00F10A0700F11405AAB1BC
:104DE000052A33D0082A2AD1092945D0082926D1F5
:104DF000295D491CC9B22955142920D32B550655C4
:104E00002046BDE8F0410821FFF7B2BF052913D0C5
:104E1000042916D0072914D0082910D1295D491C6E
:104E2000C9B2295514290AD32B5506552046BDE889
:104E3000F0410821FFF79CBF3B5505210155BDE816
:104E4000F0812046BDE8F041FFF792BF05290CD064
:104E5000395D491CC9B239553229F0D30355204672
:104E6000BDE8F0410521FFF783BF03552046BDE8AB
:104E7000F0410621FFF77CBF03552046BDE8F04115
:104E80000921FFF775BF00004087002070B5044678
:104E90000D4600F00FF808B100F01AF90348044A73
:104EA0002946005D5268BDE87040104778870020B1
:104EB0004C7D00200020064911F810200AB1002086
:104EC0007047401CC0B20A28F6D30120704700008A
:104ED0005E8700200349002201F8102001EB40000A
:104EE000427070475E870020014A02F81010704738
:104EF0005E870020024A012102EB400041707047AA
:104F00005E87002070B50024064D05EB4400407814
:104F100010B12046FFF754FF641CE4B20A2CF4D30E
:104F200070BD00005E87002070B500211D4B03F1AD
:104F300032051A5C002A09D0002403F10A06012A6E
:104F40000AD0022A12D0032A24D11FE015F810201B
:104F500002B301221A541DE015F810201AB134547E
:104F600002221A5416E01C54042113E015F81020F4
:104F70004AB1325C521CD2B23254642A0AD307219D
:104F800003221A5406E005211C5403E015F8101002
:104F900011B10821084670BD1C54FFF79BFF092181
:104FA000F8E700002C870020704700002DE9F04151
:104FB0000F4690460A2F04D8B8F1000F01D0002305
:104FC00023E00020BDE8F08103EB430610F8264003
:104FD0002CB1012C03D0022C01D0032C13D100EBF7
:104FE0008605124AA97AD154104910F826200C31AE
:104FF00001EB0314227069686160297A2172697A71
:1050000061720B49E1605B1CDBB2BB42DCD3074839
:1050100039460C30FFF726FD06480770C0F80480BB
:105020000548FFF79BFE0120CCE7000078870020B1
:10503000154A20004C7D00208D4E20002DE9F041C6
:105040000024124FDFF8488019E0002607EB041512
:1050500028786968FFF768FE10B9697A012902D0DB
:10506000012802D005E0012603E0687A022800D179
:10507000012631462046FFF737FF641CE4B298F85A
:1050800000008442E1D3BDE8F08100008487002065
:105090004C7D002010B5FFF7D1FFBDE81040FFF7B1
:1050A00031BF000010B5074A0121074800F064F93C
:1050B00000220A21044800F0B5FA04490120487092
:1050C00010BD000095502000288800204C7D002055
:1050D00010B5034800F07EF902490020487010BD69
:1050E000288800204C7D00200248406A002800D01B
:1050F000004770476C900020002806D0002904D09B
:10510000024AD269002A00D0104770476C900020F4
:105110000248006A002800D0004770476C900020C9
:1051200070B50D4616460D4C00280AD001780329AB
:1051300011D80121A17601461A222046FDF708FB6D
:1051400005E00020A0761A210448FDF778FBE56110
:105150002662002070BD012070BD00006C90002010
:10516000044A1044807D084201D00120704700208D
:10517000704700006C9000202DE9FE4F07469246D4
:1051800099460024A046CDF80480CDF808805948FF
:105190000178B94202D2807E00287DD10EAD009503
:1051A000EFF311860220FEF747FF8346FEF768FF04
:1051B000401C012181400BEB0100C0B280F311883B
:1051C00001213846FFF7CCFF38B14B484B4950F826
:1051D0002720204600F0A4F804461C213846FFF79B
:1051E000BFFF00285ED046A24449204600F098F850
:1051F000204484B204213846FFF7B2FFF8B152468A
:105200003E49204600F08CF8204484B208213846FC
:10521000FFF7A6FF38B13BA23849204600F080F8DE
:10522000204484B20BE010213846FFF799FF30B1DB
:1052300035A23249204600F073F8204484B2082198
:105240003846FFF78DFF90B14A462C49204600F0C2
:1052500067F8204484B210213846FFF781FF30B14F
:105260002AA22649204600F05BF8204484B210218F
:105270003846FFF775FF60B126A2052101A80C9BF7
:10528000FDF71AF801AA1D49204600F049F820440C
:1052900084B221A2194900E029E0204600F040F83C
:1052A000204484B21548C4F5807120442B460D9AE1
:1052B000FCF7C6FFCDF800804FF48071002804DBB6
:1052C0002044884201DC85B200E00D46A81C8842DB
:1052D00000D9FE2511A20949284600F021F82844EA
:1052E00081B20648FFF708FFF0B280F31188BDE8ED
:1052F000FE8F00006C900020587D00206C8F0020F5
:1053000028000000200000003A000000204C696ED8
:10531000653A0000256C6400292000000D0A000099
:1053200030B50546002000290CD0002A0AD006E03E
:105330002B18FF2B06D8CC54521C401C80B214787A
:10534000002CF5D130BD000010B5084801780029C7
:105350000AD101210170064892F60CF9BDE810400F
:105360000021044892F69CBA10BD0000557D002033
:1053700081621000519820002DE9F04104460D464D
:105380001746002D04D0012D02D00120BDE8F08188
:10539000E4B1DFB1607801281AD0EFF31186022062
:1053A000FEF73CFE8046FEF763FE401C0121814073
:1053B00008EB0100C0B280F3118800206070A57076
:1053C000E761F0B280F311880020DFE70120DDE71C
:1053D0000620DBE710B50446002C0CD0204600F078
:1053E000B3F9FF2060700021A160E160216161617B
:1053F0000020E06110BD012010BDF0B5DDE90745DA
:10540000059981614FF47A76A2FB061C03FB06C363
:10541000002702FB0732C0E9021209196A41C0E9FC
:10542000041200210162F0BD2DE9F0410446002C78
:1054300013D0EFF311850220FEF7F0FD0746FEF7CB
:1054400017FE401C012606FA00F03844C0B280F373
:1054500011881248002121620EE00020BDE8F08191
:10546000D4E90432D1E9047CDB1B72EB0C0202D2DA
:10547000016A216203E00846016A0029F0D1046252
:105480006670064810380168491C0160016B416074
:10549000E8B280F311880120E0E700006088002076
:1054A0002DE9F04105460024EFF311860220FEF7B6
:1054B000B5FD0746FEF7DCFD401C01218140781850
:1054C000C0B280F31188134A106BE8B115B102F134
:1054D000100010E00446206A10631068401E10603F
:1054E0000CE0A94206D11168491E1160296A0162C7
:1054F0002C4603E00846016A0029F2D124B10020BD
:1055000020626070106B5060F0B280F3118820460A
:10551000BDE8F081508800202DE9F041EFF31187BC
:105520000220FEF77BFD0446FEF7A2FD401C012190
:1055300081406018C0B280F31188114D002608E048
:105540002078012804D1E16909B1A0698847267053
:105550002D6A2C6A002CF3D1094D103D07E0E1695A
:1055600009B1A06988472670206AA8632662AC6BDF
:10557000002CF4D1F8B280F311880120BDE8F0814D
:10558000608800202DE9F041EFF311870220FEF73B
:1055900045FD0446FEF76CFD401C012606FA00F0AE
:1055A0002044C0B280F311881D4DA5F110082DE0F4
:1055B000D4E90430D8E902125B1A60EB0200D8E9A2
:1055C0001021D21A814124D326702046FFF768FFAC
:1055D000A078012806D012482830002121620168F5
:1055E00061B10FE0D8E90220D4E902135118584103
:1055F000C4E904102046FFF717FF07E0046005E048
:1056000001F1200001680029FAD104602C6A002C05
:10561000CED1F8B280F311880120BDE8F0810000FE
:10562000608800202DE9FF5F82460E4693464FF0CA
:105630000008BAF1000F20D0414886421DD8E6B1DB
:10564000EFF311870220FEF7E9FC0446FEF710FD98
:10565000401C012181406018C0B280F3118850467F
:1056600003F06CF810B19AF8010040B1F8B280F381
:1056700011880F2004B0BDE8F09F0120FAE703F085
:10568000F1F904460D464FF47A7106FB01F022460B
:105690002B46002102F016FFDFF8A890B0B1D9F830
:1056A000040048B1D0E90410091B60EB0500C9E90A
:1056B000021003F051FA04E00021C9F80810C9F8FB
:1056C0000C104FF00108D9E9020106E0D9F80400F6
:1056D000D0E90421101B61EB0501CDE9020132463E
:1056E0000023CDF800B05046FFF787FE5046FFF785
:1056F0009BFE04F06BFA4FF0E024D4F800014FF069
:10570000806510F0806F01D0012000E0002020B9FA
:105710001A20FEF72AFCC4F80051B8F1000F0AD095
:10572000D9F80400D0E90431D9E90202181A61EB72
:10573000020103F0CDF9F8B280F31188002099E757
:10574000008AB907508800202DE9F0410446002561
:10575000002C39D0EFF311870220FEF75FFC0646DC
:10576000FEF786FC401C012181407018C0B280F316
:1057700011886078012824D1144E7068A0420BD1A2
:1057800003F070F9D4E90432181A62EB0102C6E999
:10579000020203F0E1F901252046FFF781FE5DB129
:1057A000706848B1D0E90421D6E90203101A61EB10
:1057B000030103F08DF904E01DB9706808B903F026
:1057C000CBF9F8B280F31188BDE8F0815088002051
:1057D00070B50446012520780A4E012800D13570A5
:1057E0002078022808D17570A088708072880649D8
:1057F000A1F18000FCF7ACFF2078002801D13570C2
:10580000757070BD787D0020B092002010B5044600
:10581000114822784FF0FF3150F82220A2F868108A
:10582000227850F82200A0F86A10606B002801D19D
:10583000A16B71B120B1204600F070F8002807D1AB
:10584000A06B20B1204600F009F8002800D100200C
:1058500010BDE42010BD0000548F002030B58BB087
:1058600004462C216846FCF7EAFFA06B009094F8F0
:105870003D008DF804002548009B2549254A8342B8
:1058800005D1237801EB03114968029107E0009BE1
:10589000934204D1237801EB0311C9680291029964
:1058A00029B10099814205D10B20039007E0E72040
:1058B0000BB030BD0098904201D1092003904FF405
:1058C00000100490C01205900020069007900890E8
:1058D000099040200A9000216846FEF7EDFF2178EC
:1058E0000D4D55F82110A1F86A00002801DAE420D6
:1058F000DEE7FEF7CDFF217855F8211048632178C7
:1059000055F82110091D01630020D1E700900140E6
:1059100038BD200000A00140548F002030B58BB06E
:1059200004462C216846FCF78AFF606B009094F8CF
:105930003C008DF804002548009A2549824202D196
:105940000B22029204E0009A8A4201D109220292BB
:10595000009B204A834205D1207802EB00100068AA
:10596000039007E00098884204D1207802EB0010F1
:10597000806803900398D0B14FF480100490002009
:1059800005904FF4807106910790089009900A9055
:1059900000216846FEF790FF21780F4D55F8211041
:1059A000A1F86800002804DAE4200BB030BDE7203D
:1059B000FBE7FEF76DFF217855F821100863217889
:1059C00055F82110091D01630020EEE70090014009
:1059D00000A0014038BD2000548F00202DE9F04187
:1059E0000446062C02D3E820BDE8F081364D55F878
:1059F0002400C0B190F86C10A9B1406E41680078E5
:105A0000FFF754F80028EFD155F82400406E0169E3
:105A1000007BFFF74BF80028E6D155F82400816998
:105A2000222902D012E0E520DEE7406E816A90F87C
:105A30002400FFF73BF80028D6D155F82400406E2B
:105A4000C169007EFFF732F80028CDD11F4800EB76
:105A5000C40090F9010021F6AAFC55F824000027A3
:105A600080F86C7055F8240080F8007155F8240017
:105A700080F8017155F8240080F8027155F824006F
:105A800080F80371EFF31086012080F31088002066
:105A900055F8201011B191F86C1029B9401C062856
:105AA000F6D3012003F050FF86F3108855F8240048
:105AB000001D02F07BF955F8240090F86D0008B93C
:105AC00045F8247000208FE7548F002008BD200087
:105AD00070B50446062C01D3E82070BD0C4D55F876
:105AE000240018B190F86D10012901D0E92070BD93
:105AF000B0F96800FEF78CFE55F82400B0F96A0092
:105B0000FEF786FE55F82410002081F86D0070BD68
:105B1000548F002070B500280CD004780F4E56F832
:105B2000241049B191F86C2032B191F86D1029B16F
:105B3000EA2070BDE52070BDE92070BDEFF310854F
:105B4000012181F31088FFF761FE20B956F8242067
:105B5000012182F86D1085F3108870BD548F0020EC
:105B600070B5062801D3E82070BD134C54F82030DE
:105B70004BB193F86D5035B139B132B193F803514F
:105B8000012D04D010E0E92070BDE42070BD002597
:105B900083F8035154F820305B680225C3F888501D
:105BA00054F820305B681B6854F82000001D02F098
:105BB00083F90028EAD170BD548F002070B50446E7
:105BC0001A4D55F82400703003F035FF82B21646A6
:105BD000A2B155F8240090F8011101290ED001213D
:105BE00080F80411802A0FD355F82400802200F198
:105BF0008001703003F034FF80260CE055F824104B
:105C0000002081F8000170BD55F8240000F18001EA
:105C1000703003F025FF55F82400324600F1800172
:105C2000001D2BF6F1FA0028EDD170BD548F002035
:105C300070B50446062C01D3E82070BD184D55F808
:105C4000240090B190F86D307BB181B17AB100261B
:105C500080F8026155F82400703003F045FF55F8D4
:105C6000240090F8001121B10AE0E92070BDE42081
:105C700070BD90F8011119B990F86C10012901D08C
:105C8000E22070BD012180F800112046FFF796FF49
:105C900020B155F8241081F8006170BD002070BD5E
:105CA000548F0020704700002DE9F84304464D4F03
:105CB00057F82400061D062C7ED290F86C1000299F
:105CC0007AD0012978D190F80011012974D190F887
:105CD0000111002970D1012180F80111002157F82C
:105CE0002400D0E903231344027D02F00102D21DF7
:105CF0009D184268D36FC3F38003002BFAD090F84D
:105D00000421A2B1384A1368491C90F83B20102A9C
:105D100006D08268B3FBF2F26A43B1EBC21FF3D93B
:105D200057F82400703003F086FE85B226E0B0F804
:105D30002480C58C001D2AF6E1FC57F8240041F2AE
:105D4000883300EB0801491B8031001D2A462BF6E1
:105D500008FAE5E757F8240001227030694603F09D
:105D60007FFE57F824004068C16FC1F3400100294D
:105D7000FAD09DF8001001606D1EADB2002DE9D182
:105D800057F82400703003F056FE0028C8D1306860
:105D900041694906FCD5EFF31085012080F3108896
:105DA00057F82400703003F046FE68B1EFF310811D
:105DB000012080F3108800E011E03068426842F072
:105DC0008202426081F3108857F82410002081F885
:105DD000000157F8241081F8010185F31088BDE80F
:105DE000F8830000548F0020600300202DE9F0416B
:105DF00005460F46002D06D02AB12C78062C04D378
:105E0000E820BDE8F081E520FBE7384E05F15800B9
:105E100046F82400D2E900310A467030194603F0F2
:105E2000F5FD291D286D04F08DFC0028E9D156F8F8
:105E30002410281D486656F82400076056F82400F0
:105E40001822083005F14001FCF7C7FC284856F835
:105E5000241000EBC4056868486056F82400001D53
:105E600001F0A4FF56F82400001D01F0BBFF2048FC
:105E700001220321103803F04FFD56F824100120B1
:105E800081F86C0056F82410002081F8000156F8C3
:105E9000241081F8010156F8241081F8020156F807
:105EA000241081F8030113490C2003F029FF124943
:105EB0000D2003F025FF1149342003F021FF104984
:105EC000352003F01DFF0F49362003F019FF0E495E
:105ED000372003F015FF95F9010021F65BFA95F9DB
:105EE000010021F675FA00208BE70000548F002096
:105EF00008BD2000D93E2000E93E2000F93E2000E8
:105F0000093F2000193F2000293F200070B50628D6
:105F100001D3E82070BD144D55F8204054B194F8D9
:105F20006D603EB141B13AB133B194F80361012ED5
:105F300004D010E0E92070BDE42070BD002684F894
:105F4000036155F8204064680226C4F8886055F85B
:105F500020406468246855F82000001D02F03EF8D7
:105F60000028EAD170BD0000548F002070B5ADF557
:105F70003C7D00266248BA904FF48070BB90BAAA6C
:105F800060496148FFF732FF014629B15FA0FCF785
:105F900071F90DF53C7D70BD5B48FFF7BBFD014617
:105FA00019B162A0FCF766F9F3E7002480219AA8F2
:105FB000FCF745FC80217AA8FCF741FC80215AA817
:105FC000FCF73DFC80213AA8FCF739FC80211AA897
:105FD000FCF735FC9AA80455641CE4B2802CFAD373
:105FE00000203AAB1AA903F8100000F1400201F8B2
:105FF0001020401CC0B24028F5D31C22544913A8DD
:10600000FCF7EBFB5AA814901C2251491C310CA838
:10601000FCF7E3FB7AA80D9013A80E904FF48020B4
:10602000019001200290039004960596069607962B
:10603000C00609900B200A900CA80B9080217AA82A
:10604000FCF7FDFB80215AA8FCF7F9FB2E4D2D1F14
:106050006E702E7001AB40227AA90120FFF756FF27
:1060600080229AA90120FFF7E3FD642402E00A20C0
:1060700009F6C6FA6878012802D0641EE4B2F6D2A6
:106080000A2009F6BDFA6878012803D031A0FCF790
:10609000F1F802E03CA0FCF7EDF880227AA93AA8DA
:1060A000FCF70BFB18B145A0FCF7E4F802E04FA0A9
:1060B000FCF7E0F880225AA91AA8FCF7FEFA18B1FA
:1060C00057A0FCF7D7F802E061A0FCF7D3F81299CB
:1060D0000A98884203D119990A98884203D069A086
:1060E000FCF7C8F802E074A0FCF7C4F8FFF710F85A
:1060F0000120FFF7EDFC0120FFF770FC49E70000ED
:1061000030910020D15720007C7D00206170705FAD
:10611000756172745F696E6974206661696C65642B
:1061200020726574203D2025640D0A006170705F47
:10613000756172745F64616D5F696E697420666118
:10614000696C656420726574203D2025640A000036
:10615000D0BD20006170705F756172745F7265639D
:10616000656976655F646D615F73675F6C6C705FB6
:10617000746573742072656365697665206661690C
:106180006C65640D0A0000006170705F7561727467
:106190005F726563656976655F646D615F73675F94
:1061A0006C6C705F74657374207265636569766585
:1061B00020737563636573730D0A00006170705F0F
:1061C000756172745F726563656976655F646D6140
:1061D0005F73675F6C6C705F746573742064617467
:1061E0006130206572726F720D0A00006170705F1D
:1061F000756172745F726563656976655F646D6110
:106200005F73675F6C6C705F746573742064617436
:10621000613020697320636F72726563740D0A00C8
:106220006170705F756172745F72656365697665D0
:106230005F646D615F73675F6C6C705F74657374CE
:10624000206461746131206572726F720D0A000002
:106250006170705F756172745F72656365697665A0
:106260005F646D615F73675F6C6C705F746573749E
:1062700020646174613120697320636F7272656399
:10628000740D0A006170705F756172745F7265638E
:10629000656976655F646D615F73675F6C6C705F85
:1062A00074657374207772697465206261636B2012
:1062B0006572726F720D0A006170705F7561727441
:1062C0005F726563656976655F646D615F73675F63
:1062D0006C6C705F7465737420777269746520628A
:1062E00061636B20737563636573730D0A0000004F
:1062F0002DE9F04104461A4D55F82400703003F0A2
:106300009AFB82B2164600277AB155F8240090F81D
:106310000111012909D0802A0ED300F180017030CB
:10632000802203F09DFB80260BE055F8240080F8C6
:1063300000710020BDE8F08100F18001703003F0B1
:106340008FFB55F8240080F8047155F8240032467C
:1063500000F18001001D2BF61BF80028EAD1E9E7C7
:10636000548F00202DE9F04104460E46174698460A
:10637000062C02D3E820BDE8F081194D55F8240021
:1063800098B190F86D1081B18EB187B1B8F1000F5E
:106390000DD0002180F802112046FFF785FC55F84A
:1063A000240090F8001121B10AE0E920E3E7E4209D
:1063B000E1E790F8011119B990F86C10012901D0AA
:1063C000E220D8E7012180F8001155F82400434667
:1063D000001D3A4631462AF677FF0028CBD1CAE79E
:1063E000548F0020F0B5ADF51B7D002655489990DF
:1063F0004FF480709A9099AA53495448FFF7F6FCDD
:10640000014629B152A0FBF735FF0DF51B7DF0BD0C
:106410004E48FFF77FFB014619B155A0FBF72AFF55
:10642000F3E70024802179A8FCF709FA802159A814
:10643000FCF705FA802139A8FCF701FA802119A898
:10644000FCF7FDF979AD59AF19A92C5504F180007D
:10645000385560000855641CE4B2802CF5D31C222A
:106460004C4912A8FCF7B9F912971C2249491C3172
:106470000BA8FCF7B2F90B9512A80D9000960196A7
:1064800002964FF40030039001200490059000071D
:1064900006900A20079008960BA80A90802139A838
:1064A000FCF7CDF9294D2D1F2E706E70802239A971
:1064B0000120FFF755FB6B46402279A90120FFF729
:1064C00051FF642402E0322009F69AF86878012826
:1064D00005D02878012802D0641EE4B2F3D268788F
:1064E000012802D12878012803D02BA0FBF7C2FE97
:1064F00002E034A0FBF7BEFE802239A919A8FCF700
:10650000DCF818B13AA0FBF7B5FE02E042A0FBF7B9
:10651000B1FE10990798884203D1179907988842CD
:1065200003D047A0FBF7A6FE02E050A0FBF7A2FEB7
:10653000FEF7EEFD0120FFF7CBFA0120FFF74EFA40
:1065400063E7000030910020D15720007C7D0020BF
:106550006170705F756172745F696E6974206661E5
:10656000696C656420726574203D2025640A000012
:106570006170705F756172745F64616D5F696E698F
:1065800074206661696C656420726574203D202505
:10659000640A000098BD2000756172745F747261B6
:1065A0006E736D69745F646D615F73675F6C6C704F
:1065B000207472616E736D6974206661696C6564C4
:1065C0000D0A0000756172745F7472616E736D699B
:1065D000745F646D615F73675F6C6C70207472616F
:1065E0006E736D697420737563636573730D0A0050
:1065F000756172745F7472616E736D69745F646DDE
:10660000615F73675F6C6C70206461746120657298
:10661000726F720D0A000000756172745F747261AE
:106620006E736D69745F646D615F73675F6C6C70CE
:10663000206461746120636F72726563740D0A0077
:10664000756172745F7472616E736D69745F646D8D
:10665000615F73675F6C6C7020777269746520622C
:1066600061636B206572726F720D0A0075617274DE
:106670005F7472616E736D69745F646D615F73677F
:106680005F6C6C70207772697465206261636B2047
:10669000737563636573730D0A00000070B5062897
:1066A00001D3E82070BD104D55F8204064B194F836
:1066B0006C604EB151B14AB15E1C09D044F62066FF
:1066C000B34205D9E42070BDE52070BDE42070BD63
:1066D000002684F8026155F82000001D2AF641FDCD
:1066E0000028F4D170BD0000548F00202DE9F8433C
:1066F00007460C46904604F1080520468DF656FDE7
:106700000346344E70680021A7F58042DFF8C8C008
:10671000B2F5804F03D2DCF80010401A0121E218D4
:10672000824202DD0520BDE8F8833068421EC2F3D4
:106730000B02821A02F6FF72C2F3073211B1DCF8C3
:10674000001000E00021DFF894C0DFF89490DCF83E
:1067500000C0D9F80090ACEB090C96F80990A2EBB8
:1067600009020CEBC202101A401A001FE9188142FC
:1067700029DD00254FF4004911231F2249462846F0
:10678000009570F66BFF0021084600F0BFFE40B197
:1067900013231F2249460020009570F65FFF0F204B
:1067A000C1E7707A01F0CCFD0028BCD112231F2272
:1067B0004946009570F652FF424621463846BDE8EC
:1067C000F84304F0D1B8424621463846BDE8F843C4
:1067D00004F0CAB890470020B8350020C435002026
:1067E000BC35002070B503F07FFC40F21A4120B1A7
:1067F00040F24C4003F0E8FA03E040F22E4003F090
:10680000E3FA0D4CA07850B1E08803F0EDFA0546AC
:10681000208903F0E9FA294603F02CFC05E04FF447
:1068200061714FF47A7003F025FCBDE870400248B6
:106830004A3002F031BF0000487F002000214FF0B5
:106840003040C1608161C0F8D011C117416101625F
:10685000C0F8D81103496FF4806008600220FDF78A
:1068600091BB000084A0004010B500F08FF8BDE897
:10687000104000F069B8000010B51248016821F01E
:10688000070141F0040101600A2008F6BFFE0D482F
:106890008438016821F4807101600121002024F610
:1068A0005BF9012019F6FAFE07490220087003F08F
:1068B0009DF90649322003F023FABDE8104032204A
:1068C000FDF77EBB90A80040147F0020AF3D200064
:1068D00010B519480068C0F30B0017490831096862
:1068E00021F07F41401C00EE100ADFED140AB8EEE3
:1068F000400A60EE200A00EE101A1149B8EE400A74
:1069000080EE801AB6EE000A31EE000ABCEEC00A34
:1069100010EE100A486002F09DFE03F015FC0948D5
:10692000016841F48071016006488430016821F0FB
:106930000701016010BD000004E400400024F44B96
:10694000147F00200CA8004000B587B003218DF80B
:1069500004100220029005228DF80C2001208DF8F1
:106960000D0000238DF80E308DF8101005908DF875
:1069700018208DF819008DF81A00034A022101A889
:10698000FEF714FB07B000BDA94F200000B587B08B
:1069900000F01EF803208DF800001D208DF8160071
:1069A00001208DF817008DF818008DF81900044AA1
:1069B00004496846FEF7B4FBFDF7C6FE07B000BD0C
:1069C000C9692000356A20000320FFF76DB9000077
:1069D0001CB5144800904FF48060019012480322C7
:1069E00002704FF4E1310164426400218164C164AA
:1069F00001650123436501742024446142740376D8
:106A000001711023836042710173084941638163FE
:106A1000022180F83C1080F83D206A460449FFF7C7
:106A2000E5F91CBDCC810020CC8500200090014000
:106A3000A55C20000A4601464FF47A730320FFF755
:106A40002DBE0000052110F1190F01DC022110E01C
:106A500000F114020F2A01D803210AE00F2801D8FF
:106A6000042106E0A0F11402192A02D932280CDB15
:106A7000062106480268C2F303328A4205D0026842
:106A800022F4704242EA01310160704714A80040CC
:106A900010B50021084624F65FF8012019F6DEFD46
:106AA0000248816821F48071816010BD00A000401F
:106AB00010B514480068C0F30000002807D0114842
:106AC00008380068C0F3000008B103F0E7F80E488A
:106AD0000068C0F3000038B10B4808380068C0F304
:106AE000000008B100F01CFC03F066F8002807D095
:106AF00001F05AFB002803D0BDE81040FFF7C8BFE3
:106B000010BD000008E4004008E5004010B503F0A7
:106B100053F820B101F048FB08B1012010BD00205E
:106B200010BD10B503F0DAF800F0A6FB10BD10B5EB
:106B300000F0F4FE02F0DCFB02F0E6FEBDE81040DF
:106B400000F092B82DE9FC4104468846164D4FF6F8
:106B5000FF76164F12E02968082201EB00306946E3
:106B600085F658FE082802D01020BDE8FC81BDF84B
:106B70000000B04208D12078401C20702078797A3B
:106B80008842E8D30020F0E709489DF80010C17062
:106B9000BDF8021081809DF8011088F8001021785E
:106BA00041700020E1E70000BC3500209047002044
:106BB000C835002010B51248016821F0004101607D
:106BC0000F23011D0A6863F31F720A600A6822F42A
:106BD000E07242F4C0720A60016841F00041016055
:106BE0000848016841F0010101600749312003F0C4
:106BF00087F806494FF40030C1F8000110BD0000CD
:106C000004A9004088E20040B93D200004E000E013
:106C1000F8B5EFF31085012080F31088072000906D
:106C20006846FDF71DF90220FDF722F9322008F62B
:106C3000EDFC0B4C206840F002002060094E70898A
:106C400008F6E4FC206820F002002060B08908F615
:106C5000DDFC9DF80000FDF70BF985F31088F8BD09
:106C600004A90040AC7F0020024901480860704739
:106C7000BD731000CC05002030B40021114B01EB96
:106C8000C10202EB420213F82240012C15D103EBA2
:106C900082020579147AAC420FD152680468A2428C
:106CA0000BD101EBC10000EB400003EB8000816ED3
:106CB000002905D030BC02200847491C0C29DED32E
:106CC00030BC70479888002030B40021114B01EB94
:106CD000C10202EB420213F82240012C15D103EB52
:106CE00082020579147AAC420FD152680468A2423C
:106CF0000BD101EBC10000EB400003EB8000816E83
:106D0000002905D030BC00200847491C0C29DED3DF
:106D100030BC70479888002070B500240D4E04EBFD
:106D2000C40000EB400016F8201001290DD106EB3D
:106D300080000546001D1AF649F818B1012801D057
:106D4000002070BD281D1AF6C3FD641C0C2CE6D370
:106D5000012070BD9888002030B40021114B01EB58
:106D6000C10202EB420213F82240012C15D103EBC1
:106D700082020579147AAC420FD152680468A242AB
:106D80000BD101EBC10000EB400003EB8000816EF2
:106D9000002905D030BC01200847491C0C29DED34E
:106DA00030BC70479888002010B592F6C7FE0028C6
:106DB00000D0FEE710BD00B500F00AF85DF804EB66
:106DC00001F082BA0148007870470000D894002092
:106DD00030B5084C012525706060E2602361A16038
:106DE00005488068884201D2081A00E0401A6061B4
:106DF00030BD0000D8940020307F002010B501F095
:106E00003DFA044618210548FBF719FD034A002105
:106E100011702046BDE8104000F046B9D89400201B
:106E2000F0B404460E462C482C4FB968057802622F
:106E300044628C4201D9631A00E00B1BFF689F4239
:106E400006D3134632462146F0BC0020FFF7B3BFFD
:106E500087699F4201D98361C261012D0AD0022D49
:106E600027D0032D36D1134632462146F0BC0020F0
:106E7000FFF7A1BF44618C4203D90169491EC1607B
:106E800002E00169491C8160D0E90212914209D2F5
:106E90001144490801610121017001693046F0BCCB
:106EA00000F01EB80221017081683046F0BC00F08D
:106EB00017B8C169914206D1134632462146F0BC4B
:106EC0000020FFF778BF03210170C1693046F0BC94
:106ED00000F006B8F0BC704780940020307F00209E
:106EE000054A936A5B1C93628AB2C1B20348044BA1
:106EF000406801F067B9000080940020307F0020D6
:106F0000216E200070B505460D4C2C212046FBF764
:106F100096FC0020A06040F2FF10E060FF2222619A
:106F20004FF0FF30A061A06A401CA06201202070D9
:106F30000448E9B2044B4068BDE8704001F042B932
:106F400080940020307F0020216E20002DE9F8433E
:106F500007460D4690462E4C207801280BD002287B
:106F600013D00820E06101B043462A463946BDE807
:106F7000F043FFF720BFE76040F2FF112161284690
:106F8000BDE8F843022200F079B800260096676158
:106F9000684600F03FF870B1012810D002281FD0D9
:106FA00003282DD00720E06143462A463946FFF7E3
:106FB00002FFBDE8F8832846FFF7A4FFF9E70F2D8D
:106FC00006D23146A6600122681C00F057F8F0E7AF
:106FD0000520E06143462A463946FFF7ECFEE8E724
:106FE00035B1A66001220021681E00F047F8E0E7F5
:106FF0000620E06143462A463946FFF7DCFED8E723
:107000000098E06143462A463946FFF7D4FED0E7B0
:107010006094002010B5174B17490A698968154C10
:10702000DB6864698B4203D98C4201D9022010BD10
:107030008B4203D28C4201D2012010BD8B4201D978
:107040005B1A00E0CB1A8C4201D9611A00E0091BDF
:10705000934203D3914201D3002010BD934201D249
:10706000022010BD914201D2012010BD0221016019
:10707000032010BD60940020307F002030B4074B07
:107080009C69641C9C6158601A708AB2C1B2044841
:10709000044B406830BC01F095B8000060940020BB
:1070A000307F00204D6F200070B50546064C202132
:1070B0002046FBF7C4FB0021A1602846BDE87040D4
:1070C0000122FFF7DBBF000060940020F8B50E46F8
:1070D0001F4C00250095E169491CE1616660A260D2
:1070E000E1682161E0601B498B68834201D2C01ACC
:1070F00000E0181A6169814201D96061A2616846A5
:1071000000F02AF858B101280ED0022814D0032824
:1071100018D00098A062204600F0BFF8F8BDA56224
:10712000204600F0BAF8F8BD012084F8200030466F
:10713000A16900F077F8F8BDA1683046491C00F05D
:1071400071F8F8BDA1683046491E00F06BF8F8BD33
:10715000AC940020307F00202DE9F0432F4A304FBF
:10716000B96800250026D3688B4201D95C1A00E07B
:10717000CC1AFF68A74202D30020BDE8F083D2F802
:107180002480B8F1010F10D092F82040012C0ED0CD
:10719000224CD2F81CC04FF00109A769A468C4456D
:1071A0000BD3A74205D10020E7E70020E5E7002048
:1071B000E3E782F820900120DFE7BCF1010F11D94D
:1071C000D2F810C08C4501D98B4203D38C4509D22B
:1071D0008B4207D9A74201D10020CEE782F8209048
:1071E0000120CAE78B4201D9012600E0012545B103
:1071F000B4F5FF7F03D9092101600420BDE7022017
:10720000BBE736B10CB10320B7E70A2101600420C7
:10721000B3E70B2101600420AFE70000AC9400202D
:10722000307F00208AB2C1B20248034B406800F0B0
:10723000C9BF0000307F0020CD70200070B504462B
:107240000E4615462C210948FBF7F9FA074B002199
:1072500083F82010491E59615C620548AAB2F1B258
:107260004068BDE87040034B00F0ACBFAC94002018
:10727000307F0020CD70200010B500F085FF002881
:107280000AD0FFF79FFD18B1BDE8104000F028B804
:10729000BDE81040FFF7B2BD10BD00B500F004F826
:1072A0005DF804EB01F010B80B4901220A71826A03
:1072B0008A60C269CA60C2680A6142684A618268BB
:1072C0008A61064AC0689268904201D9801A00E03B
:1072D000101AC86170470000F0940020307F002031
:1072E0002DE9F04100F0CAFF074600F0D9FF8046C3
:1072F000094C26680948456920212046FBF79FFA7A
:10730000761C266000202071424639462846BDE89A
:10731000F041FFF793BF0000F0940020307F002081
:1073200010B50E4C2069401C206100F0D3FFE060D6
:1073300000F0A4FF606000F0B3FFA060084A0021E5
:1073400011606161E3692BB182B22179E068BDE827
:1073500010401847BDE8104000F0B6BF4094002030
:1073600000E500402DE9FC41164804680834164E3B
:107370003078002802D000208EF6F6FE134D4FF62E
:10738000FF770822694620468EF6F8FEBDF8000019
:10739000B84211D080B1BDF802008CF607FFBDF8ED
:1073A00002100830084481B220468DF6DBF904460D
:1073B00028688442E5D32C6830788EF6D5FE2046C6
:1073C000BDE8FC81BC350020B5350020C435002067
:1073D00008B51A48016821F070010160016821F0C8
:1073E000070141F00401016015490978002909D01D
:1073F000124984390A6842F480720A60016821F0F7
:1074000007010160012001F0DBFD0020FDF7E8F835
:1074100001F0DCFF80B100208DF80000A3208DF882
:10742000010002208DF8020068468FF681FC01F011
:107430006BFF02F013F808BDFEE7000090A80040C3
:10744000BC7F002070B5044600BFFCF721FE054656
:107450000120FCF7ADFE0948047024B94822084910
:107460000848FBF7BAF91DB90020FCF7A1FE02E0BD
:107470000120FCF79DFE00BF70BD0000DC7E0020F7
:1074800078930020002000E010B5074840680749C5
:10749000486006480830402203490831FBF79DF94F
:1074A00003200249086010BD30930020002000E056
:1074B00070B500BFFCF7ECFD05460120FCF778FE37
:1074C0000B48047834B948220A490B48FBF785F980
:1074D000FFF7DAFF0120064908701DB90020FCF70C
:1074E00067FE02E00120FCF763FE00BF204670BD8E
:1074F000DC7E0020002000E07893002013B50121FD
:107500006846FDF7F9FD01201CBD00002DE9F04F94
:107510008DB008220C9200220B924FF008080A92BC
:10752000099100269A4FDFF86CB24FF0010A00284B
:1075300048D0082204A9386885F66CF9082803D0D9
:107540000F200DB0BDE8F08F9DF81000A52806D0E3
:107550009148C1880C91447880780B9046E09DF862
:107560001100DBF80010022201EB0030083001A905
:1075700085F650F9BDF80410A1F57F40FF380AD018
:107580009DF81100DBF8001001EB00304FF4805142
:107590008EF6C2FD90B19DF81200BDF816100C9148
:1075A0009DF81110491CCCB20B9009AB0CAA0BA989
:1075B00004A803F02BFB012802D017E01020C0E73D
:1075C0000020BEE7FFF7CEFE411EC1F30B01401ABB
:1075D000DBF80010401A00F6FF70FF2101EB1030BD
:1075E000C4B20B9414B1CDF824A0012692F664FD28
:1075F000C7E00025069507955CB1DBF80000042282
:1076000000EB043006A985F605F9042801D00F2007
:1076100097E7614805604560A521017044709DF8B9
:107620002C108170BDF83010C1809DF81810C17009
:10763000BDF81A108180DBF8000000EB04304044F4
:107640000A90386800EB080108914FF480518EF6DB
:1076500063FD50B19DF818204AB1012308A90AA87A
:1076600003F0A8FA18B10F206BE7102069E7BDF806
:107670001A203AB1002308A90AA803F09BFA08B11E
:107680000F205EE7C4F100090A98DBF80010401AE9
:1076900000EB0930C0F58055082D2CDD082302AA27
:1076A00008A90AA8CDF800A093F618F908B10F2090
:1076B00047E7BDF80810A1F57F40FF3830D0083DFE
:1076C000BDF80A008CF672FDBDF80A100844A84205
:1076D00008DDAAB2002308A90AA803F06BFAC8B112
:1076E0000F202EE782B2002308A90AA803F062FA4D
:1076F00080B10F2025E7A8B28CF658FD284483B24C
:10770000264A08A90AA8CDF800A093F6E7F808B120
:107710000F2016E73868089900F580508142B3D3EE
:1077200008221D49386885F6C3F8082801D00F20C3
:1077300007E7DBF800004FF4805100EB04308EF6D1
:10774000EBFC60B176B1DBF80000042200EB043002
:1077500006A985F6ADF8042803D00F20F1E6102025
:10776000EFE6002609AB0CAA0BA90B4803F04EFA72
:10777000012802D018B10F20E3E60020E1E6641CE6
:10778000E4B20748407AA042BFF433AF0020D8E605
:10779000C0350020BC350020C835002064460020DC
:1077A00090470020024600210BE0084850F8313095
:1077B000501E834204D1054800EBC1004068704769
:1077C000491C1029F1DB0020F9E70000C0930020DC
:1077D000002101E0491C4008C207FBD00846704761
:1077E00010B502F081FC50B14FF48C642146204664
:1077F00002F0EAFA2146204602F03CFC09E040F2A1
:107800004C442146204602F0DFFA2146204602F091
:1078100031FCBDE81040014801F03EBF9C7F0020D4
:107820000148407870470000487F002070B504464A
:1078300000BFFCF72DFC05460120FCF7B9FC002039
:10784000144908701448154908601548154908601E
:10785000482215491548FAF7C0FF154812494860F3
:107860000320086048221348FAF7B7FF48220F495F
:107870000D48FAF7B2FF882C01D002F0BFFD1DB908
:107880000020FCF795FC02E00120FCF791FC00BF12
:1078900070BD0000DC7E002045742000843800208C
:1078A000B174200080380020002000E07893002090
:1078B00000970020309300202DE9FE430546002468
:1078C00003208DF8000000260C4F4FF00108E80758
:1078D0000BD008FA04F0019007EBC4004068029056
:1078E00057F8341009B168468847641CA4B26D0883
:1078F000761C082EEBDBBDE8FE830000148F002011
:1079000017F6F2BF10B50446034818F659F820469A
:10791000BDE8104018F600B8E87E002000B5012050
:1079200002F0FCFB02490148086000BD79731000B9
:107930001400002010B5EFF31084012181F31088AA
:1079400018F672FE0348006808B900F005F884F3E1
:10795000108810BDD005002010B592F6F3F900286C
:107960001ED1EFF31084012080F310880D480168C8
:1079700041F0040101600B49083108684007FCD55B
:1079800003F000FB012000F029FF012000F026FF9A
:1079900004481C38016821F05001016084F310880C
:1079A00010BD000040A400402DE9F843044620200B
:1079B0000090002C0BD0DFF8C0802068DFF8BC906E
:1079C00000262F4D404505D1C5F88C6306E0012007
:1079D000BDE8F883484501D1C5F890632179206856
:1079E00000F018FF204607F6B7FF66640021204626
:1079F00007F692FF20680121224F404509D12279E4
:107A0000387801FA02F29043387068B9C5F88C13DF
:107A10000AE0484508D12279787801FA02F29043C9
:107A2000787008B9C5F89013387818B9787808B91B
:107A3000C5F808110121204607F69CFF694620463B
:107A400007F60CFF01280ED19DF8000010B10128A7
:107A500005D008E0397831B922F6DEFF03E0797805
:107A600009B922F6D9FF0121204607F611FF84F853
:107A70002C600020ACE700000090014000A0014015
:107A800000D01D42E47E0020F0B58DB00446002CED
:107A900006D094F82D00314E314F002518B111E079
:107AA00001200DB0F0BD84F82C5020682D49B04263
:107AB00002D1C1F88C5303E0B84201D1C1F8905310
:107AC000C1F808510221204607F626FF01A83EF61C
:107AD0004DFDA0680A90E0680B9060690590A06970
