:020000040020DA
:1020000000000820712820007928200035232000B6
:1020100097282000992820009B282000000000001D
:102020000000000000000000000000004923200024
:1020300083282000000000009D222000BD8F20008A
:1020400000F002F800F0C4F80AA090E8000C824406
:102050008344AAF10107DA4501D100F0B9F8AFF2E3
:10206000090EBAE80F0013F0010F18BFFB1A43F076
:102070000103184704320100443201000A444FF0C2
:10208000000C10F8013B13F0070408BF10F8014BD7
:102090001D1108BF10F8015B641E05D010F8016B1C
:1020A000641E01F8016BF9D113F0080F1EBF10F880
:1020B000014BAD1C0C1B09D16D1E58BF01F801CBA3
:1020C000FAD505E014F8016B01F8016B6D1EF9D526
:1020D0009142D6D370470000103A24BF78C878C127
:1020E000FAD8520724BF30C830C144BF04680C601E
:1020F000704700000023002400250026103A28BF66
:1021000078C1FBD8520728BF30C148BF0B60704769
:102110006E2907F01A86702907F09983662912F054
:102120001586652912F01286672912F00F8661293B
:1021300012F00E8603681B0A28BF41F0800169294E
:1021400007F00A83642907F00783752907F00483E1
:102150006F2907F01A87782907F06583E92907F0C6
:10216000B586E42907F0B286F52907F0AF86EF2996
:1021700007F01787F82907F064830368DB0928BF95
:1021800041F08001632907F02486732907F029862E
:10219000E32908F0ED82F32908F0F282002070476D
:1021A0001FB512F0CEFD07F036FC08F019FB040055
:1021B0000020002111F0C6FF401C606000200021BB
:1021C00011F0AAFFE06007F043FD1FBD10B510BD80
:1021D000DFF80CD0FFF7E4FF06F0EAFF08F0B6FBEB
:1021E0000000082003B4FFF7F1FF03BC02F055FD27
:1021F0000248016841F470010160704788ED00E019
:1022000058585247010000002655000000202000C9
:10221000002020007FED9247010100000000000037
:1022200000000000000000000000000000000000AE
:10223000000000000000000000000000000000009E
:102240002C4B19680868B0E8F04F80F30988BFF399
:102250006F8F4FF0000080F311887047000000007E
:1022600008480068006880F308884FF0000080F399
:10227000148862B661B6BFF34F8FBFF36F8F00DF74
:1022800000BF00BF08ED00E0DFF80C00016841F47A
:1022900070010160704700BF88ED00E0EFF3098036
:1022A000BFF36F8F134B1A681EF0100F08BF20ED9D
:1022B000108A20E9F04F106009B44FF0300080F32D
:1022C0001188BFF34F8FBFF36F8F03F05DFC4FF0AA
:1022D000000080F3118809BC19680868B0E8F04F65
:1022E0001EF0100F08BFB0EC108A80F30988BFF30E
:1022F0006F8F7047B4790020EFF3058070470000BE
:102300000B49D1F800C04A685CF8043B10681844D7
:1023100042F8040B8C4528BFA1F1DC0C8A4228BF8F
:10232000A1F1DC02C1F800C04A6020F00040704713
:10233000282101200348A0E8F00F684600F008F8C3
:10234000FFF7FEFFBC7E0020004800470160100040
:1023500004461BA007F072F920A007F06FF9D4E93A
:10236000001227A007F06AF9D4E902122BA007F0A7
:1023700065F9314D31A0D5E9001207F05FF9D5E9D3
:10238000021235A007F05AF9D5E9041239A007F076
:1023900055F9D5E906123EA007F050F9D4E9041228
:1023A00042A007F04BF9D4E9061247A007F046F91E
:1023B0000AA007F043F902F06AFCFEE7704700004C
:1023C000484152444641554C542043414C4C53548F
:1023D00041434B20494E464F3A0D0A003D3D3D3D9D
:1023E0003D3D3D3D3D3D3D3D3D3D3D3D3D3D3D3D1D
:1023F0003D3D3D3D3D3D3D3D3D3D3D3D0D0A0000EA
:10240000202072303A202530387820202020207279
:10241000313A20253038780D0A0000002020723231
:102420003A2025303878202020202072333A202589
:102430003038780D0A000000BC7E00202020723465
:102440003A2025303878202020202072353A202567
:102450003038780D0A000000202072363A202530EE
:102460003878202020202072373A20253038780D07
:102470000A000000202072383A20253038782020C9
:1024800020202072393A20253038780D0A000000CB
:1024900020207231303A25303878202020202072D8
:1024A00031313A253038780D0A0000002020723191
:1024B000323A2530387820202020206C723A2025AE
:1024C0003038780D0A000000202070633A20253053
:1024D00038782020202020787073723A20253038F8
:1024E000780D0A0070B500242F4E304D04EBC40067
:1024F00000EB400015F82010012907D105EB800002
:102500004168B14202D1001D1EF6D6FC641C0C2CA1
:10251000ECD370BD70B50024254E244D04EBC400EF
:1025200000EB400015F82010012907D105EB8000D1
:102530004168B14202D1001D1EF6BEFC641C0C2C89
:10254000ECD370BD70B50024184D04EBC40000EB53
:10255000400015F82010012921D105EB8000064626
:10256000001D1EF609FE1049706888420AD103203A
:1025700000F0D4FE98B9032024F60CFF032024F6C3
:1025800027FF0CE00A49884209D1232000F0C6FE4B
:1025900028B9232024F6FEFE232024F619FF641C0C
:1025A0000C2CD2D370BD000000900140308500207B
:1025B00000A0014070B50024174D184E55F82410A6
:1025C00019B156F8240000B18847641C202CF5D3BB
:1025D0000024134D134E55F8241011B156F8240061
:1025E0008847641C042CF6D370BD70B503250E4ECD
:1025F000002456F8240038B1406828B1311991F808
:102600004810A94200D18047641C122CF1D36D1EE2
:10261000002DEDD170BD00008411002004120020B7
:1026200094120020A4120020408A0020054821F6C0
:10263000ADBA1DF673B9044821F6A8BA034821F6CD
:10264000A5BA000000200140001001400000014038
:1026500070B500240F4E56F82400B8B190F86C10F5
:10266000012913D1EFF3108581F31088001D2EF698
:1026700027FD85F31088084800EBC40595F9010093
:1026800024F688FE95F9010024F6A2FE641C062CAF
:10269000E1D370BDEC8B0020184E2100EFF31080C9
:1026A000012181F31088704780F310887047EFF3A1
:1026B000118069490A7869490968C1F30221491CF6
:1026C00001238B40D118C9B281F311887047C0B281
:1026D00080F31188704730BF704761482BF6F8BD12
:1026E000017C012904D1806A002801D102F083BC59
:1026F000704710B504465A482BF638FF59488442B3
:1027000000D9044658488068844200D9241A5748A2
:102710004FF47A7200230068A4FB000106F0FCFE6F
:102720000246BDE8104000214D482BF6ABBE2DE916
:10273000F0414B480068066D03F02FFB4A4F796863
:10274000451AF868301A4FF47A71A0FB0101474A24
:102750004FF000084346126806F0DEFEA84202D899
:102760000020BDE8F081441B3868844203D9211A57
:10277000B960044601E0C7F80880204603F074FC05
:102780003848854203D9FE6003F007FB7860204695
:10279000E7E710B5FFF7CBFF34484FF47A710068D4
:1027A000BDE81040B0FBF1F201212D482BF66ABEC6
:1027B00010B502F097FB02F096FB02F095FB95F640
:1027C000AFF804460CB102F090FB204610BD70B586
:1027D000254C2060FFF762FF054603F030FD50B145
:1027E0002068FFF786FF206805281CD394F6BAFFFF
:1027F000022818D103E02846BDE8704054E794F65B
:10280000C9FE80B1FFF7D4FFD8B1FFF764FFFFF72F
:102810004EFF04462846FFF747FFFFF7BAFF204662
:10282000BDE8704053E7FFF756FFFFF740FF04464F
:102830002846FFF739FFFFF7ACFF2046BDE87040A0
:1028400045E7FFF72BFF0446FFF7A3FF2046BDE84F
:10285000704029E7BBE7000002E400E00CED00E077
:10286000C48D0020A08601007C7900205C0300203C
:102870000648804706480047FEE7FEE7FEE7FEE71A
:10288000FEE7FEE7FEE7FEE7FEE70000F12120009D
:10289000AF2820007047FEE7FEE7FEE710B500F026
:1028A000BDF895F68FFDBDE8104000F0C9B810B531
:1028B00000F0AFF810B100F0BCF8FEE7BDE8104042
:1028C000FFF7BEBB6C4A103042F8201070476B48CF
:1028D0000160704769480068002800D000477047D1
:1028E00010B50121002093F6ADFE002815D0022876
:1028F00002D0102800D0FEE793F69EFE044692F622
:1029000022F80146204691F6E3FF28B10121204636
:1029100093F698FE002800D0FEE710BD10B50EF02B
:1029200021FD574C0020E061A06191F6FAFF0121E2
:10293000E16110BD10B597F601F9002800D0FEE75F
:1029400010BD08B54F48016821F0700101600168B1
:1029500021F0070141F0040101604B490978002989
:1029600009D0484984390A6842F480720A600168D3
:1029700021F00701016001200EF00EF9002009F09E
:1029800033F8FFF7CBFF80B100208DF80000A320C3
:102990008DF8010002208DF80200684694F6C8F90F
:1029A000FFF79EFF0EF0F6FB08BDFEE710B5002214
:1029B0004FF4FA7110460EF0CFFB002010F028FF04
:1029C000002008F047FC002008F02AFC2F4800688F
:1029D000C00602D400200EF017FDBDE8104000F044
:1029E00008BD02200AF0B0BF70B50024284D55F88C
:1029F000240000B18047641C032CF8D30024244D2C
:102A00002D1F55F8240000B18047641C002CF8D01D
:102A100070BD2048006800F480707047BFF35F8F7E
:102A20001D4801680A6814490A600160BFF34F8FAE
:102A3000704710B5FFF7F2FFBDE8104003F7CEBCBA
:102A4000D2E710B513210D480C300EF0E9FD052139
:102A50000A48A4300EF0EAFD01210848001D0EF0DE
:102A6000D9FD09F087F809F021F909F0CBF9BDE8A3
:102A7000104009F07DB800000078002000740020AC
:102A8000BC10002090A80040307C002084E300406F
:102A9000584D210040A3004008ED00E00A460146E1
:102AA0004FF47A73032001F0BDB9032001F0E6B9B9
:102AB00070471CB5534800904FF480600190524815
:102AC000032202704FF4E131016442640021816409
:102AD000C16401650123436501742024446142748B
:102AE000037601711023836042710173474941638A
:102AF0008163022180F83C1080F83D206A464449F9
:102B000001F002F81CBD00B587B0FFF7D2FF03202B
:102B10008DF800001D208DF8160001208DF817009B
:102B20008DF818008DF81900AFF28102AFF2930111
:102B3000684601F097FE02F09AF907B000BD7047B1
:102B400000B587B003218DF8041002200290052201
:102B50008DF80C2001208DF80D0000238DF80E302B
:102B60008DF8101005908DF818208DF819008DF84B
:102B70001A00284A022101A800F0C4F9DDE77CB55B
:102B80001020009002248DF804408DF805400725A0
:102B90008DF806506946042000F0CAFC40200090E1
:102BA0008DF804408DF805408DF8065069460420E4
:102BB00000F0BEFC7CBD002806D0012809D100220F
:102BC0004021042000F08DBD00221021042000F0DF
:102BD00088BD7047002806D0012809D10122402174
:102BE000042000F07EBD01221021042000F079BDF8
:102BF000704710B5FFF787FFFFF7A2FFBDE8104051
:102C0000BDE70000DC7E0020DC8200200090014057
:102C1000B12A20003F2B20007A49002201F8102021
:102C200001EB40004270704770B505460024091F53
:102C3000062917D2DFE801F003070C111315284607
:102C4000FFF7EAFF0EE001242846FFF7E5FF09E061
:102C500002242846FFF7E0FF04E0032402E00424F6
:102C600000E00524684A214628461268BDE8704005
:102C7000104770B50021634B624D323B1A5C002A4D
:102C800009D0002403F10A06012A0AD0022A12D030
:102C9000032A24D11FE015F8102002B301221A5490
:102CA0001DE015F810201AB1345402221A5416E00F
:102CB0001C54042113E015F810204AB1325C521C58
:102CC000D2B23254642A0AD3072103221A5406E0EE
:102CD00005211C5403E015F8101011B10821084615
:102CE00070BD1C54FFF798FF0921F8E72DE9F0416A
:102CF00004462046FFF7BDFF0146424800231E3828
:102D00000826025D00F10A0700F11405A2B1052AA8
:102D100030D0082A28D1092940D0082924D1295D9A
:102D2000491CC9B2295514291ED32B5506552046D6
:102D3000BDE8F041082177E7052912D0042915D014
:102D4000072913D008290FD1295D491CC9B229557B
:102D5000142909D32B5506552046BDE8F04108211A
:102D600062E73B5505210155BDE8F0812046BDE8ED
:102D7000F04159E705290BD0395D491CC9B23955D5
:102D80003229F1D303552046BDE8F04105214BE738
:102D900003552046BDE8F041062145E7035520468E
:102DA000BDE8F04109213FE7002803D0164908603B
:102DB000012070470020704770B50024114D05EBCD
:102DC0004400407810B12046FFF790FF641CE4B245
:102DD0000A2CF4D370BD0B4A012102EB4000417074
:102DE0007047084A02F8101070470020054911F892
:102DF00010200AB100207047401CC0B20A28F6D348
:102E0000012070476E840020487900202DE9F041B0
:102E10000024604FDFF8808119E0002607EB0415DD
:102E20002878696800F045FC10B9697A012902D058
:102E3000012802D005E0012603E0687A022800D1CB
:102E4000012631462046FFF7CCFF641CE4B298F817
:102E500000008442E1D3BDE8F08110B5FFF7D6FF52
:102E6000BDE81040FFF7A8BF38B503F034F80246BC
:102E70000020494C034600900621606802F066F984
:102E80000120607038BD38B50024434D00942346BE
:102E900022460821686802F059F96C7038BD70B597
:102EA00004460D46FFF7A1FF08B1FFF7ECFF3948D4
:102EB000394A0C382946005D9268BDE870401047D9
:102EC0002DE9F04101460029C5D00024324E314A97
:102ED000357814E002EB04100F780378BB420CD174
:102EE0004B684068034208D0707808B9FFF7BCFF10
:102EF0002046BDE8F041FFF76EBF641CE4B2AC426F
:102F0000E8D3A8E72DE9F8430F4690460A2F04D8E6
:102F1000B8F1000F01D0002323E00020BDE8F883C2
:102F200003EB430610F826402CB1012C03D0022CF1
:102F300001D0032C13D1174A00EB86050C3AA97A6D
:102F4000D154144910F8262001EB0314227069684B
:102F50006160297A2172697A61721049E1605B1CB3
:102F6000DBB2BB42DCD339460A4800F099FA0A4C7E
:102F70002770C4F808800A48FFF716FF09480023A5
:102F8000009001220A21184602F070FA60600120C8
:102F9000C4E70000908400204C790020C12E20005E
:102FA0009F2E20005B2E200070B50024E54E04EB20
:102FB000C40000EB400016F8201001290DD106EBEB
:102FC00080000546001D1DF601FF18B1012801D043
:102FD000002070BD281D1EF67BFC641C0C2CE6D363
:102FE000012070BD30B40021D64B01EBC10202EBD1
:102FF000420213F82240012C15D103EB820205791D
:10300000147AAC420FD152680468A2420BD101EB92
:10301000C10000EB400003EB8000816E002905D069
:1030200030BC01200847491C0C29DED330BC704756
:1030300030B40021C34B01EBC10202EB420213F892
:103040002240012C15D103EB82020579147AAC429F
:103050000FD152680468A2420BD101EBC10000EB12
:10306000400003EB8000816E0029DFD030BC0020DF
:103070000847491C0C29DED3D8E730B40021B14BF6
:1030800001EBC10202EB420213F82240012C15D1E0
:1030900003EB82020579147AAC420FD152680468BE
:1030A000A2420BD101EBC10000EB400003EB80001A
:1030B000816E0029BAD030BC02200847491C0C2977
:1030C000DED3B3E72DE9F05F0546894600244FF0D3
:1030D000FF3846464FF0010A002D16D09A490320CA
:1030E000FFF7F0FB99492320FFF7ECFB287970B13B
:1030F00001280CD002280AD0032808D0042806D0C2
:10310000052804D04046BDE8F09FE520FBE7EFF33B
:103110001083012181F310888A4F04EBC40101EB75
:10312000410117F8212052B107EB8102D5F800B018
:10313000D2F804C0DC4514D1127A824211D104EBDA
:10314000C40000EB400207EB8202384692F83120BF
:10315000022A04D026B2012200F8212004E00C2427
:1031600002E0641C0C2CD8D383F310880C2C42D2C0
:1031700000220321764800F04EF904EBC40000EB76
:10318000400007EB8004296861602879207204F10F
:103190000C00242205F1080106F0D6FCAFF2BB10AA
:1031A000A063AFF273102064AFF23110E06300202F
:1031B0006064C4F868906749606888420AD1032057
:1031C00000F0ACF898B9032024F6E4F8032024F6C4
:1031D000FFF80CE06049884209D1232000F09EF8F6
:1031E00028B9232024F6D6F8232024F6F1F8201D50
:1031F0000AF0B6FC8246BAF1000F00D046463046CF
:1032000081E72DE9F0410C2802D3E820BDE8F081E8
:1032100000EBC0004B4C00EB400614F82600F0B168
:10322000EFF31085012080F3108804EB8600074639
:10323000001D0AF025FC002004F82600FF2038724B
:10324000002000EBC00101EB410114F8211001291D
:1032500002D0401C0C28F4D30C2802D00AE0E9204C
:10326000D4E7002000F0ECF8032024F6A0F8232097
:1032700024F69DF885F310880020C7E70C2801D3B9
:103280000020704700EBC0002E4900EB400011F811
:1032900020201AB101EB8000001D7047002070470C
:1032A00070B50C2801D3E82070BD00EBC000254CA0
:1032B00000EB400014F8205035B15D1E40F6FF765B
:1032C000B54203D3E42070BDE92070BD04EB80005B
:1032D000001D1DF69DFF0028F7D170BDF8B5069EB4
:1032E0000C2801D3E820F8BD00EBC000154C00EB22
:1032F000400014F8205035B15D1E40F6FF77BD4206
:1033000003D3E420F8BDE920F8BD04EB8000001DE4
:1033100000961EF60FF90028F6D1F8BD00280FDB45
:103320004109890001F1E021D1F8001100F01F02EC
:1033300001209040014201D00120704700207047D9
:103340000020704730850020E5242000152520004E
:10335000644D21000090014000A001402DE9F05F84
:10336000444F3868002804D1DFF80C81D8F80000F9
:1033700010B10020BDE8F09F404D28684FF00009D3
:103380000126A8B10024DFF8F8A0DFF8F8B05AF859
:10339000241041B15BF8240028B12B6806FA04F22E
:1033A0001A4200D08847641C202CF0D3C5F8009046
:1033B000354D2868A0B10024DFF8D0A0DFF8D0B0E8
:1033C0005AF8241039B12A6806FA04F0104202D0E3
:1033D0005BF824008847641C042CF1D3C5F80090E6
:1033E000386810B9D8F8000008B10020C2E7012001
:1033F000C0E710B52748017800290BD101210170E1
:10340000254894F6B7F80021AFF2AF00BDE81040B0
:1034100094F646BA10BD70B506460D461446FFF741
:10342000E8FF122C02D2681E022801D9122070BDBA
:103430001A4840F82460204480F84850204670BD67
:10344000122803D2154A002142F82010704770B5A7
:1034500001250024114E56F8241019B1096809B14C
:10346000884720B1641C122CF5D3284670BD002576
:10347000FBE7000094050020980500209C05002033
:103480000411002004120020A00500208412002056
:10349000A412002058790020B5252000408A002081
:1034A0007CB505460E46002D01D0002418E0E5202D
:1034B0007CBD05EB041041680091017A8DF8041081
:1034C000417A8DF8051007218DF80610C268007842
:1034D0000023694600F055F90028E9D1641CE4B2E4
:1034E000B442E6D300207CBD1CB5002813D041684F
:1034F0000091017A8DF80410417A8DF805100721AA
:103500008DF80610C26800780023694600F039F98A
:103510000028FFD11CBDE5201CBD00F09CB90000B7
:10352000002101E0491C4008C207FBD00846704753
:1035300070B58EB005460C46FE4991E84D00CDE9C8
:103540000A02CDE90C36D1E90523086906AEC9693E
:103550000DC609911422F749203101A806F0F4FAAA
:10356000D4B1F5490620FFF7ADF9F4490720FFF77C
:10357000A9F9F3491B20FFF7A5F9F2491220FFF73B
:10358000A1F9EC493C39A1F12C02052D61D2DFE80B
:1035900005F0060606213900E5200EB070BD207941
:1035A00031F810000B90607932F810000C90A0797F
:1035B0000D9020680A90DF48543850F83500218873
:1035C0000904090C04D018B10AA90AF059FC39E021
:1035D000E420E2E7207901EB4000808A07906079DF
:1035E00002EB4000C0880890A079099020680690FE
:1035F000207810F0FF0F03D006A80AF0EFF921E0C1
:10360000E420CAE72079031F042B01D8E720C4E790
:10361000022819D001200290207901EB4000008D92
:103620000390607902EB400080890490A0790590B6
:1036300020680190207810F0FF0F08D001A9002029
:103640000AF03AFC0020A8E702200290E4E7E42018
:10365000A3E7E620A1E710B502460846052A26D2D0
:10366000DFE802F0030303121A00B249543951F89B
:1036700032200104090C05D022B1014610460AF09F
:10368000F3FB10E0E42010BD10F0FF0F02D00AF0B1
:103690009BF908E0E42010BD10F0FF0F05D00146B3
:1036A00000200AF0FBFB002010BDE42010BDE62046
:1036B00010BD02460020052A12D2DFE802F0030303
:1036C000030A0D009B48543850F8320089B220F6A6
:1036D00080BA88B21CF666B989B2002023F610BE03
:1036E000704710B50B461146002903D0012901D0BF
:1036F000E42010BD05281DD2DFE800F0030303100D
:1037000014008C4A543A52F8300028B19BB20A4651
:10371000194620F671FA0BE0E42010BD98B21CF6B1
:1037200061F905E098B20A460146002023F604FE3E
:10373000002010BDE62010BD10B5052819D2DFE825
:1037400000F00303030E12007A4A543A52F8300094
:1037500018B189B220F64CFA09E0E42010BD88B215
:103760001CF634F903E089B2002023F6DDFD0020C9
:1037700010BDE62010BDE7207047E7207047E72026
:1037800070472DE9F05F05460C469046994626683D
:103790000027042D11D031462846FFF75CFF214653
:1037A0002846FFF7C5FE002808D1032D08D04FF0AA
:1037B000100A2807070E002449E0E620BDE8F09F24
:1037C0004FF0080AF7E7F0073ED03DB1012D05D0D4
:1037D000022D03D0032D22D0E620EFE755485438C0
:1037E00000EBC50090F904B0BBF1000F15D0EFF36A
:1037F0001081012080F31088534AE01942F830808C
:1038000002EBC000C0F8049081F31088584623F6FC
:10381000C1FD584623F6DCFD16E0E420CEE7EFF3C9
:103820001081012080F31088484AE01942F8308066
:1038300002EBC000C0F8049081F310881B2023F62F
:10384000A9FD1B2023F6C4FD7608641CE4B2544590
:10385000B9D30020B2E72DE9F0034FF0000C0B467E
:10386000042808D003280AD0102702074FEA126C58
:10387000354C00221CE0BDE8F003E6207047082725
:10388000324CF6E7DD0710D0EFF31086012585F303
:10389000108802EB0C054FF0000844F8358004EB6B
:1038A000C505C5F8048086F310885B08521CD2B2A7
:1038B000BA42E7D3BDE8F003CDE62DE9FE438046EA
:1038C0000F463846FFF72CFE85B20024DFF86490DF
:1038D0001D4EA9F1540959F8340040450ED105EBAD
:1038E000041085B28DF80040019706EBC5004068D2
:1038F000029056F835200AB168469047641C032CA4
:10390000E9DBBDE8FE832DE9FE43054600240320E4
:103910008DF8000000260D4F4FF00108E8071AD07F
:1039200008FA04F0019007EBC4004068029057F8D1
:1039300034100DE0D44D21003D2620003726200014
:10394000332620002D2620009C8A0020AC8B0020EE
:1039500009B168468847641CA4B26D08761C082E1D
:10396000DCDBCEE770B50024FA4E56F82400B8B17F
:1039700090F86C10012913D1001D2DF6A1F818B193
:10398000102801D0002070BDEFF31085012080F3D6
:10399000108856F82400001D2DF6C4FB85F310880E
:1039A000641C062CE1D3012070BD0020704700216B
:1039B000E94A006802EBC1035B68984202D112F841
:1039C00031007047491C0629F4D3062070477CB5A6
:1039D00005460C46E0481038C1688068CDE9000112
:1039E000207A8DF8050003208DF8040060680090AF
:1039F00060788DF8060020786946FFF799FD002869
:103A00002BD1207D8DF8050020690090607B8DF81A
:103A10000600207B6946FFF78BFD00281DD1222D73
:103A20001BD194F820008DF80500E0690090607EBD
:103A30008DF80600207E6946FFF77AFD00280CD13C
:103A40002434207A8DF805006068009060788DF845
:103A5000060020786946FFF76BFD7CBD2DE9F0413B
:103A60000446BC4D55F82400703000F091FE82B23F
:103A7000164600277AB155F8240090F80111012963
:103A800009D0802A0ED300F180017030802200F02E
:103A900000FE80260BE055F8240080F8007100201D
:103AA000BDE8F08100F18001703000F0F2FD55F8C2
:103AB000240080F8047155F82400324600F180019A
:103AC000001D2DF665FC0028EAD1E9E7A148406910
:103AD000001D0AF027BA9F480069001D0AF022BAAB
:103AE0009C48C068001D0AF01DBA9A488068001DF5
:103AF0000AF018BA97484068001D0AF013BA9548B2
:103B00000068001D0AF00EBA2DE9F04105460F4687
:103B10002C78002D04D01AB1062C03D3E820BFE77F
:103B2000E520BDE78B4E05F1580046F82400D2E9A8
:103B300000310A467030194600F057FD291D286DE6
:103B4000FFF745FF0028ABD156F82410281D486622
:103B500056F82400076056F824001822083005F1B2
:103B6000400105F0F1FF7C4856F8241000EBC40535
:103B70006868486056F82400001D0AF0C4F956F839
:103B80002400001D0AF0C2F97348012203211038F5
:103B9000FFF741FC56F82410012081F86C0056F81C
:103BA0002410002081F8000156F8241081F801014A
:103BB00056F8241081F8020156F8241081F8030108
:103BC000AFF2C5010C20FEF77DFEAFF2D7010D204C
:103BD000FEF778FEAFF2ED013420FEF773FEAFF290
:103BE000FF013520FEF76EFEAFF215113620FEF70D
:103BF00069FEAFF227113720FEF764FE95F9010048
:103C000023F6C8FB95F9010023F6E2FB002047E705
:103C10002DE9F0410446062C01D3E82040E74D4D44
:103C200055F82400C0B190F86C10A9B1406E4168FD
:103C30000078FFF710FD0028F0D155F82400406E01
:103C40000169007BFFF707FD0028E7D155F8240044
:103C50008169222902D012E0E52021E7406E816AC5
:103C600090F82400FFF7F7FC0028D7D155F824007E
:103C7000406EC169007EFFF7EEFC0028CED13648C9
:103C800000EBC40090F9010023F691FB55F82400E5
:103C9000002780F86C7055F8240080F8007155F802
:103CA000240080F8017155F8240080F8027155F85D
:103CB000240080F80371EFF31086012080F3108850
:103CC000002055F8201011B191F86C1029B9401C52
:103CD0000628F6D30120FFF7B3FB86F3108855F8CA
:103CE0002400001D0AF00FF955F8240090F86D002B
:103CF00008B945F824700020D2E670B5062801D333
:103D0000E82070BD134C54F820304BB193F86C5040
:103D100035B139B132B193F80351012D04D010E01F
:103D2000E52070BDE42070BD002583F8035154F8F0
:103D300020305B680225C3F8885054F820305B6857
:103D40001B6854F82000001D0AF070FA0028EAD120
:103D500070BD0000EC8B0020184E210070B50628C5
:103D600001D3E820F4E7FE4D55F820404CB194F81B
:103D70006C6036B139B132B194F80361012E04D0D0
:103D800010E0E520E4E7E420E2E7002684F80361A0
:103D900055F8204064680226C4F8886055F8204031
:103DA0006468246855F82000001D2CF69DFF00284B
:103DB000CED1CDE770B50446062C01D3E820C7E785
:103DC000E74D55F8240090B190F86C307BB181B18B
:103DD0007AB1002680F8026155F82400703000F0B6
:103DE00019FC55F8240090F8001121B10AE0E520F3
:103DF000AEE7E420ACE790F8011119B990F86C1027
:103E0000012901D0E220A3E7012180F8001120461A
:103E1000FFF724FE20B155F8241081F8006197E7E0
:103E2000002095E770B5062801D3E82090E7CC4D37
:103E300055F820407CB194F86C6066B169B162B10C
:103E4000002684F8026155F82000001D2DF689F93E
:103E50000028EBD17CE7E5207AE7E42078E7062824
:103E600001D300207047BE4951F8200020B190F8DE
:103E70006C1009B1001D7047002070472DE9F84310
:103E80000446B74E56F82400071D062C7ED290F843
:103E90006C1000297AD0012978D180F80111002511
:103EA00056F82400D0E903120A44017D01F0010113
:103EB000C91D02EB01084168CA6FC2F38002002AE3
:103EC000FAD090F80411E1B1DFF898926D1C56F821
:103ED0002400001D2CF6F4FD10280BD056F8240009
:103EE000D9F800108068B1FBF0F000FB08F0B5EBEA
:103EF000C01FEBD956F82400703000F049FC85B2A1
:103F000026E0B0F82480C58C001D2CF6F7FB56F88F
:103F1000240041F2883300EB0801491B8031001D69
:103F20002A462DF61EF9E5E756F8240001227030E6
:103F3000694600F0AEFB56F824004068C16FC1F33B
:103F400040010029FAD09DF8001001606D1EADB24D
:103F5000002DE9D156F82400703000F019FC00283B
:103F6000C8D1386841694906FCD5EFF310850120B6
:103F700080F3108856F82400703000F009FC68B116
:103F8000EFF31081012080F3108800E00DE0386825
:103F9000426842F08202426081F3108856F8241091
:103FA000002081F8010185F31088BDE8F88370B521
:103FB0000446062C01D3E820CAE6694D55F82400D2
:103FC000B8B190F86C10A1B1703000F018FC55F841
:103FD0002400001D2CF65CFA0028EDD155F82410C1
:103FE000012081F8020155F8241081F80301002016
:103FF000AEE6E520ACE670B50446062C01D3E82019
:10400000A6E6574D55F8240098B190F86C1081B190
:10401000703000F0F4FB55F82400001D2CF66EFB08
:104020000028EDD155F82410012081F8020100206C
:104030008EE6E5208CE670B50446062C01D3E82018
:1040400086E6474D55F8240070B190F86C1059B1D0
:10405000001D2CF6B9FA0028F2D155F824100120E1
:1040600081F80301002073E6E52071E67CB5054682
:104070002846FFF79CFC044601208DF80000288CA0
:10408000698C401AADF80400354D55F8240090F8BD
:10409000040118B1204600F0C5F902E02046FFF700
:1040A000DDFC55F8240090F80011002904D10168C6
:1040B000002901D0684688477CBD1CB504462046CF
:1040C000FFF775FC02218DF80010218D628D891A91
:1040D000ADF80410224951F820000168002901D0F0
:1040E000684688471CBD1CB504462046FFF75FFCA8
:1040F00000228DF80020E16B0191194951F8203020
:1041000083F8002151F820000168002901D0684699
:1041100088471CBD1CB5FFF74AFC05218DF800102F
:104120000F49002251F8203083F8002151F8200077
:104130000168002901D0684688471CBD1CB5FFF7FF
:1041400036FC03218DF800100549002251F820307B
:1041500083F8002151F820000168002906D003E00F
:10416000EC8B002060030020684688471CBD1CB50E
:10417000FFF71DFC04218DF800100749002251F8BB
:10418000203083F8002151F820000168002901D077
:10419000684688471CBD0000EC8B002030B58BB012
:1041A00004462C21684605F02BFD606B009094F8C6
:1041B0003C008DF80400FC48009AFC49824202D180
:1041C0000B22029204E0009A8A4201D10922029253
:1041D000009BF74A834205D1207802EB001000686B
:1041E000039007E00098884204D1207802EB001089
:1041F000806803900398D0B14FF4801004900020A1
:1042000005904FF4807106910790089009900A90EC
:1042100000216846FEF756FF2178E64D55F821103B
:10422000A1F86800002804DAE4200BB030BDE720D4
:10423000FBE7FFF723F8217855F821100863217870
:1042400055F82110091D01630020EEE730B58BB051
:1042500004462C21684605F0D3FCA06B009094F82E
:104260003D008DF80400D048009BD149CF4A8342DD
:1042700005D1237801EB03114968029107E0009B07
:10428000934204D1237801EB0311C968029102998A
:1042900029B10099814204D10B20039006E0E72068
:1042A000C3E70098904201D1092003904FF4001019
:1042B0000490C01205900020069007900890099085
:1042C00040200A9000216846FEF7FCFE2178B94D97
:1042D00055F82110A1F86A00002801DAE420A4E7CB
:1042E000FEF7CCFF217855F821104863217855F866
:1042F0002110091D0163002097E710B50446AD4861
:1043000022784FF0FF3150F82220A2F8681022786E
:1043100050F82200A0F86A10606B002801D1A16B50
:1043200071B120B12046FFF739FF002807D1A06BFB
:1043300020B12046FFF78AFF002800D1002010BDE1
:10434000E42010BD70B5047800280BD0994E56F8C3
:10435000241049B191F86C2032B191F86D1029B157
:10436000EA2070BDE52070BDE92070BDEFF3108537
:10437000012181F31088FFF7C0FF20B956F82420EF
:10438000012182F86D1085F3108870BD70B5044668
:10439000062C01D3E82070BD864D55F8240018B1D5
:1043A00090F86D10012901D0E92070BDB0F96800C6
:1043B000FEF727FF55F82400B0F96A00FEF721FF49
:1043C00055F82410002081F86D0070BD70B50628E6
:1043D00001D3E82070BD774C54F820304BB193F8EE
:1043E0006C5035B139B132B193F80351012D04D07D
:1043F00010E0E52070BDE42070BD002583F8035176
:1044000054F820305B680225C3F8885054F82030F7
:104410005B681B6854F82000001D09F0E1FD0028CE
:10442000EAD170BD70B50446624D55F82400703075
:1044300000F0AEF982B21646A2B155F8240090F809
:10444000011101290ED0012180F80411802A0FD317
:1044500055F82400802200F18001703000F019F935
:1044600080260CE055F82410002081F8000170BD72
:1044700055F8240000F18001703000F00AF955F879
:104480002400324600F18001001D2CF6BDFE0028FC
:10449000EDD170BD70B50446062C01D3E82070BD87
:1044A000444D55F8240090B190F86C307BB181B147
:1044B0007AB1002680F8026155F82400703000F0CF
:1044C000A9F855F8240090F8001121B10AE0E52080
:1044D00070BDE42070BD90F8011119B990F86C100E
:1044E000012901D0E22070BD012180F80011204691
:1044F000FFF798FF20B155F8241081F8006170BDD6
:10450000002070BD2DE9F04104460E46174698463E
:10451000062C02D3E820BDE8F081264D55F8240092
:1045200098B190F86C1081B18EB187B1B8F1000FDD
:104530000DD0002180F802112046FFF79FFC55F8AE
:10454000240090F8001121B10AE0E520E3E7E4201F
:10455000E1E790F8011119B990F86C10012901D028
:10456000E220D8E7012180F8001155F824004346E5
:10457000001D3A4631462CF6A7FE0028CBD1CAE7EB
:1045800070B5062801D3E82070BD0A4D55F82040CB
:1045900094B194F86C607EB181B17AB173B194F842
:1045A0000361012E0CD018E00090014000A00140F2
:1045B000484E2100EC8B0020E52070BDE42070BD4A
:1045C000002684F8036155F8204064680226C4F888
:1045D000886055F820406468246855F82000001D64
:1045E00009F090FD0028EAD170BD10B500290FD068
:1045F00070B16AB1EFF31083012484F31088026074
:10460000416000218160C16083F31088012010BDEA
:10461000002010BD2DE9F047044689460027EFF33E
:104620001088012080F31088A668E068002C2AD04A
:10463000636843B3B9F1000F25D0B04205D9851B9B
:104640006D1EAA420CD815460AE021688D1B054450
:104650006D1EAA4200D815467019884200D3471A29
:10466000EA1B9819494605F02AFA09EB0500C11B17
:104670003A46606805F023FA70192168814200D833
:10468000401AA06000E0002588F310882846BDE8A5
:10469000F0872DE9F04705468A464FF00008EFF312
:1046A0001089012080F31088AF68EE68002D2ED0AD
:1046B000696861B3BAF1000F29D0B74204D3BC1BBB
:1046C000A2420DD814460BE02868831BDC19A242D5
:1046D00000D814463219824202D3A219A2EB000874
:1046E000A4EB08023144504605F0E9F90AEB040056
:1046F000A0EB08004246696805F0E1F93019296825
:10470000814202D8B84200D9401AE86000E0002493
:1047100089F310882046BAE72DE9F041054688461E
:104720000026EFF31087012080F31088AB68E8685B
:10473000002D27D0D5F804C0BCF1000F22D0B8F16D
:10474000000F1FD0834204D31C1AA2420CD8144677
:104750000AE029680C1A1C44A24200D81446021927
:104760008A4201D32218561A0CEB0001A21B4046C4
:1047700005F0A5F908EB0400801B3246696805F0D6
:104780009EF900E0002487F310882046BDE8F08100
:1047900000280AD0EFF31083012181F3108881688B
:1047A000C2688A4203D8881A04E000207047006873
:1047B000801A084483F31088704710B50146002022
:1047C000EFF31084012282F310888A68CB680029F5
:1047D00008D0934202D9981A401E03E00868801A54
:1047E0001844401E84F3108810BD10B50C46FFF726
:1047F000E4FF844201D3012010BD002010BDEFF37F
:104800001081012282F31088002802D000228260E9
:10481000C26081F31088704730B50546002000293A
:104820000CD0002A0AD006E02B18FF2B06D8CC5457
:10483000521C401C80B21478002CF5D130BDF74AD0
:104840001044807D084201D001207047002070474D
:10485000002806D0002904D0F04AD269002A00D0EE
:104860001047704770B50D461646EC4C00280AD02C
:104870000178032911D80121A17601461A22204688
:1048800005F01DF905E00020A0761A21E34805F0A7
:10489000B7F9E5612662002070BD012070BD2DE9E9
:1048A000FE4F0646DDF830B09246994600240027B8
:1048B00001970297D9480178B14202D2807E002840
:1048C0007ED10DF13808CDF80080EFF3118502207C
:1048D00000F0EDF90146D2480068C0F30220401C08
:1048E000012282408818C0B280F31188012130462D
:1048F000FFF7A5FF38B1CB48CB4950F8262020461A
:10490000FFF78AFF04461C213046FFF798FF002876
:104910005ED0C6A2C4492046FFF77EFF204484B281
:1049200004213046FFF78BFFF8B15246BE492046BE
:10493000FFF772FF204484B208213046FFF77FFF63
:1049400038B1BBA2B8492046FFF766FF204484B2C5
:104950000BE010213046FFF772FF30B1B5A2B2492B
:104960002046FFF759FF204484B208213046FFF764
:1049700066FF90B14A46AC492046FFF74DFF204400
:1049800084B210213046FFF75AFF30B1AAA2A649DF
:104990002046FFF741FF204484B210213046FFF744
:1049A0004EFF60B15B46A6A2052101A804F068FE97
:1049B00001AA9D492046FFF72FFF204484B200E062
:1049C0002AE0A0A298492046FFF726FF204484B29F
:1049D0009548C4F58071204443460D9A04F014FEB6
:1049E00000974FF48071002804DB2044884201DCEA
:1049F00086B200E00E46B01C884200D9FE2692A284
:104A000089493046FFF708FF304481B28648FFF7F6
:104A10001FFFE8B280F31188BDE8FE8F0FB438B5F0
:104A200005AC0094EFF31185022000F040F97C49B9
:104A30000968C1F30221491C01228A401044C0B216
:104A400080F3118823464FF4807421467648049AF7
:104A500004F0DAFDA04201D881B200E0214672489C
:104A6000FFF7F6FEE8B280F3118838BC5DF814FB5E
:104A70002DE9FE4F074689460024002500200190BD
:104A80000290EFF311800090022000F010F901462F
:104A900063480068C0F30220401C0122824088184D
:104AA000C0B280F311884FEAD90BA0464FF02E0A0E
:104AB00055E001210320FFF7C2FE38B159485A4999
:104AC000C2682046FFF7A8FE204484B2002628468C
:104AD0006D1C3B5CADB25DA2082101A804F0D0FDC5
:104AE00001AA51492046FFF797FE204484B2761C64
:104AF000F6B2082EEBD3680722D156A2082101A8EE
:104B000004F0BEFD01AA48492046FFF785FE204477
:104B100084B2083DADB20020434A795DA1F1200383
:104B2000602B04D302F804A0641CA4B202E0115567
:104B3000641CA4B26D1CADB2401CC0B20828ECD3FA
:104B400041A239492046FFF767FE204481B236482A
:104B5000FFF77EFE002408F1010808F0FF08D845A1
:104B6000A7D35FEA497058D001210320FFF767FE01
:104B700030B12C482C49C2682046FFF74DFE044650
:104B80004FF0000809F0070613E028466D1C3B5C57
:104B9000ADB22EA2082101A804F072FD01AA22499B
:104BA0002046FFF739FE204484B208F1010808F0DE
:104BB000FF084645E9D84FF00008C6F108090FE0A4
:104BC00025A2082101A804F05BFD01AA1649204690
:104BD000FFF722FE204484B208F1010808F0FF0824
:104BE000C145EDD81BA2082101A804F049FD01AA86
:104BF0000D492046FFF710FE204484B2A81B81B265
:104C00000020094B31E07A5CA2F12005602D25D30C
:104C100003F804A0641CA4B223E033E0048D002058
:104C20000CED00E05C790020048C002028000000DE
:104C3000200000003A000000204C696E653A000038
:104C4000256C6400292000000D0A00002530325830
:104C500020000000207C2000202020001A55641C29
:104C6000A4B2491C89B2401CC0B28642CBD8AFF274
:104C7000280216492046FFF7CFFD204481B2134891
:104C8000FFF7E6FD0098C0B280F31188C4E6104833
:104C9000006A002800D0004770477047704770478F
:104CA00013B501216846FFF7D3FD01201CBD002884
:104CB00004DB00F1E02090F80004704700F00F00E2
:104CC00000F1E02090F8140D70470000048C0020E3
:104CD000048D002030B5ADF20C4D04464FF48061D8
:104CE00003A804F08DFF664D202085F83F0085F86D
:104CF0009B003CB12846012C436DC26C09D0022CAC
:104D00000CD00FE05E4A5FA15C3203A804F0A2FC65
:104D100008E05FA103A804F09DFC03E064A103A8E0
:104D200004F098FC03A959A2686CCDE90121009018
:104D300066A3534A66A10020FFF7B1FDFFF7A7FF66
:104D40000DF20C4D30BD2DE9F04106460F46904660
:104D50001D46404604F094FE402801D9402002E060
:104D6000404604F08DFE04469C21454804F048FF6F
:104D700022464146424804F0A2FE41484FF011311C
:104D80000164456449008164C6644FF033310165B4
:104D900047654FF044318165BDE8F041012099E756
:104DA00006460F4690461D4672B6404604F068FE21
:104DB000402801D9402002E0404604F061FE04464C
:104DC0009C212F4804F01CFF224641462C4804F049
:104DD00076FE2B484FF05531016445644FF0663143
:104DE0008164C6644FF0773101654765C9438165C9
:104DF0000220FFF76FFFFEE706460F46154672B624
:104E0000384604F03DFE402801D9402002E03846F3
:104E100004F036FE8046304604F032FE402801D9C8
:104E2000402002E0304604F02BFE04469C2114484A
:104E300004F0E6FE42463946114804F040FE1048B0
:104E4000224631465C3004F03AFE0D484FF0AA315C
:104E5000016445644FF0BB3181644FF0CC31016592
:104E60004FF0DD3181650020FFF734FFFEE71C487D
:104E700094F616BD1A4B1B68002B00D018477047DC
:104E8000288D00205B4552524F525D202573000053
:104E90005B5741524E494E475D20506172616D3003
:104EA0003A25642C506172616D313A25640000002E
:104EB0005B504152414D5D20506172616D303A2529
:104EC000642C506172616D313A256400000000006D
:104ED0006170705F6173736572742E63000000000F
:104EE00070790020704770477047704710B5164CB6
:104EF000144820600020A0600121217360601349E4
:104F00003020FDF7DFFC204608F0E5FF204608F0E2
:104F1000EDFF0F49FF200870204629F627FB0D48BA
:104F20004FF47A710068B0FBF1F20121204629F6B6
:104F3000A9FA2068006D084CE06000F02EFF606068
:104F400010BD000080A60040C48D0020DB2620009C
:104F500030E400E05C0300207C790020302080F306
:104F60001188BFF34F8FBFF36F8FFEE724384FF0E8
:104F70008073036221F00101C16160498161426077
:104F80006FF0020140F82019704710B55C480168C5
:104F900041F47F010160016841F07F410160FFF74A
:104FA000A5FF584C00206060FDF76EF95648016877
:104FB00041F0404101600120207054490020FDF77C
:104FC00086FCFDF74DF9002010BD7047302080F3BE
:104FD0001188BFF34F8FBFF36F8F4A484168491C58
:104FE0004160704747494868401E4860002801D129
:104FF00080F31188704710B5302080F31188BFF31B
:105000004F8FBFF36F8F3F480078012807D100F022
:10501000E6FB20B13A494FF080501C39086000206F
:1050200080F3118810BD2DE9F0410446354FF86832
:10503000844200D904464FF0E026306920F0010098
:105040003061B169BA68601E02FB0015386985429B
:1050500000D92D1A72B6BFF34F8FBFF36F8F01F0D7
:10506000EEF848B375610023B361306940F0010088
:10507000306124B1BFF34F8F30BFBFF36F8F62B683
:10508000BFF34F8FBFF36F8F72B6BFF34F8FBFF376
:105090006F8F062030613069C00319D5B069B968D7
:1050A000281A081A401E3A69904201D3884200D952
:1050B000481E7061601E15E0B0697061306940F093
:1050C00001003061B868401E706162B6BDE8F081D1
:1050D000BA68B0695443211AB1FBF2F0441C54433E
:1050E000611A7161B361316941F00101316100F010
:1050F000BBFFB868401E706162B6E7E75D4F2000F5
:1051000020ED00E08C79002034EF00E04122200007
:1051100070B5002441600061F74D91420AD8D11A60
:105120008269914201D301240EE0011D286901F03A
:10513000DFFF09E09A4203D2994201D3012403E040
:10514000011DE86801F0D4FF204670BDFEB506469B
:10515000089F9C460020E84D2C68002C0ED0009142
:1051600001920296062911DA01F085F8022806D08C
:1051700000231A466946286801F0FCFBFEBD0023A7
:105180003A466946286801F0F5FBFEBD00236246F9
:105190006946204601F05DFDFEBDF8B5D64E1FE024
:1051A000C0680568C468201D01F0BAFF216A204666
:1051B000884794F82800400712D5A0692844A842DF
:1051C00006D960602461211DF06801F091FF07E0BD
:1051D00000200346014600902A462046FFF7B6FF0E
:1051E000F06801680029DBD1F0683169F160306155
:1051F000F8BD70B5054600F0D0FD0446BE4EB0685F
:10520000844204D2FFF7C9FF0120286001E000209A
:105210002860B460204670BD30B585B0B64D56E00C
:105220000298002853DB049C606910B1201D01F036
:1052300077FF01A8FFF7DDFF024602980A2846D251
:10524000DFE800F0050505252B390505252B94F829
:10525000280040F0010084F828000398A169034663
:1052600001442046FFF754FF20B3216A20468847B7
:1052700094F8280040072AD5002000900398A169DF
:105280000023421819462046FFF760FF1FE014F87C
:10529000280F20F00100207019E094F8280040F059
:1052A000010084F828000398A06181181346204665
:1052B000FFF72EFF0BE094F82800810703D4204667
:1052C00001F0E2FF03E020F0010084F82800002252
:1052D00002A9286801F02FFD0028A1D105B030BD3A
:1052E000F8B505460E468448C068C068C468201DED
:1052F00001F016FF94F82800410710D5A0692B464D
:10530000411932462046FFF703FF60B100200346F3
:10531000014600902A462046FFF718FF03E020F0E0
:10532000010084F82800216A01B02046BDE8F04061
:105330000847F8B506460D4600F039FB6846FFF70A
:1053400058FF0446009810B100F0A1FAF8BD45B925
:10535000A64206D800F09BFA21463046FFF7C0FF70
:10536000F8BD65481DB10169096891B10025311B7F
:105370002A46006801F07BFE00F089FA0028EFD190
:105380005E494FF080500860BFF34F8FBFF36F8FBF
:10539000F8BD0125EBE75849CA681168002904D017
:1053A0000021016019B1002070470121F9E7D068A0
:1053B0000068704708B56846FFF7EDFF0099FFF7F2
:1053C000B8FFFFF729FFF6E710B5FFF7FFFD4A4CDE
:1053D0002068A0B94A4801F071FE4948143001F034
:1053E0006DFE4748E0601430206100220C210A2045
:1053F00001F030FA206010B142A101F017FEBDE8C3
:105400001040FFF7EFBD1CB50024FFF7DDFF3A4861
:10541000006858B138480221001DCDE90010CA01CA
:1054200000233AA13B4800F04CF9044620461CBD3D
:105430002DE9F0470546DDE908940E4617469846E3
:10544000002C11D0FFF7C0FF2560A661C4F81C80B6
:10545000C4F82090201D01F03CFE002F04D014F869
:10546000280F40F004002070BDE8F0872DE9FC47CC
:1054700006460A9D0F46904699462C2001F0ADFE47
:10548000044654B1002084F82800CDE900544B466E
:10549000424639463046FFF7CBFF2046BDE8FC8741
:1054A0001548406870478069704770B504460D46DE
:1054B000FFF78CFD2DB114F8280F40F00400207088
:1054C00004E014F8280F20F004002070BDE87040BC
:1054D000FFF788BD10B50446FFF778FD94F8280063
:1054E000400701D4002400E00124FFF77BFD2046A3
:1054F00010BD406870470000A079002004ED00E076
:10550000F08D0020546D725100000000546D722027
:1055100053766300B55320000068EBE710B50446EE
:10552000FFF754FD94F82800C00704D00124FFF7CA
:1055300059FD204610BD0024F9E710B50446FFF7D9
:1055400045FDE469FFF74EFD204610BD70B50446E9
:105550000D46FFF73BFDE561BDE87040FFF742BD3A
:10556000406AC7E74162C5E770B50024FE4D04EB11
:10557000840005EB800001F0A1FD641C0A2CF6D329
:10558000F948C83001F09AFDF748DC3001F096FD8B
:10559000F548F03001F092FDF44801F08FFDF3483A
:1055A000143001F08BFDF149F1483C39C1641431EC
:1055B000016570BD70B50446FFF708FDEC4DA868A5
:1055C000401CA860286810B1686938B10CE02C60F4
:1055D000A868012808D1FFF7C7FF05E02868E16A3D
:1055E000C06A884200D82C60686A401C6862A06566
:1055F000E06A01212A69814011432961DA4900EBFF
:10560000800001EB8000211D01F066FDFFF7EAFC40
:10561000686900280CD02868E16AC06A884207D20D
:10562000D4494FF080500860BFF34F8FBFF36F8FA6
:1056300070BD2DE9F05F8246DDE90A580C9C0E46EC
:1056400017469B46B900A522206B04F0AFFA216BE8
:10565000781E01EB800020F007096765002766B11E
:1056600000202218315C82F83410315C11B1401CEA
:105670002028F6D384F8537001E084F834700A2DA2
:1056800000D30925E56225666766201D01F021FD2E
:1056900004F1180001F01DFD2461C5F10A00A061AC
:1056A0006462A76684F86C705A4651464846FFF714
:1056B0005DFC2060B8F1000F01D0C8F80040BDE8E3
:1056C000F09F2DE9FF5F8146DDE90E788A46164698
:1056D0009B46B00001F081FD054628000AD07020ED
:1056E00001F07BFD04460CB1256304E0284601F07F
:1056F000CBFD00E0002484B10020CDE90240CDE9DB
:1057000000785B46324651464846FFF792FF2046F6
:10571000FFF750FF012004B0D1E74FF0FF30FAE768
:1057200010B50446206B01F0AFFD2046BDE81040E7
:1057300001F0AABD8E48C16C0968002904D0C16C73
:10574000C9680968816270474FF0FF318162704714
:1057500070B50446FFF73AFC854D04B92C68201D4E
:1057600001F0DEFC58B9E06A7F4A00EB800152F894
:10577000211021B901218140286988432861A06A4C
:1057800018B104F1180001F0CBFC686A401C686293
:105790002868844207D1211D744801F09DFC686887
:1057A000401C686004E0A868401EA860FFF7C2FFC4
:1057B000FFF718FC2868844202D02046FFF7B0FFAC
:1057C000686900280AD02868844207D169494FF0E7
:1057D00080500860BFF34F8FBFF36F8F70BD2DE90E
:1057E000F0410026624F786B002805D0B869401C54
:1057F000B8613046BDE8F081FD686D1CFD6045B9BB
:10580000F86C396DF9643865386A401C3862FFF706
:1058100091FFB86ADFF8508185420DD3F86C0068BB
:1058200038B1F86CC068C4686068854212D2B8624A
:1058300002E04FF0FF30B8623868C06A00EB8000C9
:1058400058F82000012800D90126F8690028D0D096
:105850000126CEE7201D01F063FCA06A18B104F117
:10586000180001F05DFCE06A01213A6981401143B2
:10587000396100EB800008EB8000211D01F02CFC59
:10588000E06A3968C96A8842C8D30126C6E72DE9AB
:10589000F04100240027FFF799FB354D686B401E4F
:1058A0006863686BF0BBA868E0B3DFF8C0800126CE
:1058B000A8F114081DE0D8F80C00C46804F1180021
:1058C00001F02EFC201D01F02BFCE06A2A6906FA8B
:1058D00000F111432961244900EB800001EB8000B5
:1058E000211D01F0F9FBE06A2968C96A884200D3EA
:1058F000EE61D8F800000028DDD10CB1FFF71AFFE7
:10590000AC6944B1FFF76BFF00B1EE61641E002C7F
:10591000F8D10020A861E86920B1012715493807AE
:10592000086000E003E0BFF34F8FBFF36F8FFFF716
:1059300059FB38465EE72DE9F04104460F460C4E10
:10594000F5683068001D01F0EBFB38B9306890F85D
:105950002C1001208840316981433161601C10D1D5
:105960007FB13168091D07E0188E00201C8F0020D0
:10597000B479002004ED00E0BDE8F041FD4801F0FD
:10598000ABBB2C4430684460AC4206D23168306D09
:10599000091DBDE8F04101F0ABBB3168F06C091D99
:1059A00001F0A6FBB06A844200D2B46222E7F2485A
:1059B000416B491C4163704770B503460D46002496
:1059C000FFF7F5FFEC48C26818684119904205D905
:1059D000884208D9914206D9012404E0884201D8BE
:1059E000914200D9012419601CB1881A0021FFF7E7
:1059F000A2FFFFF74CFF38B9E0494FF08050086034
:105A0000BFF34F8FBFF36F8F204670BD10B50246B6
:105A10000020002A07D0FFF7CAFF00211046FFF739
:105A20008AFFFFF734FF002807D1D4494FF0805098
:105A30000860BFF34F8FBFF36F8F10BD2DE9F041AA
:105A40000446CD4F3868844201D10020D2E6FFF7EA
:105A5000BDFA6569FE6C3F6DFFF7C4FAB54201D02F
:105A6000BD4201D10220C5E6C248854210D1A06ADC
:105A700008B10220BEE603200021621892F86C20D3
:105A8000012A03D0491C0129F7DBB3E60220B1E665
:105A9000B8481438854202D00DB10120AAE604208E
:105AA000A8E610B50446FFF791FA0CB9B2480468AD
:105AB000E46AFFF797FA204610BD3022EFF3118118
:105AC00082F31188BFF34F8FBFF36F8F002801D18E
:105AD000A9480068C06A81F3118870472DE9F04138
:105AE00004460D4600260A2D00D30925FFF76EFA5D
:105AF000A14F04B93C68206EA84241D0854208D924
:105B000039688C4209D03968C96AA94205D801268A
:105B100003E039688C4200D10126D4F82C8040453E
:105B200000D1E5622566A069002802DBC5F10A0004
:105B3000A061934D08EB8801606905EB8101884203
:105B400015D1201D01F0ECFA012120B93A6901FAC2
:105B500008F082433A61E06A3A6981401143396151
:105B600000EB800005EB8000211D01F0B5FA3EB18D
:105B700082494FF080500860BFF34F8FBFF36F8FA3
:105B8000BDE8F041FFF72EBA10B57B4C606B0028E2
:105B900002D00120E06110BD0020E0612068006BB0
:105BA0004FF0A5320168914208D14168914205D178
:105BB0008168914202D1C068904204D02168206877
:105BC000343103F078FA2069B0FA80F0C0F11F0098
:105BD0006B4900EB800001EB80004168496841603F
:105BE00000F10802914201D1496841604068C068F3
:105BF000206010BD70B50446FFF7E8F95E4D04B9AA
:105C00002C68201D01F08CFA58B9E06A5C4A00EB60
:105C1000800152F8211021B901218140286988436F
:105C20002861A06A18B104F1180001F079FA211D69
:105C3000504801F051FA00200026211891F86C20FC
:105C4000012A01D181F86C60401C0128F5DBFFF7C7
:105C5000C9F9686928B1FFF7B9F9FFF76BFDFFF7DC
:105C6000C1F92868844209D1686940B143494FF0BD
:105C700080500860BFF34F8FBFF36F8F70BD3D48FA
:105C80000068A968884201D12E6070BDBDE87040EF
:105C90007AE70021374B42699A4206D1806AA3F124
:105CA0002802904201D000B901210846704770B522
:105CB0000446314D2868844229D0002C27D0FFF7B4
:105CC00085F92046FFF7E5FFE8B1201D01F028FA2D
:105CD000E06A01212A69814011432961284900EBCA
:105CE000800001EB8000211D01F0F6F9E06A2968CF
:105CF000C96A884207D321494FF080500860BFF33A
:105D00004F8FBFF36F8FBDE87040FFF76BB970BD69
:105D10002DE9F041044600273020EFF3118680F38F
:105D20001188BFF34F8FBFF36F8F2046FFF7B1FF8E
:105D300040B1114D686B48B10E4804F11801283884
:105D400001F0CAF986F31188384653E5E06A2968FC
:105D50004FF00108C96A884202D30127C5F81C80A8
:105D6000201D01F0DDF9E06A296908FA00F848EA27
:105D7000010807E0308F0020B479002004ED00E036
:105D8000188E0020C5F81080FF4900EB800001EB61
:105D90008000211D01F0A0F9D4E7FC48C0687047DD
:105DA0000020FA490A69012A00D901200A68D26A4A
:105DB0000AB100207047F44A1268012A01D9002074
:105DC000704708B100207047886AC968401A704758
:105DD00070B5EE4DEE4E11E0FFF7F8F8F068C468CC
:105DE000201D01F09DF9A868401EA8606868401E4B
:105DF0006860FFF7F7F82046FFF792FC6868002814
:105E0000EAD170BDE04DE14CFFF7E2FF28680128C0
:105E100007D9E0494FF080500860BFF34F8FBFF3C0
:105E20006F8FFFF7C4FDFFF7B8FF6064FFF7B8FF9F
:105E3000022802D3FCF70EFD00E030BFFFF7ADFFF4
:105E4000A064A06C616C401AE16B0844E063A06C34
:105E5000A16B401A64280BD3E16B411A64225143B1
:105E6000B1FBF0F02064FFF798FFA0630020E0632F
:105E7000FFF70DFDC8E77CB5C44800252C30CDE9FF
:105E800000502B468022C4A1C548FFF71AFC012808
:105E900001D1FFF7B8FABD4C01280ED1302080F3B4
:105EA0001188BFF34F8FBFF36F8F4FF0FF30A062A9
:105EB00001206061E560FFF768F8206B7CBD302051
:105EC00080F31188BFF34F8FBFF36F8FAF4900206E
:105ED0004861FFF77AB8AD48C0687047AB48806842
:105EE0007047002801D1A94800683430704700216C
:105EF00001E0401C491C0278A52AFAD0880880B22B
:105F000070472DE9F0410C461746A049002815D0EE
:105F10000546256005F134006060E86A2061286B61
:105F2000E061A86DA060286E60610026A661052B67
:105F300012D00868854203D1267311E00D68E8E7A6
:105F40002373032B0CD1FFF732FDA86A08B102209E
:105F50002073FFF79CFC03E02846FFF76FFD2073DA
:105F600027B1286BFFF7C3FF208443E4268441E474
:105F70002DE9F04780460C4691460026206800280F
:105F800021D0214648684068486001F10807B842BE
:105F900001D1406848604868D0F80CA06068456846
:105FA0006560BD4201D1696861606068C56806EBE3
:105FB000C60008EB80014B4601222846FFF7A1FFEF
:105FC000761C5545EAD13046BDE8F0872DE9F0470B
:105FD00006460B46174600240A25FFF7E8FCDFF8C3
:105FE000AC81D8F8080083423AD3DFF89C916D1E4B
:105FF00005EB850009EB800104EBC40006EB800093
:106000000122FFF7B5FF0444002DF0D104EBC400DA
:1060100006EB80000222D8F84C10FFF7A9FF0444D9
:1060200004EBC40006EB80000222D8F85010FFF702
:106030009FFF044404EBC40006EB80000422544993
:10604000FFF796FF0444524904EBC40006EB8000BE
:1060500003221431FFF78CFF04440FB10020386095
:10606000FFF715FC2046AFE74849CA681044C860EE
:10607000704710B50246FFF79AFC44498B6998189F
:106080008861BDE8104002E410B50C463F4909683C
:10609000183101F02DF82046BDE8104001214AE4F6
:1060A00070B5154641F0004338490C68A361096892
:1060B000183101F011F82846BDE8704001213AE49A
:1060C00070B50D46144631490968183101F004F8DD
:1060D0000CB14FF0FF3521462846BDE870402AE458
:1060E0002DE9F041C068C46804F11800074601F0CA
:1060F00017F8264D6A6B012662B1254839461438D7
:1061000000F0EAFFE06A2968C96A884216D90120CE
:10611000EE610FE4201D01F003F8E06A2A6906FA37
:1061200000F111432961184900EB800001EB800068
:10613000211D00F0D1FFFFF7FDFAE3E7002035E471
:1061400070B541F000410160C46800F0E9FFFFF75D
:10615000F1FA201D00F0E4FF0C4DE06A01262A69E7
:1061600006FA00F111432961074900EB800001EBB9
:106170008000211D00F0B0FFE06A2968C96A8842EA
:1061800000D9EE6170BD0000188E0020B4790020A7
:106190001C8F002004ED00E049444C450000000045
:1061A000055E200010B50446FEF710FFFE48016AA8
:1061B0002160C0686060BDE81040FEF713BFFA4977
:1061C0000A6A0260C968416070472DE9F0410646DD
:1061D0000D46FEF7FBFEF448C36874681A1B296875
:1061E0004F1C0AD03768D0F820C00020674506D081
:1061F0009C4204D8012428600CE000240AE091426B
:1062000006D9881A28603046FFF7D9FF002401E03C
:1062100028600124FEF7E6FE204617E4E24901204B
:10622000C8617047002801D0C06D704700207047DA
:10623000002800D0C1657047DB48006C7047012022
:10624000DA490968002901D000207047D649CA6997
:106250000AB1002070478A690AB100207047D34A0A
:10626000283212688968491E8A42F7D10220704795
:10627000CD4800687047CC484169002903D0406B85
:1062800018B100207047012070470220704770B598
:1062900004460020002C36D0C34DE16A2A68D26A39
:1062A000914231D2A069002804DB2868C06AC0F19D
:1062B0000A00A061E06ABD4E00EB8000F03E61691B
:1062C00006EB800081421AD1201D00F029FF012138
:1062D00030B994F82C002A6901FA00F082432A614F
:1062E0002868C06AE0622A6981401143296100EB95
:1062F000800006EB8000211D00F0EEFE02E0286821
:10630000C06AE06201203DE7216E2A68D26A9142AC
:10631000F9D2012036E710B504460020002C29D020
:10632000616E491E6166236EE26A9A4222D000299C
:1063300020D1201D00F0F4FE9B49012230B994F8D1
:106340002C000B6902FA00F083430B61206EE062BF
:10635000C0F10A00A061E06A0B6982401A430A6139
:10636000924900EB8000F03901EB8000211D00F024
:10637000B3FE012010BD70B50A460446002834D093
:10638000216E914200D21146E06A88422DD0626EA1
:10639000012A2AD1E162A269002A02DBC1F10A01C5
:1063A000A161824D00EB8000F03D616905EB80004A
:1063B00081421AD1201D00F0B3FE7B49012230B981
:1063C00094F82C000B6902FA00F083430B61E06A39
:1063D0000B6982401A430A6100EB800005EB8000E4
:1063E000211DBDE8704000F077BECBE66E4908681D
:1063F00080690A680968D26AC2F10A028A61704734
:1064000069490868002803D00868426E521C426639
:10641000086870472DE9F04104460F461546FEF71F
:10642000D5FD614E306800EB8400806E88B931681C
:106430000120214481F86C005DB101212846FFF75D
:106440007AFA5B494FF080500860BFF34F8FBFF37B
:106450006F8FFEF7C7FDFEF7B9FD306800EB8400D3
:10646000856E002055B127B1316801EB8401886643
:1064700004E03268691E02EB8402916631682144AF
:1064800081F86C00FEF7AEFD28465EE42DE9F0478A
:106490000446884617461D46DDF82090FEF796FD17
:1064A000414E3068204490F86C0002281AD03068C1
:1064B00000EB8400816E21EA0801816631680120C9
:1064C000214481F86C00B9F1000F0BD0012148463E
:1064D000FFF731FA36494FF080500860BFF34F8F15
:1064E000BFF36F8FFEF77EFDFEF770FD25B13068BC
:1064F00000EB8400806E28603068204490F86C00C7
:10650000022801D0002506E0306800EB8400816E8F
:10651000B9438166012531680020214481F86C006F
:10652000FEF760FD28464FE52DE9F0470446DDF80B
:106530002090884615461F460126FEF747FD04EBCE
:106540008800B9F1000F02D0816EC9F8001004EB89
:10655000080212F86C1F02231370052F13D2DFE814
:1065600007F01203070B0D00826E2A4382660AE0D1
:10657000826E521C826606E0856604E0022901D024
:10658000856600E00026012928D1201D00F0C8FD05
:10659000054DE06A01212A698140114329610349BF
:1065A00000EB8000F03905E0B4790020088F00206E
:1065B00004ED00E001EB8000211D00F08DFDFFF7F0
:1065C000B9F8E06A2968C96A884207D979494FF061
:1065D00080500860BFF34F8FBFF36F8FFEF702FD4F
:1065E0003046F1E42DE9F047DDE908C7012604460D
:1065F0004FF03008EFF3118588F31188BFF34F8F08
:10660000BFF36F8F00EB8100BCF1000F03D0D0F817
:106610006880CCF8008004EB010C9CF86C104FF003
:1066200002088CF86C80052B13D2DFE803F012030C
:10663000070B0D00836E134383660AE0826E521CC3
:10664000826606E0826604E0022901D0826600E0EC
:106650000026012915D1DFF86081D8F83400894679
:1066600098B104F11801554800F036FDE06AD8F8F9
:106670000010C96A884204D90FB1C7F80090C8F861
:106680001C9085F3118830469EE4201D00F048FDE3
:10669000E06AD8F8102009FA00F11143C8F8101088
:1066A000464900EB8000F03901EB8000211D00F02D
:1066B00013FDDBE72DE9F041044617463020EFF3E8
:1066C000118680F31188BFF34F8FBFF36F8F60186F
:1066D00010F86C2F0223037004EB8100816E491CBB
:1066E0008166012A12D1344D686B904688B104F15D
:1066F0001801324800F0F0FCE06A2968C96A884253
:1067000004D90FB1C7F80080C5F81C8086F3118842
:106710002BE4201D00F004FDE06A2A6908FA00F16C
:1067200011432961254900EB8000F03901EB80001D
:10673000211D00F0D1FCDFE770B50D4600280CD01C
:106740000446FEF743FC601990F86C10022907D04C
:106750000024FEF747FC204614E517480468F0E7DC
:10676000002180F86C100124F3E770B50D46164641
:1067700000280CD00446FEF729FC04EB85018C6E42
:10678000886EB0438866FEF72DFC2046FAE40A487E
:106790000468F0E70848006834307047064800682D
:1067A000006B704704480068406D704702480068FD
:1067B0003430704704ED00E0B4790020088F0020E9
:1067C00070B504460D46FEF701FCD4E90F122068AF
:1067D00001FB0200A0600020A06320686060E06B05
:1067E000226C2168401E00FB0210E0604FF0FF3079
:1067F00084F8440084F8450004F110004DB100F025
:106800005DFC04F1240000F059FCFEF7EBFB0120D5
:1068100070BD21690029F8D0FFF762FC0028F4D090
:10682000FA494FF080500860BFF34F8FBFF36F8F6E
:10683000EBE770B51D46049C002909D02260E06397
:10684000216401212046FFF7BBFF84F84C5070BD46
:106850002460F4E7F8B505460E46174605FB06F03A
:10686000503000F0BAFC04463CB1224650323B4660
:10687000314628460094FFF7DCFF2046F8BD2DE99D
:10688000F0410446FEF7A2FB94F9455004F12406BA
:1068900009E0606A48B13046FFF722FC08B1FFF713
:1068A000BDFC6D1E6DB2002DF3DC4FF0FF3684F899
:1068B0004560FEF797FBFEF789FB94F9445004F11D
:1068C000100709E0206948B13846FFF709FC08B114
:1068D000FFF7A4FC6D1E6DB2002DF3DC84F844605C
:1068E000BDE8F041FEF77EBB10B50446FEF76EFB37
:1068F000A06BE16B884201D1012400E00024FEF787
:1069000071FB204610BD2DE9F041044617460026D4
:10691000A56B226C002A10D0C7B1E06803F0CFF855
:10692000E168206C091AE1602268914202D2A168F4
:10693000081AE060022F16D017E02068A8B9A068F6
:10694000FFF7E9FC06460020A0600EE0606803F057
:10695000B6F8216C606808446060A168884204D37E
:106960002068606001E005B16D1E6D1CA5633046B6
:10697000BDE8F0812DE9FF4782B004468A4699467A
:106980000025A8464FF08056A04FFEF71FFBA06BD6
:10699000E16B884206D3B9F1020F03D00498F8B135
:1069A00015B325E04A4651462046FFF7ACFF616A21
:1069B00051B104F12400FFF793FB58B13E60BFF3DF
:1069C0004F8FBFF36F8F05E020B13E60BFF34F8F55
:1069D000BFF36F8FFEF706FB012006B0BDE8F0871E
:1069E000FEF700FB0020F8E76846FFF7E8FB01250B
:1069F000FEF7F8FAFEF7DBFFFEF7E8FA94F9440039
:106A0000401C01D184F8448094F94500401C01D118
:106A100084F84580FEF7E6FA04A96846FFF7D5FB3F
:106A200030B12046FFF72BFFFEF731FF0020D4E7FF
:106A30002046FFF759FF88B104F110000499FFF7D1
:106A400023FB2046FFF71BFFFEF721FF00289CD108
:106A50003E60BFF34F8FBFF36F8F96E72046FFF77F
:106A60000EFFFEF714FF90E7002807D00021816099
:106A70000160C16000231A4619467BE7704710B5D4
:106A8000024600210120FFF7E5FE04462046FFF7FD
:106A9000EBFF204610BD10B50446FFF7E9FBA168E7
:106AA00088420BD1E068401EE06028B900231A46F6
:106AB00019462046FFF75EFF012010BD002010BDE3
:106AC000416A002904D0006B0068C0F10A007047D9
:106AD0000020704710B50446FEF778FAA06B20B18D
:106AE0000024FEF77FFA204610BD0124F9E72DE9C6
:106AF000F34383B004460025A94600264FF0805793
:106B0000DFF80881FEF762FAA06BC8B1401EA063EF
:106B1000206810B9FFF774FCA060206950B104F13F
:106B20001000FFF7DDFA28B1C8F80070BFF34F8FEF
:106B3000BFF36F8FFEF756FA012005B0BDE8F08372
:106B4000049808B125B107E0FEF74CFA0020F4E7FD
:106B500001A8FFF734FB0125FEF744FAFEF727FFF3
:106B6000FEF734FA94F94400401C01D184F84460E3
:106B700094F94500401C01D184F84560FEF732FAD3
:106B800004A901A8FFF721FBC8B12046FFF777FE53
:106B9000FEF77DFE2046FFF79DFF0028B2D0B9F139
:106BA000000F0AD0FEF712FA2046FFF789FF0146D0
:106BB000A068FFF7E0FBFEF715FA0020BDE72046CE
:106BC000FFF788FFE0B1206838B9FEF7FFF9A06849
:106BD000FFF75DFB8146FEF705FA04F124000499F6
:106BE000FFF752FA2046FFF74AFEFEF750FE002854
:106BF00088D1C8F80070BFF34F8FBFF36F8F81E764
:106C00002046FFF73CFEFEF742FE7BE704ED00E086
:106C100070B504460D46FFF72BFBA268904204D1E5
:106C2000E068401CE060012070BD29462046FFF767
:106C30005EFF0028F8D0E168491CE16070BD10B526
:106C40000C4602220021FFF705FE002800D08463D5
:106C500010BD2DE9F041174604461A463020EFF3E7
:106C6000118680F31188BFF34F8FBFF36F8FA06B36
:106C7000E36B984205D3022A03D0002086F31188E3
:106C800076E694F94550A06B2046FFF73CFE681C61
:106C900004D06D1C84F845500120EFE7606A00289D
:106CA000FAD004F12400FFF71BFA0028F4D0002FDB
:106CB000F2D001203860EFE770B50D463021EFF3D8
:106CC000118481F31188BFF34F8FBFF36F8F836BF4
:106CD000C16B994217D990F945205B1C8363511C05
:106CE00004D0521C80F8452001200DE0416A0029A3
:106CF000FAD02430FFF7F4F90028F5D0002DF3D0B6
:106D000001202860F0E7002084F3118870BD30B4C2
:106D10000B46026C002A0CD0C1681144C160846823
:106D2000A14201D30168C160C16830BC184602F0BD
:106D3000C6BE30BC70472DE9F74783B004468A468B
:106D4000002600274FF08058DFF86893FEF73EF9E1
:106D5000A56BB5B151462046FFF7D9FF6D1EA5635F
:106D6000206950B104F11000FFF7BAF928B1C9F851
:106D70000080BFF34F8FBFF36F8FFEF733F9012011
:106D80002BE6059808B126B107E0FEF72BF90020A5
:106D900023E601A8FFF713FA0126FEF723F9FEF711
:106DA00006FEFEF713F994F94400401C01D184F863
:106DB000447094F94500401C01D184F84570FEF7F9
:106DC00011F905A901A8FFF700FA58B12046FFF70D
:106DD00056FDFEF75CFD2046FFF77CFE0028B5D08F
:106DE0000020FAE52046FFF775FE90B104F124007B
:106DF0000599FFF749F92046FFF741FDFEF747FDEA
:106E00000028A3D1C9F80080BFF34F8FBFF36F8F65
:106E10009CE72046FFF733FDFEF739FD96E72DE9A5
:106E2000F74382B004468946002500264FF080577C
:106E3000DFF88082FEF7CAF8A06BB0B1E56849467A
:106E40002046FFF764FFE560606A50B104F124005A
:106E5000FFF746F928B1C8F80070BFF34F8FBFF3B2
:106E60006F8FFEF7BFF8012067E6049808B125B1DF
:106E700007E0FEF7B7F800205FE66846FFF79FF9E6
:106E80000125FEF7AFF8FEF792FDFEF79FF894F9A3
:106E90004400401C01D184F8446094F94500401C32
:106EA00001D184F84560FEF79DF804A96846FFF714
:106EB0008CF958B12046FFF7E2FCFEF7E8FC2046CB
:106EC000FFF708FE0028B5D0002036E62046FFF781
:106ED00001FE90B104F124000499FFF7D5F8204693
:106EE000FFF7CDFCFEF7D3FC0028A3D1C8F8007053
:106EF000BFF34F8FBFF36F8F9CE72046FFF7BFFCB8
:106F0000FEF7C5FC96E72DE9F04104469046302097
:106F1000EFF3118780F31188BFF34F8FBFF36F8FAB
:106F2000A66B002E1DD094F944502046FFF7EFFECB
:106F3000761EA663681C04D06D1C84F844500120A2
:106F400010E020690028FAD004F11000FFF7C8F81B
:106F50000028F4D0B8F1000FF1D00120C8F80000EB
:106F6000EDE7002087F3118802E570B50446302074
:106F7000EFF3118580F31188BFF34F8FBFF36F8F4D
:106F8000A06B002806D0E6682046FFF7C0FEE6604A
:106F9000012000E0002085F3118870BD10B5044683
:106FA000FEF714F8A46BFEF71DF8204610BD10B5CF
:106FB0000446FEF70BF8D4E90E10441AFEF712F857
:106FC000204610BD806B704700213B4A02EBC10395
:106FD0005B68834206D1002042F8310002EBC10118
:106FE00048607047491C0829F0D3704710B5044623
:106FF0002046FFF7E9FF2046BDE8104000F044B905
:10700000806C70478164704790F84C007047806BCB
:10701000002801D00020704701207047816BC06BB1
:10702000814201D1012070470020704710B5002235
:10703000214B53F832401CB1521C082AF9D310BD21
:1070400043F8321003EBC201486010BD10B50024B4
:107050000021194A02EBC1035B68834202D152F856
:10706000314002E0491C0829F4D3204610BD70B518
:1070700004460D461646FDF7A9FF94F944304FF03B
:1070800000005B1C01D184F8440094F94510491CB0
:1070900001D184F84500FDF7A5FFA06B28B9324661
:1070A000294604F12400FFF70BF82046BDE87040A4
:1070B000FFF7E5BB04ED00E0448F002000F108017C
:1070C00041604FF0FF328260C160016100210160C8
:1070D000704700210161704742684A6093688B6085
:1070E00093685960916008610168491C01607047AC
:1070F00030B50C68621C02D000F1080202E002699F
:1071000004E01A4653681D68A542FAD953684B60DB
:1071100099608A60516008610168491C016030BD56
:107120000169D0E901329A60D0E901235A604A68C6
:10713000824201D182684A60002202610868401ED2
:10714000086008687047000030B57E4900E01146CD
:107150000A688242FBD34B685C18844203D14068C2
:107160001844486008460D6844682318AB420DD1A6
:10717000744B183B1B689A4206D052682244426006
:107180000A681268026002E0036000E00260814267
:1071900000D0086030BD4FF400416B48420706D074
:1071A000C01D20F007006849411AC1F50041654A39
:1071B0001060002353600144083921F00701183A98
:1071C00011604B600B600B1A436001604068906077
:1071D00050604FF00040506170472DE9F041044687
:1071E0000026FEF7E4FB574F183F386808B9FFF751
:1071F000D2FF7869044242D184B104F10805A54266
:107200000CD968070BD005F00700C0F1080028442E
:10721000A84201D9054602E0002500E0002575B32B
:10722000786885422BD847490846046801E0214622
:1072300004466068A84202D220680028F7D1386866
:1072400084421CD00E680836206808606068411BC4
:10725000102904D9601941606560FFF775FF616806
:107260007868401A7860BA68904200D2B86078694D
:107270000143616000202060F868401CF860FEF760
:1072800006FB3046BDE8F08170B500281CD00838F8
:1072900004462C4D6068183D6969084214D0226884
:1072A000002A11D188436060FEF781FB606869683D
:1072B000084468602046FFF747FF2869401C2861A2
:1072C000BDE87040FEF7E3BA70BD1E48183840684C
:1072D00070471C4818388068704770472DE9F047A0
:1072E00005464FF000080026771EFEF760FB1548A4
:1072F0000168A0F1180969B1D9F8000008F1010886
:107300004C68B44200D92646BC4200D227460968E0
:107310008142F3D1FEF7BBFA6E60AF60C5F80C8016
:10732000FDF754FED9F804002860D9F80C00686114
:10733000D9F81000A861D9F808002861BDE8F04725
:10734000FDF750BE207A0020848F002010B5002069
:1073500000F0E9F808B1012010BD002010BD10B503
:1073600000F0DEF8002800D0012010BD8288C2F3B2
:107370000A02C0784FF4806300F00300012805D0B2
:1073800002280BD0032814D000207047022901D016
:1073900040F2FF339A4213D900207047022903D0EC
:1073A000402A0DD900207047B2F5007F08D0002098
:1073B0007047022900D040239A4201D9002070472B
:1073C0000120704730B58C180BE04A78052A06D1A9
:1073D0008A7822F0800500EB4505D209AB540A7883
:1073E0001144A142F1D330BD30B5054628460023F3
:1073F00015E02C7823449BB2047820440DE04478B7
:107400000B2C02D0042C02D003E0184630BDC47807
:107410002CB1047823449BB220449342EFD3491EFD
:10742000C9B2E6D2184630BD10B54A1C0AD04FF496
:107430007A725143B1FBF2F1FFF759FB002800D0FB
:10744000012010BD4FF0FF31F6E708B5002A11D03A
:1074500000236A46FFF7FDFB009939B1F84A4FF067
:1074600080511160BFF34F8FBFF36F8F002800D0A2
:10747000012008BD00235A1EFFF77CFA0028F8D02F
:10748000012008BDEF4900290BD0EF4A117888424E
:1074900005D2516800EB400001EBC0007047401A74
:1074A000C0B208B100207047E8487047E8488078CB
:1074B0007047E7480078C0F300007047E448407820
:1074C000002800D001207047E1480078C0F3800018
:1074D000704710B5DE480178490704D50078C10629
:1074E00001D5000701D4002010BD002001F075F87F
:1074F000012010BD10B5D748002804D0002001F0AD
:1075000083F8012010BD002010BD10B5D24800281E
:1075100004D0002001F06EF8012010BD002010BD45
:10752000C9484078704770B50646C74D687800284E
:107530001AD12B21C64802F063FB0120FFF79FFA06
:10754000E86080B105F11000002241880088FFF753
:1075500081F9A86048B1BB4818B12846AFF3008054
:10756000686000240AE0002070BD002070BD204645
:10757000FFF788FF00688047641CE4B22878401C4D
:107580008442F4D3304600F018FE304600F07CFE12
:107590000120687070BD70B506460024AA4D07E052
:1075A0002046FFF76FFF416830468847641CE4B20D
:1075B0002878401C8442F3D32B21A54802F020FBFD
:1075C000A348FF221021C01C02F0F0FABDE8704071
:1075D0009F48FF220C21133002F0E8BA10B5FFF7E4
:1075E000DAFFBDE8104000F048BD10B5FFF7B7FE68
:1075F00040B195488068FFF7D1FC28B1002080F0A9
:10760000010010BD002010BD0120F8E770B505464F
:107610000C461646E06800F034FD32462846E36822
:10762000BDE870400021184710B521F08002CB0959
:10763000874C04EB4202D418E27F920709D401F090
:107640003FF9E07F40F00200E077E07F40F001008A
:10765000E07710BD10B521F08002CB097C4C04EB23
:107660004202D418E27F920709D501F06DF9E07F5C
:1076700020F00200E077E07F20F00100E07710BD0D
:1076800021F08000C909724A02EB40000844C07F23
:10769000C0F34000704770B505460C466088020A8A
:1076A000C0B2062A4FD006DC012A0AD0022A24D012
:1076B000032A04D139E0072A1FD00F2A0BD000205B
:1076C00070BD01F0B5FC024621462846BDE8704079
:1076D000122300F0B1BC614858B1AFF300800246FC
:1076E0004AB11046438821462846BDE8704000F064
:1076F000A3BC002070BD002070BD022A0DD05849E7
:1077000079B1AFF3008002466AB110464388214642
:107710002846BDE8704000F08FBC01F08EFC0246A8
:10772000F2E7002070BD002070BDA18801F088FC48
:10773000024632B1137821462846BDE8704000F079
:107740007BBC002070BD474850B1AFF300800246BB
:1077500042B1137821462846BDE8704000F06CBC69
:10776000002070BD002070BD2DE9F35F491EC8B236
:1077700001F063FC10B14178022902D00020BDE87D
:10778000FC9FC179DFF8C8B04A099BF8001062F38A
:1077900004118BF80010C279920962F345118BF83D
:1077A000001000F10904418801EB0008DFF898A0FF
:1077B0005AE0012760780B2802D1E778207804444A
:1077C0006078042801D00020D9E7A8EB04001FFA54
:1077D00080F9002527E02846FFF754FE83684A46D3
:1077E0002146009898470646092E1AD34E4518D8C8
:1077F00000200BE0A1780144C9B25944CA78FF2A9D
:1078000001D00020BBE7CD70401CC0B2B842F1D31C
:107810000F482B46324621461330FFF7D3FD344440
:1078200006E06D1CEDB29AF80000401C8542D2D3F0
:107830009AF80000401C854216D300209FE7000004
:1078400004ED00E000000000287A0020A84E21008E
:10785000840F012009862000F5852000000000002B
:1078600000000000000000004445A2D3F84808B121
:1078700001F0E7FC012082E72DE9F84380460C4641
:10788000002000F0FEFB2178C1F34112032A02D34D
:107890000020BDE8F883022A09D0EE4D11F01F0048
:1078A00011D0012870D002286FD00020F1E7EA48FB
:1078B00038B100F0E6FB224600214046AFF30080DD
:1078C000E7E70020E5E7012A04D011F0600F14D0AB
:1078D0000020DEE72079C0B2102801D30020D8E7CD
:1078E0002844C078FFF7CEFD014621B1224640462C
:1078F000BDE8F8438AE60020CBE760780A286BD21F
:10790000DFE800F05B4D6A3D6A05366A111A2046D1
:1079100000F0BAFBA178404600F052FE287840F013
:1079200002002870DFE06878009001236A46214653
:10793000404600F081FBD6E0A6786878B0420FD0D0
:10794000687838B1404600F00BFFAF784046FFF74B
:1079500022FEAF7026B131464046FFF705FF28B141
:107960006E702146404600F039FBBCE0002090E7F5
:1079700021464046FFF78FFE00280FD189E7608837
:10798000012803D0002084E728E05CE0287840F05C
:10799000080028702146404600F020FBA3E06088E4
:1079A000012801D0002074E7287820F00800287012
:1079B0002146404600F012FB95E028780222C0F3F1
:1079C000401102EA90000143009102236A462146D9
:1079D000404600F031FB86E000205AE72079C0B233
:1079E000102801D3002054E72844C078FFF74AFD4F
:1079F000014629B122464046FFF708FE10B172E069
:107A0000002046E7207810F0600F01D0002040E70A
:107A100060780A2803D00B2801D0002039E7002025
:107A200000F02FFB60780A2804D02146404600F081
:107A3000D5FA58E00020009001236A4621464046CE
:107A400000F0FAFA4FE02079C7B227F08000F90978
:107A5000062801D300201CE705EB40000844C07C49
:107A6000FFF710FD0646207810F0600F08D02EB109
:107A7000224631464046BDE8F843C7E5002008E706
:107A8000607828B101280FD003280DD0002000E72E
:107A900039464046FFF7F4FD009002236A4621462E
:107AA000404600F0C9FA1EE0618829B9012811D0CA
:107AB00039464046FFF7B8FDAEB122463146404652
:107AC000FFF7A4FD002000F0DCFA95F82000C007C5
:107AD00005D008E039464046FFF7BCFDECE72146FB
