:020000040020DA
:1020000000000820592020006120200001601000FD
:10201000F7212000ED212000FD212000000000001C
:10202000000000000000000000000000156010002B
:102030006B202000000000006D2020007120200097
:10204000DFF810D000F064FC00F062F800480047B0
:102050006DC8200000000820064880470648004759
:10206000FEE7FEE7FEE7FEE7FEE7FEE7FEE7FEE748
:10207000FEE70000BD2A200091C820000649074A5B
:102080000868504343F23902104408604008704722
:102090000149086070470000448300206D4EC6412E
:1020A00040EA01039B0703D009E008C9121F08C0DA
:1020B000042AFAD203E011F8013B00F8013B521E5A
:1020C000F9D27047D2B201E000F8012B491EFBD2D1
:1020D00070470022F6E710B513460A460446194633
:1020E000FFF7F0FF204610BD421C10F8011B00292D
:1020F000FBD1801A704730B504460020034600E04B
:102100005B1C934203D2E05CCD5C401BF8D030BD39
:1021100070B5054C054D03E0206820448047241D20
:10212000AC42F9D170BD000060142100641421009C
:1021300030B4044696230800214604D0B62330BCB0
:10214000002200F0CEBA20460021F8E70EB540F29A
:10215000334102910021CDE900110A460B4600F0FF
:10216000FDFA03B000BD0EB540F2334202920022E8
:10217000CDE90022134600F0F1FA03B000BD20F0D3
:102180000040C20DC0F3160040F400007F2A02DABE
:102190000020014670470021962A03DCC2F1960216
:1021A000D0407047963A00F062BA70B5C1F30A5257
:1021B00001F000450024C1F3130140F2FF3341F464
:1021C00080119A4201DA002070BD40F233439A42F6
:1021D000A2F2334203DC524200F058FA00E0904091
:1021E0002C43F1D0404270BD03F058BCFEE710B55F
:1021F00004F08EFA10BDFEE728F6D0BCFEE770476B
:1022000058585247010000002655000000202000C9
:10221000002020007FED9247010100000000000037
:1022200000000000000000000000000000000000AE
:10223000000000000000000000000000000000009E
:102240002DE9FE4F804681EA0300C00F0C46009046
:1022500021F0004123F00045B8EB0200A94105D26E
:102260004046214690461C460B46024623F000405D
:10227000104347D0270DC7F30A00C3F30A51029059
:10228000401A019040286BDAC3F3130040F4801B1E
:102290000098924620B10023D2EB030A63EB0B0BAC
:1022A00001985946C0F14002504600F0E0F9064658
:1022B0000D4650465946019A00F0F8F910EB080017
:1022C0006141002487EA115284EAE7731A4340D03F
:1022D000009A62B3019A012A4FEA075215DC001BEB
:1022E00061EB02014FF0004202EA0752CDE90042E1
:1022F000001C41F5801132462B4600F02FFA03B046
:10230000BDE8F08F40462146F9E7001B61EB020172
:10231000001C41F5801300185B412018A2F500173E
:1023200047EB030140EAD570B6196D4111E06D0825
:102330004FEA360645EAC0754FEA0752001B61EBCB
:102340000201001C41F5801149084FEA30000019D4
:10235000514132462B4603B0BDE8F04F00F0EFB9D3
:102360000098012240000023D0EB020263EBE073EF
:10237000009821464FEAE074B8EB000061EB0401DD
:10238000E9E783F000435BE781F0004158E72DE97E
:10239000FE4F81EA030404F0004421F00041009460
:1023A0004FF0000B23F0004350EA01045ED052EAE4
:1023B00003045BD0C3F30A54C1F30A552C44A4F2BE
:1023C000F3340194A0FB0254C1F3130141F48011D2
:1023D000C3F3130343F4801301FB024400FB034ED9
:1023E000840A970A44EA815447EA8357A4FB0768A2
:1023F00002958D0A05FB07854FEA932C04FB0C54CC
:102400002705029D4FEA065847EA1637B5EB08053F
:102410006EEB070C870E920E47EA811742EA831291
:10242000A7FB0201B6EB0B0164EB00042B0D43EAA2
:102430000C335E1844EB1C50DA465146E7FB0201B0
:10244000C5F313044FEA0B3343EA14534FEA043243
:10245000019C43EA0603A4F10C040294009CCDE91C
:1024600000B400F07BF903B0BDE8F08F0020014616
:10247000F9E72DE9F04D81EA030404F0004B21F067
:10248000004514464FF0000A23F0004150EA0502CF
:1024900020D054EA01021DD0C5F30A570246C5F305
:1024A0001303C1F31300C1F30A5640F4801543F43B
:1024B0008013A7EB0608101BD64608F2FD3873EB15
:1024C000050002D308F1010801E092185B41B8F160
:1024D000000F03DA00200146BDE8F08D00204FF424
:1024E0008011064684460EE0171B73EB050705D3E3
:1024F000121B63EB050306434CEA010C49084FEA43
:10250000300092185B4150EA0107EDD152EA030016
:1025100012D082EA040083EA0501084305D0101BAB
:10252000AB4106D20122002306E000224FF0004317
:1025300002E06FF0010253101AEB06004CEB085159
:1025400010EB0A0041EB0B01BDE8F04D00F0F7B8CD
:10255000C1F30A5210B5C1F3130140F2FF3341F445
:1025600080119A4201DA002010BD40F233439A42B2
:10257000A2F2334203DC524200F088F810BD9040D2
:1025800010BD00F0004230F000400AD0C10D01F54E
:102590006071C0F3160042EA0151C20840071143BE
:1025A000704700200146704701F0004330B421F02D
:1025B000004150EA010206D00A0DA2F56072C1F393
:1025C0001301002A02DC30BC00207047440F44EAAB
:1025D000C104C100E01830BC00EBC25000F078B874
:1025E00030B50B46014600202022012409E021FAE3
:1025F00002F59D4205D303FA02F5491B04FA02F5E0
:102600002844151EA2F10102F1DC30BD2DE9F05F76
:102610000546002092469B46884606468146402451
:102620001BE0284641464746224600F02FF8534615
:102630005A46C01A914110D311461846224600F05E
:1026400016F82D1A67EB01084F462246012000219B
:1026500000F00DF817EB00094E41201EA4F1010413
:10266000DFDC484631462A464346BDE8F09F202A33
:1026700004DB203A00FA02F1002070479140C2F1D9
:10268000200320FA03F3194390407047202A04DB0B
:10269000203A21FA02F00021704721FA02F3D040DB
:1026A000C2F120029140084319467047202A06DBF8
:1026B000CB17203A41FA02F043EAE07306E041FA10
:1026C00002F3D040C2F120029140084319467047FE
:1026D0000029A8BF7047401C490008BF20F0010036
:1026E000704710B4B0FA80FC00FA0CF050EA010414
:1026F00004BF10BC704749B1CCF1200421FA04F4A6
:1027000011FA0CF118BF012121430843A3EB0C017E
:10271000CB1D4FEA00614FEA102042BF002010BCE1
:10272000704700EBC35010440029A4BF10BC704791
:10273000401C490008BF20F0010010BC704710B5D4
:10274000141E73F1000408DA401C41F100019218D4
:102750005B411A4301D120F0010010BD2DE9F04D7D
:1027600092469B4611B1B1FA81F202E0B0FA80F2D2
:1027700020329046FFF77BFF04460F4640EA0A00EE
:1027800041EA0B0153465A46084313D0114653EA17
:10279000010019D0C8F140025046FFF777FF054607
:1027A0000E46504659464246FFF761FF084305D0A2
:1027B000012004E020463946BDE8F08D00200543A5
:1027C00046EAE0762C4337430A986305E40AA0EB17
:1027D00008000022FD0A44EA47540A3002D50020CE
:1027E0000146E9E7010510196941DDE908450019CD
:1027F0006941BDE8F04DA2E72DE9F041054621F021
:1028000000400C46284309D0C4F30A5040F233413B
:10281000884205DD28462146BDE8F0812846FBE7D1
:1028200040F2FE31884210DC0CDB4FEA043040EA13
:10283000155050EA053105D0104804F0004101431D
:102840000020E9E700200146E6E7A0F233404642D7
:10285000C6F1400228462146FFF709FF0746884691
:10286000284621463246FFF711FF43463A46FFF716
:1028700066FF3246BDE8F041FFF7F9BE0000F03FC9
:10288000C1F30A52C1F3130140F2FF3341F4801146
:102890009A4202DA00200146704740F233439A42DE
:1028A000A2F2334202DC5242FFF7F0BEFFF7DFBE76
:1028B00030B5041E71F1000404DB4FF000444042C7
:1028C00064EB0101141E73F1000405DB1C464FF09C
:1028D0000043524263EB04038B4208BF824230BD87
:1028E00030B5041E71F1000404DB4FF00044404297
:1028F00064EB0101141E73F1000405DB1C464FF06C
:102900000043524263EB0403994208BF904230BD3A
:10291000064C074D06E0E06840F0010394E807002C
:1029200098471034AC42F6D3FFF78EFB20142100F9
:102930006014210070B58C1810F8015B15F00703C6
:1029400001D110F8013B2A1106D110F8012B03E048
:1029500010F8016B01F8016B5B1EF9D12B0705D450
:102960000023521E0DD401F8013BFAE710F8013B99
:10297000CB1A921C03E013F8015B01F8015B521EB5
:10298000F9D5A142D8D3002070BD00000948C16923
:1029900021F00301C161016841F008010160016893
:1029A00021F0080101600448416E21F08001416678
:1029B0007EF6BABE005001B0002001B070B5032011
:1029C0001749096841F38001491C164D00290CD1B3
:1029D00013490C310968C1F3000131B110498C3938
:1029E000096801F00701884303D02869401C286169
:1029F00070BD0D4C206820F001002060206840F080
:102A00000400206009494FF40030086003F026FFFD
:102A1000E868401CE860206840F00100206070BD5C
:102A2000D4A400404480002088E2004084E200E01A
:102A300005280CD2064A116801F4E021B1EB004FE1
:102A400005D0116821F4E02141EA00401060704790
:102A500000A000400249096801F0070101707047B9
:102A600000A0004070B50446072C20D2104E3068FC
:102A700000F00700A04214D0032008F063FBF068C8
:102A800020F0070545F00100F06000BF00BF00BF67
:102A900000BF204608F056FB064850F824002843A3
:102AA000F060044804491C3850F82400086070BDE8
:102AB00000A00040D00C2100600300200248016803
:102AC00041F470010160704788ED00E00248006841
:102AD000001D07F045B80000748A002002484068D5
:102AE000001D07F03DB80000748A0020024880688D
:102AF000001D07F035B80000748A00200248C06845
:102B0000001D07F02DB80000748A002002480069FB
:102B1000001D07F025B80000748A002002484069B3
:102B2000001D07F01DB80000748A00200FB4054B8B
:102B300010B503A9044A029800F094FC10BC5DF89B
:102B400014FB0000C9762000787D00200FB41CB56E
:102B50000246002007AC00290BD0491ECDE9002118
:102B6000054B6A462146069800F07CFC009A00213D
:102B700011701CBC5DF814FB933B20000FB4084B94
:102B800010B504A902AA039800F06CFC044602A93F
:102B9000002001F009F8204610BC5DF814FB00008D
:102BA000A93B20007CB5044600201D46164600299E
:102BB0000BD0491ECDE90041044B6A4629463046F8
:102BC00000F050FC009A002111707CBD933B200066
:102BD000002809DB00F01F0201219140400980001C
:102BE00000F1E020C0F88012704700280DDB00F0F3
:102BF0001F02012191404009800000F1E020C0F84F
:102C00008011BFF34F8FBFF36F8F7047002809DB30
:102C100000F01F02012191404009800000F1E020F6
:102C2000C0F800117047002809DB00F01F020121E5
:102C300091404009800000F1E020C0F80011704789
:102C4000002804DB00F1E02090F80004704700F059
:102C50000F0000F1E02090F8140D7047002804DB0D
:102C600000F1E02090F80004704700F00F0000F140
:102C7000E02090F8140D7047002804DB00F1E020FC
:102C800090F80004704700F00F0000F1E02090F889
:102C9000140D7047002804DB00F1E02090F80004D8
:102CA000704700F00F0000F1E02090F8140D70471D
:102CB00002480068C0F30220704700000CED00E0FD
:102CC00002480068C0F30220704700000CED00E0ED
:102CD000EFF31080704700002DE9F0412DED020B5D
:102CE0009FED3D0B2DED028B9FED3D8BDDE90254F9
:102CF000C4F30A50A0F2FF36142E37DA002E18DA89
:102D000053EC102B9DED020B51EC100BFFF798FAD2
:102D100053EC182BFFF7E4FD57D2002CBCBF4FF04B
:102D20000044002551DB54EA050018BF2E4C1BD18E
:102D30004BE02E4820FA06F704EA070028431FD08C
:102D400053EC102B9DED020B51EC100BFFF778FAB2
:102D500053EC182BFFF7C4FD37D2002C03DD4FF4E2
:102D60008010F0400444BC4300252EE0332E07DCE5
:102D7000A6F114004FF0FF3121FA00F73D4206D1D1
:102D80009DED020BBDEC028B02B0BDE8F08153EC6F
:102D9000102B9DED020B51EC100BFFF7F5FA53ECE5
:102DA000182BFFF79DFD10D2002C0DDD142E08BF4F
:102DB000641C09D0C6F13400012101FA00F0284456
:102DC000A84238BF641C0546BD43CDE902549DEDC1
:102DD000020BD7E7000000009C7500883CE4377EBA
:102DE00000000000000000000000F03FFFFF0F00A7
:102DF00010B52DED020B2DED088B84B09DED0C0B65
:102E000051EC100BFFF7F8FC41EC180B9DED0C0B8F
:102E100053EC182B51EC100BFFF7B3FA41EC190BE4
:102E20000D989FED290B10F0004F53EC102B51EC37
:102E3000190B9FED21AB9FED22BB0ED0FFF738FDA4
:102E40000ED953EC1B2B51EC190BFFF749FD1CD28B
:102E500014E000BF41EC180B17E0FFF729FD06D284
:102E600053EC1A2B51EC180BFFF78BFAF2E753ECEB
:102E70001B2B51EC190BFFF733FD06D853EC1A2B23
:102E800051EC180BFFF7DCF9E4E78DED028B9DEDBB
:102E90000C0B18EE901A10EE900A8DED000B61F3FA
:102EA0001E0003909DED020B04B0BDEC088B02B038
:102EB00010BD000000000000000000000000F03F16
:102EC000000000000000E03F000000000000E0BF44
:102ED00002E008C8121F08C1002AFAD1704700207A
:102EE00001E001C1121F002AFBD1704780F3108856
:102EF000704700002DE9F74F07460298DFF888A1D8
:102F0000DFF888814FEA500B5C46019D6048CAF8A3
:102F100000003F20D8F8041060F30501C8F8041041
:102F2000D8F8040020F48030C8F80400DAF8000073
:102F300020F4700040EA0750CAF80000DAF80000F8
:102F400020F4702040EA0740CAF800000D2F05D198
:102F5000DAF8000040F40040CAF800000E2F05D156
:102F6000DAF8000040F48040CAF80000DAF8000007
:102F700040F40050CAF80000DAF8000020F0605079
:102F8000CAF80000DAF8000020F00F0040F003005B
:102F9000CAF80000002000F0CFF8012871D1DAF85B
:102FA000000040F08040CAF80000002008E0D8F897
:102FB000081041F48031C8F80810401C411C05D0AD
:102FC000D8F80810C1F300210029F0D1072000F043
:102FD000B3F8012855D141E000264FF47A7924E076
:102FE0004E451ED9DAF8000020F08040CAF80000F3
:102FF000DAF8000040F00040CAF80000DAF80000FB
:1030000020F00040CAF80000002000F095F80128E8
:1030100037D12049086A401C086205200CF6F6FAF0
:1030200072E701200CF6F2FA761CD8F80800C0F31B
:1030300000200028D4D0D8F8080000F07F02A24277
:1030400000D92246002006E0D8F800102980090C9B
:1030500069802D1D401C9042F6D3A41A002CBBD1D0
:103060000298C00708D0D8F80800C0F30020002854
:10307000F9D0D8F800002880BDE8FE4F002000F00D
:103080005BB8BDE8FE8F000000A8004000E00040F3
:103090000A070807448000202DE9F041044615483E
:1030A0000021C0F8941001214161134D686A134E4C
:1030B000F06200F0010149420140C80512D440F21B
:1030C000011704E044B1641E01200CF69FFAA869C0
:1030D000B84204D1012003E00020BDE8F0810020C7
:1030E0000028EFD00648006870626868B06201206E
:1030F000F3E7000000D01D4200E0004044800020C3
:1031000000A8004009480A49826A4A60094B426A9D
:103110001A60808D00F0010252420240D00503D4B3
:10312000086A20F001000862704700004480002017
:1031300000E0004000A800402DE9F0410546114F95
:10314000F868C0F30240A84202D10120BDE8F08136
:10315000F86820F007002843F86000244FF6FF7657
:10316000F868C0F30240A84205D001200CF64EFAE0
:10317000641CB442F4D3B44201D10020E6E701203C
:10318000E4E7000000E000402DE9FF5F82B000218D
:10319000DDE90430020DDDF840B0034318D044F6F9
:1031A0001050A2F2FF3242431514119801281FD08B
:1031B000A5EB0B00401C5FEA000A4FF000064E4FE3
:1031C000DFF83891B046504615D5CAF1000413E037
:1031D000119801244AA3012801D16FEA0B0102983A
:1031E000119AC0E90031C0E9024206B0BDE8F09F83
:1031F000CBF10000DFE704460021404A491842EBCA
:103200000450CDE9001012E0E00707D032463B46FB
:1032100040464946FFF7BBF88046894632463B4662
:1032200010461946FFF7B3F806460F466410002C07
:10323000EAD1DDE90401DDE90023BAF1000F06DA85
:10324000FFF7A5F842464B46FFF7A1F805E0FFF768
:1032500010F942464B46FFF70CF904460E46002291
:10326000284BFFF73DFB03D84FF0FF30014607E046
:103270000022254B20463146FEF7E2FFFFF700FB18
:10328000102409E0002C0ADB0A220023FFF7BEF914
:10329000039B30321A55641E50EA0102F2D1641CBD
:1032A000039AC4F111031444119A012A03D0012294
:1032B00008430DD10AE0084304D000204FF0110B61
:1032C000119072E7A3EB0B056D1E0DE05B4504DD6D
:1032D0004FF0000205F1010504E003DA4FF00002AF
:1032E000A5F10105002AECD002981199C0E902313C
:1032F000C0E9004579E70000000014400000F03FFD
:10330000300000000000F0430000E03FF0B506464A
:103310002DED068B89B00D469FED459B202101A820
:10332000FEF7D7FEB0EE498AF0EE698A4248C08BBC
:10333000FEF70CFF9FED411B53EC112BFFF799F8A3
:1033400041EC1A0B102201A93046FFF7D3FD0024EF
:1033500001AF04F1080037F81000FEF7F7FE53EC58
:10336000182BFEF76DFF41EC180B641CE4B2082C1F
:10337000EFD351EC180B9FED330B53EC102BFFF7F1
:1033800006F841EC180B0D2E02D00E2E29D046E087
:103390009FED2E0B51EC100B81F0004141EC190B0D
:1033A0006888FEF7D3FE53EC192BFEF7F0FF41ECD3
:1033B000190B2888FEF7CAFE53EC182BFEF7E4FF22
:1033C00053EC192BFFF755F89FED221B53EC112BF3
:1033D000FFF74FF853EC1A2BFEF732FF41EC190BB5
:1033E0001DE09FED1E0B51EC100B81F0004141ECF4
:1033F000190B6888FEF7AAFE41EC1A0BA888FEF7A5
:10340000A5FE53EC182BFEF7BFFF53EC1A2BFFF76A
:1034100030F853EC192BFEF7BAFF41EC190B09B049
:10342000B0EE490AF0EE690ABDEC068BF0BD000073
:103430000000000000000000B04500200000000077
:1034400000005940000000000000C03F00000000E4
:103450000000004079E9263108AC5CBFB76DDBB6EF
:103460006DDB0E402DE9FF4F95B09B468946064621
:1034700000250FE2252877D100242746F84A0121AC
:10348000059400E0044316F8013F203B01FA03F0E5
:103490001042F7D130782A2811D06FF02F033078FE
:1034A000A0F13002092A16D8059A44F0020402EB72
:1034B000820203EB42021044761C0590EFE759F8B4
:1034C000042B0592002A03DA504244F4005405907C
:1034D00044F00204761C30782E2816D116F8010F1D
:1034E00044F004042A280DD06FF02F023078A0F1A8
:1034F0003003092B09D807EB870302EB4303C718F6
:10350000761CF3E759F8047B761C30786C280FD0D2
:1035100006DC4C2817D068280DD06A2814D104E0A6
:10352000742810D07A280FD10DE044F400140AE07A
:1035300044F4801401E044F440147278824202D1D1
:1035400004F58014761C761C307866280BD013DCCA
:10355000582877D009DC002875D04528F6D04628B1
:10356000F4D047281AD19DE118E0632835D06428AB
:1035700079D0652812D195E1702873D008DC6728CE
:10358000F1D069286FD06E280DD06F2806D1B5E034
:1035900073282CD0752875D0782874D05A4617997E
:1035A00090476D1C75E1C4F30250022809D003282E
:1035B0000DD0D9F8001004280DD00D6009F10409D0
:1035C00067E1D9F80010EA17C1E90052F6E7D9F827
:1035D00000100D80F2E70D70F0E719F8041B8DF86C
:1035E000001000208DF80100EA46012003E059F8A0
:1035F00004AB4FF0FF3061074FF0000102D40DE043
:1036000008F101018846B9420FDA8045F8DB1AF863
:1036100008100029F4D108E008F101018846814230
:10362000FADB1AF808100029F6D105985B46A0EBE2
:10363000080721463846179A00F094FA284400EB10
:10364000080507E04DE029E10DE01AF8010B5A46A4
:1036500017999047B8F10108F7D25B4621463846E2
:10366000179A13E142E00A220092C4F302524FF08B
:10367000000A022A08D059F804CB032A4FEAEC7159
:103680000AD00DE029E02AE009F1070121F0070244
:10369000F2E802C1914609E00FFA8CFC4FEAEC71A6
:1036A000042A03D14FFA8CFC4FEAEC71002907DAA7
:1036B0000A460021DCF1000C61EB02012D2202E040
:1036C000220504D52B228DF80420012203E0E20715
:1036D00001D02022F7E7904659E00A2102E01022AB
:1036E0000DE010214FF0000A00910BE010224FF086
:1036F000000A44F004040827009203E008224FF077
:10370000000A0092C4F30252022A05D059F804CBF1
:103710000021032A08D009E009F1070121F007027E
:10372000F2E802C1914605E01FFA8CFC042A01D19F
:103730000CF0FF0C4FF00008220728D5702806D0A7
:10374000009B83F0100353EA0A0305D00EE04022E9
:103750008DF80420012208E05CEA010206D0302244
:103760008DF804208DF8050002229046009B83F01E
:10377000080353EA0A030AD15CEA010201D1620795
:1037800005D530228DF804204FF001087F1E5828FF
:1037900004D034A003900EA802900DE036A0F9E703
:1037A00053466046009AFEF731FF84460398825CD8
:1037B0000298401E029002705CEA0100F0D102986B
:1037C00006A9081A00F1200A600702D524F4803403
:1037D00000E00127574502DDA7EB0A0000E00020CA
:1037E00000EB0A01009005984144401A0590E0035F
:1037F00006D45B462146179A059800F0B3F90544B4
:10380000002706E001A85A46C05D179990476D1C35
:103810007F1C4745F6DBE0030CD55B462146179A33
:10382000059800F09FF9054404E030205A461799A6
:1038300090476D1C0099481E00900029F5DC08E0B7
:10384000029802995A460078491C029117999047AC
:103850006D1CBAF10001AAF1010AF1DC65E100007A
:103860000928010030313233343536373839616256
:10387000636465660000000030313233343536371A
:1038800038394142434445460000000000F058F9F1
:103890000544761C307800287FF4ECAD19B028463A
:1038A000BDE8F08F620700D4062709F1070222F075
:1038B000070CFCE80223E14603F000485FEA080C2D
:1038C00002D00FF2702C0DE05FEA045C02D50FF21B
:1038D000682C07E05FEAC47C02D00FF2602C01E0A4
:1038E000AFF2700C4FF0FF3823F00043CDF850C01A
:1038F00065280CD006DC452809D046281DD047286D
:103900003DD13DE0662818D067287ED138E00021FF
:10391000112F01DB112000E0781CCDE9000106A980
:103920000EA8FFF731FCDDE90F010E9A039100218B
:10393000009207F1010A04914DE04FF0004000971A
:10394000CDE9011006A90EA8FFF71EFCDDE90F0264
:1039500003920E9B11990022DDF80CA000930492B3
:1039600011B9791C00EB010AB7EB0A0004D4C0F1CD
:10397000FF3007F1010A0490AAEB0700019044E030
:10398000012F00DA01270021112F01DD112000E0B5
:103990003846CDE9000106A90EA8FFF7F5FBDDE9E1
:1039A0000F010E9A0391002104910092BA4621075B
:1039B0000CD40399514500DA8A46BAF1010F05DDAE
:1039C000009AAAF10101515C302908D0B84202DA0C
:1039D00010F1040F06DA0121CDE9011015E0AAF17A
:1039E0000101E9E7002805DC049901440491AAEBF0
:1039F000000102E0411C514500DD8A460499401A4D
:103A0000401C01904FF000400290200704D4019820
:103A1000504501DBCDF8048000208DF84F0002985E
:103A20000DF14F07B0F1004F25D02B200E900298DA
:103A30004FF0020800280CDA404202902D200E9030
:103A400007E00A210298FEF7CBFD3031029007F81B
:103A5000011DB8F10001A8F10108F2DC029800286C
:103A6000EFD1791E0E980870307800F0200040F0F9
:103A7000450007F8020D12A8C01B00F107081498B2
:103A8000007800B1012000EB0A01019801EBE07120
:103A900005984144401A401E0590E00306D45B4659
:103AA0002146179A059800F05DF8054414980078AF
:103AB00018B15A46179990476D1CE00324D55B4610
:103AC0002146179A059800F04DF805441CE004982B
:103AD000002807DBDDE90301884203DD0098405C34
:103AE000179901E0179930205A469047049805F13C
:103AF0000105401C04900198401E019004D12E2025
:103B00005A46179990476D1CBAF10001AAF1010AB3
:103B1000DDDC05E017F8010B5A46179990476D1C3C
:103B2000B8F10001A8F10108F4DC5B462146179AC0
:103B30000598ABE62D0000002B00000020000000DF
:103B40002DE9F041044600251E461746880404D49A
:103B500005E039462020B0476D1C641EF9D5284683
:103B6000BDE8F0812DE9F041044600251E4690464F
:103B7000C80301D5302700E02027880404D505E0DC
:103B800041463846B0476D1C641EF9D52846BDE84D
:103B9000F0814A68002A06D00A68531C0B60107036
:103BA0004868401E486070470A68531C0B601070DC
:103BB000704710B502F076FD10BD09F0D1BC70B5AC
:103BC00004460D46294620460CF0BCF929462046FD
:103BD00008F02EFE2946204608F056FF70BD000072
:103BE00003490A6822F4C06242EA40200860704734
:103BF00004A8004006460F46154672B63846FEF742
:103C000073FA402801D9402002E03846FEF76CFAEA
:103C100080463046FEF768FA402801D9402002E08D
:103C20003046FEF761FA04469C211048FEF751FA2F
:103C3000424639460D48FEF733FA0C4822463146D3
:103C40005C30FEF72DFA09484FF0AA310164456453
:103C50004FF0BB3181644FF0CC3101654FF0DD3165
:103C60008165002000F004F8FEE700007C8F002052
:103C700030B5ADF20C4D04464FF4806103A8FEF759
:103C800028FA184D202085F83F0085F89B003CB1AC
:103C90002846012C436DC26C09D0022C0CD00FE0D9
:103CA000104A11A15C3203A8FEF768FF08E011A1D9
:103CB00003A8FEF763FF03E016A103A8FEF75EFF6B
:103CC00003A90BA2686CCDE90121009018A3054A55
:103CD00018A1002000F042FD00F00CFD0DF20C4D8B
:103CE00030BD00007C8F00205B4552524F525D205A
:103CF000257300005B5741524E494E475D2050618D
:103D000072616D303A25642C506172616D313A25D3
:103D1000640000005B504152414D5D205061726172
:103D20006D303A25642C506172616D313A25640022
:103D3000000000006170705F6173736572742E63C0
:103D400000000000014895F6ABBD00007C7D00201E
:103D500006460F4690461D4672B64046FEF7C4F929
:103D6000402801D9402002E04046FEF7BDF9044654
:103D70009C210D48FEF7ADF9224641460A48FEF760
:103D80008FF909484FF05531016445644FF06631B1
:103D90008164C6644FF0773101654765C943816529
:103DA0000220FFF765FFFEE77C8F00202DE9F04140
:103DB00006460F4690461D464046FEF795F94028B8
:103DC00001D9402002E04046FEF78EF904469C21CE
:103DD0000D48FEF77EF9224641460B48FEF760F992
:103DE00009484FF011310164456449008164C6649B
:103DF0004FF03331016547654FF044318165BDE8CF
:103E0000F0410120FFF734BF7C8F002010B586B051
:103E100002F0FCF80446002C09D01422054901A840
:103E2000FEF73EF9ADF8084001A800F005F806B02D
:103E300010BD0000D80B21003EB504464FF40071C0
:103E40001A48FEF746F9207810B1012819D01DE074
:103E500000211748A28830F831309A4207D100EB90
:103E6000C10014A143681148FEF788FE0EE02E2918
:103E700002D0491CC9B2EEE714A10C48FEF77EFE41
:103E800004E01DA109486268FEF778FE074921A2F7
:103E90002069CDE901210090D4E902231EA1002070
:103EA00000F05CFCBDE83E4000F024BC7C8D0020AE
:103EB000180921004572726F7220636F64652030AB
:103EC00078253034583A2025730000004572726F0F
:103ED0007220636F6465203078253034583A204E64
:103EE0006F20666F756E6420696E666F726D6174A7
:103EF000696F6E2E00000000282573292069732049
:103F00006E6F742065737461626C69736865642E8A
:103F100000000000257300006170705F6572726FB1
:103F2000722E63002DE9F041014600291BD00024C8
:103F30000F4E0E4A357814E002EB04100F78037828
:103F4000BB420CD14B684068034208D0707808B976
:103F500000F0A2FB2046BDE8F04100F053BA641C1B
:103F6000E4B2AC42E8D3BDE8F0810000E48A00206E
:103F70004C7D00207CB505460E46002D01D0002466
:103F800018E0E5207CBD05EB041041680091017A42
:103F90008DF80410417A8DF8051007218DF8061070
:103FA000C26800780023694600F038F80028E9D19B
:103FB000641CE4B2B442E6D300207CBD10B50246D6
:103FC0000846052A25D2DFE802F003030311190091
:103FD000114951F832200104090C05D022B10146E3
:103FE000104605F07DFC10E0E42010BD10F0FF0F3E
:103FF00002D005F01FFB08E0E42010BD10F0FF0F19
:1040000005D00146002005F0ADFC002010BDE420E5
:1040100010BDE62010BD0000500821002DE9F05F22
:1040200005460C469046994626680027042D11D077
:1040300031462846FFF7C2FF2146284600F05EF8C9
:10404000002808D1032D08D04FF0100A2807070ECA
:10405000002448E0E620BDE8F09F4FF0080AF7E7AB
:10406000F0073DD03DB1012D05D0022D03D0032D29
:1040700021D0E620EFE71E4800EBC50090F904B020
:10408000BBF1000F15D0EFF31081012080F31088F1
:10409000184AE01942F8308002EBC000C0F80490E2
:1040A00081F31088584623F675F9584623F690F99F
:1040B00016E0E420CFE7EFF31081012080F31088B1
:1040C0000D4AE01942F8308002EBC000C0F80490BD
:1040D00081F310881B2023F65DF91B2023F678F965
:1040E0007608641CE4B25445BAD30020B3E700005C
:1040F00050082100C8880020D889002070B58EB0F3
:1041000005460C46474991E84D00CDE90A02CDE944
:104110000C36D1E90523086906AEC9690DC60991B7
:1041200014224049203101A8FDF7BAFFD4B13E491D
:1041300006200BF01DF93D4907200BF019F93C4909
:104140001B200BF015F93B4912200BF011F93549F2
:104150003C39A1F12C02052D61D2DFE805F00606FD
:1041600006213900E5200EB070BD207931F810002D
:104170000B90607932F810000C90A0790D902068B7
:104180000A902848543850F8350021880904090C51
:1041900004D018B10AA905F0D7FB39E0E420E2E722
:1041A000207901EB4000808A0790607902EB4000A3
:1041B000C0880890A079099020680690207810F0B7
:1041C000FF0F03D006A805F03FFA21E0E420CAE77C
:1041D0002079031F042B01D8E720C4E7022819D057
:1041E00001200290207901EB4000008D039060795E
:1041F00002EB400080890490A0790590206801902E
:10420000207810F0FF0F08D001A9002005F0B8FBBE
:104210000020A8E702200290E4E7E420A3E7E620DC
:10422000A1E70000A4082100C1611000BB611000DB
:10423000B7611000B161100002460020052A11D2BA
:10424000DFE802F0030303090C00074850F83200CE
:1042500089B21FF6BEBC88B21BF6A4BB89B200208F
:1042600023F64EB87047000050082100002803D004
:10427000024908600120704700207047547D0020EB
:1042800070B505460024091F062917D2DFE801F0A2
:1042900003070C111315284600F0A4F80EE00124C2
:1042A000284600F09FF809E00224284600F09AF81A
:1042B00004E0032402E0042400E00524034A21462C
:1042C00028461268BDE8704010470000547D002069
:1042D0002DE9F0410446204600F0AEF801462E4894
:1042E00000230826025D00F10A0700F11405AAB1B7
:1042F000052A33D0082A2AD1092945D0082926D1F0
:10430000295D491CC9B22955142920D32B550655BE
:104310002046BDE8F0410821FFF7B2BF052913D0C0
:10432000042916D0072914D0082910D1295D491C69
:10433000C9B2295514290AD32B5506552046BDE884
:10434000F0410821FFF79CBF3B5505210155BDE811
:10435000F0812046BDE8F041FFF792BF05290CD05F
:10436000395D491CC9B239553229F0D3035520466D
:10437000BDE8F0410521FFF783BF03552046BDE8A6
:10438000F0410621FFF77CBF03552046BDE8F04110
:104390000921FFF775BF0000C48B002070B50446EB
:1043A0000D4600F00FF808B100F08CF90348044AFC
:1043B0002946005D5268BDE870401047D88A002049
:1043C0004C7D00200020064911F810200AB1002081
:1043D0007047401CC0B20A28F6D301207047000085
:1043E000E28B00200349002201F8102001EB40007D
:1043F00042707047E28B0020014A02F810107047AB
:10440000E28B0020024A012102EB4000417070471C
:10441000E28B002070B50024064D05EB4400407887
:1044200010B12046FFF754FF641CE4B20A2CF4D309
:1044300070BD0000E28B002070B500211D4B03F120
:1044400032051A5C002A09D0002403F10A06012A69
:104450000AD0022A12D0032A24D11FE015F8102016
:1044600002B301221A541DE015F810201AB1345479
:1044700002221A5416E01C54042113E015F81020EF
:104480004AB1325C521CD2B23254642A0AD3072198
:1044900003221A5406E005211C5403E015F81010FD
:1044A00011B10821084670BD1C54FFF79BFF09217C
:1044B000F8E70000B08B00201CB5012815D10129B8
:1044C00014D0022924D003290FD193F64BF920B33D
:1044D000002009F073F918A05B21CDE900101D4BF5
:1044E0001DA226A1022000F039F91CBD254C002098
:1044F000217800F073FE207880F001002070617850
:10450000002006F03DF9607880F0010060701CBD6D
:10451000BDE81C40002000F073BE022009F04EF9F7
:1045200019A05621CDE900100A4B0BA213A10220BD
:1045300000F014F91CBD000053797374656D2047B9
:104540006F546F20416374697665204D6F64650A0E
:10455000000000008E0A21002E2E5C5372635C70F6
:104560006C6174666F726D5C757365725F70657295
:104570006970685F73657475702E63004E4F5F5489
:1045800041470000AC7D002053797374656D20476E
:104590006F546F20536C656570204D6F64650A0021
:1045A0002DE9F0410F4690460A2F04D8B8F1000FCC
:1045B00001D0002323E00020BDE8F08103EB430697
:1045C00010F826402CB1012C03D0022C01D0032C72
:1045D00013D100EB8605124AA97AD154104910F87C
:1045E00026200C3101EB0314227069686160297A7E
:1045F0002172697A61720B49E1605B1CDBB2BB42DC
:10460000DCD3074839460C30FFF7B4FC0648077086
:10461000C0F804800548FFF729FE0120CCE7000020
:10462000D88A0020253F20004C7D00209D4320009B
:104630002DE9F0410024124FDFF8488019E00026F0
:1046400007EB041528786968FFF7F6FD10B9697A59
:10465000012902D0012802D005E0012603E0687A92
:10466000022800D1012631462046FFF7C5FE641C12
:10467000E4B298F800008442E1D3BDE8F081000084
:10468000E48A00204C7D002010B5FFF7D1FFBDE883
:104690001040FFF7BFBE000010B5074A01210748D0
:1046A00000F070F900220A21044800F037FA0449AA
:1046B0000120487010BD000089462000888B002032
:1046C0004C7D002010B5034800F085F90249002018
:1046D000487010BD888B00204C7D0020002806D03B
:1046E000002904D0024AD269002A00D0104770473E
:1046F000588D00200248006A002800D0004770470B
:10470000588D002070B50D4616460D4C00280AD075
:104710000178032911D80121A17601461A222046E9
:10472000FDF7BEFC05E00020A0761A210448FDF745
:10473000D0FCE5612662002070BD012070BD000044
:10474000588D0020044A1044807D084201D0012089
:104750007047002070470000588D00202DE9FE4F63
:10476000DDF830B0064692469946002400270197AE
:1047700002975A480178B14202D2807E00287DD14A
:104780000DF13808CDF80080EFF311850220FEF717
:1047900065FA014652480068C0F30220401C01221D
:1047A00082408818C0B280F3118801213046FFF79B
:1047B000C9FF38B14B484C4950F82620204600F03C
:1047C000A5F804461C213046FFF7BCFF00285ED048
:1047D00046A24549204600F099F8204484B20421BD
:1047E0003046FFF7AFFFF8B152463F49204600F090
:1047F0008DF8204484B208213046FFF7A3FF38B17A
:104800003BA23949204600F081F8204484B20BE0F5
:1048100010213046FFF796FF30B136A232492046CC
:1048200000F074F8204484B208213046FFF78AFF74
:1048300090B14A462C49204600F068F8204484B2E2
:1048400010213046FFF77EFF30B12BA226492046CB
:1048500000F05CF8204484B210213046FFF772FF6C
:1048600070B15B4626A2052101A8FEF76FF901AAE7
:104870001D49204600F04AF8204400E02BE084B2B5
:1048800020A21949204600F041F8204484B216487D
:10489000C4F58071204443460D9AFEF783F90097D2
:1048A0004FF48071002804DB2044884201DC86B28A
:1048B00000E00E46B01C884200D9FE2612A20A492A
:1048C000304600F023F8304481B20748FFF706FF76
:1048D000E8B280F31188BDE8FE8F0000588D0020FB
:1048E0000CED00E0687D0020588C002028000000BE
:1048F000200000003A000000204C696E653A00007C
:10490000256C6400292000000D0A000030B5054622
:10491000002000290CD0002A0AD006E02B18FF2B1B
:1049200006D8CC54521C401C80B21478002CF5D10F
:1049300030BD000010B5064A06214CF2010091F688
:1049400005FF01F0C3FCBDE81040022008F036BFAF
:10495000880A210010B50848017800290AD10121F0
:104960000170064892F606FEBDE81040002104489A
:1049700092F696BF10BD0000487D0020D561100062
:1049800005D720002DE9F04104460D461746002DBD
:1049900004D0012D02D00120BDE8F081CCB1C7B117
:1049A000EFF311860220FEF74BF98046FEF780F9FF
:1049B000401C0121814008EB0100C0B280F3118846
:1049C00000206070A570E761F0B280F311880020CC
:1049D000E2E70120E0E710B50446002C0CD02046A9
:1049E00000F02EF9FF2060700021A160E1602161DC
:1049F00061610020E06110BD012010BDF0B5DDE96E
:104A00000745059981614FF47A76A2FB061C03FBEA
:104A100006C3002702FB0732C0E9021209196A41E6
:104A2000C0E9041200210162F0BD00002DE9F0414F
:104A30000446002C13D0EFF311850220FEF700F995
:104A40000746FEF735F9401C012606FA00F0384407
:104A5000C0B280F311881248002121620EE00020CC
:104A6000BDE8F081D4E90432D1E9047CDB1B72EBB0
:104A70000C0202D2016A216203E00846016A0029A1
:104A8000F0D104626670064810380168491C016064
:104A9000016B4160E8B280F311880120E0E700007B
:104AA000088C00202DE9F04105460024EFF3118623
:104AB0000220FEF7C5F80746FEF7FAF8401C012170
:104AC00081407818C0B280F31188134A106BE8B1A6
:104AD00015B102F1100010E00446206A106310685E
:104AE000401E10600CE0A94206D11168491E1160F9
:104AF000296A01622C4603E00846016A0029F2D1C6
:104B000024B1002020626070106B5060F0B280F31E
:104B100011882046BDE8F081F88B00202DE9FF5F69
:104B200082460E4693464FF00008BAF1000F20D09F
:104B3000414886421DD8E6B1EFF311870220FEF707
:104B40007FF80446FEF7B4F8401C0121814060184C
:104B5000C0B280F31188504606F0ECF810B19AF814
:104B6000010040B1F8B280F311880F2004B0BDE815
:104B7000F09F0120FAE707F077FD04460D464FF459
:104B80007A7106FB01F022462B46002105F096FFC4
:104B9000DFF8A890B0B1D9F8040048B1D0E904100A
:104BA000091B60EB0500C9E9021007F0D7FD04E01E
:104BB0000021C9F80810C9F80C104FF00108D9E914
:104BC000020106E0D9F80400D0E90421101B61EBD2
:104BD0000501CDE9020132460023CDF800B0504670
:104BE000FFF70CFF5046FFF721FF0AF02DFB4FF0B7
:104BF000E021D1F800014FF0806210F0806F01D009
:104C0000012000E0002018B9C1F88022C1F800217D
:104C1000B8F1000F0AD0D9F80400D0E90431D9E97D
:104C20000202181A61EB020107F054FDF8B280F39A
:104C3000118800209AE70000008AB907F88B00204D
:104C40002DE9F04104460025002C39D0EFF31187FF
:104C50000220FDF7F5FF0646FEF72AF8401C012169
:104C600081407018C0B280F311886078012824D187
:104C7000144E7068A0420BD107F0F6FCD4E9043260
:104C8000181A62EB0102C6E9020207F067FD01256E
:104C90002046FFF707FF5DB1706848B1D0E90421F5
:104CA000D6E90203101A61EB030107F013FD04E0DB
:104CB0001DB9706808B907F051FDF8B280F311888A
:104CC000BDE8F081F88B002070B504461A4D55F808
:104CD0002400703009F0CBFD82B21646A2B155F81F
:104CE000240090F8011101290ED0012180F804114F
:104CF000802A0FD355F82400802200F18001703003
:104D000009F0CAFD80260CE055F82410002081F837
:104D1000000170BD55F8240000F18001703009F0E9
:104D2000BBFD55F82400324600F18001001D2CF631
:104D30006BFA0028EDD170BD748A00207047000026
:104D40002DE9F84304464B4E56F82400071D062C67
:104D50007ED290F86C1000297AD0012978D180F8A1
:104D60000111002556F82400D0E903120A44017D00
:104D700001F00101C91D02EB01084168CA6FC2F3CD
:104D80008002002AFAD090F80411E1B1DFF8E8902F
:104D90006D1C56F82400001D2BF692FE10280BD037
:104DA00056F82400D9F800108068B1FBF0F000FB41
:104DB00008F0B5EBC01FEBD956F82400703009F0AD
:104DC00056FD85B226E0B0F82480C58C001D2BF678
:104DD00095FC56F8240041F2883300EB0801491B8A
:104DE0008031001D2A462CF6BCF9E5E756F8240070
:104DF00001227030694609F04FFD56F824004068E2
:104E0000C16FC1F340010029FAD09DF80010016084
:104E10006D1EADB2002DE9D156F82400703009F0B6
:104E200026FD0028C8D1386841694906FCD5EFF352
:104E30001085012080F3108856F82400703009F0A6
:104E400016FD68B1EFF31081012080F3108800E0B7
:104E50000DE03868426842F08202426081F31088B7
:104E600056F82410002081F8010185F31088BDE870
:104E7000F8830000748A0020600300202DE9F041CF
:104E800005460F462C78002D05D022B1062C04D300
:104E9000E820BDE8F081E520FBE7384E05F1580039
:104EA00046F82400D2E900310A467030194609F06C
:104EB000C9FC291D286D0BF091F80028E9D156F89E
:104EC0002410281D486656F82400076056F8240070
:104ED0001822083005F14001FDF7E2F8284856F89D
:104EE000241000EBC4056868486056F82400001DD3
:104EF00004F00EFE56F82400001D04F025FE2048A4
:104F000001220321103808F091FC56F824100120EA
:104F100081F86C0056F82410002081F8000156F842
:104F2000241081F8010156F8241081F8020156F886
:104F3000241081F8030113490C200AF019FA1249D0
:104F40000D200AF015FA114934200AF011FA10491F
:104F500035200AF00DFA0F4936200AF009FA0E49F9
:104F600037200AF005FA95F9010022F613FA95F9AF
:104F7000010022F62DFA00208BE70000748A002041
:104F8000E8082100CD2A2000DD2A2000ED2A20009B
:104F9000FD2A20000D2B20001D2B20002DE9F041C3
:104FA00004461A4D55F82400703009F060FC82B2B6
:104FB000164600277AB155F8240090F8011101290E
:104FC00009D0802A0ED300F180017030802209F0D0
:104FD00063FC80260BE055F8240080F80071002067
:104FE000BDE8F08100F18001703009F055FC55F802
:104FF000240080F8047155F82400324600F1800145
:10500000001D2CF6C5F90028EAD1E9E7748A0020D2
:1050100070B5062801D3E82070BD0C4D55F820402E
:105020007CB194F86C6066B169B162B1002684F815
:10503000026155F82000001D2CF693F80028EBD1F2
:1050400070BDE52070BDE42070BD0000748A0020B2
:105050002DE9F84307460C46904604F10805204622
:105060008FF6A4F80346344E70680021A7F58042FD
:10507000DFF8C8C0B2F5804F03D2DCF80010401A48
:105080000121E218824202DD0520BDE8F883306884
:10509000421EC2F30B02821A02F6FF72C2F30732FB
:1050A00011B1DCF8001000E00021DFF894C0DFF857
:1050B0009490DCF800C0D9F80090ACEB090C96F89D
:1050C0000990A2EB09020CEBC202101A401A001F51
:1050D000E918814229DD00254FF4004911231F22E0
:1050E00049462846009572F6B9FA0021084604F0B0
:1050F0001DF840B113231F2249460020009572F687
:10510000ADFA0F20C1E7707A05F016FC0028BCD17B
:1051100012231F224946009572F6A0FA4246214604
:105120003846BDE8F8430BF04FB8424621463846B2
:10513000BDE8F8430BF048B890470020B835002090
:10514000C4350020BC35002008B58DF800000020D3
:105150008DF80100074A88889288904209D105207D
:105160008DF80100886800788DF80200684600F02C
:105170007FF808BD1890002008B58DF800000020C9
:105180008DF80100002910D15068084900888988ED
:1051900088420AD105208DF80100506880680078A7
:1051A0008DF80200684600F063F808BD18900020F2
:1051B00008B58DF8000000208DF801000648C08871
:1051C000904203D131B104208DF80100684600F00F
:1051D0004FF808BD0320F7E7189000201CB5019197
:1051E0000649C988002906D001AA0092022300229C
:1051F00082F6AEFC1CBD04201CBD000018900020EF
:1052000004498988002902D0002282F6D7BA0420F6
:105210007047000018900020002821D0028800F17B
:105220000801B2F5A06F0AD0A2F5A062053A0CD031
:10523000012A10D0022A13D10079FFF785BF8378A5
:105240000A460079194600F0A7B883780A46007923
:105250001946FFF791BF028981780079FFF7A8BF4F
:1052600070470000014982F6E9BB00008C7D0020F8
:105270000449C968002903D04278002A00D00847B1
:10528000704700001890002010B586B00446617881
:10529000012912D003292DD005290CD1A0781BA1FA
:1052A0004FF48772CDE9002102901D4B1DA223A16E
:1052B0000220FFF753FA06B010BD22A04FF482710E
:1052C000CDE90010164B17A21CA10220FFF746FAE9
:1052D000207801F079FB0446002CECD01422104910
:1052E000143101A8FCF7DCFEADF8084001A8FEF778
:1052F000A3FDE0E71DA04FF48571CDE90010084B38
:1053000008A20EA10220FFF729FAD4E742617474C3
:10531000657279204C6576656C3A202564252500F8
:105320005C0B21002E2E5C5372635C757365725C9E
:10533000757365725F6170702E6300004E4F5F542D
:10534000414700004261747465727920536572763A
:1053500069636520646973636F7665727920636F32
:105360006D706C6574656C792E0000004261747418
:10537000657279204C6576656C204E6F746966693C
:10538000636174696F6E20686164206265656E2078
:105390007365742E000000002DE9F8438DF80000BD
:1053A0004FF0020C8DF801C0572932D071BB9078B4
:1053B000D17840EA0120A0F5C0510F3926D11F4E07
:1053C000578A3780918A71800020A1EB070818E086
:1053D00000EB400101EBC005946903230CEB450190
:1053E00003EB4503615CE35C41EA0323411C394460
:1053F00089B214F81540032C0DD0042C11D014B12F
:10540000401C8045E4D801208DF801006846FFF774
:105410002FFFBDE8F883A3F52854193CF0D1B180E3
:10542000EEE7A3F52454023C05D0A3F52454043C34
:10543000E6D13181E4E7F180E2E700001890002036
:10544000002809D0054900220A604A608A60C860C5
:105450000349044800F0E4BA022070471890002085
:10546000195220008C7D00200948006800280DD0CA
:1054700090F82E10012909D190F83000FF2805D2AC
:105480004FF03041086840F08060086070470000CD
:10549000400C002010B586B0044668466FF642F80E
:1054A0009DE80E0003A80EC00B4A891C21F0704134
:1054B000516010466FF624FA07486FF695FA207F80
:1054C000002806D1054991F80101054A01EB0010B9
:1054D000426006B010BD00008C290020A0290020E9
:1054E0003DC5200010B58CB008A80AF0BBF9BDF886
:1054F000221009989DF82120CDE904109DF8203054
:105500003CA04FF4FD71CDE90232CDE90010434BD0
:1055100043A249A10220FFF721F90AA87DF668FA03
:10552000044654B114223D49103103A8FCF7B8FDDC
:10553000ADF8104003A8FEF77FFC9DF828009DF809
:105540002910CDE906109DF82A209DF82B30CDE9D1
:1055500004329DF82C109DF82D0039A240F2FF1363
:10556000CDE90032CDE902012C4B2DA232A102205F
:10557000FFF7F4F83DA040F20621CDE90010274BDB
:1055800027A22DA10220FFF7E9F84348FFF758FFB3
:10559000044654B114222149243103A8FCF780FDAC
:1055A000ADF8104003A8FEF747FC3C4801F0C0FBF3
:1055B000044654B114221949383103A8FCF770FD90
:1055C000ADF8104003A8FEF737FC354805F09AF90E
:1055D000044654B1142211494C3103A8FCF760FD74
:1055E000ADF8104003A8FEF727FC02F027FE0CB030
:1055F00010BD0000476F6F64697820424C4520530E
:10560000444B205625642E25642E25642028636F84
:105610006D6D69742025782900000000FC0B2100C5
:105620002E2E5C5372635C757365725C7573657264
:105630005F6170702E6300004E4F5F544147000061
:105640004C6F63616C20426F617264202530325868
:105650003A253032583A253032583A253032583AC5
:10566000253032583A253032582E00004865617294
:1056700074205261746520536572766963652043B6
:105680006C69656E74206578616D706C65207374EB
:1056900061727465642E000089522000ED6920005B
:1056A0007DA62000002070470020704710B509F04B
:1056B000C3F908F043FA09F063FE0AF039FD06F079
:1056C0006FFE05F043FB09F06FFB09F075FB04F07A
:1056D00071FCBDE8104009F0A1B900002DE9F041CE
:1056E0003D4C6FF00200C4F898003C4901252806A3
:1056F00008603B4900200860394A1C32106840F0BD
:1057000002001060106840F001001060106820F086
:10571000020010600B1F186840F001001860186844
:1057200020F0020018602E4834380168C1F30041AF
:105730000029FAD12A4940F2AA2638390F6866F3BF
:1057400001070F600E6826F00C0646F008060E6092
:105750000E6826F0C00646F080060E60204940F232
:10576000FF3740390E6867F301060E600E6826F0B9
:105770000C0646F00C060E600E6826F0C00646F0D9
:10578000C0060E6005600168C1F300410029FAD12E
:10579000106820F004001060186820F00400186001
:1057A000106840F004001060186840F004001860B1
:1057B000012009F066FE04F52074206820F0400006
:1057C0002060206820F010002060206820F0200079
:1057D0002060BDE8F081000000A0004084E200E00D
:1057E000C4A4004010B505F0D5FE05F081FE02F01E
:1057F00081FB05F06DFEBDE8104006F0F3BA000035
:105800000F49086820F0040008600D482030026845
:1058100022F0040202600A6842F002020A600A688A
:1058200022F001020A60016841F001010160016893
:1058300041F002010160016821F00101016070473F
:10584000C0A4004070B509F0F3FF40F21A4120B146
:1058500040F24C4009F060FE03E040F22E4009F0B7
:105860005BFE0D4CA07850B1E08809F065FE05465E
:10587000208909F061FE294609F0A0FF05E04FF4F8
:1058800061714FF47A7009F099FFBDE870400248E9
:105890004A3007F0B5BD00004480002010B5044632
:1058A000002C0CD0204600F015F9002807D104493F
:1058B0004968002903D02046BDE81040084710BDC4
:1058C000D47E00203EB50446608800281ED12046C4
:1058D00000F09CFA208840F20132A0F2013190429F
:1058E00030D014DCA0F500700B381BD001280DD18E
:1058F000207A00280AD126A04FF4EA71CDE90010E1
:10590000274B28A22DA10320FEF728FF3EBD012929
:1059100027D00529FAD1207903B00121BDE8304014
:105920007DF62EBF60880028F0D026A140F2CD126F
:10593000CDE9002102901A4B1AA220A10320FEF704
:105940000DFF3EBD60880028FBD126A04FF4EF710B
:10595000CDE90010124B13A218A10320FEF7FEFEA2
:105960003EBD60880028FBD1207A21A140F2E512DB
:10597000CDE9002102900A4B0AA210A10320FEF7F4
:10598000EDFE217A207903B0BDE83040FEF73EBA43
:105990005363616E2054696D656F75742E0000004D
:1059A000EC0B21002E2E5C5372635C757365725C88
:1059B000757365725F6170702E6300004E4F5F54A7
:1059C000414700005363616E2073746172746564B3
:1059D000206661696C656428305825303258292E5C
:1059E00000000000436F6E6E65637465642E0000F6
:1059F000446973636F6E6E656374656420283078E4
:105A000025303258292E0000044A52F8200050F860
:105A10004B2F0A608088888070470000141900208E
:105A200038B504460D4600200090002C05D069468C
:105A30000C487CF613FE10B110E0022038BD142093
:105A400094F64CF9014659B105CCC1E90102CD608B
:105A50009DF800000874044805F01EFB002038BDC6
:105A6000102038BDA80C2100C87F002000B5AFB0C1
:105A7000094901200870FF22B82101A8FCF722FB88
:105A80004FF48070ADF804000020ADF8060001A8C6
:105A9000FFF704FF2FB000BDD47E002000214FF09F
:105AA0003040C1608161C0F8D011C117416101620D
:105AB000C0F8D81103496FF4806008600220FDF738
:105AC00087B8000084A000400149002001F0D8BD43
:105AD00095B6200010B50446002C22D00021228863
:105AE00040F20253A2F202509A4279D033DC40F2E3
:105AF0000643A2F206409A425DD01BDC40F202430C
:105B0000A2F202409A424ED00DDCA2F54072013A58
:105B10003DD0012A3BD0FF2A41D0B2F5807F55D13C
:105B20003FE0002010BD01283FD002283FD00328CD
:105B30004CD13EE0042846D006DC01283DD00228A6
:105B40003DD0032842D13CE005283ED0FA2842D07F
:105B5000FB283BD144E0082847D007DC082835D291
:105B6000DFE800F0343E3E3E3E3E3E430C283CD053
:105B700006DC092839D00A2837D00B2826D134E092
:105B80000D2832D00E2830D0FF281FD132E0204619
:105B900003F06CF9204602F0F5FE002010BD2189CB
:105BA00014E0218912E0218910E061890EE0218A48
:105BB0000CE021890AE0618908E0A18906E0618999
:105BC00004E0A18902E0218A00E061892046BDE865
:105BD000104003F019BA2046BDE8104003F0C2B8E7
:105BE0002046BDE8104003F029B82046BDE810402B
:105BF00002F022BF204602F019FE002010BD000076
:105C000070B50446002C1CD00225114EF079844258
:105C100010D0304690F90610ACB10320C91CB17108
:105C20000C490A6800EB92030A6863F389020A6070
:105C300008F094FEF4710849086C65F38710086455
:105C400070BD0025E1E76FF00200C91EB171E7E702
:105C5000D4810020201101B0002001B07047000065
:105C60002DE9F04706460C46002E4DD0002C4BD0B7
:105C7000EC212046FCF72DFA30782070707C6073A0
:105C8000D6F80200C4F80600F0886081307A2073EC
:105C90003648D6F802100160F1888180317A81712E
:105CA0000020F56996F81A80012704F1240929E0FB
:105CB000411C285CC9B2002826D0401E00F0FF0A13
:105CC000481CC6B2685C062848D006DC062810D2FC
:105CD000DFE800F00F1C34343C3C092822D004DCFF
:105CE00007283BD0082804D11CE0192812D0FF282F
:105CF0001ED0A91904F17003524600F079F906EBA1
:105D00000A00C0B24045D3D3BDE8F087A85DA073B8
:105D10006770F4E7A919A85D497840EA012020825C
:105D2000A770ECE7A8196061A4F818A0E770E6E78F
:105D3000A819E061A4F820A02771E0E7A8194B4654
:105D40000222514600F078F96771D8E7A8194B464E
:105D50000422514600F070F96771D0E7A8194B464C
:105D60001022514600F068F96771C8E7998A00204F
:105D70000349496A002902D0002800D0084770472B
:105D80008C8A002010B586B00178042913D006292A
:105D90000FD1007904F060FC0446002C09D01422D5
:105DA0000B4901A8FCF77CF9ADF8084001A8FEF703
:105DB00043F806B010BD07A05521CDE90010044BF3
:105DC0000AA21B3B0FA10220FEF7C8FCF1E700006E
:105DD000D00A2100466F756E642074617267657425
:105DE000206465766963652E000000002E2E5C53EA
:105DF00072635C757365725C757365725F617070F8
:105E00002E6300004E4F5F5441470000002813D01E
:105E10000188A1F500710B390ED0012906D00229A5
:105E200007D0F62908D1007906F0CCBF007A06F039
:105E3000DBBF083006F088BF704700000249887059
:105E40000120087070470000B48A00202DE9F0415D
:105E500005460C46002020602F4F4FF0010697F8B2
:105E60002900C00709D0288B3A8E904205D1F96AE3
:105E70006869FCF740F900B9267097F82900800797
:105E800004D5288AB98E884200D1667097F8290017
:105E9000400707D5204805F12401383000F050F8BC
:105EA00000B1A67097F82900000707D51A48072205
:105EB000A91D4030FCF71FF900B9E67097F82A00D9
:105EC000012814D097F82900C10701D02178D1B159
:105ED000810701D56178C1B1410701D5A178B1B180
:105EE000000701D5E078A0B10120BDE8F08120785D
:105EF00028B9607818B9A07808B9E07808B101200D
:105F0000F3E70020F1E70020EFE70020EDE70020B5
:105F1000EBE70020E9E700008C8A002010B50024A0
:105F2000002909D0054A82F8290004481C222C3097
:105F3000FCF7B6F8204610BD012010BD8C8A002069
:105F400070B505460C46A88802280ED1002609E047
:105F500004EB4601091D02222868FCF7CCF840B189
:105F6000761CF6B22078B042F2D8A888042802D075
:105F700010E0012070BD002609E004EB860120310D
:105F800004222868FCF7B7F840B1761CF6B26078B6
:105F9000B042F2D8A888102802D010E0012070BDCD
:105FA000002609E004EB06113C3110222868FCF7BA
:105FB000A2F830B1761CF6B2A078B042F2D8002038
:105FC00070BD012070BD000010B500280BD0014647
:105FD00028220648FCF764F80449BDE81040891CF3
:105FE00000207FF6F9BC012010BD00008C8A002043
:105FF00010B51C7804EB440403EB84042071A16009
:10600000A2811878401C187010BD000000B5BDB00A
:1060100007484179002906D001218DF80410016A52
:1060200009B101A888477FF64BFD3DB000BD0000D7
:106030008C8A00207FF680BD2DE9F0410746884616
:1060400016461D46002F32D0002D30D000242CE003
:10605000022E06D0042E11D0102E28D1A87820BBF5
:1060600019E028780E2820D2411C2970391905EB37
:10607000400009888180A41CE4B216E068780728F3
:1060800013D2411C6970391905EB40000968416061
:10609000241DE4B209E00120A87005F13C00391983
:1060A0001022FBF7FDFF1034E4B24445D0D3BDE825
:1060B000F0812DE9F04105460E4614461F46204664
:1060C00000F032F83B46224631462846BDE8F04112
:1060D00084F66CBD2DE9F04105460E4614461F4678
:1060E000204600F021F83B46224631462846BDE8CE
:1060F000F04184F691BF2DE9F04105460E46144665
:106100001F46204600F010F83B46224631462846FE
:10611000BDE8F04184F6E8BF02490878FF220A7022
:10612000704700002A82002010B5C0B284F61AF829
:1061300001491438087010BD2A82002010B51321BF
:106140000A4807F091FB05210848983007F092FBB8
:1061500001210648083807F081FBFFF7A7FAFFF78F
:1061600041FBBDE81040FFF779BD00000C7800202E
:1061700030B58568027B002D02D0002001210CE0A3
:10618000104630BDCB0801F00704EB5CE340DB07B1
:1061900001D0401CC0B2491CC9B28A42F2D830BDFD
:1061A00000230849496808E00A89824204D84A89DC
:1061B000824201D3CB6802E009680029F4D1184675
:1061C00070470000C07F002001460548406803E09A
:1061D00002798A4202D000680028F9D17047000095
:1061E000C07F0020F0B5AFB0204E7078FFF7ECFF15
:1061F000044620000AD02169E088096808802069E7
:1062000081F642FF054600271DB124E00C202FB087
:10621000F0BD2069FFF7ACFF0146206902681288D3
:1062200022810068008808446081E06898B1FF22FC
:10623000B82101A8FBF746FF40F20C40ADF804007E
:10624000ADF806702089ADF80C006089ADF80E003D
:10625000E16801A888477078401CC0B2707031783E
:10626000884200D17770E8B2D1E70000C07F0020FB
:1062700010B5084A1378002B01D00F2010BD31B1A2
:1062800050600448083000F007F8002010BD0220DC
:1062900010BD0000D47E002070B504460D46FFF707
:1062A00013FC0849012009F063F80749022009F0AE
:1062B0005FF8FFF743FF29462046BDE8704085F6AA
:1062C000F9BF00009D1708003D16080010B500F04A
:1062D000ADF800F06DF8BDE8104000F08BB800009C
:1062E00010B51248016821F0070141F00401016076
:1062F0000A2009F68BF90D488438016821F4807171
:1063000001600121002024F627FC01201AF6C6F9BD
:1063100007490220087008F0A7FF0649322009F05B
:1063200027F8BDE810403220FCF77DBC90A8004063
:1063300044820020EF21200010B519480068C0F306
:106340000B0017490831096821F07F41401C00EE1D
:10635000100ADFED140AB8EE400A60EE200A00EEE3
:10636000101A1149B8EE400A80EE801AB6EE000A03
:1063700031EE000ABCEEC00A10EE100A486007F0C9
:1063800003F809F08BFA0948016841F48071016053
:1063900006488430016821F00701016010BD00004B
:1063A00004E400400024F44B448200200CA8004088
:1063B00000B587B003218DF8041002200290052259
:1063C0008DF80C2001208DF80D0000238DF80E3083
:1063D0008DF8101005908DF818208DF819008DF8A3
:1063E0001A00034A022101A8FEF7DAF807B000BD3F
:1063F000B94420007CB51020009002248DF80440A0
:106400008DF8054007258DF8065069460420FDF7F4
:1064100075FE402000908DF804408DF805408DF801
:10642000065069460420FDF769FE7CBD00B587B0C3
:1064300000F01EF803208DF800001D208DF81600D6
:1064400001208DF817008DF818008DF81900044A06
:1064500004496846FEF756F9FDF774FC07B000BD25
:1064600069642000D56420000320FEF769BC0000A9
:106470001CB5144800904FF480600190124803222C
:1064800002704FF4E1310164426400218164C1640F
:10649000016501234365017420244461427403763D
:1064A0000171102383604271017308494163816364
:1064B000022180F83C1080F83D206A460449FEF72E
:1064C000DDFC1CBD6883002068870020009001402F
:1064D0003D4D20000A4601464FF47A730320FEF733
:1064E00097BD000030B5A3B004460D46802103A837
:1064F000FBF7EFFD31A04FF49A72CDE90020354B48
:1065000035A23BA10220FEF729F9227832B1012AF7
:1065100010D0022A1AD0FE2A2FD123E036A040F252
:106520003912CDE900202B4B2BA231A10220FEF71E
:1065300015F922E033A040F23D11CDE90010254BC2
:1065400025A22BA10220FEF709F916E030A04FF496
:10655000A071CDE900101F4B1FA225A10220FEF75C
:10656000FDF80AE02EA04FF4A271CDE90010194BFE
:1065700019A21FA10220FEF7F1F8AA1EA11C03A870
:10658000FBF78EFD607829A140F24B12CDE9002186
:106590000290104B10A216A10220FEF7DFF82CA1EA
:1065A0004FF4A672CDE9002103A80290094B0AA27C
:1065B0000FA10220FEF7D2F823B030BD4945454572
:1065C0002031313037332D3230363031204345528F
:1065D00054000000940B21002E2E5C5372635C75F6
:1065E0007365725C757365725F6170702E63000015
:1065F0004E4F5F5441470000454D505420424F4498
:10660000590000004945454520424F4459000000CB
:10661000434F4E54494E554120424F4459000000CB
:1066200045585020424F445900000000417574689D
:106630006F726974617469766520426F6479205362
:1066400074727563747572653A305825303278000B
:10665000417574686F726974617469766520426F00
:10666000647920446174613A257300000A2804D8D3
:1066700040F6641101EB40007047242804D840F62E
:10668000661101EB40007047252804D0262805D06C
:106690004FF41B60704740F66210704740F67A1066
:1066A00070470000052110F1190F01DC022110E0F4
:1066B00000F114020F2A01D803210AE00F2801D8A3
:1066C000042106E0A0F11402192A02D932280CDBB9
:1066D000062106480268C2F303328A4205D00268E6
:1066E00022F4704242EA01310160704714A8004070
:1066F00010B50021084624F62FFA012019F6AEFF46
:106700000248816821F48071816010BD00A00040C2
:1067100010B514480068C0F30000002807D01148E5
:1067200008380068C0F3000008B108F0F5FD0E4815
:106730000068C0F3000038B10B4808380068C0F3A7
:10674000000008B100F07AFE08F074FD002807D0C0
:1067500003F06EFC002803D0BDE81040FFF7C8BF6F
:1067600010BD000008E4004008E5004010B508F046
:10677000F3FD00F00FFE10BD10B502F071FF06F042
:10678000B5FA07F04BF8BDE8104000F09BB80000E8
:106790002DE9FC4104468846164D4FF6FF76164F0C
:1067A00012E02968082201EB0030694686F632F8CB
:1067B000082802D01020BDE8FC81BDF80000B042DE
:1067C00008D12078401C20702078797A8842E8D35C
:1067D0000020F0E709489DF80010C170BDF80210D4
:1067E00081809DF8011088F8001021784170002008
:1067F000E1E70000BC35002090470020C8350020AC
:1068000010B51248016821F0004101600F23011DFD
:106810000A6863F31F720A600A6822F4E07242F4A5
:10682000C0720A60016841F00041016008480168D7
:1068300041F0010101600749312008F099FD064946
:106840004FF40030C1F8000110BD000004A9004061
:1068500088E20040BD29200004E000E0F8B5EFF335
:106860001085012080F31088072000906846FCF70F
:10687000F1F80220FCF7F6F8322008F6C7FE0B4CC0
:10688000206840F002002060094E708908F6BEFEC4
:10689000206820F002002060B08908F6B7FE9DF85D
:1068A0000000FCF7DFF885F31088F8BD04A900406C
:1068B000A880002008B500906A460121092083F6CF
:1068C00097FB08BD024901480860704771711000CC
:1068D000CC0500201FB514468DF8000000208DF86F
:1068E0000100002916D160680B4900880A8890428F
:1068F00010D3498888420DD800F056F8616801AB82
:106900008A88896800F01FF803208DF80100684626
:1069100000F060F81FBD000028900020002811D072
:10692000018800F10802B1F5A06F07D0A1F5A061C0
:10693000053907D181780079FFF7CCBF81780079DC
:1069400000F07EB970471870002806D0072815D0CF
:10695000082816D059601A8170470878187148784D
:10696000587188789871C878D87108791872487900
:10697000587288799872C879D872704759601A81AC
:106980007047087818718878CA7840EA0220D88061
:1069900008794A7940EA022018818879C97940EA61
:1069A000012058817047000001460020054A02EB93
:1069B00040039B888B4204D0401CC0B20928F6D308
:1069C0000920704728900020014981F637B800005F
:1069D000987D002004498969002903D04278002A63
:1069E00000D0084770470000289000201CB541786F
:1069F000012906D003290FD1BDE81C40001D00F07D
:106A000039B806A040F2A111CDE90010104B11A237
:106A100016A10220FDF7A2FE1CBD000044657669A8
:106A2000636520496E666F726D6174696F6E205385
:106A300065727669636520646973636F76657279E0
:106A400020636F6D706C6574656C792E00000000BA
:106A5000C60B21002E2E5C5372635C757365725CED
:106A6000757365725F6170702E6300004E4F5F54E6
:106A70004147000030B5A3B00446802103A8FBF7CE
:106A800028FB207803AD092809D2DFE800F0050AC9
:106A90001C2E405264767B00201D09F061F823B063
:106AA00030BD228903A86168FBF7FAFA37A0CDE967
:106AB00001054FF4B77100913A4B3BA240A102206F
:106AC000FDF74CFEEBE7228903A86168FBF7E8FAC3
:106AD0003DA0CDE9010540F273110091314B32A286
:106AE00037A10220FDF73AFED9E7228903A86168A1
:106AF000FBF7D6FA3AA0CDE901054FF4BC7100913D
:106B0000284B29A22EA10220FDF728FEC7E72289E3
:106B100003A86168FBF7C4FA37A0CDE9010540F28C
:106B20007D1100911F4B20A225A10220FDF716FE2A
:106B3000B5E7228903A86168FBF7B2FA34A0CDE972
:106B400001054FF4C1710091164B17A21CA1022040
:106B5000FDF704FEA3E7228903A86168FBF7A0FA0A
:106B600031A0CDE9010540F2871100910D4B0EA235
:106B700013A10220FDF7F2FD91E721896068FFF77C
:106B8000B1FC8CE7201D06F035FD88E74D6F64658C
:106B90006C204E756D6265723A20202020202025E1
:106BA00073000000B10B21002E2E5C5372635C75E4
:106BB0007365725C757365725F6170702E6300003F
:106BC0004E4F5F544147000053657269616C204E1F
:106BD000756D6265723A2020202020257300000028
:106BE0004861726477617265205265766973696F76
:106BF0006E3A2025730000004669726D77617265F8
:106C0000205265766973696F6E3A20257300000023
:106C1000536F667477617265205265766973696F28
:106C20006E3A2025730000004D616E7566616374D5
:106C300075726572204E616D653A20257300000003
:106C40002DE9FF418DF8000002278DF801705729CA
:106C500034D081BB9078D17840EA0120A0F5C051B2
:106C60000A3928D1314C508A2080908A60800023D4
:106C700019E003EB430101EBC30695694FF0030CE8
:106C800007EB46010CEB460C695C15F80CC041EAB9
:106C90000C2103F1010C604480B215F81650032D4D
:106CA0000ED02DB15B1C918A508A091A9942E0D806
:106CB00001208DF801006846FFF78CFEBDE8FF81DA
:106CC000A1F52855233D21D0A1F52855243D1FD0FD
:106CD000A1F52855253D1DD0A1F52855263D1BD0F1
:106CE000A1F52855273D19D0A1F52855283D17D0E5
:106CF000A1F52855293D15D0A1F528552A3D13D0D9
:106D0000A1F52855503DCDD1A082CBE7A080C9E7A1
:106D1000E080C7E72081C5E7A081C3E76081C1E7C4
:106D2000E081BFE72082BDE76082BBE728900020BA
:106D300010B50446002C0BD01C210648FBF7C9F9FE
:106D400004488461BDE8104003490448FEF768BE6A
:106D5000022010BD289000201D692000987D002091
:106D60000249014808607047316D1000440D002051
:106D700010B592F6E3FE002800D0FEE710BD00003B
:106D80000148408B704700007445002000B585B075
:106D900000210191029103910491124A537E127EC7
:106DA0001B0243EA004010430090019102910391BD
:106DB00004910120029001A802F098FC01A802F0C1
:106DC0009FFC01236A464A2101A802F0F3FC0F232D
:106DD000044A442101A81CF6F5F801A802F086FC3B
:106DE00005B000BD7445002070B506460C4615463A
:106DF0006FF4004010EAC43F05D040F24D420AA1B2
:106E00000FA000F68BFFE80B05D040F24E4206A122
:106E10001AA000F683FF94204643274845EAC43170
:106E20003044A0F8661170BD72665F6764785F6277
:106E3000616C695F62315F70617463682E6300002A
:106E400028282875696E7431365F742972787769DD
:106E50006465203C3C203135292026207E28287579
:106E6000696E7431365F74293078303030303830A4
:106E700030302929203D3D20300000002828287589
:106E8000696E7431365F7429727877696E737A200F
:106E90003C3C2030292026207E282875696E7431DC
:106EA000365F7429307830303030374646462929ED
:106EB000203D3D2030000000008000B00249282223
:106EC0000248FBF7EDB80000A40D2100008100B0DE
:106ED00000B500F00BF85DF804EB03F039B90000E1
:106EE00001480078704700009CDB002030B5084C5A
:106EF000012525706060E2602361A160054880681B
:106F0000884201D2081A00E0401A606130BD0000DA
:106F10009CDB00206082002010B503F0F3F80446EB
:106F200018210548FBF7D5F8034A002111702046C7
:106F3000BDE8104000F046B99CDB0020F0B40446E8
:106F40000E462C482C4FB9680578026244628C4288
:106F500001D9631A00E00B1BFF689F4206D313465A
:106F600032462146F0BC0020FFF7B2BF87699F423E
:106F700001D98361C261012D0AD0022D27D0032DD2
:106F800036D1134632462146F0BC0020FFF7A0BFA1
:106F900044618C4203D90169491EC16002E0016964
:106FA000491C8160D0E90212914209D2114449087A
:106FB00001610121017001693046F0BC00F01EB88A
:106FC0000221017081683046F0BC00F017B8C16939
:106FD000914206D1134632462146F0BC0020FFF70D
:106FE00077BF03210170C1693046F0BC00F006B8DC
:106FF000F0BC704744DB002060820020054A936AA1
:107000005B1C93628AB2C1B20348044B406803F030
:107010001DB8000044DB0020608200203D6F20008E
:1070200070B505460D4C2C212046FBF752F8002088
:10703000A06040F2FF10E060FF2222614FF0FF30BD
:10704000A061A06A401CA062012020700448E9B23F
:10705000044B4068BDE8704002F0F8BF44DB0020FC
:10706000608200203D6F20002DE9F84307460D4661
:1070700090462E4C207801280BD0022813D00820EF
:10708000E06101B043462A463946BDE8F043FFF7C8
:107090001FBFE76040F2FF1121612846BDE8F843B9
:1070A000022200F079B8002600966761684600F079
:1070B0003FF870B1012810D002281FD003282DD02E
:1070C0000720E06143462A463946FFF701FFBDE845
:1070D000F8832846FFF7A4FFF9E70F2D06D23146C3
:1070E000A6600122681C00F057F8F0E70520E06177
:1070F00043462A463946FFF7EBFEE8E735B1A6607E
:1071000001220021681E00F047F8E0E70620E06158
:1071100043462A463946FFF7DBFED8E70098E06190
:1071200043462A463946FFF7D3FED0E724DB00204A
:1071300010B5174B17490A698968154CDB686469F3
:107140008B4203D98C4201D9022010BD8B4203D25D
:107150008C4201D2012010BD8B4201D95B1A00E0A4
:10716000CB1A8C4201D9611A00E0091B934203D368
:10717000914201D3002010BD934201D2022010BDE4
:10718000914201D2012010BD02210160032010BDF7
:1071900024DB00206082002030B4074B9C69641C13
:1071A0009C6158601A708AB2C1B20448044B4068AE
:1071B00030BC02F04BBF000024DB002060820020C6
:1071C0006970200070B50546064C20212046FAF76C
:1071D00080FF0021A1602846BDE870400122FFF732
:1071E000DBBF000024DB0020F8B50E461F4C002555
:1071F0000095E169491CE1616660A260E168216176
:10720000E0601B498B68834201D2C01A00E0181A63
:107210006169814201D96061A261684600F02AF883
:1072200058B101280ED0022814D0032818D0009895
:10723000A062204600F0BFF8F8BDA562204600F02D
:10724000BAF8F8BD012084F820003046A16900F0AA
:1072500077F8F8BDA1683046491C00F071F8F8BD18
:10726000A1683046491E00F06BF8F8BD70DB0020C5
:10727000608200202DE9F0432F4A304FB968002585
:107280000026D3688B4201D95C1A00E0CC1AFF6853
:10729000A74202D30020BDE8F083D2F82480B8F1E1
:1072A000010F10D092F82040012C0ED0224CD2F8C1
:1072B0001CC04FF00109A769A468C4450BD3A742BD
:1072C00005D10020E7E70020E5E70020E3E782F8AA
:1072D00020900120DFE7BCF1010F11D9D2F810C0D6
:1072E0008C4501D98B4203D38C4509D28B4207D9F7
:1072F000A74201D10020CEE782F820900120CAE702
:107300008B4201D9012600E0012545B1B4F5FF7F8C
:1073100003D9092101600420BDE70220BBE736B193
:107320000CB10320B7E70A2101600420B3E70B2169
:1073300001600420AFE7000070DB002060820020C5
:107340008AB2C1B20248034B406802F07FBE00001F
:1073500060820020E971200070B504460E46154693
:107360002C210948FAF7B5FE074B002183F82010BD
:10737000491E59615C620548AAB2F1B24068BDE895
:107380007040034B02F062BE70DB00206082002080
:10739000E971200010B502F03BFE00280AD0FFF78B
:1073A0009FFD18B1BDE8104000F028B8BDE81040BE
:1073B000FFF7B2BD10BD00B500F004F85DF804EBB6
:1073C00002F0C6BE0B4901220A71826A8A60C26954
:1073D000CA60C2680A6142684A6182688A61064A74
:1073E000C0689268904201D9801A00E0101AC86102
:1073F00070470000B4DB0020608200202DE9F041DE
:1074000002F080FE074602F08FFE8046094C266897
:107410000948456920212046FAF75BFE761C266064
:1074200000202071424639462846BDE8F041FFF76A
:1074300093BF0000B4DB00206082002010B50E4C2A
:107440002069401C206102F089FEE06002F05AFED3
:10745000606002F069FEA060084A0021116061616D
:10746000E3692BB182B22179E068BDE8104018478A
:10747000BDE8104002F06CBE04DB002000E50040D7
:107480000549044808600649044808610549052083
:107490000870704795542000380D00206954200072
:1074A0008C290020398200202DE9FC41164804680F
:1074B0000834164E3078002802D000208EF654FE94
:1074C000134D4FF6FF770822694620468EF656FE8A
:1074D000BDF80000B84211D080B1BDF802008CF6B2
:1074E00065FEBDF802100830084481B220468DF6D2
:1074F00039F9044628688442E5D32C6830788EF642
:1075000033FE2046BDE8FC81BC350020B5350020A7
:10751000C435002010B50021084B5A681B8809E0CB
:1075200052F83140844203D102EBC100406810BDE3
:10753000491C89B29942F3D310BD0000EC7F0020B2
:1075400010B50021084B5A695B8809E052F83140B8
:10755000844203D102EBC100406810BD491C89B2CE
:107560009942F3D310BD0000F47F002010B5002134
:10757000084B5A681B8809E052F83140844203D115
:1075800002EBC100406810BD491C89B29942F3D397
:1075900010BD0000D47F00200349095C002902D0FF
:1075A000002104F00BB97047F8DA002008B51A483A
:1075B000016821F070010160016821F0070141F0CC
:1075C0000401016015490978002909D0124984395C
:1075D0000A6842F480720A60016821F007010160C4
:1075E000012005F0EBF90020FCF7FAFA05F06EFD3A
:1075F00080B100208DF80000A3208DF8010002204A
:107600008DF8020068468FF693FB05F07BFB05F0D2
:107610009BFD08BDFEE7000090A80040B880002058
:1076200070B5044600BFFBF753FB05460120FBF78E
:107630005DFC0648047024B9482205490548FAF75C
:107640002FFD2846FBF752FC00BF70BDF87D0020DF
:1076500068D60020002000E010B5074840680749C0
:10766000486006480830402203490831FAF718FDFF
:1076700003200249086010BD20D60020002000E051
:107680007047000070B500BFFBF722FB05460120E4
:10769000FBF72CFC0948047834B94822084909480A
:1076A000FAF7FEFCFFF7D8FF0120044908702846CE
:1076B000FBF71CFC00BF204670BD0000F87D0020D9
:1076C000002000E068D6002013B501216846FDF7D0
:1076D00005F801201CBD00002DE9F04387B00C46E1
:1076E00007276278A178CDE903720020CDE9050172
:1076F00021784FF00308CDE900800291EE230922A2
:1077000010216FF6ABFF60780126DFF8F8900525B1
:1077100030B1012834D0022846D003286ED157E07A
:10772000207888F6C3F9C0EBC00109EB81014D72E6
:10773000A278452A09D1CA681278022A16D091F88F
:107740002020022A01D081F8206091F82020012A0F
:1077500003D0022A01D081F8208091F82020022A4B
:107760004CD0C9680978022905D101E04F72ECE7D5
:10777000A178452942D0244A0021126890473DE073
:1077800089F89950A078452805D199F89C000228DD
:1077900001D089F89C6099F89C0002282ED01B49E2
:1077A00000200968884729E089F8A550A078452875
:1077B00005D199F8A800062801D089F8A86099F8A1
:1077C000A80006281AD0124900200968884715E049
:1077D000207888F6D9F909EB001181F8B150A27828
:1077E000462A01D0CE2A01D181F8B35091F8B310C6
:1077F000022903D0074A00211268904707B00020F1
:10780000BDE8F083F4380020343400203834002000
:10781000403400203C34002010B5AEB00C46FF22AE
:10782000B8216846FAF74EFC40F20A20ADF8000095
:10783000ADF802406846FEF731F82EB010BD10B525
:10784000AEB00446FF22B8216846FAF73BFC40F28E
:107850000D20ADF800000020ADF802001C222146EA
:1078600002A8FAF71DFC1C3409946846FEF716F8C6
:107870002EB010BD30B5AFB005460C46FF22B82182
:1078800001A8FAF71FFC40F20722ADF80420ADF87A
:1078900006408DF8085001A8FEF700F82FB030BD63
:1078A00037B5AEB005460C46FF22B8216846FAF758
:1078B00009FC4FF40272ADF80020ADF802408DF8DB
:1078C00004509DF8C0008DF808006846FDF7E6FFFB
:1078D00031B030BD00B5AFB0FF22B82101A8FAF732
:1078E000F1FB4FF44170ADF804000020ADF8060044
:1078F00001A8FDF7D3FF2FB000BD30B5AFB00446EF
:107900000D46FF22B82101A8FAF7DCFB4FF44372C1
:10791000ADF804200022ADF806208DF80840B02212
:10792000294603A8FAF7BCFB01A8FDF7B7FF2FB063
:1079300030BD10B5AEB00446FF22B8216846FAF754
:10794000C1FB40F20331ADF80010ADF802406846CB
:10795000FDF7A4FF2EB010BD70B5AEB005460C46C5
:107960001646FF22B8216846FAF7ACFB40F2013117
:10797000ADF80010ADF802408DF8045012223146E7
:1079800002A8FAF78DFB6846FDF788FF2EB070BDA0
:1079900070B5AEB006460D461446FF22B8216846C3
:1079A000FAF790FB4FF44273ADF80030ADF8025097
:1079B0008DF8046020680290A088ADF80C0068463D
:1079C000FDF76CFF2EB070BD2DE9F04186B00C467E
:1079D000C3F3072528467EF677FD074628467EF640
:1079E00073FD0026CDE901650721CDE903100220D2
:1079F000009017230922102130466FF62FFEFF2D2D
:107A000066D035492088088060884880A0888880B2
:107A1000E088C880207A0872607A48720F74D4F8BF
:107A20000A20C1F80A20E289CA812C4B03EBC50267
:107A300016605660B4F800C023F835C0DFF8A080A7
:107A400001280CD1C87B0121B1EB901F07D198F818
:107A50001C01400703D5234841780A2931D804F195
:107A60000A02617A1646284691F654F8617A32463F
:107A700028468AF62BFA1C4C6FB1002085F638FF99
:107A8000206828B1836B1BB1134A00212846984710
:107A900085F676FF1CE0032088F8A800D8F8AC0033
:107AA0000078012814D1002085F622FF206828B133
:107AB000836B1BB1084A00212846984785F660FF72
:107AC00006E006700449074A0A31284688F680FD18
:107AD00006B00020BDE8F08190380020A2380020D8
