:020000040020DA
:1020000000000820ED2120009D3D2000016010000F
:102010009B3D2000193D20000944200000000000E5
:10202000000000000000000000000000156010002B
:10203000993D2000000000009F3D20002D4320001E
:1020400000F002F800F0C2F80AA090E8000C824408
:102050008344AAF10107DA4501D100F0B7F8AFF2E5
:10206000090EBAE80F0013F0010F18BFFB1A43F076
:1020700001031847A0A60000E0A600000A444FF0A4
:10208000000C10F8013B13F0070408BF10F8014BD7
:102090001D1108BF10F8015B641E05D010F8016B1C
:1020A000641E01F8016BF9D113F0080F1EBF10F880
:1020B000014BAD1C0C1B09D16D1E58BF01F801CBA3
:1020C000FAD505E014F8016B01F8016B6D1EF9D526
:1020D0009142D6D370470000103A24BF78C878C127
:1020E000FAD8520724BF30C830C144BF04680C601E
:1020F000704700000023002400250026103A28BF66
:1021000078C1FBD8520728BF30C148BF0B60704769
:102110006E2900F0EE83702900F0B581662909F080
:102120003987652909F03687672909F033876129DE
:1021300009F0328703681B0A28BF41F08001692932
:1021400000F02681642900F02381752900F02081A8
:102150006F2900F0EE84782900F08181E92900F0F0
:102160008984E42900F08684F52900F08384EF292E
:1021700000F0EB84F82900F080810368DB0928BFB8
:1021800041F08001632900F0F883732900F0FD839A
:10219000E32901F0C180F32901F0C68000207047D7
:1021A0001FB509F0F2FE01F0EFF804000020002155
:1021B00009F046F9401C60600020002109F02AF96E
:1021C000E06000F019FB1FBD10B510BDDFF80CD0AA
:1021D000FFF7E6FF06F034FD01F08CF9000008205F
:1021E00003B4FFF7F1FF03BC02F048FC014880474D
:1021F00001480047994320002590200004F014BEB8
:1022000058585247010000002655000000202000C9
:10221000002020007FED9247010100000000000037
:1022200000000000000000000000000000000000AE
:10223000000000000000000000000000000000009E
:102240007CB51D4616460C00009001D02044401E6F
:10225000074B7B442A4669460190304600F063FBF9
:1022600005461CB10020694600F070FB28467CBD85
:10227000010700000FB4044910B503AA029800F04A
:1022800089FB10BC5DF814FB647D00200FB41CB505
:10229000084B06AA7B4469460090059800F043FB72
:1022A00004460020694600F051FB20461CBC5DF846
:1022B00014FB0000B50600000FB47CB50C0009AAA1
:1022C000009001D02044401E084B7B446946019099
:1022D000089800F028FB05461CB10020694600F074
:1022E00035FB28467CBC5DF814FB00008906000025
:1022F00070B5044685690068C10601D5302600E046
:102300002026C00707D070BDD4E901213046904790
:10231000206A401C20626D1EF6D570BD70B5044663
:1023200085690078C00707D170BDD4E9012120205C
:102330009047206A401C20626D1EF6D570BD70B5B6
:102340000C460546012A05D02878800600D5EA69A2
:10235000002302E0012305E05B1C934202D2E05C13
:102360000028F9D1A869E618C01AA861286A18449B
:1023700028622846FFF7BCFF04E0D5E9012114F8E4
:10238000010B9047B442F8D32846FFF7C7FF70BD52
:102390002DE9F0410646002410687529314616A53E
:1023A00010D000F03BFA002802DA404213A507E003
:1023B00031688A0701D512A502E0490704D511A5A5
:1023C000012401E000F033FA00210A2206F124077B
:1023D00009E0B0FBF2FCB0FBF2F302FB1C00303072
:1023E00078541846491C0028F3D123462A46304623
:1023F000BDE8F04100F024BA000000002D0000000C
:102400002B00000020000000F0B40D4601880905F3
:1024100002D5214C7C4402E01F4C7C440E34002148
:1024200000F1240608E002F00F071209E75D42EA16
:1024300003721B097754491C52EA0307F3D102784F
:102440000023120704D5702D06D009B102231134E0
:102450002246F0BC00F0F4B901231034F8E770B55F
:1024600004460D462146106800F0E1F9024629466F
:102470002046BDE870400023C6E7D21D22F00703C6
:10248000D3E90023C0E70368126843F02003036028
:102490000823C3610023B7E77CA100002DE9F05FAA
:1024A000894604464FF0000ADFF874B1FB44C0F8D7
:1024B00020A02046E1688847002874D0252806D04F
:1024C000D4E901219047206A401C2062F1E70026F0
:1024D0005F462046E16888472028054607DB312D06
:1024E00005D2781910F8200C08B10643F1E7B007BF
:1024F00001D526F00406C4F81CA00027C4F818A0D3
:102500002A2D09D0284602F0B1FA38B304EB870827
:10251000303DC8F8185019E059F8041B204604EB68
:1025200087029161E1688847012F054618D1E0696B
:10253000002820DA26F020061DE0D8F8180000EB6D
:10254000800005EB40003038C8F818002046E168EC
:102550008847054602F08AFA0028EED1012F0AD0FA
:102560002E2D08D12046E16888477F1C0546022FA2
:1025700046F02006C4DBA069002803DA404246F09A
:102580000106A061F00701D026F010066C2D0BD0DB
:10259000682D09D04C2D39D06A2D35D0742D35D009
:1025A0007A2D33D016E038E0E1682F462046884780
:1025B000B842054609D16C2F26D04FF48060E168FF
:1025C000064320468847054604E06C2F1AD04FF496
:1025D000807006430DB3A5F14100192802D82035BB
:1025E00046F400664A462946204626604E46FFF7D6
:1025F0008FFD80B101280BD0F61D26F0070000F1F9
:10260000080956E74020E4E78020D8E70020D6E715
:1026100006F104094DE7284652E7206ABDE8F09F1D
:102620000CA1000040EA010310B59B070FD1042A5A
:102630000DD310C808C9121F9C42F8D020BA19BA8D
:10264000884201D9012010BD4FF0FF3010BD1AB1F2
:10265000D30703D0521C07E0002010BD10F8013B47
:1026600011F8014B1B1B07D110F8013B11F8014B6E
:102670001B1B01D1921EF1D1184610BD10B5431C91
:1026800002E010F8011B71B18107FAD14FF001325D
:1026900002C88C1A8C4314EAC211F9D0C01A0A0677
:1026A00003D0C01E10BDC01A10BD0A0401D0801E88
:1026B00010BD0902FCD0401E10BD032A40F230803C
:1026C00010F0030C00F0158011F8013BBCF1020F73
:1026D000624498BF11F801CB00F8013B38BF11F8F4
:1026E000013BA2F1040298BF00F801CB38BF00F80B
:1026F000013B11F0030300F02580083AC0F0088088
:1027000051F8043B083A51F804CBA0E80810F5E76B
:10271000121D5CBF51F8043B40F8043BAFF300804E
:10272000D20724BF11F8013B11F801CB48BF11F8C3
:10273000012B24BF00F8013B00F801CB48BF00F893
:10274000012B704710B5203AC0F00B80B1E818504B
:10275000203AA0E81850B1E81850A0E81850BFF48B
:10276000F5AF5FEA027C24BFB1E81850A0E818502A
:1027700044BF18C918C0BDE810405FEA827C24BF7E
:1027800051F8043B40F8043B08BF7047D20728BF0C
:1027900031F8023B48BF11F8012B28BF20F8023B5B
:1027A00048BF00F8012B70474FF0000200B51346F8
:1027B00094469646203922BFA0E80C50A0E80C5061
:1027C000B1F12001BFF4F7AF090728BFA0E80C5012
:1027D00048BF0CC05DF804EB890028BF40F8042B0B
:1027E00008BF704748BF20F8022B11F0804F18BF78
:1027F00000F8012B7047000070B5064C7C44064D74
:102800007D4403E0206820448047241DAC42F9D178
:1028100070BD000080A0000080A0000009684A058B
:1028200001D540B27047C905FCD500B270470968B0
:102830004A0501D5C0B27047C905FCD580B27047C2
:102840002DE9F0470D4699469246044600F12408CA
:102850000168880604D5E06921F01001216000E0DC
:102860000120A84201DD471B00E00027A1697A1979
:1028700002EB0900081AA0612078C00602D42046A5
:10288000FFF736FD002608E0D4E901211AF806001A
:102890009047206A401C761C20624E45F4DB20786D
:1028A000C0060AD52046FFF723FD06E0D4E9012142
:1028B00030209047206A401C2062381EA7F1010793
:1028C000F4DC07E0D4E9012118F805009047206AFC
:1028D000401C2062281EA5F10105F3DC2046FFF70D
:1028E0001DFD2078000602D50220BDE8F0870120FA
:1028F000FBE711680268006A530501D508700AE019
:10290000D30501D5088006E0130603D5C217C1E937
:10291000000200E0086001207047000001694A1CC5
:1029200002610878704700B58FB0CDE90131002110
:10293000059105497944CDE9031011466846FFF732
:10294000ADFD0FB000BD0000E5FFFFFF0A6802F813
:10295000010B0A607047D1E900239A4202D2531C4E
:102960000B601070704710B5436913B1AFF300806E
:1029700001E0FFF7E4FC012010BD127800F1240112
:102980000A7000224A700122EDE711684FF0FF3211
:10299000E9E70000074B70B50D467B44FFF7C3FF26
:1029A0000446284600F0C4FC10B14FF0FF3070BD63
:1029B000204670BD935100002DE9FF5F15468A4601
:1029C0000446DFF8AC80F8440027D8E900103E4602
:1029D000CDE9001010E03AF816106A4602A800F09F
:1029E000ABFC411C07D02178890603D5E269391870
:1029F00091420DD80744761C2078800602D5E06904
:102A0000B84205DDAE42E6DB3AF816000028E2D116
:102A1000A069C01BA0612046FFF76AFCD8E900103E
:102A2000CDE90010002017E03AF818106A4602A815
:102A300000F082FCB0F1FF3F81460BD000250DF184
:102A4000080B05E0D4E901211BF8050090476D1C37
:102A50004D45F7D308F10100B0428046E4DB206A1F
:102A6000384420622046FFF759FCBDE8FF9F000074
:102A7000069C00002DE9F0418046D21D22F007029D
:102A80000025D2E90002F52915A614D0011E72F125
:102A9000000106DA0023D0EB030063EB020211A66B
:102AA00008E0D8F800108B0701D50FA602E049070F
:102AB00001D50EA601251146002408F1240704E0E3
:102AC00000F04EF830323A55641C50EA0102F7D15A
:102AD0002B46324621464046BDE8F041FFF7B0BEE6
:102AE000000000002D0000002B000000200000006E
:102AF00030B4002100F1240408E002F00705D208F8
:102B0000303542EA4372DB086554491C52EA03053A
:102B1000F3D10468002310A2250707D5A40600D42A
:102B200021B1C46901230DA2641EC46130BCFFF74A
:102B300087BE10B5044621461068FFF778FE0246AE
:102B40002046BDE810400023D2E7D21D22F0070145
:102B5000D1E90023CCE700000000000030000000B5
:102B600030B5B0F10A024FEA900E71F100034EEA5F
:102B7000817EB0EB0E0061EB91014FEA101E4EEA30
:102B8000017E10EB0E0041EB11114FEA102E4EEAC0
:102B9000016E10EB0E0041EB11214FEA104E4EEA90
:102BA000014E10EB0E0041EB1141401841F10001C4
:102BB0004FEAD00040EA41704FEAD10110EB8005A6
:102BC0004FEA810444EA907444EB01046D1944EB2C
:102BD0000404521BA3414FF0000348BF0A3200D542
:102BE00030BD401C41F1000130BD70472DE9FF4F61
:102BF0000C461E464FF0FF378BB0D2E90001DDF8DE
:102C000060800A908A46C1F30A5505B93D46002105
:102C100008464FF00000BAF1000F00F4400005DA5A
:102C200000EB80004FF4400101EA50004FEA905958
:102C3000B9F1010F00DDB9460A9850EA4A000ED0FA
:102C400044F61050A5F2FF3545432F14B8F1000F9C
:102C50001ED07542291E1EDDC9F100021CE0B8F12C
:102C6000010F4FF0000001D0302103E0F24305E0F6
:102C70002154401CB042FBDB30460022002121548D
:102C80000B99C1F80880C1E900200FB0BDE8F08FB2
:102C9000BD1B6D1CDEE74A4600DA694206A800F05B
:102CA000B7FB06AB93E8070003AB83E80700504689
:102CB0000A9900F069FC8DE80700A0F500501F3864
:102CC00000900398002D0ADD42F21F014A46084495
:102CD000002303A90390684600F0D2FE09E0A0F5A6
:102CE00000504A461F38002303A90390684600F0AD
:102CF000DCFE8DE807000004000C03D04FF0FF302D
:102D0000410800E01046B8F1000F03D00022009205
:102D100015461EE0751E05D4FFF722FF30326255BE
:102D20006D1EF9D5B3460122084302D000227F1C54
:102D300004E02078302801D100227F1E002A099764
:102D400084D01DE0112D07DAFFF70AFF30326255FB
:102D50006D1C50EA0102F5D1084302D00098C8B1B9
:102D60000EE00021681E05E0235C625C635422547F
:102D7000401E491C8142F7DBAB46A81B401E099050
:102D8000002004F80B000B98099AC0F80880C0E9ED
:102D9000002B7AE711264FF0000857E72DE9F04F96
:102DA00088460446D21D22F0070191B0D1E9000106
:102DB000CDE90A0101F029FB02460B98C00F01D0B2
:102DC0002D2007E02068810701D52B2002E020217B
:102DD00001EAC000032A099001D0072A05DB034657
:102DE0004146204600F0D4FA0BE12078800601D558
:102DF000E06900E00620B8F1650F814606D0B8F121
:102E0000660F18D0B8F1670F70D131E00020B9F12A
:102E1000110F009001DB112301E009F101030AAA5F
:102E200001A90CA8FFF7E2FEDDE90C70002609F10C
:102E30000105834647E001204B4600904FF00047D4
:102E40000AAA01A90CA8FFF7D1FEDDE90DB00C9983
:102E50005D46002610B909F101000D18B9EB050017
:102E600003D4C0F1FF3609F10105A5EB09002BE001
:102E7000B9F1010F01DA4FF001090020B9F1110F8A
:102E80000090484601DD112300E003460AAA01A98B
:102E90000CA8FFF7ABFEDDE90C704D46002683461B
:102EA000207800070AD4AB4500DA5D4601A8012D61
:102EB00004DD411911F8011C302907D04F4502DA11
:102EC00017F1040F04DA012082460FE06D1EEEE7D1
:102ED000002F02DCED1B3E4403E0781CA84200DD1D
:102EE0007D1CB81B00F1010A4FF000472078000755
:102EF00003D4AA4501DB4FF0FF3A0021B7F1004FA0
:102F00000DF143088DF8431024D002202B23002F0D
:102F100001DA7F422D230A21021EA0F1010000DC0C
:102F20005FB197FBF1FC97FBF1F201FB1C7C1746AC
:102F30000CF1300C08F801CDEEE7A8F101000370A8
:102F40002188090501D5452100E06521A0F101088E
:102F500000F8011C09980FA9A1EB0807FF1D00B19B
:102F60000120411901EBEA70A1693844081A401E9A
:102F7000A0612078C00602D42046FFF7B9F909986D
:102F800028B1D4E901219047206A401C20622078B2
:102F9000C00622D52046FFF7ABF91EE0002E04DB69
:102FA000B34502DD01A8805D00E03020D4E90121B5
:102FB0009047206A401C2062761CAAF101005FEA5B
:102FC000000A0AD100F0E0F9C0680168405CD4E969
:102FD00001219047206A401C2062281EA5F10105AE
:102FE000DCDC07E0D4E9012118F8010B9047206AE6
:102FF000401C2062381EA7F10107F3DC2046FFF7D2
:103000008DF9032011B041E62DE9F04F04460D463D
:10301000D21D22F0070089B0D0E900974846394612
:1030200001F0F3F90246F80F01D02D2307E02068E4
:10303000810701D52B2302E0202101EAC0038DF88E
:1030400020300BB1012000E00020032A824601D08D
:10305000072A04DB2946204600F09AF93FE1207850
:10306000800601D40D2500E0E569C7F30A560D2D51
:1030700049DA00214FEA175B08464FF00000002FA5
:1030800000F4400007DA00EB80004FF4400100EB51
:10309000D07001EA60008115012901DD4FF0FF3198
:1030A00000224FEA850CBCF1180F06D31346ACF191
:1030B00018004FF08052C24003E04FF4801323FA0F
:1030C0000CF30CF10C0CBCF1200F04D3ACF1200C70
:1030D00009FA0CF001E007FA0CF000294FF0004863
:1030E00001DD18B90FE00ED140450CD319EB0209F0
:1030F0005F4121B9404502D19F4329EA0209BBEB58
:10310000175F00D0761C2088000502D57B487844E4
:1031100002E07A487844193808AA302302F80A30C5
:10312000037C0AF10101002E0AF1020A53546A4697
:1031300002DC4FF0300101E04FF031014FF00108A7
:103140008DF8001002D0A6F2FF3603E059EA4701DD
:1031500000D06B4E002D02DC2178090704D54FF01A
:1031600002082E218DF80110C44600210BE0C7F3A0
:1031700003433F01C35C491C6D1E02F8083005295A
:1031800008F1010801DA002DF1DC00210CE000EB70
:103190001973491C1B786D1E082902F808304FEA84
:1031A000091908F1010801DA002DF0DC21688B060D
:1031B00002D516E0A8F10108E04505DD02EB0803A1
:1031C00013F8013C302BF5D0B8F1000F09DD02EB0C
:1031D000080313F8013C2E2B03D1090701D4A8F1F1
:1031E0000108002D05DD3E2102F808106D1E08F1D2
:1031F0000108407C002E02F8080008F1010804DAFA
:103200002D20764202F8080002E02B2002F8080088
:103210000A214FF47A70864208F101080BDB96FB15
:10322000F0F3303302F8083096FBF0F308F10108B0
:1032300000FB136601E0642E0CDB642096FBF0F3C8
:10324000303302F8083096FBF0F308F1010800FB78
:10325000136601E00A2E06DB96FBF1F0303002F82F
:10326000080008F1010896FBF1F001FB1060303016
:1032700002F80800A16908F1010808EB050202EB59
:103280000A00081AA0612078C00602D42046FFF781
:103290002FF8216A08AE01EB0A00206204E0D4E9AD
:1032A000012116F8010B9047BAF1010AF7D22078F4
:1032B000C00602D52046FFF71BF86E4609E016F857
:1032C000010B3E280FD0D4E901219047206A401C11
:1032D0002062B8F10108F2D22046FFF71FF809B0CA
:1032E0000320BDE8F08F206A2844206203E0D4E97F
:1032F0000121302090476D1EEBD3F8E7D9940000F0
:1033000002FCFFFF10B5436913B1AFF3008001E089
:10331000FFF752FB012010BD128800F124018284C6
:103320000022C2840122EDE711684FF0FF32E9E785
:10333000007B00F08000704770B516460C460546CD
:1033400000F01AF8036893F80101012806D0FF2C59
:103350000FD8185D68B101202C7070BDD3F807013B
:103360003246214603F2071303442846BDE8704065
:1033700018474FF0FF3070BD10B500F005F8001D84
:1033800010BD00BFBD80000000487047F4A10020C0
:103390002DE9F0411F46044603260168072A01F47F
:1033A000006004DB08B116A505E016A503E008B12E
:1033B00015A500E015A521F010002060A069C01E31
:1033C000A0610FB1401EA0612046FEF791FF4FB1F2
:1033D000D4E9012138469047206A401C2062C01C75
:1033E000206206E0206AFAE7D4E9012115F8010B12
:1033F0009047761EF8D22046FEF790FFBDE8F08198
:103400004E414E006E616E00494E4600696E660088
:103410002DE9F047814616468AB0354878440DC8F4
:103420008DE80D0032487844801C03AC0DC884E858
:103430000D0041F69B300844372190FBF1F290FBE0
:10344000F1F5A5F1800501FB12041B3C02D5644295
:10345000012000E00020DFF898A080460027FA4411
:10346000AAF1BE0A0EE0E0070AD03246684607EB32
:10347000470101230AEB810100F017FB8DE80700EB
:1034800064107F1C002CEED1194F7F44AE3F19E031
:10349000E80715D007EB04100DF1180A90E80E00AC
:1034A0008AE80E00C068F04201D1981908903246AF
:1034B000012306A903A800F0F8FA03AB83E807008C
:1034C0006D10641C002DE3D14FF0010332466946B4
:1034D000B8F1000F03A802D000F0D2FA01E000F02A
:1034E000E4FAC9E90001C9F808200AB0BDE8F0878C
:1034F0005C92000010B50446AFF300802046BDE8A2
:103500001040FEF76DBE00004FF0013C50F8042B58
:1035100051F8043B9A4221D1A2EB0C03934313EAE6
:10352000CC1317D150F8042B51F8043B9A4215D113
:10353000A2EB0C03934313EACC130BD150F8042BEA
:1035400051F8043B9A4209D1A2EB0C03934313EACE
:10355000CC13DBD04FF00000704700BFD01A01BA87
:10356000B1FA81F101F0180122FA01F0CB40C1F16A
:103570002001DBB2C0B2C01A2CFA01F3D11A914378
:1035800011EAC311E6D170475FEA400C08BF91F021
:10359000000F4FEA8C234FEAC12243EA51514FEA10
:1035A0001C5018BF00F5F0404FEA300018BF41F042
:1035B00000415FEA6C5C00F02980BCF1FF3F08BF6E
:1035C00040F080407047130C06BF12044FF0100CFF
:1035D0004FF0000C130E04BF12020CF1080C130F75
:1035E00004BF12010CF1040C930F04BF92000CF104
:1035F000020CD30F04BF52000CF1010C11464FF026
:103600000002A0F11F00A0EB0C00704711F0004F6A
:1036100008BF704731F000413FF4D5AF0B0C06BF37
:1036200009044FF0100C4FF0000C0B0E04BF090200
:103630000CF1080C0B0F04BF09010CF1040C8B0FEB
:1036400004BF89000CF1020CCB0F04BF49000CF140
:10365000010CCCF12003A0EB0C0022FA03F302FAD8
:103660000CF241EA030100F10100704720F07F4CA9
:1036700080EA030023F07F47ACEB070303F57C539C
:1036800000F0004003F1FF032DE980494FEA154B9C
:1036900009B44FEA144325EA0B4E24EA03480FF21B
:1036A000042606EB132749083E785FEA320203FB43
:1036B0000667C7F5000707FB06F64FEA54374FEADF
:1036C000D64606F1020607FB066CCCF1005C4FEA19
:1036D0001C472CEA074C07FB06F40CFB06F504EB31
:1036E00015464FEA961634BF00204FF000404FEACF
:1036F000D13706FB07FC4FEA1C4C0CFB0BF7D21B27
:1037000003FB0CF761EB07010CFB0EF7B0EB074076
:1037100072EB17420CFB08F734BFA2EB0742B2EB87
:10372000074261EB17414FEA0C444FEA910706FB51
:1037300007FC4FEA1C4C0CFB0BF7B0EBC74072EBDD
:10374000573203FB0CF734BFA2EBC742B2EBC742C0
:1037500061EB57310CFB0EF7B0EBC70072EB577201
:103760000CFB08F734BFA2EBC702B2EBC70261EB58
:103770005771039F4FEA816141EA921104EBCC0437
:103780004FEAD1374FEA826206FB07FC42EA901209
:103790004FEA80604FEA1C4C0CFB0BF7D21B03FB7B
:1037A0000CF761EB07010CFB0EF7B0EB074072EB77
:1037B00017420CFB08F734BFA2EB0742B2EB0742FB
:1037C00061EB17414FEA8C554FEA910704EB9C24BB
:1037D00006FB07FC4FEA1C4C0CFB0BF7B0EBC74099
:1037E00072EB573203FB0CF734BFA2EBC742B2EBCC
:1037F000C74261EB57310CFB0EF7B0EBC70072EB21
:1038000057720CFB08F734BFA2EBC702B2EBC7023A
:1038100061EB577115EB4C254FEA816141EA92113A
:103820004FEA82624FEAD13742EA901206FB07FC68
:1038300044F100044FEA80604FEA1C4C0CFB0BF78C
:10384000D21B03FB0CF761EB07010CFB0EF7B0EB8F
:10385000074072EB17420CFB08F734BFA2EB07429C
:10386000B2EB074261EB174115EB1C154FEA8131B2
:1038700041EA92414FEA823242EA90424FEA803076
:103880004FEA0C7644F1000448EA03434EEA0B4841
:103890004FF0000EB2EB080C71EB030724BF624639
:1038A00039464EEB0E0E4FF0000B001852414941C5
:1038B0004BEB0B0BB2EB080C71EB03077BF1000B2E
:1038C00024BF624639464EEB0E0E4FF0000B001837
:1038D000524149414BEB0B0BB2EB080C71EB030768
:1038E0007BF1000B24BF624639464EEB0E0E51EAC7
:1038F000020718BF46F0010616EB0E7655F10002DE
:1039000054F1000103D5BDE88901BDE80088BDE898
:103910008901BDE80048B619524141EB0101A3F10C
:103920000103704780807F7E7D7C7B7A7978777613
:1039300076757473727171706F6E6E6D6C6C6B6A8C
:103940006A6968686766666564646363626161602A
:10395000605F5F5E5E5D5D5C5C5B5B5A5A595958A7
:103960005857575656555555545453535252525111
:10397000515050504F4F4F4E4E4D4D4D4C4C4C4B67
:103980004B4B4A4A4A4949494848484747474746AE
:1039900046464545454444444443434343424242EA
:1039A00042414141002B9C4630D477002BD01CB5BE
:1039B0004FEA370703B44FF010004FF01001BAF18F
:1039C000000F06D0BCF1000FDCBF40F0080040F053
:1039D00008014FF000000FBCBDE810400BF1010BD7
:1039E000BBF1010F08BF5FEA170722BF12F1010206
:1039F00011F101014FF0004143F1000300F00040DC
:103A000043EA00007047F9D35708D0E746EA064674
:103A100013F1400F4FEA16461FDD13F1200FDFBFF1
:103A200016430A46002120335B42BED0C3F1200773
:103A300046EA064602FA07F74FEA164646EA07063E
:103A4000C3F1200722FA03F201FA07F721FA03F182
:103A50004FF0000342EA0702A7E746EA020646EAF9
:103A600006464FEA164646EA0106BCBF46EA064647
:103A7000360C4FF000034FF000024FF0000194E7C6
:103A80002DE9804C9A46934670B491E8380007C8F7
:103A900031EA400C48BF34EA430C03D5FFF7E6FD9A
:103AA000FFF780FFF0BCBDE8008C2DE9804C9A4602
:103AB000934670B491E8380007C810F0804F08BFF3
:103AC00013F0804F03D100F005F8FFF76BFFF0BC57
:103AD000BDE8008C20F07F4780EA030023F07F4C94
:103AE00007EB0C03A3F57C5300F00040A3F1FE03A9
:103AF00092F0000F00F0B38095F0000F00F0778097
:103B00002DE901494FEA11404FEA144621EA0048E5
:103B100000FB06FC24EA064708FB06F607FB08F84C
:103B200000FB07F718EB06484CEB164C4FEA124B1C
:103B300018EB07484FEA15464CEB174022EA0B4EAC
:103B40000BFB06FC25EA06470EFB06F607FB0EFEFE
:103B50000BFB07F71EEB064E4CEB164C4FF0000626
:103B60001EEB074E4CEB174B18EB0B0840F1000017
:103B700018EB0E0B58EB000840F100008F1A4FF0C5
:103B800000013CBFC943661B14BFB5EB040C002108
:103B90003CBFC943F61B4FEA17444EEA8E0E27EA94
:103BA00004454FEA1C4704FB07622CEA074C05FB5F
:103BB00007F70CFB05F604FB0CFC16EB074642EB83
:103BC000174216EB0C4642EB1C421BEB060658EB69
:103BD0000202414146EA9E0601D5BDE80189B619B7
:103BE000524141EB0101A3F10103BDE801894FEA14
:103BF00014454FEA114724EA054621EA074C05FB24
:103C000007F406FB07F70CFB06F105FB0CFC11EBB8
:103C1000074144EB17444FEA124711EB0C4144EBC8
:103C20001C4422EA074C05FB07F206FB07F70CFBD6
:103C300006F605FB0CFC16EB074642EB174216EBAB
:103C40000C4642EB1C456A1854F1000148BF70470E
:103C5000B619524141EB0101A3F10103704795F000
:103C6000000F37D04FEA11424FEA144721EA0246CB
:103C700024EA074C02FB07F106FB07F70CFB06F4EE
:103C800002FB0CFC14EB074441EB17414FEA1547CC
:103C900014EB0C4441EB1C4125EA074C02FB07F5F1
:103CA00006FB07F70CFB06F602FB0CFC16EB0746BF
:103CB00045EB174516EB0C4645EB1C42121951F12A
:103CC000000148BF7047B619524141EB0101A3F111
:103CD000010370474FEA14454FEA114724EA0546AD
:103CE00021EA074C05FB07F106FB07F70CFB06F280
:103CF0004FF0000605FB0CFC12EB074241EB1741AD
:103D000012EB0C4251EB1C4148BF7047921841EB3B
:103D10000101A3F101037047FEE710B503F094F928
:103D200010BD000070B503201749096841F38001F8
:103D3000491C164D00290CD113490C310968C1F3F7
:103D4000000131B110498C39096801F0070188433D
:103D500003D02869401C286170BD0D4C206820F0FC
:103D600001002060206840F00400206009494FF401
:103D70000030086003F018FAE868401CE86020682A
:103D800040F00100206070BDD4A40040307F0020CE
:103D900088E2004084E200E0FEE7FEE7FEE7FEE79F
:103DA0002DE9FC41334841690069CDE9000106F085
:103DB00043F9044630480078BF2823D004DC0B28A0
:103DC0000DD085282DD10AE0C2280FD0C82828D1CF
:103DD000A00526D524F4007006F064F921E0A005C2
:103DE0001FD524F4007006F05DF91AE0600618D5BE
:103DF00006F0F8F804F0BF0180B241EA002006F0B6
:103E000051F90EE006F0EEF881070AD520F0020025
:103E10004FF6FF72E1B202EA00200143084606F0C5
:103E200041F902258DF80450134C38346068009035
:103E300007268DF8066001278DF805702078694601
:103E400000F0B0FF8DF80450206900908DF80660F6
:103E50008DF80570207B694600F0A4FF20780122D0
:103E6000616801F03DF8207B0122216901F038F8FA
:103E7000BDE8FC813CC32000747D00207CB52F4848
:103E8000C1688068CDE9000106F0D6F804462C48E8
:103E90000078BF2823D004DC0B280DD085282DD135
:103EA0000AE0C2280FD0C82828D1A00526D444F49F
:103EB000007006F0F7F821E0A0051FD444F400706C
:103EC00006F0F0F81AE0600618D406F08BF881B21C
:103ED00044F0400061F31F2006F0E4F80EE006F025
:103EE00081F881070AD440F002004FF6FF72E1B278
:103EF00002EA00200143084606F0D4F803268DF8B4
:103F000004600F4C38346068009060788DF80600CB
:103F100001258DF805502078694600F043FF8DF8A3
:103F2000046020690090607B8DF806008DF80550D4
:103F3000207B694600F036FF7CBD00003CC32000BA
:103F4000747D002030B58BB004460D4628220B4905
:103F500001A8FEF7F7FB029400F0E8F8084C0020F7
:103F60006070201D2A46007801A902F025F86078CB
:103F70000028FCD000F0F2F80BB030BDCCC420001B
:103F8000747D002070B58AB004460E46154628227E
:103F900009496846FEF7D6FB01940895074C0020B6
:103FA000A070201D32460078694601F09FFFA0787E
:103FB0000028FCD00AB070BD54C42000747D0020DD
:103FC00070B58AB004460E4615462822094968464F
:103FD000FEF7B8FB01940895074C0020A070201D47
:103FE00032460078694601F081FFA0780028FCD0B5
:103FF0000AB070BDB4C32000747D002010B58CB031
:1040000028220E4901A8FEF79DFB0D4C0020A07050
:10401000201D0BAA007801A901F068FFA0780028F4
:10402000FCD09DF82C009DF82D10000400EB012021
:104030009DF82E100CB0084410BD0000A4C4200050
:10404000747D00202DE9FC4110A000680190104C07
:10405000002565700126271D0096387801AB0722E0
:10406000002102F0E9F860780028FCD09920019046
:1040700065700096387801AB0722002102F0DCF869
:1040800060780028FCD0BDE8FC81000066000000DC
:10409000747D00201CB520218DF80410010C8DF8D2
:1040A0000510010A8DF806108DF8070000F03EF8A3
:1040B000084C0020607004200090201D01AB0078A7
:1040C0000722002102F0B8F860780028FCD000F048
:1040D00045F81CBD747D002010B505F0ADFF044609
:1040E0001148017844F2FC100B290BD0852909D026
:1040F000C2290DD0C82916D124EA0000BDE810401D
:1041000005F0D0BF24EA0000BDE8104005F0CABFAA
:1041100005F068FF04F0030180B241EA0020BDE829
:10412000104005F0BFBF10BD747D00201CB509A074
:1041300000680190084C0020607001200090201D54
:1041400001AB00780722002102F076F860780028A1
:10415000FCD01CBD06000000747D002010B505F0E9
:104160006BFFC007FBD110BD1CB509A00068019012
:10417000084C0020607001200090201D01AB0078E9
:104180000722002102F058F860780028FCD01CBDFE
:10419000AB000000747D00202DE9FF41334803C8C7
:1041A000CDE90201324C0125E06D022816D0002035
:1041B000606630492E4802F097F988B12EA04FF47E
:1041C000A471CDE90010294B39A268333DA100202C
:1041D00000F0EAFE012004B0BDE8F0816566E8E782
:1041E000234801F083FF68B138A040F24F11CDE9B8
:1041F00000101E4B2EA2683332A1002000F0D4FE26
:104200000120E8E702278DF80C70343460680290D2
:1042100007268DF80E608DF80D50207802A900F069
:10422000C1FD8DF80C70206902908DF80E608DF83C
:104230000D50207B02A900F0B5FD207801226168B5
:1042400000F04EFE207B0122216900F049FEFFF7BD
:10425000F9FEFFF789FFFFF7D1FE054C000C241F84
:104260002070FFF739FF2078B5E700003CC320003D
:10427000787D0020E95D20005153504920696E6926
:104280007469616C206661696C65642120506C659D
:1042900061736520636865636B2074686520696E6F
:1042A00070757420706172616D656E74732E00009C
:1042B0002E2E5C5372635C7370695F666C61736809
:1042C0002E6300004E4F5F54414700005153504948
:1042D00020696E697469616C20646D612066616932
:1042E0006C65642120506C6561736520636865634B
:1042F0006B2074686520696E7075742070617261DE
:104300006D656E74732E000005280CD2064A116884
:1043100001F4E021B1EB004F05D0116821F4E02158
:1043200041EA00401060704700A00040FEE7000036
:104330000249096801F007010170704700A00040C0
:1043400070B50446072C20D2104E306800F00700EC
:10435000A04214D0032004F04BFBF06820F00705C6
:1043600045F00100F06000BF00BF00BF00BF204665
:1043700004F03EFB064850F824002843F06004484F
:1043800004491C3850F82400086070BD00A00040AB
:1043900038C52000600300200248016841F4700124
:1043A0000160704788ED00E002480068001D03F0DE
:1043B00059BF0000D08D002002484068001D03F066
:1043C00051BF0000D08D002002488068001D03F01E
:1043D00049BF0000D08D00200248C068001D03F0D6
:1043E00041BF0000D08D002002480069001D03F08D
:1043F00039BF0000D08D002002484069001D03F045
:1044000031BF0000D08D0020FEE703B401984100C9
:10441000009850EAC12018BF04204A0D18BF40F090
:10442000010040F2FF72B2EB515F08BF40F00200A2
:10443000012808BF052002B07047002809DB00F002
:104440001F02012191404009800000F1E020C0F8E6
:104450008012704700280DDB00F01F0201219140FF
:104460004009800000F1E020C0F88011BFF34F8FB9
:10447000BFF36F8F7047002809DB00F01F02012196
:1044800091404009800000F1E020C0F80011704721
:10449000002809DB00F01F02012191404009800043
:1044A00000F1E020C0F80011704700280FDB41093F
:1044B000890001F1E021D1F8001100F01F02012074
:1044C0009040014201D00120704700207047002039
:1044D0007047002804DB00F1E02090F800047047EA
:1044E00000F00F0000F1E02090F8140D7047002854
:1044F00004DB00F1E02090F80004704700F00F00AA
:1045000000F1E02090F8140D7047000002480068A8
:10451000C0F30220704700000CED00E0EFF31080C4
:1045200070470000000000002DE9F0412DED020B66
:104530009FED3D0B2DED028B9FED3D8BDDE9025490
:10454000C4F30A50A0F2FF36142E37DA002E18DA20
:1045500053EC102B9DED020B51EC100B06F092FF6B
:1045600053EC182B07F044FB57D2002CBCBF4FF084
:104570000044002551DB54EA050018BF2E4C1BD126
:104580004BE02E4820FA06F704EA070028431FD024
:1045900053EC102B9DED020B51EC100B06F072FF4B
:1045A00053EC182B07F024FB37D2002C03DD4FF41B
:1045B0008010F0400444BC4300252EE0332E07DC7D
:1045C000A6F114004FF0FF3121FA00F73D4206D169
:1045D0009DED020BBDEC028B02B0BDE8F08153EC07
:1045E000102B9DED020B51EC100B07F037FB53EC39
:1045F000182B07F0FDFA10D2002C0DDD142E08BF89
:10460000641C09D0C6F13400012101FA00F02844ED
:10461000A84238BF641C0546BD43CDE902549DED58
:10462000020BD7E7000000009C7500883CE4377E51
:1046300000000000000000000000F03FFFFF0F003E
:1046400080F31088704700002DE9F74F0746029865
:10465000DFF888A1DFF888814FEA500B5C46019DA6
:104660006048CAF800003F20D8F8041060F3050144
:10467000C8F80410D8F8040020F48030C8F804000A
:10468000DAF8000020F4700040EA0750CAF8000091
:10469000DAF8000020F4702040EA0740CAF8000071
:1046A0000D2F05D1DAF8000040F40040CAF80000F0
:1046B0000E2F05D1DAF8000040F48040CAF800005F
:1046C000DAF8000040F40050CAF80000DAF8000000
:1046D00020F06050CAF80000DAF8000020F00F0067
:1046E00040F00300CAF80000002000F0CFF80128D5
:1046F00071D1DAF8000040F08040CAF800000020D4
:1047000008E0D8F8081041F48031C8F80810401CBF
:10471000411C05D0D8F80810C1F300210029F0D1C0
:10472000072000F0B3F8012855D141E000264FF4EE
:104730007A7924E04E451ED9DAF8000020F0804056
:10474000CAF80000DAF8000040F00040CAF80000A3
:10475000DAF8000020F00040CAF80000002000F065
:1047600095F8012837D12049086A401C08620520C5
:104770000AF64CFF72E701200AF648FF761CD8F8CB
:104780000800C0F300200028D4D0D8F8080000F0BA
:104790007F02A24200D92246002006E0D8F800108D
:1047A0002980090C69802D1D401C9042F6D3A41A63
:1047B000002CBBD10298C00708D0D8F80800C0F37D
:1047C00000200028F9D0D8F800002880BDE8FE4F6E
:1047D000002000F05BB8BDE8FE8F000000A800409C
:1047E00000E000400A070807307F00202DE9F04173
:1047F000044615480021C0F8941001214161134D71
:10480000686A134EF06200F0010149420140C80598
:1048100012D440F2011704E044B1641E01200AF6EC
:10482000F5FEA869B84204D1012003E00020BDE8EC
:10483000F08100200028EFD00648006870626868A8
:10484000B0620120F3E7000000D01D4200E000400C
:10485000307F002000A8004009480A49826A4A6067
:10486000094B426A1A60808D00F0010252420240F8
:10487000D00503D4086A20F00100086270470000E8
:10488000307F002000E0004000A800402DE9F0410A
:104890000546114FF868C0F30240A84202D101203A
:1048A000BDE8F081F86820F007002843F860002494
:1048B0004FF6FF76F868C0F30240A84205D0012009
:1048C0000AF6A4FE641CB442F4D3B44201D1002021
:1048D000E6E70120E4E7000000E0004070B50B4D82
:1048E00000266868002804D10EE0846800F0C5F84E
:1048F00020460028F9D10649287851F8201081F87F
:10490000B060002101F09CFD6E6070BD4C7D002008
:10491000E88D0020F0B506462DED068B89B00D46DA
:104920009FED459B202101A8FDF73EFFB0EE498A8F
:10493000F0EE698A4248C08B07F00DF89FED411BED
:1049400053EC112B06F052FE41EC1A0B102201A978
:104950003046FFF779FE002401AF04F1080037F874
:10496000100006F0F8FF53EC182B06F08BFD41EC1D
:10497000180B641CE4B2082CEFD351EC180B9FED1C
:10498000330B53EC102B07F035F841EC180B0D2EC0
:1049900002D00E2E29D046E09FED2E0B51EC100BCD
:1049A00006F064FD41EC190B688806F0D4FF53EC67
:1049B000192B07F01FF841EC190B288806F0CBFFE4
:1049C00053EC182B07F04AF953EC192B06F00EFEA6
:1049D0009FED221B53EC112B06F008FE53EC1A2B13
:1049E00006F050FD41EC190B1DE09FED1E0B51EC44
:1049F000100B06F03BFD41EC190B688806F0ABFF8D
:104A000041EC1A0BA88806F0A6FF53EC182B07F010
:104A100025F953EC1A2B06F0E9FD53EC192B06F09F
:104A2000E9FF41EC190B09B0B0EE490AF0EE690A52
:104A3000BDEC068BF0BD000000000000000000008F
:104A4000B0450020000000000000594000000000B8
:104A50000000C03F000000000000004079E926315E
:104A600008AC5CBFB76DDBB66DDB0E4030380A2892
:104A700001D201207047002070477047704710B581
:104A800002F0ACFA10BD04F07FBF70B504460D46CD
:104A90002946204606F02EF82946204604F0B2F8B2
:104AA0002946204604F0BAFB70BD000003490A689D
:104AB00022F4C06242EA40200860704704A8004027
:104AC000024B1B68002B00D018477047687D002000
:104AD000014894F6E5BE0000687D00200C2801D353
:104AE0000020704700EBC000054900EB400011F8C2
:104AF00020201AB101EB8000001D70470020704794
:104B0000148700202DE9F05F0546894600244FF008
:104B1000FF3846464FF0010A002D16D047490320C2
:104B200005F058FA4649232005F054FA287970B167
:104B300001280CD002280AD0032808D0042806D067
:104B4000052804D04046BDE8F09FE520FBE7EFF3E1
:104B50001083012181F310883A4F04EBC40101EB6B
:104B6000410117F8212052B107EB8102D5F800B0BE
:104B7000D2F804C0DC4514D1127A824211D104EB80
:104B8000C40000EB400207EB8202384692F8312065
:104B9000022A04D026B2012200F8212004E00C24CD
:104BA00002E0641C0C2CD8D383F310880C2C3FD269
:104BB00000220321244804F077FF04EBC40000EB3B
:104BC000400007EB8004296861602879207204F1B5
:104BD0000C00242205F10801FDF7B4FD1B48A06379
:104BE0001B4820641B48E06300206064C4F86890A0
:104BF0001949606888420AD10320FFF756FC98B92A
:104C0000032022F6C7FB032022F6E2FB0CE0134947
:104C1000884209D12320FFF748FC28B9232022F637
:104C2000B9FB232022F6D4FB201D03F0D5F98246E0
:104C3000BAF1000F00D04646304684E71D601000F0
:104C40004D60100014870020B4BF2000F1722000D6
:104C500061722000117220000090014000A001400C
:104C60002DE9F74F82B005464C4F57F8254094F890
:104C7000C90000287DD094F8C600DFF824914FF0D9
:104C80000508002610B194F8C70020B384F8C96065
:104C90008DF80C8099F8400020B199F801000021AE
:104CA00001F0CEFB57F8250080F8B06099F80200BB
:104CB000022803D857F8200080F8B06089F8006017
:104CC00057F82500D0F8B41009B103A8884701208F
:104CD00005B0BDE8F08F324999F800C001F10C032E
:104CE00001F11C02487889784FF0040EBCF1010FE5
:104CF00010D0BCF1020F2BD084F8C96057F8250002
:104D000080F8B060022903D857F8210080F8B0601D
:104D10000020DDE7D9E917ACD444C9F860C0D9F860
:104D200014A0D44504D384F8C9608DF80CE0B1E731
:104D30001B4C4434CDE9004600F018FB08B10120BB
:104D4000C6E757F8250080F8C9608DF80C80A1E708
:104D5000D9E915CADCF808B0DA44C9F858A0DCF87B
:104D60000CC0BCF1000F11D0C9F854C0CDE900C689
:104D700000E010E000F02EFE08B10120A8E757F88F
:104D8000250080F8C9608DF80C8083E784F8C9603D
:104D90008DF80CE07EE700209AE70000E88D002007
:104DA0009098002070B58EB005460C46474991E8B2
:104DB0004D00CDE90A02CDE90C36D1E90523086999
:104DC00006AEC9690DC6099114224049203101A8D7
:104DD000FDF7B8FCD4B13E49062005F0FBF83D498B
:104DE000072005F0F7F83C491B2005F0F3F83B4994
:104DF000122005F0EFF835493C39A1F12C02052DC0
:104E000061D2DFE805F0060606213900E5200EB084
:104E100070BD207931F810000B90607932F81000E5
:104E20000C90A0790D9020680A902848543850F8CA
:104E3000350021880904090C04D018B10AA903F02F
:104E40007DF939E0E420E2E7207901EB4000808A37
:104E50000790607902EB4000C0880890A079099023
:104E600020680690207810F0FF0F03D006A803F00A
:104E700061F821E0E420CAE72079031F042B01D860
:104E8000E720C4E7022819D001200290207901EB25
:104E90004000008D0390607902EB4000808904900F
:104EA000A079059020680190207810F0FF0F08D0BD
:104EB00001A9002022F622FA0020A8E70220029091
:104EC000E4E7E420A3E7E620A1E7000024C02000F7
:104ED000756110006F6110006B611000656110005A
:104EE00010B50B461146002903D0012901D0E4205A
:104EF00010BD05281CD2DFE800F00303030F1300E8
:104F00000C4A52F8300028B19BB20A4619461EF6E8
:104F100073FE0BE0E42010BD98B21AF663FD05E0C5
:104F200098B20A460146002022F606FA002010BD7B
:104F3000E62010BDD0BF2000002806D0002904D0F4
:104F4000024AD269002A00D010477047F899002021
:104F500070B50D4616460D4C00280AD0017803297D
:104F600011D80121A17601461A222046FDF7A5FBA2
:104F700005E00020A0761A210448FDF715FCE56144
:104F80002662002070BD012070BD0000F89900204D
:104F9000044A1044807D084201D00120704700205F
:104FA00070470000F89900202DE9FE4F0746924611
:104FB00099460024A046CDF80480CDF808805948D1
:104FC0000178B94202D2807E00287DD10EAD0095D5
:104FD000EFF311860220FFF77CFA8346FFF796FA7B
:104FE000401C012181400BEB0100C0B280F311880D
:104FF00001213846FFF7CCFF38B14B484B4950F8F8
:105000002720204600F0A4F804461C213846FFF76C
:10501000BFFF00285ED046A24449204600F098F821
:10502000204484B204213846FFF7B2FFF8B152465B
:105030003E49204600F08CF8204484B208213846CE
:10504000FFF7A6FF38B13BA23849204600F080F8B0
:10505000204484B20BE010213846FFF799FF30B1AD
:1050600035A23249204600F073F8204484B208216A
:105070003846FFF78DFF90B14A462C49204600F094
:1050800067F8204484B210213846FFF781FF30B121
:105090002AA22649204600F05BF8204484B2102161
:1050A0003846FFF775FF60B126A2052101A80C9BC9
:1050B000FDF702F901AA1D49204600F049F82044F5
:1050C00084B221A2194900E029E0204600F040F80E
:1050D000204484B21548C4F5807120442B460D9AB3
:1050E000FDF7AEF8CDF800804FF48071002804DBA6
:1050F0002044884201DC85B200E00D46A81C8842AD
:1051000000D9FE2511A20949284600F021F82844BB
:1051100081B20648FFF710FFF0B280F31188BDE8B6
:10512000FE8F0000F8990020547D0020F8980020A0
:1051300028000000200000003A000000204C696EAA
:10514000653A0000256C6400292000000D0A00006B
:1051500030B50546002000290CD0002A0AD006E010
:105160002B18FF2B06D8CC54521C401C80B214784C
:10517000002CF5D130BD000010B508480178002999
:105180000AD101210170064892F6F4F9BDE81040F9
:105190000021044892F684BB10BD0000487D002029
:1051A000ED601000E199200030B5ADF5017D4FF4C0
:1051B0008074214641A8FDF7F7FA214601A8FDF7C2
:1051C000F3FA35A0FDF756F8FEF7E6FF00285FD0AA
:1051D000FEF714FF014638A0FDF74CF8FEF7E0FD9E
:1051E000A502224601A92846FEF7EAFE002001A9F1
:1051F0000A5CFF2A02D1401CFF28F9D9FF2808D8F1
:1052000034A0FDF737F82846FEF744FF36A0FDF737
:1052100031F8002041A90854401CFF28FBD938A0D0
:10522000FDF728F841A92846FEF78CFE39A0FDF7C6
:1052300021F8214601A8FDF7B7FA224601A9284620
:10524000FEF7BEFE39A0FDF715F8234601AA41A9D5
:10525000284604F041FC17A0FDF70CF8FEF70EFEFF
:1052600035A0FDF707F8214601A8FDF79DFA224673
:1052700001A92846FEF786FE36A0FCF7FBFF234671
:1052800001AA41A9284604F027FC0AA0FCF7F2FF76
:105290000DF5017D30BD00000D0A54686973206969
:1052A00073205350495F666C617368206578616D47
:1052B000706C652E0D0A0000526561645F4465766E
:1052C0006963655F4944203D203078253036580DAC
:1052D0000A000000457261736520536563746F7244
:1052E0002E2E2E0D0A000000457261736520536555
:1052F00063746F7220537563636573732E0D0A00B8
:10530000506167655F50726F6772616D2E2E2E0D52
:105310000A000000506167652050726F6772616D0E
:1053200020537563636573732E0D0A005350495FF4
:10533000526561642E0000000D0A5153504920440B
:105340004D41207265616420646174612E2E2E0DC2
:105350000A0000004475616C5F4F75747075745F6E
:10536000466173745F526561642E00002DE9FF4F42
:1053700095B08046DDE9229A0E461F46002400259E
:10538000179800280AD04FB1B9F1000F06D0B8F134
:10539000020F05D9002019B0BDE8F08F0020FAE710
:1053A000022E03D90F2E01D00020F4E7B04501D121
:1053B0000020F0E7022E01D8012503E00F2E01D0D6
:1053C0000020E8E7FE4A52F82800A0B190F8AE109D
:1053D00089B12DB152F8261069B191F8AE1051B1D2
:1053E00090F8C91049B1BAF1000F06D0F5A0FCF74A
:1053F00041FF0020CFE70120CDE7BAF1000F7BD0BD
:10540000EF4990F8B0202AB94DB151F8262092F812
:10541000B02022B1EFA0FCF72DFF0020BBE74FF03A
:10542000010B80F8B0B025B1E54850F8260080F8AF
:10543000B0B06821EA48FDF7B7F9DFF8A4B301205E
:105440008BF800008BF801808BF8026028220BF1AA
:105450001C001799FDF776F997E80E10ABF11C00C8
:10546000C0E90C3CC0E90A12D9E9021CD9E90023C1
:10547000C0E91A1CC0E918239BF8500028B17868CD
:10548000814207D9CBF84C0004E0B868814201D9C9
:10549000CBF84C00DBF84C0020F00100CBF84C00BE
:1054A0001DB10121304601F055F9C54F57F82800CC
:1054B00090F8C30028B940F25522CAA1D5A0FFF741
:1054C000FFFA0021404601F0E5F9179880690728A6
:1054D00013D00F281DD01F2828D057F828100020DF
:1054E00081F8B000022E03D857F8261081F8B000DA
:1054F0008BF8000000204EE73BE00020CBF80400D2
:10550000CD48CBF808001DB30021304601F0A8F8C3
:105510001EE00120CBF80400C7481230CBF8080089
:10552000B5B10121304601F09BF811E00220CBF823
:105530000400002D03D0C148CBF8080002E0C048A9
:10554000CBF8080004D04FF00201304601F088F893
:10555000D9F80000CBF85400D9F80400CBF8580073
:105560000020CBF86000CBF85C00DBF84C00CBF8F7
:1055700064009B4AD2F814B0D2F81090976909FBE6
:1055800007F54FF6FC70B0FBF5F0302800D930205D
:105590004FEAC97151EACB7101D1022F0ED088496F
:1055A000002051F8283083F8B000022E03D851F8BB
:1055B000261081F8B00010700020ECE64FF0010CCE
:1055C0006146CDF808C004914FF08051019100234D
:1055D00003939C490591D1690691916A0891BAF1AA
:1055E000000F01D0116A00E0516A07917C4AD16A2C
:1055F0000991116B0A91516B0B91916B0C91D16BCD
:105600000D9100210E916146CDF83CC092F85020DA
:10561000002A7DD0724AD36C0BB14B4565D1D3B112
:10562000976D136E5B455FD2ABEB030391468342EC
:1056300000D21846C9F85C0001EB4000C0EBC00086
:1056400081008048FDF7B0F84846DFF8F8C1D9F886
:105650005C9000231BE0576DE3E7016E214401FBE2
:105660000572C4EBC4014CF821200CEB81014B60A6
:10567000621CC2EBC2020CEB82028A608268CA60C2
:10568000027925FA02F20A614B618B61641CA14523
:10569000E3D8641EC4EBC4010CEB81018B6009FBF1
:1056A00005F9CDF8389090F84000A8B1BAF1000F94
:1056B0000AD00121404600F0C3FE002301AA06A93A
:1056C000404600F0A3FB0DE00093DDE90D2301A9A6
:1056D000404600F087FF05E0002301AA06A94046E6
:1056E00000F094FB002868D055E1136E5B4565D24D
:1056F000ABEB0303834200D21846D065012101EBD6
:105700004000C0EBC00081004E48FDF74DF800E0BE
:10571000D2E03348DFF82CC10022C06D109098E031
:10572000196E586D2144149101FB0500D3F84CE02B
:10573000CDF84CE00EFB0701C4EBC4004CF8301070
:105740000CEBC0014A60012000EB4400C0EBC00E2E
:105750000CEB8E00CDF848E08860D3F808E0CDF877
:1057600044E0C1F80CE0DDF84CE093F804B0A9EB9C
:105770000E0E0EFB07FE2EFA0BFEC1F810E04A617A
:105780008A619B6D1499DDF848E001FB05314CF806
:105790002E104260022101EB4401C1EBC1010CEB70
:1057A00081018160DDF844E0C0F80CE0DDF84CE0F8
:1057B0000EFB07FE2EFA0BFE46E0BBE0EBE000001E
:1057C000E88D002052452D43414C4C454420210D8D
:1057D0000A000000425553592E2E2E20210D0A009A
:1057E000909800202E2E5C2E2E5C2E2E5C2E2E5C91
:1057F0002E2E5C647269766572735C7372635C6191
:1058000070705F67726170686963735F71737069EC
:105810002E630000705F717370695F656E765B73F5
:10582000637265656E5F69645D2D3E69735F757354
:1058300065645F646D6100000191101025491010CE
:1058400025911010F48D0020C0F810E042618261B3
:10585000641C10985C4BA0423FF662AF4FF0FF30E3
:1058600000EB4400C0EBC0000CEB8000826010999C
:10587000184669430E9190F84000A8B1BAF1000FA4
:105880000AD00121404600F0DBFD002301AA06A951
:10589000404600F0BBFA0DE00092DDE90D2301A9BE
:1058A000404600F09FFE05E0002301AA06A94046FD
:1058B00000F0ACFAF0B36EE0434F3A6E5A456AD24C
:1058C000ABEB0202824200D21046F86501EB4000C9
:1058D000C0EBC00081003D48FCF766FF3B4B002257
:1058E000D7F85CC02BE0786E584501D2796D00E0A6
:1058F000B96DB0FBFBF90BFB190909FB0519C4EBEA
:10590000C40143F8219003EB81014A6004F10109CD
:10591000C9EBC90903EB8909C1F80890D7F80890C9
:10592000C1F80C9097F8049025FA09F9C1F8109085
:105930004A6100E031E08A61401C7866641CA4453D
:10594000D1D8641EC4EBC40003EB800082600CFB62
:1059500005FCCDF838C097F84000A8B1BAF1000FA7
:105960000AD00121404600F06BFD002301AA06A9E0
:10597000404600F04BFA0DE00092DDE90D2301A94D
:10598000404600F02FFE05E0002301AA06A940468C
:1059900000F03CFA08B10120FDE40B4C94F8400003
:1059A00018B16078002100F04BFD0949002051F842
:1059B000282082F8B000022E03D851F8261081F872
:1059C000B00020700020E6E490980020F48D0020C4
:1059D000E88D00202DE9FF4F91B00646DDE91EA8B5
:1059E0000C460025139800280AD0149840B1BAF14B
:1059F000000F05D0022E05D9002015B0BDE8F08FAC
:105A00000020FAE7022C03D90F2C01D00020F4E784
:105A1000A64201D10020F0E7C34A52F8260098B10F
:105A200090F8AE1081B152F8241069B191F8AE101F
:105A300051B190F8C91049B1B8F1000F06D0BBA020
:105A4000FCF718FC0020D8E70120D6E7DFF8EC923D
:105A50004FF0000BB8F1000F71D090F8B01021B1E9
:105A6000B7A0FCF707FC0020C7E7012180F8B010C1
:105A7000022C04D8AC4850F8240080F8B0106821FB
:105A8000AE48FCF791FE022C01D8012700E0002768
:105A9000022089F8000089F8016089F80240149911
:105AA000A64891E80C101C38C968C0E90B3C82621A
:105AB0004163282238301399FCF744FE9F489AE846
:105AC0000E101C386030A0E80E10C9F858B0C9F8A4
:105AD00054A01FB10121204600F03CFEDFF848A28F
:105AE0005AF8260090F8C30028B940F27E3297A1F8
:105AF000A2A0FEF7E5FF0021304600F0CBFE139890
:105B00008069072811D00F281AD01F2825D05AF8ED
:105B1000260080F8B0B0022C03D85AF8240080F890
:105B2000B0B089F800B0002067E7C9F804B09C481D
:105B3000C9F808001FB10021204600F091FD18E0CF
:105B40000120C9F8040096481230C9F8080087B14E
:105B50000121204600F084FD0BE00220C9F804007A
:105B60008F482430C9F808001FB10221204600F0F8
:105B700077FDD9F81430D9F81000D9F8182000FBB7
:105B800002FA4FF6FC71B1FBFAF15F2900D95F21EF
:105B9000D9F854702FB1C00703D1D80701D1022A18
:105BA0000ED0614850F8261081F8B0B0022C03D80E
:105BB00050F8240080F8B0B089F800B000201CE74D
:105BC000B868884211D977A0FCF754FB564850F8C2
:105BD000261081F8B0B0022C03D850F8240080F8C9
:105BE000B0B089F800B0002007E7012003900590CD
:105BF00001070291CDF810B07A490691D9F81C102E
:105C00000791D9F828100991D9F820100891D9F8EE
:105C10002C100A91D9F830100B91D9F834100C914E
:105C2000D9F838100D91D9F83C100E91CDF83CB050
:105C30001090B868401CC0EBC00081006948FCF7B8
:105C4000B3FD684A1DE0386805FB0A01C5EBC500D5
:105C500042F8201002EB8000C0F804B0691CC1EBD0
:105C6000C10102EB81018160D9F80810C16099F887
:105C700004102AFA01F10161C0F814B0C0F818B09C
:105C80006D1CB868A842DED86D1EC5EBC50002EBDE
:105C90008000C0F808B0B8F1000F03D0D9F8200098
:105CA000089002E0D9F824000890B86800FB0AF0D8
:105CB0000F9099F84000B0B1B8F1000F0AD001215F
:105CC000304600F0BDFB002302AA07A9304600F0D1
:105CD0009DF80EE0CDF800B0DDE90E2302A93046B4
:105CE00000F080FC05E0002302AA07A9304600F07E
:105CF0008DF808B1012080E699F8400020B199F8AC
:105D00000100002100F09CFB074850F8261081F8A4
:105D1000B0B0022C03D850F8240080F8B0B089F855
:105D200000B0002069E60000E88D002052452D43B8
:105D3000414C4C454420210D0A0000009098002061
:105D4000425553592E2E2E20210D0A002E2E5C2E48
:105D50002E5C2E2E5C2E2E5C2E2E5C647269766577
:105D600072735C7372635C6170705F67726170689C
:105D70006963735F717370692E630000705F717384
:105D800070695F656E765B73637265656E5F69648B
:105D90005D2D3E69735F757365645F646D610000BE
:105DA000019110102B2B2B204552523A2053657431
:105DB00020707372616D286672616D655F647261D7
:105DC000775F6C696E657329203C3D2025642069EE
:105DD0006E2065616368204C696E6B20506F696E40
:105DE000740D0A00F48D002003780121064A012B6E
:105DF00000D151700378022B00D1917000780028F7
:105E000001D1517091707047747D002070B50446C7
:105E10001A4D0026002B55F824001ED080F8C960CA
:105E200055F8240080F8C66055F8240080F8C76053
:105E300055F8240025F63AFFD8B955F8240090F813
:105E4000C61019B990F8C7100029F8D090F8C7000B
:105E500008B1002070BD012070BD012380F8C93059
:105E600055F8240025F622FF28B155F8240080F8C3
:105E7000C960002070BD012070BD0000E88D0020C9
:105E800030B58BB004462C216846FCF78DFCE06CE5
:105E9000009094F850008DF804004FF480100490A6
:105EA000002005904FF480710691079008900990AA
:105EB0000A9000216846FEF725FE21780A4D55F824
:105EC0002110A1F8AC00002802DAE4200BB030BDAC
:105ED000FEF704FE217855F821100863217855F863
:105EE000211001630020F1E7E88D00202DE9F04149
:105EF00004460E461746032C02D3E820BDE8F08185
:105F0000194D55F8240048B190F8AF1031B13EB1A9
:105F100037B190F8B01029B1E220EFE7E920EDE7C2
:105F2000E420EBE7012180F8B0101048017055F82B
:105F3000240090F8C30020B9E2220DA117A0FEF7BB
:105F4000BFFD0021204600F057FC55F824003A46DA
:105F5000314625F61DF928B155F82420002182F894
:105F6000B010CBE70020C9E7E88D0020497D002074
:105F70002E2E5C2E2E5C2E2E5C2E2E5C2E2E5C6425
:105F80007269766572735C7372635C6170705F7165
:105F90007370695F646D612E63000000705F7173E0
:105FA00070695F656E765B69645D2D3E69735F75D0
:105FB0007365645F646D61002DE9F04104460E462F
:105FC0001746032C02D3E820BDE8F081194D55F89F
:105FD000240048B190F8AF1031B13EB137B190F81C
:105FE000B01029B1E220EFE7E920EDE7E420EBE78C
:105FF000012180F8B01055F8240090F8C30028B9AA
:106000004FF489720CA117A0FEF75AFD002120461B
:1060100000F0F2FB55F824003A46314625F658FCCC
:1060200028B155F82420002182F8B010CCE70020D8
:10603000CAE70000E88D00202E2E5C2E2E5C2E2E4E
:106040005C2E2E5C2E2E5C647269766572735C73B6
:1060500072635C6170705F717370695F646D612EF3
:1060600063000000705F717370695F656E765B69D5
:10607000645D2D3E69735F757365645F646D610077
:10608000074901220128096805D0022802D001F839
:10609000C72F4A707047002001F8C70F4A70704739
:1060A000E88D0020074901220128496805D002280F
:1060B00002D001F8C72F4A707047002001F8C70FBF
:1060C0004A707047E88D002007490122012889683D
:1060D00005D0022802D001F8C72F4A70704700206F
:1060E00001F8C70F4A707047E88D00202DE9F04194
:1060F0000546002D0DD02C78254E56F8240050B1C1
:1061000090F8AE1039B190F8AF0030B1EA20BDE898
:10611000F081E520FBE7E920F9E7284600F03AF8AE
:1061200008B1002000E0E4200028F0D1EFF3108750
:10613000012080F310882978801E56F82110A1F8DC
:10614000AC002846FFF79CFE87F310880028DED1BC
:1061500056F82410012081F8C30056F824200021AD
:1061600082F8C41056F82420696DC2F8A01056F8C1
:106170002420E96CC2F8981056F8242095F85010A5
:1061800082F89C1056F8241081F8AF000020BEE77A
:10619000E88D002010B50178002903D10D4BC26CA9
:1061A0009A4205D0022908D10B4AC16C914204D110
:1061B0000AA0FCF75FF8002010BD90F8500030B145
:1061C000012804D00FA0FCF755F8002010BD0120D5
:1061D00010BD000000A00140009001402B2B2B209F
:1061E0004552523A20515350492F444D4120444F7B
:1061F0004553204E4F54204D4154434820210D0A11
:10620000000000002B2B2B204552523A20506C6589
:106210006173652041474749474E20444D41204323
:1062200048414E4E454C302F3120544F2051535051
:106230004920210D0A0000002DE9F8430446089D7D
:10624000884691461F46032C02D3E820BDE8F88318
:106250001A4E56F8240048B190F8AF1031B13FB152
:1062600035B190F8B01029B1E220EFE7E920EDE771
:10627000E420EBE7012180F8B01056F8240090F8F4
:10628000C30028B940F2A7120DA118A0FEF718FC10
:106290000021204600F0B0FA009556F824003B4655
:1062A0004A46414627F69AF928B156F8242000219B
:1062B00082F8B010CAE70020C8E70000E88D00208F
:1062C0002E2E5C2E2E5C2E2E5C2E2E5C2E2E5C64D2
:1062D0007269766572735C7372635C6170705F7112
:1062E0007370695F646D612E63000000705F71738D
:1062F00070695F656E765B69645D2D3E69735F757D
:106300007365645F646D61007CB503243E4B026875
:106310009A4201D1002408E03C4B9A4201D1012469
:1063200003E03B4B9A4200D102248DF80010012279
:10633000384D002631B1012927D0022935D0032953
:1063400041D04CE0806B019055F8240080F8C720C4
:1063500055F8240080F8C52055F8240080F8C620A0
:106360002D48007860B12D4850F82400C66455F8D7
:10637000240050F8981F007908308240C1F8A0230B
:10638000214627A0FBF776FF29E041698069081ABA
:10639000ADF8040055F8240080F8C76055F82400D3
:1063A00080F8C620FEF79AFA19E0016A406A081AD6
:1063B000ADF8040055F8240080F8C76055F82400B3
:1063C00080F8C5200BE055F8240080F8C72055F868
:1063D000240080F8C52055F8240080F8C620DDE9A7
:1063E00000122046FEF73CFC00280BD155F8240093
:1063F00080F8B06055F82400D0F8B410002901D01E
:10640000684688477CBD0000001002400020024022
:1064100000300240E88D0020497D0020D4C22000D9
:106420002B2B2B204552523A2051535049256420A2
:106430007866657220457272202E2E2E0D0A00009D
:106440007CB504460E462648816A406ACDE90001C3
:10645000244D55F8240050F8A81F497A8DF80510EE
:1064600001684968009107218DF8061002218DF816
:106470000410006869460078FEF794FCAEB155F848
:10648000240000990122D0F8A8000078FEF728FD2A
:10649000012009F6BBF855F8240000990022D0F835
:1064A000A8000078FEF71CFD7CBD55F8240000997B
:1064B0000122D0F8A8000078FEF712FD55F824005C
:1064C00050F8A81F49788DF806100168097A8DF8F0
:1064D0000410006869460078FEF764FC7CBD00008B
:1064E00098C02000E88D00202DE9F04105460F46B8
:1064F000002D05D02C78032C04D3E820BDE8F081D2
:10650000E520FBE7314E05F1680046F82400281D20
:1065100003F02EFB0028F1D156F82410281DC1F8F5
:10652000A80056F82400C0F8B4705C3556F8240072
:106530000ECD001D0EC0264856F8241050F8240039
:10654000086056F8240001F00AFE0028D6D156F85B
:10655000240001F009FE0028D0D156F824000025BF
:1065600080F8C75056F8240080F8C65056F824002A
:1065700080F8C55056F8240080F8C15056F8240021
:1065800080F8C2500A220321124803F08DFA56F80F
:106590002410012081F8AE0056F8240080F8B05095
:1065A0000D490B2003F016FD0C49172003F012FDD6
:1065B0000B49412003F00EFD064D2D1F285720F6F4
:1065C000E9FE285720F604FF002097E7E88D002019
:1065D000D4C220009CC020000F621000176210007F
:1065E0001F621000F8B50446DDF818C01B4D0026E8
:1065F000012755F82400BCF1000F1FD080F8C960B6
:1066000055F8240080F8C66055F8240080F8C7606B
:10661000009755F8240027F6ECF8D8B955F824006F
:1066200090F8C61019B990F8C7100029F8D090F862
:10663000C70008B10020F8BD0120F8BD80F8C9707E
:10664000009755F8240027F6D4F828B155F824000F
:1066500080F8C9600020F8BD0120F8BDE88D002059
:106660007CB504460D46264E56F8240090F8C1002D
:10667000002805D14FF4956222A12CA0FEF720FA44
:1066800056F8243093F8C000A84201D101207CBD07
:106690002E480169C068CDE9000185B1012D10D0F7
:1066A0000220019001226946184626F69FF801460D
:1066B000274844B1012C0DD0022C12D017E0002045
:1066C000EFE70120EDE7D0F8802122F00102C0F8C9
:1066D00080210CE0D0F8802122F01002C0F8802147
:1066E00005E0D0F8802122F48072C0F8802109B141
:1066F00000207CBD56F8240080F8C05001207CBDED
:10670000E88D00202E2E5C2E2E5C2E2E5C2E2E5C14
:106710002E2E5C647269766572735C7372635C6161
:1067200070705F717370692E63000000705F717329
:1067300070695F656E765B69645D2D3E69735F6D40
:106740006D61705F696E69746564000098C02000B7
:1067500000E000A07CB504460D46134E56F8240018
:1067600090F8C100002805D140F2D3420FA119A032
:10677000FEF7A6F956F8240090F8C210A94201D1FC
:1067800001207CBD1B4949690091019501226946A0
:1067900026F62CF808B100207CBD56F8240080F8BD
:1067A000C25001207CBD0000E88D00202E2E5C2E02
:1067B0002E5C2E2E5C2E2E5C2E2E5C64726976650D
:1067C00072735C7372635C6170705F717370692E59
:1067D00063000000705F717370695F656E765B695E
:1067E000645D2D3E69735F6D6D61705F696E697484
:1067F0006564000098C0200070B58CB004460D465A
:106800002C2101A8FBF7D0FF214E56F8240090F868
:10681000C410A94202D101200CB070BD00226DB19C
:1068200050F8981F019100798DF8080005920692A2
:106830000792089209920A920B920FE050F8981F63
:10684000019100798DF808004FF4801005900692B0
:1068500000130790089209920A920B92002101A856
:10686000FEF750F956F82410A1F8AC00002801DA20
:106870000020D1E7FEF732F956F82410086356F8E5
:106880002410016356F8240080F8C4500120C3E7A7
:10689000E88D002070B58CB004460D462C2101A86F
:1068A000FBF782FF224E56F8240090F8C410A9424C
:1068B00002D101200CB070BD00226DB150F8981FBC
:1068C000019100798DF808000592069207920892CE
:1068D00009920A920B920FE050F8981F01910079EB
:1068E0008DF808004FF48010059006920013079071
:1068F000089209920A920B920E4850F8241001A8AF
:10690000FEF700F956F82410A1F8AC00002801DACF
:106910000020CFE7FEF7E2F856F82410086356F897
:106920002410016356F8240080F8C4500120C1E708
:10693000E88D0020E0C2200070B504461A4D55F8DD
:106940002400703003F031FA82B21646A2B155F835
:10695000240090F8011101290ED0012180F80411C2
:10696000802A0FD355F82400802200F18001703076
:1069700003F030FA80260CE055F82410002081F84E
:10698000000170BD55F8240000F18001703003F063
:1069900021FA55F82400324600F18001001D2AF644
:1069A00033FC0028EDD170BDD08D00207047000071
:1069B0002DE9F84304464D4F57F82400061D062CD8
:1069C0007ED290F86C1000297AD0012978D190F805
:1069D0000011012974D190F80111002970D1012111
:1069E00080F80111002157F82400D0E90323134453
:1069F000027D02F00102D21D9D184268D36FC3F3DD
:106A00008003002BFAD090F80421A2B1384A136811
:106A1000491C90F83B20102A06D08268B3FBF2F2A2
:106A20006A43B1EBC21FF3D957F82400703003F06A
:106A3000BCF985B226E0B0F82480C58C001D29F68B
:106A40005DFE57F8240041F2883300EB0801491B32
:106A50008031001D2A462AF684FBE5E757F824001A
:106A600001227030694603F0B5F957F824004068F8
:106A7000C16FC1F340010029FAD09DF800100160F8
:106A80006D1EADB2002DE9D157F82400703003F02F
:106A90008CF90028C8D1306841694906FCD5EFF36C
:106AA0001085012080F3108857F82400703003F01F
:106AB0007CF968B1EFF31081012080F3108800E0C9
:106AC00011E03068426842F08202426081F310882F
:106AD00057F82410002081F8000157F8241081F89D
:106AE000010185F31088BDE8F8830000D08D0020F7
:106AF000600300202DE9F04105460F46002D06D029
:106B00002AB12C78062C04D3E820BDE8F081E520DA
:106B1000FBE7384E05F1580046F82400D2E9003171
:106B20000A467030194603F02BF9291D286D04F030
:106B30002DF80028E9D156F82410281D486656F88B
:106B40002400076056F824001822083005F140019F
:106B5000FBF7F8FD284856F8241000EBC4056868D8
:106B6000486056F82400001D01F054FB56F824003C
:106B7000001D01F06BFB204801220321103802F0B8
:106B800093FF56F82410012081F86C0056F8241069
:106B9000002081F8000156F8241081F8010156F810
:106BA000241081F8020156F8241081F803011349DA
:106BB0000C2003F00FFA12490D2003F00BFA1149D3
:106BC000342003F007FA1049352003F003FA0F4987
:106BD000362003F0FFF90E49372003F0FBF995F951
:106BE000010020F6D7FB95F9010020F6F1FB00200B
:106BF0008BE70000D08D002068C02000A943200052
:106C0000B9432000C9432000D9432000E9432000B4
:106C1000F94320002DE9F04104461A4D55F82400AF
:106C2000703003F0C2F882B2164600277AB155F8E8
:106C3000240090F80111012909D0802A0ED300F117
:106C400080017030802203F0C5F880260BE055F8F3
:106C5000240080F800710020BDE8F08100F180017F
:106C6000703003F0B7F855F8240080F8047155F837
:106C70002400324600F18001001D2AF689FB00281D
:106C8000EAD1E9E7D08D002070B5062801D3E820CD
:106C900070BD104D55F8204064B194F86C604EB151
:106CA00051B14AB15E1C09D044F62066B34205D901
:106CB000E42070BDE52070BDE42070BD002684F89E
:106CC000026155F82000001D2AF64BFA0028F4D185
:106CD00070BD0000D08D00202DE9F84307460C461A
:106CE000904604F1080520468DF660FA0346344EBE
:106CF00070680021A7F58042DFF8C8C0B2F5804F68
:106D000003D2DCF80010401A0121E218824202DDB1
:106D10000520BDE8F8833068421EC2F30B02821AD8
:106D200002F6FF72C2F3073211B1DCF8001000E086
:106D30000021DFF894C0DFF89490DCF800C0D9F8A7
:106D40000090ACEB090C96F80990A2EB09020CEB51
:106D5000C202101A401A001FE918814229DD0025DD
:106D60004FF4004911231F2249462846009570F62A
:106D700075FC0021084600F0E3FE40B113231F22FA
:106D800049460020009570F669FC0F20C1E7707A33
:106D900001F00EFC0028BCD112231F2249460095A9
:106DA00070F65CFC424621463846BDE8F84303F0E5
:106DB000FFBF424621463846BDE8F84303F0F8BF1E
:106DC00090470020B8350020C4350020BC35002095
:106DD00070B503F0ADFB40F21A4120B140F24C40D7
:106DE00003F016FA03E040F22E4003F011FA0D4CC6
:106DF000A07850B1E08803F01BFA0546208903F023
:106E000017FA294603F05AFB05E04FF461714FF47D
:106E10007A7003F053FBBDE8704002484A3002F03C
:106E200003BD0000307F002000214FF03040C160E2
:106E30008161C0F8D011C11741610162C0F8D81159
:106E400003496FF4806008600220FDF7F6BA000085
:106E500084A0004010B51248016821F0070141F0FC
:106E6000040101600A2008F6D1FB0D48843801684E
:106E700021F4807101600121002023F66DFE0120C4
:106E800019F60CFC07490220087003F019F80649AE
:106E9000322003F09FF8BDE810403220FDF7EBBA36
:106EA00090A80040FC7E00201B3D200010B5194832
:106EB0000068C0F30B0017490831096821F07F41D1
:106EC000401C00EE100ADFED140AB8EE400A60EE36
:106ED000200A00EE101A1149B8EE400A80EE801A1E
:106EE000B6EE000A31EE000ABCEEC00A10EE100A3F
:106EF000486002F077FC03F04BFB0948016841F45D
:106F00008071016006488430016821F0070101604A
:106F100010BD000004E400400024F44BFC7E00207F
:106F20000CA8004000B587B000F01EF803208DF8D3
:106F300000001D208DF8160001208DF817008DF837
:106F400018008DF81900044A04496846FEF700F855
:106F5000FDF7BEFD07B000BD616F2000CD6F2000C2
:106F60000320FFF725BD00001CB5144800904FF426
:106F7000806001901248032202704FF4E1310164F5
:106F8000426400218164C164016501234365017489
:106F9000202444614274037601711023836042719E
:106FA0000173084941638163022180F83C1080F835
:106FB0003D206A460449FFF79DFD1CBDB4810020B9
:106FC000B485002000900140AD6920000A460146CA
:106FD0004FF47A730320FFF757BE0000052110F12C
:106FE000190F01DC022110E000F114020F2A01D870
:106FF00003210AE00F2801D8042106E0A0F11402C1
:10700000192A02D932280CDB062106480268C2F38D
:1070100003328A4205D0026822F4704242EA01310A
:107020000160704714A8004010B50021084623F6FF
:1070300093FD012019F612FB0248816821F480714A
:10704000816010BD00A0004010B514480068C0F376
:107050000000002807D0114808380068C0F300007D
:1070600008B102F085FF0E480068C0F3000038B197
:107070000B4808380068C0F3000008B100F01CFCA1
:1070800002F014FF002807D001F0C6F9002803D051
:10709000BDE81040FFF7C8BF10BD000008E4004085
:1070A00008E5004010B502F001FF20B101F0B4F98D
:1070B00008B1012010BD002010BD10B502F078FF0E
:1070C00000F0A6FB10BD10B500F040FF02F0D8F9AB
:1070D00002F0E2FCBDE8104000F092B82DE9FC415E
:1070E00004468846164D4FF6FF76164F12E0296883
:1070F000082201EB0030694685F68CFB082802D097
:107100001020BDE8FC81BDF80000B04208D1207815
:10711000401C20702078797A8842E8D30020F0E77C
:1071200009489DF80010C170BDF8021081809DF8DB
:10713000011088F80010217841700020E1E700007C
:10714000BC35002090470020C835002010B51248FB
:10715000016821F0004101600F23011D0A6863F3FB
:107160001F720A600A6822F4E07242F4C0720A6078
:10717000016841F0004101600848016841F00101E7
:1071800001600749312002F025FF06494FF4003025
:10719000C1F8000110BD000004A9004088E20040D1
:1071A000253D200004E000E0F8B5EFF31085012054
:1071B00080F31088072000906846FDF7B9F8022098
:1071C000FDF7BEF8322008F621FA0B4C206840F09B
:1071D00002002060094E708908F618FA206820F035
:1071E00002002060B08908F611FA9DF80000FDF752
:1071F000A7F885F31088F8BD04A90040947F00200B
:10720000024901480860704761741000CC050020F5
:1072100030B40021114B01EBC10202EB420213F822
:107220002240012C15D103EB82020579147AAC427D
:107230000FD152680468A2420BD101EBC10000EBF0
:10724000400003EB8000816E002905D030BC022095
:107250000847491C0C29DED330BC70471487002036
:1072600030B40021114B01EBC10202EB420213F8D2
:107270002240012C15D103EB82020579147AAC422D
:107280000FD152680468A2420BD101EBC10000EBA0
:10729000400003EB8000816E002905D030BC002047
:1072A0000847491C0C29DED330BC704714870020E6
:1072B00070B500240D4E04EBC40000EB400016F83E
:1072C000201001290DD106EB80000546001D19F69E
:1072D0007DFD18B1012801D0002070BD281D1AF6CF
:1072E000F7FA641C0C2CE6D3012070BD1487002033
:1072F00030B40021114B01EBC10202EB420213F842
:107300002240012C15D103EB82020579147AAC429C
:107310000FD152680468A2420BD101EBC10000EB0F
:10732000400003EB8000816E002905D030BC0120B5
:107330000847491C0C29DED330BC70471487002055
:1073400010B592F6FBFB002800D0FEE710BD00B59B
:1073500000F00AF85DF804EB01F0EEB8014800789F
:10736000704700007CA0002030B5084C0125257036
:107370006060E2602361A16005488068884201D2B4
:10738000081A00E0401A606130BD00007CA00020B7
:10739000187F002010B501F0A9F80446182105480F
:1073A000FBF702FA034A002111702046BDE81040A5
:1073B00000F046B97CA00020F0B404460E462C48EC
:1073C0002C4FB9680578026244628C4201D9631A75
:1073D00000E00B1BFF689F4206D31346324621464E
:1073E000F0BC0020FFF7B3BF87699F4201D98361DA
:1073F000C261012D0AD0022D27D0032D36D11346AC
:1074000032462146F0BC0020FFF7A1BF44618C4208
:1074100003D90169491EC16002E00169491C81600C
:10742000D0E90212914209D21144490801610121B7
:10743000017001693046F0BC00F01EB802210170F5
:1074400081683046F0BC00F017B8C169914206D19E
:10745000134632462146F0BC0020FFF778BF0321D7
:107460000170C1693046F0BC00F006B8F0BC70474E
:1074700024A00020187F0020054A936A5B1C9362B9
:107480008AB2C1B20348044B406800F0D3BF000089
:1074900024A00020187F0020B973200070B5054695
:1074A0000D4C2C212046FBF77FF90020A06040F214
:1074B000FF10E060FF2222614FF0FF30A061A06A60
:1074C000401CA062012020700448E9B2044B4068CF
:1074D000BDE8704000F0AEBF24A00020187F00205F
:1074E000B97320002DE9F84307460D4690462E4C0F
:1074F000207801280BD0022813D00820E06101B0C9
:1075000043462A463946BDE8F043FFF720BFE7600F
:1075100040F2FF1121612846BDE8F843022200F045
:1075200079B8002600966761684600F03FF870B1B0
:10753000012810D002281FD003282DD00720E06199
:1075400043462A463946FFF702FFBDE8F88328463E
:10755000FFF7A4FFF9E70F2D06D23146A6600122FE
:10756000681C00F057F8F0E70520E06143462A4622
:107570003946FFF7ECFEE8E735B1A66001220021AD
:10758000681E00F047F8E0E70620E06143462A461F
:107590003946FFF7DCFED8E70098E06143462A460B
:1075A0003946FFF7D4FED0E704A0002010B5174BF2
:1075B00017490A698968154CDB6864698B4203D9ED
:1075C0008C4201D9022010BD8B4203D28C4201D2E1
:1075D000012010BD8B4201D95B1A00E0CB1A8C420E
:1075E00001D9611A00E0091B934203D3914201D3F0
:1075F000002010BD934201D2022010BD914201D261
:10760000012010BD02210160032010BD04A0002054
:10761000187F002030B4074B9C69641C9C61586043
:107620001A708AB2C1B20448044B406830BC00F002
:1076300001BF000004A00020187F0020E574200096
:1076400070B50546064C20212046FBF7ADF8002119
:10765000A1602846BDE870400122FFF7DBBF0000B3
:1076600004A00020F8B50E461F4C00250095E169E6
:10767000491CE1616660A260E1682161E0601B492C
:107680008B68834201D2C01A00E0181A61698142F6
:1076900001D96061A261684600F02AF858B101285A
:1076A0000ED0022814D0032818D00098A0622046DB
:1076B00000F0BFF8F8BDA562204600F0BAF8F8BDAA
:1076C000012084F820003046A16900F077F8F8BD69
:1076D000A1683046491C00F071F8F8BDA168304639
:1076E000491E00F06BF8F8BD50A00020187F002064
:1076F0002DE9F0432F4A304FB96800250026D368A2
:107700008B4201D95C1A00E0CC1AFF68A74202D371
:107710000020BDE8F083D2F82480B8F1010F10D02A
:1077200092F82040012C0ED0224CD2F81CC04FF011
:107730000109A769A468C4450BD3A74205D100205D
:10774000E7E70020E5E70020E3E782F8209001204A
:10775000DFE7BCF1010F11D9D2F810C08C4501D977
:107760008B4203D38C4509D28B4207D9A74201D162
:107770000020CEE782F820900120CAE78B4201D991
:10778000012600E0012545B1B4F5FF7F03D90921A9
:1077900001600420BDE70220BBE736B10CB1032035
:1077A000B7E70A2101600420B3E70B210160042040
:1077B000AFE7000050A00020187F00208AB2C1B2BD
:1077C0000248034B406800F035BE0000187F0020DF
:1077D0006576200070B504460E4615462C210948F2
:1077E000FAF7E2FF074B002183F82010491E596188
:1077F0005C620548AAB2F1B24068BDE87040034B34
:1078000000F018BE50A00020187F002065762000F0
:1078100010B500F0F1FD00280AD0FFF79FFD18B168
:10782000BDE8104000F028B8BDE81040FFF7B2BD39
:1078300010BD00B500F004F85DF804EB00F07CBE6C
:107840000B4901220A71826A8A60C269CA60C268F1
:107850000A6142684A6182688A61064AC068926821
:10786000904201D9801A00E0101AC86170470000E8
:1078700094A00020187F00202DE9F04100F036FE92
:10788000074600F045FE8046094C266809484569D0
:1078900020212046FAF788FF761C26600020207100
:1078A000424639462846BDE8F041FFF793BF000045
:1078B00094A00020187F002010B50E4C2069401CB9
:1078C000206100F03FFEE06000F010FE606000F01C
:1078D0001FFEA060084A002111606161E3692BB1BD
:1078E00082B22179E068BDE810401847BDE8104039
:1078F00000F022BEE49F002000E500402DE9F041A9
:1079000006460F461C4C4FF6FF75238C102B0AD3EE
:10791000208821466084CD835B1E0B841E22891C37
:107920002046FAF7CAFE608C324639468EF60EFFC4
:1079300010B10C20BDE8F081208C102804D3401C2D
:107940002084608CE08308E0618C24F81010208C87
:10795000401C2084608C401C608400F00FF80028DC
:10796000E8D0218C491E89B22184628C521E628427
:1079700024F81150DEE70000209E002010B5054AD3
:1079800024214FF420408EF6E1FE08B10C2010BDFA
:10799000002010BD209E00202DE9FC4116480468FF
:1079A0000834164E3078002802D000208EF6DCFB1A
:1079B000134D4FF6FF770822694620468EF6DEFB10
:1079C000BDF80000B84211D080B1BDF802008CF6BD
:1079D000EDFBBDF802100830084481B220468CF659
:1079E000C1FE044628688442E5D32C6830788EF6C0
:1079F000BBFB2046BDE8FC81BC350020B53500202E
:107A0000C435002008B51A48016821F070010160F2
:107A1000016821F0070141F004010160154909786E
:107A2000002909D0124984390A6842F480720A6038
:107A3000016821F007010160012001F089FB0020AD
:107A4000FDF734F801F08AFD80B100208DF80000C8
:107A5000A3208DF8010002208DF8020068468FF601
:107A600067F901F019FD01F0C1FD08BDFEE7000056
:107A700090A80040A47F002070B5044600BFFCF72A
:107A80004DFD05460120FCF7DBFD0948047024B9D3
:107A9000482208490848FAF755FE1DB90020FCF7AE
:107AA000CFFD02E00120FCF7CBFD00BF70BD000060
:107AB000AC7E00201C9F0020002000E010B507488D
:107AC00040680749486006480830402203490831A9
:107AD000FAF738FE03200249086010BDD49E00204A
