:020000040020DA
:1020000000000820ED212000CF3D200001601000DD
:10201000CD3D2000193D2000F93E200000000000C9
:10202000000000000000000000000000156010002B
:10203000993D200000000000D13D2000FD3D200022
:1020400000F002F800F0C2F80AA090E8000C824408
:102050008344AAF10107DA4501D100F0B7F8AFF2E5
:10206000090EBAE80F0013F0010F18BFFB1A43F076
:1020700001031847809D0000C09D00000A444FF0F6
:10208000000C10F8013B13F0070408BF10F8014BD7
:102090001D1108BF10F8015B641E05D010F8016B1C
:1020A000641E01F8016BF9D113F0080F1EBF10F880
:1020B000014BAD1C0C1B09D16D1E58BF01F801CBA3
:1020C000FAD505E014F8016B01F8016B6D1EF9D526
:1020D0009142D6D370470000103A24BF78C878C127
:1020E000FAD8520724BF30C830C144BF04680C601E
:1020F000704700000023002400250026103A28BF66
:1021000078C1FBD8520728BF30C148BF0B60704769
:102110006E2900F0EE83702900F0B581662909F080
:10212000FB82652909F0F882672909F0F5826129A7
:1021300009F0F48203681B0A28BF41F08001692975
:1021400000F02681642900F02381752900F02081A8
:102150006F2900F0EE84782900F08181E92900F0F0
:102160008984E42900F08684F52900F08384EF292E
:1021700000F0EB84F82900F080810368DB0928BFB8
:1021800041F08001632900F0F883732900F0FD839A
:10219000E32901F0C180F32901F0C68000207047D7
:1021A0001FB509F086FA01F0EFF8040000200021C5
:1021B00008F094FC401C60600020002108F078FCCE
:1021C000E06000F019FB1FBD10B510BDDFF80CD0AA
:1021D000FFF7E6FF06F0AAFA01F08CF900000820EC
:1021E00003B4FFF7F1FF03BC02F0AFF901488047E9
:1021F00001480047893E20009D88200003F026BD4D
:1022000058585247010000002655000000202000C9
:10221000002020007FED9247010100000000000037
:1022200000000000000000000000000000000000AE
:10223000000000000000000000000000000000009E
:102240007CB51D4616460C00009001D02044401E6F
:10225000074B7B442A4669460190304600F063FBF9
:1022600005461CB10020694600F070FB28467CBD85
:10227000010700000FB4044910B503AA029800F04A
:1022800089FB10BC5DF814FB5C7900200FB41CB511
:10229000084B06AA7B4469460090059800F043FB72
:1022A00004460020694600F051FB20461CBC5DF846
:1022B00014FB0000B50600000FB47CB50C0009AAA1
:1022C000009001D02044401E084B7B446946019099
:1022D000089800F028FB05461CB10020694600F074
:1022E00035FB28467CBC5DF814FB00008906000025
:1022F00070B5044685690068C10601D5302600E046
:102300002026C00707D070BDD4E901213046904790
:10231000206A401C20626D1EF6D570BD70B5044663
:1023200085690078C00707D170BDD4E9012120205C
:102330009047206A401C20626D1EF6D570BD70B5B6
:102340000C460546012A05D02878800600D5EA69A2
:10235000002302E0012305E05B1C934202D2E05C13
:102360000028F9D1A869E618C01AA861286A18449B
:1023700028622846FFF7BCFF04E0D5E9012114F8E4
:10238000010B9047B442F8D32846FFF7C7FF70BD52
:102390002DE9F0410646002410687529314616A53E
:1023A00010D000F03BFA002802DA404213A507E003
:1023B00031688A0701D512A502E0490704D511A5A5
:1023C000012401E000F033FA00210A2206F124077B
:1023D00009E0B0FBF2FCB0FBF2F302FB1C00303072
:1023E00078541846491C0028F3D123462A46304623
:1023F000BDE8F04100F024BA000000002D0000000C
:102400002B00000020000000F0B40D4601880905F3
:1024100002D5214C7C4402E01F4C7C440E34002148
:1024200000F1240608E002F00F071209E75D42EA16
:1024300003721B097754491C52EA0307F3D102784F
:102440000023120704D5702D06D009B102231134E0
:102450002246F0BC00F0F4B901231034F8E770B55F
:1024600004460D462146106800F0E1F9024629466F
:102470002046BDE870400023C6E7D21D22F00703C6
:10248000D3E90023C0E70368126843F02003036028
:102490000823C3610023B7E7BC9800002DE9F05F73
:1024A000894604464FF0000ADFF874B1FB44C0F8D7
:1024B00020A02046E1688847002874D0252806D04F
:1024C000D4E901219047206A401C2062F1E70026F0
:1024D0005F462046E16888472028054607DB312D06
:1024E00005D2781910F8200C08B10643F1E7B007BF
:1024F00001D526F00406C4F81CA00027C4F818A0D3
:102500002A2D09D0284602F019F838B304EB8708C1
:10251000303DC8F8185019E059F8041B204604EB68
:1025200087029161E1688847012F054618D1E0696B
:10253000002820DA26F020061DE0D8F8180000EB6D
:10254000800005EB40003038C8F818002046E168EC
:102550008847054601F0F2FF0028EED1012F0AD08E
:102560002E2D08D12046E16888477F1C0546022FA2
:1025700046F02006C4DBA069002803DA404246F09A
:102580000106A061F00701D026F010066C2D0BD0DB
:10259000682D09D04C2D39D06A2D35D0742D35D009
:1025A0007A2D33D016E038E0E1682F462046884780
:1025B000B842054609D16C2F26D04FF48060E168FF
:1025C000064320468847054604E06C2F1AD04FF496
:1025D000807006430DB3A5F14100192802D82035BB
:1025E00046F400664A462946204626604E46FFF7D6
:1025F0008FFD80B101280BD0F61D26F0070000F1F9
:10260000080956E74020E4E78020D8E70020D6E715
:1026100006F104094DE7284652E7206ABDE8F09F1D
:102620004C98000040EA010310B59B070FD1042A23
:102630000DD310C808C9121F9C42F8D020BA19BA8D
:10264000884201D9012010BD4FF0FF3010BD1AB1F2
:10265000D30703D0521C07E0002010BD10F8013B47
:1026600011F8014B1B1B07D110F8013B11F8014B6E
:102670001B1B01D1921EF1D1184610BD10B5431C91
:1026800002E010F8011B71B18107FAD14FF001325D
:1026900002C88C1A8C4314EAC211F9D0C01A0A0677
:1026A00003D0C01E10BDC01A10BD0A0401D0801E88
:1026B00010BD0902FCD0401E10BD032A40F230803C
:1026C00010F0030C00F0158011F8013BBCF1020F73
:1026D000624498BF11F801CB00F8013B38BF11F8F4
:1026E000013BA2F1040298BF00F801CB38BF00F80B
:1026F000013B11F0030300F02580083AC0F0088088
:1027000051F8043B083A51F804CBA0E80810F5E76B
:10271000121D5CBF51F8043B40F8043BAFF300804E
:10272000D20724BF11F8013B11F801CB48BF11F8C3
:10273000012B24BF00F8013B00F801CB48BF00F893
:10274000012B704710B5203AC0F00B80B1E818504B
:10275000203AA0E81850B1E81850A0E81850BFF48B
:10276000F5AF5FEA027C24BFB1E81850A0E818502A
:1027700044BF18C918C0BDE810405FEA827C24BF7E
:1027800051F8043B40F8043B08BF7047D20728BF0C
:1027900031F8023B48BF11F8012B28BF20F8023B5B
:1027A00048BF00F8012B70474FF0000200B51346F8
:1027B00094469646203922BFA0E80C50A0E80C5061
:1027C000B1F12001BFF4F7AF090728BFA0E80C5012
:1027D00048BF0CC05DF804EB890028BF40F8042B0B
:1027E00008BF704748BF20F8022B11F0804F18BF78
:1027F00000F8012B7047000070B5064C7C44064D74
:102800007D4403E0206820448047241DAC42F9D178
:1028100070BD0000609700006097000009684A05DD
:1028200001D540B27047C905FCD500B270470968B0
:102830004A0501D5C0B27047C905FCD580B27047C2
:102840002DE9F0470D4699469246044600F12408CA
:102850000168880604D5E06921F01001216000E0DC
:102860000120A84201DD471B00E00027A1697A1979
:1028700002EB0900081AA0612078C00602D42046A5
:10288000FFF736FD002608E0D4E901211AF806001A
:102890009047206A401C761C20624E45F4DB20786D
:1028A000C0060AD52046FFF723FD06E0D4E9012142
:1028B00030209047206A401C2062381EA7F1010793
:1028C000F4DC07E0D4E9012118F805009047206AFC
:1028D000401C2062281EA5F10105F3DC2046FFF70D
:1028E0001DFD2078000602D50220BDE8F0870120FA
:1028F000FBE711680268006A530501D508700AE019
:10290000D30501D5088006E0130603D5C217C1E937
:10291000000200E0086001207047000001694A1CC5
:1029200002610878704700B58FB0CDE90131002110
:10293000059105497944CDE9031011466846FFF732
:10294000ADFD0FB000BD0000E5FFFFFF0A6802F813
:10295000010B0A607047D1E900239A4202D2531C4E
:102960000B601070704710B5436913B1AFF300806E
:1029700001E0FFF7E4FC012010BD127800F1240112
:102980000A7000224A700122EDE711684FF0FF3211
:10299000E9E70000074B70B50D467B44FFF7C3FF26
:1029A0000446284600F0C4FC10B14FF0FF3070BD63
:1029B000204670BD3F3E00002DE9FF5F15468A4668
:1029C0000446DFF8AC80F8440027D8E900103E4602
:1029D000CDE9001010E03AF816106A4602A800F09F
:1029E000ABFC411C07D02178890603D5E269391870
:1029F00091420DD80744761C2078800602D5E06904
:102A0000B84205DDAE42E6DB3AF816000028E2D116
:102A1000A069C01BA0612046FFF76AFCD8E900103E
:102A2000CDE90010002017E03AF818106A4602A815
:102A300000F082FCB0F1FF3F81460BD000250DF184
:102A4000080B05E0D4E901211BF8050090476D1C37
:102A50004D45F7D308F10100B0428046E4DB206A1F
:102A6000384420622046FFF759FCBDE8FF9F000074
:102A7000469300002DE9F0418046D21D22F0070266
:102A80000025D2E90002F52915A614D0011E72F125
:102A9000000106DA0023D0EB030063EB020211A66B
:102AA00008E0D8F800108B0701D50FA602E049070F
:102AB00001D50EA601251146002408F1240704E0E3
:102AC00000F04EF830323A55641C50EA0102F7D15A
:102AD0002B46324621464046BDE8F041FFF7B0BEE6
:102AE000000000002D0000002B000000200000006E
:102AF00030B4002100F1240408E002F00705D208F8
:102B0000303542EA4372DB086554491C52EA03053A
:102B1000F3D10468002310A2250707D5A40600D42A
:102B200021B1C46901230DA2641EC46130BCFFF74A
:102B300087BE10B5044621461068FFF778FE0246AE
:102B40002046BDE810400023D2E7D21D22F0070145
:102B5000D1E90023CCE700000000000030000000B5
:102B600030B5B0F10A024FEA900E71F100034EEA5F
:102B7000817EB0EB0E0061EB91014FEA101E4EEA30
:102B8000017E10EB0E0041EB11114FEA102E4EEAC0
:102B9000016E10EB0E0041EB11214FEA104E4EEA90
:102BA000014E10EB0E0041EB1141401841F10001C4
:102BB0004FEAD00040EA41704FEAD10110EB8005A6
:102BC0004FEA810444EA907444EB01046D1944EB2C
:102BD0000404521BA3414FF0000348BF0A3200D542
:102BE00030BD401C41F1000130BD70472DE9FF4F61
:102BF0000C461E464FF0FF378BB0D2E90001DDF8DE
:102C000060800A908A46C1F30A5505B93D46002105
:102C100008464FF00000BAF1000F00F4400005DA5A
:102C200000EB80004FF4400101EA50004FEA905958
:102C3000B9F1010F00DDB9460A9850EA4A000ED0FA
:102C400044F61050A5F2FF3545432F14B8F1000F9C
:102C50001ED07542291E1EDDC9F100021CE0B8F12C
:102C6000010F4FF0000001D0302103E0F24305E0F6
:102C70002154401CB042FBDB30460022002121548D
:102C80000B99C1F80880C1E900200FB0BDE8F08FB2
:102C9000BD1B6D1CDEE74A4600DA694206A800F05B
:102CA000B7FB06AB93E8070003AB83E80700504689
:102CB0000A9900F069FC8DE80700A0F500501F3864
:102CC00000900398002D0ADD42F21F014A46084495
:102CD000002303A90390684600F0D2FE09E0A0F5A6
:102CE00000504A461F38002303A90390684600F0AD
:102CF000DCFE8DE807000004000C03D04FF0FF302D
:102D0000410800E01046B8F1000F03D00022009205
:102D100015461EE0751E05D4FFF722FF30326255BE
:102D20006D1EF9D5B3460122084302D000227F1C54
:102D300004E02078302801D100227F1E002A099764
:102D400084D01DE0112D07DAFFF70AFF30326255FB
:102D50006D1C50EA0102F5D1084302D00098C8B1B9
:102D60000EE00021681E05E0235C625C635422547F
:102D7000401E491C8142F7DBAB46A81B401E099050
:102D8000002004F80B000B98099AC0F80880C0E9ED
:102D9000002B7AE711264FF0000857E72DE9F04F96
:102DA00088460446D21D22F0070191B0D1E9000106
:102DB000CDE90A0101F0A1F802460B98C00F01D03D
:102DC0002D2007E02068810701D52B2002E020217B
:102DD00001EAC000032A099001D0072A05DB034657
:102DE0004146204600F0D4FA0BE12078800601D558
:102DF000E06900E00620B8F1650F814606D0B8F121
:102E0000660F18D0B8F1670F70D131E00020B9F12A
:102E1000110F009001DB112301E009F101030AAA5F
:102E200001A90CA8FFF7E2FEDDE90C70002609F10C
:102E30000105834647E001204B4600904FF00047D4
:102E40000AAA01A90CA8FFF7D1FEDDE90DB00C9983
:102E50005D46002610B909F101000D18B9EB050017
:102E600003D4C0F1FF3609F10105A5EB09002BE001
:102E7000B9F1010F01DA4FF001090020B9F1110F8A
:102E80000090484601DD112300E003460AAA01A98B
:102E90000CA8FFF7ABFEDDE90C704D46002683461B
:102EA000207800070AD4AB4500DA5D4601A8012D61
:102EB00004DD411911F8011C302907D04F4502DA11
:102EC00017F1040F04DA012082460FE06D1EEEE7D1
:102ED000002F02DCED1B3E4403E0781CA84200DD1D
:102EE0007D1CB81B00F1010A4FF000472078000755
:102EF00003D4AA4501DB4FF0FF3A0021B7F1004FA0
:102F00000DF143088DF8431024D002202B23002F0D
:102F100001DA7F422D230A21021EA0F1010000DC0C
:102F20005FB197FBF1FC97FBF1F201FB1C7C1746AC
:102F30000CF1300C08F801CDEEE7A8F101000370A8
:102F40002188090501D5452100E06521A0F101088E
:102F500000F8011C09980FA9A1EB0807FF1D00B19B
:102F60000120411901EBEA70A1693844081A401E9A
:102F7000A0612078C00602D42046FFF7B9F909986D
:102F800028B1D4E901219047206A401C20622078B2
:102F9000C00622D52046FFF7ABF91EE0002E04DB69
:102FA000B34502DD01A8805D00E03020D4E90121B5
:102FB0009047206A401C2062761CAAF101005FEA5B
:102FC000000A0AD100F0E0F9C0680168405CD4E969
:102FD00001219047206A401C2062281EA5F10105AE
:102FE000DCDC07E0D4E9012118F8010B9047206AE6
:102FF000401C2062381EA7F10107F3DC2046FFF7D2
:103000008DF9032011B041E62DE9F04F04460D463D
:10301000D21D22F0070089B0D0E900974846394612
:1030200000F06BFF0246F80F01D02D2307E0206867
:10303000810701D52B2302E0202101EAC0038DF88E
:1030400020300BB1012000E00020032A824601D08D
:10305000072A04DB2946204600F09AF93FE1207850
:10306000800601D40D2500E0E569C7F30A560D2D51
:1030700049DA00214FEA175B08464FF00000002FA5
:1030800000F4400007DA00EB80004FF4400100EB51
:10309000D07001EA60008115012901DD4FF0FF3198
:1030A00000224FEA850CBCF1180F06D31346ACF191
:1030B00018004FF08052C24003E04FF4801323FA0F
:1030C0000CF30CF10C0CBCF1200F04D3ACF1200C70
:1030D00009FA0CF001E007FA0CF000294FF0004863
:1030E00001DD18B90FE00ED140450CD319EB0209F0
:1030F0005F4121B9404502D19F4329EA0209BBEB58
:10310000175F00D0761C2088000502D57B487844E4
:1031100002E07A487844193808AA302302F80A30C5
:10312000037C0AF10101002E0AF1020A53546A4697
:1031300002DC4FF0300101E04FF031014FF00108A7
:103140008DF8001002D0A6F2FF3603E059EA4701DD
:1031500000D06B4E002D02DC2178090704D54FF01A
:1031600002082E218DF80110C44600210BE0C7F3A0
:1031700003433F01C35C491C6D1E02F8083005295A
:1031800008F1010801DA002DF1DC00210CE000EB70
:103190001973491C1B786D1E082902F808304FEA84
:1031A000091908F1010801DA002DF0DC21688B060D
:1031B00002D516E0A8F10108E04505DD02EB0803A1
:1031C00013F8013C302BF5D0B8F1000F09DD02EB0C
:1031D000080313F8013C2E2B03D1090701D4A8F1F1
:1031E0000108002D05DD3E2102F808106D1E08F1D2
:1031F0000108407C002E02F8080008F1010804DAFA
:103200002D20764202F8080002E02B2002F8080088
:103210000A214FF47A70864208F101080BDB96FB15
:10322000F0F3303302F8083096FBF0F308F10108B0
:1032300000FB136601E0642E0CDB642096FBF0F3C8
:10324000303302F8083096FBF0F308F1010800FB78
:10325000136601E00A2E06DB96FBF1F0303002F82F
:10326000080008F1010896FBF1F001FB1060303016
:1032700002F80800A16908F1010808EB050202EB59
:103280000A00081AA0612078C00602D42046FFF781
:103290002FF8216A08AE01EB0A00206204E0D4E9AD
:1032A000012116F8010B9047BAF1010AF7D22078F4
:1032B000C00602D52046FFF71BF86E4609E016F857
:1032C000010B3E280FD0D4E901219047206A401C11
:1032D0002062B8F10108F2D22046FFF71FF809B0CA
:1032E0000320BDE8F08F206A2844206203E0D4E97F
:1032F0000121302090476D1EEBD3F8E7198C0000B8
:1033000002FCFFFF10B5436913B1AFF3008001E089
:10331000FFF752FB012010BD128800F124018284C6
:103320000022C2840122EDE711684FF0FF32E9E785
:10333000007B00F08000704770B516460C460546CD
:1033400000F01AF8036893F80101012806D0FF2C59
:103350000FD8185D68B101202C7070BDD3F807013B
:103360003246214603F2071303442846BDE8704065
:1033700018474FF0FF3070BD10B500F005F8001D84
:1033800010BD00BF5977000000487047F48A002044
:103390002DE9F0411F46044603260168072A01F47F
:1033A000006004DB08B116A505E016A503E008B12E
:1033B00015A500E015A521F010002060A069C01E31
:1033C000A0610FB1401EA0612046FEF791FF4FB1F2
:1033D000D4E9012138469047206A401C2062C01C75
:1033E000206206E0206AFAE7D4E9012115F8010B12
:1033F0009047761EF8D22046FEF790FFBDE8F08198
:103400004E414E006E616E00494E4600696E660088
:103410002DE9F047814616468AB0354878440DC8F4
:103420008DE80D0032487844801C03AC0DC884E858
:103430000D0041F69B300844372190FBF1F290FBE0
:10344000F1F5A5F1800501FB12041B3C02D5644295
:10345000012000E00020DFF898A080460027FA4411
:10346000AAF1BE0A0EE0E0070AD03246684607EB32
:10347000470101230AEB810100F017FB8DE80700EB
:1034800064107F1C002CEED1194F7F44AE3F19E031
:10349000E80715D007EB04100DF1180A90E80E00AC
:1034A0008AE80E00C068F04201D1981908903246AF
:1034B000012306A903A800F0F8FA03AB83E807008C
:1034C0006D10641C002DE3D14FF0010332466946B4
:1034D000B8F1000F03A802D000F0D2FA01E000F02A
:1034E000E4FAC9E90001C9F808200AB0BDE8F0878C
:1034F0009C89000010B50446AFF300802046BDE86B
:103500001040FEF76DBE00004FF0013C50F8042B58
:1035100051F8043B9A4221D1A2EB0C03934313EAE6
:10352000CC1317D150F8042B51F8043B9A4215D113
:10353000A2EB0C03934313EACC130BD150F8042BEA
:1035400051F8043B9A4209D1A2EB0C03934313EACE
:10355000CC13DBD04FF00000704700BFD01A01BA87
:10356000B1FA81F101F0180122FA01F0CB40C1F16A
:103570002001DBB2C0B2C01A2CFA01F3D11A914378
:1035800011EAC311E6D170475FEA400C08BF91F021
:10359000000F4FEA8C234FEAC12243EA51514FEA10
:1035A0001C5018BF00F5F0404FEA300018BF41F042
:1035B00000415FEA6C5C00F02980BCF1FF3F08BF6E
:1035C00040F080407047130C06BF12044FF0100CFF
:1035D0004FF0000C130E04BF12020CF1080C130F75
:1035E00004BF12010CF1040C930F04BF92000CF104
:1035F000020CD30F04BF52000CF1010C11464FF026
:103600000002A0F11F00A0EB0C00704711F0004F6A
:1036100008BF704731F000413FF4D5AF0B0C06BF37
:1036200009044FF0100C4FF0000C0B0E04BF090200
:103630000CF1080C0B0F04BF09010CF1040C8B0FEB
:1036400004BF89000CF1020CCB0F04BF49000CF140
:10365000010CCCF12003A0EB0C0022FA03F302FAD8
:103660000CF241EA030100F10100704720F07F4CA9
:1036700080EA030023F07F47ACEB070303F57C539C
:1036800000F0004003F1FF032DE980494FEA154B9C
:1036900009B44FEA144325EA0B4E24EA03480FF21B
:1036A000042606EB132749083E785FEA320203FB43
:1036B0000667C7F5000707FB06F64FEA54374FEADF
:1036C000D64606F1020607FB066CCCF1005C4FEA19
:1036D0001C472CEA074C07FB06F40CFB06F504EB31
:1036E00015464FEA961634BF00204FF000404FEACF
:1036F000D13706FB07FC4FEA1C4C0CFB0BF7D21B27
:1037000003FB0CF761EB07010CFB0EF7B0EB074076
:1037100072EB17420CFB08F734BFA2EB0742B2EB87
:10372000074261EB17414FEA0C444FEA910706FB51
:1037300007FC4FEA1C4C0CFB0BF7B0EBC74072EBDD
:10374000573203FB0CF734BFA2EBC742B2EBC742C0
:1037500061EB57310CFB0EF7B0EBC70072EB577201
:103760000CFB08F734BFA2EBC702B2EBC70261EB58
:103770005771039F4FEA816141EA921104EBCC0437
:103780004FEAD1374FEA826206FB07FC42EA901209
:103790004FEA80604FEA1C4C0CFB0BF7D21B03FB7B
:1037A0000CF761EB07010CFB0EF7B0EB074072EB77
:1037B00017420CFB08F734BFA2EB0742B2EB0742FB
:1037C00061EB17414FEA8C554FEA910704EB9C24BB
:1037D00006FB07FC4FEA1C4C0CFB0BF7B0EBC74099
:1037E00072EB573203FB0CF734BFA2EBC742B2EBCC
:1037F000C74261EB57310CFB0EF7B0EBC70072EB21
:1038000057720CFB08F734BFA2EBC702B2EBC7023A
:1038100061EB577115EB4C254FEA816141EA92113A
:103820004FEA82624FEAD13742EA901206FB07FC68
:1038300044F100044FEA80604FEA1C4C0CFB0BF78C
:10384000D21B03FB0CF761EB07010CFB0EF7B0EB8F
:10385000074072EB17420CFB08F734BFA2EB07429C
:10386000B2EB074261EB174115EB1C154FEA8131B2
:1038700041EA92414FEA823242EA90424FEA803076
:103880004FEA0C7644F1000448EA03434EEA0B4841
:103890004FF0000EB2EB080C71EB030724BF624639
:1038A00039464EEB0E0E4FF0000B001852414941C5
:1038B0004BEB0B0BB2EB080C71EB03077BF1000B2E
:1038C00024BF624639464EEB0E0E4FF0000B001837
:1038D000524149414BEB0B0BB2EB080C71EB030768
:1038E0007BF1000B24BF624639464EEB0E0E51EAC7
:1038F000020718BF46F0010616EB0E7655F10002DE
:1039000054F1000103D5BDE88901BDE80088BDE898
:103910008901BDE80048B619524141EB0101A3F10C
:103920000103704780807F7E7D7C7B7A7978777613
:1039300076757473727171706F6E6E6D6C6C6B6A8C
:103940006A6968686766666564646363626161602A
:10395000605F5F5E5E5D5D5C5C5B5B5A5A595958A7
:103960005857575656555555545453535252525111
:10397000515050504F4F4F4E4E4D4D4D4C4C4C4B67
:103980004B4B4A4A4A4949494848484747474746AE
:1039900046464545454444444443434343424242EA
:1039A00042414141002B9C4630D477002BD01CB5BE
:1039B0004FEA370703B44FF010004FF01001BAF18F
:1039C000000F06D0BCF1000FDCBF40F0080040F053
:1039D00008014FF000000FBCBDE810400BF1010BD7
:1039E000BBF1010F08BF5FEA170722BF12F1010206
:1039F00011F101014FF0004143F1000300F00040DC
:103A000043EA00007047F9D35708D0E746EA064674
:103A100013F1400F4FEA16461FDD13F1200FDFBFF1
:103A200016430A46002120335B42BED0C3F1200773
:103A300046EA064602FA07F74FEA164646EA07063E
:103A4000C3F1200722FA03F201FA07F721FA03F182
:103A50004FF0000342EA0702A7E746EA020646EAF9
:103A600006464FEA164646EA0106BCBF46EA064647
:103A7000360C4FF000034FF000024FF0000194E7C6
:103A80002DE9804C9A46934670B491E8380007C8F7
:103A900031EA400C48BF34EA430C03D5FFF7E6FD9A
:103AA000FFF780FFF0BCBDE8008C2DE9804C9A4602
:103AB000934670B491E8380007C810F0804F08BFF3
:103AC00013F0804F03D100F005F8FFF76BFFF0BC57
:103AD000BDE8008C20F07F4780EA030023F07F4C94
:103AE00007EB0C03A3F57C5300F00040A3F1FE03A9
:103AF00092F0000F00F0B38095F0000F00F0778097
:103B00002DE901494FEA11404FEA144621EA0048E5
:103B100000FB06FC24EA064708FB06F607FB08F84C
:103B200000FB07F718EB06484CEB164C4FEA124B1C
:103B300018EB07484FEA15464CEB174022EA0B4EAC
:103B40000BFB06FC25EA06470EFB06F607FB0EFEFE
:103B50000BFB07F71EEB064E4CEB164C4FF0000626
:103B60001EEB074E4CEB174B18EB0B0840F1000017
:103B700018EB0E0B58EB000840F100008F1A4FF0C5
:103B800000013CBFC943661B14BFB5EB040C002108
:103B90003CBFC943F61B4FEA17444EEA8E0E27EA94
:103BA00004454FEA1C4704FB07622CEA074C05FB5F
:103BB00007F70CFB05F604FB0CFC16EB074642EB83
:103BC000174216EB0C4642EB1C421BEB060658EB69
:103BD0000202414146EA9E0601D5BDE80189B619B7
:103BE000524141EB0101A3F10103BDE801894FEA14
:103BF00014454FEA114724EA054621EA074C05FB24
:103C000007F406FB07F70CFB06F105FB0CFC11EBB8
:103C1000074144EB17444FEA124711EB0C4144EBC8
:103C20001C4422EA074C05FB07F206FB07F70CFBD6
:103C300006F605FB0CFC16EB074642EB174216EBAB
:103C40000C4642EB1C456A1854F1000148BF70470E
:103C5000B619524141EB0101A3F10103704795F000
:103C6000000F37D04FEA11424FEA144721EA0246CB
:103C700024EA074C02FB07F106FB07F70CFB06F4EE
:103C800002FB0CFC14EB074441EB17414FEA1547CC
:103C900014EB0C4441EB1C4125EA074C02FB07F5F1
:103CA00006FB07F70CFB06F602FB0CFC16EB0746BF
:103CB00045EB174516EB0C4645EB1C42121951F12A
:103CC000000148BF7047B619524141EB0101A3F111
:103CD000010370474FEA14454FEA114724EA0546AD
:103CE00021EA074C05FB07F106FB07F70CFB06F280
:103CF0004FF0000605FB0CFC12EB074241EB1741AD
:103D000012EB0C4251EB1C4148BF7047921841EB3B
:103D10000101A3F101037047FEE710B502F0D0F8EE
:103D200010BD000070B503201749096841F38001F8
:103D3000491C164D00290CD113490C310968C1F3F7
:103D4000000131B110498C39096801F0070188433D
:103D500003D02869401C286170BD0D4C206820F0FC
:103D600001002060206840F00400206009494FF401
:103D70000030086002F054F9E868401CE8602068F0
:103D800040F00100206070BDD4A40040E47A00201F
:103D900088E2004084E200E0FEE700000748006897
:103DA000C00601D50648704706480068064900F479
:103DB000E02001EB903000687047000084E3004091
:103DC00000D8B80500A0004094BC2000FEE7FEE744
:103DD000FEE726F6E3BE000005280CD2064A11686D
:103DE00001F4E021B1EB004F05D0116821F4E0218E
:103DF00041EA00401060704700A00040FEE700006C
:103E00000249096801F007010170704700A00040F5
:103E100070B50446072C20D2104E306800F0070021
:103E2000A04214D0032004F035FBF06820F0070511
:103E300045F00100F06000BF00BF00BF00BF20469A
:103E400004F028FB064850F824002843F06004489A
:103E500004491C3850F82400086070BD00A00040E0
:103E600078BC20006003002004480068044900F08A
:103E7000070051F8200003490860704700A0004087
:103E80005CBC2000600300200248016841F470011E
:103E90000160704788ED00E002480068001D03F0F3
:103EA00019BC00008C84002002484068001D03F00B
:103EB00011BC00008C84002002488068001D03F0C3
:103EC00009BC00008C8400200248C068001D03F07B
:103ED00001BC00008C84002002480069001D03F032
:103EE000F9BB00008C84002002484069001D03F0EB
:103EF000F1BB00008C840020FEE703B40198410070
:103F0000009850EAC12018BF04204A0D18BF40F0A5
:103F1000010040F2FF72B2EB515F08BF40F00200B7
:103F2000012808BF052002B07047002809DB00F017
:103F30001F02012191404009800000F1E020C0F8FB
:103F400080127047002809DB00F01F020121914018
:103F50004009800000F1E020C0F88012704700287E
:103F60000DDB00F01F02012191404009800000F1AB
:103F7000E020C0F88011BFF34F8FBFF36F8F704701
:103F8000002809DB00F01F02012191404009800058
:103F900000F1E020C0F800117047002809DB00F0B4
:103FA0001F02012191404009800000F1E020C0F88B
:103FB00000117047002804DB00F1E02090F80004B5
:103FC000704700F00F0000F1E02090F8140D7047EA
:103FD000002804DB00F1E02090F80004704700F0B6
:103FE0000F0000F1E02090F8140D7047002804DB6A
:103FF00000F1E02090F80004704700F00F0000F19D
:10400000E02090F8140D704702480068C0F30220C9
:10401000704700000CED00E002480068C0F3022089
:10402000704700000CED00E0EFF3108070470000D7
:104030002DE9F0412DED020B9FED3D0B2DED028B97
:104040009FED3D8BDDE90254C4F30A50A0F2FF3628
:10405000142E37DA002E18DA53EC102B9DED020BDC
:1040600051EC100B06F05CFD53EC182B07F054F9E3
:1040700057D2002CBCBF4FF00044002551DB54EA5E
:10408000050018BF2E4C1BD14BE02E4820FA06F736
:1040900004EA070028431FD053EC102B9DED020BC0
:1040A00051EC100B06F03CFD53EC182B07F034F9E3
:1040B00037D2002C03DD4FF48010F0400444BC43A1
:1040C00000252EE0332E07DCA6F114004FF0FF315F
:1040D00021FA00F73D4206D19DED020BBDEC028BAB
:1040E00002B0BDE8F08153EC102B9DED020B51ECBA
:1040F000100B07F047F953EC182B07F00DF910D20D
:10410000002C0DDD142E08BF641C09D0C6F134004C
:10411000012101FA00F02844A84238BF641C05467A
:10412000BD43CDE902549DED020BD7E7000000002E
:104130009C7500883CE4377E000000000000000011
:104140000000F03FFFFF0F0080F310887047000071
:104150002DE9F74F07460298DFF888A1DFF888813C
:104160004FEA500B5C46019D6048CAF800003F20B2
:10417000D8F8041060F30501C8F80410D8F804005A
:1041800020F48030C8F80400DAF8000020F4700051
:1041900040EA0750CAF80000DAF8000020F4702066
:1041A00040EA0740CAF800000D2F05D1DAF80000F8
:1041B00040F40040CAF800000E2F05D1DAF80000E4
:1041C00040F48040CAF80000DAF8000040F40050E3
:1041D000CAF80000DAF8000020F06050CAF80000C9
:1041E000DAF8000020F00F0040F00300CAF80000E9
:1041F000002000F0CFF8012871D1DAF8000040F07B
:104200008040CAF80000002008E0D8F8081041F407
:104210008031C8F80810401C411C05D0D8F808109F
:10422000C1F300210029F0D1072000F0B3F80128E4
:1042300055D141E000264FF47A7924E04E451ED94D
:10424000DAF8000020F08040CAF80000DAF8000038
:1042500040F00040CAF80000DAF8000020F000400A
:10426000CAF80000002000F095F8012837D1204955
:10427000086A401C086205200BF6C8F972E70120A5
:104280000BF6C4F9761CD8F80800C0F3002000280B
:10429000D4D0D8F8080000F07F02A24200D922460C
:1042A000002006E0D8F800102980090C69802D1D37
:1042B000401C9042F6D3A41A002CBBD10298C00730
:1042C00008D0D8F80800C0F300200028F9D0D8F8AA
:1042D00000002880BDE8FE4F002000F05BB8BDE87C
:1042E000FE8F000000A8004000E000400A07080719
:1042F000E47A00202DE9F041044615480021C0F879
:10430000941001214161134D686A134EF06200F070
:10431000010149420140C80512D440F2011704E0EE
:1043200044B1641E01200BF671F9A869B84204D1AA
:10433000012003E00020BDE8F08100200028EFD03C
:104340000648006870626868B0620120F3E7000008
:1043500000D01D4200E00040E47A002000A80040A8
:1043600009480A49826A4A60094B426A1A60808D8C
:1043700000F0010252420240D00503D4086A20F046
:104380000100086270470000E47A002000E000406D
:1043900000A800402DE9F0410546114FF868C0F330
:1043A0000240A84202D10120BDE8F081F86820F067
:1043B00007002843F86000244FF6FF76F868C0F342
:1043C0000240A84205D001200BF620F9641CB4423B
:1043D000F4D3B44201D10020E6E70120E4E7000075
:1043E00000E00040F0B506462DED068B89B00D4685
:1043F0009FED459B202101A8FEF7D6F9B0EE498A32
:10440000F0EE698A4248C08B06F0F3FD9FED411B38
:1044100053EC112B06F038FC41EC1A0B102201A9C9
:104420003046FFF795FE002401AF04F1080037F88D
:10443000100006F0DEFD53EC182B06F071FB41EC8A
:10444000180B641CE4B2082CEFD351EC180B9FED51
:10445000330B53EC102B06F061FE41EC180B0D2EC4
:1044600002D00E2E29D046E09FED2E0B51EC100B02
:1044700006F04AFB41EC190B688806F0BAFD53ECD4
:10448000192B06F04BFE41EC190B288806F0B1FD04
:1044900053EC182B06F076FF53EC192B06F0F4FBC7
:1044A0009FED221B53EC112B06F0EEFB53EC1A2B65
:1044B00006F036FB41EC190B1DE09FED1E0B51EC95
:1044C000100B06F021FB41EC190B688806F091FDFA
:1044D00041EC1A0BA88806F08CFD53EC182B06F063
:1044E00051FF53EC1A2B06F0CFFB53EC192B06F0BF
:1044F00015FE41EC190B09B0B0EE490AF0EE690A5D
:10450000BDEC068BF0BD00000000000000000000C4
:10451000B0450020000000000000594000000000ED
:104520000000C03F000000000000004079E9263193
:1045300008AC5CBFB76DDBB66DDB0E4030380A28C7
:1045400001D20120704700207047704710B501F07C
:1045500081FC10BD04F054BE70B504460D462946DA
:10456000204605F05DFD2946204604F0C1F82946A5
:10457000204604F08FFA70BD03490A6822F4C06235
:1045800042EA40200860704704A8004006460F46F3
:10459000154672B63846FEF771F8402801D940201A
:1045A00002E03846FEF76AF880463046FEF766F8C5
:1045B000402801D9402002E03046FEF75FF804466B
:1045C0009C211048FEF7F0F8424639460D48FEF7A8
:1045D00074F80C48224631465C30FEF76EF8094804
:1045E0004FF0AA31016445644FF0BB3181644FF054
:1045F000CC3101654FF0DD318165002000F004F819
:10460000FEE700003887002030B5ADF20C4D0446BF
:104610004FF4806103A8FEF7C7F8194D202085F8F4
:104620003F0085F89B003CB12846012C436DC26CCD
:1046300009D0022C0CD00FE0114A12A15C3203A861
:10464000FDF724FE08E012A103A8FDF71FFE03E01A
:1046500017A103A8FDF71AFE03A90CA2686CCDE907
:104660000121009019A3064A19A1002000F04AFD7B
:10467000012C01D000F0FEFC0DF20C4D30BD00000D
:10468000388700205B4552524F525D202573000051
:104690005B5741524E494E475D20506172616D300B
:1046A0003A25642C506172616D313A256400000036
:1046B0005B504152414D5D20506172616D303A2531
:1046C000642C506172616D313A2564000000000075
:1046D0006170705F6173736572742E630000000017
:1046E000014895F6DDB800007079002006460F46B7
:1046F00090461D4672B64046FDF7C0FF402801D9DE
:10470000402002E04046FDF7B9FF04469C210D48D9
:10471000FEF74AF8224641460A48FDF7CEFF09480F
:104720004FF05531016445644FF066318164C664D1
:104730004FF0773101654765C94381650220FFF776
:1047400063FFFEE7388700202DE9F04106460F465B
:1047500090461D464046FDF791FF402801D9402074
:1047600002E04046FDF78AFF04469C210D48FEF713
:104770001BF8224641460B48FDF79FFF09484FF0C2
:1047800011310164456449008164C6644FF03331DE
:10479000016547654FF044318165BDE8F041012076
:1047A000FFF732BF388700202DE9F041014600298C
:1047B0001BD000240F4E0E4A357814E002EB041093
:1047C0000F780378BB420CD14B684068034208D095
:1047D000707808B900F02CFC2046BDE8F04100F0EC
:1047E0004FBB641CE4B2AC42E8D3BDE8F0810000EA
:1047F000DC850020607900207CB505460E46002D42
:1048000001D0002418E0E5207CBD05EB04104168D0
:104810000091017A8DF80410417A8DF80510072176
:104820008DF80610C26800780023694600F008F988
:104830000028E9D1641CE4B2B442E6D300207CBD78
:104840003EB504460D46204603F054F98DF800505D
:10485000ADB1218C628C891AADF80410094A52F866
:1048600020108A314B88ADF8083000230B7052F8C5
:1048700020000168002901D0684688473EBD216CB0
:104880000191EBE7C882002070B504460D46002C6C
:1048900004D02078062803D3E82070BDE52070BD41
:1048A0002E4A04F1400142F82010201D03F034F993
:1048B0000028F4D1607884F8BC00201DC4F8C00042
:1048C0002564182204F128014430FDF73BFF2078CD
:1048D000234D05EBC0004068606404F144000646C7
:1048E00002F00DFA0028DAD1304602F0B5FA0028BD
:1048F000D5D102220321A5F1100004F011FD012001
:1049000084F8C800002084F8CA0016490E2004F07C
:10491000B1FE15490F2004F0ADFE14493A2004F011
:10492000A9FE13493B2004F0A5FE12493C2004F0E7
:10493000A1FE11493D2004F09DFE207805EBC0004A
:1049400090F9010022F626FD207805EBC00090F9D1
:10495000010022F63DFD002070BD0000C88200204D
:1049600048B72000276210001D621000136210007B
:1049700009621000FF611000F56110002DE9FE438F
:10498000DDE90A670C9C062802D3E820BDE8FE8317
:10499000DFF848C05CF820507DB195F88880B8F108
:1049A000000F0AD05EB157B1B4F1FF3F09D044F611
:1049B0002068444505D9E420E8E7E920E6E7E4205B
:1049C000E4E7A5F88C10CDE9006702945CF82000BC
:1049D000001D02F0BAFC0028D8D1D7E7C882002019
:1049E00010B502460846052A25D2DFE802F0030387
:1049F00003111900114951F832200104090C05D0A6
:104A000022B10146104602F03FF910E0E42010BD4B
:104A100010F0FF0F02D002F0E3F808E0E42010BD30
:104A200010F0FF0F05D00146002022F657FC0020B1
:104A300010BDE42010BDE62010BD00008CB72000A2
:104A40002DE9F05F05460C469046994626680027FA
:104A5000042D11D031462846FFF7C2FF21462846D3
:104A600000F05EF8002808D1032D08D04FF0100A9E
:104A70002807070E002448E0E620BDE8F09F4FF02D
:104A8000080AF7E7F0073DD03DB1012D05D0022D12
:104A900003D0032D21D0E620EFE71E4800EBC50030
:104AA00090F904B0BBF1000F15D0EFF31081012095
:104AB00080F31088184AE01942F8308002EBC000F9
:104AC000C0F8049081F31088584622F663FC5846DB
:104AD00022F67EFC16E0E420CFE7EFF31081012000
:104AE00080F310880D4AE01942F8308002EBC000D4
:104AF000C0F8049081F310881B2022F64BFC1B2089
:104B000022F666FC7608641CE4B25445BAD3002051
:104B1000B3E700008CB720003C8300204C840020C9
:104B200070B58EB005460C46474991E84D00CDE979
:104B30000A02CDE90C36D1E90523086906AEC96938
:104B40000DC6099114224049203101A8FDF7FAFD54
:104B5000D4B13E49062004F08DFD3D49072004F004
:104B600089FD3C491B2004F085FD3B49122004F0DF
:104B700081FD35493C39A1F12C02052D61D2DFE8D8
:104B800005F0060606213900E5200EB070BD20793B
:104B900031F810000B90607932F810000C90A07979
:104BA0000D9020680A902848543850F83500218824
:104BB0000904090C04D018B10AA902F08FF839E0F1
:104BC000E420E2E7207901EB4000808A07906079D9
:104BD00002EB4000C0880890A079099020680690F8
:104BE000207810F0FF0F03D006A801F0FBFF21E0B2
:104BF000E420CAE72079031F042B01D8E720C4E78B
:104C0000022819D001200290207901EB4000008D8C
:104C10000390607902EB400080890490A0790590B0
:104C200020680190207810F0FF0F08D001A9002023
:104C300022F664FB0020A8E702200290E4E7E420CB
:104C4000A3E7E620A1E70000E0B72000C162100062
:104C5000BB621000B7621000B16210000246002073
:104C6000052A11D2DFE802F0030303090C0007480C
:104C700050F8320089B21EF6ACBF88B21AF692BE66
:104C800089B2002022F63CBB704700008CB72000A0
:104C900010B50B461146002903D0012901D0E420AC
:104CA00010BD05281CD2DFE800F00303030F13003A
:104CB0000C4A52F8300028B19BB20A4619461EF63B
:104CC0009BFF0BE0E42010BD98B21AF68BFE05E0C6
:104CD00098B20A460146002022F62EFB002010BDA5
:104CE000E62010BD8CB72000002803D002490860E0
:104CF00001207047002070476879002070B5054694
:104D00000024091F062917D2DFE801F003070C1160
:104D10001315284600F0A4F80EE00124284600F000
:104D20009FF809E00224284600F09AF804E00324E2
:104D300002E0042400E00524034A214628461268C4
:104D4000BDE8704010470000687900202DE9F0416F
:104D50000446204600F0AEF801462E4800230826FF
:104D6000025D00F10A0700F11405AAB1052A33D04B
:104D7000082A2AD1092945D0082926D1295D491CAC
:104D8000C9B22955142920D32B5506552046BDE814
:104D9000F0410821FFF7B2BF052913D0042916D02E
:104DA000072914D0082910D1295D491CC9B22955F9
:104DB00014290AD32B5506552046BDE8F041082199
:104DC000FFF79CBF3B5505210155BDE8F08120460A
:104DD000BDE8F041FFF792BF05290CD0395D491CB1
:104DE000C9B239553229F0D303552046BDE8F04108
:104DF0000521FFF783BF03552046BDE8F04106219A
:104E0000FFF77CBF03552046BDE8F0410921FFF7BD
:104E100075BF0000BC86002070B504460D4600F04A
:104E20000FF808B100F01AF90348044A2946005D5A
:104E30005268BDE870401047D0850020607900209E
:104E40000020064911F810200AB100207047401CCC
:104E5000C0B20A28F6D3012070470000DA8600208D
:104E60000349002201F8102001EB40004270704716
:104E7000DA860020014A02F810107047DA86002016
:104E8000024A012102EB400041707047DA8600209F
:104E900070B50024064D05EB4400407810B1204663
:104EA000FFF754FF641CE4B20A2CF4D370BD000079
:104EB000DA86002070B500211D4B03F132051A5C23
:104EC000002A09D0002403F10A06012A0AD0022A86
:104ED00012D0032A24D11FE015F8102002B30122BA
:104EE0001A541DE015F810201AB1345402221A5435
:104EF00016E01C54042113E015F810204AB1325C6E
:104F0000521CD2B23254642A0AD3072103221A5403
:104F100006E005211C5403E015F8101011B108211A
:104F2000084670BD1C54FFF79BFF0921F8E70000FD
:104F3000A8860020704700002DE9F0410F469046FA
:104F40000A2F04D8B8F1000F01D0002323E000207D
:104F5000BDE8F08103EB430610F826402CB1012C8C
:104F600003D0022C01D0032C13D100EB8605124A8A
:104F7000A97AD154104910F826200C3101EB031402
:104F8000227069686160297A2172697A61720B49BD
:104F9000E1605B1CDBB2BB42DCD3074839460C3016
:104FA000FFF72AFC06480770C0F804800548FFF7A1
:104FB0009BFE0120CCE70000D0850020A9472000FF
:104FC00060790020194E20002DE9F0410024124F95
:104FD000DFF8488019E0002607EB04152878696897
:104FE000FFF73CFE10B9697A012902D0012802D0EE
:104FF00005E0012603E0687A022800D10126314647
:105000002046FFF737FF641CE4B298F800008442A2
:10501000E1D3BDE8F0810000DC850020607900204C
:1050200010B5FFF7D1FFBDE81040FFF731BF00001A
:1050300010B5074A0121074800F064F900220A214F
:10504000044800F0B5FA04490120487010BD000082
:1050500021502000808600206079002010B5034890
:1050600000F07EF902490020487010BD80860020C3
:10507000607900200248406A002800D0004770474D
:10508000A4850020002806D0002904D0024AD26955
:10509000002A00D010477047A48500200248006A0B
:1050A000002800D000477047A485002070B50D4649
:1050B00016460D4C00280AD00178032911D8012189
:1050C000A17601461A222046FDF7F7FA05E00020F6
:1050D000A0761A210448FDF767FBE56126620020EF
:1050E00070BD012070BD0000A4850020044A10445A
:1050F000807D084201D001207047002070470000E9
:10510000A48500202DE9FE4F0746924699460024CB
:10511000A046CDF80480CDF8088059480178B942FE
:1051200002D2807E00287DD10EAD0095EFF311866E
:105130000220FEF73FFF8346FEF766FF401C012179
:1051400081400BEB0100C0B280F311880121384689
:10515000FFF7CCFF38B14B484B4950F82720204689
:1051600000F0A4F804461C213846FFF7BFFF0028D2
:105170005ED046A24449204600F098F8204484B20C
:1051800004213846FFF7B2FFF8B152463E492046A7
:1051900000F08CF8204484B208213846FFF7A6FFBF
:1051A00038B13BA23849204600F080F8204484B250
:1051B0000BE010213846FFF799FF30B135A2324994
:1051C000204600F073F8204484B208213846FFF7E7
:1051D0008DFF90B14A462C49204600F067F82044E4
:1051E00084B210213846FFF781FF30B12AA2264948
:1051F000204600F05BF8204484B210213846FFF7C7
:1052000075FF60B126A2052101A80C9BFDF754F89B
:1052100001AA1D49204600F049F8204484B221A289
:10522000194900E029E0204600F040F8204484B20B
:105230001548C4F5807120442B460D9AFDF700F8FF
:10524000CDF800804FF48071002804DB20448842B0
:1052500001DC85B200E00D46A81C884200D9FE257D
:1052600011A20949284600F021F8284481B20648D5
:10527000FFF708FFF0B280F31188BDE8FE8F000051
:10528000A48500204C790020A48400202800000080
:10529000200000003A000000204C696E653A0000D2
:1052A000256C6400292000000D0A000030B5054679
:1052B000002000290CD0002A0AD006E02B18FF2B72
:1052C00006D8CC54521C401C80B21478002CF5D166
:1052D00030BD000010B50848017800290AD101212D
:1052E0000170064892F646F9BDE8104000210448D6
:1052F00092F6D6BA10BD000048790020396210003D
:10530000599220002DE9F04104460D461746002D24
:1053100004D0012D02D00120BDE8F081E4B1DFB15D
:10532000607801281AD0EFF311860220FEF750FEB4
:105330008046FEF771FE401C0121814008EB010010
:10534000C0B280F3118800206070A570E761F0B2F0
:1053500080F311880020DFE70120DDE70620DBE78E
:1053600010B50446002C0CD0204600F0B3F9FF2005
:1053700060700021A160E160216161610020E06155
:1053800010BD012010BDF0B5DDE90745059981612B
:105390004FF47A76A2FB061C03FB06C3002702FB30
:1053A0000732C0E9021209196A41C0E9041200215A
:1053B0000162F0BD2DE9F0410446002C13D0EFF35B
:1053C00011850220FEF704FE0746FEF725FE401C6D
:1053D000012606FA00F03844C0B280F31188124862
:1053E000002121620EE00020BDE8F081D4E9043202
:1053F000D1E9047CDB1B72EB0C0202D2016A216250
:1054000003E00846016A0029F0D10462667006488C
:1054100010380168491C0160016B4160E8B280F3FB
:1054200011880120E0E70000008700202DE9F0410D
:1054300005460024EFF311860220FEF7C9FD07465A
:10544000FEF7EAFD401C012181407818C0B280F3CC
:105450001188134A106BE8B115B102F1100010E089
:105460000446206A10631068401E10600CE0A942D8
:1054700006D11168491E1160296A01622C4603E0B9
:105480000846016A0029F2D124B100202062607030
:10549000106B5060F0B280F311882046BDE8F081B7
:1054A000F08600202DE9F041EFF311870220FEF78E
:1054B0008FFD0446FEF7B0FD401C012181406018BD
:1054C000C0B280F31188114D002608E02078012831
:1054D00004D1E16909B1A069884726702D6A2C6A58
:1054E000002CF3D1094D103D07E0E16909B1A06935
:1054F00088472670206AA8632662AC6B002CF4D122
:10550000F8B280F311880120BDE8F0810087002007
:105510002DE9F041EFF311870220FEF759FD044613
:10552000FEF77AFD401C012606FA00F02044C0B2C6
:1055300080F311881D4DA5F110082DE0D4E9043049
:10554000D8E902125B1A60EB0200D8E91021D21AE6
:10555000814124D326702046FFF768FFA0780128F8
:1055600006D01248283000212162016861B10FE0A5
:10557000D8E90220D4E9021351185841C4E90410B3
:105580002046FFF717FF07E0046005E001F1200067
:1055900001680029FAD104602C6A002CCED1F8B23F
:1055A00080F311880120BDE8F08100000087002011
:1055B0002DE9FF5F82460E4693464FF00008BAF190
:1055C000000F20D0414886421DD8E6B1EFF3118785
:1055D0000220FEF7FDFC0446FEF71EFD401C0121E3
:1055E00081406018C0B280F31188504602F0F4FE8A
:1055F00010B19AF8010040B1F8B280F311880F2081
:1056000004B0BDE8F09F0120FAE702F08DFF0446E8
:105610000D464FF47A7106FB01F022462B4600211D
:1056200002F09EFDDFF8A890B0B1D9F8040048B1AF
:10563000D0E90410091B60EB0500C9E9021002F073
:10564000EDFF04E00021C9F80810C9F80C104FF074
:105650000108D9E9020106E0D9F80400D0E90421E3
:10566000101B61EB0501CDE9020132460023CDF8A4
:1056700000B05046FFF787FE5046FFF79BFE03F051
:105680005FFF4FF0E024D4F800014FF0806510F088
:10569000806F01D0012000E0002020B91A20FEF721
:1056A00044FCC4F80051B8F1000F0AD0D9F8040046
:1056B000D0E90431D9E90202181A61EB020102F0C3
:1056C00069FFF8B280F31188002099E7008AB907D2
:1056D000F08600202DE9F04104460025002C39D049
:1056E000EFF311870220FEF773FC0646FEF794FCE9
:1056F000401C012181407018C0B280F3118860788D
:10570000012824D1144E7068A0420BD102F00CFF86
:10571000D4E90432181A62EB0102C6E9020202F06F
:105720007DFF01252046FFF781FE5DB1706848B11D
:10573000D0E90421D6E90203101A61EB030102F05B
:1057400029FF04E01DB9706808B902F067FFF8B2DC
:1057500080F31188BDE8F081F086002070B5044622
:105760001A4D55F82400703003F05FFE82B21646E1
:10577000A2B155F8240090F8011101290ED00121A1
:1057800080F80411802A0FD355F82400802200F1FC
:105790008001703003F05EFE80260CE055F8241086
:1057A000002081F8000170BD55F8240000F180014F
:1057B000703003F04FFE55F82400324600F18001AE
:1057C000001D2BF621FD0028EDD170BD8C8400203A
:1057D000704700002DE9F84304464D4F57F8240068
:1057E000061D062C7ED290F86C1000297AD0012973
:1057F00078D190F80011012974D190F80111002995
:1058000070D1012180F80111002157F82400D0E95E
:1058100003231344027D02F00102D21D9D18426849
:10582000D36FC3F38003002BFAD090F80421A2B108
:10583000384A1368491C90F83B20102A06D0826829
:10584000B3FBF2F26A43B1EBC21FF3D957F824005D
:10585000703003F0EAFD85B226E0B0F82480C58CF4
:10586000001D2AF64BFF57F8240041F2883300EB65
:105870000801491B8031001D2A462BF672FCE5E722
:1058800057F8240001227030694603F0E3FD57F811
:1058900024004068C16FC1F340010029FAD09DF88F
:1058A000001001606D1EADB2002DE9D157F8240043
:1058B000703003F0BAFD0028C8D13068416949064C
:1058C000FCD5EFF31085012080F3108857F82400F1
:1058D000703003F0AAFD68B1EFF31081012080F36E
:1058E000108800E011E03068426842F082024260B5
:1058F00081F3108857F82410002081F8000157F830
:10590000241081F8010185F31088BDE8F8830000B8
:105910008C840020600300202DE9F04105460F46ED
:10592000002D06D02AB12C78062C04D3E820BDE83F
:10593000F081E520FBE7384E05F1580046F82400D9
:10594000D2E900310A467030194603F059FD291D8D
:10595000286D04F069FC0028E9D156F82410281DB0
:10596000486656F82400076056F8240018220830CC
:1059700005F14001FCF7E6FE284856F8241000EB3C
:10598000C4056868486056F82400001D01F07AFEDE
:1059900056F82400001D01F091FE20480122032149
:1059A000103803F0BDFC56F82410012081F86C007B
:1059B00056F82410002081F8000156F8241081F8D0
:1059C000010156F8241081F8020156F8241081F8DC
:1059D000030113490C2003F04DFE12490D2003F082
:1059E00049FE1149342003F045FE1049352003F0EB
:1059F00041FE0F49362003F03DFE0E49372003F0EB
:105A000039FE95F9010021F6C5FC95F9010021F652
:105A1000DFFC00208BE700008C84002024B82000ED
:105A2000993E2000A93E2000B93E2000C93E20003A
:105A3000D93E2000E93E20002DE9F04104461A4DF0
:105A400055F82400703003F0F0FC82B216460027AF
:105A50007AB155F8240090F80111012909D0802A63
:105A60000ED300F180017030802203F0F3FC802619
:105A70000BE055F8240080F800710020BDE8F081AB
:105A800000F18001703003F0E5FC55F8240080F847
:105A9000047155F82400324600F18001001D2BF6F8
:105AA00077FC0028EAD1E9E78C84002070B506284D
:105AB00001D3E82070BD104D55F8204064B194F832
:105AC0006C604EB151B14AB15E1C09D044F62066FB
:105AD000B34205D9E42070BDE52070BDE42070BD5F
:105AE000002684F8026155F82000001D2BF639FBD2
:105AF0000028F4D170BD00008C8400202DE9F8430B
:105B000007460C46904604F1080520468EF64EFBEB
:105B10000346344E70680021A7F58042DFF8C8C004
:105B2000B2F5804F03D2DCF80010401A0121E218D0
:105B3000824202DD0520BDE8F8833068421EC2F3D0
:105B40000B02821A02F6FF72C2F3073211B1DCF8BF
:105B5000001000E00021DFF894C0DFF89490DCF83A
:105B600000C0D9F80090ACEB090C96F80990A2EBB4
:105B700009020CEBC202101A401A001FE9188142F8
:105B800029DD00254FF4004911231F2249462846EC
:105B9000009571F663FD0021084600F027FE40B134
:105BA00013231F2249460020009571F657FD0F2050
:105BB000C1E7707A02F012FA0028BCD112231F222A
:105BC0004946009571F64AFD424621463846BDE8F1
:105BD000F84304F03BBC424621463846BDE8F84352
:105BE00004F034BC90470020B8350020C4350020B4
:105BF000BC35002070B503F031FF40F21A4120B1EE
:105C000040F24C4003F09AFD03E040F22E4003F0D6
:105C100095FD0D4CA07850B1E08803F09FFD05463E
:105C2000208903F09BFD294603F0DEFE05E04FF4DA
:105C300061714FF47A7003F0D7FEBDE870400248FE
:105C40004A3003F02DBA0000E47A002000214FF022
:105C50003040C1608161C0F8D011C117416101625B
:105C6000C0F8D81103496FF4806008600220FEF785
:105C700069B9000084A0004010B500F08FF8BDE8BD
:105C8000104000F069B8000010B51248016821F01A
:105C9000070141F0040101600A2009F6B7FC0D4834
:105CA0008438016821F4807101600121002024F60C
:105CB00053FF01201AF6F2FC07490220087003F096
:105CC0004FFC0649322003F0D5FCBDE810403220DD
:105CD000FEF756B990A80040B07A00201B3D200086
:105CE00010B519480068C0F30B001749083109685E
:105CF00021F07F41401C00EE100ADFED140AB8EEDF
:105D0000400A60EE200A00EE101A1149B8EE400A6F
:105D100080EE801AB6EE000A31EE000ABCEEC00A30
:105D200010EE100A486003F099F903F0C7FE094825
:105D3000016841F48071016006488430016821F0F7
:105D40000701016010BD000004E400400024F44B92
:105D5000B07A00200CA8004000B587B003218DF870
:105D600004100220029005228DF80C2001208DF8ED
:105D70000D0000238DF80E308DF8101005908DF871
:105D800018208DF819008DF81A00034A022101A885
:105D9000FFF7D2F807B000BD354F200000B587B03F
:105DA00000F01EF803208DF800001D208DF816006D
:105DB00001208DF817008DF818008DF81900044A9D
:105DC00004496846FFF772F9FEF78AFC07B000BD88
:105DD000D95D2000455E20000320FFF7FBBC0000DA
:105DE0001CB5144800904FF48060019012480322C3
:105DF00002704FF4E1310164426400218164C164A6
:105E000001650123436501742024446142740376D3
:105E100001711023836042710173084941638163FA
:105E2000022180F83C1080F83D206A460449FFF7C3
:105E300073FD1CBD687D002068810020009001403A
:105E4000D15720000A4601464FF47A730320FFF72A
:105E50002DBE0000052110F1190F01DC022110E018
:105E600000F114020F2A01D803210AE00F2801D8FB
:105E7000042106E0A0F11402192A02D932280CDB11
:105E8000062106480268C2F303328A4205D002683E
:105E900022F4704242EA01310160704714A80040C8
:105EA00010B50021084624F657FE01201AF6D6FB4D
:105EB0000248816821F48071816010BD00A000401B
:105EC00010B514480068C0F30000002807D011483E
:105ED00008380068C0F3000008B103F099FB0E48D1
:105EE0000068C0F3000038B10B4808380068C0F300
:105EF000000008B100F084FB03F018FB002807D075
:105F000001F098FC002803D0BDE81040FFF7C8BF9F
:105F100010BD000008E4004008E5004010B503F0A3
:105F200005FB20B101F086FC08B1012010BD002066
:105F300010BD10B503F08CFB00F00EFB10BD10B5CA
:105F400000F05CFE02F0D8FE03F0E2F9BDE810407C
:105F500000F092B82DE9FC4104468846164D4FF6F4
:105F6000FF76164F12E02968082201EB00306946DF
:105F700086F650FC082802D01020BDE8FC81BDF850
:105F80000000B04208D12078401C20702078797A37
:105F90008842E8D30020F0E709489DF80010C1705E
:105FA000BDF8021081809DF8011088F8001021785A
:105FB00041700020E1E70000BC3500209047002040
:105FC000C835002010B51248016821F00041016079
:105FD0000F23011D0A6863F31F720A600A6822F426
:105FE000E07242F4C0720A60016841F00041016051
:105FF0000848016841F0010101600749312003F0C0
:1060000039FB06494FF40030C1F8000110BD000013
:1060100004A9004088E20040253D200004E000E0A3
:10602000F8B5EFF31085012080F310880720009069
:106030006846FDF7E5FE0220FDF7EAFE322009F68C
:10604000E5FA0B4C206840F002002060094E708990
:1060500009F6DCFA206820F002002060B08909F619
:10606000D5FA9DF80000FDF7D3FE85F31088F8BD42
:1060700004A90040487B002002490148086070479D
:1060800075731000CC05002010B593F657FD00285D
:1060900000D0FEE710BD00B500F00AF85DF804EB93
:1060A00001F058BC01480078704700007C8900204E
:1060B00030B5084C012525706060E2602361A16065
:1060C00005488068884201D2081A00E0401A6061E1
:1060D00030BD00007C890020CC7A002010B501F092
:1060E00013FC044618210548FCF75EFB034A002117
:1060F00011702046BDE8104000F046B97C890020B0
:10610000F0B404460E462C482C4FB968057802625C
:1061100044628C4201D9631A00E00B1BFF689F4266
:1061200006D3134632462146F0BC0020FFF7B3BF2A
:1061300087699F4201D98361C261012D0AD0022D76
:1061400027D0032D36D1134632462146F0BC00201D
:10615000FFF7A1BF44618C4203D90169491EC160A8
:1061600002E00169491C8160D0E90212914209D222
:106170001144490801610121017001693046F0BCF8
:1061800000F01EB80221017081683046F0BC00F0BA
:1061900017B8C169914206D1134632462146F0BC78
:1061A0000020FFF778BF03210170C1693046F0BCC1
:1061B00000F006B8F0BC704724890020CC7A00209B
:1061C000054A936A5B1C93628AB2C1B20348044BCE
:1061D000406801F03DBB000024890020CC7A0020FB
:1061E0000161200070B505460D4C2C212046FCF7BE
:1061F000DBFA0020A06040F2FF10E060FF22226185
:106200004FF0FF30A061A06A401CA0620120207006
:106210000448E9B2044B4068BDE8704001F018BB87
:1062200024890020CC7A0020016120002DE9F84368
:1062300007460D4690462E4C207801280BD00228A8
:1062400013D00820E06101B043462A463946BDE834
:10625000F043FFF720BFE76040F2FF1121612846BD
:10626000BDE8F843022200F079B800260096676185
:10627000684600F03FF870B1012810D002281FD006
:1062800003282DD00720E06143462A463946FFF710
:1062900002FFBDE8F8832846FFF7A4FFF9E70F2DBA
:1062A00006D23146A6600122681C00F057F8F0E7DC
:1062B0000520E06143462A463946FFF7ECFEE8E751
:1062C00035B1A66001220021681E00F047F8E0E722
:1062D0000620E06143462A463946FFF7DCFED8E750
:1062E0000098E06143462A463946FFF7D4FED0E7DE
:1062F0000489002010B5174B17490A698968154CA5
:10630000DB6864698B4203D98C4201D9022010BD3D
:106310008B4203D28C4201D2012010BD8B4201D9A5
:106320005B1A00E0CB1A8C4201D9611A00E0091B0C
:10633000934203D3914201D3002010BD934201D276
:10634000022010BD914201D2012010BD0221016046
:10635000032010BD04890020CC7A002030B4074B04
:106360009C69641C9C6158601A708AB2C1B204486E
:10637000044B406830BC01F06BBA00000489002077
:10638000CC7A00202D62200070B50546064C2021F5
:106390002046FCF709FA0021A1602846BDE87040BC
:1063A0000122FFF7DBBF000004890020F8B50E468C
:1063B0001F4C00250095E169491CE1616660A260FF
:1063C000E1682161E0601B498B68834201D2C01AF9
:1063D00000E0181A6169814201D96061A2616846D2
:1063E00000F02AF858B101280ED0022814D0032852
:1063F00018D00098A062204600F0BFF8F8BDA56252
:10640000204600F0BAF8F8BD012084F8200030469C
:10641000A16900F077F8F8BDA1683046491C00F08A
:1064200071F8F8BDA1683046491E00F06BF8F8BD60
:1064300050890020CC7A00202DE9F0432F4A304FBC
:10644000B96800250026D3688B4201D95C1A00E0A8
:10645000CC1AFF68A74202D30020BDE8F083D2F82F
:106460002480B8F1010F10D092F82040012C0ED0FA
:10647000224CD2F81CC04FF00109A769A468C4459A
:106480000BD3A74205D10020E7E70020E5E7002075
:10649000E3E782F820900120DFE7BCF1010F11D97A
:1064A000D2F810C08C4501D98B4203D38C4509D258
:1064B0008B4207D9A74201D10020CEE782F8209075
:1064C0000120CAE78B4201D9012600E0012545B130
:1064D000B4F5FF7F03D9092101600420BDE7022044
:1064E000BBE736B10CB10320B7E70A2101600420F5
:1064F000B3E70B2101600420AFE7000050890020C2
:10650000CC7A00208AB2C1B20248034B406801F045
:106510009FB90000CC7A0020AD63200070B504461E
:106520000E4615462C210948FCF73EF9074B002181
:1065300083F82010491E59615C620548AAB2F1B285
:106540004068BDE87040034B01F082B950890020DB
:10655000CC7A0020AD63200010B501F05BF9002873
:106560000AD0FFF79FFD18B1BDE8104000F028B831
:10657000BDE81040FFF7B2BD10BD00B500F004F853
:106580005DF804EB01F0E6B90B4901220A71826A59
:106590008A60C269CA60C2680A6142684A618268E8
:1065A0008A61064AC0689268904201D9801A00E068
:1065B000101AC8617047000094890020CC7A00202E
:1065C0002DE9F04101F0A0F9074601F0AFF980464E
:1065D000094C26680948456920212046FCF7E4F863
:1065E000761C266000202071424639462846BDE8C8
:1065F000F041FFF793BF000094890020CC7A00207F
:1066000010B50E4C2069401C206101F0A9F9E06032
:1066100001F07AF9606001F089F9A060084A002170
:1066200011606161E3692BB182B22179E068BDE854
:1066300010401847BDE8104001F08CB9E4880020F4
:1066400000E500402DE9FC41164804680834164E68
:106650003078002802D000208FF686FD134D4FF6CB
:10666000FF770822694620468FF688FDBDF80000B6
:10667000B84211D080B1BDF802008DF697FDBDF88B
:1066800002100830084481B220468EF66BF80446AA
:1066900028688442E5D32C6830788FF665FD204663
:1066A000BDE8FC81BC350020B5350020C435002094
:1066B00008B51A48016821F070010160016821F0F5
:1066C000070141F00401016015490978002909D04A
:1066D000124984390A6842F480720A60016821F024
:1066E00007010160012002F06FF90020FDF744FF6F
:1066F00002F070FB80B100208DF80000A3208DF81F
:10670000010002208DF80200684690F611FB02F0AD
:10671000FFFA02F0A7FB08BDFEE7000090A80040CA
:10672000587B002070B5044600BFFDF77DFC054690
:106730000120FDF709FD0948047024B948220849E1
:106740000848FBF7FFFF1DB90020FDF7FDFC02E044
:106750000120FDF7F9FC00BF70BD0000507A002059
:106760001C880020002000E010B507484068074959
:10677000486006480830402203490831FBF7E2FF31
:1067800003200249086010BDD4870020002000E0EB
:1067900070B500BFFDF748FC05460120FDF7D4FCAD
:1067A0000B48047834B948220A490B48FBF7CAFF62
:1067B000FFF7DAFF0120064908701DB90020FDF738
:1067C000C3FC02E00120FDF7BFFC00BF204670BD06
:1067D000507A0020002000E01C88002013B5012121
:1067E0006846FEF74FFC01201CBD00002DE9F04F6C
:1067F0008DB008220C9200220B924FF008080A92EA
:10680000099100269A4FDFF86CB24FF0010A002878
:1068100048D0082204A9386885F6FCFF082803D070
:106820000F200DB0BDE8F08F9DF81000A52806D010
:106830009148C1880C91447880780B9046E09DF88F
:106840001100DBF80010022201EB0030083001A932
:1068500085F6E0FFBDF80410A1F57F40FF380AD0AF
:106860009DF81100DBF8001001EB00304FF480516F
:106870008FF652FC90B19DF81200BDF816100C91E5
:106880009DF81110491CCCB20B9009AB0CAA0BA9B6
:1068900004A803F02DFF012802D017E01020C0E764
:1068A0000020BEE7FFF7CEFE411EC1F30B01401AE8
:1068B000DBF80010401A00F6FF70FF2101EB1030EA
:1068C000C4B20B9414B1CDF824A0012693F6F4FBC6
:1068D000C7E00025069507955CB1DBF800000422AF
:1068E00000EB043006A985F695FF042801D00F209F
:1068F00097E7614805604560A521017044709DF8E7
:106900002C108170BDF83010C1809DF81810C17036
:10691000BDF81A108180DBF8000000EB0430404421
:106920000A90386800EB080108914FF480518FF607
:10693000F3FB50B19DF818204AB1012308A90AA819
:1069400003F0AAFE18B10F206BE7102069E7BDF82D
:106950001A203AB1002308A90AA803F09DFE08B145
:106960000F205EE7C4F100090A98DBF80010401A16
:1069700000EB0930C0F58055082D2CDD082302AA54
:1069800008A90AA8CDF800A093F6A8FF08B10F2027
:1069900047E7BDF80810A1F57F40FF3830D0083D2B
:1069A000BDF80A008DF602FCBDF80A100844A842A2
:1069B00008DDAAB2002308A90AA803F06DFEC8B139
:1069C0000F202EE782B2002308A90AA803F064FE74
:1069D00080B10F2025E7A8B28DF6E8FB284483B2EA
:1069E000264A08A90AA8CDF800A093F677FF08B1B7
:1069F0000F2016E73868089900F580508142B3D31C
:106A000008221D49386885F653FF082801D00F2059
:106A100007E7DBF800004FF4805100EB04308FF6FD
:106A20007BFB60B176B1DBF80000042200EB0430A0
:106A300006A985F63DFF042803D00F20F1E61020BB
:106A4000EFE6002609AB0CAA0BA90B4803F050FE99
:106A5000012802D018B10F20E3E60020E1E6641C13
:106A6000E4B20748407AA042BFF433AF0020D8E632
:106A7000C0350020BC350020C83500206446002009
:106A800090470020024600210BE0084850F83130C2
:106A9000501E834204D1054800EBC1004068704796
:106AA000491C1029F1DB0020F9E700006488002070
:106AB000002101E0491C4008C207FBD0084670478E
:106AC00010B502F0CBFF50B14FF48C642146204644
:106AD00002F034FE2146204602F086FF09E040F233
:106AE0004C442146204602F029FE2146204602F071
:106AF0007BFFBDE81040014802F0D2BA387B00208D
:106B00000148407870470000E47A002070B50446E0
:106B100000BFFDF789FA05460120FDF715FB0020AF
:106B2000144908701448154908601548154908604B
:106B3000482215491548FBF705FE154812494860DB
:106B40000320086048221348FBF7FCFD48220F4948
:106B50000D48FBF7F7FD882C01D003F009F91DB9AA
:106B60000020FDF7F1FA02E00120FDF7EDFA00BF89
:106B700070BD0000507A0020256720008438002076
:106B80009167200080380020002000E01C88002051
:106B9000808B0020D48700202DE9FE430546002489
:106BA00003208DF8000000260C4F4FF00108E80785
:106BB0000BD008FA04F0019007EBC4004068029083
:106BC00057F8341009B168468847641CA4B26D08B0
:106BD000761C082EEBDBBDE8FE8300004C84002011
:106BE00018F682BE10B50446034818F6E9FE2046A2
:106BF000BDE8104018F690BE647A002000B5012070
:106C000002F046FF02490148086000BD31731000E0
:106C10001400002010B5EFF31084012181F31088D7
:106C200019F602FD0348006808B900F005F884F37E
:106C3000108810BDD005002010B593F683F8002809
:106C40001ED1EFF31084012080F310880D480168F5
:106C500041F0040101600B49083108684007FCD588
:106C600003F002FF012001F007FC012001F004FC09
:106C700004481C38016821F05001016084F3108839
:106C800010BD000040A400401CF670BF2DE9FE437B
:106C900080460F463846FFF70BFF85B20024DFF829
:106CA00034900D4E59F8340040450ED105EB0410D8
:106CB00085B28DF80040019706EBC5004068029050
:106CC00056F835200AB168469047641C032CE9DB6E
:106CD000BDE8FE838CB720003C83002070B50446DD
:106CE0000D4604481CF67EFF29462046BDE870404C
:106CF0001CF66DBF687A00200321FDF7A1BD00F0EE
:106D000001B80000F8B5044620200090002C0DD0FA
:106D100094F83D00002500286AD094F83D00222810
:106D200006D094F83D00212802D004E00120F8BDEF
:106D3000204600F05CFA2421204601F09FF82068EC
:106D40003FF6FFFE204600F07DFB344B206801211A
:106D5000334A984204D1C2F89811C2F8CC1226E006
:106D6000304B984204D1C2F89C11C2F8D0121EE0F8
:106D70002D4B984204D1C2F8A011C2F8D41216E0EB
:106D80002A4B984204D1C2F8A411C2F8D8120EE0DE
:106D9000274B984204D1C2F8A811C2F8DC1206E0D1
:106DA000244B984203D1C2F8AC11C2F8E012EFF3C1
:106DB0001080012383F310881F4B1B681F4E334044
:106DC0001F4E9E4301D1C2F8A8101B4B08331B680D
:106DD0001C4E33401C4E9E4300D1916280F31088BC
:106DE00025640021204601F049F8E56284F83E5010
:106DF0000121204601F064F86946204600F044FE77
:106E0000012803D19DF8000023F606FE012120464B
:106E100001F010F884F83C500020F8BD00C3004099
:106E200000D01D4200C4004000FA004000FB0040BA
:106E300000FC004000FD00408CEE0040FFCF7FFFD3
:106E4000FF0F5E703FFFFF03FF3FFC010021FDF7D6
:106E5000F7BC90F83D00704710B5044603481EF695
:106E6000B7FB2046BDE8104000F002B86C7A002065
:106E70002DE9FC41044620200190002C04D094F818
:106E80003D00002718B13BE00120BDE8FC8184F8FB
:106E90003C709249C1F8A8708F62914A2068904274
:106EA00004D1C1F89871C1F8CC7226E08D4A9042A5
:106EB00004D1C1F89C71C1F8D0721EE08A4A904298
:106EC00004D1C1F8A071C1F8D47216E0874A90428B
:106ED00004D1C1F8A471C1F8D8720EE0844A90427E
:106EE00004D1C1F8A871C1F8DC7206E0814A904271
:106EF00003D1C1F8AC71C1F8E072204600F0A3FAEA
:106F00002421204600F0BAFF2068C16E21F0010163
:106F1000C166D4E90010784A904201D8022005E009
:106F2000764A904201D8042000E006200A6822F048
:106F3000060202430A60FCF731FF41086068B1FBBA
:106F4000F0F86F4988421AD22068D0F8A000C6B283
:106F5000FCF724FF41086068B1FBF0F18D1BED1ECA
:106F60006849884205D2206845612068C0F81880C9
:106F700016E02068C5612068C0F8208010E0206815
:106F8000D0F8A400C6B2FCF709FF61684008B0FB66
:106F9000F1F0851BED1E206845622068C0F828804E
:106FA000FCF7FCFEDFF86081A169B8FBF0F0B1FBF3
:106FB000F0F2A91BC81E82420ED82568FCF7EEFE2F
:106FC000B8FBF0F0A169B1FBF0F0E96F21F47F01AB
:106FD00041EA0040E86707E02068C91EC26F22F45A
:106FE0007F0242EA0141C1672568FCF7D7FEB8FB82
:106FF000F0F06169B1FBF0F0E96F6FF30F0101434D
:10700000E967E06801284AD0A1682068026842F078
:107010000802026081602068016841F0100101608F
:107020002069012848D0206850F8981F21F00101FC
:1070300001602068016841F4006101602568FCF787
:10704000ADFE0A26B0FBF6F0C5F8AC002568FCF7EB
:10705000A5FEB0FBF6F0C5F8B0002068016841F469
:10706000007101602068016C0091016B6FF30E01EB
:10707000016327642021204600F000FFE76284F8C6
:107080003E70204600F010FF0021204600F018FF5F
:1070900001A9204600F0F8FC012814D018E0A168EE
:1070A0002068026822F0080202608160206801689E
:1070B00021F010010160B3E7206850F8981F41F0FB
:1070C00001010160B5E711499DF8040023F692FC27
:1070D0000121204600F0AEFE0020D6E600D01D4281
:1070E00000C3004000C4004000FA004000FB004024
:1070F00000FC004000FD0040A086010040420F005F
:1071000080841E00801A060000CA9A3B4974200041
:10711000F8B504462068C66A002571063CD5D0F84B
:107120008010C1F3160501F0F0F901280BD1616B55
:1071300000200864606B19F6BDFC206850F8881FB9
:1071400021F0020101602068416D009105F4805139
:1071500005F48042114303D0216C41F00201216407
:10716000A90307D5C16E41F00801C166206C40F04B
:107170002000206494F83D00212806D0E06A112800
:107180000AD194F83D00602806D12068D0F880002C
:10719000C00D618C08446084B00706D52068806CFF
:1071A0000090206C40F008002064700407D520682F
:1071B000D0F8B4000090206C40F010002064B005BE
:1071C00002D52068006E0090206C28B1216C20460A
:1071D000BDE8F84000F0C8BC236B002B06D001B01E
:1071E0002A4631462046BDE8F0401847F8BD70B544
:1071F0000446002C05D094F83E00102803D001204E
:1072000070BD012070BD94F83C00012811D0012010
:1072100084F83C00206844F25621026B8A430263E2
:1072200094F83D00212806D094F83D00222805D08E
:1072300006E0022070BD1120E06201E01220E06251
:107240006021204600F01AFE206801F059F900255F
:1072500001283AD1A06BB8B3056494F83E00102819
:107260000BD1606B48B10564606B19F623FC206894
:1072700050F8881F21F002010160A06B19F61AFC7A
:10728000206850F8881F21F001010160A06B01798E
:10729000606B006801F00CF9E169884208D2A06BCC
:1072A0000179606B006801F003F9E169081A07E0F1
:1072B000A06B0179606B006801F0FAF8E169401A8F
:1072C000218C081A60842CE0FFE7206801F01DF98A
:1072D000012826D1A06B20B3606B0564606B19F6A2
:1072E000E9FB206850F8881F21F002010160606B03
:1072F0000179006801F0E4F8E169884207D2606B27
:107300000179006801F0DCF8E169081A06E0606BB9
:107310000179006801F0D4F8E169401A218C081A5B
:1073200060842068C16E41F00201C16684F83C505F
:107330002068016B41F410710163002070BD0221CF
:10734000FDF77EBA0121FDF77BBA2DE9F05F044617
:10735000DDE90AB5DDF830A00F4690469946002CCD
:107360000BD0BBF1000F0AD04DB194F83D0020289E
:107370000BD002252846BDE8F09F0120FBE7206CDA
:1073800040F0010020640120F5E794F83C0001285A
:1073900015D0012084F83C000021204600F04AFD71
:1073A000204600F081FD012219231146204600F0FD
:1073B0000BFE002628B184F83C600320DBE70220A6
:1073C000D9E72221204600F059FD102084F83E0024
:1073D0002664C4F81CB02584A584658426633946D8
:1073E000204600F0DAFC2068016B6FF30E010163A8
:1073F000206801F081F8E0B12068C16E41F0010120
:10740000C1664B4642463946204600F009FD5146CA
:10741000204600F07AFC05462068C16E21F001018B
:10742000C1662021204600F029FD3C34A67026705C
:10743000A0E72021204600F021FD3C34A6702670F4
:10744000012098E7704770470168CA6E22F0010278
:10745000CA66426C0A60826C4A61C26C8A61026DC3
:10746000CA61426D0A62826D4A62C26D8A62026EB0
:107470008A60426EC1F89820826E0A63C26ECA6743
:10748000026FC1F8AC20406FC1F8B000C86E40F088
:107490000100C866002070470221FDF7D1B9012123
:1074A000FDF7CEB901680A6842644A6982648A6954
:1074B000C264CA6902650A6A42654A6A82658A6A62
:1074C000C2658A680266D1F8982042660A6B8266B5
:1074D000CA6FC266D1F8AC200267D1F8B01041671C
:1074E000002070472DE9F041EFF311870220FCF7EF
:1074F0006FFD0446FCF790FD401C0121814060189F
:10750000C0B280F311880020FDF790FF0546254E9C
:10751000D5E90412C6E902122348081A72F11E00C6
:1075200019D306F110000EE0DCE90412D6E90234AA
:10753000B1EB030872EB040804D3C91A62EB04022E
:10754000CCE90412006AD0F820C0BCF1000FEBD1E6
:107550000021B160F160A87801280AD1D6E9023093
:10756000D5E9021259185041C5E904102846FDF723
:1075700021FFF8B280F31188FDF7CAFF706840B1AF
:10758000D0E90421D6E90203101A61EB030101F0EE
:1075900001F8E96909B1A8698847BDE8F041FDF73C
:1075A00081BF0000F08600200010C32C70B5044697
:1075B0000D46044823F6E2FA29462046BDE870400D
:1075C00023F68EB9E574200009484178002907D1D7
:1075D00001214170074A126802F0030202B90170EA
:1075E000007810B10448006870470448006870478C
:1075F000587A00203CA50040B47A00205C030020AB
:107600001CB502F0FFFD05218DF80010064900228F
:1076100051F8203083F8002151F82000016800293A
:1076200001D0684688471CBD8C8400201CB502F040
:10763000E9FD04218DF800100649002251F82030A0
:1076400083F8002151F820000168002901D0684624
:1076500088471CBD8C8400201CB502F0D3FD03219B
:107660008DF800100649002251F8203083F80021DF
:1076700051F820000168002901D0684688471CBDE8
:107680008C84002029F644B91CB50446204602F03B
:10769000B9FD00228DF80020E16B0191064951F8F7
:1076A000203083F8002151F820000168002901D022
:1076B000684688471CBD00008C84002010B5044635
:1076C000034829F697FC2046BDE8104029F692BAF7
:1076D0008C7A002070B504462268906800F00F0094
:1076E0000021022809D004280CD0062816D00C2826
:1076F00044D1A06901280BD00BE02046BDE87040C2
:1077000002F000BE2046BDE87040002170F6D4BAF9
:1077100001212046BDE8704070F6CEBA5069E16B99
:1077200000F01E000143E163D06FC0F3C00018B148
:107730000021204670F6C0FAE06B4FF0000580078C
:107740001DD5204670F653FA94F83500012804D070
:107750002046BDE87040FFF797BF206B48B10A494B
:107760000164206B19F6A6F930B1206B016C8847D3
:1077700002E02046FFF788FF84F8355070BD2046B0
:10778000FFF782FFE56370BD1D7A07007047704701
:107790001CB50446204602F035FD02218DF800108C
:1077A000218D628D891AADF80410044951F820002A
:1077B0000168002901D0684688471CBD8C840020E0
:1077C0007CB50546284602F01DFD044601208DF8D3
:1077D0000000288C698C401AADF804000C4D55F857
:1077E000240090F8040118B12046FDF7B7FF02E02D
:1077F0002046FEF721F955F8240090F800110029E1
:1078000004D10168002901D0684688477CBD00008A
:107810008C84002005484069002804D00448006892
:1078200008B100207047012070470000E488002064
:10783000D805002000B5FFF7EDFF20B103488069AF
:1078400008B1012000BD002000BD0000E488002038
:107850002DE9F04105460C4616469846FFF7DAFF3B
:10786000002847D00121002023F676F9012018F6E0
:1078700015FF214F012078613D607C60BE60C7F834
:107880001C800020B8611D4D286820F00100286090
:10789000204600F041F8304600F050F8174CDFF871
:1078A0005C80174E143408F10C08B06840F4807006
:1078B000B060022000F00CFE386800F013FE206873
:1078C00040F001002060206840F00200206028683D
:1078D00040F001002860D8F8000020F07F40002828
:1078E000E3D00849322001F0C5FEBDE8F041322066
:1078F000FCF746BBBDE8F081E488002000E50040CD
:1079000000A000401B3D20000248006800F00F006E
:107910007047000054A8004003490A6822F00F0293
:1079200002430A607047000054A800400248006803
:10793000C0F308407047000050A8004003490A689F
:10794000034B1A4042EA00400860704750A80040CC
:10795000FFFF00FE0149012088617047E488002094
:107960002DE9F0412DED028B1648006820F07F4094
:107970000022144B083B1B68C3F30B041146641C24
:107980000D4647F61223A0FB032701FB03710026D7
:1079900000FB0611104603F016FE08EE100A204602
:1079A000294603F010FE00EE100A0749C8EE000A4F
:1079B000BCEEE00A10EE100AC860BDEC028BBDE818
:1079C000F08100000CE50040B07A002010B50246BE
:1079D000146B206850F8881F21F0020101602068B4
:1079E00050F8881F21F001010160606B1279017964
:1079F000914218D1006800F063FDE169884207D226
:107A0000606B0179006800F05BFDE169081A06E02F
:107A1000606B0179006800F053FDE169401A218C28
:107A2000081A60841BE0A16B0068097900F040FD32
:107A3000E169884208D2A06B0179606B006800F0B0
:107A400037FDE169081A07E0A06B0179606B0068F7
:107A500000F02EFDE169401A218C081A6084616BE8
:107A600000200864A16B086494F83D00602803D0EE
:107A70002046FFF7EBF910BD2021204600F0FEF96B
:107A80002046FFF739F910BD024601201268134B5A
:107A90009A4202D10A220A707047114B9A4202D1CF
:107AA0000B220A7070470F4B9A4202D10C220A70C7
:107AB00070470D4B9A4202D10D220A7070470B4B52
:107AC0009A4202D10E220A707047094B9A4202D1A3
:107AD0000F220A70704700207047000000C300406A
