:020000040020DA
:102000000000082041222000492220000160100029
:10201000A93D2000FF212000AD3E2000000000006F
:10202000000000000000000000000000156010002B
:1020300053222000000000005522200059222000D9
:1020400000F002F800F0C2F80AA090E8000C824408
:102050008344AAF10107DA4501D100F0B7F8AFF2E5
:10206000090EBAE80F0013F0010F18BFFB1A43F076
:102070000103184704A0000044A000000A444FF0E8
:10208000000C10F8013B13F0070408BF10F8014BD7
:102090001D1108BF10F8015B641E05D010F8016B1C
:1020A000641E01F8016BF9D113F0080F1EBF10F880
:1020B000014BAD1C0C1B09D16D1E58BF01F801CBA3
:1020C000FAD505E014F8016B01F8016B6D1EF9D526
:1020D0009142D6D370470000103A24BF78C878C127
:1020E000FAD8520724BF30C830C144BF04680C601E
:1020F000704700000023002400250026103A28BF66
:1021000078C1FBD8520728BF30C148BF0B60704769
:102110006E2900F00084702900F0C781662909F05B
:102120004D86652909F04A86672909F047866129A5
:1021300009F0468603681B0A28BF41F0800169291F
:1021400000F03881642900F03581752900F0328172
:102150006F2900F0FA84782900F09381E92900F0D2
:102160009584E42900F09284F52900F08F84EF290A
:1021700000F0F784F82900F092810368DB0928BF9A
:1021800041F08001632900F00584732900F00A847E
:10219000E32901F0CD80F32901F0D28000207047BF
:1021A0001FB509F0D8FD01F0F7F804000020002168
:1021B00008F0E6FF401C60600020002108F0CAFF24
:1021C000E06000F02BFB1FBD10B510BDDFF80CD098
:1021D000FFF7E6FF06F05EFC01F094F9000008202E
:1021E00003B4FFF7F1FF03BC02F077F90A6802F8C5
:1021F000010B0A607047007B00F080007047FEE72B
:1022000058585247010000002655000000202000C9
:10221000002020007FED9247010100000000000037
:1022200000000000000000000000000000000000AE
:10223000000000000000000000000000000000009E
:102240000648804706480047FEE7FEE7FEE7FEE750
:10225000FEE7FEE7FEE7FEE7FEE700003D3E20006A
:10226000058E20007CB51D4616460C00009001D05E
:102270002044401E074B7B442A4669460190304665
:1022800000F063FB05461CB100206946FFF7AEFF76
:1022900028467CBDF70600000FB4044910B503AA18
:1022A000029800F083FB10BC5DF814FB68790020F5
:1022B0000FB41CB5084B06AA7B44694600900598EC
:1022C00000F043FB044600206946FFF78FFF2046DD
:1022D0001CBC5DF814FB000031FFFFFF0FB47CB5A0
:1022E0000C0009AA009001D02044401E084B7B44FA
:1022F00069460190089800F028FB05461CB10020B3
:102300006946FFF773FF28467CBC5DF814FB0000AC
:102310007F06000070B5044685690068C10601D5D6
:10232000302600E02026C00707D070BDD4E9012187
:1023300030469047206A401C20626D1EF6D570BD65
:1023400070B5044685690078C00707D170BDD4E92F
:10235000012120209047206A401C20626D1EF6D586
:1023600070BD70B50C460546012A05D02878800658
:1023700000D5EA69002302E0012305E05B1C9342DB
:1023800002D2E05C0028F9D1A869E618C01AA86159
:10239000286A184428622846FFF7BCFF04E0D5E904
:1023A000012114F8010B9047B442F8D32846FFF7F7
:1023B000C7FF70BD2DE9F04106460024106875295D
:1023C000314616A510D000F03BFA002802DA404250
:1023D00013A507E031688A0701D512A502E0490775
:1023E00004D511A5012401E000F033FA00210A22EE
:1023F00006F1240709E0B0FBF2FCB0FBF2F302FBAC
:102400001C00303078541846491C0028F3D123466C
:102410002A463046BDE8F04100F024BA0000000032
:102420002D0000002B00000020000000F0B40D463D
:102430000188090502D5214C7C4402E01F4C7C44F4
:102440000E34002100F1240608E002F00F07120903
:10245000E75D42EA03721B097754491C52EA0307FD
:10246000F3D102780023120704D5702D06D009B1EC
:10247000022311342246F0BC00F0F4B901231034D9
:10248000F8E770B504460D462146106800F0E1F902
:10249000024629462046BDE870400023C6E7D21D0B
:1024A00022F00703D3E90023C0E70368126843F072
:1024B000200303600823C3610023B7E71C9B0000CF
:1024C0002DE9F05F894604464FF0000ADFF874B149
:1024D000FB44C0F820A02046E1688847002874D05B
:1024E000252806D0D4E901219047206A401C2062AB
:1024F000F1E700265F462046E16888472028054628
:1025000007DB312D05D2781910F8200C08B10643ED
:10251000F1E7B00701D526F00406C4F81CA0002797
:10252000C4F818A02A2D09D0284601F0CFFF38B3EF
:1025300004EB8708303DC8F8185019E059F8041B1F
:10254000204604EB87029161E1688847012F054628
:1025500018D1E069002820DA26F020061DE0D8F81E
:10256000180000EB800005EB40003038C8F8180078
:102570002046E1688847054601F0A8FF0028EED113
:10258000012F0AD02E2D08D12046E16888477F1CF4
:102590000546022F46F02006C4DBA069002803DAB6
:1025A000404246F00106A061F00701D026F0100677
:1025B0006C2D0BD0682D09D04C2D39D06A2D35D01B
:1025C000742D35D07A2D33D016E038E0E1682F46EF
:1025D00020468847B842054609D16C2F26D04FF4D3
:1025E0008060E168064320468847054604E06C2F7A
:1025F0001AD04FF4807006430DB3A5F1410019289D
:1026000002D8203546F400664A4629462046266010
:102610004E46FFF77DFD80B101280BD0F61D26F058
:10262000070000F1080956E74020E4E78020D8E7DA
:102630000020D6E706F104094DE7284652E7206A54
:10264000BDE8F09FAC9A000040EA010310B59B077B
:102650000FD1042A0DD310C808C9121F9C42F8D00C
:1026600020BA19BA884201D9012010BD4FF0FF30BD
:1026700010BD1AB1D30703D0521C07E0002010BDD3
:1026800010F8013B11F8014B1B1B07D110F8013B5F
:1026900011F8014B1B1B01D1921EF1D1184610BD40
:1026A00010B5431C02E010F8011B71B18107FAD18B
:1026B0004FF0013202C88C1A8C4314EAC211F9D0CF
:1026C000C01A0A0603D0C01E10BDC01A10BD0A04ED
:1026D00001D0801E10BD0902FCD0401E10BD032A8F
:1026E00040F2308010F0030C00F0158011F8013B2F
:1026F000BCF1020F624498BF11F801CB00F8013B16
:1027000038BF11F8013BA2F1040298BF00F801CBD9
:1027100038BF00F8013B11F0030300F02580083AB0
:10272000C0F0088051F8043B083A51F804CBA0E807
:102730000810F5E7121D5CBF51F8043B40F8043B5C
:10274000AFF30080D20724BF11F8013B11F801CB91
:1027500048BF11F8012B24BF00F8013B00F801CB62
:1027600048BF00F8012B704710B5203AC0F00B802D
:10277000B1E81850203AA0E81850B1E81850A0E885
:102780001850BFF4F5AF5FEA027C24BFB1E81850DF
:10279000A0E8185044BF18C918C0BDE810405FEA4F
:1027A000827C24BF51F8043B40F8043B08BF7047CB
:1027B000D20728BF31F8023B48BF11F8012B28BFD0
:1027C00020F8023B48BF00F8012B70474FF0000291
:1027D00000B5134694469646203922BFA0E80C5017
:1027E000A0E80C50B1F12001BFF4F7AF090728BFF2
:1027F000A0E80C5048BF0CC05DF804EB890028BF6E
:1028000040F8042B08BF704748BF20F8022B11F096
:10281000804F18BF00F8012B7047000070B5064CC0
:102820007C44064D7D4403E0206820448047241DFD
:10283000AC42F9D170BD0000C0990000C099000001
:1028400009684A0501D540B27047C905FCD500B2F8
:10285000704709684A0501D5C0B27047C905FCD563
:1028600080B270472DE9F0470D46994692460446DE
:1028700000F124080168880604D5E06921F0100100
:10288000216000E00120A84201DD471B00E0002795
:10289000A1697A1902EB0900081AA0612078C00624
:1028A00002D42046FFF736FD002608E0D4E90121D6
:1028B0001AF806009047206A401C761C20624E459C
:1028C000F4DB2078C0060AD52046FFF723FD06E09A
:1028D000D4E9012130209047206A401C2062381E34
:1028E000A7F10107F4DC07E0D4E9012118F805009D
:1028F0009047206A401C2062281EA5F10105F3DCE8
:102900002046FFF71DFD2078000602D50220BDE815
:10291000F0870120FBE711680268006A530501D5C2
:1029200008700AE0D30501D5088006E0130603D538
:10293000C217C1E9000200E00860012070470000F2
:1029400001694A1C02610878704700B58FB0CDE973
:1029500001310021059105497944CDE90310114663
:102960006846FFF7ADFD0FB000BD0000E5FFFFFFBB
:10297000D1E900239A4202D2531C0B6010707047B9
:1029800010B5436913B1AFF3008001E0FFF7E9FC34
:10299000012010BD127800F124010A7000224A7053
:1029A0000122EDE711684FF0FF32E9E7074B70B500
:1029B0000D467B44FFF7C9FF04462846FFF71BFC82
:1029C00010B14FF0FF3070BD204670BDF73C0000E5
:1029D0002DE9FF5F15468A460446DFF8AC80F844CF
:1029E0000027D8E900103E46CDE9001010E03AF883
:1029F00016106A4602A800F0A7FC411C07D02178F7
:102A0000890603D5E269391891420DD80744761C2E
:102A10002078800602D5E069B84205DDAE42E6DBEB
:102A20003AF816000028E2D1A069C01BA061204638
:102A3000FFF770FCD8E90010CDE90010002017E086
:102A40003AF818106A4602A800F07EFCB0F1FF3F89
:102A500081460BD000250DF1080B05E0D4E90121DA
:102A60001BF8050090476D1C4D45F7D308F1010098
:102A7000B0428046E4DB206A384420622046FFF7FB
:102A80005FFCBDE8FF9F0000B29500002DE9F0411A
:102A90008046D21D22F007020025D2E90002F52966
:102AA00015A614D0011E72F1000106DA0023D0EB46
:102AB000030063EB020211A608E0D8F800108B07B0
:102AC00001D50FA602E0490701D50EA60125114642
:102AD000002408F1240704E000F04EF830323A55A3
:102AE000641C50EA0102F7D12B463246214640468B
:102AF000BDE8F041FFF7B6BE000000002D00000069
:102B00002B0000002000000030B4002100F124045C
:102B100008E002F00705D208303542EA4372DB08CC
:102B20006554491C52EA0305F3D10468002310A23E
:102B3000250707D5A40600D421B1C46901230DA23D
:102B4000641EC46130BCFFF78DBE10B5044621463B
:102B50001068FFF77EFE02462046BDE810400023C5
:102B6000D2E7D21D22F00701D1E90023CCE7000013
:102B7000000000003000000030B5B0F10A024FEA5A
:102B8000900E71F100034EEA817EB0EB0E0061EB16
:102B900091014FEA101E4EEA017E10EB0E0041EB50
:102BA00011114FEA102E4EEA016E10EB0E0041EBB0
:102BB00011214FEA104E4EEA014E10EB0E0041EB90
:102BC0001141401841F100014FEAD00040EA417044
:102BD0004FEAD10110EB80054FEA810444EA90747A
:102BE00044EB01046D1944EB0404521BA3414FF064
:102BF000000348BF0A3200D530BD401C41F100013E
:102C000030BD70472DE9FF4F0C461E464FF0FF3791
:102C10008BB0D2E90001DDF860800A908A46C1F3EA
:102C20000A5505B93D46002108464FF00000BAF1AB
:102C3000000F00F4400005DA00EB80004FF4400183
:102C400001EA50004FEA9059B9F1010F00DDB94691
:102C50000A9850EA4A000ED044F61050A5F2FF350B
:102C600045432F14B8F1000F1ED07542291E1EDDFA
:102C7000C9F100021CE0B8F1010F4FF0000001D0D3
:102C8000302103E0F24305E02154401CB042FBDB5D
:102C900030460022002121540B99C1F80880C1E977
:102CA00000200FB0BDE8F08FBD1B6D1CDEE74A466B
:102CB00000DA694206A800F0B3FB06AB93E8070010
:102CC00003AB83E8070050460A9900F065FC8DE8E5
:102CD0000700A0F500501F3800900398002D0ADD72
:102CE00042F21F014A460844002303A903906846A4
:102CF00000F0CEFE09E0A0F500504A461F38002340
:102D000003A90390684600F0D8FE8DE80700000490
:102D1000000C03D04FF0FF30410800E01046B8F13E
:102D2000000F03D00022009215461EE0751E05D448
:102D3000FFF722FF303262556D1EF9D5B3460122EE
:102D4000084302D000227F1C04E02078302801D103
:102D500000227F1E002A099784D01DE0112D07DA7A
:102D6000FFF70AFF303262556D1C50EA0102F5D1BF
:102D7000084302D00098C8B10EE00021681E05E0AB
:102D8000235C625C63542254401E491C8142F7DB81
:102D9000AB46A81B401E0990002004F80B000B98BE
:102DA000099AC0F80880C0E9002B7AE711264FF095
:102DB000000857E72DE9F04F88460446D21D22F05F
:102DC000070191B0D1E90001CDE90A0101F06FF8E6
:102DD00002460B98C00F01D02D2007E02068810724
:102DE00001D52B2002E0202101EAC000032A09902E
:102DF00001D0072A05DB03464146204600F0D0FA01
:102E00000BE12078800601D5E06900E00620B8F1EA
:102E1000650F814606D0B8F1660F18D0B8F1670F7C
:102E200070D131E00020B9F1110F009001DB1123C6
:102E300001E009F101030AAA01A90CA8FFF7E2FECB
:102E4000DDE90C70002609F10105834647E0012009
:102E50004B4600904FF000470AAA01A90CA8FFF7C3
:102E6000D1FEDDE90DB00C995D46002610B909F1DF
:102E700001000D18B9EB050003D4C0F1FF3609F1CC
:102E80000105A5EB09002BE0B9F1010F01DA4FF0C4
:102E900001090020B9F1110F0090484601DD11230E
:102EA00000E003460AAA01A90CA8FFF7ABFEDDE982
:102EB0000C704D4600268346207800070AD4AB45A7
:102EC00000DA5D4601A8012D04DD411911F8011C4D
:102ED000302907D04F4502DA17F1040F04DA012038
:102EE00082460FE06D1EEEE7002F02DCED1B3E4434
:102EF00003E0781CA84200DD7D1CB81B00F1010A2C
:102F00004FF000472078000703D4AA4501DB4FF0BB
:102F1000FF3A0021B7F1004F0DF143088DF843103F
:102F200024D002202B23002F01DA7F422D230A21F7
:102F3000021EA0F1010000DC5FB197FBF1FC97FBE2
:102F4000F1F201FB1C7C17460CF1300C08F801CDA6
:102F5000EEE7A8F1010003702188090501D545219C
:102F600000E06521A0F1010800F8011C09980FA9F3
:102F7000A1EB0807FF1D00B10120411901EBEA7028
:102F8000A1693844081A401EA0612078C00602D406
:102F90002046FFF7BFF9099828B1D4E901219047ED
:102FA000206A401C20622078C00622D52046FFF708
:102FB000B1F91EE0002E04DBB34502DD01A8805DFF
:102FC00000E03020D4E901219047206A401C2062B3
:102FD000761CAAF101005FEA000A0AD100F0DCF9D0
:102FE000C0680168405CD4E901219047206A401C18
:102FF0002062281EA5F10105DCDC07E0D4E90121EF
:1030000018F8010B9047206A401C2062381EA7F177
:103010000107F3DC2046FFF793F9032011B041E6E6
:103020002DE9F04F04460D46D21D22F0070089B06D
:10303000D0E900974846394600F039FF0246F80FBC
:1030400001D02D2307E02068810701D52B2302E062
:10305000202101EAC0038DF820300BB1012000E0EF
:103060000020032A824601D0072A04DB2946204695
:1030700000F096F93FE12078800601D40D2500E0AC
:10308000E569C7F30A560D2D49DA00214FEA175BAF
:1030900008464FF00000002F00F4400007DA00EB74
:1030A00080004FF4400100EBD07001EA6000811510
:1030B000012901DD4FF0FF3100224FEA850CBCF100
:1030C000180F06D31346ACF118004FF08052C240DF
:1030D00003E04FF4801323FA0CF30CF10C0CBCF159
:1030E000200F04D3ACF1200C09FA0CF001E007FA30
:1030F0000CF000294FF0004801DD18B90FE00ED1A7
:1031000040450CD319EB02095F4121B9404502D17A
:103110009F4329EA0209BBEB175F00D0761C208889
:10312000000502D57B48784402E07A487844193893
:1031300008AA302302F80A30037C0AF10101002EAC
:103140000AF1020A53546A4602DC4FF0300101E0F2
:103150004FF031014FF001088DF8001002D0A6F2B7
:10316000FF3603E059EA470100D06B4E002D02DC28
:103170002178090704D54FF002082E218DF801109F
:10318000C44600210BE0C7F303433F01C35C491C65
:103190006D1E02F80830052908F1010801DA002D3A
:1031A000F1DC00210CE000EB1973491C1B786D1E4B
:1031B000082902F808304FEA091908F1010801DA74
:1031C000002DF0DC21688B0602D516E0A8F101087D
:1031D000E04505DD02EB080313F8013C302BF5D088
:1031E000B8F1000F09DD02EB080313F8013C2E2BA8
:1031F00003D1090701D4A8F10108002D05DD3E2106
:1032000002F808106D1E08F10108407C002E02F83B
:10321000080008F1010804DA2D20764202F80800BF
:1032200002E02B2002F808000A214FF47A7086424F
:1032300008F101080BDB96FBF0F3303302F808309D
:1032400096FBF0F308F1010800FB136601E0642E21
:103250000CDB642096FBF0F3303302F8083096FB69
:10326000F0F308F1010800FB136601E00A2E06DB0B
:1032700096FBF1F0303002F8080008F1010896FBE7
:10328000F1F001FB1060303002F80800A16908F18C
:10329000010808EB050202EB0A00081AA061207879
:1032A000C00602D42046FFF735F8216A08AE01EBCC
:1032B0000A00206204E0D4E9012116F8010B9047CE
:1032C000BAF1010AF7D22078C00602D52046FFF7EE
:1032D00021F86E4609E016F8010B3E280FD0D4E91C
:1032E00001219047206A401C2062B8F10108F2D207
:1032F0002046FFF725F809B00320BDE8F08F206ACB
:103300002844206203E0D4E90121302090476D1E5B
:10331000EBD3F8E7858E000002FCFFFF10B5436990
:1033200013B1AFF3008001E0FFF752FB012010BDA5
:10333000128800F1240182840022C2840122EDE778
:1033400011684FF0FF32E9E770B516460C460546A6
:1033500000F01AF8036893F80101012806D0FF2C49
:103360000FD8185D68B101202C7070BDD3F807012B
:103370003246214603F2071303442846BDE8704055
:1033800018474FF0FF3070BD10B500F005F8001D74
:1033900010BD00BFED7D000000487047108A00207E
:1033A0002DE9F0411F46044603260168072A01F46F
:1033B000006004DB08B116A505E016A503E008B11E
:1033C00015A500E015A521F010002060A069C01E21
:1033D000A0610FB1401EA0612046FEF79BFF4FB1D8
:1033E000D4E9012138469047206A401C2062C01C65
:1033F000206206E0206AFAE7D4E9012115F8010B02
:103400009047761EF8D22046FEF79AFFBDE8F0817D
:103410004E414E006E616E00494E4600696E660078
:103420002DE9F047814616468AB0354878440DC8E4
:103430008DE80D0032487844801C03AC0DC884E848
:103440000D0041F69B300844372190FBF1F290FBD0
:10345000F1F5A5F1800501FB12041B3C02D5644285
:10346000012000E00020DFF898A080460027FA4401
:10347000AAF1BE0A0EE0E0070AD03246684607EB22
:10348000470101230AEB810100F017FB8DE80700DB
:1034900064107F1C002CEED1194F7F44AE3F19E021
:1034A000E80715D007EB04100DF1180A90E80E009C
:1034B0008AE80E00C068F04201D19819089032469F
:1034C000012306A903A800F0F8FA03AB83E807007C
:1034D0006D10641C002DE3D14FF0010332466946A4
:1034E000B8F1000F03A802D000F0D2FA01E000F01A
:1034F000E4FAC9E90001C9F808200AB0BDE8F0877C
:10350000108C000010B50446AFF300802046BDE8E3
:103510001040FEF765BE00004FF0013C50F8042B50
:1035200051F8043B9A4221D1A2EB0C03934313EAD6
:10353000CC1317D150F8042B51F8043B9A4215D103
:10354000A2EB0C03934313EACC130BD150F8042BDA
:1035500051F8043B9A4209D1A2EB0C03934313EABE
:10356000CC13DBD04FF00000704700BFD01A01BA77
:10357000B1FA81F101F0180122FA01F0CB40C1F15A
:103580002001DBB2C0B2C01A2CFA01F3D11A914368
:1035900011EAC311E6D170475FEA400C08BF91F011
:1035A000000F4FEA8C234FEAC12243EA51514FEA00
:1035B0001C5018BF00F5F0404FEA300018BF41F032
:1035C00000415FEA6C5C00F02980BCF1FF3F08BF5E
:1035D00040F080407047130C06BF12044FF0100CEF
:1035E0004FF0000C130E04BF12020CF1080C130F65
:1035F00004BF12010CF1040C930F04BF92000CF1F4
:10360000020CD30F04BF52000CF1010C11464FF015
:103610000002A0F11F00A0EB0C00704711F0004F5A
:1036200008BF704731F000413FF4D5AF0B0C06BF27
:1036300009044FF0100C4FF0000C0B0E04BF0902F0
:103640000CF1080C0B0F04BF09010CF1040C8B0FDB
:1036500004BF89000CF1020CCB0F04BF49000CF130
:10366000010CCCF12003A0EB0C0022FA03F302FAC8
:103670000CF241EA030100F10100704720F07F4C99
:1036800080EA030023F07F47ACEB070303F57C538C
:1036900000F0004003F1FF032DE980494FEA154B8C
:1036A00009B44FEA144325EA0B4E24EA03480FF20B
:1036B000042606EB132749083E785FEA320203FB33
:1036C0000667C7F5000707FB06F64FEA54374FEACF
:1036D000D64606F1020607FB066CCCF1005C4FEA09
:1036E0001C472CEA074C07FB06F40CFB06F504EB21
:1036F00015464FEA961634BF00204FF000404FEABF
:10370000D13706FB07FC4FEA1C4C0CFB0BF7D21B16
:1037100003FB0CF761EB07010CFB0EF7B0EB074066
:1037200072EB17420CFB08F734BFA2EB0742B2EB77
:10373000074261EB17414FEA0C444FEA910706FB41
:1037400007FC4FEA1C4C0CFB0BF7B0EBC74072EBCD
:10375000573203FB0CF734BFA2EBC742B2EBC742B0
:1037600061EB57310CFB0EF7B0EBC70072EB5772F1
:103770000CFB08F734BFA2EBC702B2EBC70261EB48
:103780005771039F4FEA816141EA921104EBCC0427
:103790004FEAD1374FEA826206FB07FC42EA9012F9
:1037A0004FEA80604FEA1C4C0CFB0BF7D21B03FB6B
:1037B0000CF761EB07010CFB0EF7B0EB074072EB67
:1037C00017420CFB08F734BFA2EB0742B2EB0742EB
:1037D00061EB17414FEA8C554FEA910704EB9C24AB
:1037E00006FB07FC4FEA1C4C0CFB0BF7B0EBC74089
:1037F00072EB573203FB0CF734BFA2EBC742B2EBBC
:10380000C74261EB57310CFB0EF7B0EBC70072EB10
:1038100057720CFB08F734BFA2EBC702B2EBC7022A
:1038200061EB577115EB4C254FEA816141EA92112A
:103830004FEA82624FEAD13742EA901206FB07FC58
:1038400044F100044FEA80604FEA1C4C0CFB0BF77C
:10385000D21B03FB0CF761EB07010CFB0EF7B0EB7F
:10386000074072EB17420CFB08F734BFA2EB07428C
:10387000B2EB074261EB174115EB1C154FEA8131A2
:1038800041EA92414FEA823242EA90424FEA803066
:103890004FEA0C7644F1000448EA03434EEA0B4831
:1038A0004FF0000EB2EB080C71EB030724BF624629
:1038B00039464EEB0E0E4FF0000B001852414941B5
:1038C0004BEB0B0BB2EB080C71EB03077BF1000B1E
:1038D00024BF624639464EEB0E0E4FF0000B001827
:1038E000524149414BEB0B0BB2EB080C71EB030758
:1038F0007BF1000B24BF624639464EEB0E0E51EAB7
:10390000020718BF46F0010616EB0E7655F10002CD
:1039100054F1000103D5BDE88901BDE80088BDE888
:103920008901BDE80048B619524141EB0101A3F1FC
:103930000103704780807F7E7D7C7B7A7978777603
:1039400076757473727171706F6E6E6D6C6C6B6A7C
:103950006A6968686766666564646363626161601A
:10396000605F5F5E5E5D5D5C5C5B5B5A5A59595897
:103970005857575656555555545453535252525101
:10398000515050504F4F4F4E4E4D4D4D4C4C4C4B57
:103990004B4B4A4A4A49494948484847474747469E
:1039A00046464545454444444443434343424242DA
:1039B00042414141002B9C4630D477002BD01CB5AE
:1039C0004FEA370703B44FF010004FF01001BAF17F
:1039D000000F06D0BCF1000FDCBF40F0080040F043
:1039E00008014FF000000FBCBDE810400BF1010BC7
:1039F000BBF1010F08BF5FEA170722BF12F10102F6
:103A000011F101014FF0004143F1000300F00040CB
:103A100043EA00007047F9D35708D0E746EA064664
:103A200013F1400F4FEA16461FDD13F1200FDFBFE1
:103A300016430A46002120335B42BED0C3F1200763
:103A400046EA064602FA07F74FEA164646EA07062E
:103A5000C3F1200722FA03F201FA07F721FA03F172
:103A60004FF0000342EA0702A7E746EA020646EAE9
:103A700006464FEA164646EA0106BCBF46EA064637
:103A8000360C4FF000034FF000024FF0000194E7B6
:103A90002DE9804C9A46934670B491E8380007C8E7
:103AA00031EA400C48BF34EA430C03D5FFF7E6FD8A
:103AB000FFF780FFF0BCBDE8008C2DE9804C9A46F2
:103AC000934670B491E8380007C810F0804F08BFE3
:103AD00013F0804F03D100F005F8FFF76BFFF0BC47
:103AE000BDE8008C20F07F4780EA030023F07F4C84
:103AF00007EB0C03A3F57C5300F00040A3F1FE0399
:103B000092F0000F00F0B38095F0000F00F0778086
:103B10002DE901494FEA11404FEA144621EA0048D5
:103B200000FB06FC24EA064708FB06F607FB08F83C
:103B300000FB07F718EB06484CEB164C4FEA124B0C
:103B400018EB07484FEA15464CEB174022EA0B4E9C
:103B50000BFB06FC25EA06470EFB06F607FB0EFEEE
:103B60000BFB07F71EEB064E4CEB164C4FF0000616
:103B70001EEB074E4CEB174B18EB0B0840F1000007
:103B800018EB0E0B58EB000840F100008F1A4FF0B5
:103B900000013CBFC943661B14BFB5EB040C0021F8
:103BA0003CBFC943F61B4FEA17444EEA8E0E27EA84
:103BB00004454FEA1C4704FB07622CEA074C05FB4F
:103BC00007F70CFB05F604FB0CFC16EB074642EB73
:103BD000174216EB0C4642EB1C421BEB060658EB59
:103BE0000202414146EA9E0601D5BDE80189B619A7
:103BF000524141EB0101A3F10103BDE801894FEA04
:103C000014454FEA114724EA054621EA074C05FB13
:103C100007F406FB07F70CFB06F105FB0CFC11EBA8
:103C2000074144EB17444FEA124711EB0C4144EBB8
:103C30001C4422EA074C05FB07F206FB07F70CFBC6
:103C400006F605FB0CFC16EB074642EB174216EB9B
:103C50000C4642EB1C456A1854F1000148BF7047FE
:103C6000B619524141EB0101A3F10103704795F0F0
:103C7000000F37D04FEA11424FEA144721EA0246BB
:103C800024EA074C02FB07F106FB07F70CFB06F4DE
:103C900002FB0CFC14EB074441EB17414FEA1547BC
:103CA00014EB0C4441EB1C4125EA074C02FB07F5E1
:103CB00006FB07F70CFB06F602FB0CFC16EB0746AF
:103CC00045EB174516EB0C4645EB1C42121951F11A
:103CD000000148BF7047B619524141EB0101A3F101
:103CE000010370474FEA14454FEA114724EA05469D
:103CF00021EA074C05FB07F106FB07F70CFB06F270
:103D00004FF0000605FB0CFC12EB074241EB17419C
:103D100012EB0C4251EB1C4148BF7047921841EB2B
:103D20000101A3F10103704701F064BE10B501F079
:103D3000F7FF10BD70B503201749096841F38001F2
:103D4000491C164D00290CD113490C310968C1F3E7
:103D5000000131B110498C39096801F0070188432D
:103D600003D02869401C286170BD0D4C206820F0EC
:103D700001002060206840F00400206009494FF4F1
:103D80000030086002F072F8E868401CE8602068C3
:103D900040F00100206070BDD4A40040E87900200C
:103DA00088E2004084E200E0FEE726F6F7BE00006D
:103DB00005280CD2064A116801F4E021B1EB004F4E
:103DC00005D0116821F4E02141EA004010607047FD
:103DD00000A000400249096801F007010170704726
:103DE00000A0004070B50446072C20D2104E306869
:103DF00000F00700A04214D0032004F0C1FAF068DC
:103E000020F0070545F00100F06000BF00BF00BFD3
:103E100000BF204604F0B4FA064850F824002843B6
:103E2000F060044804491C3850F82400086070BD54
:103E300000A00040FCBE2000600300200248016892
:103E400041F470010160704788ED00E002480068AD
:103E5000001D03F007BD00000C85002002484068EB
:103E6000001D03F0FFBC00000C85002002488068A4
:103E7000001D03F0F7BC00000C8500200248C0685C
:103E8000001D03F0EFBC00000C8500200248006913
:103E9000001D03F0E7BC00000C85002002484069CB
:103EA000001D03F0DFBC00000C850020FEE703B41A
:103EB00001984100009850EAC12018BF04204A0D23
:103EC00018BF40F0010040F2FF72B2EB515F08BF33
:103ED00040F00200012808BF052002B0704700280A
:103EE00009DB00F01F02012191404009800000F130
:103EF000E020C0F88012704700280DDB00F01F02A0
:103F0000012191404009800000F1E020C0F88011BB
:103F1000BFF34F8FBFF36F8F7047002809DB00F0AE
:103F20001F02012191404009800000F1E020C0F80B
:103F300000117047002809DB00F01F0201219140A9
:103F40004009800000F1E020C0F80011704700280F
:103F500004DB00F1E02090F80004704700F00F004F
:103F600000F1E02090F8140D7047002804DB00F108
:103F7000E02090F80004704700F00F0000F1E0200E
:103F800090F8140D7047002804DB00F1E02090F851
:103F90000004704700F00F0000F1E02090F8140DCD
:103FA0007047000002480068C0F30220704700001C
:103FB0000CED00E0EFF310807047000000000000FF
:103FC0002DE9F0412DED020B9FED3D0B2DED028B08
:103FD0009FED3D8BDDE90254C4F30A50A0F2FF3699
:103FE000142E37DA002E18DA53EC102B9DED020B4D
:103FF00051EC100B07F0E6F853EC182B07F0DEFC41
:1040000057D2002CBCBF4FF00044002551DB54EACE
:10401000050018BF2E4C1BD14BE02E4820FA06F7A6
:1040200004EA070028431FD053EC102B9DED020B30
:1040300051EC100B07F0C6F853EC182B07F0BEFC40
:1040400037D2002C03DD4FF48010F0400444BC4311
:1040500000252EE0332E07DCA6F114004FF0FF31CF
:1040600021FA00F73D4206D19DED020BBDEC028B1B
:1040700002B0BDE8F08153EC102B9DED020B51EC2A
:10408000100B07F0D1FC53EC182B07F097FC10D263
:10409000002C0DDD142E08BF641C09D0C6F13400BD
:1040A000012101FA00F02844A84238BF641C0546EB
:1040B000BD43CDE902549DED020BD7E7000000009F
:1040C0009C7500883CE4377E000000000000000082
:1040D0000000F03FFFFF0F0080F3108870470000E2
:1040E0002DE9F74F07460298DFF888A1DFF88881AD
:1040F0004FEA500B5C46019D6048CAF800003F2023
:10410000D8F8041060F30501C8F80410D8F80400CA
:1041100020F48030C8F80400DAF8000020F47000C1
:1041200040EA0750CAF80000DAF8000020F47020D6
:1041300040EA0740CAF800000D2F05D1DAF8000068
:1041400040F40040CAF800000E2F05D1DAF8000054
:1041500040F48040CAF80000DAF8000040F4005053
:10416000CAF80000DAF8000020F06050CAF8000039
:10417000DAF8000020F00F0040F00300CAF8000059
:10418000002000F0CFF8012871D1DAF8000040F0EB
:104190008040CAF80000002008E0D8F8081041F478
:1041A0008031C8F80810401C411C05D0D8F8081010
:1041B000C1F300210029F0D1072000F0B3F8012855
:1041C00055D141E000264FF47A7924E04E451ED9BE
:1041D000DAF8000020F08040CAF80000DAF80000A9
:1041E00040F00040CAF80000DAF8000020F000407B
:1041F000CAF80000002000F095F8012837D12049C6
:10420000086A401C086205200BF600FA72E70120DC
:104210000BF6FCF9761CD8F80800C0F30020002843
:10422000D4D0D8F8080000F07F02A24200D922467C
:10423000002006E0D8F800102980090C69802D1DA7
:10424000401C9042F6D3A41A002CBBD10298C007A0
:1042500008D0D8F80800C0F300200028F9D0D8F81A
:1042600000002880BDE8FE4F002000F05BB8BDE8EC
:10427000FE8F000000A8004000E000400A07080789
:10428000E87900202DE9F041044615480021C0F8E6
:10429000941001214161134D686A134EF06200F0E1
:1042A000010149420140C80512D440F2011704E05F
:1042B00044B1641E01200BF6A9F9A869B84204D1E3
:1042C000012003E00020BDE8F08100200028EFD0AD
:1042D0000648006870626868B0620120F3E7000079
:1042E00000D01D4200E00040E879002000A8004016
:1042F00009480A49826A4A60094B426A1A60808DFD
:1043000000F0010252420240D00503D4086A20F0B6
:104310000100086270470000E879002000E00040DA
:1043200000A800402DE9F0410546114FF868C0F3A0
:104330000240A84202D10120BDE8F081F86820F0D7
:1043400007002843F86000244FF6FF76F868C0F3B2
:104350000240A84205D001200BF658F9641CB44273
:10436000F4D3B44201D10020E6E70120E4E70000E5
:1043700000E00040F0B506462DED068B89B00D46F5
:104380009FED459B202101A8FEF720FAB0EE498A57
:10439000F0EE698A4248C08B07F07DF99FED411B22
:1043A00053EC112B06F0C2FF41EC1A0B102201A9AD
:1043B0003046FFF795FE002401AF04F1080037F8FE
:1043C000100007F068F953EC182B06F0FBFE41ECE7
:1043D000180B641CE4B2082CEFD351EC180B9FEDC2
:1043E000330B53EC102B07F0EBF941EC180B0D2EAF
:1043F00002D00E2E29D046E09FED2E0B51EC100B73
:1044000006F0D4FE41EC190B688807F044F953EC30
:10441000192B07F0D5F941EC190B288807F03BF967
:1044200053EC182B07F000FB53EC192B06F07EFF22
:104430009FED221B53EC112B06F078FF53EC1A2B47
:1044400006F0C0FE41EC190B1DE09FED1E0B51EC78
:10445000100B06F0ABFE41EC190B688807F01BF956
:1044600041EC1A0BA88807F016F953EC182B07F04B
:10447000DBFA53EC1A2B06F059FF53EC192B07F01B
:104480009FF941EC190B09B0B0EE490AF0EE690A48
:10449000BDEC068BF0BD0000000000000000000035
:1044A000B04500200000000000005940000000005E
:1044B0000000C03F000000000000004079E9263104
:1044C00008AC5CBFB76DDBB66DDB0E4030380A2838
:1044D00001D20120704700207047704710B501F0ED
:1044E000E9FB10BD05F02EB970B504460D4629460E
:1044F000204606F0C3F92946204604F0ADFA2946C5
:10450000204604F07BFD70BD03490A6822F4C062B6
:1045100042EA40200860704704A8004006460F4663
:10452000154672B63846FEF7BBF8402801D9402040
:1045300002E03846FEF7B4F880463046FEF7B0F8A1
:10454000402801D9402002E03046FEF7A9F8044691
:104550009C211048FEF73AF9424639460D48FEF7CD
:10456000BEF80C48224631465C30FEF7B8F80948E0
:104570004FF0AA31016445644FF0BB3181644FF0C4
:10458000CC3101654FF0DD318165002000F004F889
:10459000FEE700004886002030B5ADF20C4D044621
:1045A0004FF4806103A8FEF711F9184D202085F81B
:1045B0003F0085F89B003CB12846012C436DC26C3E
:1045C00009D0022C0CD00FE0104A11A15C3203A8D4
:1045D000FDF76EFE08E011A103A8FDF769FE03E0F8
:1045E00016A103A8FDF764FE03A90BA2686CCDE930
:1045F0000121009018A3054A18A1002000F0DCFC5E
:1046000000F0A6FC0DF20C4D30BD000048860020E5
:104610005B4552524F525D20257300005B5741525B
:104620004E494E475D20506172616D303A25642CD1
:10463000506172616D313A25640000005B50415257
:10464000414D5D20506172616D303A25642C50619E
:1046500072616D313A256400000000006170705F86
:104660006173736572742E6300000000014895F653
:1046700017B900006C79002006460F4690461D468B
:1046800072B64046FEF70CF8402801D9402002E0FF
:104690004046FEF705F804469C210D48FEF796F8C3
:1046A000224641460A48FEF71AF809484FF05531AC
:1046B000016445644FF066318164C6644FF0773120
:1046C00001654765C94381650220FFF765FFFEE785
:1046D000488600202DE9F04106460F4690461D46CB
:1046E0004046FDF7DDFF402801D9402002E040466A
:1046F000FDF7D6FF04469C210D48FEF767F82246D9
:1047000041460B48FDF7EBFF09484FF011310164BA
:10471000456449008164C6644FF0333101654765E3
:104720004FF044318165BDE8F0410120FFF734BF0F
:10473000488600202DE9F041014600291BD00024C5
:104740000F4E0E4A357814E002EB04100F78037810
:10475000BB420CD14B684068034208D0707808B95E
:1047600000F0C8FB2046BDE8F04100F0EBBA641C45
:10477000E4B2AC42E8D3BDE8F08100005C820020E6
:104780004C7900207CB505460E46002D01D0002452
:1047900018E0E5207CBD05EB041041680091017A2A
:1047A0008DF80410417A8DF8051007218DF8061058
:1047B000C26800780023694600F084F80028E9D137
:1047C000641CE4B2B442E6D300207CBD10B50246BE
:1047D0000846052A25D2DFE802F003030311190079
:1047E000114951F832200104090C05D022B10146CB
:1047F000104602F0F7FE10E0E42010BD10F0FF0FAD
:1048000002D002F093FE08E0E42010BD10F0FF0F8C
:1048100005D00146002002F027FF002010BDE42053
:1048200010BDE62010BD0000E8BD200010B5044614
:10483000A168002902D017A0FDF72EFD60680228AC
:1048400010D10221032000F04BF958B914200AF6C8
:10485000D7FE0221032000F043F90128F9D00FA070
:10486000FDF71AFD6068012813D10121032000F033
:1048700037F900280DD114200AF6C2FE01210320C9
:1048800000F02EF90128F9D0BDE8104008A0FDF78E
:1048900003BD10BD25730D0A000000000D0A4B4535
:1048A000593020707265737365642E0D0A00000024
:1048B0000D0A4B45593120707265737365642E0D76
:1048C0000A0000002DE9F05F05460C469046994627
:1048D00026680027042D11D031462846FFF776FFC1
:1048E0002146284600F05EF8002808D1032D08D0A4
:1048F0004FF0100A2807070E002448E0E620BDE824
:10490000F09F4FF0080AF7E7F0073DD03DB1012DC9
:1049100005D0022D03D0032D21D0E620EFE71E485D
:1049200000EBC50090F904B0BBF1000F15D0EFF318
:104930001081012080F31088184AE01942F8308075
:1049400002EBC000C0F8049081F31088584622F6AC
:1049500021FD584622F63CFD16E0E420CFE7EFF3B8
:104960001081012080F310880D4AE01942F8308050
:1049700002EBC000C0F8049081F310881B2022F6DF
:1049800009FD1B2022F624FD7608641CE4B2544580
:10499000BAD30020B3E70000E8BD2000BC830020AC
:1049A000CC84002070B58EB005460C46474991E88E
:1049B0004D00CDE90A02CDE90C36D1E9052308699D
:1049C00006AEC9690DC6099114224049203101A8DB
:1049D000FDF7CAFED4B13E49062005F077FA3D49FD
:1049E000072005F073FA3C491B2005F06FFA3B499C
:1049F000122005F06BFA35493C39A1F12C02052D46
:104A000061D2DFE805F0060606213900E5200EB088
:104A100070BD207931F810000B90607932F81000E9
:104A20000C90A0790D9020680A902848543850F8CE
:104A3000350021880904090C04D018B10AA902F034
:104A400005FE39E0E420E2E7207901EB4000808AAE
:104A50000790607902EB4000C0880890A079099027
:104A600020680690207810F0FF0F03D006A802F00F
:104A700067FD21E0E420CAE72079031F042B01D859
:104A8000E720C4E7022819D001200290207901EB29
:104A90004000008D0390607902EB40008089049013
:104AA000A079059020680190207810F0FF0F08D0C1
:104AB00001A9002002F0E6FD0020A8E702200290F4
:104AC000E4E7E420A3E7E620A1E700003CBE2000E5
:104AD00039621000336210002F621000296210004A
:104AE00002460020052A11D2DFE802F00303030981
:104AF0000C00074850F8320089B21FF66AB888B235
:104B00001AF650BF89B2002022F6FABB70470000A7
:104B1000E8BD200010B5052818D2DFE800F0030337
:104B2000030D11000A4A52F8300018B189B21FF67D
:104B30005FF809E0E42010BD88B21AF647FF03E0F1
:104B400089B2002022F6F0FB002010BDE62010BD47
:104B5000E8BD200010B50B461146002903D00129FD
:104B600001D0E42010BD05281CD2DFE800F00303CB
:104B7000030F13000C4A52F8300028B19BB20A46CA
:104B800019461FF639F80BE0E42010BD98B21AF66A
:104B900029FF05E098B20A460146002022F6CCFB28
:104BA000002010BDE62010BDE8BD2000002803D085
:104BB00002490860012070470020704748790020B2
:104BC00070B505460024091F062917D2DFE801F059
:104BD00003070C111315284600F0A4F80EE0012479
:104BE000284600F09FF809E00224284600F09AF8D1
:104BF00004E0032402E0042400E00524034A2146E3
:104C000028461268BDE8704010470000487900202F
:104C10002DE9F0410446204600F0AEF801462E484A
:104C200000230826025D00F10A0700F11405AAB16D
:104C3000052A33D0082A2AD1092945D0082926D1A6
:104C4000295D491CC9B22955142920D32B55065575
:104C50002046BDE8F0410821FFF7B2BF052913D077
:104C6000042916D0072914D0082910D1295D491C20
:104C7000C9B2295514290AD32B5506552046BDE83B
:104C8000F0410821FFF79CBF3B5505210155BDE8C8
:104C9000F0812046BDE8F041FFF792BF05290CD016
:104CA000395D491CC9B239553229F0D30355204624
:104CB000BDE8F0410521FFF783BF03552046BDE85D
:104CC000F0410621FFF77CBF03552046BDE8F041C7
:104CD0000921FFF775BF00001882002070B5044657
:104CE0000D4600F00FF808B100F01AF90348044A25
:104CF0002946005D5268BDE8704010475082002090
:104D00004C7900200020064911F810200AB100203B
:104D10007047401CC0B20A28F6D30120704700003B
:104D2000368200200349002201F8102001EB4000E8
:104D30004270704736820020014A02F81010704716
:104D400036820020024A012102EB40004170704788
:104D50003682002070B50024064D05EB44004078F3
:104D600010B12046FFF754FF641CE4B20A2CF4D3C0
:104D700070BD00003682002070B500211D4B03F18C
:104D800032051A5C002A09D0002403F10A06012A20
:104D90000AD0022A12D0032A24D11FE015F81020CD
:104DA00002B301221A541DE015F810201AB1345430
:104DB00002221A5416E01C54042113E015F81020A6
:104DC0004AB1325C521CD2B23254642A0AD307214F
:104DD00003221A5406E005211C5403E015F81010B4
:104DE00011B10821084670BD1C54FFF79BFF092133
:104DF000F8E7000004820020704700002DE9F04130
:104E00000F4690460A2F04D8B8F1000F01D00023B6
:104E100023E00020BDE8F08103EB430610F82640B4
:104E20002CB1012C03D0022C01D0032C13D100EBA8
:104E30008605124AA97AD154104910F826200C315F
:104E400001EB0314227069686160297A2172697A22
:104E500061720B49E1605B1CDBB2BB42DCD30748EB
:104E600039460C30FFF78EFC06480770C0F8048006
:104E70000548FFF79BFE0120CCE700005082002090
:104E8000354720004C790020DD4C20002DE9F04111
:104E90000024124FDFF8488019E0002607EB0415C4
:104EA00028786968FFF71CFE10B9697A012902D0D9
:104EB000012802D005E0012603E0687A022800D12B
:104EC000012631462046FFF737FF641CE4B298F80C
:104ED00000008442E1D3BDE8F08100005C82002044
:104EE0004C79002010B5FFF7D1FFBDE81040FFF767
:104EF00031BF000010B5074A0121074800F060F9F2
:104F000000220A21044800F027FA044901204870D1
:104F100010BD0000E54E2000008300204C790020E9
:104F200010B5034800F075F902490020487010BD23
:104F3000008300204C790020002806D0002904D0EE
:104F4000024AD269002A00D0104770472486002008
:104F50000248006A002800D00047704724860020DD
:104F600070B50D4616460D4C00280AD0017803296D
:104F700011D80121A17601461A222046FDF7AFFB88
:104F800005E00020A0761A210448FDF71FFCE5612A
:104F90002662002070BD012070BD00002486002024
:104FA000044A1044807D084201D00120704700204F
:104FB00070470000248600202DE9FE4FDDF830B058
:104FC00006469246994600240027019702975A48C0
:104FD0000178B14202D2807E00287DD10DF13808DF
:104FE000CDF80080EFF311850220FEF7BEFF0146E9
:104FF00052480068C0F30220401C012282408818F9
:10500000C0B280F3118801213046FFF7C9FF38B1E3
:105010004B484C4950F82620204600F0A5F804469D
:105020001C213046FFF7BCFF00285ED046A2454950
:10503000204600F099F8204484B204213046FFF75E
:10504000AFFFF8B152463F49204600F08DF82044AA
:1050500084B208213046FFF7A3FF38B13BA239499B
:10506000204600F081F8204484B20BE01021304645
:10507000FFF796FF30B136A23249204600F074F8AF
:10508000204484B208213046FFF78AFF90B14A4697
:105090002C49204600F068F8204484B210213046A4
:1050A000FFF77EFF30B12BA22649204600F05CF8C6
:1050B000204484B210213046FFF772FF70B15B4686
:1050C00026A2052101A8FDF709F901AA1D492046DC
:1050D00000F04AF8204400E02BE084B220A21949F5
:1050E000204600F041F8204484B21648C4F580718F
:1050F000204443460D9AFDF7B5F800974FF48071B0
:10510000002804DB2044884201DC86B200E00E4621
:10511000B01C884200D9FE2612A20A49304600F08F
:1051200023F8304481B20748FFF706FFE8B280F366
:105130001188BDE8FE8F0000248600200CED00E001
:10514000587900202485002028000000200000005D
:105150003A000000204C696E653A0000256C64003E
:10516000292000000D0A000030B505460020002966
:105170000CD0002A0AD006E02B18FF2B06D8CC54FE
:10518000521C401C80B21478002CF5D130BD0000B8
:1051900010B50848017800290AD10121017006489C
:1051A00092F6E8F9BDE810400021044892F678BB79
:1051B00010BD000055790020B16110009D972000BE
:1051C0002DE9F04104460D461746002D04D0012D6F
:1051D00002D00120BDE8F081CCB1C7B1EFF3118658
:1051E0000220FEF7B4FE8046FEF7DCFE401C0121E3
:1051F000814008EB0100C0B280F31188002060708C
:10520000A570E761F0B280F311880020E2E7012089
:10521000E0E710B50446002C0CD0204600F02EF933
:10522000FF2060700021A160E160216161610020C8
:10523000E06110BD012010BDF0B5DDE9074505991D
:1052400081614FF47A76A2FB061C03FB06C300279C
:1052500002FB0732C0E9021209196A41C0E90412CF
:1052600000210162F0BD00002DE9F0410446002C50
:1052700013D0EFF311850220FEF769FE0746FEF713
:1052800091FE401C012606FA00F03844C0B280F3BB
:1052900011881248002121620EE00020BDE8F08153
:1052A000D4E90432D1E9047CDB1B72EB0C0202D29C
:1052B000016A216203E00846016A0029F0D1046214
:1052C0006670064810380168491C0160016B416036
:1052D000E8B280F311880120E0E700003883002065
:1052E0002DE9F04105460024EFF311860220FEF778
:1052F0002EFE0746FEF756FE401C0121814078181D
:10530000C0B280F31188134A106BE8B115B102F1F5
:10531000100010E00446206A10631068401E106000
:105320000CE0A94206D11168491E1160296A016288
:105330002C4603E00846016A0029F2D124B100207E
:1053400020626070106B5060F0B280F311882046CC
:10535000BDE8F081288300202DE9FF5F82460E46DC
:1053600093464FF00008BAF1000F20D04148864222
:105370001DD8E6B1EFF311870220FEF7E8FD0446E1
:10538000FEF710FE401C012181406018C0B280F37E
:105390001188504602F020FF10B19AF8010040B188
:1053A000F8B280F311880F2004B0BDE8F09F01200F
:1053B000FAE703F06DFA04460D464FF47A7106FBE6
:1053C00001F022462B46002102F0CAFDDFF8A8902A
:1053D000B0B1D9F8040048B1D0E90410091B60EB62
:1053E0000500C9E9021003F0CDFA04E00021C9F874
:1053F0000810C9F80C104FF00108D9E9020106E0C5
:10540000D9F80400D0E90421101B61EB0501CDE9B6
:10541000020132460023CDF800B05046FFF70CFFE2
:105420005046FFF721FF04F0BDFC4FF0E021D1F81A
:1054300000014FF0806210F0806F01D0012000E089
:10544000002018B9C1F88022C1F80021B8F1000F7E
:105450000AD0D9F80400D0E90431D9E90202181AB7
:1054600061EB020103F04AFAF8B280F311880020E0
:105470009AE70000008AB907288300202DE9F0414F
:1054800004460025002C39D0EFF311870220FEF7E7
:105490005EFD0646FEF786FD401C01218140701826
:1054A000C0B280F311886078012824D1144E70684E
:1054B000A0420BD103F0ECF9D4E90432181A62EBE4
:1054C0000102C6E9020203F05DFA01252046FFF75A
:1054D00007FF5DB1706848B1D0E90421D6E9020345
:1054E000101A61EB030103F009FA04E01DB97068BA
:1054F00008B903F047FAF8B280F31188BDE8F081EB
:105500002883002070B504461A4D55F824007030E9
:1055100004F02DFA82B21646A2B155F8240090F894
:10552000011101290ED0012180F80411802A0FD326
:1055300055F82400802200F18001703004F02CFA2C
:1055400080260CE055F82410002081F8000170BD81
:1055500055F8240000F18001703004F01DFA55F870
:105560002400324600F18001001D2BF64DFE00287C
:10557000EDD170BD0C850020704700002DE9F84387
:1055800004464B4E56F82400071D062C7ED290F898
:105590006C1000297AD0012978D180F801110025FA
:1055A00056F82400D0E903120A44017D01F00101FC
:1055B000C91D02EB01084168CA6FC2F38002002ACC
:1055C000FAD090F80411E1B1DFF8E8906D1C56F8BC
:1055D0002400001D2BF674FA10280BD056F8240076
:1055E000D9F800108068B1FBF0F000FB08F0B5EBD3
:1055F000C01FEBD956F82400703004F0B8F985B21A
:1056000026E0B0F82480C58C001D2BF677F856F8FC
:10561000240041F2883300EB0801491B8031001D52
:105620002A462BF69EFDE5E756F82400012270304D
:10563000694604F0B1F956F824004068C16FC1F31F
:1056400040010029FAD09DF8001001606D1EADB236
:10565000002DE9D156F82400703004F088F90028B4
:10566000C8D1386841694906FCD5EFF3108501209F
:1056700080F3108856F82400703004F078F968B18F
:10568000EFF31081012080F3108800E00DE038680E
:10569000426842F08202426081F3108856F824107A
:1056A000002081F8010185F31088BDE8F88300002F
:1056B0000C850020600300202DE9F04105460F46CF
:1056C0002C78002D05D022B1062C04D3E820BDE8AB
:1056D000F081E520FBE7384E05F1580046F824003C
:1056E000D2E900310A467030194604F02BF9291D21
:1056F000286D05F00FF90028E9D156F82410281D6F
:10570000486656F82400076056F82400182208302E
:1057100005F14001FDF728F8284856F8241000EB61
:10572000C4056868486056F82400001D02F072F84D
:1057300056F82400001D02F089F8204801220321B8
:10574000103804F08FF856F82410012081F86C000E
:1057500056F82410002081F8000156F8241081F832
:10576000010156F8241081F8020156F8241081F83E
:10577000030113490C2004F0A9FB12490D2004F089
:10578000A5FB1149342004F0A1FB1049352004F099
:105790009DFB0F49362004F099FB0E49372004F099
:1057A00095FB95F9010021F6F5FD95F9010021F62B
:1057B0000FFE00208BE700000C85002080BE20003B
:1057C0004D3E20005D3E20006D3E20007D3E2000CD
:1057D0008D3E20009D3E20002DE9F04104461A4DEB
:1057E00055F82400703004F0C2F882B21646002743
:1057F0007AB155F8240090F80111012909D0802AC6
:105800000ED300F180017030802204F0C5F88026AC
:105810000BE055F8240080F800710020BDE8F0810D
:1058200000F18001703004F0B7F855F8240080F8DA
:10583000047155F82400324600F18001001D2BF65A
:10584000A7FD0028EAD1E9E70C85002070B50628FD
:1058500001D3E82070BD0C4D55F820407CB194F880
:105860006C6066B169B162B1002684F8026155F8D6
:105870002000001D2BF675FC0028EBD170BDE52043
:1058800070BDE42070BD00000C8500202DE9F843B8
:1058900007460C46904604F1080520468EF686FC25
:1058A0000346344E70680021A7F58042DFF8C8C077
:1058B000B2F5804F03D2DCF80010401A0121E21843
:1058C000824202DD0520BDE8F8833068421EC2F343
:1058D0000B02821A02F6FF72C2F3073211B1DCF832
:1058E000001000E00021DFF894C0DFF89490DCF8AD
:1058F00000C0D9F80090ACEB090C96F80990A2EB27
:1059000009020CEBC202101A401A001FE91881426A
:1059100029DD00254FF4004911231F22494628465E
:10592000009571F69BFE0021084601F027FA40B170
:1059300013231F2249460020009571F68FFE0F2089
:10594000C1E7707A02F04AFA0028BCD112231F2264
:105950004946009571F682FE424621463846BDE82A
:10596000F84305F0C5B8424621463846BDE8F8433D
:1059700005F0BEB890470020B8350020C43500209F
:10598000BC35002070B504F091FC40F21A4120B102
:1059900040F24C4004F0FEFA03E040F22E4004F0E6
:1059A000F9FA0D4CA07850B1E08804F003FB0546ED
:1059B000208904F0FFFA294604F03EFC05E04FF48C
:1059C00061714FF47A7004F037FCBDE87040024812
:1059D0004A3003F007BE0000E8790020044A52F87C
:1059E000200050F84B2F0A608088888070470000A4
:1059F0001419002000214FF03040C1608161C0F8CF
:105A0000D011C11741610162C0F8D81103496FF488
:105A1000806008600220FEF762BA000084A00040A7
:105A20002DE9F04105460E4614461F46204600F07B
:105A30002BF83B46224631462846BDE8F04185F624
:105A4000B5B82DE9F04105460E4614461F462046DE
:105A500000F01AF83B46224631462846BDE8F041A0
:105A600085F6DABA2DE9F04105460E4614461F4682
:105A7000204600F009F83B46224631462846BDE85C
:105A8000F04185F631BB000010B5C0B284F66AFB68
:105A900001491438087010BD807B002010B500F05B
:105AA000ADF800F06DF8BDE8104000F08BB80000D4
:105AB00010B51248016821F0070141F004010160AE
:105AC0000A2009F6A3FD0D488438016821F480718D
:105AD00001600121002025F63FF801201AF6DEFDC5
:105AE00007490220087004F06DF90649322004F0DD
:105AF000EDF9BDE810403220FEF71CBA90A8004036
:105B0000847B00202D3D200010B519480068C0F3AB
:105B10000B0017490831096821F07F41401C00EE55
:105B2000100ADFED140AB8EE400A60EE200A00EE1B
:105B3000101A1149B8EE400A80EE801AB6EE000A3B
:105B400031EE000ABCEEC00A10EE100A486003F005
:105B500027FD04F0DBFB0948016841F48071016016
:105B600006488430016821F00701016010BD000083
:105B700004E400400024F44B847B00200CA8004087
:105B800000B587B003218DF8041002200290052291
:105B90008DF80C2001208DF80D0000238DF80E30BB
:105BA0008DF8101005908DF818208DF819008DF8DB
:105BB0001A00034A022101A8FFF720F907B000BD2F
:105BC000F94D20007CB51020009002248DF804408F
:105BD0008DF8054007258DF8065069460420FEF72C
:105BE000E1FE402000908DF804408DF805408DF8CE
:105BF000065069460420FEF7D5FE7CBD00B587B08F
:105C000000F01EF803208DF800001D208DF816000E
:105C100001208DF817008DF818008DF81900044A3E
:105C200004496846FFF79CF9FEF720FD07B000BD68
:105C3000395C2000A55C20000320FFF79FBC00001A
:105C40001CB5144800904FF4806001901248032264
:105C500002704FF4E1310164426400218164C16447
:105C60000165012343650174202444614274037675
:105C7000017110238360427101730849416381639C
:105C8000022180F83C1080F83D206A460449FFF765
:105C900013FD1CBDA47C0020A480002000900140C6
:105CA000795520000A4601464FF47A730320FFF726
:105CB000CDBD0000052110F1190F01DC022110E01B
:105CC00000F114020F2A01D803210AE00F2801D89D
:105CD000042106E0A0F11402192A02D932280CDBB3
:105CE000062106480268C2F303328A4205D00268E0
:105CF00022F4704242EA01310160704714A800406A
:105D000010B50021084624F627FF01201AF6A6FC4C
:105D10000248816821F48071816010BD00A00040BC
:105D200010B514480068C0F30000002807D01148DF
:105D300008380068C0F3000008B104F09BF80E4872
:105D40000068C0F3000038B10B4808380068C0F3A1
:105D5000000008B100F07AFB04F01AF8002807D020
:105D600001F020FF002803D0BDE81040FFF7C8BFB6
:105D700010BD000008E4004008E5004010B504F044
:105D800099F800F00FFB10BD10B501F0E5FB03F032
:105D900067FA03F05FFDBDE8104000F093B8000023
:105DA0002DE9FC4104468846164D4FF6FF76164F06
:105DB00012E02968082201EB0030694686F62AFDC8
:105DC000082802D01020BDE8FC81BDF80000B042D8
:105DD00008D12078401C20702078797A8842E8D356
:105DE0000020F0E709489DF80010C170BDF80210CE
:105DF00081809DF8011088F8001021784170002002
:105E0000E1E70000BC35002090470020C8350020A5
:105E100010B51248016821F0004101600F23011DF7
:105E20000A6863F31F720A600A6822F4E07242F49F
:105E3000C0720A60016841F00041016008480168D1
:105E400041F0010101600749312004F03FF80649A3
:105E50004FF40030C1F8000110BD000004A900405B
:105E600088E20040353D200004E000E0F8B5EFF3A3
:105E70001085012080F31088072000906846FDF708
:105E8000A9FF0220FDF7AEFF322009F6BFFB0B4C45
:105E9000206840F002002060094E708909F6B6FBC8
:105EA000206820F002002060B08909F6AFFB9DF861
:105EB0000000FDF797FF85F31088F8BD04A90040A6
:105EC0004C7A002002490148086070474D6F10006D
:105ED000CC05002010B593F631FE002800D0FEE777
:105EE00010BD00B500F00AF85DF804EB01F0EABE61
:105EF00001480078704700009888002030B5084CB1
:105F0000012525706060E2602361A160054880681A
:105F1000884201D2081A00E0401A606130BD0000DA
:105F200098880020A07B002010B501F0A5FE044653
:105F300018210548FCF74AFC034A0021117020464D
:105F4000BDE8104000F046B998880020F0B404463F
:105F50000E462C482C4FB9680578026244628C4288
:105F600001D9631A00E00B1BFF689F4206D313465A
:105F700032462146F0BC0020FFF7B3BF87699F423D
:105F800001D98361C261012D0AD0022D27D0032DD2
:105F900036D1134632462146F0BC0020FFF7A1BFA0
:105FA00044618C4203D90169491EC16002E0016964
:105FB000491C8160D0E90212914209D2114449087A
:105FC00001610121017001693046F0BC00F01EB88A
:105FD0000221017081683046F0BC00F017B8C16939
:105FE000914206D1134632462146F0BC0020FFF70D
:105FF00078BF03210170C1693046F0BC00F006B8DB
:10600000F0BC704740880020A07B0020054A936ABE
:106010005B1C93628AB2C1B20348044B406801F032
:10602000CFBD000040880020A07B00204D5F2000F5
:1060300070B505460D4C2C212046FCF7C7FB00200F
:10604000A06040F2FF10E060FF2222614FF0FF30BD
:10605000A061A06A401CA062012020700448E9B23F
:10606000044B4068BDE8704001F0AABD40880020A4
:10607000A07B00204D5F20002DE9F84307460D4628
:1060800090462E4C207801280BD0022813D00820EF
:10609000E06101B043462A463946BDE8F043FFF7C8
:1060A00020BFE76040F2FF1121612846BDE8F843B8
:1060B000022200F079B8002600966761684600F079
:1060C0003FF870B1012810D002281FD003282DD02E
:1060D0000720E06143462A463946FFF702FFBDE844
:1060E000F8832846FFF7A4FFF9E70F2D06D23146C3
:1060F000A6600122681C00F057F8F0E70520E06177
:1061000043462A463946FFF7ECFEE8E735B1A6607C
:1061100001220021681E00F047F8E0E70620E06158
:1061200043462A463946FFF7DCFED8E70098E0618F
:1061300043462A463946FFF7D4FED0E720880020A0
:1061400010B5174B17490A698968154CDB686469F3
:106150008B4203D98C4201D9022010BD8B4203D25D
:106160008C4201D2012010BD8B4201D95B1A00E0A4
:10617000CB1A8C4201D9611A00E0091B934203D368
:10618000914201D3002010BD934201D2022010BDE4
:10619000914201D2012010BD02210160032010BDF7
:1061A00020880020A07B002030B4074B9C69641C31
:1061B0009C6158601A708AB2C1B20448044B4068AE
:1061C00030BC01F0FDBC000020880020A07B002036
:1061D0007960200070B50546064C20212046FCF76A
:1061E000F5FA0021A1602846BDE870400122FFF7C2
:1061F000DBBF000020880020F8B50E461F4C0025AC
:106200000095E169491CE1616660A260E168216175
:10621000E0601B498B68834201D2C01A00E0181A63
:106220006169814201D96061A261684600F02AF883
:1062300058B101280ED0022814D0032818D0009895
:10624000A062204600F0BFF8F8BDA562204600F02D
:10625000BAF8F8BD012084F820003046A16900F0AA
:1062600077F8F8BDA1683046491C00F071F8F8BD18
:10627000A1683046491E00F06BF8F8BD6C8800201C
:10628000A07B00202DE9F0432F4A304FB96800254C
:106290000026D3688B4201D95C1A00E0CC1AFF6853
:1062A000A74202D30020BDE8F083D2F82480B8F1E1
:1062B000010F10D092F82040012C0ED0224CD2F8C1
:1062C0001CC04FF00109A769A468C4450BD3A742BD
:1062D00005D10020E7E70020E5E70020E3E782F8AA
:1062E00020900120DFE7BCF1010F11D9D2F810C0D6
:1062F0008C4501D98B4203D38C4509D28B4207D9F7
:10630000A74201D10020CEE782F820900120CAE701
:106310008B4201D9012600E0012545B1B4F5FF7F8C
:1063200003D9092101600420BDE70220BBE736B193
:106330000CB10320B7E70A2101600420B3E70B2169
:1063400001600420AFE700006C880020A07B0020E3
:106350008AB2C1B20248034B406801F031BC000070
:10636000A07B0020F961200070B504460E4615465A
:106370002C210948FCF72AFA074B002183F820104A
:10638000491E59615C620548AAB2F1B24068BDE895
:106390007040034B01F014BC6C880020A07B0020EF
:1063A000F961200010B501F0EDFB00280AD0FFF7DD
:1063B0009FFD18B1BDE8104000F028B8BDE81040BE
:1063C000FFF7B2BD10BD00B500F004F85DF804EBB6
:1063D00001F078BC0B4901220A71826A8A60C269A5
:1063E000CA60C2680A6142684A6182688A61064A74
:1063F000C0689268904201D9801A00E0101AC86102
:1064000070470000B0880020A07B00202DE9F041FB
:1064100001F032FC074601F041FC8046094C266839
:106420000948456920212046FCF7D0F9761C2660F2
:1064300000202071424639462846BDE8F041FFF76A
:1064400093BF0000B0880020A07B002010B50E4C48
:106450002069401C206101F03BFCE06001F00CFC75
:10646000606001F01BFCA060084A002111606161BE
:10647000E3692BB182B22179E068BDE8104018478A
:10648000BDE8104001F01EBC0088002000E500407F
:106490002DE9FC41164804680834164E307800286F
:1064A00002D000208FF660FE134D4FF6FF770822D2
:1064B000694620468FF662FEBDF80000B84211D052
:1064C00080B1BDF802008DF671FEBDF802100830F3
:1064D000084481B220468EF645F904462868844275
:1064E000E5D32C6830788FF63FFE2046BDE8FC816E
:1064F000BC350020B5350020C435002010B5002182
:10650000084B5A681B8809E052F83140844203D195
:1065100002EBC100406810BD491C89B29942F3D317
:1065200010BD00009079002010B50021084B5A6979
:106530005B8809E052F83140844203D102EBC1008C
:10654000406810BD491C89B29942F3D310BD0000C8
:106550009879002010B50021084B5A681B8809E083
:1065600052F83140844203D102EBC100406810BDB3
:10657000491C89B29942F3D310BD000088790020EC
:106580000349095C002902D0002102F01BB87047C2
:10659000F487002008B51A48016821F070010160F5
:1065A000016821F0070141F00401016015490978F3
:1065B000002909D0124984390A6842F480720A60BD
:1065C000016821F007010160012002F0B1FC002008
:1065D000FDF79AFF02F0AAFE80B100208DF80000BE
:1065E000A3208DF8010002208DF80200684690F685
:1065F0009FFB02F041FE02F0D7FE08BDFEE700005F
:1066000090A800405C7A002070B5044600BFFDF7FA
:10661000D1FC05460120FDF75FFD0648047024B952
:10662000482205490548FCF79FF82846FDF754FD28
:1066300000BF70BD787900202C870020002000E08A
:1066400010B50748406807494860064808304022AE
:1066500003490831FCF788F803200249086010BD9F
:10666000E4860020002000E070B500BFFDF7A2FC2A
:1066700005460120FDF730FD0948047834B9482269
:1066800008490948FCF770F8FFF7DAFF01200449D0
:1066900008702846FDF720FD00BF204670BD0000B1
:1066A00078790020002000E02C87002013B501211C
:1066B0006846FEF741FC01201CBD00002DE9F043B7
:1066C00087B00C4607276278A178CDE903720020D5
:1066D000CDE9050121784FF00308CDE90080029152
:1066E000EE230922102170F6B9FF60780126DFF849
:1066F000F890052530B1012834D0022846D003286F
:106700006ED157E0207889F6D1F9C0EBC00109EBD2
:1067100081014D72A278452A09D1CA681278022AED
:1067200016D091F82020022A01D081F8206091F83B
:106730002020012A03D0022A01D081F8208091F87C
:106740002020022A4CD0C9680978022905D101E02D
:106750004F72ECE7A178452942D0244A0021126803
:1067600090473DE089F89950A078452805D199F8DF
:106770009C00022801D089F89C6099F89C000228AE
:106780002ED01B4900200968884729E089F8A550C8
:10679000A078452805D199F8A800062801D089F8E5
:1067A000A86099F8A80006281AD0124900200968A4
:1067B000884715E0207889F6E7F909EB001181F8A0
:1067C000B150A278462A01D0CE2A01D181F8B35027
:1067D00091F8B310022903D0074A002112689047AC
:1067E00007B00020BDE8F083F438002034340020E6
:1067F00038340020403400203C3400202DE9F041A2
:1068000086B00C46C3F3072528467FF65DFE074693
:1068100028467FF659FE0026CDE901650721CDE91E
:10682000031002200090172309221021304670F631
:1068300015FFFF2D66D03549208808806088488084
:10684000A0888880E088C880207A0872607A4872C0
:106850000F74D4F80A20C1F80A20E289CA812C4BAF
:1068600003EBC50216605660B4F800C023F835C0CB
:10687000DFF8A08001280CD1C87B0121B1EB901F6B
:1068800007D198F81C01400703D5234841780A290D
:1068900031D804F10A02617A1646284692F63AF98E
:1068A000617A324628468BF611FB1C4C6FB10020F2
:1068B00087F61EF8206828B1836B1BB1134A0021AC
:1068C0002846984787F65CF81CE0032088F8A80063
:1068D000D8F8AC000078012814D1002087F608F819
:1068E000206828B1836B1BB1084A002128469847CD
:1068F00087F646F806E006700449074A0A3128463A
:1069000089F666FE06B00020BDE8F08190380020D0
:10691000A2380020F43800204035002084330020C5
:10692000FEB50E461C46B07800250127CDE900755E
:106930000290182309221021284670F68FFEEFF3EB
:1069400011811C4802781C480068C0F30220401CDA
:106950008740D019C0B280F31188C4F30724174AC6
:1069600002EBC400056045604FF6FF7022F834006A
:10697000C8B280F31188204692F64CF920468BF677
:1069800017FB204692F632F8204600F01BF8002054
:1069900086F6AEFF0A48006838B1C36B2BB1B078F9
:1069A0009030C2B200212046984786F6E9FF0020C9
:1069B000FEBD000002E400E00CED00E0A238002083
:1069C0008433002070B5064600240D4D05EB0410FD
:1069D00090F8B11007290DD1D0F8BC100A79022A1D
:1069E00008D14979B14205D190F8B80010B92046D4
:1069F0007EF6F6FB641CE4B2052CE7D370BD000004
:106A0000F43800202DE9F0410027002500266FF41E
:106A100088540419184806D0012C07D0022C0CD039
:106A2000032C0CD105E00568466808E08568C66857
:106A300005E08569C6690B7801E0056946690024AF
:106A400014E035F8340098420FD105EBC4004468D7
:106A500074B1A4F54F30F93803D098B2A047074677
:106A600006E098B200F09EFF02E0641CB442E8D356
:106A70003846BDE8F0810000D80F00202DE9FC4128
:106A80000E4629A003C8CDE900016A46314601201F
:106A900012F602FF0746012F43D1304610F620FAC6
:106AA0000446200037D110F6AFFA0546FF2D09D075
:106AB0003078A02808D0A1280CD0A22816D0A3286E
:106AC00019D10DE04B2426E03146284610F6FEFE93
:106AD000044610E03146284613F6A0F804460AE0C2
:106AE0003146284600F064F8044604E03146284662
:106AF00011F660FE044674B9707860B90C4890F8DD
:106B00007410C90707D000EB8501C968C26E8A619D
:106B1000B0F87000888324B1064A2146012012682B
:106B200090473846BDE8FC81A0A1A3A20000000068
:106B300084190020E80600202DE9F04102460F46A6
:106B40001E460020002400256FF48851511804D0FF
:106B5000012906D003290CD107E012490C684D68C1
:106B600007E011490C684D6803E010490C684D6856
:106B70003E78002212E034F83210B1420DD104EB1D
:106B8000C201496800290BD00846FFF7B7FC02464E
:106B9000B0B23946BDE8F0411047521CAA42EAD3D0
:106BA000BDE8F0811C070020140700200C0700201E
:106BB00070B500253C2110F67BF904468CB103200A
:106BC0006073012011F67EFC606107482060074871
:106BD00060600748A0600021204610F689F9284629
:106BE00070BD4B25FBE7000081970100F56B20008D
:106BF000059501007CB504461D4D207B85F880007D
:106C0000207CC10707D020F0010020742046BDE899
:106C10007C4012F6A3BDA07B022806D0204612F6C7
:106C20004EFDFF2085F881007CBD94F838000BF6FE
:106C300013FEA0F57F41FF390ED094F838000BF613
:106C40000BFE014600200A22CDE900200346024641
:106C5000204612F6E9FB02E0204612F630FD94F8D9
:106C600038200121286D9140884328657CBD0000B3
:106C7000841900202DE9F8430C463BA000680090E1
:106C80006A462146002012F607FE0746012F62D110
:106C9000607800F00F084FF00009A18C608C11F6AD
:106CA00061FA08B1402550E0304E86F8749086F8BD
:106CB000729002F637FD2E4920460968884705463E
:106CC000280042D102206BF6D9FD86F8728011F6B9
:106CD000E5FE86F87B9094F82A0086F87A0096F80C
:106CE0007200800820D04120E17E86F875108A0766
:106CF00004D421F0020086F875001720E18C4FF4CF
:106D00000062914200D31146884200D9014689B2FF
:106D1000A6F87610228D8A4200D21146884200D809
:106D20000846A6F8780001E086F875900F48102212
:106D300004F10A015C30FBF7D2FCA07EC00704D04E
:106D40006068F0662089A6F870003DB1094A2946BE
:106D50000020126890473846BDE8F883064A0021B3
:106D6000084612689047F6E70300000084190020E7
:106D7000FC060020E8060020F80600202DE9F04F70
:106D80008DB008220C9200220B924FF008080A9254
:106D9000099100269A4FDFF86CB24FF0010A0028E3
:106DA00048D0082204A9386885F634FD082803D0A5
:106DB0000F200DB0BDE8F08F9DF81000A52806D07B
:106DC0009148C1880C91447880780B9046E09DF8FA
:106DD0001100DBF80010022201EB0030083001A99D
:106DE00085F618FDBDF80410A1F57F40FF380AD0E4
:106DF0009DF81100DBF8001001EB00304FF48051DA
:106E00008FF68AF990B19DF81200BDF816100C911A
:106E10009DF81110491CCCB20B9009AB0CAA0BA920
:106E200004A803F0B7FF012802D017E01020C0E744
:106E30000020BEE7FFF72CFB411EC1F30B01401AF7
:106E4000DBF80010401A00F6FF70FF2101EB103054
:106E5000C4B20B9414B1CDF824A0012693F62CF9FA
:106E6000C7E00025069507955CB1DBF80000042219
:106E700000EB043006A985F6CDFC042801D00F20D4
:106E800097E7614805604560A521017044709DF851
:106E90002C108170BDF83010C1809DF81810C170A1
:106EA000BDF81A108180DBF8000000EB043040448C
:106EB0000A90386800EB080108914FF480518FF672
:106EC0002BF950B19DF818204AB1012308A90AA84E
:106ED00003F034FF18B10F206BE7102069E7BDF80D
:106EE0001A203AB1002308A90AA803F027FF08B125
:106EF0000F205EE7C4F100090A98DBF80010401A81
:106F000000EB0930C0F58055082D2CDD082302AABE
:106F100008A90AA8CDF800A093F6E0FC08B10F205C
:106F200047E7BDF80810A1F57F40FF3830D0083D95
:106F3000BDF80A008DF63AF9BDF80A100844A842D7
:106F400008DDAAB2002308A90AA803F0F7FEC8B119
:106F50000F202EE782B2002308A90AA803F0EEFE54
:106F600080B10F2025E7A8B28DF620F9284483B21E
:106F7000264A08A90AA8CDF800A093F6AFFC08B1EC
:106F80000F2016E73868089900F580508142B3D386
:106F900008221D49386885F68BFC082801D00F208F
:106FA00007E7DBF800004FF4805100EB04308FF668
:106FB000B3F860B176B1DBF80000042200EB0430D6
:106FC00006A985F675FC042803D00F20F1E61020F1
:106FD000EFE6002609AB0CAA0BA90B4803F0DAFE7A
:106FE000012802D018B10F20E3E60020E1E6641C7E
:106FF000E4B20748407AA042BFF433AF0020D8E69D
:10700000C0350020BC350020C83500206446002073
:1070100090470020024600210BE0084850F831302C
:10702000501E834204D1054800EBC1004068704700
:10703000491C1029F1DB0020F9E7000074870020CB
:10704000002101E0491C4008C207FBD008467047F8
:107050000248006800F480707047000040A30040C0
:107060007CB51548C068019001248DF805400525C0
:107070008DF804500220009007268DF806600FA3BB
:10708000134A69460320FDF71DFC10B111A0FBF760
:1070900003F98DF805408DF8045000948DF80660D2
:1070A00014A30B4A69460320FDF70CFC002802D00C
:1070B00008A0FBF7F1F87CBDB0BE20004B4559306D
:1070C0002070696E20696E7465727275707400004C
:1070D0002D4820004150505F4750494F5F4B455964
:1070E0003020696E6974206661696C65642E0D0AD2
:1070F000000000004B4559312070696E20696E74A4
:1071000065727275707400002DE9FC413A48406860
:1071100001900A244FF000088DF8058002278DF8B1
:107120000470FD02009507268DF80660694601206F
:10713000FDF738FC10B131A0FBF7AEF88DF80580F3
:107140008DF804704FF00108CDF800808DF80660CE
:1071500069460420FDF726FC10B130A0FBF79CF82F
:107160008DF805808DF80480802000908DF80660F1
:1071700069460320FDF716FC10B130A0FBF78CF830
:107180008DF805808DF8048000978DF806606946BB
:107190000420FDF707FC002829D030A0FBF77CF87D
:1071A00025E0012229461046FDF7D4FC802103206A
:1071B000FDF796FC014631A0FBF76EF80022294648
:1071C0000120FDF7C7FC80210320FDF789FC014663
:1071D00038A0FBF761F801210420FDF79BFC022198
:1071E0000420FDF77DFC014640A0FBF755F8641E26
:1071F000601CD6D1BDE8FC81B0BE20004150505F7C
:107200004750494F5F50494E3020696E697420667F
:1072100061696C65642E0D0A000000004150505FEA
:107220004750494F5F50494E3120696E697420665E
:1072300061696C65642E0D0A000000004150505FCA
:107240004750494F5F50494E3220696E697420663D
:1072500061696C65642E0D0A000000004150505FAA
:107260004750494F5F50494E3320696E697420661C
:1072700061696C65642E0D0A000000004150505F8A
:107280004750494F5F50494E3020736574206869FC
:1072900067682C204150505F4750494F5F50494E1E
:1072A0003220696E7075742076616C75653D256459
:1072B0000D0A00004150505F4750494F5F50494E02
:1072C0003020736574206C6F772C204150505F47DD
:1072D00050494F5F50494E3220696E707574207668
:1072E000616C75653D25640D0A0000004150505FDA
:1072F0004750494F5F50494E3120746F67676C6546
:107300002C204150505F4750494F5F50494E332029
:10731000696E7075742076616C75653D25640D0A23
:107320000000000002210148FDF72CBAC0BE200079
:1073300010B502F0BBFF50B14FF48C6421462046DB
:1073400002F028FE2146204602F076FF09E040F2D6
:107350004C442146204602F01DFE2146204602F004
:107360006BFFBDE81040014802F03CB93C7A0020B8
:107370000148407870470000E87900202DE9F04787
:1073800004460D464FF0000800BFFCF713FE81468F
:107390000120FCF7A1FE2D480068102802D34FF011
:1073A000FF384BE048222A492A48FBF7DDF94822FA
:1073B00029492748FBF7D8F928482449096840F8A3
:1073C00031402249096800EBC100456027884DF62D
:1073D000FF7624F0010425F0010504F0030080B1DC
:1073E000A01E40F001011A480830184A126840F8FF
:1073F000221007EB06401A49144A126841F822008D
:107400000CE044F0010112480830104A126840F8BC
:10741000221013480D49096840F8216048220C49A0
:107420000D48FBF7A1F948220A490948FBF79CF9E6
:1074300006480068401C0549086000BF4846FCF744
:107440004BFE00BF4046BDE8F08700007C7900207D
:10745000002000E02C870020E486002074870020B4
:10746000808A002070B5044600BFFCF7A3FD0546E6
:107470000120FCF731FE0020114908701148124923
:107480000860124812490860482212491248FBF766
:107490006BF912480F4948600320086048221048E1
:1074A000FBF762F948220C490A48FBF75DF9882C82
:1074B00001D003F085F82846FCF70EFE00BF70BD32
:1074C0007879002009662000843800206966200051
:1074D00080380020002000E02C870020808A0020D7
:1074E000E48600202DE9FE430546002403208DF8A4
:1074F000000000260C4F4FF00108E8070BD008FAF7
:1075000004F0019007EBC4004068029057F8341073
:1075100009B168468847641CA4B26D08761C082E21
:10752000EBDBBDE8FE830000CC84002010B50446F0
:10753000002018F645FA2046BDE8104018F6D4B9E8
:1075400010B50446034818F63BFA2046BDE8104043
:1075500018F6E2B9B879002000B5012002F0C0FEAB
:1075600002490148086000BD096F100014000020A6
:1075700010B5EFF31084012181F3108819F654F847
:107580000348006808B900F005F884F3108810BDBE
:10759000D005002010B592F6D5FB00281ED1EFF3E0
:1075A0001084012080F310880D48016841F0040127
:1075B00001600B49083108684007FCD503F0A6FDBF
:1075C000012000F0CFFE012000F0CCFE04481C3862
:1075D000016821F05001016084F3108810BD0000A3
:1075E00040A4004070B504460D4600201CF6FAFA8F
:1075F00029462046BDE870401CF6B8BA2DE9FE4386
:1076000080460F463846FFF71BFD85B20024DFF8A1
:1076100034900D4E59F8340040450ED105EB04105E
:1076200085B28DF80040019706EBC50040680290D6
:1076300056F835200AB168469047641C032CE9DBF4
:10764000BDE8FE83E8BD2000BC83002070B5044681
:107650000D4604481CF6C6FA29462046BDE870408F
:107660001CF6B5BABC79002070B504460D46002062
:107670001FF654FE29462046BDE870401FF62EBE78
:107680007047000070B504460D4604481FF646FEDC
:1076900029462046BDE870401FF630BEC079002064
:1076A0002DE9F0410020FDF71BFE0546214FD5E9ED
:1076B0000412C7E902122048081A72F11E0017D3FB
:1076C00007F110000EE0D6E90412D7E90234B1EB5D
:1076D000030C72EB040C04D3C91A62EB0402C6E972
:1076E0000412006A066A002EEDD10021B960F9602B
:1076F000A87801280AD1D7E90230D5E90212591831
:107700005041C5E904102846FDF7AEFD786840B148
:10771000D0E90431D7E90202181A61EB020101F045
:10772000EDF8E969002903D0A869BDE8F0410847F0
:10773000BDE8F081288300200010C32C70B50446FA
:107740000D46044823F61AFA29462046BDE8704043
:1077500023F6C6B8A176200009484178002907D150
:1077600001214170074A126802F0030202B9017058
:10777000007810B1044800687047044800687047FA
:10778000B47900203CA50040887B00205C030020E9
:107790001CB503F0ADF805218DF800100649002254
:1077A00051F8203083F8002151F8200001680029A9
:1077B00001D0684688471CBD0C8500201CB503F02D
:1077C00097F804218DF800100649002251F8203066
:1077D00083F8002151F820000168002901D0684693
:1077E00088471CBD0C8500201CB503F081F80321DF
:1077F0008DF800100649002251F8203083F800214E
:1078000051F820000168002901D0684688471CBD56
:107810000C85002029F67CB81CB50446204603F0F0
:1078200067F800228DF80020E16B0191064951F8BC
:10783000203083F8002151F820000168002901D090
:10784000684688471CBD00000C85002010B5044622
:10785000034829F6CFFB2046BDE8104029F6CAB9F7
:10786000C479002070B504462268906800F00F00CB
:107870000021022809D004280CD0062816D00C2894
:1078800044D1A06901280BD00BE02046BDE8704030
:1078900003F0AEB82046BDE87040002170F60CBA87
:1078A00001212046BDE8704070F606BA5069E16BD0
:1078B00000F01E000143E163D06FC0F3C00018B1B7
:1078C0000021204670F6F8F9E06B4FF000058007C4
:1078D0001DD5204670F68BF994F83500012804D0A8
:1078E0002046BDE87040FFF797BF206B48B10A49BA
:1078F0000164206B19F6DEF830B1206B016C88470B
:1079000002E02046FFF788FF84F8355070BD20461E
:10791000FFF782FFE56370BD1D7A0700704770476F
:107920001CB50446204602F0E3FF02218DF800104A
:10793000218D628D891AADF80410044951F8200098
:107940000168002901D0684688471CBD0C850020CD
:107950007CB50546284602F0CBFF044601208DF891
:107960000000288C698C401AADF804000C4D55F8C5
:10797000240090F8040118B12046FDF7C3FD02E091
:107980002046FDF729FF55F8240090F80011002942
:1079900004D10168002901D0684688477CBD0000F9
:1079A0000C85002070B50C461546284639F692F82D
:1079B000C5F307253F281DD028460AF671FF034668
:1079C000A278217928460BF6CBFD0B4850F825000C
:1079D000C268FF2A09D0207808B1903000E000206A
:1079E000C3B2012128460BF6CEFD227961882846D4
:1079F00010F6DAFA002070BD141900202DE9FC41C0
:107A000004460F4612254FF000082178012946D878
:107A1000601C67F671FE264E142807D200EB80002A
:107A200006EB400090F81505C0F340082178601C73
:107A300069F6E0FC0A2832D30025C5EBC50000EB4F
:107A4000451030448079FF2803D06D1CEDB20A2D1B
:107A5000F3D30A2D2AD02078CDE9000804F11703CA
:107A60009846E21D611C28465DF656FCC5EBC50133
:107A700001EB45118D192078A871D4F80100286018
:107A8000B4F80500A880E81D10224146FAF727FE49
:107A900005F117001022E11DFAF721FE0025294605
:107AA000384667F6FBFD0020BDE8FC810725F6E7B8
:107AB0005822002070B50D4600220A4CFF23C2EB6D
:107AC000C20000EB421020448371521CD2B20A2A39
:107AD000F5D35DF6BDFC0021284667F6DFFD0020EA
