:020000040020DA
:1020000000000820F121200069402000016010003C
:1020100067402000E53F20007141200000000000E3
:10202000000000000000000000000000156010002B
:1020300065402000000000009D2220009540200007
:1020400000F002F800F0C4F80AA090E8000C824406
:102050008344AAF10107DA4501D100F0B9F8AFF2E3
:10206000090EBAE80F0013F0010F18BFFB1A43F076
:1020700001031847D0330100103401000A444FF027
:10208000000C10F8013B13F0070408BF10F8014BD7
:102090001D1108BF10F8015B641E05D010F8016B1C
:1020A000641E01F8016BF9D113F0080F1EBF10F880
:1020B000014BAD1C0C1B09D16D1E58BF01F801CBA3
:1020C000FAD505E014F8016B01F8016B6D1EF9D526
:1020D0009142D6D370470000103A24BF78C878C127
:1020E000FAD8520724BF30C830C144BF04680C601E
:1020F000704700000023002400250026103A28BF66
:1021000078C1FBD8520728BF30C148BF0B60704769
:102110006E2900F03385702900F0A782662912F03D
:10212000AD80652912F0AA80672912F0A780612985
:1021300012F0A68003681B0A28BF41F080016929BC
:1021400000F01882642900F01582752900F01282CF
:102150006F2900F03286782900F07382E92900F0B7
:10216000CD85E42900F0CA85F52900F0C785EF295F
:1021700000F02F86F82900F072820368DB0928BF7F
:1021800041F08001632900F03C85732900F041850E
:10219000E32901F00982F32901F00E820020704743
:1021A0001FB511F0BEFF00F044FB01F035FA04004A
:1021B0000020002111F070F9401C60600020002117
:1021C00011F054F9E06000F051FC1FBD10B510BDD6
:1021D000DFF80CD0FFF7E4FF0BF06EFC01F0D2FA51
:1021E0000000082003B4FFF7F1FF03BC02F0DDFBA1
:1021F000014880470148004701412000F9DA2000EA
:1022000058585247010000002655000000202000C9
:10221000002020007FED9247010100000000000037
:1022200000000000000000000000000000000000AE
:10223000000000000000000000000000000000009E
:102240002C4B19680868B0E8F04F80F30988BFF399
:102250006F8F4FF0000080F311887047000000007E
:1022600008480068006880F308884FF0000080F399
:10227000148862B661B6BFF34F8FBFF36F8F00DF74
:1022800000BF00BF08ED00E0DFF80C00016841F47A
:1022900070010160704700BF88ED00E0EFF3098036
:1022A000BFF36F8F134B1A681EF0100F08BF20ED9D
:1022B000108A20E9F04F106009B44FF0300080F32D
:1022C0001188BFF34F8FBFF36F8F10F06BF94FF092
:1022D000000080F3118809BC19680868B0E8F04F65
:1022E0001EF0100F08BFB0EC108A80F30988BFF30E
:1022F0006F8F7047EC8E0020EFF305807047000071
:102300000B49D1F800C04A685CF8043B10681844D7
:1023100042F8040B8C4528BFA1F1DC0C8A4228BF8F
:10232000A1F1DC02C1F800C04A6020F00040704713
:102330007054012053EA020C00F069802DE9F04B43
:102340004FF00006002B1FBFB3FA83F503FA05F424
:1023500024FA05F65E4012BF1643B2FA82F502FA7D
:1023600005F4C5F120051EBF22FA05FC44EA0C0461
:10237000203556EA044C4FEA144418BF641C4FF051
:1023800000084FF00009904271EB030C39D300298B
:1023900019BFB1FA81F701FA07F6B0FA80F700FA2F
:1023A00007F6C7F120071EBF20FA07FC46EA0C0615
:1023B0002037B6FBF4FCA7EB0507103F07F01F0B17
:1023C000CBF120060CFA0BFB2CFA06F644BFB34601
:1023D0000026202FA4BF5E464FF0000B5BEA060CE0
:1023E00008BF4FF0010B19EB0B09ABFB027C48EB6C
:1023F0000608C01B06FB02CC0BFB03CC71EB0C01E7
:10240000C1E70B46024641464846BDE8F08B13B58E
:102410004FF000004FF00001AFF30080BDE81C401A
:10242000704700007CB51D4616460C00009001D098
:102430002044401E074B7B442A46694601903046A3
:1024400000F0B5FB05461CB10020694600F0C2FB58
:1024500028467CBDA50700000FB4044910B503AAA7
:10246000029800F0DBFB10BC5DF814FB648D0020CB
:102470000FB41CB5084B06AA7B446946009005982A
:1024800000F095FB04460020694600F0A3FB2046BF
:102490001CBC5DF814FB0000590700000FB47CB5AC
:1024A0000C0009AA009001D02044401E084B7B4438
:1024B00069460190089800F07AFB05461CB100209F
:1024C000694600F087FB28467CBC5DF814FB0000E1
:1024D0002D07000070B5044685690068C10601D566
:1024E000302600E02026C00707D070BDD4E90121C6
:1024F00030469047206A401C20626D1EF6D570BDA4
:1025000070B5044685690078C00707D170BDD4E96D
:10251000012120209047206A401C20626D1EF6D5C4
:1025200070BD70B50C460546012A05D02878800696
:1025300000D5EA69002302E0012305E05B1C934219
:1025400002D2E05C0028F9D1A869E618C01AA86197
:10255000286A184428622846FFF7BCFF04E0D5E942
:10256000012114F8010B9047B442F8D32846FFF735
:10257000C7FF70BD2DE9F04106460024106875299B
:10258000314616A510D000F08EFA002802DA40423B
:1025900013A507E031688A0701D512A502E04907B3
:1025A00004D511A5012401E000F086FA00210A22D9
:1025B00006F1240709E0B0FBF2FCB0FBF2F302FBEA
:1025C0001C00303078541846491C0028F3D12346AB
:1025D0002A463046BDE8F04100F077BA000000001E
:1025E0002D0000002B00000020000000F0B40D467C
:1025F0000188090502D5214C7C4402E01F4C7C4433
:102600000E34002100F1240608E002F00F07120941
:10261000E75D42EA03721B097754491C52EA03073B
:10262000F3D102780023120704D5702D06D009B12A
:10263000022311342246F0BC00F047BA01231034C3
:10264000F8E770B504460D462146106800F034FAEC
:10265000024629462046BDE870400023C6E7D21D49
:1026600022F00703D3E90023C0E70368126843F0B0
:10267000200303600823C3610023B7E72C26010071
:102680002DE9F05F894604464FF0000ADFF874B187
:10269000FB44C0F820A02046E1688847002874D099
:1026A000252806D0D4E901219047206A401C2062E9
:1026B000F1E700265F462046E16888472028054666
:1026C00007DB312D05D2781910F8200C08B106432C
:1026D000F1E7B00701D526F00406C4F81CA00027D6
:1026E000C4F818A02A2D09D0284602F057F938B3AB
:1026F00004EB8708303DC8F8185019E059F8041B5E
:10270000204604EB87029161E1688847012F054666
:1027100018D1E069002820DA26F020061DE0D8F85C
:10272000180000EB800005EB40003038C8F81800B6
:102730002046E1688847054602F030F90028EED1CE
:10274000012F0AD02E2D08D12046E16888477F1C32
:102750000546022F46F02006C4DBA069002803DAF4
:10276000404246F00106A061F00701D026F01006B5
:102770006C2D0BD0682D09D04C2D39D06A2D35D059
:10278000742D35D07A2D33D016E038E0E1682F462D
:1027900020468847B842054609D16C2F26D04FF411
:1027A0008060E168064320468847054604E06C2FB8
:1027B0001AD04FF4807006430DB3A5F141001928DB
:1027C00002D8203546F400664A462946204626604F
:1027D0004E46FFF79DFC80B101280BD0F61D26F078
:1027E000070000F1080956E74020E4E78020D8E719
:1027F0000020D6E706F104094DE7284652E7206A93
:10280000BDE8F09FBC2501000B4910B5A1F17C0289
:102810000A4CC2E93712372106E000EB104342F8B8
:102820002130074B00FB03400B1EA1F10101F4DC3A
:1028300010BD0120E8E7000010540120E119D66620
:10284000CD0D010040EA010310B59B070FD1042A0A
:102850000DD310C808C9121F9C42F8D020BA19BA6B
:10286000884201D9012010BD4FF0FF3010BD1AB1D0
:10287000D30703D0521C07E0002010BD10F8013B25
:1028800011F8014B1B1B07D110F8013B11F8014B4C
:102890001B1B01D1921EF1D1184610BD10B5431C6F
:1028A00002E010F8011B71B18107FAD14FF001323B
:1028B00002C88C1A8C4314EAC211F9D0C01A0A0655
:1028C00003D0C01E10BDC01A10BD0A0401D0801E66
:1028D00010BD0902FCD0401E10BD032A40F230801A
:1028E00010F0030C00F0158011F8013BBCF1020F51
:1028F000624498BF11F801CB00F8013B38BF11F8D2
:10290000013BA2F1040298BF00F801CB38BF00F8E8
:10291000013B11F0030300F02580083AC0F0088065
:1029200051F8043B083A51F804CBA0E80810F5E749
:10293000121D5CBF51F8043B40F8043BAFF300802C
:10294000D20724BF11F8013B11F801CB48BF11F8A1
:10295000012B24BF00F8013B00F801CB48BF00F871
:10296000012B704710B5203AC0F00B80B1E8185029
:10297000203AA0E81850B1E81850A0E81850BFF469
:10298000F5AF5FEA027C24BFB1E81850A0E8185008
:1029900044BF18C918C0BDE810405FEA827C24BF5C
:1029A00051F8043B40F8043B08BF7047D20728BFEA
:1029B00031F8023B48BF11F8012B28BF20F8023B39
:1029C00048BF00F8012B704702F0FF0343EA0322DF
:1029D00042EA024200F002B84FF000020429C0F0BF
:1029E000128010F0030C00F01B80CCF1040CBCF141
:1029F000020F18BF00F8012BA8BF20F8022BA1EB93
:102A00000C0100F00DB85FEAC17C24BF00F8012B77
:102A100000F8012B48BF00F8012B70474FF000026F
:102A200000B5134694469646203922BFA0E80C50C4
:102A3000A0E80C50B1F12001BFF4F7AF090728BF9F
:102A4000A0E80C5048BF0CC05DF804EB890028BF1B
:102A500040F8042B08BF704748BF20F8022B11F044
:102A6000804F18BF00F8012B7047000070B5064C6E
:102A70007C44064D7D4403E0206820448047241DAB
:102A8000AC42F9D170BD00003C2B01003C2B010091
:102A900010B500F0A9F9006810BD10B5044600F0AB
:102AA000A3F9046010BD09684A0501D540B270471A
:102AB000C905FCD500B2704709684A0501D5C0B206
:102AC0007047C905FCD580B270472DE9F0470D4627
:102AD00099469246044600F124080168880604D508
:102AE000E06921F01001216000E00120A84201DD31
:102AF000471B00E00027A1697A1902EB0900081AB8
:102B0000A0612078C00602D42046FFF7E3FC00262F
:102B100008E0D4E901211AF806009047206A401C19
:102B2000761C20624E45F4DB2078C0060AD520468C
:102B3000FFF7D0FC06E0D4E9012130209047206A5D
:102B4000401C2062381EA7F10107F4DC07E0D4E93D
:102B5000012118F805009047206A401C2062281EB9
:102B6000A5F10105F3DC2046FFF7CAFC207800063A
:102B700002D50220BDE8F0870120FBE7116802685A
:102B8000006A530501D508700AE0D30501D5088015
:102B900006E0130603D5C217C1E9000200E0086091
:102BA0000120704701694A1C02610878704700B52E
:102BB0008FB0CDE901310021059105497944CDE976
:102BC000031011466846FFF75BFD0FB000BD000023
:102BD000E5FFFFFF0A6802F8010B0A607047D1E9C0
:102BE00000239A4202D2531C0B601070704710B53C
:102BF000436913B1AFF3008001E0FFF792FC0120BD
:102C000010BD127800F124010A7000224A700122DE
:102C1000EDE711684FF0FF32E9E70000074B70B5B0
:102C20000D467B44FFF7C3FF0446284600F0C8FC6E
:102C300010B14FF0FF3070BD204670BD9F520000B4
:102C40002DE9FF5F15468A460446DFF8AC80F8445C
:102C50000027D8E900103E46CDE9001010E03AF810
:102C600016106A4602A800F0AFFC411C07D021787C
:102C7000890603D5E269391891420DD80744761CBC
:102C80002078800602D5E069B84205DDAE42E6DB79
:102C90003AF816000028E2D1A069C01BA0612046C6
:102CA000FFF718FCD8E90010CDE90010002017E06C
:102CB0003AF818106A4602A800F086FCB0F1FF3F0F
:102CC00081460BD000250DF1080B05E0D4E9012168
:102CD0001BF8050090476D1C4D45F7D308F1010026
:102CE000B0428046E4DB206A384420622046FFF789
:102CF00007FCBDE8FF9F0000122001002DE9F04114
:102D00008046D21D22F007020025D2E90002F529F3
:102D100015A614D0011E72F1000106DA0023D0EBD3
:102D2000030063EB020211A608E0D8F800108B073D
:102D300001D50FA602E0490701D50EA601251146CF
:102D4000002408F1240704E000F052F830323A552C
:102D5000641C50EA0102F7D12B4632462146404618
:102D6000BDE8F041FFF7B1BE000000002D000000FB
:102D70002B0000002000000030B4002100F12404EA
:102D800008E002F00705D208303542EA4372DB085A
:102D90006554491C52EA0305F3D10468002310A2CC
:102DA000250707D5A40600D421B1C46901230DA2CB
:102DB000641EC46130BCFFF788BE10B504462146CE
:102DC0001068FFF779FE02462046BDE81040002358
:102DD000D2E7D21D22F00701D1E90023CCE70000A1
:102DE00000000000300000000048704778540120C7
:102DF00030B5B0F10A024FEA900E71F100034EEACD
:102E0000817EB0EB0E0061EB91014FEA101E4EEA9D
:102E1000017E10EB0E0041EB11114FEA102E4EEA2D
:102E2000016E10EB0E0041EB11214FEA104E4EEAFD
:102E3000014E10EB0E0041EB1141401841F1000131
:102E40004FEAD00040EA41704FEAD10110EB800513
:102E50004FEA810444EA907444EB01046D1944EB99
:102E60000404521BA3414FF0000348BF0A3200D5AF
:102E700030BD401C41F1000130BD70472DE9FF4FCE
:102E80000C461E464FF0FF378BB0D2E90001DDF84B
:102E900060800A908A46C1F30A5505B93D46002173
:102EA00008464FF00000BAF1000F00F4400005DAC8
:102EB00000EB80004FF4400101EA50004FEA9059C6
:102EC000B9F1010F00DDB9460A9850EA4A000ED068
:102ED00044F61050A5F2FF3545432F14B8F1000F0A
:102EE0001ED07542291E1EDDC9F100021CE0B8F19A
:102EF000010F4FF0000001D0302103E0F24305E064
:102F00002154401CB042FBDB3046002200212154FA
:102F10000B99C1F80880C1E900200FB0BDE8F08F1F
:102F2000BD1B6D1CDEE74A4600DA694206A800F0C8
:102F3000B7FB06AB93E8070003AB83E807005046F6
:102F40000A9900F069FC8DE80700A0F500501F38D1
:102F500000900398002D0ADD42F21F014A46084402
:102F6000002303A90390684600F0D2FE09E0A0F513
:102F700000504A461F38002303A90390684600F01A
:102F8000DCFE8DE807000004000C03D04FF0FF309A
:102F9000410800E01046B8F1000F03D00022009273
:102FA00015461EE0751E05D4FFF722FF303262552C
:102FB0006D1EF9D5B3460122084302D000227F1CC2
:102FC00004E02078302801D100227F1E002A0997D2
:102FD00084D01DE0112D07DAFFF70AFF3032625569
:102FE0006D1C50EA0102F5D1084302D00098C8B127
:102FF0000EE00021681E05E0235C625C63542254ED
:10300000401E491C8142F7DBAB46A81B401E0990BD
:10301000002004F80B000B98099AC0F80880C0E95A
:10302000002B7AE711264FF0000857E72DE9F04F03
:1030300088460446D21D22F0070191B0D1E9000173
:10304000CDE90A0101F095F802460B98C00F01D0B6
:103050002D2007E02068810701D52B2002E02021E8
:1030600001EAC000032A099001D0072A05DB0346C4
:103070004146204600F0D4FA0BE12078800601D5C5
:10308000E06900E00620B8F1650F814606D0B8F18E
:10309000660F18D0B8F1670F70D131E00020B9F198
:1030A000110F009001DB112301E009F101030AAACD
:1030B00001A90CA8FFF7E2FEDDE90C70002609F17A
:1030C0000105834647E001204B4600904FF0004742
:1030D0000AAA01A90CA8FFF7D1FEDDE90DB00C99F1
:1030E0005D46002610B909F101000D18B9EB050085
:1030F00003D4C0F1FF3609F10105A5EB09002BE06F
:10310000B9F1010F01DA4FF001090020B9F1110FF7
:103110000090484601DD112300E003460AAA01A9F8
:103120000CA8FFF7ABFEDDE90C704D460026834688
:10313000207800070AD4AB4500DA5D4601A8012DCE
:1031400004DD411911F8011C302907D04F4502DA7E
:1031500017F1040F04DA012082460FE06D1EEEE73E
:10316000002F02DCED1B3E4403E0781CA84200DD8A
:103170007D1CB81B00F1010A4FF0004720780007C2
:1031800003D4AA4501DB4FF0FF3A0021B7F1004F0D
:103190000DF143088DF8431024D002202B23002F7B
:1031A00001DA7F422D230A21021EA0F1010000DC7A
:1031B0005FB197FBF1FC97FBF1F201FB1C7C17461A
:1031C0000CF1300C08F801CDEEE7A8F10100037016
:1031D0002188090501D5452100E06521A0F10108FC
:1031E00000F8011C09980FA9A1EB0807FF1D00B109
:1031F0000120411901EBEA70A1693844081A401E08
:10320000A0612078C00602D42046FFF763F9099830
:1032100028B1D4E901219047206A401C206220781F
:10322000C00622D52046FFF755F91EE0002E04DB2C
:10323000B34502DD01A8805D00E03020D4E9012122
:103240009047206A401C2062761CAAF101005FEAC8
:10325000000A0AD100F0E0F9C0680168405CD4E9D6
:1032600001219047206A401C2062281EA5F101051B
:10327000DCDC07E0D4E9012118F8010B9047206A53
:10328000401C2062381EA7F10107F3DC2046FFF73F
:1032900037F9032011B041E62DE9F04F04460D4601
:1032A000D21D22F0070089B0D0E900974846394680
:1032B00000F05FFF0246F80F01D02D2307E02068E1
:1032C000810701D52B2302E0202101EAC0038DF8FC
:1032D00020300BB1012000E00020032A824601D0FB
:1032E000072A04DB2946204600F09AF93FE12078BE
:1032F000800601D40D2500E0E569C7F30A560D2DBF
:1033000049DA00214FEA175B08464FF00000002F12
:1033100000F4400007DA00EB80004FF4400100EBBE
:10332000D07001EA60008115012901DD4FF0FF3105
:1033300000224FEA850CBCF1180F06D31346ACF1FE
:1033400018004FF08052C24003E04FF4801323FA7C
:103350000CF30CF10C0CBCF1200F04D3ACF1200CDD
:1033600009FA0CF001E007FA0CF000294FF00048D0
:1033700001DD18B90FE00ED140450CD319EB02095D
:103380005F4121B9404502D19F4329EA0209BBEBC5
:10339000175F00D0761C2088000502D57B48784452
:1033A00002E07A487844193808AA302302F80A3033
:1033B000037C0AF10101002E0AF1020A53546A4605
:1033C00002DC4FF0300101E04FF031014FF0010815
:1033D0008DF8001002D0A6F2FF3603E059EA47014B
:1033E00000D06B4E002D02DC2178090704D54FF088
:1033F00002082E218DF80110C44600210BE0C7F30E
:1034000003433F01C35C491C6D1E02F808300529C7
:1034100008F1010801DA002DF1DC00210CE000EBDD
:103420001973491C1B786D1E082902F808304FEAF1
:10343000091908F1010801DA002DF0DC21688B067A
:1034400002D516E0A8F10108E04505DD02EB08030E
:1034500013F8013C302BF5D0B8F1000F09DD02EB79
:10346000080313F8013C2E2B03D1090701D4A8F15E
:103470000108002D05DD3E2102F808106D1E08F13F
:103480000108407C002E02F8080008F1010804DA67
:103490002D20764202F8080002E02B2002F80800F6
:1034A0000A214FF47A70864208F101080BDB96FB83
:1034B000F0F3303302F8083096FBF0F308F101081E
:1034C00000FB136601E0642E0CDB642096FBF0F336
:1034D000303302F8083096FBF0F308F1010800FBE6
:1034E000136601E00A2E06DB96FBF1F0303002F89D
:1034F000080008F1010896FBF1F001FB1060303084
:1035000002F80800A16908F1010808EB050202EBC6
:103510000A00081AA0612078C00602D42046FEF7EF
:10352000D9FF216A08AE01EB0A00206204E0D4E969
:10353000012116F8010B9047BAF1010AF7D2207861
:10354000C00602D52046FEF7C5FF6E4609E016F814
:10355000010B3E280FD0D4E901219047206A401C7E
:103560002062B8F10108F2D22046FEF7C9FF09B087
:103570000320BDE8F08F206A2844206203E0D4E9EC
:103580000121302090476D1EEBD3F8E7DD180100D4
:1035900002FCFFFF10B5436913B1AFF3008001E0F7
:1035A000FFF74EFB012010BD128800F12401828438
:1035B0000022C2840122EDE711684FF0FF32E9E7F3
:1035C000007B00F08000704770B516460C4605463B
:1035D00000F01AF8036893F80101012806D0FF2CC7
:1035E0000FD8185D68B101202C7070BDD3F80701A9
:1035F0003246214603F2071303442846BDE87040D3
:1036000018474FF0FF3070BD10B500F005F8001DF1
:1036100010BD00BF85FE000000487047985401208F
:103620002DE9F0411F46044603260168072A01F4EC
:10363000006004DB08B116A505E016A503E008B19B
:1036400015A500E015A521F010002060A069C01E9E
:10365000A0610FB1401EA0612046FEF73BFF4FB1B5
:10366000D4E9012138469047206A401C2062C01CE2
:10367000206206E0206AFAE7D4E9012115F8010B7F
:103680009047761EF8D22046FEF73AFFBDE8F0815B
:103690004E414E006E616E00494E4600696E6600F6
:1036A0002DE9F047814616468AB0354878440DC862
:1036B0008DE80D0032487844801C03AC0DC884E8C6
:1036C0000D0041F69B300844372190FBF1F290FB4E
:1036D000F1F5A5F1800501FB12041B3C02D5644203
:1036E000012000E00020DFF898A080460027FA447F
:1036F000AAF1BE0A0EE0E0070AD03246684607EBA0
:10370000470101230AEB810100F017FB8DE8070058
:1037100064107F1C002CEED1194F7F44AE3F19E09E
:10372000E80715D007EB04100DF1180A90E80E0019
:103730008AE80E00C068F04201D19819089032461C
:10374000012306A903A800F0F8FA03AB83E80700F9
:103750006D10641C002DE3D14FF001033246694621
:10376000B8F1000F03A802D000F0D2FA01E000F097
:10377000E4FAC9E90001C9F808200AB0BDE8F087F9
:103780006016010010B50446AFF300802046BDE886
:103790001040FEF727BD00004FF0013C50F8042B0D
:1037A00051F8043B9A4221D1A2EB0C03934313EA54
:1037B000CC1317D150F8042B51F8043B9A4215D181
:1037C000A2EB0C03934313EACC130BD150F8042B58
:1037D00051F8043B9A4209D1A2EB0C03934313EA3C
:1037E000CC13DBD04FF00000704700BFD01A01BAF5
:1037F000B1FA81F101F0180122FA01F0CB40C1F1D8
:103800002001DBB2C0B2C01A2CFA01F3D11A9143E5
:1038100011EAC311E6D170475FEA400C08BF91F08E
:10382000000F4FEA8C234FEAC12243EA51514FEA7D
:103830001C5018BF00F5F0404FEA300018BF41F0AF
:1038400000415FEA6C5C00F02980BCF1FF3F08BFDB
:1038500040F080407047130C06BF12044FF0100C6C
:103860004FF0000C130E04BF12020CF1080C130FE2
:1038700004BF12010CF1040C930F04BF92000CF171
:10388000020CD30F04BF52000CF1010C11464FF093
:103890000002A0F11F00A0EB0C00704711F0004FD8
:1038A00008BF704731F000413FF4D5AF0B0C06BFA5
:1038B00009044FF0100C4FF0000C0B0E04BF09026E
:1038C0000CF1080C0B0F04BF09010CF1040C8B0F59
:1038D00004BF89000CF1020CCB0F04BF49000CF1AE
:1038E000010CCCF12003A0EB0C0022FA03F302FA46
:1038F0000CF241EA030100F10100704720F07F4C17
:1039000080EA030023F07F47ACEB070303F57C5309
:1039100000F0004003F1FF032DE980494FEA154B09
:1039200009B44FEA144325EA0B4E24EA03480FF288
:10393000042606EB132749083E785FEA320203FBB0
:103940000667C7F5000707FB06F64FEA54374FEA4C
:10395000D64606F1020607FB066CCCF1005C4FEA86
:103960001C472CEA074C07FB06F40CFB06F504EB9E
:1039700015464FEA961634BF00204FF000404FEA3C
:10398000D13706FB07FC4FEA1C4C0CFB0BF7D21B94
:1039900003FB0CF761EB07010CFB0EF7B0EB0740E4
:1039A00072EB17420CFB08F734BFA2EB0742B2EBF5
:1039B000074261EB17414FEA0C444FEA910706FBBF
:1039C00007FC4FEA1C4C0CFB0BF7B0EBC74072EB4B
:1039D000573203FB0CF734BFA2EBC742B2EBC7422E
:1039E00061EB57310CFB0EF7B0EBC70072EB57726F
:1039F0000CFB08F734BFA2EBC702B2EBC70261EBC6
:103A00005771039F4FEA816141EA921104EBCC04A4
:103A10004FEAD1374FEA826206FB07FC42EA901276
:103A20004FEA80604FEA1C4C0CFB0BF7D21B03FBE8
:103A30000CF761EB07010CFB0EF7B0EB074072EBE4
:103A400017420CFB08F734BFA2EB0742B2EB074268
:103A500061EB17414FEA8C554FEA910704EB9C2428
:103A600006FB07FC4FEA1C4C0CFB0BF7B0EBC74006
:103A700072EB573203FB0CF734BFA2EBC742B2EB39
:103A8000C74261EB57310CFB0EF7B0EBC70072EB8E
:103A900057720CFB08F734BFA2EBC702B2EBC702A8
:103AA00061EB577115EB4C254FEA816141EA9211A8
:103AB0004FEA82624FEAD13742EA901206FB07FCD6
:103AC00044F100044FEA80604FEA1C4C0CFB0BF7FA
:103AD000D21B03FB0CF761EB07010CFB0EF7B0EBFD
:103AE000074072EB17420CFB08F734BFA2EB07420A
:103AF000B2EB074261EB174115EB1C154FEA813120
:103B000041EA92414FEA823242EA90424FEA8030E3
:103B10004FEA0C7644F1000448EA03434EEA0B48AE
:103B20004FF0000EB2EB080C71EB030724BF6246A6
:103B300039464EEB0E0E4FF0000B00185241494132
:103B40004BEB0B0BB2EB080C71EB03077BF1000B9B
:103B500024BF624639464EEB0E0E4FF0000B0018A4
:103B6000524149414BEB0B0BB2EB080C71EB0307D5
:103B70007BF1000B24BF624639464EEB0E0E51EA34
:103B8000020718BF46F0010616EB0E7655F100024B
:103B900054F1000103D5BDE88901BDE80088BDE806
:103BA0008901BDE80048B619524141EB0101A3F17A
:103BB0000103704780807F7E7D7C7B7A7978777681
:103BC00076757473727171706F6E6E6D6C6C6B6AFA
:103BD0006A69686867666665646463636261616098
:103BE000605F5F5E5E5D5D5C5C5B5B5A5A59595815
:103BF000585757565655555554545353525252517F
:103C0000515050504F4F4F4E4E4D4D4D4C4C4C4BD4
:103C10004B4B4A4A4A49494948484847474747461B
:103C20004646454545444444444343434342424257
:103C300042414141002B9C4630D477002BD01CB52B
:103C40004FEA370703B44FF010004FF01001BAF1FC
:103C5000000F06D0BCF1000FDCBF40F0080040F0C0
:103C600008014FF000000FBCBDE810400BF1010B44
:103C7000BBF1010F08BF5FEA170722BF12F1010273
:103C800011F101014FF0004143F1000300F0004049
:103C900043EA00007047F9D35708D0E746EA0646E2
:103CA00013F1400F4FEA16461FDD13F1200FDFBF5F
:103CB00016430A46002120335B42BED0C3F12007E1
:103CC00046EA064602FA07F74FEA164646EA0706AC
:103CD000C3F1200722FA03F201FA07F721FA03F1F0
:103CE0004FF0000342EA0702A7E746EA020646EA67
:103CF00006464FEA164646EA0106BCBF46EA0646B5
:103D0000360C4FF000034FF000024FF0000194E733
:103D10002DE9804C9A46934670B491E8380007C864
:103D200031EA400C48BF34EA430C03D5FFF7E6FD07
:103D3000FFF780FFF0BCBDE8008C2DE9804C9A466F
:103D4000934670B491E8380007C810F0804F08BF60
:103D500013F0804F03D100F005F8FFF76BFFF0BCC4
:103D6000BDE8008C20F07F4780EA030023F07F4C01
:103D700007EB0C03A3F57C5300F00040A3F1FE0316
:103D800092F0000F00F0B38095F0000F00F0778004
:103D90002DE901494FEA11404FEA144621EA004853
:103DA00000FB06FC24EA064708FB06F607FB08F8BA
:103DB00000FB07F718EB06484CEB164C4FEA124B8A
:103DC00018EB07484FEA15464CEB174022EA0B4E1A
:103DD0000BFB06FC25EA06470EFB06F607FB0EFE6C
:103DE0000BFB07F71EEB064E4CEB164C4FF0000694
:103DF0001EEB074E4CEB174B18EB0B0840F1000085
:103E000018EB0E0B58EB000840F100008F1A4FF032
:103E100000013CBFC943661B14BFB5EB040C002175
:103E20003CBFC943F61B4FEA17444EEA8E0E27EA01
:103E300004454FEA1C4704FB07622CEA074C05FBCC
:103E400007F70CFB05F604FB0CFC16EB074642EBF0
:103E5000174216EB0C4642EB1C421BEB060658EBD6
:103E60000202414146EA9E0601D5BDE80189B61924
:103E7000524141EB0101A3F10103BDE801894FEA81
:103E800014454FEA114724EA054621EA074C05FB91
:103E900007F406FB07F70CFB06F105FB0CFC11EB26
:103EA000074144EB17444FEA124711EB0C4144EB36
:103EB0001C4422EA074C05FB07F206FB07F70CFB44
:103EC00006F605FB0CFC16EB074642EB174216EB19
:103ED0000C4642EB1C456A1854F1000148BF70477C
:103EE000B619524141EB0101A3F10103704795F06E
:103EF000000F37D04FEA11424FEA144721EA024639
:103F000024EA074C02FB07F106FB07F70CFB06F45B
:103F100002FB0CFC14EB074441EB17414FEA154739
:103F200014EB0C4441EB1C4125EA074C02FB07F55E
:103F300006FB07F70CFB06F602FB0CFC16EB07462C
:103F400045EB174516EB0C4645EB1C42121951F197
:103F5000000148BF7047B619524141EB0101A3F17E
:103F6000010370474FEA14454FEA114724EA05461A
:103F700021EA074C05FB07F106FB07F70CFB06F2ED
:103F80004FF0000605FB0CFC12EB074241EB17411A
:103F900012EB0C4251EB1C4148BF7047921841EBA9
:103FA0000101A3F10103704702F070BC0B480168E6
:103FB00009070BD4C16921F00301C161016841F017
:103FC00008010160016821F0080101600448416EA8
:103FD00021F0800141667DF6A7BB0000005001B0D2
:103FE000002001B0FEE710B502F0AAFF10BD0000EE
:103FF00070B503201749096841F38001491C164D2B
:1040000000290CD113490C310968C1F3000131B109
:1040100010498C39096801F00701884303D02869E9
:10402000401C286170BD0D4C206820F0010020600C
:10403000206840F00400206009494FF40030086017
:1040400003F02EF8E868401CE860206840F00100AA
:10405000206070BDD4A400404892002088E2004057
:1040600084E200E0FEE7FEE7FEE726F697BD0000EB
:1040700005280CD2064A116801F4E021B1EB004F8B
:1040800005D0116821F4E02141EA0040106070473A
:1040900000A00040FEE700000249096801F00701A6
:1040A0000170704700A0004070B50446072C20D274
:1040B000104E306800F00700A04214D0032008F032
:1040C00083F8F06820F0070545F00100F06000BFBC
:1040D00000BF00BF00BF204608F076F8064850F841
:1040E00024002843F060044804491C3850F8240098
:1040F000086070BD00A0004034472100600300202C
:104100000248016841F470010160704788ED00E0E9
:1041100002480068001D06F0FFBF00004C9C002014
:1041200002484068001D06F0F7BF00004C9C0020CC
:1041300002488068001D06F0EFBF00004C9C002084
:104140000248C068001D06F0E7BF00004C9C00203C
:1041500002480069001D06F0DFBF00004C9C0020F3
:1041600002484069001D06F0D7BF00004C9C0020AB
:10417000FEE703B401984100009850EAC12018BF3F
:1041800004204A0D18BF40F0010040F2FF72B2EB6C
:10419000515F08BF40F00200012808BF052002B0AF
:1041A0007047002809DB00F01F02012191404009FF
:1041B000800000F1E020C0F880127047002809DB81
:1041C00000F01F02012191404009800000F1E02031
:1041D000C0F880127047002809DB00F01F0201219F
:1041E00091404009800000F1E020C0F88012704743
:1041F00000280DDB00F01F020121914040098000E2
:1042000000F1E020C0F88011BFF34F8FBFF36F8F34
:104210007047002809DB00F01F020121914040098E
:10422000800000F1E020C0F800117047002809DB91
:1042300000F01F02012191404009800000F1E020C0
:10424000C0F800117047002804DB00F1E02090F86E
:104250000004704700F00F0000F1E02090F8140D0A
:104260007047002804DB00F1E02090F8000470475C
:1042700000F00F0000F1E02090F8140D70470028C6
:1042800004DB00F1E02090F80004704700F00F001C
:1042900000F1E02090F8140D7047002804DB00F1D5
:1042A000E02090F80004704700F00F0000F1E020DB
:1042B00090F8140D7047000002480068C0F3022017
:1042C000704700000CED00E002480068C0F30220D7
:1042D000704700000CED00E002480068C0F30220C7
:1042E000704700000CED00E0EFF310807047000015
:1042F0002DE9F0412DED020B9FED3D0B2DED028BD5
:104300009FED3D8BDDE90254C4F30A50A0F2FF3665
:10431000142E37DA002E18DA53EC102B9DED020B19
:1043200051EC100B0FF0DAF853EC182B0FF0D2FC15
:1043300057D2002CBCBF4FF00044002551DB54EA9B
:10434000050018BF2E4C1BD14BE02E4820FA06F773
:1043500004EA070028431FD053EC102B9DED020BFD
:1043600051EC100B0FF0BAF853EC182B0FF0B2FC15
:1043700037D2002C03DD4FF48010F0400444BC43DE
:1043800000252EE0332E07DCA6F114004FF0FF319C
:1043900021FA00F73D4206D19DED020BBDEC028BE8
:1043A00002B0BDE8F08153EC102B9DED020B51ECF7
:1043B000100B0FF01FFD53EC182B0FF08BFC10D2DD
:1043C000002C0DDD142E08BF641C09D0C6F134008A
:1043D000012101FA00F02844A84238BF641C0546B8
:1043E000BD43CDE902549DED020BD7E7000000006C
:1043F0009C7500883CE4377E00000000000000004F
:104400000000F03FFFFF0F0010B52DED028BF0EE26
:10441000408A18EE900AB0EE608A20F00040C0F1A9
:10442000FF40C00F07D118EE100A20F00040C0F185
:10443000FF40C00F2BD018EE101A18EE900A0FF0A4
:1044400075FE00EE100A10EE100A6FEAD05010F060
:10445000FF0F04BFBDEC028B10BD18EE900A00F0F8
:10446000004110EE100A00F00040814204BFBDEC94
:10447000028B10BD18EE101A10EE100ABDEC028B64
:1044800061F31E0000EE900A30EE600A10BD18EED7
:10449000900A4FF07F41B1EB400F1CBF18EE100A9D
:1044A0005FEA4000C7D10120FEF7F7FABDEC028BAE
:1044B000BDE8104000F070B810B52DED020B2DEDE9
:1044C000088B84B09DED0C0B51EC100B0FF038FCF9
:1044D00041EC180B9DED0C0B53EC182B51EC100B11
:1044E0000FF094FC41EC190B0D989FED290B10F087
:1044F000004F53EC102B51EC190B9FED21AB9FEDAE
:1045000022BB0ED00FF0ACFA0ED953EC1B2B51ECA2
:10451000190B0FF0DFFB1CD214E000BF41EC180BAD
:1045200017E00FF09DFA06D253EC1A2B51EC180B42
:104530000FF06CFCF2E753EC1B2B51EC190B0FF056
:10454000C9FB06D853EC1A2B51EC180B0EF0C6FF22
:10455000E4E78DED028B9DED0C0B18EE901A10EE3A
:10456000900A8DED000B61F31E0003909DED020B90
:1045700004B0BDEC088B02B010BD000000000000CC
:10458000000000000000F03F000000000000E03FDD
:10459000000000000000E0BFDFED020A80EEA00A8C
:1045A000704700000000000080F310887047000092
:1045B0002DE9F74F07460298DFF888A1DFF88881D8
:1045C0004FEA500B5C46019D6048CAF800003F204E
:1045D000D8F8041060F30501C8F80410D8F80400F6
:1045E00020F48030C8F80400DAF8000020F47000ED
:1045F00040EA0750CAF80000DAF8000020F4702002
:1046000040EA0740CAF800000D2F05D1DAF8000093
:1046100040F40040CAF800000E2F05D1DAF800007F
:1046200040F48040CAF80000DAF8000040F400507E
:10463000CAF80000DAF8000020F06050CAF8000064
:10464000DAF8000020F00F0040F00300CAF8000084
:10465000002000F0CFF8012871D1DAF8000040F016
:104660008040CAF80000002008E0D8F8081041F4A3
:104670008031C8F80810401C411C05D0D8F808103B
:10468000C1F300210029F0D1072000F0B3F8012880
:1046900055D141E000264FF47A7924E04E451ED9E9
:1046A000DAF8000020F08040CAF80000DAF80000D4
:1046B00040F00040CAF80000DAF8000020F00040A6
:1046C000CAF80000002000F095F8012837D12049F1
:1046D000086A401C086205200AF698FF72E701206C
:1046E0000AF694FF761CD8F80800C0F300200028D2
:1046F000D4D0D8F8080000F07F02A24200D92246A8
:10470000002006E0D8F800102980090C69802D1DD2
:10471000401C9042F6D3A41A002CBBD10298C007CB
:1047200008D0D8F80800C0F300200028F9D0D8F845
:1047300000002880BDE8FE4F002000F05BB8BDE817
:10474000FE8F000000A8004000E000400A070807B4
:10475000489200202DE9F041044615480021C0F898
:10476000941001214161134D686A134EF06200F00C
:10477000010149420140C80512D440F2011704E08A
:1047800044B1641E01200AF641FFA869B84204D171
:10479000012003E00020BDE8F08100200028EFD0D8
:1047A0000648006870626868B0620120F3E70000A4
:1047B00000D01D4200E000404892002000A80040C8
:1047C00009480A49826A4A60094B426A1A60808D28
:1047D00000F0010252420240D00503D4086A20F0E2
:1047E00001000862704700004892002000E000408D
:1047F00000A800402DE9F0410546114FF868C0F3CC
:104800000240A84202D10120BDE8F081F86820F002
:1048100007002843F86000244FF6FF76F868C0F3DD
:104820000240A84205D001200AF6F0FE641CB44202
:10483000F4D3B44201D10020E6E70120E4E7000010
:1048400000E00040F0B506462DED068B89B00D4620
:104850009FED459B202101A8FEF7E0F8B0EE498AC4
:10486000F0EE698A4248C08B0FF0A1F89FED411B22
:1048700053EC112B0EF0E6FE41EC1A0B102201A9AD
:104880003046FFF795FE002401AF04F1080037F829
:1048900010000FF08CF853EC182B0EF01FFE41ECBB
:1048A000180B641CE4B2082CEFD351EC180B9FEDED
:1048B000330B53EC102B0FF00FF941EC180B0D2EAE
:1048C00002D00E2E29D046E09FED2E0B51EC100B9E
:1048D0000EF0F8FD41EC190B68880FF068F853EC06
:1048E000192B0FF0F9F841EC190B28880FF05FF83D
:1048F00053EC182B0FF07EFA53EC192B0EF0A2FE9E
:104900009FED221B53EC112B0EF09CFE53EC1A2B47
:104910000EF0E4FD41EC190B1DE09FED1E0B51EC78
:10492000100B0EF0CFFD41EC190B68880FF03FF82B
:1049300041EC1A0BA8880FF03AF853EC182B0FF043
:1049400059FA53EC1A2B0EF07DFE53EC192B0FF095
:10495000C3F841EC190B09B0B0EE490AF0EE690A50
:10496000BDEC068BF0BD0000000000000000000060
:10497000B045002000000000000059400000000089
:104980000000C03F000000000000004079E926312F
:1049900008AC5CBFB76DDBB66DDB0E4030380A2863
:1049A00001D20120704700207047704710B595F67E
:1049B000C5F808B1002010BDBDE810403C210148F9
:1049C00002F09ABB7445002010B502F07DFA10BDCC
:1049D00009F0EEBF70B504460D46294620460DF09D
:1049E000D9FA2946204609F049F82946204609F017
:1049F0007FF970BD03490A6822F4C06242EA402090
:104A00000860704704A800400748084900E0401EBD
:104A10000A68C2F340020AB10028F8D1002802D186
:104A20000449034808607047A086010038A7004089
:104A30000001A1C58CE2004006460F46154672B63D
:104A40003846FDF72BFF402801D9402002E03846C8
:104A5000FDF724FF80463046FDF720FF402801D9AE
:104A6000402002E03046FDF719FF04469C21104823
:104A7000FDF7D4FF424639460D48FDF72EFF0C489E
:104A8000224631465C30FDF728FF09484FF0AA3135
:104A9000016445644FF0BB3181644FF0CC31016556
:104AA0004FF0DD318165002000F004F8FEE70000E2
:104AB00020A0002030B5ADF20C4D04464FF48061CB
:104AC00003A8FDF7ABFF194D202085F83F0085F8BE
:104AD0009B003CB12846012C436DC26C09D0022CCE
:104AE0000CD00FE0114A12A15C3203A8FDF7C0FC04
:104AF00008E012A103A8FDF7BBFC03E017A103A87F
:104B0000FDF7B6FC03A90CA2686CCDE90121009069
:104B100019A3064A19A1002000F068FD012C01D05C
:104B200000F01CFD0DF20C4D30BD000020A0002057
:104B30005B4552524F525D20257300005B57415236
:104B40004E494E475D20506172616D303A25642CAC
:104B5000506172616D313A25640000005B50415232
:104B6000414D5D20506172616D303A25642C506179
:104B700072616D313A256400000000006170705F61
:104B80006173736572742E6300000000014894F62F
:104B900087BE0000688D002006460F4690461D46E1
:104BA00072B64046FDF77AFE402801D9402002E067
:104BB0004046FDF773FE04469C210D48FDF72EFF8D
:104BC000224641460A48FDF788FE09484FF0553114
:104BD000016445644FF066318164C6644FF07731FB
:104BE00001654765C94381650220FFF763FFFEE762
:104BF00020A000202DE9F04106460F4690461D46B4
:104C00004046FDF74BFE402801D9402002E04046D7
:104C1000FDF744FE04469C210D48FDF7FFFE2246A9
:104C200041460B48FDF759FE09484FF01131016428
:104C3000456449008164C6644FF0333101654765BE
:104C40004FF044318165BDE8F0410120FFF732BFEC
:104C500020A0002010B50948152141710C210171D7
:104C60000121C1708170002141700170002000F0AD
:104C7000F3FDBDE81040014800F00EBE204C0120BD
:104C800010B588B0817AC27A037B447BCDE90443B6
:104C9000CDE90621817BC07B06A29E23CDE90032AF
:104CA000CDE90201114B12A217A1022000F09EFCD7
:104CB00008B010BD436F6E6E6563746564207769DC
:104CC00074682074686520706565722025303258DC
:104CD0003A253032583A253032583A253032583A4F
:104CE000253032583A253032582E00007C462100BB
:104CF0002E2E5C5372635C757365725C757365729E
:104D00005F6170702E6300004E4F5F54414700009A
:104D100010B586B00FA09622CDE900200291134B6A
:104D200013A219A1022000F061FC194900207EF6AF
:104D300095F80446002C0AD014220C491C3101A815
:104D4000FDF710FEADF8084001A800F023F806B00A
:104D500010BD0000446973636F6E6E6563746564B3
:104D60002028307825303258292E00004C4621006A
:104D70002E2E5C5372635C757365725C757365721D
:104D80005F6170702E6300004E4F5F54414700001A
:104D9000A48F00203EB504464FF400711A48FDF779
:104DA0001BFE207810B1012819D01DE00021174802
:104DB000A28830F831309A4207D100EBC10014A12B
:104DC00043681148FDF754FB0EE02E2902D0491C20
:104DD000C9B2EEE714A10C48FDF74AFB04E01DA19F
:104DE00009486268FDF744FB074921A22069CDE923
:104DF00001210090D4E902231EA1002000F0F6FB5F
:104E0000BDE83E4000F0BEBB209E0020784321005C
:104E10004572726F7220636F64652030782530347C
:104E2000583A2025730000004572726F7220636F3C
:104E30006465203078253034583A204E6F20666FF4
:104E4000756E6420696E666F726D6174696F6E2E27
:104E50000000000028257329206973206E6F7420DC
:104E600065737461626C69736865642E000000008C
:104E7000257300006170705F6572726F722E63003F
:104E80002DE9F041014600291BD000240F4E0E4AA7
:104E9000357814E002EB04100F780378BB420CD194
:104EA0004B684068034208D0707808B900F034FBC2
:104EB0002046BDE8F04100F057BA641CE4B2AC42B1
:104EC000E8D3BDE8F0810000CCA00020748D002064
:104ED0007CB505460E46002D01D0002418E0E520E3
:104EE0007CBD05EB041041680091017A8DF8041037
:104EF000417A8DF8051007218DF80610C2680078F8
:104F00000023694600F03CF80028E9D1641CE4B2B3
:104F1000B442E6D300207CBD7047704770477047AD
:104F200010B502460846052A25D2DFE802F0030341
:104F300003111900114951F832200104090C05D060
:104F400022B10146104605F057FF10E0E42010BDE5
:104F500010F0FF0F02D005F09FFA08E0E42010BD2A
:104F600010F0FF0F05D00146002022F6B7F900200F
:104F700010BDE42010BDE62010BD0000B0422100AD
:104F80002DE9F05F05460C469046994626680027B5
:104F9000042D11D031462846FFF7C2FF214628468E
:104FA00000F05EF8002808D1032D08D04FF0100A59
:104FB0002807070E002448E0E620BDE8F09F4FF0E8
:104FC000080AF7E7F0073DD03DB1012D05D0022DCD
:104FD00003D0032D21D0E620EFE71E4800EBC500EB
:104FE00090F904B0BBF1000F15D0EFF31081012050
:104FF00080F31088184AE01942F8308002EBC000B4
:10500000C0F8049081F31088584622F6C3F9584638
:1050100022F6DEF916E0E420CFE7EFF3108101205D
:1050200080F310880D4AE01942F8308002EBC0008E
:10503000C0F8049081F310881B2022F6ABF91B20E6
:1050400022F6C6F97608641CE4B25445BAD30020AF
:10505000B3E70000B0422100A09A0020B09B0020DE
:1050600070B58EB005460C46474991E84D00CDE934
:105070000A02CDE90C36D1E90523086906AEC969F3
:105080000DC6099114224049203101A8FDF76AFCA0
:10509000D4B13E4906200CF00DFA3D4907200CF032
:1050A00009FA3C491B200CF005FA3B4912200CF090
:1050B00001FA35493C39A1F12C02052D61D2DFE816
:1050C00005F0060606213900E5200EB070BD2079F6
:1050D00031F810000B90607932F810000C90A07934
:1050E0000D9020680A902848543850F835002188DF
:1050F0000904090C04D018B10AA905F0A7FE39E08B
:10510000E420E2E7207901EB4000808A0790607993
:1051100002EB4000C0880890A079099020680690B2
:10512000207810F0FF0F03D006A805F0B7F921E0B2
:10513000E420CAE72079031F042B01D8E720C4E745
:10514000022819D001200290207901EB4000008D47
:105150000390607902EB400080890490A07905906B
:1051600020680190207810F0FF0F08D001A90020DE
:1051700022F6C4F80020A8E702200290E4E7E42029
:10518000A3E7E620A1E7000004432100C16110006D
:10519000BB611000B7611000B16110000246002031
:1051A000052A11D2DFE802F0030303090C000748C7
:1051B00050F8320089B21EF60CBD88B21AF6F2BB66
:1051C00089B2002022F69CB870470000B04221004E
:1051D000002803D002490860012070470020704772
:1051E0007C8D002070B505460024091F062917D2C2
:1051F000DFE801F003070C111315284600F0A4F8AE
:105200000EE00124284600F09FF809E00224284619
:1052100000F09AF804E0032402E0042400E00524EE
:10522000034A214628461268BDE870401047000036
:105230007C8D00202DE9F0410446204600F0AEF8B8
:1052400001462E4800230826025D00F10A0700F1FE
:105250001405AAB1052A33D0082A2AD1092945D034
:10526000082926D1295D491CC9B22955142920D302
:105270002B5506552046BDE8F0410821FFF7B2BF87
:10528000052913D0042916D0072914D0082910D1D4
:10529000295D491CC9B2295514290AD32B55065535
:1052A0002046BDE8F0410821FFF79CBF3B55052192
:1052B0000155BDE8F0812046BDE8F041FFF792BFFF
:1052C00005290CD0395D491CC9B239553229F0D3B2
:1052D00003552046BDE8F0410521FFF783BF035584
:1052E0002046BDE8F0410621FFF77CBF035520466C
:1052F000BDE8F0410921FFF775BF0000ACA1002017
:1053000070B504460D4600F00FF808B100F01AF928
:105310000348044A2946005D5268BDE870401047C2
:10532000C0A00020748D00200020064911F8102034
:105330000AB100207047401CC0B20A28F6D30120F1
:1053400070470000CAA100200349002201F8102084
:1053500001EB400042707047CAA10020014A02F8E8
:1053600010107047CAA10020024A012102EB400040
:1053700041707047CAA1002070B50024064D05EBAE
:105380004400407810B12046FFF754FF641CE4B29B
:105390000A2CF4D370BD0000CAA1002070B5002112
:1053A0001D4B03F132051A5C002A09D0002403F1D9
:1053B0000A06012A0AD0022A12D0032A24D11FE0A9
:1053C00015F8102002B301221A541DE015F8102020
:1053D0001AB1345402221A5416E01C54042113E06A
:1053E00015F810204AB1325C521CD2B23254642AF1
:1053F0000AD3072103221A5406E005211C5403E0B6
:1054000015F8101011B10821084670BD1C54FFF7A3
:105410009BFF0921F8E7000098A1002070470000D9
:105420002DE9F0410F4690460A2F04D8B8F1000F3D
:1054300001D0002323E00020BDE8F08103EB430608
:1054400010F826402CB1012C03D0022C01D0032CE3
:1054500013D100EB8605124AA97AD154104910F8ED
:1054600026200C3101EB0314227069686160297AEF
:105470002172697A61720B49E1605B1CDBB2BB424D
:10548000DCD3074839460C30FFF722FD0648077089
:10549000C0F804800548FFF79BFE0120CCE7000020
:1054A000C0A00020814E2000748D002001532000F8
:1054B0002DE9F0410024124FDFF8488019E0002662
:1054C00007EB041528786968FFF768FE10B9697A58
:1054D000012902D0012802D005E0012603E0687A04
:1054E000022800D1012631462046FFF737FF641C11
:1054F000E4B298F800008442E1D3BDE8F0810000F6
:10550000CCA00020748D002010B5FFF7D1FFBDE8BE
:105510001040FFF731BF000010B5074A01210748CE
:1055200000F0DEF900220A21044800F02FFB0449B4
:105530000120487010BD00000955200070A1002016
:10554000748D002010B5034800F0F8F902490020DE
:10555000487010BD70A10020748D00200248406A80
:10556000002800D000477047F89D0020002806D092
:10557000002904D0024AD269002A00D0104770479F
:10558000F89D00200248006A002800D000477047BC
:10559000F89D002070B50D4616460D4C00280AD027
:1055A0000178032911D80121A17601461A2220464B
:1055B000FDF793F905E00020A0761A210448FDF7D5
:1055C0002DFAE5612662002070BD012070BD00004B
:1055D000F89D0020044A1044807D084201D001203B
:1055E0007047002070470000F89D00202DE9FE4F15
:1055F0000746924699460024A046CDF80480CDF88F
:10560000088059480178B94202D2807E00287DD1B5
:105610000EAD0095EFF311860220FEF722FE8346C1
:10562000FEF752FE401C012181400BEB0100C0B28D
:1056300080F3118801213846FFF7CCFF38B14B4881
:105640004B4950F82720204600F0A4F804461C21BE
:105650003846FFF7BFFF00285ED046A244492046E7
:1056600000F098F8204484B204213846FFF7B2FFD6
:10567000F8B152463E49204600F08CF8204484B2EE
:1056800008213846FFF7A6FF38B13BA2384920462B
:1056900000F080F8204484B20BE010213846FFF778
:1056A00099FF30B135A23249204600F073F820440A
:1056B00084B208213846FFF78DFF90B14A462C4945
:1056C000204600F067F8204484B210213846FFF7E6
:1056D00081FF30B12AA22649204600F05BF8204421
:1056E00084B210213846FFF775FF60B126A205216C
:1056F00001A80C9BFCF7D2FE01AA1D49204600F030
:1057000049F8204484B221A2194900E029E020464A
:1057100000F040F8204484B21548C4F5807120445C
:105720002B460D9AFCF77EFECDF800804FF4807179
:10573000002804DB2044884201DC85B200E00D46ED
:10574000A81C884200D9FE2511A20949284600F06C
:1057500021F8284481B20648FFF708FFF0B280F331
:105760001188BDE8FE8F0000F89D0020548D0020B8
:10577000F89C002028000000200000003A000000F3
:10578000204C696E653A0000256C640029200000F9
:105790000D0A000030B50546002000290CD0002A73
:1057A0000AD006E02B18FF2B06D8CC54521C401C04
:1057B00080B21478002CF5D130BD000010B5094A34
:1057C00006214CF2010090F6C1FF01F05DFA0022C3
:1057D0004FF41811104601F00DFDBDE810400220F5
:1057E0000AF0C4B8BE45210010B508480178002968
:1057F0000AD101210170064891F6BCFEBDE81040B7
:105800000021044892F64CB810BD0000488D0020DD
:10581000D5611000B5F8200008B500910348016873
:10582000002901D06846884708BD0000649C00201C
:1058300010B5084A92F82010002907D040B101465F
:10584000101D04F077FE0028FFD110BDE92010BD27
:10585000E52010BD649C002010B50C4C20600C4964
:1058600021200BF027FE201D04F028FE00280BD17C
:10587000201D04F0E9FE002806D1064801F04AFB8D
:10588000012084F82000002010BD0000649C00204E
:1058900099621000C158200010B5084A92F82010F3
:1058A000002907D040B10146101D04F061FF002817
:1058B000FFD110BDE92010BDE52010BD649C002083
:1058C000064890F82010002907D0B5EEC00AF1EE86
:1058D00010FA02D0001D05F07FB87047649C0020CC
:1058E0002DE9F04104460D461746002D04D0012D48
:1058F00002D00120BDE8F081E4B1DFB16078012879
:105900001AD0EFF311860220FEF79DFC8046FEF7C9
:10591000D3FC401C0121814008EB0100C0B280F3A0
:10592000118800206070A570E761F0B280F31188E3
:105930000020DFE70120DDE70620DBE710B50446A5
:10594000002C0CD0204600F0B3F9FF20607000213D
:10595000A160E160216161610020E06110BD012072
:1059600010BDF0B5DDE90745059981614FF47A7600
:10597000A2FB061C03FB06C3002702FB0732C0E99B
:10598000021209196A41C0E9041200210162F0BD46
:105990002DE9F0410446002C13D0EFF311850220CD
:1059A000FEF751FC0746FEF787FC401C012606FA6D
:1059B00000F03844C0B280F31188124800212162FF
:1059C0000EE00020BDE8F081D4E90432D1E9047C86
:1059D000DB1B72EB0C0202D2016A216203E0084673
:1059E000016A0029F0D10462667006481038016827
:1059F000491C0160016B4160E8B280F3118801200D
:105A0000E0E70000989C00202DE9F04105460024C5
:105A1000EFF311860220FEF716FC0746FEF74CFC5A
:105A2000401C012181407818C0B280F31188134ACC
:105A3000106BE8B115B102F1100010E00446206AC5
:105A400010631068401E10600CE0A94206D1116876
:105A5000491E1160296A01622C4603E00846016A6A
:105A60000029F2D124B1002020626070106B5060D8
:105A7000F0B280F311882046BDE8F081889C0020B8
:105A80002DE9F041EFF311870220FEF7DCFB04461D
:105A9000FEF712FC401C012181406018C0B280F367
:105AA0001188114D002608E02078012804D1E16911
:105AB00009B1A069884726702D6A2C6A002CF3D1A1
:105AC000094D103D07E0E16909B1A06988472670DA
:105AD000206AA8632662AC6B002CF4D1F8B280F384
:105AE00011880120BDE8F081989C00202DE9F0414B
:105AF000EFF311870220FEF7A6FB0446FEF7DCFB5E
:105B0000401C012606FA00F02044C0B280F3118840
:105B10001D4DA5F110082DE0D4E90430D8E902129A
:105B20005B1A60EB0200D8E91021D21A814124D31C
:105B300026702046FFF768FFA078012806D012489B
:105B4000283000212162016861B10FE0D8E902200C
:105B5000D4E9021351185841C4E904102046FFF754
:105B600017FF07E0046005E001F12000016800294B
:105B7000FAD104602C6A002CCED1F8B280F31188DF
:105B80000120BDE8F0810000989C00202DE9FF5F16
:105B900082460E4693464FF00008BAF1000F20D01F
:105BA000414886421DD8E6B1EFF311870220FEF787
:105BB0004AFB0446FEF780FB401C0121814060182F
:105BC000C0B280F31188504606F0CEF810B19AF8B2
:105BD000010040B1F8B280F311880F2004B0BDE895
:105BE000F09F0120FAE707F065FE04460D464FF4EA
:105BF0007A7106FB01F022462B46002105F078FF62
:105C0000DFF8A890B0B1D9F8040048B1D0E9041089
:105C1000091B60EB0500C9E9021007F0C5FE04E0AE
:105C20000021C9F80810C9F80C104FF00108D9E993
:105C3000020106E0D9F80400D0E90421101B61EB51
:105C40000501CDE9020132460023CDF800B05046EF
:105C5000FFF787FE5046FFF79BFE0BF091FB4FF0DE
:105C6000E024D4F800014FF0806510F0806F01D07F
:105C7000012000E0002020B91A20FEF792FAC4F8B3
:105C80000051B8F1000F0AD0D9F80400D0E904316E
:105C9000D9E90202181A61EB020107F041FEF8B2DD
:105CA00080F31188002099E7008AB907889C0020BA
:105CB0002DE9F04104460025002C39D0EFF311877F
:105CC0000220FEF7C0FA0646FEF7F6FA401C012154
:105CD00081407018C0B280F311886078012824D107
:105CE000144E7068A0420BD107F0E4FDD4E90432F1
:105CF000181A62EB0102C6E9020207F055FE0125FF
:105D00002046FFF781FE5DB1706848B1D0E90421FB
:105D1000D6E90203101A61EB030107F001FE04E06B
:105D20001DB9706808B907F03FFEF8B280F311881A
:105D3000BDE8F081889C002070B504461A4D55F8E6
:105D4000240070300AF02CFF82B21646A2B155F83A
:105D5000240090F8011101290ED0012180F80411CE
:105D6000802A0FD355F82400802200F18001703082
:105D70000AF02BFF80260CE055F82410002081F853
:105D8000000170BD55F8240000F1800170300AF068
:105D90001CFF55F82400324600F18001001D2BF64F
:105DA00033FA0028EDD170BD4C9C002070470000F4
:105DB0002DE9F84304464D4F57F82400061D062CE4
:105DC0007ED290F86C1000297AD0012978D190F811
:105DD0000011012974D190F80111002970D101211D
:105DE00080F80111002157F82400D0E9032313445F
:105DF000027D02F00102D21D9D184268D36FC3F3E9
:105E00008003002BFAD090F80421A2B1384A13681D
:105E1000491C90F83B20102A06D08268B3FBF2F2AE
:105E20006A43B1EBC21FF3D957F8240070300AF06F
:105E3000B7FE85B226E0B0F82480C58C001D2AF696
:105E40005DFC57F8240041F2883300EB0801491B40
:105E50008031001D2A462BF684F9E5E757F8240027
:105E60000122703069460AF0B0FE57F824004068FD
:105E7000C16FC1F340010029FAD09DF80010016004
:105E80006D1EADB2002DE9D157F8240070300AF034
:105E900087FE0028C8D1306841694906FCD5EFF378
:105EA0001085012080F3108857F8240070300AF024
:105EB00077FE68B1EFF31081012080F3108800E0D5
:105EC00011E03068426842F08202426081F310883B
:105ED00057F82410002081F8000157F8241081F8A9
:105EE000010185F31088BDE8F88300004C9C002078
:105EF000600300202DE9F04105460F46002D06D035
:105F00002AB12C78062C04D3E820BDE8F081E520E6
:105F1000FBE7384E05F1580046F82400D2E900317D
:105F20000A46703019460AF026FE291D286D0CF02D
:105F30007DF80028E9D156F82410281D486656F847
:105F40002400076056F824001822083005F14001AB
:105F5000FCF708FD284856F8241000EBC4056868D3
:105F6000486056F82400001D05F0AEF856F82400ED
:105F7000001D05F0C5F8204801220321103809F062
:105F80002DFD56F82410012081F86C0056F82410DD
:105F9000002081F8000156F8241081F8010156F81C
:105FA000241081F8020156F8241081F803011349E6
:105FB0000C200BF07FFA12490D200BF07BFA1149EF
:105FC00034200BF077FA104935200BF073FA0F49A3
:105FD00036200BF06FFA0E4937200BF06BFA95F96B
:105FE000010021F6D7F995F9010021F6F1F9002019
:105FF0008BE700004C9C0020484321001141200009
:106000002141200031412000414120005141200028
:10601000614120002DE9F04104461A4D55F8240055
:1060200070300AF0BDFD82B2164600277AB155F8ED
:10603000240090F80111012909D0802A0ED300F123
:106040008001703080220AF0C0FD80260BE055F8F8
:10605000240080F800710020BDE8F08100F180018B
:1060600070300AF0B2FD55F8240080F8047155F83C
:106070002400324600F18001001D2BF689F900282A
:10608000EAD1E9E74C9C002070B5062801D3E8204E
:1060900070BD104D55F8204064B194F86C604EB15D
:1060A00051B14AB15E1C09D044F62066B34205D90D
:1060B000E42070BDE52070BDE42070BD002684F8AA
:1060C000026155F82000001D2BF64BF80028F4D192
:1060D00070BD00004C9C00202DE9F84307460C469B
:1060E000904604F1080520468EF660F80346344ECB
:1060F00070680021A7F58042DFF8C8C0B2F5804F74
:1061000003D2DCF80010401A0121E218824202DDBD
:106110000520BDE8F8833068421EC2F30B02821AE4
:1061200002F6FF72C2F3073211B1DCF8001000E092
:106130000021DFF894C0DFF89490DCF800C0D9F8B3
:106140000090ACEB090C96F80990A2EB09020CEB5D
:10615000C202101A401A001FE918814229DD0025E9
:106160004FF4004911231F2249462846009571F635
:1061700075FA0021084603F0DBFE40B113231F220D
:1061800049460020009571F669FA0F20C1E7707A40
:1061900005F0ECFB0028BCD112231F2249460095D4
:1061A00071F65CFA424621463846BDE8F8430CF0E9
:1061B00095BA424621463846BDE8F8430CF08EBAFF
:1061C00090470020B8350020C4350020BC350020A1
:1061D0000948006800280DD090F82E10012909D137
:1061E00090F83000FF2805D24FF03041086840F0A9
:1061F0008060086070470000400C002010B586B039
:10620000044668466EF68EF99DE80E0003A80EC09F
:106210000B4A891C21F07041516010466EF670FBEC
:1062200007486EF6E1FB207F002806D1054991F86A
:106230000101054A01EB0010426006B010BD0000EC
:106240008C290020A029002089D7200010B506F055
:10625000F9FCBDE8104003F0A1B8000010B58CB007
:1062600008A80BF0ABFBBDF8221009989DF821207F
:10627000CDE904109DF820302EA04FF4BC71CDE97B
:106280000232CDE90010354B35A23BA10220FFF7C9
:10629000ADF90AA87CF6ACFB044654B114222F4990
:1062A0000E3103A8FCF75EFBADF8104003A8FEF723
:1062B00071FD9DF828009DF82910CDE906109DF884
:1062C0002A209DF82B30CDE904329DF82C109DF842
:1062D0002D002BA240F27D13CDE90032CDE9020161
:1062E0001E4B1FA224A10220FFF780F92FA04FF41C
:1062F000C271CDE90010194B19A21FA10220FFF7AE
:1063000075F90BF025F802F06FFC314900207CF69E
:10631000A5FD0446002C0AD014221049223103A8FE
:10632000FCF720FBADF8104003A8FEF733FD0CB0DE
:1063300010BD0000476F6F64697820424C452053C0
:10634000444B205625642E25642E25642028636F37
:106350006D6D69742025782900000000A246210097
:106360002E2E5C5372635C757365725C7573657217
:106370005F6170702E6300004E4F5F544147000014
:106380004C6F63616C20426F61726420253032581B
:106390003A253032583A253032583A253032583A78
:1063A000253032583A253032582E000054656D7031
:1063B0006C617465206672656572746F73206578B0
:1063C000616D706C6520737461727465642E000079
:1063D000A48F0020002070470020704710B502F005
:1063E000F3F900F017F80AF017FD09F077FD0BF04C
:1063F00069F80BF0D5FE07F0B3F805F0C1FC0AF020
:106400002FFD0AF035FD05F0B1F8BDE810400AF0A7
:10641000F5BC000010B50549054803F059FFBDE87B
:1064200010400449044803F053BF000009C920008C
:10643000E1F20400D57E20009DDD08002DE9F04149
:106440003D4C6FF00200C4F898003C490125280635
:1064500008603B4900200860394A1C32106840F04F
:1064600002001060106840F001001060106820F019
:10647000020010600B1F186840F0010018601868D7
:1064800020F0020018602E4834380168C1F3004142
:106490000029FAD12A4940F2AA2638390F6866F352
:1064A00001070F600E6826F00C0646F008060E6025
:1064B0000E6826F0C00646F080060E60204940F2C5
:1064C000FF3740390E6867F301060E600E6826F04C
:1064D0000C0646F00C060E600E6826F0C00646F06C
:1064E000C0060E6005600168C1F300410029FAD1C1
:1064F000106820F004001060186820F00400186094
:10650000106840F004001060186840F00400186043
:1065100001200BF05EF804F52074206820F04000A4
:106520002060206820F010002060206820F020000B
:106530002060BDE8F081000000A0004084E200E09F
:10654000C4A4004010B506F06DF806F019F802F08A
:10655000DBFA05F0FDFF06F067FFBDE8104006F02E
:1065600007B800000F49086820F0040008600D48D3
:106570002030026822F0040202600A6842F002023F
:106580000A600A6822F001020A60016841F0010114
:106590000160016841F002010160016821F0010120
:1065A00001607047C0A4004070B50BF0EDF940F2F7
:1065B0001A4120B140F24C400BF056F803E040F293
:1065C0002E400BF051F80D4CA07850B1E0880BF044
:1065D0005BF8054620890BF057F829460BF09AF92D
:1065E00005E04FF461714FF47A700BF093F9BDE858
:1065F000704002484A3008F02BB900004892002051
:1066000010B50446002C0CD0204600F05BF90028A1
:1066100007D104494968002903D02046BDE810404D
:10662000084710BD849000203EB5028840F209332F
:10663000A2F209314FF480749A421AD037DC40F24A
:106640000D23A2F20D219A4213D01ADC40F2062348
:10665000A2F206219A420CD00CDC40F20221A2F2F6
:1066600002208A4205DAA2423DD0B2F5007F00D076
:10667000421C3EBD0329FCD2DFE801F0023948008C
:10668000F7E7F52950D00ADC0429F2DDF329F0D030
:10669000F429EED1BDE83E400830FEF7F1BAF639F4
:1066A0000429E6D2DFE801F002020247E1E7B1F592
:1066B000FF7F47D007DC40F2F712A1F2F7109142BA
:1066C000D7DAF9293EBD40F2F742A1F2F7409142F4
:1066D000F8DAB1F57E7FF5D002DCA1F2F7213EBDFC
:1066E000A1F2F9313EBDBDE83E40FFF7B7BD40889D
:1066F0000028F7D018A1B822CDE9002102901F4B45
:106700001FA225A10320FEF771FF3EBD007A0028DD
:10671000FBD123A0BF21CDE90010184B18A21EA168
:106720000320FEF763FF3EBD017A007903B0BDE8A8
:106730003040FEF7EDBA007903B00121BDE83040EA
:106740007DF61EB8017A0129EDD18189007903B067
:10675000BDE8304080F6F6BE416476657274696EBD
:10676000672073746172746564206661696C656426
:1067700028305825303258292E000000924621003A
:106780002E2E5C5372635C757365725C75736572F3
:106790005F6170702E6300004E4F5F5441470000F0
:1067A0004164766572746973696E672074696D659A
:1067B0006F75742E00000000044A52F8200050F853
:1067C0004B2F0A60808888807047000014190020D1
:1067D00070B504460E46002C05D00F4885F6E4FB44
:1067E000054615B113E0022070BD142093F676FA29
:1067F000014671B10C6120680088C880CE60074AEC
:1068000010780871401C1070101D05F06FFC2846B0
:1068100070BD102070BD0000E8462100709100207E
:1068200070B57BF6D5FD00200A4901230A4C0A68A1
:106830000CE000EBC00101EB001112F83150012D0A
:1068400002D102EBC1014B72401CC0B221788842D8
:10685000EFD370BDA0340020D035002000B5AFB01C
:10686000094901200870FF22B82101A8FCF7ACF803
:106870004FF48070ADF804000020ADF8060001A8C8
:10688000FFF7BEFE2FB000BD8490002000214FF026
:106890003040C1608161C0F8D011C117416101620F
:1068A000C0F8D81103496FF4806008600220FDF73A
:1068B00092BC000084A000400149002001F0DABA37
:1068C00009C9200010B50446002C22D000212288DE
:1068D00040F20253A2F202509A4279D033DC40F2E5
:1068E0000643A2F206409A425DD01BDC40F202430E
:1068F000A2F202409A424ED00DDCA2F54072013A5B
:106900003DD0012A3BD0FF2A41D0B2F5807F55D13E
:106910003FE0002010BD01283FD002283FD00328CF
:106920004CD13EE0042846D006DC01283DD00228A8
:106930003DD0032842D13CE005283ED0FA2842D081
:10694000FB283BD144E0082847D007DC082835D293
:10695000DFE800F0343E3E3E3E3E3E430C283CD055
:1069600006DC092839D00A2837D00B2826D134E094
:106970000D2832D00E2830D0FF281FD132E020461B
:1069800003F076F9204602F0FFFE002010BD2189B9
:1069900014E0218912E0218910E061890EE0218A4A
:1069A0000CE021890AE0618908E0A18906E061899B
:1069B00004E0A18902E0218A00E061892046BDE867
:1069C000104003F023BA2046BDE8104003F0CCB8D5
:1069D0002046BDE8104003F033B82046BDE8104023
:1069E00002F02CBF204602F023FE002010BD000064
:1069F00070B50446002C1CD00225114E707A8442DA
:106A000010D0304690F90610ACB10320C91CB1710A
:106A10000C490A6800EB92030A6863F389020A6072
:106A20000AF08CF974720849086C65F387100864E1
:106A300070BD0025E1E76FF00200C91EB171E7E704
:106A4000D8930020201101B0002001B02DE9F041C1
:106A500005460E4614461F46204600F033F83B46D6
:106A6000224631462846BDE8F04184F69FB82DE91C
:106A7000F04105460E4614461F46204600F022F817
:106A80003B46224631462846BDE8F04184F6C4BA6A
:106A90002DE9F04105460E4614461F46204600F0FB
:106AA00011F83B46224631462846BDE8F04184F6BF
:106AB0001BBB000002490878FF220A7070470000E3
:106AC0003894002010B5C0B283F64CFB014914384D
:106AD000087010BD3894002010B515210A4809F03F
:106AE0008BF805210848A83009F08CF801210648E8
:106AF000083809F07BF8FFF771FCFFF723FDBDE8CC
:106B00001040FFF7A3BB0000E08D00200A460146BD
:106B10000148007907F030BB808D002030B58568D2
:106B2000027B002D02D0002001210CE0104630BD78
:106B3000CB0801F00704EB5CE340DB0701D0401C0D
:106B4000C0B2491CC9B28A42F2D830BD00230849FC
:106B5000496808E00A89824204D84A89824201D3FE
:106B6000CB6802E009680029F4D11846704700009C
:106B70007091002001460548406803E002798A428E
:106B800002D000680028F9D1704700007091002001
:106B900070B5AEB01F4E7078FFF7ECFF04462000D2
:106BA00014D02169E08809680880206981F66CFAB0
:106BB0000546FF22B8216846FBF706FF40F20C406D
:106BC000ADF80000ADF802501DB113E00C202EB05E
:106BD00070BD2069FFF7A2FF02462069016809889D
:106BE00021810068008810446081ADF80810608938
:106BF000ADF80A00E16809B1684688477078401C22
:106C0000C0B270703178884201D100207070E8B253
:106C1000DDE700007091002010B5084A1378002BC2
:106C200001D00F2010BD31B150600448083000F091
:106C300013F8002010BD022010BD00008490002039
:106C400070B504460D46FFF747FF29462046BDE8CC
:106C50007040FFF7E1BF000070B504460D46FFF736
:106C60002BFE074901200AF025FC064902200AF004
:106C700021FC29462046BDE8704085F61BBB00007C
:106C80009D1708003D16080010B500F08FF8BDE80C
:106C9000104000F069B8000010B51248016821F0FA
:106CA000070141F0040101600A2008F6AFFC0D481D
:106CB0008438016821F4807101600121002023F6ED
:106CC0004BFF012019F6EAFC0749022008700AF080
:106CD00067FB064932200AF0EDFBBDE81040322088
:106CE000FDF797BA90A8004014920020E73F2000DB
:106CF00010B519480068C0F30B001749083109683E
:106D000021F07F41401C00EE100ADFED140AB8EEBE
:106D1000400A60EE200A00EE101A1149B8EE400A4F
:106D200080EE801AB6EE000A31EE000ABCEEC00A10
:106D300010EE100A486007F04FFD0AF05DFE0948AA
:106D4000016841F48071016006488430016821F0D7
:106D50000701016010BD000004E400400024F44B72
:106D6000149200200CA8004000B587B003218DF8D4
:106D700004100220029005228DF80C2001208DF8CD
:106D80000D0000238DF80E308DF8101005908DF851
:106D900018208DF819008DF81A00034A022101A865
:106DA000FEF73EFB07B000BD1D54200000B587B0C4
:106DB00000F01EF803208DF800001D208DF816004D
:106DC00001208DF817008DF818008DF81900044A7D
:106DD00004496846FEF7DEFBFDF7D8FE07B000BDAC
:106DE000E96D2000556E20000320FEF7E1BF000092
:106DF0001CB5144800904FF48060019012480322A3
:106E000002704FF4E1310164426400218164C16485
:106E100001650123436501742024446142740376B3
:106E200001711023836042710173084941638163DA
:106E3000022180F83C1080F83D206A460449FFF7A3
:106E400059F81CBD40950020409900200090014059
:106E5000AD5D20000A4601464FF47A730320FFF728
:106E600013B90A2804D840F6641101EB40007047BA
:106E7000242804D840F6661101EB4000704725280D
:106E800004D0262805D04FF41B60704740F66210EE
:106E9000704740F67A107047A0F50010B0F5005F1B
:106EA00001D201207047002070470000012181407D
:106EB000044842688A4342604068002801D192F643
:106EC00033BC704730940020052110F1190F01DC0C
:106ED000022110E000F114020F2A01D803210AE078
:106EE0000F2801D8042106E0A0F11402192A02D9C2
:106EF00032280CDB062106480268C2F303328A42BC
:106F000005D0026822F4704242EA01310160704704
:106F100014A8004001494861704700001492002005
:106F200010B50021084623F617FE012019F696FB3E
:106F30000248816821F48071816010BD00A000408A
:106F400010B514480068C0F30000002807D01148AD
:106F500008380068C0F3000008B10AF079FA0E485A
:106F60000068C0F3000038B10B4808380068C0F36F
:106F7000000008B100F032FD0AF0F8F9002807D04F
:106F800004F032FB002803D0BDE81040FFF7C8BF73
:106F900010BD000008E4004008E5004010B50AF00C
:106FA000E5F920B104F020FB08B1012010BD00205C
:106FB00010BD10B50AF06CFA00F0BCFC10BD10B5A5
:106FC00003F0D2FD06F0C6FF08F000FDBDE810405A
:106FD00000F0AEB82DE9FC4104468846164D4FF648
:106FE000FF76164F12E02968082201EB003069464F
:106FF00085F610FC082802D01020BDE8FC81BDF801
:107000000000B04208D12078401C20702078797AA6
:107010008842E8D30020F0E709489DF80010C170CD
:10702000BDF8021081809DF8011088F800102178C9
:1070300041700020E1E70000BC35002090470020AF
:10704000C835002010B51248016821F000410160E8
:107050000F23011D0A6863F31F720A600A6822F495
:10706000E07242F4C0720A60016841F000410160C0
:107070000848016841F001010160074931200AF028
:1070800019FA06494FF40030C1F8000110BD0000A4
:1070900004A9004088E20040F13F200004E000E045
:1070A000F8B5EFF31085012080F3108807200090D9
:1070B0006846FCF7F1FF0220FCF7F6FF322008F6E5
:1070C000A5FA0B4C206840F002002060094E708940
:1070D00008F69CFA206820F002002060B08908F6CB
:1070E00095FA9DF80000FCF7DFFF85F31088F8BDE6
:1070F00004A90040AC92002030B54FF0FF330022CD
:10710000064C07E0855C5D40EDB254F8255085EAF9
:107110001323521C8A42F5D3D84330BD284821009E
:1071200008B500906A460121092082F661FF08BD7A
:10713000024901480860704721821000CC050020F8
:1071400010B5044601216068017010486368027838
:107150005A7002886368120A9A7002686368120C97
:10716000DA7000686268000E1071606841716168D1
:107170002822891D064803F02FFE228836216068E8
:1071800086F6EAF803490020087010BDE0B9002037
:10719000002020008037002010B54068104C007897
:1071A000012816D00BF046FA0E48E0620AF0A8F863
:1071B0000D4C4FF4805120468DF68AFB3022084951
:1071C00020468DF6C5FB0AF0B3F8BDE8104003F089
:1071D0004BBE0648E06206490020087010BD000062
:1071E000E0B90020424E4253003020004259424450
:1071F0008037002070B504460D46164630211748EA
:10720000FBF70CFC0CB11648446015493246283196
:10721000134885F66BFF11480560124A01210020D2
:1072200086F6C2F8104A2321072086F6BDF80F4AD9
:107230002421082086F6B8F80D4A2521092086F673
:10724000B3F80C4A41211C2086F6AEF80A4A4221C6
:107250001D2086F6A9F8002070BD0000E0B90020CE
:10726000A08D0020F1A12000B1ED20006DEC2000E8
:1072700065EB2000997120004171200010B586F661
:1072800021F8BDE8104000F0BDBCFFF7F7FF642017
:107290000BF0AEF8F9E7000008B50649002800D069
:1072A0008861FF20087104480090684606F0CAFF14
:1072B00008BD0000808D0020F5E020000249014853
:1072C00008607047AD7A1000440D002001200C4981
:1072D0000968002901D0002070470A49CA690AB12B
:1072E000002070478A690AB100207047044A28329A
:1072F00012688968491E8A42F7D10220704700004F
:10730000E8BB0020EC8E002010B592F617FC002898
:1073100000D0FEE710BD00000148408B7047000020
:107320007445002000B585B00021019102910391C0
:107330000491134A537E127E1B0243EA004010431D
:107340000090019102910391049102910D480190E6
:1073500001A803F04FFC01A803F04EFC01236A468C
:107360004A2101A803F0A2FC0F23054A442101A8E9
:107370001BF628FE01A803F03DFC05B000BD00008F
:10738000744500200064014070B506460C46154661
:107390006FF4004010EAC43F05D040F273420AA1E6
:1073A0000FA000F6BBFCE80B05D040F2744206A12A
:1073B0001AA000F6B3FC94204643274845EAC4319E
:1073C0003044A0F8661170BD72665F6764785F62D2
:1073D000616C695F62315F70617463682E63000085
:1073E00028282875696E7431365F74297278776938
:1073F0006465203C3C203135292026207E282875D4
:10740000696E7431365F74293078303030303830FE
:1074100030302929203D3D203000000028282875E3
:10742000696E7431365F7429727877696E737A2069
:107430003C3C2030292026207E282875696E743136
:10744000365F742930783030303037464646292947
:10745000203D3D2030000000008000B0024928227D
:107460000248FBF73ABA000000482100008100B052
:1074700000B500F00BF85DF804EB04F045B900002E
:107480000148007870470000E44D012030B5084CF9
:10749000012525706060E2602361A1600548806875
:1074A000884201D2081A00E0401A606130BD000035
:1074B000E44D01203092002010B504F0FFF804469E
:1074C00018210548FBF7AAFA034A0021117020464B
:1074D000BDE8104000F046B9E44D0120F0B4044688
:1074E0000E462C482C4FB9680578026244628C42E3
:1074F00001D9631A00E00B1BFF689F4206D31346B5
:1075000032462146F0BC0020FFF7B2BF87699F4298
:1075100001D98361C261012D0AD0022D27D0032D2C
:1075200036D1134632462146F0BC0020FFF7A0BFFB
:1075300044618C4203D90169491EC16002E00169BE
:10754000491C8160D0E90212914209D211444908D4
:1075500001610121017001693046F0BC00F01EB8E4
:107560000221017081683046F0BC00F017B8C16993
:10757000914206D1134632462146F0BC0020FFF767
:1075800077BF03210170C1693046F0BC00F006B836
:10759000F0BC70478C4D012030920020054A936A60
:1075A0005B1C93628AB2C1B20348044B406804F08A
:1075B00029B800008C4D012030920020DD7420009D
:1075C00070B505460D4C2C212046FBF727FA00200C
:1075D000A06040F2FF10E060FF2222614FF0FF3018
:1075E000A061A06A401CA062012020700448E9B29A
:1075F000044B4068BDE8704004F004B88C4D012095
:1076000030920020DD7420002DE9F84307460D4636
:1076100090462E4C207801280BD0022813D0082049
:10762000E06101B043462A463946BDE8F043FFF722
:107630001FBFE76040F2FF1121612846BDE8F84313
:10764000022200F079B8002600966761684600F0D3
:107650003FF870B1012810D002281FD003282DD088
:107660000720E06143462A463946FFF701FFBDE89F
:10767000F8832846FFF7A4FFF9E70F2D06D231461D
:10768000A6600122681C00F057F8F0E70520E061D1
:1076900043462A463946FFF7EBFEE8E735B1A660D8
:1076A00001220021681E00F047F8E0E70620E061B3
:1076B00043462A463946FFF7DBFED8E70098E061EB
:1076C00043462A463946FFF7D3FED0E76C4D0120EA
:1076D00010B5174B17490A698968154CDB6864694E
:1076E0008B4203D98C4201D9022010BD8B4203D2B8
:1076F0008C4201D2012010BD8B4201D95B1A00E0FF
:10770000CB1A8C4201D9611A00E0091B934203D3C2
:10771000914201D3002010BD934201D2022010BD3E
:10772000914201D2012010BD02210160032010BD51
:107730006C4D01203092002030B4074B9C69641CD2
:107740009C6158601A708AB2C1B20448044B406808
:1077500030BC03F057BF00006C4D01203092002078
:107760000976200070B50546064C20212046FBF71F
:1077700055F90021A1602846BDE870400122FFF7BD
:10778000DBBF00006C4D0120F8B50E461F4C0025F4
:107790000095E169491CE1616660A260E1682161D0
:1077A000E0601B498B68834201D2C01A00E0181ABE
:1077B0006169814201D96061A261684600F02AF8DE
:1077C00058B101280ED0022814D0032818D00098F0
:1077D000A062204600F0BFF8F8BDA562204600F088
:1077E000BAF8F8BD012084F820003046A16900F005
:1077F00077F8F8BDA1683046491C00F071F8F8BD73
:10780000A1683046491E00F06BF8F8BDB84D012064
:10781000309200202DE9F0432F4A304FB9680025FF
:107820000026D3688B4201D95C1A00E0CC1AFF68AD
:10783000A74202D30020BDE8F083D2F82480B8F13B
:10784000010F10D092F82040012C0ED0224CD2F81B
:107850001CC04FF00109A769A468C4450BD3A74217
:1078600005D10020E7E70020E5E70020E3E782F804
:1078700020900120DFE7BCF1010F11D9D2F810C030
:107880008C4501D98B4203D38C4509D28B4207D951
:10789000A74201D10020CEE782F820900120CAE75C
:1078A0008B4201D9012600E0012545B1B4F5FF7FE7
:1078B00003D9092101600420BDE70220BBE736B1EE
:1078C0000CB10320B7E70A2101600420B3E70B21C4
:1078D00001600420AFE70000B84D01203092002085
:1078E0008AB2C1B20248034B406803F08BBE00006D
:1078F000309200208977200070B504460E46154668
:107900002C210948FBF78AF8074B002183F8201047
:10791000491E59615C620548AAB2F1B24068BDE8EF
:107920007040034B03F06EBEB84D01203092002032
:107930008977200010B503F047FE00280AD0FFF732
:107940009FFD18B1BDE8104000F028B8BDE8104018
:10795000FFF7B2BD10BD00B500F004F85DF804EB10
:1079600003F0D2BE0B4901220A71826A8A60C269A1
:10797000CA60C2680A6142684A6182688A61064ACE
:10798000C0689268904201D9801A00E0101AC8615C
:1079900070470000FC4D0120309200202DE9F0419D
:1079A00003F08CFE074603F09BFE8046094C2668D8
:1079B0000948456920212046FBF730F8761C2660EF
:1079C00000202071424639462846BDE8F041FFF7C5
:1079D00093BF0000FC4D01203092002010B50E4CEA
:1079E0002069401C206103F095FEE06003F066FE14
:1079F000606003F075FEA060084A002111606161BB
:107A0000E3692BB182B22179E068BDE810401847E4
:107A1000BDE8104003F078BE4C4D012000E5004069
:107A200070B504460E4609F06BFC32460B49204601
:107A300085F698FA09F07CFC0020094C094B09E016
:107A4000251805F580551A6895F800141144196039
:107A5000401C80B2B042F3D370BD0000E0B50020FE
:107A6000E0A10020C83600202DE9F05F00222B4D58
:107A70002889E988884201D2012600E00026DFF843
:107A8000A0804FF0010996B300270024DFF894A0EE
:107A90004FF4805B2989DAF8000000EB0130594689
:107AA00085F6CAF940B12889401C80B22881E9884E
:107AB000884203D3002604E0012702E0641C142C52
:107AC000E8DB022347B1012200F0AAF888F8003071
:107AD000052088F8010004E0012288F8009088F869
