:020000040020DA
:1020000000000820592020006120200001601000FD
:10201000F7212000ED212000FD212000000000001C
:10202000000000000000000000000000156010002B
:102030006B202000000000006D2020007120200097
:10204000DFF810D000F064FC00F062F800480047B0
:1020500091CB200000000820064880470648004732
:10206000FEE7FEE7FEE7FEE7FEE7FEE7FEE7FEE748
:10207000FEE70000BD2A2000B1CB20000649074A38
:102080000868504343F23902104408604008704722
:102090000149086070470000508300206D4EC64122
:1020A00040EA01039B0703D009E008C9121F08C0DA
:1020B000042AFAD203E011F8013B00F8013B521E5A
:1020C000F9D27047D2B201E000F8012B491EFBD2D1
:1020D00070470022F6E710B513460A460446194633
:1020E000FFF7F0FF204610BD421C10F8011B00292D
:1020F000FBD1801A704730B504460020034600E04B
:102100005B1C934203D2E05CCD5C401BF8D030BD39
:1021100070B5054C054D03E0206820448047241D20
:10212000AC42F9D170BD000010252100142521001A
:1021300030B4044696230800214604D0B62330BCB0
:10214000002200F0CEBA20460021F8E70EB540F29A
:10215000334102910021CDE900110A460B4600F0FF
:10216000FDFA03B000BD0EB540F2334202920022E8
:10217000CDE90022134600F0F1FA03B000BD20F0D3
:102180000040C20DC0F3160040F400007F2A02DABE
:102190000020014670470021962A03DCC2F1960216
:1021A000D0407047963A00F062BA70B5C1F30A5257
:1021B00001F000450024C1F3130140F2FF3341F464
:1021C00080119A4201DA002070BD40F233439A42F6
:1021D000A2F2334203DC524200F058FA00E0904091
:1021E0002C43F1D0404270BD03F092BDFEE710B524
:1021F00004F0E2F810BDFEE728F6D0BCFEE7704719
:1022000058585247010000002655000000202000C9
:10221000002020007FED9247010100000000000037
:1022200000000000000000000000000000000000AE
:10223000000000000000000000000000000000009E
:102240002DE9FE4F804681EA0300C00F0C46009046
:1022500021F0004123F00045B8EB0200A94105D26E
:102260004046214690461C460B46024623F000405D
:10227000104347D0270DC7F30A00C3F30A51029059
:10228000401A019040286BDAC3F3130040F4801B1E
:102290000098924620B10023D2EB030A63EB0B0BAC
:1022A00001985946C0F14002504600F0E0F9064658
:1022B0000D4650465946019A00F0F8F910EB080017
:1022C0006141002487EA115284EAE7731A4340D03F
:1022D000009A62B3019A012A4FEA075215DC001BEB
:1022E00061EB02014FF0004202EA0752CDE90042E1
:1022F000001C41F5801132462B4600F02FFA03B046
:10230000BDE8F08F40462146F9E7001B61EB020172
:10231000001C41F5801300185B412018A2F500173E
:1023200047EB030140EAD570B6196D4111E06D0825
:102330004FEA360645EAC0754FEA0752001B61EBCB
:102340000201001C41F5801149084FEA30000019D4
:10235000514132462B4603B0BDE8F04F00F0EFB9D3
:102360000098012240000023D0EB020263EBE073EF
:10237000009821464FEAE074B8EB000061EB0401DD
:10238000E9E783F000435BE781F0004158E72DE97E
:10239000FE4F81EA030404F0004421F00041009460
:1023A0004FF0000B23F0004350EA01045ED052EAE4
:1023B00003045BD0C3F30A54C1F30A552C44A4F2BE
:1023C000F3340194A0FB0254C1F3130141F48011D2
:1023D000C3F3130343F4801301FB024400FB034ED9
:1023E000840A970A44EA815447EA8357A4FB0768A2
:1023F00002958D0A05FB07854FEA932C04FB0C54CC
:102400002705029D4FEA065847EA1637B5EB08053F
:102410006EEB070C870E920E47EA811742EA831291
:10242000A7FB0201B6EB0B0164EB00042B0D43EAA2
:102430000C335E1844EB1C50DA465146E7FB0201B0
:10244000C5F313044FEA0B3343EA14534FEA043243
:10245000019C43EA0603A4F10C040294009CCDE91C
:1024600000B400F07BF903B0BDE8F08F0020014616
:10247000F9E72DE9F04D81EA030404F0004B21F067
:10248000004514464FF0000A23F0004150EA0502CF
:1024900020D054EA01021DD0C5F30A570246C5F305
:1024A0001303C1F31300C1F30A5640F4801543F43B
:1024B0008013A7EB0608101BD64608F2FD3873EB15
:1024C000050002D308F1010801E092185B41B8F160
:1024D000000F03DA00200146BDE8F08D00204FF424
:1024E0008011064684460EE0171B73EB050705D3E3
:1024F000121B63EB050306434CEA010C49084FEA43
:10250000300092185B4150EA0107EDD152EA030016
:1025100012D082EA040083EA0501084305D0101BAB
:10252000AB4106D20122002306E000224FF0004317
:1025300002E06FF0010253101AEB06004CEB085159
:1025400010EB0A0041EB0B01BDE8F04D00F0F7B8CD
:10255000C1F30A5210B5C1F3130140F2FF3341F445
:1025600080119A4201DA002010BD40F233439A42B2
:10257000A2F2334203DC524200F088F810BD9040D2
:1025800010BD00F0004230F000400AD0C10D01F54E
:102590006071C0F3160042EA0151C20840071143BE
:1025A000704700200146704701F0004330B421F02D
:1025B000004150EA010206D00A0DA2F56072C1F393
:1025C0001301002A02DC30BC00207047440F44EAAB
:1025D000C104C100E01830BC00EBC25000F078B874
:1025E00030B50B46014600202022012409E021FAE3
:1025F00002F59D4205D303FA02F5491B04FA02F5E0
:102600002844151EA2F10102F1DC30BD2DE9F05F76
:102610000546002092469B46884606468146402451
:102620001BE0284641464746224600F02FF8534615
:102630005A46C01A914110D311461846224600F05E
:1026400016F82D1A67EB01084F462246012000219B
:1026500000F00DF817EB00094E41201EA4F1010413
:10266000DFDC484631462A464346BDE8F09F202A33
:1026700004DB203A00FA02F1002070479140C2F1D9
:10268000200320FA03F3194390407047202A04DB0B
:10269000203A21FA02F00021704721FA02F3D040DB
:1026A000C2F120029140084319467047202A06DBF8
:1026B000CB17203A41FA02F043EAE07306E041FA10
:1026C00002F3D040C2F120029140084319467047FE
:1026D0000029A8BF7047401C490008BF20F0010036
:1026E000704710B4B0FA80FC00FA0CF050EA010414
:1026F00004BF10BC704749B1CCF1200421FA04F4A6
:1027000011FA0CF118BF012121430843A3EB0C017E
:10271000CB1D4FEA00614FEA102042BF002010BCE1
:10272000704700EBC35010440029A4BF10BC704791
:10273000401C490008BF20F0010010BC704710B5D4
:10274000141E73F1000408DA401C41F100019218D4
:102750005B411A4301D120F0010010BD2DE9F04D7D
:1027600092469B4611B1B1FA81F202E0B0FA80F2D2
:1027700020329046FFF77BFF04460F4640EA0A00EE
:1027800041EA0B0153465A46084313D0114653EA17
:10279000010019D0C8F140025046FFF777FF054607
:1027A0000E46504659464246FFF761FF084305D0A2
:1027B000012004E020463946BDE8F08D00200543A5
:1027C00046EAE0762C4337430A986305E40AA0EB17
:1027D00008000022FD0A44EA47540A3002D50020CE
:1027E0000146E9E7010510196941DDE908450019CD
:1027F0006941BDE8F04DA2E72DE9F041054621F021
:1028000000400C46284309D0C4F30A5040F233413B
:10281000884205DD28462146BDE8F0812846FBE7D1
:1028200040F2FE31884210DC0CDB4FEA043040EA13
:10283000155050EA053105D0104804F0004101431D
:102840000020E9E700200146E6E7A0F233404642D7
:10285000C6F1400228462146FFF709FF0746884691
:10286000284621463246FFF711FF43463A46FFF716
:1028700066FF3246BDE8F041FFF7F9BE0000F03FC9
:10288000C1F30A52C1F3130140F2FF3341F4801146
:102890009A4202DA00200146704740F233439A42DE
:1028A000A2F2334202DC5242FFF7F0BEFFF7DFBE76
:1028B00030B5041E71F1000404DB4FF000444042C7
:1028C00064EB0101141E73F1000405DB1C464FF09C
:1028D0000043524263EB04038B4208BF824230BD87
:1028E00030B5041E71F1000404DB4FF00044404297
:1028F00064EB0101141E73F1000405DB1C464FF06C
:102900000043524263EB0403994208BF904230BD3A
:10291000064C074D06E0E06840F0010394E807002C
:1029200098471034AC42F6D3FFF78EFBD024210039
:102930001025210070B58C1810F8015B15F0070305
:1029400001D110F8013B2A1106D110F8012B03E048
:1029500010F8016B01F8016B5B1EF9D12B0705D450
:102960000023521E0DD401F8013BFAE710F8013B99
:10297000CB1A921C03E013F8015B01F8015B521EB5
:10298000F9D5A142D8D3002070BD00000948C16923
:1029900021F00301C161016841F008010160016893
:1029A00021F0080101600448416E21F08001416678
:1029B0007EF6BABE005001B0002001B070B5032011
:1029C0001749096841F38001491C164D00290CD1B3
:1029D00013490C310968C1F3000131B110498C3938
:1029E000096801F00701884303D02869401C286169
:1029F00070BD0D4C206820F001002060206840F080
:102A00000400206009494FF40030086003F08EFD97
:102A1000E868401CE860206840F00100206070BD5C
:102A2000D4A400405080002088E2004084E200E00E
:102A300005280CD2064A116801F4E021B1EB004FE1
:102A400005D0116821F4E02141EA00401060704790
:102A500000A000400249096801F0070101707047B9
:102A600000A0004070B50446072C20D2104E3068FC
:102A700000F00700A04214D0032008F0F5FCF06835
:102A800020F0070545F00100F06000BF00BF00BF67
:102A900000BF204608F0E8FC064850F82400284310
:102AA000F060044804491C3850F82400086070BDE8
:102AB00000A00040801D2100600300200248016842
:102AC00041F470010160704788ED00E00248006841
:102AD000001D06F0F9BC0000808A00200248406812
:102AE000001D06F0F1BC0000808A002002488068CA
:102AF000001D06F0E9BC0000808A00200248C06882
:102B0000001D06F0E1BC0000808A00200248006938
:102B1000001D06F0D9BC0000808A002002484069F0
:102B2000001D06F0D1BC0000808A00200FB4054BC8
:102B300010B503A9044A029800F094FC10BC5DF89B
:102B400014FB00000D6F2000787D00200FB41CB531
:102B50000246002007AC00290BD0491ECDE9002118
:102B6000054B6A462146069800F07CFC009A00213D
:102B700011701CBC5DF814FB933B20000FB4084B94
:102B800010B504A902AA039800F06CFC044602A93F
:102B9000002001F009F8204610BC5DF814FB00008D
:102BA000A93B20007CB5044600201D46164600299E
:102BB0000BD0491ECDE90041044B6A4629463046F8
:102BC00000F050FC009A002111707CBD933B200066
:102BD000002809DB00F01F0201219140400980001C
:102BE00000F1E020C0F88012704700280DDB00F0F3
:102BF0001F02012191404009800000F1E020C0F84F
:102C00008011BFF34F8FBFF36F8F7047002809DB30
:102C100000F01F02012191404009800000F1E020F6
:102C2000C0F800117047002809DB00F01F020121E5
:102C300091404009800000F1E020C0F80011704789
:102C4000002804DB00F1E02090F80004704700F059
:102C50000F0000F1E02090F8140D7047002804DB0D
:102C600000F1E02090F80004704700F00F0000F140
:102C7000E02090F8140D7047002804DB00F1E020FC
:102C800090F80004704700F00F0000F1E02090F889
:102C9000140D7047002804DB00F1E02090F80004D8
:102CA000704700F00F0000F1E02090F8140D70471D
:102CB00002480068C0F30220704700000CED00E0FD
:102CC00002480068C0F30220704700000CED00E0ED
:102CD000EFF31080704700002DE9F0412DED020B5D
:102CE0009FED3D0B2DED028B9FED3D8BDDE90254F9
:102CF000C4F30A50A0F2FF36142E37DA002E18DA89
:102D000053EC102B9DED020B51EC100BFFF798FAD2
:102D100053EC182BFFF7E4FD57D2002CBCBF4FF04B
:102D20000044002551DB54EA050018BF2E4C1BD18E
:102D30004BE02E4820FA06F704EA070028431FD08C
:102D400053EC102B9DED020B51EC100BFFF778FAB2
:102D500053EC182BFFF7C4FD37D2002C03DD4FF4E2
:102D60008010F0400444BC4300252EE0332E07DCE5
:102D7000A6F114004FF0FF3121FA00F73D4206D1D1
:102D80009DED020BBDEC028B02B0BDE8F08153EC6F
:102D9000102B9DED020B51EC100BFFF7F5FA53ECE5
:102DA000182BFFF79DFD10D2002C0DDD142E08BF4F
:102DB000641C09D0C6F13400012101FA00F0284456
:102DC000A84238BF641C0546BD43CDE902549DEDC1
:102DD000020BD7E7000000009C7500883CE4377EBA
:102DE00000000000000000000000F03FFFFF0F00A7
:102DF00010B52DED020B2DED088B84B09DED0C0B65
:102E000051EC100BFFF7F8FC41EC180B9DED0C0B8F
:102E100053EC182B51EC100BFFF7B3FA41EC190BE4
:102E20000D989FED290B10F0004F53EC102B51EC37
:102E3000190B9FED21AB9FED22BB0ED0FFF738FDA4
:102E40000ED953EC1B2B51EC190BFFF749FD1CD28B
:102E500014E000BF41EC180B17E0FFF729FD06D284
:102E600053EC1A2B51EC180BFFF78BFAF2E753ECEB
:102E70001B2B51EC190BFFF733FD06D853EC1A2B23
:102E800051EC180BFFF7DCF9E4E78DED028B9DEDBB
:102E90000C0B18EE901A10EE900A8DED000B61F3FA
:102EA0001E0003909DED020B04B0BDEC088B02B038
:102EB00010BD000000000000000000000000F03F16
:102EC000000000000000E03F000000000000E0BF44
:102ED00002E008C8121F08C1002AFAD1704700207A
:102EE00001E001C1121F002AFBD1704780F3108856
:102EF000704700002DE9F74F07460298DFF888A1D8
:102F0000DFF888814FEA500B5C46019D6048CAF8A3
:102F100000003F20D8F8041060F30501C8F8041041
:102F2000D8F8040020F48030C8F80400DAF8000073
:102F300020F4700040EA0750CAF80000DAF80000F8
:102F400020F4702040EA0740CAF800000D2F05D198
:102F5000DAF8000040F40040CAF800000E2F05D156
:102F6000DAF8000040F48040CAF80000DAF8000007
:102F700040F40050CAF80000DAF8000020F0605079
:102F8000CAF80000DAF8000020F00F0040F003005B
:102F9000CAF80000002000F0CFF8012871D1DAF85B
:102FA000000040F08040CAF80000002008E0D8F897
:102FB000081041F48031C8F80810401C411C05D0AD
:102FC000D8F80810C1F300210029F0D1072000F043
:102FD000B3F8012855D141E000264FF47A7924E076
:102FE0004E451ED9DAF8000020F08040CAF80000F3
:102FF000DAF8000040F00040CAF80000DAF80000FB
:1030000020F00040CAF80000002000F095F80128E8
:1030100037D12049086A401C086205200CF6F6FAF0
:1030200072E701200CF6F2FA761CD8F80800C0F31B
:1030300000200028D4D0D8F8080000F07F02A24277
:1030400000D92246002006E0D8F800102980090C9B
:1030500069802D1D401C9042F6D3A41A002CBBD1D0
:103060000298C00708D0D8F80800C0F30020002854
:10307000F9D0D8F800002880BDE8FE4F002000F00D
:103080005BB8BDE8FE8F000000A8004000E00040F3
:103090000A070807508000202DE9F0410446154832
:1030A0000021C0F8941001214161134D686A134E4C
:1030B000F06200F0010149420140C80512D440F21B
:1030C000011704E044B1641E01200CF69FFAA869C0
:1030D000B84204D1012003E00020BDE8F0810020C7
:1030E0000028EFD00648006870626868B06201206E
:1030F000F3E7000000D01D4200E0004050800020B7
:1031000000A8004009480A49826A4A60094B426A9D
:103110001A60808D00F0010252420240D00503D4B3
:10312000086A20F00100086270470000508000200B
:1031300000E0004000A800402DE9F0410546114F95
:10314000F868C0F30240A84202D10120BDE8F08136
:10315000F86820F007002843F86000244FF6FF7657
:10316000F868C0F30240A84205D001200CF64EFAE0
:10317000641CB442F4D3B44201D10020E6E701203C
:10318000E4E7000000E000402DE9FF5F82B000218D
:10319000DDE90430020DDDF840B0034318D044F6F9
:1031A0001050A2F2FF3242431514119801281FD08B
:1031B000A5EB0B00401C5FEA000A4FF000064E4FE3
:1031C000DFF83891B046504615D5CAF1000413E037
:1031D000119801244AA3012801D16FEA0B0102983A
:1031E000119AC0E90031C0E9024206B0BDE8F09F83
:1031F000CBF10000DFE704460021404A491842EBCA
:103200000450CDE9001012E0E00707D032463B46FB
:1032100040464946FFF7BBF88046894632463B4662
:1032200010461946FFF7B3F806460F466410002C07
:10323000EAD1DDE90401DDE90023BAF1000F06DA85
:10324000FFF7A5F842464B46FFF7A1F805E0FFF768
:1032500010F942464B46FFF70CF904460E46002291
:10326000284BFFF73DFB03D84FF0FF30014607E046
:103270000022254B20463146FEF7E2FFFFF700FB18
:10328000102409E0002C0ADB0A220023FFF7BEF914
:10329000039B30321A55641E50EA0102F2D1641CBD
:1032A000039AC4F111031444119A012A03D0012294
:1032B00008430DD10AE0084304D000204FF0110B61
:1032C000119072E7A3EB0B056D1E0DE05B4504DD6D
:1032D0004FF0000205F1010504E003DA4FF00002AF
:1032E000A5F10105002AECD002981199C0E902313C
:1032F000C0E9004579E70000000014400000F03FFD
:10330000300000000000F0430000E03FF0B506464A
:103310002DED068B89B00D469FED459B202101A820
:10332000FEF7D7FEB0EE498AF0EE698A4248C08BBC
:10333000FEF70CFF9FED411B53EC112BFFF799F8A3
:1033400041EC1A0B102201A93046FFF7D3FD0024EF
:1033500001AF04F1080037F81000FEF7F7FE53EC58
:10336000182BFEF76DFF41EC180B641CE4B2082C1F
:10337000EFD351EC180B9FED330B53EC102BFFF7F1
:1033800006F841EC180B0D2E02D00E2E29D046E087
:103390009FED2E0B51EC100B81F0004141EC190B0D
:1033A0006888FEF7D3FE53EC192BFEF7F0FF41ECD3
:1033B000190B2888FEF7CAFE53EC182BFEF7E4FF22
:1033C00053EC192BFFF755F89FED221B53EC112BF3
:1033D000FFF74FF853EC1A2BFEF732FF41EC190BB5
:1033E0001DE09FED1E0B51EC100B81F0004141ECF4
:1033F000190B6888FEF7AAFE41EC1A0BA888FEF7A5
:10340000A5FE53EC182BFEF7BFFF53EC1A2BFFF76A
:1034100030F853EC192BFEF7BAFF41EC190B09B049
:10342000B0EE490AF0EE690ABDEC068BF0BD000073
:103430000000000000000000B04500200000000077
:1034400000005940000000000000C03F00000000E4
:103450000000004079E9263108AC5CBFB76DDBB6EF
:103460006DDB0E402DE9FF4F95B09B468946064621
:1034700000250FE2252877D100242746F84A0121AC
:10348000059400E0044316F8013F203B01FA03F0E5
:103490001042F7D130782A2811D06FF02F033078FE
:1034A000A0F13002092A16D8059A44F0020402EB72
:1034B000820203EB42021044761C0590EFE759F8B4
:1034C000042B0592002A03DA504244F4005405907C
:1034D00044F00204761C30782E2816D116F8010F1D
:1034E00044F004042A280DD06FF02F023078A0F1A8
:1034F0003003092B09D807EB870302EB4303C718F6
:10350000761CF3E759F8047B761C30786C280FD0D2
:1035100006DC4C2817D068280DD06A2814D104E0A6
:10352000742810D07A280FD10DE044F400140AE07A
:1035300044F4801401E044F440147278824202D1D1
:1035400004F58014761C761C307866280BD013DCCA
:10355000582877D009DC002875D04528F6D04628B1
:10356000F4D047281AD19DE118E0632835D06428AB
:1035700079D0652812D195E1702873D008DC6728CE
:10358000F1D069286FD06E280DD06F2806D1B5E034
:1035900073282CD0752875D0782874D05A4617997E
:1035A00090476D1C75E1C4F30250022809D003282E
:1035B0000DD0D9F8001004280DD00D6009F10409D0
:1035C00067E1D9F80010EA17C1E90052F6E7D9F827
:1035D00000100D80F2E70D70F0E719F8041B8DF86C
:1035E000001000208DF80100EA46012003E059F8A0
:1035F00004AB4FF0FF3061074FF0000102D40DE043
:1036000008F101018846B9420FDA8045F8DB1AF863
:1036100008100029F4D108E008F101018846814230
:10362000FADB1AF808100029F6D105985B46A0EBE2
:10363000080721463846179A00F094FA284400EB10
:10364000080507E04DE029E10DE01AF8010B5A46A4
:1036500017999047B8F10108F7D25B4621463846E2
:10366000179A13E142E00A220092C4F302524FF08B
:10367000000A022A08D059F804CB032A4FEAEC7159
:103680000AD00DE029E02AE009F1070121F0070244
:10369000F2E802C1914609E00FFA8CFC4FEAEC71A6
:1036A000042A03D14FFA8CFC4FEAEC71002907DAA7
:1036B0000A460021DCF1000C61EB02012D2202E040
:1036C000220504D52B228DF80420012203E0E20715
:1036D00001D02022F7E7904659E00A2102E01022AB
:1036E0000DE010214FF0000A00910BE010224FF086
:1036F000000A44F004040827009203E008224FF077
:10370000000A0092C4F30252022A05D059F804CBF1
:103710000021032A08D009E009F1070121F007027E
:10372000F2E802C1914605E01FFA8CFC042A01D19F
:103730000CF0FF0C4FF00008220728D5702806D0A7
:10374000009B83F0100353EA0A0305D00EE04022E9
:103750008DF80420012208E05CEA010206D0302244
:103760008DF804208DF8050002229046009B83F01E
:10377000080353EA0A030AD15CEA010201D1620795
:1037800005D530228DF804204FF001087F1E5828FF
:1037900004D034A003900EA802900DE036A0F9E703
:1037A00053466046009AFEF731FF84460398825CD8
:1037B0000298401E029002705CEA0100F0D102986B
:1037C00006A9081A00F1200A600702D524F4803403
:1037D00000E00127574502DDA7EB0A0000E00020CA
:1037E00000EB0A01009005984144401A0590E0035F
:1037F00006D45B462146179A059800F0B3F90544B4
:10380000002706E001A85A46C05D179990476D1C35
:103810007F1C4745F6DBE0030CD55B462146179A33
:10382000059800F09FF9054404E030205A461799A6
:1038300090476D1C0099481E00900029F5DC08E0B7
:10384000029802995A460078491C029117999047AC
:103850006D1CBAF10001AAF1010AF1DC65E100007A
:103860000928010030313233343536373839616256
:10387000636465660000000030313233343536371A
:1038800038394142434445460000000000F058F9F1
:103890000544761C307800287FF4ECAD19B028463A
:1038A000BDE8F08F620700D4062709F1070222F075
:1038B000070CFCE80223E14603F000485FEA080C2D
:1038C00002D00FF2702C0DE05FEA045C02D50FF21B
:1038D000682C07E05FEAC47C02D00FF2602C01E0A4
:1038E000AFF2700C4FF0FF3823F00043CDF850C01A
:1038F00065280CD006DC452809D046281DD047286D
:103900003DD13DE0662818D067287ED138E00021FF
:10391000112F01DB112000E0781CCDE9000106A980
:103920000EA8FFF731FCDDE90F010E9A039100218B
:10393000009207F1010A04914DE04FF0004000971A
:10394000CDE9011006A90EA8FFF71EFCDDE90F0264
:1039500003920E9B11990022DDF80CA000930492B3
:1039600011B9791C00EB010AB7EB0A0004D4C0F1CD
:10397000FF3007F1010A0490AAEB0700019044E030
:10398000012F00DA01270021112F01DD112000E0B5
:103990003846CDE9000106A90EA8FFF7F5FBDDE9E1
:1039A0000F010E9A0391002104910092BA4621075B
:1039B0000CD40399514500DA8A46BAF1010F05DDAE
:1039C000009AAAF10101515C302908D0B84202DA0C
:1039D00010F1040F06DA0121CDE9011015E0AAF17A
:1039E0000101E9E7002805DC049901440491AAEBF0
:1039F000000102E0411C514500DD8A460499401A4D
:103A0000401C01904FF000400290200704D4019820
:103A1000504501DBCDF8048000208DF84F0002985E
:103A20000DF14F07B0F1004F25D02B200E900298DA
:103A30004FF0020800280CDA404202902D200E9030
:103A400007E00A210298FEF7CBFD3031029007F81B
:103A5000011DB8F10001A8F10108F2DC029800286C
:103A6000EFD1791E0E980870307800F0200040F0F9
:103A7000450007F8020D12A8C01B00F107081498B2
:103A8000007800B1012000EB0A01019801EBE07120
:103A900005984144401A401E0590E00306D45B4659
:103AA0002146179A059800F05DF8054414980078AF
:103AB00018B15A46179990476D1CE00324D55B4610
:103AC0002146179A059800F04DF805441CE004982B
:103AD000002807DBDDE90301884203DD0098405C34
:103AE000179901E0179930205A469047049805F13C
:103AF0000105401C04900198401E019004D12E2025
:103B00005A46179990476D1CBAF10001AAF1010AB3
:103B1000DDDC05E017F8010B5A46179990476D1C3C
:103B2000B8F10001A8F10108F4DC5B462146179AC0
:103B30000598ABE62D0000002B00000020000000DF
:103B40002DE9F041044600251E461746880404D49A
:103B500005E039462020B0476D1C641EF9D5284683
:103B6000BDE8F0812DE9F041044600251E4690464F
:103B7000C80301D5302700E02027880404D505E0DC
:103B800041463846B0476D1C641EF9D52846BDE84D
:103B9000F0814A68002A06D00A68531C0B60107036
:103BA0004868401E486070470A68531C0B601070DC
:103BB000704710B502F0CAFB10BD09F0E5BD70B545
:103BC00004460D46294620460DF0C4F829462046F5
:103BD00008F0C0FF2946204609F0E6F870BD000055
:103BE00030B585B0244830218181202141810025D4
:103BF0000570072181730121417085700246002103
:103C000008467FF62DF804464CB114221B4968463D
:103C1000FEF746FAADF80440684600F067FB174A25
:103C200000211823443A08467EF692FF044654B118
:103C30001422124914316846FEF732FAADF80440F6
:103C4000684600F053FB0D4A17232C3A012100204F
:103C50007EF67EFF044654B1142208492831684696
:103C6000FEF71EFAADF80440684600F03FFB04483A
:103C70000580857005B030BD80DA0020141A21005F
:103C8000F27D002003490A6822F4C06242EA402023
:103C90000860704704A800402DE9F04186B007464F
:103CA00088461546304C0226207801282CD141F652
:103CB0000D02414638460CF0A9FF002824D02868A0
:103CC000C4F80A00A888E081A879207481F634FF3E
:103CD00005464DB11422254901A8FEF7E1F9ADF8DA
:103CE000085001A800F002FB21A040F23721CDE9E5
:103CF00000101E4B29A2183B2EA1032000F016FF36
:103D0000267006B0BDE8F08160780128F9D141F64F
:103D10001402414638460CF079FF0028F1D028689B
:103D2000C4F81100A888A4F81500A879E07581F6F8
:103D300003FF054655B114220C49143101A8FEF7C2
:103D4000AFF9ADF8085001A800F0D0FA1BA04FF46D
:103D50001171CDE90010054B10A2183B15A10320ED
:103D600000F0E4FE6670CCE7EC7D0020F01B210043
:103D700053746F70207363616E6E696E6720666F37
:103D80007220436F6E6E656374696E67204852538C
:103D90002070726F6365647572652E002E2E5C5301
:103DA00072635C757365725C757365725F61707068
:103DB0002E6300004E4F5F544147000053746F70F4
:103DC000207363616E6E696E6720666F7220436F49
:103DD0006E6E656374696E67205253435320707230
:103DE0006F6365647572652E0000000006460F461D
:103DF000154672B63846FEF777F9402801D94020BB
:103E000002E03846FEF770F980463046FEF76CF95E
:103E1000402801D9402002E03046FEF765F904460B
:103E20009C211048FEF755F9424639460D48FEF7E9
:103E300037F90C48224631465C30FEF731F9094823
:103E40004FF0AA31016445644FF0BB3181644FF0FB
:103E5000CC3101654FF0DD318165002000F004F8C0
:103E6000FEE700003C8F002030B5ADF20C4D04465B
:103E70004FF4806103A8FEF72CF9184D202085F837
:103E80003F0085F89B003CB12846012C436DC26C75
:103E900009D0022C0CD00FE0104A11A15C3203A80B
:103EA000FEF76CFE08E011A103A8FEF767FE03E031
:103EB00016A103A8FEF762FE03A90BA2686CCDE968
:103EC0000121009018A3054A18A1002000F02EFE41
:103ED00000F0F8FD0DF20C4D30BD00003C8F0020CD
:103EE0005B4552524F525D20257300005B57415293
:103EF0004E494E475D20506172616D303A25642C09
:103F0000506172616D313A25640000005B5041528E
:103F1000414D5D20506172616D303A25642C5061D5
:103F200072616D313A256400000000006170705FBD
:103F30006173736572742E6300000000014895F68A
:103F4000AFBC00007C7D002006460F4690461D4613
:103F500072B64046FEF7C8F8402801D9402002E07A
:103F60004046FEF7C1F804469C210D48FEF7B1F823
:103F7000224641460A48FEF793F809484FF055316A
:103F8000016445644FF066318164C6644FF0773157
:103F900001654765C94381650220FFF765FFFEE7BC
:103FA0003C8F00202DE9F04106460F4690461D4605
:103FB0004046FEF799F8402801D9402002E04046EB
:103FC000FEF792F804469C210D48FEF782F822463F
:103FD00041460B48FEF764F809484FF0113101647F
:103FE000456449008164C6644FF03331016547651B
:103FF0004FF044318165BDE8F0410120FFF734BF47
:104000003C8F0020FEB504460E462E4D307C002825
:1040100046D12878032702281FD12BA0CDE901041F
:1040200040F26F2100912F4B2FA235A1032000F009
:104030007DFDEC702F70204606F0D4F901210020A0
:1040400002F028F830A040F27721CDE90010254B8E
:1040500025A22BA1032000F069FD687802281FD15A
:1040600031A0CDE901044FF41F7100911D4B1EA238
:1040700023A1032000F05AFD2C716F7020460AF036
:1040800083FE0121084602F005F82EA04FF42171AD
:10409000CDE90010134B14A219A1032000F046FD36
:1040A000307C01280CD12FA0CDE9010440F28A21F7
:1040B00000910C4B0CA212A1032000F037FDAC7054
:1040C000FEBD0000EC7D0020436F6E6E656374657D
:1040D0006420746F204852532C204944583A256478
:1040E0002E000000181C21002E2E5C5372635C759C
:1040F0007365725C757365725F6170702E6300002A
:104100004E4F5F54414700005374617274206469DC
:1041100073636F76657279204852532073657276A7
:104120006963652E00000000436F6E6E6563746501
:104130006420746F20525343532C204944583A252D
:10414000642E0000537461727420646973636F7627
:1041500065727920525343532073657276696365A3
:104160002E000000436F6E6E656374656420746F8B
:1041700020436F6C6C6563746F722C204944583A0D
:1041800025642E00FEB5314C0026FF25E2789042D2
:1041900016D12FA040F29B22CDE900200291344B92
:1041A00034A23AA1032000F0C1FCE5702670002182
:1041B000084601F06FFFBDE8FE40092005F0C4BFCE
:1041C0002279904216D133A040F2A522CDE90020F9
:1041D0000291274B27A22DA1032000F0A7FC2571F7
:1041E00066700021012001F055FFBDE8FE400A2065
:1041F00005F0AABFA278904226D12EA040F2AF22AD
:10420000CDE9002002911A4B1AA220A1032000F050
:104210008DFCA5702079FF2801D07FF6B7FEE078ED
:10422000FF2801D07FF6B2FE08490020891D7EF6E6
:1042300015FE29A040F2BF21CDE900100C4B0DA2C4
:1042400012A1032000F072FCFEBD0000EC7D0020F6
:10425000446973636F6E6E65637465642066726F24
:104260006D204852532830782530325829000000FC
:104270002E1C21002E2E5C5372635C757365725C7C
:10428000757365725F6170702E6300004E4F5F54EE
:1042900041470000446973636F6E6E6563746564C3
:1042A0002066726F6D205253435328307825303288
:1042B00058290000446973636F6E6E6563746564AA
:1042C0002066726F6D20436F6C6C6563746F72282B
:1042D000307825303258290053746172742061643B
:1042E000766572746973696E672E00003EB5044688
:1042F0004FF400711A48FDF7ECFE207810B1012848
:1043000019D01DE000211748A28830F831309A42B8
:1043100007D100EBC10014A143681148FEF72EFC41
:104320000EE02E2902D0491CC9B2EEE714A10C48B8
:10433000FEF724FC04E01DA109486268FEF71EFC9C
:10434000074921A22069CDE901210090D4E9022387
:104350001EA1002000F0EAFBBDE83E4000F0B2BB29
:104360003C8D0020281721004572726F7220636F08
:104370006465203078253034583A202573000000D9
:104380004572726F7220636F646520307825303417
:10439000583A204E6F20666F756E6420696E666FA6
:1043A000726D6174696F6E2E0000000028257329FC
:1043B000206973206E6F742065737461626C697319
:1043C0006865642E00000000257300006170705F56
:1043D0006572726F722E63002DE9F041014600296B
:1043E0001BD000240F4E0E4A357814E002EB041067
:1043F0000F780378BB420CD14B684068034208D069
:10440000707808B900F030FB2046BDE8F04100F0BC
:1044100053BA641CE4B2AC42E8D3BDE8F0810000BA
:10442000A48A00204C7D00207CB505460E46002D58
:1044300001D0002418E0E5207CBD05EB04104168A4
:104440000091017A8DF80410417A8DF8051007214A
:104450008DF80610C26800780023694600F038F82D
:104460000028E9D1641CE4B2B442E6D300207CBD4C
:1044700010B502460846052A25D2DFE802F00303FC
:1044800003111900114951F832200104090C05D01B
:1044900022B10146104604F0D7FE10E0E42010BD22
:1044A00010F0FF0F02D004F079FD08E0E42010BD09
:1044B00010F0FF0F05D00146002004F007FF002098
:1044C00010BDE42010BDE62010BD000060162100E4
:1044D0002DE9F05F05460C46904699462668002770
:1044E000042D11D031462846FFF7C2FF2146284649
:1044F00000F05EF8002808D1032D08D04FF0100A14
:104500002807070E002448E0E620BDE8F09F4FF0A2
:10451000080AF7E7F0073DD03DB1012D05D0022D87
:1045200003D0032D21D0E620EFE71E4800EBC500A5
:1045300090F904B0BBF1000F15D0EFF3108101200A
:1045400080F31088184AE01942F8308002EBC0006E
:10455000C0F8049081F31088584622F61BFF584695
:1045600022F636FF16E0E420CFE7EFF310810120BA
:1045700080F310880D4AE01942F8308002EBC00049
:10458000C0F8049081F310881B2022F603FF1B2043
:1045900022F61EFF7608641CE4B25445BAD300200C
:1045A000B3E7000060162100D4880020E4890020D1
:1045B00070B58EB005460C46474991E84D00CDE9EF
:1045C0000A02CDE90C36D1E90523086906AEC969AE
:1045D0000DC6099114224049203101A8FDF760FD64
:1045E000D4B13E4906200BF01FFE3D4907200BF0D9
:1045F0001BFE3C491B200BF017FE3B4912200BF021
:1046000013FE35493C39A1F12C02052D61D2DFE8BA
:1046100005F0060606213900E5200EB070BD2079B0
:1046200031F810000B90607932F810000C90A079EE
:104630000D9020680A902848543850F83500218899
:104640000904090C04D018B10AA904F031FE39E0BC
:10465000E420E2E7207901EB4000808A079060794E
:1046600002EB4000C0880890A0790990206806906D
:10467000207810F0FF0F03D006A804F099FC21E089
:10468000E420CAE72079031F042B01D8E720C4E700
:10469000022819D001200290207901EB4000008D02
:1046A0000390607902EB400080890490A079059026
:1046B00020680190207810F0FF0F08D001A9002099
:1046C00004F012FE0020A8E702200290E4E7E420B4
:1046D000A3E7E620A1E70000B4162100C1611000A5
:1046E000BB611000B7611000B161100002460020EC
:1046F000052A11D2DFE802F0030303090C00074882
:1047000050F8320089B21FF664BA88B21BF64AB973
:1047100089B2002022F6F4BD704700006016210027
:10472000002803D00249086001207047002070472C
:10473000547D002070B505460024091F062917D2B4
:10474000DFE801F003070C111315284600F0A4F868
:104750000EE00124284600F09FF809E002242846D4
:1047600000F09AF804E0032402E0042400E00524A9
:10477000034A214628461268BDE8704010470000F1
:10478000547D00202DE9F0410446204600F0AEF8AB
:1047900001462E4800230826025D00F10A0700F1B9
:1047A0001405AAB1052A33D0082A2AD1092945D0EF
:1047B000082926D1295D491CC9B22955142920D3BD
:1047C0002B5506552046BDE8F0410821FFF7B2BF42
:1047D000052913D0042916D0072914D0082910D18F
:1047E000295D491CC9B2295514290AD32B550655F0
:1047F0002046BDE8F0410821FFF79CBF3B5505214D
:104800000155BDE8F0812046BDE8F041FFF792BFB9
:1048100005290CD0395D491CC9B239553229F0D36C
:1048200003552046BDE8F0410521FFF783BF03553E
:104830002046BDE8F0410621FFF77CBF0355204626
:10484000BDE8F0410921FFF775BF0000848B00200F
:1048500070B504460D4600F00FF808B100F01AF9E3
:104860000348044A2946005D5268BDE8704010477D
:10487000988A00204C7D00200020064911F8102065
:104880000AB100207047401CC0B20A28F6D30120AC
:1048900070470000A28B00200349002201F810207D
:1048A00001EB400042707047A28B0020014A02F8E1
:1048B00010107047A28B0020024A012102EB400039
:1048C00041707047A28B002070B50024064D05EBA7
:1048D0004400407810B12046FFF754FF641CE4B256
:1048E0000A2CF4D370BD0000A28B002070B500210B
:1048F0001D4B03F132051A5C002A09D0002403F194
:104900000A06012A0AD0022A12D0032A24D11FE063
:1049100015F8102002B301221A541DE015F81020DA
:104920001AB1345402221A5416E01C54042113E024
:1049300015F810204AB1325C521CD2B23254642AAB
:104940000AD3072103221A5406E005211C5403E070
:1049500015F8101011B10821084670BD1C54FFF75E
:104960009BFF0921F8E70000708B002070470000D2
:104970002DE9F0410F4690460A2F04D8B8F1000FF8
:1049800001D0002323E00020BDE8F08103EB4306C3
:1049900010F826402CB1012C03D0022C01D0032C9E
:1049A00013D100EB8605124AA97AD154104910F8A8
:1049B00026200C3101EB0314227069686160297AAA
:1049C0002172697A61720B49E1605B1CDBB2BB4208
:1049D000DCD3074839460C30FFF726FD0648077040
:1049E000C0F804800548FFF79BFE0120CCE70000DB
:1049F000988A0020D94320004C7D00205148200097
:104A00002DE9F0410024124FDFF8488019E000261C
:104A100007EB041528786968FFF768FE10B9697A12
:104A2000012902D0012802D005E0012603E0687ABE
:104A3000022800D1012631462046FFF737FF641CCB
:104A4000E4B298F800008442E1D3BDE8F0810000B0
:104A5000A48A00204C7D002010B5FFF7D1FFBDE8EF
:104A60001040FFF731BF000010B5074A0121074889
:104A700000F0A2F900220A21044800F069FA044972
:104A80000120487010BD0000594A2000488B0020CA
:104A90004C7D002010B5034800F0B7F90249002012
:104AA000487010BD488B00204C7D0020002806D0A7
:104AB000002904D0024AD269002A00D0104770476A
:104AC000188D00200248006A002800D00047704777
:104AD000188D002070B50D4616460D4C00280AD0E2
:104AE0000178032911D80121A17601461A22204616
:104AF000FDF7D6FA05E00020A0761A210448FDF75C
:104B0000E8FAE5612662002070BD012070BD00005A
:104B1000188D0020044A1044807D084201D00120F5
:104B20007047002070470000188D00202DE9FE4FCF
:104B3000DDF830B0064692469946002400270197DA
:104B400002975A480178B14202D2807E00287DD176
:104B50000DF13808CDF80080EFF311850220FEF743
:104B60007DF8014652480068C0F30220401C012233
:104B700082408818C0B280F3118801213046FFF7C7
:104B8000C9FF38B14B484C4950F82620204600F068
:104B9000A5F804461C213046FFF7BCFF00285ED074
:104BA00046A24549204600F099F8204484B20421E9
:104BB0003046FFF7AFFFF8B152463F49204600F0BC
:104BC0008DF8204484B208213046FFF7A3FF38B1A6
:104BD0003BA23949204600F081F8204484B20BE022
:104BE00010213046FFF796FF30B136A232492046F9
:104BF00000F074F8204484B208213046FFF78AFFA1
:104C000090B14A462C49204600F068F8204484B20E
:104C100010213046FFF77EFF30B12BA226492046F7
:104C200000F05CF8204484B210213046FFF772FF98
:104C300070B15B4626A2052101A8FDF787FF01AAF6
:104C40001D49204600F04AF8204400E02BE084B2E1
:104C500020A21949204600F041F8204484B21648A9
:104C6000C4F58071204443460D9AFDF79BFF0097E1
:104C70004FF48071002804DB2044884201DC86B2B6
:104C800000E00E46B01C884200D9FE2612A20A4956
:104C9000304600F023F8304481B20748FFF706FFA2
:104CA000E8B280F31188BDE8FE8F0000188D002067
:104CB0000CED00E0687D0020188C0020280000002A
:104CC000200000003A000000204C696E653A0000A8
:104CD000256C6400292000000D0A000030B505464F
:104CE000002000290CD0002A0AD006E02B18FF2B48
:104CF00006D8CC54521C401C80B21478002CF5D13C
:104D000030BD000010B5064A06214CF2010091F6B4
:104D10001DFD01F0F5F9BDE81040002008F01ABEB5
:104D2000C819210010B50848017800290AD10121CD
:104D30000170064892F61EFCBDE8104000210448B0
:104D400092F6AEBD10BD0000487D0020D561100078
:104D50009DD8200070B5164C164E2078A6F11C0583
:104D600002280FD104F10A00807986F83000D4F8C7
:104D70000A00C5F84600E089A5F84A00314600203F
:104D80007FF6B0FA6078022810D109481130807996
:104D900086F8300054F8110F45F8460FA088A88017
:104DA000BDE87040034900207FF69CBA70BD00004A
:104DB000EC7D00209CDA00202DE9F04104460D46F0
:104DC0001746002D04D0012D02D00120BDE8F0814E
:104DD000CCB1C7B1EFF311860220FDF731FF804659
:104DE000FDF766FF401C0121814008EB0100C0B2C5
:104DF00080F3118800206070A570E761F0B280F345
:104E000011880020E2E70120E0E710B50446002CFD
:104E10000CD0204600F02EF9FF2060700021A16028
:104E2000E160216161610020E06110BD012010BDE1
:104E3000F0B5DDE90745059981614FF47A76A2FB6B
:104E4000061C03FB06C3002702FB0732C0E902125F
:104E500009196A41C0E9041200210162F0BD000095
:104E60002DE9F0410446002C13D0EFF31185022008
:104E7000FDF7E6FE0746FDF71BFF401C012606FA7C
:104E800000F03844C0B280F311881248002121623A
:104E90000EE00020BDE8F081D4E90432D1E9047CC1
:104EA000DB1B72EB0C0202D2016A216203E00846AE
:104EB000016A0029F0D10462667006481038016862
:104EC000491C0160016B4160E8B280F31188012048
:104ED000E0E70000C88B00202DE9F04105460024E2
:104EE000EFF311860220FDF7ABFE0746FDF7E0FE6B
:104EF000401C012181407818C0B280F31188134A08
:104F0000106BE8B115B102F1100010E00446206A00
:104F100010631068401E10600CE0A94206D11168B1
:104F2000491E1160296A01622C4603E00846016AA5
:104F30000029F2D124B1002020626070106B506013
:104F4000F0B280F311882046BDE8F081B88B0020D4
:104F50002DE9FF5F82460E4693464FF00008BAF1F6
:104F6000000F20D0414886421DD8E6B1EFF31187EB
:104F70000220FDF765FE0446FDF79AFE401C012164
:104F800081406018C0B280F31188504606F05EF888
:104F900010B19AF8010040B1F8B280F311880F20E7
:104FA00004B0BDE8F09F0120FAE707F0EFFC0446EB
:104FB0000D464FF47A7106FB01F022462B46002184
:104FC00005F008FFDFF8A890B0B1D9F8040048B1A7
:104FD000D0E90410091B60EB0500C9E9021007F0D5
:104FE0004FFD04E00021C9F80810C9F80C104FF07B
:104FF0000108D9E9020106E0D9F80400D0E904214A
:10500000101B61EB0501CDE9020132460023CDF80A
:1050100000B05046FFF70CFF5046FFF721FF0BF0A2
:105020006FF84FF0E021D1F800014FF0806210F0EE
:10503000806F01D0012000E0002018B9C1F8802263
:10504000C1F80021B8F1000F0AD0D9F80400D0E966
:105050000431D9E90202181A61EB020107F0CCFC15
:10506000F8B280F3118800209AE70000008AB9079F
:10507000B88B00202DE9F04104460025002C39D0E2
:10508000EFF311870220FDF7DBFD0646FDF710FE6A
:10509000401C012181407018C0B280F311886078F3
:1050A000012824D1144E7068A0420BD107F06EFC89
:1050B000D4E90432181A62EB0102C6E9020207F0D1
:1050C000DFFC01252046FFF707FF5DB1706848B19E
:1050D000D0E90421D6E90203101A61EB030107F0BD
:1050E0008BFC04E01DB9706808B907F0C9FCF8B280
:1050F00080F31188BDE8F081B88B002070B50446BC
:105100001A4D55F82400703009F07DFC82B2164625
:10511000A2B155F8240090F8011101290ED0012107
:1051200080F80411802A0FD355F82400802200F162
:105130008001703009F07CFC80260CE055F82410CA
:10514000002081F8000170BD55F8240000F18001B5
:10515000703009F06DFC55F82400324600F18001F2
:10516000001D2CF651F80028EDD170BD808A00207A
:10517000704700002DE9F84304464B4E56F82400D2
:10518000071D062C7ED290F86C1000297AD00129D8
:1051900078D180F80111002556F82400D0E90312D7
:1051A0000A44017D01F00101C91D02EB01084168BB
:1051B000CA6FC2F38002002AFAD090F80411E1B15C
:1051C000DFF8E8906D1C56F82400001D2BF678FCE3
:1051D00010280BD056F82400D9F800108068B1FBD5
:1051E000F0F000FB08F0B5EBC01FEBD956F8240037
:1051F000703009F008FC85B226E0B0F82480C58C38
:10520000001D2BF67BFA56F8240041F2883300EBA0
:105210000801491B8031001D2A462BF6A2FFE5E755
:1052200056F8240001227030694609F001FC56F856
:1052300024004068C16FC1F340010029FAD09DF8F5
:10524000001001606D1EADB2002DE9D156F82400AA
:10525000703009F0D8FB0028C8D138684169490688
:10526000FCD5EFF31085012080F3108856F8240058
:10527000703009F0C8FB68B1EFF31081012080F3B2
:10528000108800E00DE03868426842F08202426017
:1052900081F3108856F82410002081F8010185F36D
:1052A0001088BDE8F8830000808A00206003002099
:1052B0002DE9F04105460F462C78002D05D022B18E
:1052C000062C04D3E820BDE8F081E520FBE7384E4A
:1052D00005F1580046F82400D2E900310A46703042
:1052E000194609F07BFB291D286D0BF07FFD002876
:1052F000E9D156F82410281D486656F824000760A6
:1053000056F824001822083005F14001FCF7C8FEC9
:10531000284856F8241000EBC4056868486056F821
:105320002400001D04F0A8F856F82400001D04F025
:10533000BFF8204801220321103808F043FB56F83B
:105340002410012081F86C0056F82410002081F808
:10535000000156F8241081F8010156F8241081F854
:10536000020156F8241081F8030113490C200AF0B9
:105370005BFF12490D200AF057FF114934200AF053
:1053800053FF104935200AF04FFF0F4936200AF02D
:105390004BFF0E4937200AF047FF95F9010021F62F
:1053A000F9FF95F9010022F613F800208BE70000C1
:1053B000808A0020F8162100CD2A2000DD2A200056
:1053C000ED2A2000FD2A20000D2B20001D2B20009F
:1053D0002DE9F04104461A4D55F82400703009F0CB
:1053E00012FB82B2164600277AB155F8240090F8D5
:1053F0000111012909D0802A0ED300F180017030FB
:10540000802209F015FB80260BE055F8240080F877
:1054100000710020BDE8F08100F18001703009F0DA
:1054200007FB55F8240080F8047155F82400324633
:1054300000F18001001D2BF6ABFF0028EAD1E9E75F
:10544000808A002070B5062801D3E82070BD0C4D7D
:1054500055F820407CB194F86C6066B169B162B1D6
:10546000002684F8026155F82000001D2BF679FE15
:105470000028EBD170BDE52070BDE42070BD0000B8
:10548000808A00202DE9F84307460C46904604F137
:10549000080520468EF68AFE0346344E70680021C9
:1054A000A7F58042DFF8C8C0B2F5804F03D2DCF820
:1054B0000010401A0121E218824202DD0520BDE8F9
:1054C000F8833068421EC2F30B02821A02F6FF72A2
:1054D000C2F3073211B1DCF8001000E00021DFF860
:1054E00094C0DFF89490DCF800C0D9F80090ACEBE1
:1054F000090C96F80990A2EB09020CEBC202101AF3
:10550000401A001FE918814229DD00254FF40049A7
:1055100011231F2249462846009572F69FF8002164
:10552000084603F0B7FA40B113231F224946002072
:10553000009572F693F80F20C1E7707A05F088FBAA
:105540000028BCD112231F224946009572F686F826
:10555000424621463846BDE8F8430BF03DBD424681
:1055600021463846BDE8F8430BF036BD9047002091
:10557000B8350020C4350020BC350020094800683B
:1055800000280DD090F82E10012909D190F8300094
:10559000FF2805D24FF03041086840F08060086075
:1055A00070470000400C002010B586B004466846E5
:1055B0006EF6B8FF9DE80E0003A80EC00B4A891CCA
:1055C00021F07041516010466FF69AF907486FF666
:1055D0000BFA207F002806D1054991F80101054A00
:1055E00001EB0010426006B010BD00008C290020C5
:1055F000A029002061C8200002F0A2BC10B58CB028
:1056000008A80BF08BF8BDF8221009989DF821200E
:10561000CDE904109DF8203032A040F20641CDE9DA
:105620000232CDE90010394B39A23FA10220FFF729
:105630007DFA0AA87DF6DCF9044654B114223349F8
:10564000103103A8FCF72CFDADF8104003A8FEF7BD
:105650004DFE9DF828009DF82910CDE906109DF813
:105660002A209DF82B30CDE904329DF82C109DF8AE
:105670002D002FA240F20B43CDE90032CDE902010B
:10568000224B23A228A10220FFF750FA33A040F2B8
:105690001241CDE900101D4B1DA223A10220FFF7EE
:1056A00045FA0AF0D1FC0AF0A5FC02F0B5F8FEF7C5
:1056B00097FA0AF09DF800F0BFFE304900207DF611
:1056C000CDFB0446002C0AD014221049243103A833
:1056D000FCF7E6FCADF8104003A8FEF707FE0CB09F
:1056E00010BD0000476F6F64697820424C4520531D
:1056F000444B205625642E25642E25642028636F94
:105700006D6D69742025782900000000A81C210017
:105710002E2E5C5372635C757365725C7573657273
:105720005F6170702E6300004E4F5F544147000070
:105730004C6F63616C20426F617264202530325877
:105740003A253032583A253032583A253032583AD4
:10575000253032583A253032582E00004852532016
:10576000525343532052656C6179206578616D70A6
:105770006C6520737461727465642E00F27D002084
:10578000002070470020704710B50AF00DF808F0AF
:10579000A1FA0AF051FD0BF0D3FB06F093FF05F0E0
:1057A00061FC0AF0E1F90AF0E7F904F0B7F8BDE8A6
:1057B000104009F0EBBF00002DE9F0413D4C6FF0C7
:1057C0000200C4F898003C490125280608603B49BE
:1057D00000200860394A1C32106840F00200106056
:1057E000106840F001001060106820F002001060A6
:1057F0000B1F186840F001001860186820F00200C4
:1058000018602E4834380168C1F300410029FAD1EC
:105810002A4940F2AA2638390F6866F301070F605B
:105820000E6826F00C0646F008060E600E6826F09C
:10583000C00646F080060E60204940F2FF3740392E
:105840000E6867F301060E600E6826F00C0646F03F
:105850000C060E600E6826F0C00646F0C0060E600C
:1058600005600168C1F300410029FAD1106820F0F9
:1058700004001060186820F004001860106840F000
:1058800004001060186840F00400186001200AF05D
:1058900054FD04F52074206820F04000206020684A
:1058A00020F010002060206820F020002060BDE87B
:1058B000F081000000A0004084E200E0C4A40040A9
:1058C00010B505F0F9FF05F0A5FF01F035FF05F073
:1058D00091FFBDE8104006F017BC00000F490868B2
:1058E00020F0040008600D482030026822F0040215
:1058F00002600A6842F002020A600A6822F00102AD
:105900000A60016841F001010160016841F0020193
:105910000160016821F0010101607047C0A40040EE
:1059200070B50AF0E1FE40F21A4120B140F24C405D
:105930000AF04EFD03E040F22E400AF049FD0D4C06
:10594000A07850B1E0880AF053FD054620890AF09E
:105950004FFD29460AF08EFE05E04FF461714FF4C9
:105960007A700AF087FEBDE8704002484A3007F0BE
:105970005BBE00005080002010B50446002C0CD007
:10598000204600F0E1F9002807D1044949680029C0
:1059900003D02046BDE81040084710BDE07E00203F
:1059A000FEB504466C4E2088002531787278B0F53B
:1059B000037F5ED012DCB0F5807F20D0A0F50070B0
:1059C000073820D001282ED004282BD16088002849
:1059D00028D0012936D0012A39D03CE0A0F500704A
:1059E0000D387BD0F4287DD0F5287CD0F92819D14A
:1059F000207903B00121BDE8F0407DF6C1BEBDE8CD
:105A0000FE40FFF7FBBD608800280BD053A140F299
:105A10009532CDE900210290594B5AA25FA1032093
:105A2000FFF784F8FEBD207A0028FBD15DA04FF47B
:105A30006771CDE90010524B52A258A10320FFF725
:105A400075F8FEBD3570012004F07EFB03E0757033
:105A5000022004F079FB608858A140F2AE32CDE913
:105A600000210290464B47A24CA10320FFF75EF8AD
:105A7000FEBD608878B1022907D0022AF8D175707E
:105A8000BDE8FE40022004F05FBB3570BDE8FE407B
:105A9000012004F059BB207A18B1BDE8FE40FFF7A1
:105AA00059B94EA04FF47171CDE90010344B35A2B5
:105AB0003AA10320FFF73AF83078012808D070782F
:105AC0000128D5D17570BDE8FE40022004F03CBB32
:105AD0003570BDE8FE40012004F036BB618C04F156
:105AE0000A0201E006E01FE0606A03B0BDE8F04092
:105AF000FEF7D2B8608878B1022907D0022AB7D160
:105B00007570BDE8FE40022004F01EBB3570BDE894
:105B1000FE40012004F018BB207903B004F1080115
:105B2000BDE8F040FEF76EBA60880028A0D1207A68
:105B300038A14FF47D72CDE900210290104B11A2E3
:105B400016A10320FEF7F2FF217A207903B0BDE809
:105B5000F040FEF717BB0000EC7D00204164766545
:105B60007274696E67207374617274656420666113
:105B7000696C656428307825303258292E00000081
:105B8000981C21002E2E5C5372635C757365725CE9
:105B9000757365725F6170702E6300004E4F5F54C5
:105BA000414700004164766572746973696E6720CD
:105BB00074696D656F75742E000000005363616E2B
:105BC0002073746172746564206661696C65642811
:105BD000307825303258292E0000000053746F7041
:105BE000207363616E6E696E672074696D656F7591
:105BF000743A2043616E206E6F74207363616E206F
:105C0000616E79207461726765742064657669637A
:105C1000652E0000446973636F6E6E65637465641E
:105C20002028307825303258292E0000044A52F8B6
:105C3000200050F84B2F0A60808888807047000051
:105C40001419002038B504460D4600200090002CA1
:105C500005D069460C487CF601FD10B110E0022029
:105C600038BD142094F63AF8014659B105CCC1E983
:105C70000102CD609DF800000874044805F09DFB0A
:105C8000002038BD102038BD581D2100D47F0020D1
:105C900070B504460E46002C05D00F4886F684F9F0
:105CA000054615B113E0022070BD142094F616F8D5
:105CB000014671B10C6120680088C880CE60074A37
:105CC00010780871401C1070101D05F076FB2846F6
:105CD00070BD102070BD0000341D2100CC7F00205D
:105CE00000B5AFB0094901200870FF22B82101A812
:105CF000FCF7E8F94FF48070ADF804000020ADF82F
:105D0000060001A8FFF738FE2FB000BDE07E00209E
:105D100000214FF03040C1608161C0F8D011C1173F
:105D200041610162C0F8D81103496FF480600860D6
:105D30000220FCF74DBF000084A000400149002074
:105D400001F0C0B8B9B9200010B50446002C22D02B
:105D50000021228840F20253A2F202509A4279D0E6
:105D600033DC40F20643A2F206409A425DD01BDCCF
:105D700040F20243A2F202409A424ED00DDCA2F55C
:105D80004072013A3DD0012A3BD0FF2A41D0B2F502
:105D9000807F55D13FE0002010BD01283FD0022870
:105DA0003FD003284CD13EE0042846D006DC012831
:105DB0003DD002283DD0032842D13CE005283ED00A
:105DC000FA2842D0FB283BD144E0082847D007DC22
:105DD000082835D2DFE800F0343E3E3E3E3E3E43EA
:105DE0000C283CD006DC092839D00A2837D00B28EB
:105DF00026D134E00D2832D00E2830D0FF281FD114
:105E000032E0204602F0E6FC204602F06FFA002065
:105E100010BD218914E0218912E0218910E06189F7
:105E20000EE0218A0CE021890AE0618908E0A1895D
:105E300006E0618904E0A18902E0218A00E061892D
:105E40002046BDE8104002F093BD2046BDE810405A
:105E500002F03CBC2046BDE8104002F0A3BB204647
:105E6000BDE8104002F09CBA204602F093F90020F1
:105E700010BD000070B50446002C1CD00225114E48
:105E8000F079844210D0304690F90610ACB103206E
:105E9000C91CB1710C490A6800EB92030A6863F3EC
:105EA00089020A6009F012FCF4710849086C65F374
:105EB0008710086470BD0025E1E76FF00200C91E7D
:105EC000B171E7E7E0810020201101B0002001B0AE
:105ED00070472DE9F04105460E4614461F46204600
:105EE00000F032F83B46224631462846BDE8F041F4
:105EF00084F65CBE2DE9F04105460E4614461F4669
:105F0000204600F021F83B46224631462846BDE8AF
:105F1000F04185F681B82DE9F04105460E4614465C
:105F20001F46204600F010F83B46224631462846E0
:105F3000BDE8F04185F6D8B802490878FF220A701A
:105F4000704700003682002010B5C0B284F60AF90E
:105F500001491438087010BD3682002010B5132195
:105F60000B4807F04DFD05210948983007F04EFD1C
:105F700001210748083807F03DFDFFF705FCFFF752
:105F80009FFCFFF7A5FFBDE81040FFF735BB000001
:105F90000C78002030B58568027B002D02D00020EF
:105FA00001210CE0104630BDCB0801F00704EB5C8A
:105FB000E340DB0701D0401CC0B2491CC9B28A4291
:105FC000F2D830BD00230849496808E00A898242B6
:105FD00004D84A89824201D3CB6802E009680029CB
:105FE000F4D1184670470000CC7F002001460548D8
:105FF000406803E002798A4202D000680028F9D1A3
:1060000070470000CC7F0020F0B5AFB0204E707814
:10601000FFF7ECFF044620000AD02169E0880968F8
:106020000880206982F630F8054600271DB124E07B
:106030000C202FB0F0BD2069FFF7ACFF01462069AE
:106040000268128822810068008808446081E06844
:1060500098B1FF22B82101A8FCF734F840F20C40B7
:10606000ADF80400ADF806702089ADF80C00608929
:10607000ADF80E00E16801A888477078401CC0B2F6
:1060800070703178884200D17770E8B2D1E70000B3
:10609000CC7F0020062801D2014A1154704700002D
:1060A000887D002010B5084A1378002B01D00F20FE
:1060B00010BD31B150600448083000F007F80020EE
:1060C00010BD022010BD0000E07E002070B5044627
:1060D0000D46FFF733FE084901200AF0A5F80749ED
:1060E00002200AF0A1F8FFF739FF29462046BDE853
:1060F000704086F6DFB800009D1708003D160800C6
:1061000010B500F0ADF800F06DF8BDE8104000F0FB
:106110008BB8000010B51248016821F0070141F06A
:10612000040101600A2009F671FA0D4884380168FB
:1061300021F4807101600121002024F60DFD012071
:106140001AF6ACFA07490220087009F0E9FF06497F
:1061500032200AF069F8BDE810403220FCF763BD38
:1061600090A8004050820020EF21200010B519486F
:106170000068C0F30B0017490831096821F07F411E
:10618000401C00EE100ADFED140AB8EE400A60EE83
:10619000200A00EE101A1149B8EE400A80EE801A6B
:1061A000B6EE000A31EE000ABCEEC00A10EE100A8C
:1061B000486007F0FDF90AF0CDFA0948016841F49A
:1061C0008071016006488430016821F00701016098
:1061D00010BD000004E400400024F44B5082002075
:1061E0000CA8004000B587B003218DF804100220F0
:1061F000029005228DF80C2001208DF80D0000235F
:106200008DF80E308DF8101005908DF818208DF84F
:1062100019008DF81A00034A022101A8FEF7A8FB15
:1062200007B000BD6D4920007CB51020009002240D
:106230008DF804408DF8054007258DF80650694615
:106240000420FEF7B5F9402000908DF804408DF849
:1062500005408DF8065069460420FEF7A9F97CBD7B
:1062600000B587B000F01EF803208DF800001D2057
:106270008DF8160001208DF817008DF818008DF8A4
:106280001900044A04496846FEF724FCFDF756FE4F
:1062900007B000BD9D622000096320000320FEF7C7
:1062A00069BF00001CB5144800904FF48060019055
:1062B0001248032202704FF4E1310164426400216C
:1062C0008164C16401650123436501742024446134
:1062D000427403760171102383604271017308498F
:1062E00041638163022180F83C1080F83D206A46BA
:1062F0000449FEF7DDFF1CBD748300207487002075
:1063000000900140715120000A4601464FF47A7313
:106310000320FFF797B80A2804D840F6641101EB70
:1063200040007047242804D840F6661101EB400075
:106330007047252804D0262805D04FF41B607047ED
:1063400040F66210704740F67A107047052110F150
:10635000190F01DC022110E000F114020F2A01D80C
:1063600003210AE00F2801D8042106E0A0F114025D
:10637000192A02D932280CDB062106480268C2F32A
:1063800003328A4205D0026822F4704242EA0131A7
:106390000160704714A8004010B50021084624F69B
:1063A000DBFB01201AF65AF90248816821F480715A
:1063B000816010BD00A0004010B514480068C0F313
:1063C0000000002807D0114808380068C0F300001A
:1063D00008B109F0FDFE0E480068C0F3000038B1B6
:1063E0000B4808380068C0F3000008B100F048FC12
:1063F00009F07CFE002807D003F0CEFA002803D075
:10640000BDE81040FFF7C8BF10BD000008E4004021
:1064100008E5004010B509F0FBFE00F0DDFB10BD03
:1064200010B502F0D1FD06F0F1FD07F0C3FABDE8AA
:10643000104000F0AFB800000848002101700122B0
:10644000427041800F228280C28064228281C28198
:106450000182910041820A21818270479CDA0020EA
:106460002DE9FC4104468846164D4FF6FF76164F3F
:1064700012E02968082201EB0030694686F6CAF965
:10648000082802D01020BDE8FC81BDF80000B04211
:1064900008D12078401C20702078797A8842E8D38F
:1064A0000020F0E709489DF80010C170BDF8021007
:1064B00081809DF8011088F800102178417000203B
:1064C000E1E70000BC35002090470020C8350020DF
:1064D00010B51248016821F0004101600F23011D31
:1064E0000A6863F31F720A600A6822F4E07242F4D9
:1064F000C0720A60016841F000410160084801680B
:1065000041F0010101600749312009F08DFE064983
:106510004FF40030C1F8000110BD000004A9004094
:1065200088E20040BD29200004E000E0F8B5EFF368
:106530001085012080F31088072000906846FCF742
:1065400089FA0220FCF78EFA322009F65FF80B4C2C
:10655000206840F002002060094E708909F656F864
:10656000206820F002002060B08909F64FF89DF8FD
:106570000000FCF777FA85F31088F8BD04A9004005
:10658000B480002008B500906A460121092083F6F6
:106590002FFD08BD02490148086070477171100065
:1065A000CC0500200249014808607047316D100099
:1065B000440D002010B593F6C1FA002800D0FEE784
:1065C00010BD00000148408B70470000744500205A
:1065D00000B585B000210191029103910491124A06
:1065E000537E127E1B0243EA00401043009001914B
:1065F0000291039104910120029001A802F02AFD6A
:1066000001A802F031FD01236A464A2101A802F0E7
:1066100085FD0F23044A442101A81CF6D3FC01A8E0
:1066200002F018FD05B000BD7445002070B50646A7
:106630000C4615466FF4004010EAC43F05D040F206
:106640004D420AA10FA001F669FBE80B05D040F20C
:106650004E4206A11AA001F661FB9420464327484A
:1066600045EAC4313044A0F8661170BD72665F67B8
:1066700064785F62616C695F62315F7061746368E6
:106680002E63000028282875696E7431365F7429DE
:10669000727877696465203C3C20313529202620BA
:1066A0007E282875696E7431365F742930783030F1
:1066B0003030383030302929203D3D203000000076
:1066C00028282875696E7431365F74297278776965
:1066D0006E737A203C3C2030292026207E282875A5
:1066E000696E7431365F7429307830303030374617
:1066F00046462929203D3D2030000000008000B0A2
:10670000024928220248FBF7CBBC0000541E21009E
:10671000008100B000B500F00BF85DF804EB03F069
:10672000CBB9000001480078704700004CE0002021
:1067300030B5084C012525706060E2602361A160DE
:1067400005488068884201D2081A00E0401A60615A
:1067500030BD00004CE000206C82002010B503F03A
:1067600085F9044618210548FBF7B3FC034A0021CC
:1067700011702046BDE8104000F046B94CE0002002
:10678000F0B404460E462C482C4FB96805780262D6
:1067900044628C4201D9631A00E00B1BFF689F42E0
:1067A00006D3134632462146F0BC0020FFF7B2BFA5
:1067B00087699F4201D98361C261012D0AD0022DF0
:1067C00027D0032D36D1134632462146F0BC002097
:1067D000FFF7A0BF44618C4203D90169491EC16023
:1067E00002E00169491C8160D0E90212914209D29C
:1067F0001144490801610121017001693046F0BC72
:1068000000F01EB80221017081683046F0BC00F033
:1068100017B8C169914206D1134632462146F0BCF1
:106820000020FFF777BF03210170C1693046F0BC3B
:1068300000F006B8F0BC7047F4DF00206C82002046
:10684000054A936A5B1C93628AB2C1B20348044B47
:10685000406803F0AFB80000F4DF00206C82002035
:106860008167200070B505460D4C2C212046FBF7B2
:1068700030FC0020A06040F2FF10E060FF222261A7
:106880004FF0FF30A061A06A401CA0620120207080
:106890000448E9B2044B4068BDE8704003F08AB890
:1068A000F4DF00206C820020816720002DE9F8438E
:1068B00007460D4690462E4C207801280BD0022822
:1068C00013D00820E06101B043462A463946BDE8AE
:1068D000F043FFF71FBFE76040F2FF112161284638
:1068E000BDE8F843022200F079B8002600966761FF
:1068F000684600F03FF870B1012810D002281FD080
:1069000003282DD00720E06143462A463946FFF789
:1069100001FFBDE8F8832846FFF7A4FFF9E70F2D34
:1069200006D23146A6600122681C00F057F8F0E755
:106930000520E06143462A463946FFF7EBFEE8E7CB
:1069400035B1A66001220021681E00F047F8E0E79B
:106950000620E06143462A463946FFF7DBFED8E7CA
:106960000098E06143462A463946FFF7D3FED0E758
:10697000D4DF002010B5174B17490A698968154CF8
:10698000DB6864698B4203D98C4201D9022010BDB7
:106990008B4203D28C4201D2012010BD8B4201D91F
:1069A0005B1A00E0CB1A8C4201D9611A00E0091B86
:1069B000934203D3914201D3002010BD934201D2F0
:1069C000022010BD914201D2012010BD02210160C0
:1069D000032010BDD4DF00206C82002030B4074BB0
:1069E0009C69641C9C6158601A708AB2C1B20448E8
:1069F000044B406830BC02F0DDBF0000D4DF002053
:106A00006C820020AD68200070B50546064C202140
:106A10002046FBF75EFB0021A1602846BDE87040E0
:106A20000122FFF7DBBF0000D4DF0020F8B50E46DF
:106A30001F4C00250095E169491CE1616660A26078
:106A4000E1682161E0601B498B68834201D2C01A72
:106A500000E0181A6169814201D96061A26168464B
:106A600000F02AF858B101280ED0022814D00328CB
:106A700018D00098A062204600F0BFF8F8BDA562CB
:106A8000204600F0BAF8F8BD012084F82000304616
:106A9000A16900F077F8F8BDA1683046491C00F004
:106AA00071F8F8BDA1683046491E00F06BF8F8BDDA
:106AB00020E000206C8200202DE9F0432F4A304F67
:106AC000B96800250026D3688B4201D95C1A00E022
:106AD000CC1AFF68A74202D30020BDE8F083D2F8A9
:106AE0002480B8F1010F10D092F82040012C0ED074
:106AF000224CD2F81CC04FF00109A769A468C44514
:106B00000BD3A74205D10020E7E70020E5E70020EE
:106B1000E3E782F820900120DFE7BCF1010F11D9F3
:106B2000D2F810C08C4501D98B4203D38C4509D2D1
:106B30008B4207D9A74201D10020CEE782F82090EE
:106B40000120CAE78B4201D9012600E0012545B1A9
:106B5000B4F5FF7F03D9092101600420BDE70220BD
:106B6000BBE736B10CB10320B7E70A21016004206E
:106B7000B3E70B2101600420AFE7000020E0002014
:106B80006C8200208AB2C1B20248034B406802F016
:106B900011BF00006C8200202D6A200070B50446F1
:106BA0000E4615462C210948FBF793FA074B0021A6
:106BB00083F82010491E59615C620548AAB2F1B2FF
:106BC0004068BDE87040034B02F0F4BE20E00020B6
:106BD0006C8200202D6A200010B502F0CDFE002846
:106BE0000AD0FFF79FFD18B1BDE8104000F028B8AB
:106BF000BDE81040FFF7B2BD10BD00B500F004F8CD
:106C00005DF804EB02F058BF0B4901220A71826A59
:106C10008A60C269CA60C2680A6142684A61826861
:106C20008A61064AC0689268904201D9801A00E0E1
:106C3000101AC8617047000064E000206C820020D8
:106C40002DE9F04102F012FF074602F021FF8046D5
:106C5000094C26680948456920212046FBF739FA86
:106C6000761C266000202071424639462846BDE841
:106C7000F041FFF793BF000064E000206C82002029
:106C800010B50E4C2069401C206102F01BFFE06033
:106C900002F0ECFE606002F0FBFEA060084A0021FA
:106CA00011606161E3692BB182B22179E068BDE8CE
:106CB00010401847BDE8104002F0FEBEB4DF0020CF
:106CC00000E5004005490448086006490448086199
:106CD0000549052008707047A9552000380D00208F
:106CE0007D5520008C290020458200202DE9FC41A3
:106CF000164804680834164E3078002802D0002068
:106D00008FF632FA134D4FF6FF7708226946204678
:106D10008FF634FABDF80000B84211D080B1BDF84A
:106D200002008DF643FABDF802100830084481B223
:106D300020468DF617FD044628688442E5D32C686A
:106D400030788FF611FA2046BDE8FC81BC35002072
:106D5000B5350020C435002010B50021084B5A6815
:106D60001B8809E052F83140844203D102EBC10094
:106D7000406810BD491C89B29942F3D310BD000090
:106D8000F87F002010B50021084B5A695B8809E0A4
:106D900052F83140844203D102EBC100406810BD7B
:106DA000491C89B29942F3D310BD00000080002035
:106DB00010B50021084B5A681B8809E052F8314091
:106DC000844203D102EBC100406810BD491C89B266
:106DD0009942F3D310BD0000E07F00200349095C15
:106DE000002902D0002104F07BBE7047A8DF0020FC
:106DF00008B51A48016821F070010160016821F0AE
:106E0000070141F00401016015490978002909D002
:106E1000124984390A6842F480720A60016821F0DC
:106E200007010160012005F059FF0020FCF72AFF4F
:106E300006F060FA80B100208DF80000A3208DF8E4
:106E4000010002208DF8020068468FF671FF06F0FF
:106E5000E9F806F08DFA08BDFEE7000090A80040B2
:106E6000C480002070B5044600BFFBF731FF054623
:106E70000120FCF73BF80648047024B94822054974
:106E80000548FBF70DF92846FCF730F800BF70BD48
:106E9000047E002018DB0020002000E010B5074829
:106EA00040680749486006480830402203490831D5
:106EB000FBF7F6F803200249086010BDD0DA002085
:106EC000002000E07047000070B500BFFBF700FF36
:106ED00005460120FCF70AF80948047834B948222D
:106EE00008490948FBF7DCF8FFF7D8FF01200449FF
:106EF00008702846FBF7FAFF00BF204670BD00006F
:106F0000047E0020002000E018DB002013B50121E2
:106F10006846FDF7CBFD01201CBD00002DE9F043C4
:106F200087B00C4607276278A178CDE9037200206C
:106F3000CDE9050121784FF00308CDE900800291E9
:106F4000EE230922102170F689FB60780126DFF814
:106F5000F890052530B1012834D0022846D0032806
:106F60006ED157E0207888F6A1FDC0EBC00109EB97
:106F700081014D72A278452A09D1CA681278022A85
:106F800016D091F82020022A01D081F8206091F8D3
:106F90002020012A03D0022A01D081F8208091F814
:106FA0002020022A4CD0C9680978022905D101E0C5
:106FB0004F72ECE7A178452942D0244A002112689B
:106FC00090473DE089F89950A078452805D199F877
:106FD0009C00022801D089F89C6099F89C00022846
:106FE0002ED01B4900200968884729E089F8A55060
:106FF000A078452805D199F8A800062801D089F87D
:10700000A86099F8A80006281AD01249002009683B
:10701000884715E0207888F6B7FD09EB001181F864
:10702000B150A278462A01D0CE2A01D181F8B350BE
:1070300091F8B310022903D0074A00211268904743
:1070400007B00020BDE8F083F4380020343400207D
:1070500038340020403400203C34002010B5AEB05D
:107060000C46FF22B8216846FBF72CF840F20A20B4
:10707000ADF80000ADF802406846FEF77DFC2EB08A
:1070800010BD10B5AEB00446FF22B8216846FBF72C
:1070900019F840F20D20ADF800000020ADF8020014
:1070A0001C22214602A8FAF7FBFF1C34099468460B
:1070B000FEF762FC2EB010BD30B5AFB005460C46F1
:1070C000FF22B82101A8FAF7FDFF40F20722ADF830
:1070D0000420ADF806408DF8085001A8FEF74CFCDE
:1070E0002FB030BD37B5AEB005460C46FF22B821F3
:1070F0006846FAF7E7FF4FF40272ADF80020ADF8EA
:1071000002408DF804509DF8C0008DF808006846D4
:10711000FEF732FC31B030BD00B5AFB0FF22B82170
:1071200001A8FAF7CFFF4FF44170ADF8040000203A
:10713000ADF8060001A8FEF71FFC2FB000BD30B56A
:10714000AFB004460D46FF22B82101A8FAF7BAFFF6
:107150004FF44372ADF804200022ADF806208DF8FC
:107160000840B022294603A8FAF79AFF01A8FEF7C3
:1071700003FC2FB030BD10B5AEB00446FF22B821DD
:107180006846FAF79FFF40F20331ADF80010ADF802
:1071900002406846FEF7F0FB2EB010BD70B5AEB0F1
:1071A00005460C461646FF22B8216846FAF78AFFC4
:1071B00040F20131ADF80010ADF802408DF80450F6
:1071C0001222314602A8FAF76BFF6846FEF7D4FB9D
:1071D0002EB070BD70B5AEB006460D461446FF2207
:1071E000B8216846FAF76EFF4FF44273ADF80030ED
:1071F000ADF802508DF8046020680290A088ADF8C8
:107200000C006846FEF7B8FB2EB070BD2DE9F041CA
:1072100086B00C46C3F3072528467FF655F9074686
:1072200028467FF651F90026CDE901650721CDE911
:10723000031002200090172309221021304670F617
:107240000DFAFF2D66D03549208808806088488077
:10725000A0888880E088C880207A0872607A4872A6
:107260000F74D4F80A20C1F80A20E289CA812C4B95
:1072700003EBC50216605660B4F800C023F835C0B1
:10728000DFF8A08001280CD1C87B0121B1EB901F51
:1072900007D198F81C01400703D5234841780A29F3
:1072A00031D804F10A02617A1646284691F632FC7A
:1072B000617A324628468AF609FE1C4C6FB10020DE
:1072C00086F616FB206828B1836B1BB1134A002198
:1072D0002846984786F654FB1CE0032088F8A8004F
:1072E000D8F8AC000078012814D1002086F600FB05
:1072F000206828B1836B1BB1084A002128469847B3
:1073000086F63EFB06E006700449074A0A31284625
:1073100089F65EF906B00020BDE8F08190380020C3
:10732000A2380020F43800204035002084330020AB
:1073300070B5AEB006460D461446FF22B821684629
:10734000FAF7C0FE40F20533ADF80030ADF8025058
:107350008DF8046020680290A088ADF80C006846A3
:10736000FEF70AFB2EB070BD30B5AFB005460C4637
:10737000FF22B82101A8FAF7A5FE40F20632ADF8C7
:1073800004200022ADF806208DF8085020680390F4
:107390006068049001A8FEF7EFFA2FB030BD30B559
:1073A000AFB004460D46FF22B82101A8FAF78AFEC5
:1073B00040F20D32ADF804200022ADF806208DF821
:1073C0000840B022294603A8FAF76AFE01A8FEF792
:1073D000D3FA2FB030BD30B5AFB004460D46FF2212
:1073E000B82101A8FAF76EFE40F20622ADF804209B
:1073F000ADF806400E22294603A8FAF751FE01A86F
:10740000FEF7BAFA2FB030BD30B5AFB004460D4626
:10741000FF22B82101A8FAF755FE40F20B32ADF871
:1074200004200022ADF806208DF80840286803905B
:1074300001A8FEF7A1FA2FB030BD10B5AEB00446DA
:10744000FF22B8216846FAF73DFE40F21531ADF84B
:107450000010ADF802406846FEF78EFA2EB010BD5F
:1074600070B5AEB005460C461646FF22B8216846F8
:10747000FAF728FE40F20233ADF80030ADF80240D2
:107480008DF804508DF808606846FEF775FA2EB046
:1074900070BD0000FEB50E461C46B07800250127E1
:1074A000CDE900750290182309221021284670F6B4
:1074B000D5F8EFF311811C4802781C480068C0F32E
:1074C0000220401C8740D019C0B280F31188C4F359
:1074D0000724174A02EBC400056045604FF6FF70B1
:1074E00022F83400C8B280F31188204691F692FB4E
:1074F00020468AF65DFD204691F678FA204600F097
:1075000009FA002086F6F4F90A48006838B1C36B1E
:107510002BB1B0789030C2B200212046984786F651
:107520002FFA0020FEBD000002E400E00CED00E0B8
:10753000A2380020843300202DE9F04F87B00446A4
:10754000EFF311890220FBF797FB0546FBF7B8FB29
:10755000401C4FF0010808FA00F02844C0B280F344
:10756000118886F60DFA8246694D0727002695F8A0
:10757000A500DC23CDE90170CDE903640220009071
:1075800009221021304670F669F88DF8194095F8F7
:10759000A5000C210D224FF0090B0A2874D2DFE858
:1075A00000F0050C9C9C9C19283C424D87F6A4FCDD
:1075B00085F8A58085F8A86094E0002C09D085F8AE
:1075C000A56085F8A6608DF8181006A9002086F63B
:1075D000B9FA87E095F8A600A22804D087F644FE01
:1075E00085F8A5B07EE089F653FD062085F8A50054
:1075F00078E04CB187F638FE85F8A5B0042085F810
:10760000A80085F8A9406DE085F8A5708DF81810E0
:1076100006A9002086F696FA64E089F65BFE08204B
:1076200085F8A5005EE0002C5CD085F8A5708DF88B
:10763000182006A9002086F685FA53E0A4356E705E
:10764000FF2028702879A43D042807D0062812D0EE
:10765000304C012819D0032824D043E085F8A860D5
:107660008DF8181095F8A9008DF8190006A90020CA
:1076700086F668FA36E085F8A8608DF8182006A925
:10768000002086F65FFA2DE027E085F8A86000204C
:1076900086F62EF9206810B1406C00B1804786F65E
:1076A0006FF91FE085F8A860D5F8AC0000780128D4
:1076B00018D0002086F61CF9206858B1806B48B1BC
:1076C000154800888CF6A8FD2168C0B2124A8B6B61
:1076D0000021984786F654F904E09D220FA115A0D9
:1076E00000F61CFB95F8A500CDE900870290DD238C
:1076F0000922102100206FF6B1FF504686F6F8F8F7
:1077000009F0FF0080F3118807B0BDE8F08F00009A
:10771000F43800208433002090380020626C655FCC
:1077200073646B5F6761706D5F70617463682E6313
:107730000000000030000000024901480860704766
:10774000397520004034002070B5AEB006460D46B5
:107750001446FF22B8216846FAF7B4FC40F20A3317
:10776000ADF80030ADF802508DF80460206802904A
:10777000606803906846FEF7FFF82EB070BD70B5E4
:10778000AEB006460D461446FF22B8216846FAF709
:1077900099FC40F20E33ADF80030ADF802508DF890
:1077A00004602088ADF80800A0788DF80A006846CB
:1077B000FEF7E2F82EB070BD30B5AFB005460C460E
:1077C000FF22B82101A8FAF77DFC4FF6FF72ADF851
:1077D0000420ADF8065034B1012C09D0022C0CD095
:1077E000032C13D10EE04FF40070ADF804000DE04F
:1077F00040F20120ADF8040008E040F20220ADF8AC
:10780000040003E040F20320ADF8040001A8FEF7F5
:10781000B3F82FB030BD000010B586B000207DF663
:1078200027F8152209A100207CF65EFB0446002CF7
:1078300009D014220B4901A8FAF732FCADF8084030
:1078400001A8FCF753FD06B010BD0000476F6F6440
:1078500069785F4852535F525343535F52454C41DE
:1078600059000000001A210030B5AFB004460D46A3
:10787000FF22B82101A8FAF725FC40F21132ADF839
:1078800004200022ADF806208DF808402888ADF8C5
:107890000C0001A8FEF770F82FB030BD70B5AEB087
:1078A00006460D461446FF22B8216846FAF70AFC40
:1078B00040F20933ADF80030ADF802508DF80460A5
:1078C00020680290606803902089ADF81000684637
:1078D000FEF752F82EB070BD30B5AFB005460C467D
:1078E000FF22B82101A8FAF7EDFB40F20731ADF80D
:1078F00004100021ADF806108DF8085020680390A0
:10790000606804900834059401A8FEF735F82FB09C
:1079100030BD000070B5064600240D4D05EB041087
:1079200090F8B11007290DD1D0F8BC100A79022ABD
:1079300008D14979B14205D190F8B80010B9204674
:107940007DF64EFC641CE4B2052CE7D370BD00004C
:10795000F438002070B5AEB005460C461646FF223E
:10796000B8216846FAF7AEFB4FF44073ADF800302B
:10797000ADF802408DF804503088ADF80800684634
:10798000FDF7FAFF2EB070BD30B5AFB004460D461E
:10799000FF22B82101A8FAF795FB4FF6FF72ADF868
:1079A0000420ADF8064045B140F20520ADF80400D2
:1079B00001A8FDF7E1FF2FB030BD4FF40170ADF825
:1079C0000400F5E730B5AFB004460D46FF22B821FC
:1079D00001A8FAF777FB4FF44572ADF804200022B6
:1079E000ADF806208DF8084028788DF80C0001A825
:1079F000FDF7C2FF2FB030BD30B5AFB004460D4625
:107A0000FF22B82101A8FAF75DFB40F21232ADF86F
:107A100004200022ADF806208DF8084028788DF863
:107A20000C0001A8FDF7A8FF2FB030BD30B5AFB0F6
:107A300005460C46FF22B82101A8FAF743FB40F2A5
:107A40001332ADF804200022ADF806208DF808505E
:107A500003CCCDE9030101A8FDF78EFF2FB030BDA7
:107A600070B5AEB006460D461446FF22B8216846F2
:107A7000FAF728FB40F20F33ADF80030ADF80250B2
:107A80008DF804602088ADF80800A0788DF80A0011
:107A90006846FDF771FF2EB070BD30B5AFB005463A
:107AA0000C46FF22B82101A8FAF70CFB40F2112284
:107AB000ADF80420ADF8065020680390A088ADF81A
:107AC0001000A0798DF8120001A8FDF755FF2FB026
:107AD00030BD10B5AEB00C46FF22B8216846FAF7AB
