:020000040020DA
:102000000000082059202000E9292000016010006C
:10201000E729200065292000F12A200000000000A7
:10202000000000000000000000000000156010002B
:10203000E529200000000000EB292000152A2000DF
:10204000DFF810D000F032FC00F058F800480047EC
:1020500061D4200000000820014880470148004763
:10206000812A200089D420000649074A0868504385
:1020700043F2390210440860400870470149086083
:1020800070470000309600206D4EC64140EA0103C3
:102090009B0703D009E008C9121F08C0042AFAD21E
:1020A00003E011F8013B00F8013B521EF9D27047E2
:1020B000D2B201E000F8012B491EFBD2704700228A
:1020C000F6E710B513460A4604461946FFF7F0FF37
:1020D000204610BD421C10F8011B0029FBD1801ABC
:1020E000704730B504460020034600E05B1C934275
:1020F00003D2E05CCD5C401BF8D030BD70B5054C20
:10210000054D03E0206820448047241DAC42F9D1EE
:1021100070BD000044262100482621002DE9FE4F15
:1021200081EA030404F0004421F0004100944FF0E0
:10213000000B23F0004350EA01045ED052EA03048E
:102140005BD0C3F30A54C1F30A552C44A4F2F33410
:102150000194A0FB0254C1F3130141F48011C3F3B5
:10216000130343F4801301FB024400FB034E840A73
:10217000970A44EA815447EA8357A4FB076802950B
:102180008D0A05FB07854FEA932C04FB0C542705A9
:10219000029D4FEA065847EA1637B5EB08056EEB85
:1021A000070C870E920E47EA811742EA8312A7FBBB
:1021B0000201B6EB0B0164EB00042B0D43EA0C3378
:1021C0005E1844EB1C50DA465146E7FB0201C5F3AA
:1021D00013044FEA0B3343EA14534FEA0432019CD1
:1021E00043EA0603A4F10C040294009CCDE900B478
:1021F00000F082FA03B0BDE8F08F00200146F9E755
:1022000058585247010000002655000000202000C9
:10221000002020007FED9247010100000000000037
:1022200000000000000000000000000000000000AE
:10223000000000000000000000000000000000009E
:102240002DE9FE4F804681EA0300C00F0C46009046
:1022500021F0004123F00045B8EB0200A94105D26E
:102260004046214690461C460B46024623F000405D
:10227000104347D0270DC7F30A00C3F30A51029059
:10228000401A019040286BDAC3F3130040F4801B1E
:102290000098924620B10023D2EB030A63EB0B0BAC
:1022A00001985946C0F14002504600F0AEF906468A
:1022B0000D4650465946019A00F0C6F910EB080049
:1022C0006141002487EA115284EAE7731A4340D03F
:1022D000009A62B3019A012A4FEA075215DC001BEB
:1022E00061EB02014FF0004202EA0752CDE90042E1
:1022F000001C41F5801132462B4600F0FDF903B079
:10230000BDE8F08F40462146F9E7001B61EB020172
:10231000001C41F5801300185B412018A2F500173E
:1023200047EB030140EAD570B6196D4111E06D0825
:102330004FEA360645EAC0754FEA0752001B61EBCB
:102340000201001C41F5801149084FEA30000019D4
:10235000514132462B4603B0BDE8F04F00F0BDB905
:102360000098012240000023D0EB020263EBE073EF
:10237000009821464FEAE074B8EB000061EB0401DD
:10238000E9E783F000435BE781F0004158E72DE97E
:10239000F04D81EA030404F0004B21F0004514469F
:1023A0004FF0000A23F0004150EA050220D054EA21
:1023B00001021DD0C5F30A570246C5F31303C1F34A
:1023C0001300C1F30A5640F4801543F48013A7EBC1
:1023D0000608101BD64608F2FD3873EB050002D341
:1023E00008F1010801E092185B41B8F1000F03DA2F
:1023F00000200146BDE8F08D00204FF48011064614
:1024000084460EE0171B73EB050705D3121B63EB25
:10241000050306434CEA010C49084FEA30009218C4
:102420005B4150EA0107EDD152EA030012D082EA83
:10243000040083EA0501084305D0101BAB4106D216
:102440000122002306E000224FF0004302E06FF07B
:10245000010253101AEB06004CEB085110EB0A0076
:1024600041EB0B01BDE8F04D00F037B930B4044644
:1024700096230800214604D0B62330BC002200F089
:10248000FEB820460021F8E70EB540F23341029134
:102490000021CDE900110A460B4600F02DF903B0EA
:1024A00000BD0EB540F2334202920022CDE9002277
:1024B000134600F021F903B000BD20F00040C20D2A
:1024C000C0F3160040F400007F2A02DA0020014623
:1024D00070470021962A03DCC2F19602D040704773
:1024E000963A00F092B870B5C1F30A5201F0004577
:1024F0000024C1F3130140F2FF3341F480119A42EA
:1025000001DA002070BD40F233439A42A2F2334216
:1025100003DC524200F088F800E090402C43F1D0F8
:10252000404270BDC1F30A5210B5C1F3130140F22D
:10253000FF3341F480119A4201DA002010BD40F2CD
:1025400033439A42A2F2334203DC524200F06CF869
:1025500010BD904010BD00F0004230F000400AD0A5
:10256000C10D01F56071C0F3160042EA0151C208C5
:1025700040071143704700200146704730B50B46B5
:10258000014600202022012409E021FA02F59D42A3
:1025900005D303FA02F5491B04FA02F52844151E77
:1025A000A2F10102F1DC30BD2DE9F05F054600200B
:1025B00092469B4688460646814640241BE02846B4
:1025C00041464746224600F02FF853465A46C01A65
:1025D000914110D311461846224600F016F82D1AE4
:1025E00067EB01084F4622460120002100F00DF85C
:1025F00017EB00094E41201EA4F10104DFDC484620
:1026000031462A464346BDE8F09F202A04DB203AA3
:1026100000FA02F1002070479140C2F1200320FA35
:1026200003F3194390407047202A04DB203A21FA33
:1026300002F00021704721FA02F3D040C2F12002DB
:102640009140084319467047202A06DBCB17203AF1
:1026500041FA02F043EAE07306E041FA02F3D040A7
:10266000C2F1200291400843194670470029A8BFD3
:102670007047401C490008BF20F00100704710B4AB
:10268000B0FA80FC00FA0CF050EA010404BF10BC60
:10269000704749B1CCF1200421FA04F411FA0CF18D
:1026A00018BF012121430843A3EB0C01CB1D4FEAC6
:1026B00000614FEA102042BF002010BC704700EBC1
:1026C000C35010440029A4BF10BC7047401C4900EF
:1026D00008BF20F0010010BC704710B5141E73F144
:1026E000000408DA401C41F1000192185B411A43D2
:1026F00001D120F0010010BD2DE9F04D92469B461E
:1027000011B1B1FA81F202E0B0FA80F220329046C3
:10271000FFF77BFF04460F4640EA0A0041EA0B013F
:1027200053465A46084313D0114653EA010019D0C4
:10273000C8F140025046FFF777FF05460E46504667
:1027400059464246FFF761FF084305D0012004E0E7
:1027500020463946BDE8F08D0020054346EAE07684
:102760002C4337430A986305E40AA0EB08000022D3
:10277000FD0A44EA47540A3002D500200146E9E741
:10278000010510196941DDE9084500196941BDE8F5
:10279000F04DA2E72DE9F041054621F000400C463E
:1027A000284309D0C4F30A5040F23341884205DD82
:1027B00028462146BDE8F0812846FBE740F2FE317D
:1027C000884210DC0CDB4FEA043040EA155050EA36
:1027D000053105D0104804F0004101430020E9E72D
:1027E00000200146E6E7A0F233404642C6F140022F
:1027F00028462146FFF709FF074688462846214616
:102800003246FFF711FF43463A46FFF766FF32466E
:10281000BDE8F041FFF7F9BE0000F03FC1F30A52F6
:10282000C1F3130140F2FF3341F480119A4202DAFE
:1028300000200146704740F233439A42A2F23342ED
:1028400002DC5242FFF7F0BEFFF7DFBE30B5041ED8
:1028500071F1000404DB4FF00044404264EB0101DD
:10286000141E73F1000405DB1C464FF00043524276
:1028700063EB04038B4208BF824230BD30B5041EB7
:1028800071F1000404DB4FF00044404264EB0101AD
:10289000141E73F1000405DB1C464FF00043524246
:1028A00063EB0403994208BF904230BD064C074DCC
:1028B00006E0E06840F0010394E807009847103410
:1028C000AC42F6D3FFF7C0FB0426210044262100CA
:1028D00070B58C1810F8015B15F0070301D110F8E2
:1028E000013B2A1106D110F8012B03E010F8016B0F
:1028F00001F8016B5B1EF9D12B0705D40023521E92
:102900000DD401F8013BFAE710F8013BCB1A921CF9
:1029100003E013F8015B01F8015B521EF9D5A142F7
:10292000D8D3002070BD03F0C3BB00000B48016882
:1029300009070BD4C16921F00301C161016841F0AD
:1029400008010160016821F0080101600448416E3E
:1029500021F0800141667EF6E7BE0000005001B024
:10296000002001B0FEE710B503F090FE10BD00009E
:1029700070B503201749096841F38001491C164DC1
:1029800000290CD113490C310968C1F3000131B1A0
:1029900010498C39096801F00701884303D0286980
:1029A000401C286170BD0D4C206820F001002060A3
:1029B000206840F00400206009494FF400300860AE
:1029C00003F014FFE868401CE860206840F0010054
:1029D000206070BDD4A400405893002088E20040DD
:1029E00084E200E0FEE7FEE7FEE7FEE728F6D6B861
:1029F00005280CD2064A116801F4E021B1EB004F22
:102A000005D0116821F4E02141EA004010607047D0
:102A100000A00040FEE700000249096801F007013C
:102A20000170704700A0004070B50446072C20D20A
:102A3000104E306800F00700A04214D0032008F0C8
:102A400089FFF06820F0070545F00100F06000BF45
:102A500000BF00BF00BF204608F07CFF064850F8CA
:102A600024002843F060044804491C3850F824002E
:102A7000086070BD00A00040001F2100600300201E
:102A80000248016841F470010160704788ED00E080
:102A900002480068001D07F095BE0000109D002050
:102AA00002484068001D07F08DBE0000109D002008
:102AB00002488068001D07F085BE0000109D0020C0
:102AC0000248C068001D07F07DBE0000109D002078
:102AD00002480069001D07F075BE0000109D00202F
:102AE00002484069001D07F06DBE0000109D0020E7
:102AF000FEE700000FB4054B10B503A9044A029885
:102B000000F0D0FC10BC5DF814FB00004173200005
:102B1000748D00200FB41CB50246002007AC0029BC
:102B20000BD0491ECDE90021054B6A462146069887
:102B300000F0B8FC009A002111701CBC5DF814FB79
:102B4000D33B20000FB4084B10B504A902AA039888
:102B500000F0A8FC044602A9002001F045F8204638
:102B600010BC5DF814FB0000E93B20007CB5044676
:102B700000201D46164600290BD0491ECDE9004114
:102B8000044B6A462946304600F08CFC009A00212E
:102B900011707CBDD33B200037B514460846064B68
:102BA0006A46214600F07EFC04466946002001F09A
:102BB0001BF820463EBD0000E93B2000002809DB51
:102BC00000F01F02012191404009800000F1E02047
:102BD000C0F880127047002809DB00F01F020121B5
:102BE00091404009800000F1E020C0F88012704759
:102BF00000280DDB00F01F020121914040098000F8
:102C000000F1E020C0F88011BFF34F8FBFF36F8F4A
:102C10007047002809DB00F01F02012191404009A4
:102C2000800000F1E020C0F800117047002809DBA7
:102C300000F01F02012191404009800000F1E020D6
:102C4000C0F80011704700280FDB4109890001F12D
:102C5000E021D1F8001100F01F0201209040014254
:102C600001D00120704700207047002070470028E5
:102C700004DB00F1E02090F80004704700F00F0042
:102C800000F1E02090F8140D7047002804DB00F1FB
:102C9000E02090F80004704700F00F0000F1E02001
:102CA00090F8140D7047002804DB00F1E02090F844
:102CB0000004704700F00F0000F1E02090F8140DC0
:102CC0007047002804DB00F1E02090F80004704712
:102CD00000F00F0000F1E02090F8140D70470000A4
:102CE00002480068C0F30220704700000CED00E0CD
:102CF00002480068C0F30220704700000CED00E0BD
:102D000002480068C0F30220704700000CED00E0AC
:102D1000EFF31080704700002DE9F0412DED020B1C
:102D20009FED3D0B2DED028B9FED3D8BDDE90254B8
:102D3000C4F30A50A0F2FF36142E37DA002E18DA48
:102D400053EC102B9DED020B51EC100BFFF778FAB2
:102D500053EC182BFFF792FD57D2002CBCBF4FF05D
:102D60000044002551DB54EA050018BF2E4C1BD14E
:102D70004BE02E4820FA06F704EA070028431FD04C
:102D800053EC102B9DED020B51EC100BFFF758FA92
:102D900053EC182BFFF772FD37D2002C03DD4FF4F4
:102DA0008010F0400444BC4300252EE0332E07DCA5
:102DB000A6F114004FF0FF3121FA00F73D4206D191
:102DC0009DED020BBDEC028B02B0BDE8F08153EC2F
:102DD000102B9DED020B51EC100BFFF7D5FA53ECC5
:102DE000182BFFF74BFD10D2002C0DDD142E08BF61
:102DF000641C09D0C6F13400012101FA00F0284416
:102E0000A84238BF641C0546BD43CDE902549DED80
:102E1000020BD7E7000000009C7500883CE4377E79
:102E200000000000000000000000F03FFFFF0F0066
:102E300010B52DED020B2DED088B84B09DED0C0B24
:102E400051EC100BFFF7A6FC41EC180B9DED0C0BA1
:102E500053EC182B51EC100BFFF793FA41EC190BC4
:102E60000D989FED290B10F0004F53EC102B51ECF7
:102E7000190B9FED21AB9FED22BB0ED0FFF7E6FCB7
:102E80000ED953EC1B2B51EC190BFFF7F7FC1CD29E
:102E900014E000BF41EC180B17E0FFF7D7FC06D297
:102EA00053EC1A2B51EC180BFFF76BFAF2E753ECCB
:102EB0001B2B51EC190BFFF7E1FC06D853EC1A2B36
:102EC00051EC180BFFF7BCF9E4E78DED028B9DED9B
:102ED0000C0B18EE901A10EE900A8DED000B61F3BA
:102EE0001E0003909DED020B04B0BDEC088B02B0F8
:102EF00010BD000000000000000000000000F03FD6
:102F0000000000000000E03F000000000000E0BF03
:102F100002E008C8121F08C1002AFAD170477047A2
:102F2000002001E001C1121F002AFBD1704780F38D
:102F3000108870472DE9F74F07460298DFF888A1FF
:102F4000DFF888814FEA500B5C46019D6048CAF863
:102F500000003F20D8F8041060F30501C8F8041001
:102F6000D8F8040020F48030C8F80400DAF8000033
:102F700020F4700040EA0750CAF80000DAF80000B8
:102F800020F4702040EA0740CAF800000D2F05D158
:102F9000DAF8000040F40040CAF800000E2F05D116
:102FA000DAF8000040F48040CAF80000DAF80000C7
:102FB00040F40050CAF80000DAF8000020F0605039
:102FC000CAF80000DAF8000020F00F0040F003001B
:102FD000CAF80000002000F0CFF8012871D1DAF81B
:102FE000000040F08040CAF80000002008E0D8F857
:102FF000081041F48031C8F80810401C411C05D06D
:10300000D8F80810C1F300210029F0D1072000F002
:10301000B3F8012855D141E000264FF47A7924E035
:103020004E451ED9DAF8000020F08040CAF80000B2
:10303000DAF8000040F00040CAF80000DAF80000BA
:1030400020F00040CAF80000002000F095F80128A8
:1030500037D12049086A401C086205200CF6D6FAD0
:1030600072E701200CF6D2FA761CD8F80800C0F3FB
:1030700000200028D4D0D8F8080000F07F02A24237
:1030800000D92246002006E0D8F800102980090C5B
:1030900069802D1D401C9042F6D3A41A002CBBD190
:1030A0000298C00708D0D8F80800C0F30020002814
:1030B000F9D0D8F800002880BDE8FE4F002000F0CD
:1030C0005BB8BDE8FE8F000000A8004000E00040B3
:1030D0000A070807589300202DE9F04104461548D7
:1030E0000021C0F8941001214161134D686A134E0C
:1030F000F06200F0010149420140C80512D440F2DB
:10310000011704E044B1641E01200CF67FFAA8699F
:10311000B84204D1012003E00020BDE8F081002086
:103120000028EFD00648006870626868B06201202D
:10313000F3E7000000D01D4200E00040589300205B
:1031400000A8004009480A49826A4A60094B426A5D
:103150001A60808D00F0010252420240D00503D473
:10316000086A20F0010008627047000058930020B0
:1031700000E0004000A800402DE9F0410546114F55
:10318000F868C0F30240A84202D10120BDE8F081F6
:10319000F86820F007002843F86000244FF6FF7617
:1031A000F868C0F30240A84205D001200CF62EFAC0
:1031B000641CB442F4D3B44201D10020E6E70120FC
:1031C000E4E7000000E000402DE9FF5F82B000214D
:1031D000DDE90430020DDDF840B0034318D044F6B9
:1031E0001050A2F2FF3242431514119801281FD04B
:1031F000A5EB0B00401C5FEA000A4FF000064E4FA3
:10320000DFF83891B046504615D5CAF1000413E0F6
:10321000119801244AA3012801D16FEA0B010298F9
:10322000119AC0E90031C0E9024206B0BDE8F09F42
:10323000CBF10000DFE704460021404A491842EB89
:103240000450CDE9001012E0E00707D032463B46BB
:1032500040464946FEF762FF8046894632463B4675
:1032600010461946FEF75AFF06460F466410002C1A
:10327000EAD1DDE90401DDE90023BAF1000F06DA45
:10328000FEF74CFF42464B46FEF748FF05E0FFF7CE
:103290007EF842464B46FFF77AF804460E46002277
:1032A000284BFFF7EBFA03D84FF0FF30014607E059
:1032B0000022254B20463146FEF7C2FFFFF7AEFA4B
:1032C000102409E0002C0ADB0A220023FFF76CF926
:1032D000039B30321A55641E50EA0102F2D1641C7D
:1032E000039AC4F111031444119A012A03D0012254
:1032F00008430DD10AE0084304D000204FF0110B21
:10330000119072E7A3EB0B056D1E0DE05B4504DD2C
:103310004FF0000205F1010504E003DA4FF000026E
:10332000A5F10105002AECD002981199C0E90231FB
:10333000C0E9004579E70000000014400000F03FBC
:10334000300000000000F0430000E03FF0B506460A
:103350002DED068B89B00D469FED459B202101A8E0
:10336000FEF7ADFEB0EE498AF0EE698A4248C08BA6
:10337000FFF78AF89FED411B53EC112BFFF707F87D
:1033800041EC1A0B102201A93046FFF7D3FD0024AF
:1033900001AF04F1080037F81000FFF775F853EC9F
:1033A000182BFEF74DFF41EC180B641CE4B2082CFF
:1033B000EFD351EC180B9FED330B53EC102BFEF7B2
:1033C000ADFE41EC180B0D2E02D00E2E29D046E09A
:1033D0009FED2E0B51EC100B81F0004141EC190BCD
:1033E0006888FFF751F853EC192BFEF797FE41EC74
:1033F000190B2888FFF748F853EC182BFEF7C4FF89
:1034000053EC192BFEF7C3FF9FED221B53EC112B3E
:10341000FEF7BDFF53EC1A2BFEF712FF41EC190B20
:103420001DE09FED1E0B51EC100B81F0004141ECB3
:10343000190B6888FFF728F841EC1A0BA888FFF7EA
:1034400023F853EC182BFEF79FFF53EC1A2BFEF7D3
:103450009EFF53EC192BFEF761FE41EC190B09B0EE
:10346000B0EE490AF0EE690ABDEC068BF0BD000033
:103470000000000000000000B04500200000000037
:1034800000005940000000000000C03F00000000A4
:103490000000004079E9263108AC5CBFB76DDBB6AF
:1034A0006DDB0E402DE9FF4F95B09B4689460646E1
:1034B00000250FE2252877D100242746F84A01216C
:1034C000059400E0044316F8013F203B01FA03F0A5
:1034D0001042F7D130782A2811D06FF02F033078BE
:1034E000A0F13002092A16D8059A44F0020402EB32
:1034F000820203EB42021044761C0590EFE759F874
:10350000042B0592002A03DA504244F4005405903B
:1035100044F00204761C30782E2816D116F8010FDC
:1035200044F004042A280DD06FF02F023078A0F167
:103530003003092B09D807EB870302EB4303C718B5
:10354000761CF3E759F8047B761C30786C280FD092
:1035500006DC4C2817D068280DD06A2814D104E066
:10356000742810D07A280FD10DE044F400140AE03A
:1035700044F4801401E044F440147278824202D191
:1035800004F58014761C761C307866280BD013DC8A
:10359000582877D009DC002875D04528F6D0462871
:1035A000F4D047281AD19DE118E0632835D064286B
:1035B00079D0652812D195E1702873D008DC67288E
:1035C000F1D069286FD06E280DD06F2806D1B5E0F4
:1035D00073282CD0752875D0782874D05A4617993E
:1035E00090476D1C75E1C4F30250022809D00328EE
:1035F0000DD0D9F8001004280DD00D6009F1040990
:1036000067E1D9F80010EA17C1E90052F6E7D9F8E6
:1036100000100D80F2E70D70F0E719F8041B8DF82B
:10362000001000208DF80100EA46012003E059F85F
:1036300004AB4FF0FF3061074FF0000102D40DE002
:1036400008F101018846B9420FDA8045F8DB1AF823
:1036500008100029F4D108E008F1010188468142F0
:10366000FADB1AF808100029F6D105985B46A0EBA2
:10367000080721463846179A00F094FA284400EBD0
:10368000080507E04DE029E10DE01AF8010B5A4664
:1036900017999047B8F10108F7D25B4621463846A2
:1036A000179A13E142E00A220092C4F302524FF04B
:1036B000000A022A08D059F804CB032A4FEAEC7119
:1036C0000AD00DE029E02AE009F1070121F0070204
:1036D000F2E802C1914609E00FFA8CFC4FEAEC7166
:1036E000042A03D14FFA8CFC4FEAEC71002907DA67
:1036F0000A460021DCF1000C61EB02012D2202E000
:10370000220504D52B228DF80420012203E0E207D4
:1037100001D02022F7E7904659E00A2102E010226A
:103720000DE010214FF0000A00910BE010224FF045
:10373000000A44F004040827009203E008224FF036
:10374000000A0092C4F30252022A05D059F804CBB1
:103750000021032A08D009E009F1070121F007023E
:10376000F2E802C1914605E01FFA8CFC042A01D15F
:103770000CF0FF0C4FF00008220728D5702806D067
:10378000009B83F0100353EA0A0305D00EE04022A9
:103790008DF80420012208E05CEA010206D0302204
:1037A0008DF804208DF8050002229046009B83F0DE
:1037B000080353EA0A030AD15CEA010201D1620755
:1037C00005D530228DF804204FF001087F1E5828BF
:1037D00004D034A003900EA802900DE036A0F9E7C3
:1037E00053466046009AFEF7DFFE84460398825CEB
:1037F0000298401E029002705CEA0100F0D102982B
:1038000006A9081A00F1200A600702D524F48034C2
:1038100000E00127574502DDA7EB0A0000E0002089
:1038200000EB0A01009005984144401A0590E0031E
:1038300006D45B462146179A059800F0B3F9054473
:10384000002706E001A85A46C05D179990476D1CF5
:103850007F1C4745F6DBE0030CD55B462146179AF3
:10386000059800F09FF9054404E030205A46179966
:1038700090476D1C0099481E00900029F5DC08E077
:10388000029802995A460078491C0291179990476C
:103890006D1CBAF10001AAF1010AF1DC65E100003A
:1038A0000928010030313233343536373839616216
:1038B00063646566000000003031323334353637DA
:1038C00038394142434445460000000000F058F9B1
:1038D0000544761C307800287FF4ECAD19B02846FA
:1038E000BDE8F08F620700D4062709F1070222F035
:1038F000070CFCE80223E14603F000485FEA080CED
:1039000002D00FF2702C0DE05FEA045C02D50FF2DA
:10391000682C07E05FEAC47C02D00FF2602C01E063
:10392000AFF2700C4FF0FF3823F00043CDF850C0D9
:1039300065280CD006DC452809D046281DD047282C
:103940003DD13DE0662818D067287ED138E00021BF
:10395000112F01DB112000E0781CCDE9000106A940
:103960000EA8FFF731FCDDE90F010E9A039100214B
:10397000009207F1010A04914DE04FF000400097DA
:10398000CDE9011006A90EA8FFF71EFCDDE90F0224
:1039900003920E9B11990022DDF80CA00093049273
:1039A00011B9791C00EB010AB7EB0A0004D4C0F18D
:1039B000FF3007F1010A0490AAEB0700019044E0F0
:1039C000012F00DA01270021112F01DD112000E075
:1039D0003846CDE9000106A90EA8FFF7F5FBDDE9A1
:1039E0000F010E9A0391002104910092BA4621071B
:1039F0000CD40399514500DA8A46BAF1010F05DD6E
:103A0000009AAAF10101515C302908D0B84202DACB
:103A100010F1040F06DA0121CDE9011015E0AAF139
:103A20000101E9E7002805DC049901440491AAEBAF
:103A3000000102E0411C514500DD8A460499401A0C
:103A4000401C01904FF000400290200704D40198E0
:103A5000504501DBCDF8048000208DF84F0002981E
:103A60000DF14F07B0F1004F25D02B200E9002989A
:103A70004FF0020800280CDA404202902D200E90F0
:103A800007E00A210298FEF779FD3031029007F82D
:103A9000011DB8F10001A8F10108F2DC029800282C
:103AA000EFD1791E0E980870307800F0200040F0B9
:103AB000450007F8020D12A8C01B00F10708149872
:103AC000007800B1012000EB0A01019801EBE071E0
:103AD00005984144401A401E0590E00306D45B4619
:103AE0002146179A059800F05DF80544149800786F
:103AF00018B15A46179990476D1CE00324D55B46D0
:103B00002146179A059800F04DF805441CE00498EA
:103B1000002807DBDDE90301884203DD0098405CF3
:103B2000179901E0179930205A469047049805F1FB
:103B30000105401C04900198401E019004D12E20E4
:103B40005A46179990476D1CBAF10001AAF1010A73
:103B5000DDDC05E017F8010B5A46179990476D1CFC
:103B6000B8F10001A8F10108F4DC5B462146179A80
:103B70000598ABE62D0000002B000000200000009F
:103B80002DE9F041044600251E461746880404D45A
:103B900005E039462020B0476D1C641EF9D5284643
:103BA000BDE8F0812DE9F041044600251E4690460F
:103BB000C80301D5302700E02027880404D505E09C
:103BC00041463846B0476D1C641EF9D52846BDE80D
:103BD000F0814A68002A06D00A68531C0B601070F6
:103BE0004868401E486070470A68531C0B6010709C
:103BF0007047000010B595F6A1FF08B1002010BD78
:103C0000BDE810403C21014802F01CBE7445002074
:103C100010B502F005FD10BD0AF0B8B970B5044644
:103C20000D46294620460CF079FD2946204609F02C
:103C3000F9FB2946204609F023FD70BD03490A68B7
:103C400022F4C06242EA40200860704704A80040A5
:103C50000748084900E0401E0A68C2F340020AB162
:103C60000028F8D1002802D10449034808607047B1
:103C7000A086010038A700400001A1C58CE20040E9
:103C800006460F46154672B63846FEF723FA402818
:103C900001D9402002E03846FEF71CFA8046304643
:103CA000FEF718FA402801D9402002E03046FEF71E
:103CB00011FA04469C211048FEF701FA42463946A3
:103CC0000D48FEF7E3F90C48224631465C30FEF71A
:103CD000DDF909484FF0AA31016445644FF0BB316A
:103CE00081644FF0CC3101654FF0DD3181650020FA
:103CF00000F004F8FEE700003CA0002030B5ADF273
:103D00000C4D04464FF4806103A8FEF7D8F9194D15
:103D1000202085F83F0085F89B003CB12846012C07
:103D2000436DC26C09D0022C0CD00FE0114A12A1D5
:103D30005C3203A8FEF706FF08E012A103A8FEF715
:103D400001FF03E017A103A8FEF7FCFE03A90CA2E4
:103D5000686CCDE90121009019A3064A19A1002041
:103D600000F0D0FA012C01D000F068FA0DF20C4DF1
:103D700030BD00003CA000205B4552524F525D20F8
:103D8000257300005B5741524E494E475D205061FC
:103D900072616D303A25642C506172616D313A2543
:103DA000640000005B504152414D5D2050617261E2
:103DB0006D303A25642C506172616D313A25640092
:103DC000000000006170705F6173736572742E6330
:103DD00000000000014895F663BD0000588D0020EA
:103DE00006460F4690461D4672B64046FEF772F9EB
:103DF000402801D9402002E04046FEF76BF9044616
:103E00009C210D48FEF75BF9224641460A48FEF721
:103E10003DF909484FF05531016445644FF0663172
:103E20008164C6644FF0773101654765C943816598
:103E30000220FFF763FFFEE73CA000202DE9F041E0
:103E400006460F4690461D464046FEF743F9402879
:103E500001D9402002E04046FEF73CF904469C218F
:103E60000D48FEF72CF9224641460B48FEF70EF9A5
:103E700009484FF011310164456449008164C6640A
:103E80004FF03331016547654FF044318165BDE83E
:103E9000F0410120FFF732BF3CA000202DE9F041A6
:103EA0000C2802D3E820BDE8F08100EBC0001A4CDA
:103EB00000EB400614F82600F0B1EFF31085012066
:103EC00080F3108804EB86000746001D06F010F909
:103ED000002004F82600FF203872002000EBC0010B
:103EE00001EB410114F82110012902D0401C0C28DB
:103EF000F4D30C2802D00AE0E920D4E700200AF02D
:103F00007BF9032023F653FA232023F650FA85F396
:103F100010880020C7E70000549600200C2801D329
:103F20000020704700EBC000054900EB400011F88D
:103F300020201AB101EB8000001D7047002070475F
:103F4000549600202DE9F05F0546894600244FF085
:103F5000FF3846464FF0010A002D16D0474903208E
:103F60000BF072FE464923200BF06EFE287970B1EB
:103F700001280CD002280AD0032808D0042806D033
:103F8000052804D04046BDE8F09FE520FBE7EFF3AD
:103F90001083012181F310883A4F04EBC40101EB37
:103FA000410117F8212052B107EB8102D5F800B08A
:103FB000D2F804C0DC4514D1127A824211D104EB4C
:103FC000C40000EB400207EB8202384692F8312031
:103FD000022A04D026B2012200F8212004E00C2499
:103FE00002E0641C0C2CD8D383F310880C2C3FD235
:103FF0000022032124480AF0E7F804EBC40000EB98
:10400000400007EB8004296861602879207204F180
:104010000C00242205F10801FEF738F81B48A063C4
:104020001B4820641B48E06300206064C4F868906B
:104030001949606888420AD10320FEF704FE98B946
:10404000032023F6A7F9032023F6C2F90CE0134955
:10405000884209D12320FEF7F6FD28B9232023F654
:1040600099F9232023F6B4F9201D06F0B1F8824611
:10407000BAF1000F00D04646304684E7B161100027
:10408000E161100054960020501C21006D69200051
:10409000DD6820008D6820000090014000A00140F4
:1040A00010B502460846052A25D2DFE802F00303D0
:1040B00003111900114951F832200104090C05D0EF
:1040C00022B10146104606F0FFF910E0E42010BDD1
:1040D00010F0FF0F02D005F0B7FF08E0E42010BD9C
:1040E00010F0FF0F05D00146002023F6F7F800205E
:1040F00010BDE42010BDE62010BD00006C1C2100A6
:1041000070B58EB005460C46474991E84D00CDE9A3
:104110000A02CDE90C36D1E90523086906AEC96962
:104120000DC6099114224049203101A8FDF7AEFFC8
:10413000D4B13E4906200BF087FD3D4907200BF026
:1041400083FD3C491B200BF07FFD3B4912200BF007
:104150007BFD35493C39A1F12C02052D61D2DFE808
:1041600005F0060606213900E5200EB070BD207965
:1041700031F810000B90607932F810000C90A079A3
:104180000D9020680A902848543850F8350021884E
:104190000904090C04D018B10AA906F0BFF939E0E6
:1041A000E420E2E7207901EB4000808A0790607903
:1041B00002EB4000C0880890A07909902068069022
:1041C000207810F0FF0F03D006A805F03FFF21E094
:1041D000E420CAE72079031F042B01D8E720C4E7B5
:1041E000022819D001200290207901EB4000008DB7
:1041F0000390607902EB400080890490A0790590DB
:1042000020680190207810F0FF0F08D001A900204D
:1042100023F674F80020A8E702200290E4E7E420E7
:10422000A3E7E620A1E70000C01C21009162100076
:104230008B62100087621000816210000248406AA1
:10424000002800D000477047D8A1002000B587B0F3
:1042500003208DF800001D208DF8160001208DF838
:1042600017008DF818008DF81900044A04496846B3
:1042700000F01CF8FFF7AEFD07B000BD55D22000DE
:1042800027142100002806D0002904D0024AD26950
:10429000002A00D010477047D8A100200248006AC9
:1042A000002800D000477047D8A1002070B50D4607
:1042B00016460D4C00280AD00178032911D8012197
:1042C000A17601461A222046FDF7E0FE05E0002017
:1042D000A0761A210448FDF7F2FEE561266200206F
:1042E00070BD012070BD0000D8A10020044A104418
:1042F000807D084201D001207047002070470000F7
:10430000D8A100202DE9FE4F074692469946002489
:10431000A046CDF80480CDF8088059480178B9420C
:1043200002D2807E00287DD10EAD0095EFF311867C
:104330000220FEF7AAFC8346FEF7DAFC401C0121AE
:1043400081400BEB0100C0B280F311880121384697
:10435000FFF7CCFF38B14B484B4950F82720204697
:1043600000F0A4F804461C213846FFF7BFFF0028E0
:104370005ED046A24449204600F098F8204484B21A
:1043800004213846FFF7B2FFF8B152463E492046B5
:1043900000F08CF8204484B208213846FFF7A6FFCD
:1043A00038B13BA23849204600F080F8204484B25E
:1043B0000BE010213846FFF799FF30B135A23249A2
:1043C000204600F073F8204484B208213846FFF7F5
:1043D0008DFF90B14A462C49204600F067F82044F2
:1043E00084B210213846FFF781FF30B12AA2264956
:1043F000204600F05BF8204484B210213846FFF7D5
:1044000075FF60B126A2052101A80C9BFEF782FB77
:1044100001AA1D49204600F049F8204484B221A297
:10442000194900E029E0204600F040F8204484B219
:104430001548C4F5807120442B460D9AFEF796FB73
:10444000CDF800804FF48071002804DB20448842BE
:1044500001DC85B200E00D46A81C884200D9FE258B
:1044600011A20949284600F021F8284481B20648E3
:10447000FFF708FFF0B280F31188BDE8FE8F00005F
:10448000D8A10020648D0020D8A0002028000000C2
:10449000200000003A000000204C696E653A0000E0
:1044A000256C6400292000000D0A000030B5054687
:1044B000002000290CD0002A0AD006E02B18FF2B80
:1044C00006D8CC54521C401C80B21478002CF5D174
:1044D00030BD000010B5084A06214CF2010092F6EA
:1044E00035F9FFF7B3FE4FF4E1300CF0B9FEBDE84B
:1044F0001040002009F030BE6C1E210010B50848A5
:10450000017800290AD101210170064893F632F89A
:10451000BDE810400021044893F6C2B910BD000068
:10452000488D0020A5621000A1E020002DE9F04197
:1045300004460D461746002D04D0012D02D001205F
:10454000BDE8F081E4B1DFB1607801281AD0EFF363
:1045500011860220FEF78BFB8046FEF7C1FB401C54
:104560000121814008EB0100C0B280F311880020D6
:104570006070A570E761F0B280F311880020DFE77A
:104580000120DDE70620DBE710B50446002C0CD047
:10459000204600F0B3F9FF2060700021A160E160C7
:1045A000216161610020E06110BD012010BDF0B506
:1045B000DDE90745059981614FF47A76A2FB061C77
:1045C00003FB06C3002702FB0732C0E902120919E8
:1045D0006A41C0E9041200210162F0BD2DE9F041F9
:1045E0000446002C13D0EFF311850220FEF73FFBA9
:1045F0000746FEF775FB401C012606FA00F038441A
:10460000C0B280F311881248002121620EE0002020
:10461000BDE8F081D4E90432D1E9047CDB1B72EB04
:104620000C0202D2016A216203E00846016A0029F5
:10463000F0D104626670064810380168491C0160B8
:10464000016B4160E8B280F311880120E0E70000CF
:10465000609D00202DE9F04105460024EFF311860E
:104660000220FEF704FB0746FEF73AFB401C01213F
:1046700081407818C0B280F31188134A106BE8B1FA
:1046800015B102F1100010E00446206A10631068B2
:10469000401E10600CE0A94206D11168491E11604D
:1046A000296A01622C4603E00846016A0029F2D11A
:1046B00024B1002020626070106B5060F0B280F373
:1046C00011882046BDE8F081509D00202DE9F04181
:1046D000EFF311870220FEF7CAFA0446FEF700FB4B
:1046E000401C012181406018C0B280F31188114D37
:1046F000002608E02078012804D1E16909B1A06909
:10470000884726702D6A2C6A002CF3D1094D103D84
:1047100007E0E16909B1A06988472670206AA863AB
:104720002662AC6B002CF4D1F8B280F31188012022
:10473000BDE8F081609D00202DE9F041EFF3118785
:104740000220FEF794FA0446FEF7CAFA401C01263E
:1047500006FA00F02044C0B280F311881D4DA5F187
:1047600010082DE0D4E90430D8E902125B1A60EB9E
:104770000200D8E91021D21A814124D326702046A4
:10478000FFF768FFA078012806D0124828300021E2
:104790002162016861B10FE0D8E90220D4E9021377
:1047A00051185841C4E904102046FFF717FF07E0ED
:1047B000046005E001F1200001680029FAD10460DD
:1047C0002C6A002CCED1F8B280F311880120BDE80C
:1047D000F0810000609D00202DE9FF5F82460E46BB
:1047E00093464FF00008BAF1000F20D041488642AE
:1047F0001DD8E6B1EFF311870220FEF738FA044620
:10480000FEF76EFA401C012181406018C0B280F3AF
:104810001188504606F090FE10B19AF8010040B1A0
:10482000F8B280F311880F2004B0BDE8F09F01209A
:10483000FAE708F013FD04460D464FF47A7106FBC3
:1048400001F022462B46002106F03AFDDFF8A89041
:10485000B0B1D9F8040048B1D0E90410091B60EBED
:104860000500C9E9021008F073FD04E00021C9F851
:104870000810C9F80C104FF00108D9E9020106E050
:10488000D9F80400D0E90421101B61EB0501CDE942
:10489000020132460023CDF800B05046FFF787FEF4
:1048A0005046FFF79BFE0BF035F94FF0E024D4F8AB
:1048B00000014FF0806510F0806F01D0012000E012
:1048C000002020B91A20FEF779F9C4F80051B8F198
:1048D000000F0AD0D9F80400D0E90431D9E9020266
:1048E000181A61EB020108F0EFFCF8B280F31188AE
:1048F000002099E7008AB907509D00202DE9F0417A
:1049000004460025002C39D0EFF311870220FEF772
:10491000AEF90646FEF7E4F9401C0121814070180B
:10492000C0B280F311886078012824D1144E7068D9
:10493000A0420BD108F092FCD4E90432181A62EBC1
:104940000102C6E9020208F003FD01252046FFF737
:1049500081FE5DB1706848B1D0E90421D6E9020357
:10496000101A61EB030108F0AFFC04E01DB9706898
:1049700008B908F0EDFCF8B280F31188BDE8F081C9
:10498000509D002010B50446114822784FF0FF31A9
:1049900050F82220A2F86810227850F82200A0F8DF
:1049A0006A10606B002801D1A16B71B120B1204663
:1049B00000F070F8002807D1A06B20B1204600F06D
:1049C00009F8002800D1002010BDE42010BD00002F
:1049D000109D002030B58BB004462C216846FDF7B1
:1049E0006EFBA06B009094F83D008DF80400254804
:1049F000009B2549254A834205D1237801EB031109
:104A00004968029107E0009B934204D1237801EBAF
:104A10000311C9680291029929B10099814205D117
:104A20000B20039007E0E7200BB030BD00989042C8
:104A300001D1092003904FF400100490C01205909A
:104A40000020069007900890099040200A900021CD
:104A50006846FFF777FA21780D4D55F82110A1F837
:104A60006A00002801DAE420DEE7FFF757FA217830
:104A700055F821104863217855F82110091D01636C
:104A80000020D1E700900140341D210000A001402A
:104A9000109D002030B58BB004462C216846FDF7F0
:104AA0000EFB606B009094F83C008DF804002548E4
:104AB000009A2549824202D10B22029204E0009A18
:104AC0008A4201D109220292009B204A834205D1E9
:104AD000207802EB00100068039007E000988842FD
:104AE00004D1207802EB0010806803900398D0B1C5
:104AF0004FF480100490002005904FF480710691CF
:104B00000790089009900A9000216846FFF71AFA6A
:104B100021780F4D55F82110A1F86800002804DA1B
:104B2000E4200BB030BDE720FBE7FFF7F7F9217871
:104B300055F821100863217855F82110091D0163EB
:104B40000020EEE70090014000A00140341D21004C
:104B5000109D00202DE9F0410446062C02D3E820E8
:104B6000BDE8F081364D55F82400C0B190F86C10C6
:104B7000A9B1406E41680078FFF792FA0028EFD1A2
:104B800055F82400406E0169007BFFF789FA002880
:104B9000E6D155F824008169222902D012E0E520EF
:104BA000DEE7406E816A90F82400FFF779FA00286A
:104BB000D6D155F82400406EC169007EFFF770FA27
:104BC0000028CDD11F4800EBC40090F9010022F667
:104BD000EEFB55F82400002780F86C7055F824008F
:104BE00080F8007155F8240080F8017155F8240010
:104BF00080F8027155F8240080F80371EFF31086F5
:104C0000012080F31088002055F8201011B191F890
:104C10006C1029B9401C0628F6D3012009F0ECFAE3
:104C200086F3108855F82400001D05F0A3FD55F803
:104C3000240090F86D0008B945F8247000208FE733
:104C4000109D0020041D210070B50446062C01D3E0
:104C5000E82070BD0C4D55F8240018B190F86D1087
:104C6000012901D0E92070BDB0F96800FFF716F9FD
:104C700055F82400B0F96A00FFF710F955F8241030
:104C8000002081F86D0070BD109D002070B50028D7
:104C90000CD004780F4E56F8241049B191F86C20CE
:104CA00032B191F86D1029B1EA2070BDE52070BDD8
:104CB000E92070BDEFF31085012181F31088FFF723
:104CC00061FE20B956F82420012182F86D1085F389
:104CD000108870BD109D002070B5062801D3E82013
:104CE00070BD134C54F820304BB193F86D5035B172
:104CF00039B132B193F80351012D04D010E0E9200D
:104D000070BDE42070BD002583F8035154F82030B5
:104D10005B680225C3F8885054F820305B681B6834
:104D200054F82000001D05F0ABFD0028EAD170BD4D
:104D3000109D002070B504461A4D55F824007030BF
:104D40000AF019FB82B21646A2B155F8240090F879
:104D5000011101290ED0012180F80411802A0FD3FE
:104D600055F82400802200F1800170300AF018FB11
:104D700080260CE055F82410002081F8000170BD59
:104D800055F8240000F1800170300AF009FB55F855
:104D90002400324600F18001001D2CF635FA00286F
:104DA000EDD170BD109D002070B50446062C01D3D6
:104DB000E82070BD184D55F8240090B190F86D3082
:104DC0007BB181B17AB1002680F8026155F82400E8
:104DD00070300AF041FB55F8240090F8001121B121
:104DE0000AE0E92070BDE42070BD90F8011119B906
:104DF00090F86C10012901D0E22070BD012180F8EB
:104E000000112046FFF796FF20B155F8241081F8D5
:104E1000006170BD002070BD109D002010B50446DB
:104E20002078022805D001281AD1BDE810400CF0E6
:104E300017BB03220BA10C48FDF753F950B1A18811
:104E400009480CF0ADFAF422BDE8104006490320F1
:104E5000FFF742BFA2880449012000F0F9FBF2E706
:104E600010BD000041543A00D0C300202DE9F843A2
:104E700004464D4F57F82400061D062C7ED290F8AC
:104E80006C1000297AD0012978D190F800110129FD
:104E900074D190F80111002970D1012180F801111D
:104EA000002157F82400D0E903231344027D02F0C7
:104EB0000102D21D9D184268D36FC3F38003002BFB
:104EC000FAD090F80421A2B1384A1368491C90F82E
:104ED0003B20102A06D08268B3FBF2F26A43B1EBA2
:104EE000C21FF3D957F8240070300AF044FA85B293
:104EF00026E0B0F82480C58C001D2BF6FFFB57F888
:104F0000240041F2883300EB0801491B8031001D69
:104F10002A462CF626F9E5E757F8240001227030DE
:104F200069460AF03DFA57F824004068C16FC1F3A2
:104F300040010029FAD09DF8001001606D1EADB24D
:104F4000002DE9D157F8240070300AF014FA002837
:104F5000C8D1306841694906FCD5EFF310850120BE
:104F600080F3108857F8240070300AF004FA68B112
:104F7000EFF31081012080F3108800E011E0306829
:104F8000426842F08202426081F3108857F8241090
:104F9000002081F8000157F8241081F8010185F301
:104FA0001088BDE8F8830000109D002060030020F9
:104FB0002DE9F04105460F46002D06D02AB12C7888
:104FC000062C04D3E820BDE8F081E520FBE7384E4D
:104FD00005F1580046F82400D2E900310A46703045
:104FE00019460AF0A9F9291D286D0CF0F1F80028DE
:104FF000E9D156F82410281D486656F824000760A9
:1050000056F824001822083005F14001FDF73EF85B
:10501000284856F8241000EBC4056868486056F824
:105020002400001D05F0A6FB56F82400001D05F025
:10503000BDFB204801220321103809F0C5F856F8BD
:105040002410012081F86C0056F82410002081F80B
:10505000000156F8241081F8010156F8241081F857
:10506000020156F8241081F8030113490C200AF0BC
:10507000EBFD12490D200AF0E7FD114934200AF03A
:10508000E3FD104935200AF0DFFD0F4936200AF014
:10509000DBFD0E4937200AF0D7FD95F9010022F615
:1050A00079F995F9010022F693F900208BE70000C9
:1050B000109D0020041D2100912A2000A12A20001B
:1050C000B12A2000C12A2000D12A2000E12A200094
:1050D0002DE9F04104461A4D55F8240070300AF0CD
:1050E0004AF982B2164600277AB155F8240090F8A2
:1050F0000111012909D0802A0ED300F180017030FE
:1051000080220AF04DF980260BE055F8240080F843
:1051100000710020BDE8F08100F1800170300AF0DC
:105120003FF955F8240080F8047155F82400324600
:1051300000F18001001D2CF62BF90028EAD1E9E7E7
:10514000109D00202DE9F84307460C46904604F1D7
:10515000080520468FF62AF80346344E7068002171
:10516000A7F58042DFF8C8C0B2F5804F03D2DCF863
:105170000010401A0121E218824202DD0520BDE83C
:10518000F8833068421EC2F30B02821A02F6FF72E5
:10519000C2F3073211B1DCF8001000E00021DFF8A3
:1051A00094C0DFF89490DCF800C0D9F80090ACEB24
:1051B000090C96F80990A2EB09020CEBC202101A36
:1051C000401A001FE918814229DD00254FF40049EB
:1051D00011231F2249462846009572F63FFA002106
:1051E000084604F0CFF840B113231F22494600209F
:1051F000009572F633FA0F20C1E7707A05F09EFF32
:105200000028BCD112231F224946009572F626FAC7
:10521000424621463846BDE8F8430CF0DBB9424629
:1052200021463846BDE8F8430CF0D4B99047002039
:10523000B8350020C4350020BC35002070B50026EC
:1052400006710021032585702A46B0F844309B1E64
:105250000AE003D1511BC170067170BD046CA45CDF
:105260003D2C09D0521C92B29342F2DA417100F106
:10527000210500F1050219E0A2EB050101F1010190
:10528000C17002F1010291B2F0E7036C5B5C3A2B52
:1052900012D02C2B10D08C4206D103799C5C0C1BB5
:1052A0005C5503795B1C0371491C89B2B0F844401A
:1052B000A41E8C42E9DA70BD03799C5C0C1B5C5522
:1052C00003795B1CDBB203714C1C9C54ECE7002897
:1052D00005D0012805D0402803D0092070470020C0
:1052E00070470620704770B5002904D00023136072
:1052F0006FF02F0611E0002070BDC45CA4F13005F2
:105300000A2D01D3002070BD156805EB850506EB5D
:1053100045052C4414605B1CDBB28B42EDD30120AD
:1053200070BD000070B5044600202178002935D0FA
:105330000A293BD2DFE801F03A050A0F14191E23AF
:10534000282D35A1394800F0F1F92FE038A1374870
:1053500000F0ECF92AE03DA1344800F0E7F925E03F
:1053600042A1324800F0E2F920E04AA12F4800F0C3
:10537000DDF91BE04DA12D4800F0D8F916E052A14F
:105380002A4800F0D3F911E053A1284800F0CEF9E3
:105390000CE059A1254800F0C9F907E0B4F8022152
:1053A000611C2248FCF772FE94F802011F490D228D
:1053B0000A5401440A224A70554DEB6883B169785A
:1053C000012902D0022906D00AE0801CC2B2174986
:1053D0000120984704E0801CC2B21449022098477B
:1053E000012028742078082815D1494869681430AC
:1053F000407800EB8002102000EB82000C58002C5B
:1054000009D02046FCF766FE82B268782146BDE8E6
:10541000704000F01DB970BD4552523A20496E7679
:10542000616C696420696E7075742E003C9F002069
:105430004552523A20556E737570706F7274656480
:1054400020415420434D442E000000004552523A62
:10545000204E6F20616C6C6F776564207061727391
:10546000652073746174652E000000004552523A45
:1054700020436F6D6D616E64207265717565737424
:10548000206973206E6F7420616C6C6F7765642E79
:10549000000000004552523A204E6F2041542043F4
:1054A0004D442068616E646C65722E004552523A1C
:1054B00020496E76616C696420706172616D6574FB
:1054C0006572732E000000004552523A2048616C0C
:1054D000206572726F722E004552523A204154205C
:1054E000434D4420657865637574652074696D6506
:1054F0006F75742E000000004552523A204F7468B8
:105500006572206572726F7220636F64652E000091
:10551000E09D002000B5C1B04FF482716846FCF7F1
:10552000CEFD0748017C012907D001210174082024
:105530008DF800006846FFF7F5FE41B000BD0000A1
:10554000E09D0020002807D0012807D0022805D0C0
:10555000032803D0002070470020704707207047C1
:105560002DE9F0410546002028700024124E08273E
:105570004FF0040813E004EB8401706807EB81022C
:10558000835CEA78934208D108EB8101AB784158FB
:10559000286C1844FCF7A5FD30B1641CE4B23078E7
:1055A000A042E8D8BDE8F081706804EB840110F8EF
:1055B000210028706C70F5E7E09D002010B50446CE
:1055C00014210E48FCF77BFD0C4848211430FCF7F1
:1055D00076FD0A482179017021684160A1688160E7
:1055E000E168C16001210174417000F15C01143077
:1055F00001640021A0F8441010BD0000E09D0020CF
:1056000070B504460E461546032210A12046FCF74D
:1056100068FD08B1002070BD012209E0A05C0A28E5
:1056200004D1A01810F8010C0D2805D0521CD2B2DC
:10563000B242F3D3002070BD521CA5F8442021468D
:10564000286CFCF723FD012070BD000041543A0096
:105650002DE9F047C2B00646894692464FF4827162
:1056600001A8FCF72CFD0024294D6E70A5F148001F
:1056700001260078132801D12E740124287C0327E9
:10568000012807D08DF8047001A8FFF74BFE42B047
:10569000BDE8F0874FF0020885F810801C4A51469B
:1056A00014324846FFF7ACFF70B119481430FFF7C9
:1056B000C5FD17481430FFF753FF154E1436B4B12B
:1056C0003078142806D012E08DF8046001A8FFF7A6
:1056D00029FEDCE700208DF804000EA10DF1050085
:1056E00000F024F8ADF8060101A8FFF71BFE3078A2
:1056F00040B12F74064948221431A1F15C00FCF737
:10570000C5FCC4E78DF8048001A8FFF70BFEBEE7D7
:10571000E09D002073746172742063616E63656C38
:1057200020636F6E6E6563742E2E2E000FB410B55D
:10573000C0B0044644AA68464399FDF72DFA68466E
:10574000FCF7C8FC024669462046FCF79FFC684609
:10575000FCF7C0FC40B0C0B210BC5DF814FB000008
:1057600070B5C2B0164C207C032827D104202074C9
:1057700004F114060C257078616800EB800005EBDD
:105780008000085878B1A06800B1804770786168DF
:1057900000EB800005EB8000095842B00848BDE8E6
:1057A0007040143008474FF4827101A8FCF787FC61
:1057B00005208DF8040001A8FFF7B4FD42B070BDCC
:1057C000E09D00200948006800280DD090F82E10B8
:1057D000012909D190F83000FF2805D24FF030415F
:1057E000086840F08060086070470000400C0020AE
:1057F00010B586B0044668466EF694FE9DE80E002D
:1058000003A80EC00B4A891C21F07041516010465C
:105810006FF676F807486FF6E7F8207F002806D184
:10582000054991F80101054A01EB0010426006B0FC
:1058300010BD00008C290020A029002029D12000C3
:1058400010B506F0CFFEBDE8104002F0D1BF000059
:1058500000B58DB009A80AF075FC9DF825209DF8CB
:1058600024300A98BDF82610CDE9041025A040F296
:10587000BB11CDE90232CDE900102C4B2CA232A194
:105880000220FEF73FFD0BA87DF6B2F89DF82E2012
:105890009DF82F309DF82C109DF82D00CDE90601C4
:1058A000CDE904329DF830009DF8311028A240F275
:1058B000BF13CDE90032CDE902101C4B1CA222A17E
:1058C0000220FEF71FFD2DA04FF4E371CDE900107B
:1058D000164B17A21CA10220FEF714FD02F0C2FB1A
:1058E0000AF056FF0AF0CEFF0AF0F6F82B4804F053
:1058F0004DF90A200BF032FB294900207DF6AEFA63
:105900000DB000BD476F6F64697820424C4520534D
:10591000444B205625642E25642E25642028636F71
:105920006D6D69742025782900000000A51E2100F6
:105930002E2E5C5372635C757365725C7573657251
:105940005F6170702E6300004E4F5F54414700004E
:105950004C6F63616C20426F617264202530325855
:105960003A253032583A253032583A253032583AB2
:10597000253032583A253032582E0000476F6F6478
:105980006978205541525428415429206578616D29
:10599000706C652073746172742E0000BD9B2000D2
:1059A000E68E0020002070470020704710B502F0FE
:1059B00049F900F017F809F01BFE08F07DFE0AF027
:1059C0004BF90BF045FD07F09BFA05F0C1FD09F01E
:1059D00033FE09F039FE05F0B1F9BDE8104009F0D9
:1059E000F9BD000010B50549054803F06FFEBDE89C
:1059F00010400449044803F069BE0000A9C2200019
:105A0000E1F20400517320009DDD08002DE9F04112
:105A10003D4C6FF00200C4F898003C49012528066F
:105A200008603B4900200860394A1C32106840F089
:105A300002001060106840F001001060106820F053
:105A4000020010600B1F186840F001001860186811
:105A500020F0020018602E4834380168C1F300417C
:105A60000029FAD12A4940F2AA2638390F6866F38C
:105A700001070F600E6826F00C0646F008060E605F
:105A80000E6826F0C00646F080060E60204940F2FF
:105A9000FF3740390E6867F301060E600E6826F086
:105AA0000C0646F00C060E600E6826F0C00646F0A6
:105AB000C0060E6005600168C1F300410029FAD1FB
:105AC000106820F004001060186820F004001860CE
:105AD000106840F004001060186840F0040018607E
:105AE00001200AF03AF904F52074206820F0400003
:105AF0002060206820F010002060206820F0200046
:105B00002060BDE8F081000000A0004084E200E0D9
:105B1000C4A4004010B506F055FA06F001FA02F0F0
:105B200031FA06F0E5F907F04FF9BDE8104006F04C
:105B3000EFB900000F49086820F0040008600D4824
:105B40002030026822F0040202600A6842F0020279
:105B50000A600A6822F001020A60016841F001014E
:105B60000160016841F002010160016821F001015A
:105B700001607047C0A4004070B50AF0C9FA40F255
:105B80001A4120B140F24C400AF032F903E040F2F1
:105B90002E400AF02DF90D4CA07850B1E0880AF0A3
:105BA00037F9054620890AF033F929460AF076FAD2
:105BB00005E04FF461714FF47A700AF06FFABDE8B6
:105BC000704002484A3008F031B900005893002074
:105BD00010B50446002C0CD0204600F085FA0028B1
:105BE00007D104494968002903D02046BDE8104088
:105BF000084710BDB891002070B5CAB004464FF4F4
:105C0000827109A8FCF75BFA208840F20D22894DC9
:105C1000A0F20D21904274D025DCB0F5027F4CD06B
:105C200011DCB0F5807F41D0A0F50070073808D1B5
:105C30006088C8B3FFF74BFB8DF8240009A8FFF775
:105C400071FB4AB070BDA0F500700B3846D001283A
:105C5000F7D1608848B3FFF73AFB8DF8240009A814
:105C6000FFF760FBEDE709AEF62970D00BDCF429F5
:105C70004ED0F529E5D16088002869D0FFF727FBD1
:105C80008DF82400AEE0F9297ED0A1F54071F339FA
:105C9000D7D16088002878D0FFF719FB8DF8240051
:105CA00009A8FFF73FFBCCE703E026E0FFF7D0FDB4
:105CB000C7E702200AF0E2FFC0E7608838B1FFF7CB
:105CC00006FB8DF8240009A8FFF72CFBB9E76878DC
:105CD0000028F8D101200AF0D1FFF4E7608838B13C
:105CE000FFF7F5FA8DF8240009A8FFF71BFBA8E7DA
:105CF00003200AF0C3FFF7E703E001200AF0BEFF2C
:105D0000ADE7618C04F10A02606A0AF021FE98E7AF
:105D1000608820B1FFF7DBFA8DF8240026E0207EB2
:105D20000AF098FF05200AF0A9FF01206870207E84
:105D300010B9207903F028FEA07CE17C227D637DF0
:105D4000CDE90432CDE90610A07DE17D01E04DE012
:105D500038E039A24FF4B773CDE90032CDE9021033
:105D6000434B44A249A10220FEF7CCFA09A8FFF751
:105D7000D9FAEFF31084012080F310884549002000
:105D80004A681060444A01E044E048E05368186003
:105D90008860C8609060D06001210AF01FFD00217A
:105DA00001200AF01BFD002102200AF017FD01214D
:105DB00003200AF013FD012104200AF00FFD84F3F3
:105DC00010883EE701200AF059FF207A33A14FF4F2
:105DD000C772CDE900210290254B26A22BA10220FB
:105DE000FEF790FA09A8FFF79DFA2AE7608838B114
:105DF000FFF76DFA8DF8240009A8FFF793FA20E762
:105E00002CA1701CFFF792FCADF8260101200AF0CE
:105E100035FFF1E7207901217DF6B2FC11E7E0883A
:105E20000BF04CFBE28824A1701CFFF77FFCADF85F
:105E3000260135E7E48E0020436F6E6E656374655E
:105E400064207769746820746865207065657220C5
:105E5000253032583A253032583A253032583A25D2
:105E60003032583A253032583A253032582E000018
:105E7000951E21002E2E5C5372635C757365725CF7
:105E8000757365725F6170702E6300004E4F5F54D2
:105E90004147000080380120903801204469736335
:105EA0006F6E6E65637465642028307825303258D3
:105EB000290000004F4B00004D54553A2564000066
:105EC0002DE9FE4F82460D460026EFF31188022091
:105ED000FCF7E9FE0446FCF713FF401C4FF00109F4
:105EE00009FA00F02044C0B280F3118887F648FD1B
:105EF00083462DB1344F97F8A50018B10F264CE01A
:105F000002264AE0D7F8AC0030B90021382083F6E9
:105F1000EBF8C7F8AC00E8B3E83757F83C4C382149
:105F20002046FCF7CCF807F841AC28782070607860
:105F300040F0010060702889A0816889E081A8890B
:105F40002082E8896082F98F40F27120B1FBF0F283
:105F5000521C4FF6FF7101EA4202A282FA8FB2FB95
:105F6000F0F0401C01EA4000E082288A60801020A6
:105F7000A080E080E87900F00100E871D5F8010028
:105F80002063B5F80500A086E87984F83600002182
:105F9000062000E015E087F66BFECDF80090CDE915
:105FA0000196D62309221021002071F657FB58468E
:105FB00087F69EFC08F0FF0080F311883046BDE8AC
:105FC000FE8F1026E9E70000F4380020044A52F85A
:105FD000200050F84B2F0A608088888070470000AE
:105FE0001419002038B504460D4600200090002CFE
:105FF00005D069460C487CF631FB10B110E0022058
:1060000038BD142093F66AFE014659B105CCC1E9AA
:106010000102CD609DF800000874044805F043FCBF
:10602000002038BD102038BDD81E2100AC920020C1
:1060300070B504460E46002C05D00F4885F6B4FF17
:10604000054615B113E0022070BD142093F646FEFC
:10605000014671B10C6120680088C880CE60074A93
:1060600010780871401C1070101D05F01CFC2846AB
:1060700070BD102070BD0000B41E2100A49200204D
:1060800000B5AFB0094901200870FF22B82101A86E
:10609000FCF70EF84FF48070ADF804000020ADF866
:1060A000060001A8FFF794FD2FB000BDB8910020B5
:1060B00000214FF03040C1608161C0F8D011C1179C
:1060C00041610162C0F8D81103496FF48060086033
:1060D0000220FCF780BD000084A0004001490020A0
:1060E00001F006B9A9C2200010B50446002C22D048
:1060F0000021228840F20253A2F202509A4279D043
:1061000033DC40F20643A2F206409A425DD01BDC2B
:1061100040F20243A2F202409A424ED00DDCA2F5B8
:106120004072013A3DD0012A3BD0FF2A41D0B2F55E
:10613000807F55D13FE0002010BD01283FD00228CC
:106140003FD003284CD13EE0042846D006DC01288D
:106150003DD002283DD0032842D13CE005283ED066
:10616000FA2842D0FB283BD144E0082847D007DC7E
:10617000082835D2DFE800F0343E3E3E3E3E3E4346
:106180000C283CD006DC092839D00A2837D00B2847
:1061900026D134E00D2832D00E2830D0FF281FD170
:1061A00032E0204602F08EFF204602F017FD00206C
:1061B00010BD218914E0218912E0218910E0618954
:1061C0000EE0218A0CE021890AE0618908E0A189BA
:1061D00006E0618904E0A18902E0218A00E061898A
:1061E0002046BDE8104003F03BB82046BDE8104013
:1061F00002F0E4BE2046BDE8104002F04BBE20464F
:10620000BDE8104002F044BD204602F03BFC0020F7
:1062100010BD000070B50446002C1CD00225114EA4
:10622000707A844210D0304690F90610ACB1032049
:10623000C91CB1710C490A6800EB92030A6863F348
:1062400089020A6009F066F974720849086C65F3FE
:106250008710086470BD0025E1E76FF00200C91ED9
:10626000B171E7E7E8940020201101B0002001B0EF
:1062700070472DE9F04105460E4614461F4620465C
:1062800000F032F83B46224631462846BDE8F04150
:1062900084F68CBC2DE9F04105460E4614461F4697
:1062A000204600F021F83B46224631462846BDE80C
:1062B000F04184F6B1BE2DE9F04105460E46144684
:1062C0001F46204600F010F83B462246314628463D
:1062D000BDE8F04184F608BF02490878FF220A7041
:1062E000704700004895002010B5C0B283F63AFF11
:1062F00001491438087010BD4895002010B51521CB
:106300000B4808F067F805210948A83008F068F83C
:1063100001210748083808F057F8FFF747FBFFF757
:10632000F9FBFFF7A5FFBDE81040FFF789BA0000B1
:10633000808D002030B58568027B002D02D00020C2
:1063400001210CE0104630BDCB0801F00704EB5CE6
:10635000E340DB0701D0401CC0B2491CC9B28A42ED
:10636000F2D830BD00230849496808E00A89824212
:1063700004D84A89824201D3CB6802E00968002927
:10638000F4D1184670470000A49200200146054849
:10639000406803E002798A4202D000680028F9D1FF
:1063A00070470000A492002070B5AEB01F4E707808
:1063B000FFF7ECFF0446200014D02169E08809684B
:1063C0000880206981F660FE0546FF22B8216846F4
:1063D000FBF76EFE40F20C40ADF80000ADF8025045
:1063E0001DB113E00C202EB070BD2069FFF7A2FF95
:1063F00002462069016809882181006800881044EC
:106400006081ADF808106089ADF80A00E16809B153
:10641000684688477078401CC0B2707031788842F6
:1064200001D100207070E8B2DDE70000A4920020E6
:1064300010B5084A1378002B01D00F2010BD31B1E0
:1064400050600448083000F013F8002010BD02200E
:1064500010BD0000B891002070B504460D46FFF74E
:106460004DFF29462046BDE87040FFF7E1BF000020
:1064700070B504460D46FFF731FE0749012009F0CB
:10648000E3FB0649022009F0DFFB29462046BDE870
:10649000704085F60FBF00009D1708003D160800EC
:1064A00010B50A460146134808F0D6FF1248018885
:1064B000104808F056FF04465CB10AF0D9FB0528E5
:1064C00007D10021084603F083FA002104200AF0D6
:1064D00085F9002C0DD00AF0CBFB0A2809D1002148
:1064E000084603F059FC0021BDE8104004200AF0E2
:1064F00075B910BD90380120D490002010B5124815
:10650000016821F0070141F0040101600A2009F649
:106510007DF80D488438016821F480710160012103
:10652000002024F619FB01201AF6B8F807490220CA
:10653000087009F0FFFA0649322009F085FBBDE832
:1065400010403220FCF765BB90A800402493002047
:106550006729200010B519480068C0F30B001749DF
:106560000831096821F07F41401C00EE100ADFED80
:10657000140AB8EE400A60EE200A00EE101A114923
:10658000B8EE400A80EE801AB6EE000A31EE000A3C
:10659000BCEEC00A10EE100A486007F00BFC09F0D0
:1065A000EFFD0948016841F48071016006488430BC
:1065B000016821F00701016010BD000004E4004003
:1065C0000024F44B249300200CA800400A2804D88F
:1065D00040F6641101EB40007047242804D840F6CF
:1065E000661101EB40007047252804D0262805D00D
:1065F0004FF41B60704740F66210704740F67A1007
:106600007047000001218140044842688A4342608B
:106610004068002801D193F687B870474095002064
:10662000052110F1190F01DC022110E000F1140224
:106630000F2A01D803210AE00F2801D8042106E01F
:10664000A0F11402192A02D932280CDB06210648CF
:106650000268C2F303328A4205D0026822F4704213
:1066600042EA01310160704714A8004010B50021D2
:10667000084624F671FA012019F6F0FF02488168F5
:1066800021F48071816010BD00A0004010B5144855
:106690000068C0F30000002807D0114808380068DF
:1066A000C0F3000008B109F09DFA0E480068C0F37D
:1066B000000038B10B4808380068C0F3000008B18A
:1066C00000F0EEFC09F01CFA002807D004F074FB7F
:1066D000002803D0BDE81040FFF7C8BF10BD000080
:1066E00008E4004008E5004010B509F009FA20B1BF
:1066F00004F062FB08B1012010BD002010BD10B5F0
:1067000009F090FA00F078FC10BD10B503F0AAFC77
:1067100007F0E8F807F050FDBDE8104000F0AEB813
:106720002DE9FC4104468846164D4FF6FF76164F7C
:1067300012E02968082201EB0030694686F66AF803
:10674000082802D01020BDE8FC81BDF80000B0424E
:1067500008D12078401C20702078797A8842E8D3CC
:106760000020F0E709489DF80010C170BDF8021044
:1067700081809DF8011088F8001021784170002078
:10678000E1E70000BC35002090470020C83500201C
:1067900010B51248016821F0004101600F23011D6E
:1067A0000A6863F31F720A600A6822F4E07242F416
:1067B000C0720A60016841F0004101600848016848
:1067C00041F0010101600749312009F03DFA064915
:1067D0004FF40030C1F8000110BD000004A90040D2
:1067E00088E200407129200004E000E0F8B5EFF3F2
:1067F0001085012080F31088072000906846FCF780
:106800000BF90220FCF710F9322008F6FFFE0B4CC2
:10681000206840F002002060094E708908F6F6FEFC
:10682000206820F002002060B08908F6EFFE9DF895
:106830000000FCF7F9F885F31088F8BD04A90040C2
:10684000BC93002030B54FF0FF330022064C07E028
:10685000855C5D40EDB254F8255085EA1323521C47
:106860008A42F5D3D84330BDF41F210008B500900B
:106870006A460121092083F6BBFB08BD0249014895
:106880000860704711811000CC05002030B4002151
:10689000114B01EBC10202EB420213F82240012C22
:1068A00015D103EB82020579147AAC420FD15268FC
:1068B0000468A2420BD101EBC10000EB400003EBE6
:1068C0008000816E002905D030BC02200847491C99
:1068D0000C29DED330BC70475496002030B4002120
:1068E000114B01EBC10202EB420213F82240012CD2
:1068F00015D103EB82020579147AAC420FD15268AC
:106900000468A2420BD101EBC10000EB400003EB95
:106910008000816E002905D030BC00200847491C4A
:106920000C29DED330BC70475496002070B500248B
:106930000D4E04EBC40000EB400016F820100129B6
:106940000DD106EB80000546001D1AF63FFA18B17E
:10695000012801D0002070BD281D1AF6B9FF641C63
:106960000C2CE6D3012070BD5496002030B40021D9
:10697000114B01EBC10202EB420213F82240012C41
:1069800015D103EB82020579147AAC420FD152681B
:106990000468A2420BD101EBC10000EB400003EB05
:1069A0008000816E002905D030BC01200847491CB9
:1069B0000C29DED330BC70475496002002490148B0
:1069C000086070479D791000440D002010B593F6C3
:1069D000B5F8002800D0FEE710BD00000148408B4C
:1069E000704700007445002000B585B0002101917A
:1069F000029103910491134A537E127E1B0243EAD3
:106A00000040104300900191029103910491029182
:106A10000D48019001A803F065FC01A803F064FC97
:106A200001236A464A2101A803F0B8FC0F23054A56
:106A3000442101A81CF6C6FA01A803F053FC05B0D6
:106A400000BD0000744500200064014070B506469A
:106A50000C4615466FF4004010EAC43F05D040F2E2
:106A600073420AA10FA001F659F9E80B05D040F2D4
:106A7000744206A11AA001F651F994204643274812
:106A800045EAC4313044A0F8661170BD72665F6794
:106A900064785F62616C695F62315F7061746368C2
:106AA0002E63000028282875696E7431365F7429BA
:106AB000727877696465203C3C2031352920262096
:106AC0007E282875696E7431365F742930783030CD
:106AD0003030383030302929203D3D203000000052
:106AE00028282875696E7431365F74297278776941
:106AF0006E737A203C3C2030292026207E28287581
:106B0000696E7431365F74293078303030303746F2
:106B100046462929203D3D2030000000008000B07D
:106B2000024928220248FBF7B1BA0000CC1F21001D
:106B3000008100B000B500F00BF85DF804EB04F044
:106B4000CBB900000148007870470000483A0120A6
:106B500030B5084C012525706060E2602361A160BA
:106B600005488068884201D2081A00E0401A606136
:106B700030BD0000483A01204093002010B504F0D9
:106B800085F9044618210548FBF799FA034A0021C4
:106B900011702046BDE8104000F046B9483A012087
:106BA000F0B404460E462C482C4FB96805780262B2
:106BB00044628C4201D9631A00E00B1BFF689F42BC
:106BC00006D3134632462146F0BC0020FFF7B2BF81
:106BD00087699F4201D98361C261012D0AD0022DCC
:106BE00027D0032D36D1134632462146F0BC002073
:106BF000FFF7A0BF44618C4203D90169491EC160FF
:106C000002E00169491C8160D0E90212914209D277
:106C10001144490801610121017001693046F0BC4D
:106C200000F01EB80221017081683046F0BC00F00F
:106C300017B8C169914206D1134632462146F0BCCD
:106C40000020FFF777BF03210170C1693046F0BC17
:106C500000F006B8F0BC7047F039012040930020E6
:106C6000054A936A5B1C93628AB2C1B20348044B23
:106C7000406804F0AFB80000F039012040930020D4
:106C8000A16B200070B505460D4C2C212046FBF76A
:106C900016FA0020A06040F2FF10E060FF2222619F
:106CA0004FF0FF30A061A06A401CA062012020705C
:106CB0000448E9B2044B4068BDE8704004F08AB86B
:106CC000F039012040930020A16B20002DE9F8430A
:106CD00007460D4690462E4C207801280BD00228FE
:106CE00013D00820E06101B043462A463946BDE88A
:106CF000F043FFF71FBFE76040F2FF112161284614
:106D0000BDE8F843022200F079B8002600966761DA
:106D1000684600F03FF870B1012810D002281FD05B
:106D200003282DD00720E06143462A463946FFF765
:106D300001FFBDE8F8832846FFF7A4FFF9E70F2D10
:106D400006D23146A6600122681C00F057F8F0E731
:106D50000520E06143462A463946FFF7EBFEE8E7A7
:106D600035B1A66001220021681E00F047F8E0E777
:106D70000620E06143462A463946FFF7DBFED8E7A6
:106D80000098E06143462A463946FFF7D3FED0E734
:106D9000D039012010B5174B17490A698968154C7D
:106DA000DB6864698B4203D98C4201D9022010BD93
:106DB0008B4203D28C4201D2012010BD8B4201D9FB
:106DC0005B1A00E0CB1A8C4201D9611A00E0091B62
:106DD000934203D3914201D3002010BD934201D2CC
:106DE000022010BD914201D2012010BD022101609C
:106DF000032010BDD03901204093002030B4074B50
:106E00009C69641C9C6158601A708AB2C1B20448C3
:106E1000044B406830BC03F0DDBF0000D0390120D6
:106E200040930020CD6C200070B50546064C202113
:106E30002046FBF744F90021A1602846BDE87040D8
:106E40000122FFF7DBBF0000D0390120F8B50E4664
:106E50001F4C00250095E169491CE1616660A26054
:106E6000E1682161E0601B498B68834201D2C01A4E
:106E700000E0181A6169814201D96061A261684627
:106E800000F02AF858B101280ED0022814D00328A7
:106E900018D00098A062204600F0BFF8F8BDA562A7
:106EA000204600F0BAF8F8BD012084F820003046F2
:106EB000A16900F077F8F8BDA1683046491C00F0E0
:106EC00071F8F8BDA1683046491E00F06BF8F8BDB6
:106ED0001C3A0120409300202DE9F0432F4A304F07
:106EE000B96800250026D3688B4201D95C1A00E0FE
:106EF000CC1AFF68A74202D30020BDE8F083D2F885
:106F00002480B8F1010F10D092F82040012C0ED04F
:106F1000224CD2F81CC04FF00109A769A468C445EF
:106F20000BD3A74205D10020E7E70020E5E70020CA
:106F3000E3E782F820900120DFE7BCF1010F11D9CF
:106F4000D2F810C08C4501D98B4203D38C4509D2AD
:106F50008B4207D9A74201D10020CEE782F82090CA
:106F60000120CAE78B4201D9012600E0012545B185
:106F7000B4F5FF7F03D9092101600420BDE7022099
:106F8000BBE736B10CB10320B7E70A21016004204A
:106F9000B3E70B2101600420AFE700001C3A012099
:106FA000409300208AB2C1B20248034B406803F00C
:106FB00011BF0000409300204D6E200070B50446C4
:106FC0000E4615462C210948FBF779F8074B00219E
:106FD00083F82010491E59615C620548AAB2F1B2DB
:106FE0004068BDE87040034B03F0F4BE1C3A01203A
:106FF000409300204D6E200010B503F0CDFE002818
:107000000AD0FFF79FFD18B1BDE8104000F028B886
:10701000BDE81040FFF7B2BD10BD00B500F004F8A8
:107020005DF804EB03F058BF0B4901220A71826A34
:107030008A60C269CA60C2680A6142684A6182683D
:107040008A61064AC0689268904201D9801A00E0BD
:10705000101AC86170470000603A01204093002078
:107060002DE9F04103F012FF074603F021FF8046AF
:10707000094C26680948456920212046FBF71FF87E
:10708000761C266000202071424639462846BDE81D
:10709000F041FFF793BF0000603A012040930020C9
:1070A00010B50E4C2069401C206103F01BFFE0600E
:1070B00003F0ECFE606003F0FBFEA060084A0021D4
:1070C00011606161E3692BB182B22179E068BDE8AA
:1070D00010401847BDE8104003F0FEBEB039012053
:1070E00000E5004005490448086006490448086175
:1070F0000549052008707047F1572000380D002021
:10710000C55720008C290020599500202DE9FC410D
:10711000164804680834164E3078002802D0002043
:107120008FF622F8134D4FF6FF7708226946204666
:107130008FF624F8BDF80000B84211D080B1BDF838
:1071400002008DF633F8BDF802100830084481B211
:1071500020468DF607FB044628688442E5D32C6858
:1071600030788FF601F82046BDE8FC81BC35002060
:10717000B5350020C435002010B50021084B5A68F1
:107180001B8809E052F83140844203D102EBC10070
:10719000406810BD491C89B29942F3D310BD00006C
:1071A000D092002010B50021084B5A695B8809E095
:1071B00052F83140844203D102EBC100406810BD57
:1071C000491C89B29942F3D310BD0000D892002027
:1071D00010B50021084B5A681B8809E052F831406D
:1071E000844203D102EBC100406810BD491C89B242
:1071F0009942F3D310BD0000B89200200349095C06
:10720000002902D0002105F0E3B87047483E012074
:1072100008B51A48016821F070010160016821F089
:10722000070141F00401016015490978002909D0DE
:10723000124984390A6842F480720A60016821F0B8
:1072400007010160012006F0B5F90020FCF7F6FC0B
:1072500006F048FC80B100208DF80000A3208DF8D6
:10726000010002208DF8020068468FF661FD06F0ED
:1072700045FB06F07FFC08BDFEE7000090A800403B
:10728000CC93002070B5044600BFFBF741FD0546D6
:107290000120FBF74CFE0948047024B94822084934
:1072A0000848FAF7F3FE1DB90020FBF740FE02E0A4
:1072B0000120FBF73CFE00BF70BD0000DC90002009
:1072C000E8380120002000E010B507484068074971
:1072D000486006480830402203490831FAF7D6FED4
:1072E00003200249086010BDA0380120002000E002
:1072F0007047000070B500BFFBF70AFD054601208E
:10730000FBF715FE0B48047834B948220A490B48AC
:10731000FAF7BCFEFFF7D8FF0120064908701DB937
:107320000020FBF704FE02E00120FBF700FE00BF97
:10733000204670BDDC900020002000E0E8380120ED
:1073400013B501216846FCF79DFF01201CBD00001C
:107350002DE9FE4F00254FF001084FF002090026ED
:10736000834FF1E0EFF3118B0220FBF79CFC044606
:10737000FBF7C6FC401C08FA00F02044C0B280F3C2
:1073800011887C487BF6F0F982460BF0FF0080F311
:1073900011880AF108042078082823D2DFE800F0D9
:1073A0000423495E738DA8BC6078CDE90086029005
:1073B0001D2309221021002070F650F96078C0EBDF
:1073C000C00007EB8000407A00280BD101257888A7
:1073D00040F00400788087F80190607887F8940086
:1073E00088F6BAFAADE094F801B01E23CDE9016B3E
:1073F000092210210020CDF8008070F62FF9607866
:10740000C0EBC00007EB8000407A072810D10125AF
:10741000CBEBCB0007EB800080F8209087F8019041
:10742000607887F89400544A0021584612689047C3
:1074300087E01F23092210210020009670F60EF924
:1074400097F8990000287CD10125788840F0080041
:1074500078800320787088F67FFA72E02023092272
:1074600010210020009670F6F9F897F89900072887
:1074700067D1012587F89C90032078703F49002050
:10748000096888475DE02123092210210020009629
:1074900070F6E4F8607807EB001090F8B10030BBAC
:1074A0000125788840F02000788005207870607889
:1074B00087F8000188F650FA43E0222309221021C0
:1074C0000020009670F6CAF8607807EB001191F87A
:1074D000B120072A35D1012581F8B39005217970B3
:1074E000617887F80011264A00211268904728E049
:1074F0002323092210210020009670F6AFF897F898
:10750000A500F0B90125788840F0100078800420AB
:10751000787088F621FA14E0242309221021002033
:10752000009670F69BF897F8A500072809D1012569
:10753000042078701349002009688847062087F8DE
:10754000A800504686F6F0FA87F686F810B9002DA6
:107550003FF408AF87F680F8002806D025230922DB
:1075600010210020009670F679F8BDE8FE8F00002B
:10757000F4380020EC3B0020343400203834002064
:107580003C340020403400202DE9F04387B00C4605
:1075900007276278A178CDE903720020CDE90501C3
:1075A00021784FF00308CDE900800291EE230922F3
:1075B000102170F653F860780126DFF8F890052561
:1075C00030B1012834D0022846D003286ED157E0CC
:1075D000207888F66BFAC0EBC00109EB81014D728F
:1075E000A278452A09D1CA681278022A16D091F8E1
:1075F0002020022A01D081F8206091F82020012A61
:1076000003D0022A01D081F8208091F82020022A9C
:107610004CD0C9680978022905D101E04F72ECE726
:10762000A178452942D0244A0021126890473DE0C4
:1076300089F89950A078452805D199F89C0002282E
:1076400001D089F89C6099F89C0002282ED01B4933
:1076500000200968884729E089F8A550A0784528C6
:1076600005D199F8A800062801D089F8A86099F8F2
:10767000A80006281AD0124900200968884715E09A
:10768000207888F681FA09EB001181F8B150A278D0
:10769000462A01D0CE2A01D181F8B35091F8B31017
:1076A000022903D0074A00211268904707B0002042
:1076B000BDE8F083F4380020343400203834002052
:1076C000403400203C34002010B5AEB00C46FF2200
:1076D000B8216846FAF7ECFC40F20A20ADF8000049
:1076E000ADF802406846FEF773FA2EB010BD10B533
:1076F000AEB00446FF22B8216846FAF7D9FC40F242
:107700000D20ADF800000020ADF802001C2221463B
:1077100002A8FAF7BBFC1C3409946846FEF758FA35
:107720002EB010BD30B5AFB005460C46FF22B821D3
:1077300001A8FAF7BDFC40F20722ADF80420ADF82D
:1077400006408DF8085001A8FEF742FA2FB030BD70
:1077500037B5AEB005460C46FF22B8216846FAF7A9
:10776000A7FC4FF40272ADF80020ADF802408DF88E
:1077700004509DF8C0008DF808006846FEF728FA0E
:1077800031B030BD00B5AFB0FF22B82101A8FAF783
:107790008FFC4FF44170ADF804000020ADF80600F6
:1077A00001A8FEF715FA2FB000BD30B5AFB0044602
:1077B0000D46FF22B82101A8FAF77AFC4FF4437274
:1077C000ADF804200022ADF806208DF80840B02264
:1077D000294603A8FAF75AFC01A8FEF7F9F92FB0D9
:1077E00030BD10B5AEB00446FF22B8216846FAF7A6
:1077F0005FFC40F20331ADF80010ADF8024068467E
:10780000FEF7E6F92EB010BD70B5AEB005460C46D9
:107810001646FF22B8216846FAF74AFC40F20131C9
:10782000ADF80010ADF802408DF804501222314638
:1078300002A8FAF72BFC6846FEF7CAF92EB070BD15
:1078400070B5AEB006460D461446FF22B821684614
:10785000FAF72EFC4FF44273ADF80030ADF8025049
:107860008DF8046020680290A088ADF80C0068468E
:10787000FEF7AEF92EB070BD2DE9F04186B00C4692
:10788000C3F3072528467EF61FFE074628467EF6E8
:107890001BFE0026CDE901650721CDE9031002207A
:1078A000009017230922102130466FF6D7FEFF2DD6
:1078B00066D035492088088060884880A088888004
:1078C000E088C880207A0872607A48720F74D4F811
:1078D0000A20C1F80A20E289CA812C4B03EBC502B9
:1078E00016605660B4F800C023F835C0DFF8A080F9
:1078F00001280CD1C87B0121B1EB901F07D198F86A
:107900001C01400703D5234841780A2931D804F1E6
:107910000A02617A1646284691F6FCF8617A3246E8
:1079200028468AF6D3FA1C4C6FB1002085F6E0FF9A
:10793000206828B1836B1BB1134A00212846984761
:1079400086F61EF81CE0032088F8A800D8F8AC00E2
:107950000078012814D1002085F6CAFF206828B1DC
:10796000836B1BB1084A00212846984786F608F821
:1079700006E006700449074A0A31284688F628FEC0
:1079800006B00020BDE8F08190380020A238002029
:10799000F4380020403500208433002070B5AEB0AC
:1079A00006460D461446FF22B8216846FAF780FBCA
:1079B00040F20533ADF80030ADF802508DF80460A8
:1079C00020680290A088ADF80C006846FEF700F928
:1079D0002EB070BD30B5AFB005460C46FF22B821C1
:1079E00001A8FAF765FB40F20632ADF80420002248
:1079F000ADF806208DF80850206803906068049068
:107A000001A8FEF7E5F82FB030BD30B5AFB00446A1
:107A10000D46FF22B82101A8FAF74AFB40F20D32C9
:107A2000ADF804200022ADF806208DF80840B02201
:107A3000294603A8FAF72AFB01A8FEF7C9F82FB0D8
:107A400030BDF0B5AFB00C460026E079FF282ED04F
:107A5000002788F60BF8054615B1032D05D008E080
:107A6000E07988F623F8074603E0E07988F68CF899
:107A70000746002085F63CFFFF22B82101A8FAF74F
:107A800017FB40F21220ADF80400ADF806608DF847
:107A900008708DF80C502068CDF80D00A088ADF866
:107AA000110001A8FEF794F885F66AFF3AE000217C
:107AB0000E2081F619FB0546A5B36179A079CDE9C1
:107AC0000D61CDE90F60E1782079CDE90961CDE95B
:107AD0000B606178A078CDE90561CDE90760E179B7
