:020000040020DA
:102000000000082059212000FD2820000160100058
:10201000FB282000FF212000352A200000000000BE
:10202000000000000000000000000000156010002B
:10203000F928200000000000FF2820003929200096
:1020400000F002F800F077F80AA090E8000C824453
:102050008344AAF10107DA4501D100F06CF8AFF230
:10206000090EBAE80F0013F0010F18BFFB1A43F076
:1020700001031847F8750000387600000A444FF055
:10208000000C10F8013B13F0070408BF10F8014BD7
:102090001D1108BF10F8015B641E05D010F8016B1C
:1020A000641E01F8016BF9D113F0080F1EBF10F880
:1020B000014BAD1C0C1B09D16D1E58BF01F801CBA3
:1020C000FAD505E014F8016B01F8016B6D1EF9D526
:1020D0009142D6D370470000103A24BF78C878C127
:1020E000FAD8520724BF30C830C144BF04680C601E
:1020F000704700000023002400250026103A28BF66
:1021000078C1FBD8520728BF30C148BF0B60704769
:10211000642900F0BF80782900F02381732900F042
:102120008883002070471FB507F099F800F0E6FAA1
:102130001FBD10B510BDDFF810D0FFF7F4FF04F09D
:10214000B3F800F091FB00000000082003B4FFF793
:10215000F0FF03BC00F069FF0148804701480047D9
:10216000C52920002D6320000FB4044910B503AA2F
:10217000029800F063FB10BC5DF814FB507900205E
:102180000FB41CB5084B06AA7B446946009005981D
:1021900000F025FB04460020694600F033FB204692
:1021A0001CBC5DF814FB00007906000070B5044605
:1021B00085690068C10601D5302600E02026C007E9
:1021C00007D070BDD4E9012130469047206A401CF9
:1021D00020626D1EF6D570BD70B504468569007825
:1021E000C00707D170BDD4E9012120209047206AA3
:1021F000401C20626D1EF6D570BD02F03DB8FEE7B2
:1022000058585247010000002655000000202000C9
:10221000002020007FED9247010100000000000037
:1022200000000000000000000000000000000000AE
:10223000000000000000000000000000000000009E
:1022400070B50C460546012A05D02878800600D5D1
:10225000EA69002302E0012305E05B1C934202D2FD
:10226000E05C0028F9D1A869E618C01AA861286ABC
:10227000184428622846FFF799FF04E0D5E90121B8
:1022800014F8010B9047B442F8D32846FFF7A4FF97
:1022900070BD00002DE9F041064600241068752944
:1022A000314616A510D0AFF30080002802DA404274
:1022B00013A507E031688A0701D512A502E0490796
:1022C00004D511A5012401E0AFF3008000210A220A
:1022D00006F1240709E0B0FBF2FCB0FBF2F302FBCD
:1022E0001C00303078541846491C0028F3D123468E
:1022F0002A463046BDE8F04100F012BA0000000066
:102300002D0000002B00000020000000F0B40D465E
:102310000188090502D5214C7C4402E01F4C7C4415
:102320000E34002100F1240608E002F00F07120924
:10233000E75D42EA03721B097754491C52EA03071E
:10234000F3D102780023120704D5702D06D009B10D
:10235000022311342246F0BC00F0E2B9012310340C
:10236000F8E770B504460D4621461068AFF30080CB
:10237000024629462046BDE870400023C6E7D21D2C
:1023800022F00703D3E90023C0E70368126843F093
:10239000200303600823C3610023B7E71C7100001A
:1023A0002DE9F05F894604464FF0000ADFF874B16A
:1023B000FB44C0F820A02046E1688847002874D07C
:1023C000252806D0D4E901219047206A401C2062CC
:1023D000F1E700265F462046E16888472028054649
:1023E00007DB312D05D2781910F8200C08B106430F
:1023F000F1E7B00701D526F00406C4F81CA00027B9
:10240000C4F818A02A2D09D0284600F007FE38B3DA
:1024100004EB8708303DC8F8185019E059F8041B40
:10242000204604EB87029161E1688847012F054649
:1024300018D1E069002820DA26F020061DE0D8F83F
:10244000180000EB800005EB40003038C8F8180099
:102450002046E1688847054600F0E0FD0028EED1FF
:10246000012F0AD02E2D08D12046E16888477F1C15
:102470000546022F46F02006C4DBA069002803DAD7
:10248000404246F00106A061F00701D026F0100698
:102490006C2D0BD0682D09D04C2D39D06A2D35D03C
:1024A000742D35D07A2D33D016E038E0E1682F4610
:1024B00020468847B842054609D16C2F26D04FF4F4
:1024C0008060E168064320468847054604E06C2F9B
:1024D0001AD04FF4807006430DB3A5F141001928BE
:1024E00002D8203546F400664A4629462046266032
:1024F0004E46FFF70DFE80B101280BD0F61D26F0E9
:10250000070000F1080956E74020E4E78020D8E7FB
:102510000020D6E706F104094DE7284652E7206A75
:10252000BDE8F09FAC70000040EA010310B59B07C6
:102530000FD1042A0DD310C808C9121F9C42F8D02D
:1025400020BA19BA884201D9012010BD4FF0FF30DE
:1025500010BD1AB1D30703D0521C07E0002010BDF4
:1025600010F8013B11F8014B1B1B07D110F8013B80
:1025700011F8014B1B1B01D1921EF1D1184610BD61
:1025800010B5431C02E010F8011B71B18107FAD1AC
:102590004FF0013202C88C1A8C4314EAC211F9D0F0
:1025A000C01A0A0603D0C01E10BDC01A10BD0A040E
:1025B00001D0801E10BD0902FCD0401E10BD032AB0
:1025C00040F2308010F0030C00F0158011F8013B50
:1025D000BCF1020F624498BF11F801CB00F8013B37
:1025E00038BF11F8013BA2F1040298BF00F801CBFB
:1025F00038BF00F8013B11F0030300F02580083AD2
:10260000C0F0088051F8043B083A51F804CBA0E828
:102610000810F5E7121D5CBF51F8043B40F8043B7D
:10262000AFF30080D20724BF11F8013B11F801CBB2
:1026300048BF11F8012B24BF00F8013B00F801CB83
:1026400048BF00F8012B704710B5203AC0F00B804E
:10265000B1E81850203AA0E81850B1E81850A0E8A6
:102660001850BFF4F5AF5FEA027C24BFB1E8185000
:10267000A0E8185044BF18C918C0BDE810405FEA70
:10268000827C24BF51F8043B40F8043B08BF7047EC
:10269000D20728BF31F8023B48BF11F8012B28BFF1
:1026A00020F8023B48BF00F8012B70474FF00002B2
:1026B00000B5134694469646203922BFA0E80C5038
:1026C000A0E80C50B1F12001BFF4F7AF090728BF13
:1026D000A0E80C5048BF0CC05DF804EB890028BF8F
:1026E00040F8042B08BF704748BF20F8022B11F0B8
:1026F000804F18BF00F8012B7047000070B5064CE2
:102700007C44064D7D4403E0206820448047241D1E
:10271000AC42F9D170BD0000A86F0000A86F0000A6
:102720002DE9F0470D4699469246044600F12408EB
:102730000168880604D5E06921F01001216000E0FD
:102740000120A84201DD471B00E00027A1697A199A
:1027500002EB0900081AA0612078C00602D42046C6
:10276000FFF724FD002608E0D4E901211AF806004D
:102770009047206A401C761C20624E45F4DB20788E
:10278000C0060AD52046FFF711FD06E0D4E9012175
:1027900030209047206A401C2062381EA7F10107B4
:1027A000F4DC07E0D4E9012118F805009047206A1D
:1027B000401C2062281EA5F10105F3DC2046FFF72E
:1027C0000BFD2078000602D50220BDE8F08701202D
:1027D000FBE7000001694A1C02610878704700B5F8
:1027E0008FB0CDE901310021059105497944CDE94A
:1027F000031011466846FFF7D3FD0FB000BD00007F
:10280000E5FFFFFF0A6802F8010B0A60704710B588
:10281000436913B1AFF3008001E0FFF711FD012020
:1028200010BD127800F124010A7000224A700122C2
:10283000EDE711684FF0FF32E9E70000074B70B594
:102840000D467B44FFF7CBFF0446284600F008F80E
:1028500010B14FF0FF3070BD204670BD5F26000004
:10286000007B00F08000704710B50446AFF3008095
:102870002046BDE81040FFF769BC10B501F036FEF8
:1028800010BD000070B503201749096841F38001AD
:10289000491C164D00290CD113490C310968C1F3AC
:1028A000000131B110498C39096801F007018843F2
:1028B00003D02869401C286170BD0D4C206820F0B1
:1028C00001002060206840F00400206009494FF4B6
:1028D0000030086001F0BAFEE868401CE86020683B
:1028E00040F00100206070BDD4A40040747A002044
:1028F00088E2004084E200E0FEE7FEE7FEE7FEE754
:1029000002480068001D2BF645BB000048790020F6
:1029100028F644B905280CD2064A116801F4E021D2
:10292000B1EB004F05D0116821F4E02141EA0040ED
:102930001060704700A00040FEE7000002490968EF
:1029400001F007010170704700A0004070B5044617
:10295000072C20D2104E306800F00700A04214D09F
:10296000032003F073FBF06820F0070545F0010039
:10297000F06000BF00BF00BF00BF204603F066FB51
:10298000064850F824002843F060044804491C38E5
:1029900050F82400086070BD00A00040DC932000C7
:1029A0006003002004480068044900F0070051F863
:1029B000200003490860704700A00040C093200039
:1029C000600300200248016841F470010160704713
:1029D00088ED00E002480068001D02F035BF0000ED
:1029E0000484002002484068001D02F02DBF000052
:1029F0000484002002488068001D02F025BF00000A
:102A0000048400200248C068001D02F01DBF0000C1
:102A10000484002002480069001D02F015BF000078
:102A20000484002002484069001D02F00DBF000030
:102A300004840020FEE7002809DB00F01F020121CA
:102A400091404009800000F1E020C0F880127047FA
:102A5000002809DB00F01F0201219140400980009D
:102A600000F1E020C0F88012704700280DDB00F074
:102A70001F02012191404009800000F1E020C0F8D0
:102A80008011BFF34F8FBFF36F8F7047002809DBB2
:102A900000F01F02012191404009800000F1E02078
:102AA000C0F800117047002809DB00F01F02012167
:102AB00091404009800000F1E020C0F8001170470B
:102AC000002804DB00F1E02090F80004704700F0DB
:102AD0000F0000F1E02090F8140D7047002804DB8F
:102AE00000F1E02090F80004704700F00F0000F1C2
:102AF000E02090F8140D704702480068C0F30220EF
:102B0000704700000CED00E0EFF31080704700000C
:102B10002DE9F0412DED020B9FED3D0B2DED028BCC
:102B20009FED3D8BDDE90254C4F30A50A0F2FF365D
:102B3000142E37DA002E18DA53EC102B9DED020B11
:102B400051EC100B05F0C2FD53EC182B06F0BAF94E
:102B500057D2002CBCBF4FF00044002551DB54EA93
:102B6000050018BF2E4C1BD14BE02E4820FA06F76B
:102B700004EA070028431FD053EC102B9DED020BF5
:102B800051EC100B05F0A2FD53EC182B06F09AF94E
:102B900037D2002C03DD4FF48010F0400444BC43D6
:102BA00000252EE0332E07DCA6F114004FF0FF3194
:102BB00021FA00F73D4206D19DED020BBDEC028BE0
:102BC00002B0BDE8F08153EC102B9DED020B51ECEF
:102BD000100B06F0ADF953EC182B06F073F910D278
:102BE000002C0DDD142E08BF641C09D0C6F1340082
:102BF000012101FA00F02844A84238BF641C0546B0
:102C0000BD43CDE902549DED020BD7E70000000063
:102C10009C7500883CE4377E000000000000000046
:102C20000000F03FFFFF0F0080F3108870470000A6
:102C30002DE9F74F07460298DFF888A1DFF8888171
:102C40004FEA500B5C46019D6048CAF800003F20E7
:102C5000D8F8041060F30501C8F80410D8F804008F
:102C600020F48030C8F80400DAF8000020F4700086
:102C700040EA0750CAF80000DAF8000020F470209B
:102C800040EA0740CAF800000D2F05D1DAF800002D
:102C900040F40040CAF800000E2F05D1DAF8000019
:102CA00040F48040CAF80000DAF8000040F4005018
:102CB000CAF80000DAF8000020F06050CAF80000FE
:102CC000DAF8000020F00F0040F00300CAF800001E
:102CD000002000F0CFF8012871D1DAF8000040F0B0
:102CE0008040CAF80000002008E0D8F8081041F43D
:102CF0008031C8F80810401C411C05D0D8F80810D5
:102D0000C1F300210029F0D1072000F0B3F8012819
:102D100055D141E000264FF47A7924E04E451ED982
:102D2000DAF8000020F08040CAF80000DAF800006D
:102D300040F00040CAF80000DAF8000020F000403F
:102D4000CAF80000002000F095F8012837D120498A
:102D5000086A401C086205200CF658FC72E7012046
:102D60000CF654FC761CD8F80800C0F300200028AC
:102D7000D4D0D8F8080000F07F02A24200D9224641
:102D8000002006E0D8F800102980090C69802D1D6C
:102D9000401C9042F6D3A41A002CBBD10298C00765
:102DA00008D0D8F80800C0F300200028F9D0D8F8DF
:102DB00000002880BDE8FE4F002000F05BB8BDE8B1
:102DC000FE8F000000A8004000E000400A0708074E
:102DD000747A00202DE9F041044615480021C0F81E
:102DE000941001214161134D686A134EF06200F0A6
:102DF000010149420140C80512D440F2011704E024
:102E000044B1641E01200CF601FCA869B84204D14B
:102E1000012003E00020BDE8F08100200028EFD071
:102E20000648006870626868B0620120F3E700003D
:102E300000D01D4200E00040747A002000A800404D
:102E400009480A49826A4A60094B426A1A60808DC1
:102E500000F0010252420240D00503D4086A20F07B
:102E60000100086270470000747A002000E0004012
:102E700000A800402DE9F0410546114FF868C0F365
:102E80000240A84202D10120BDE8F081F86820F09C
:102E900007002843F86000244FF6FF76F868C0F377
:102EA0000240A84205D001200CF6B0FB641CB442DD
:102EB000F4D3B44201D10020E6E70120E4E70000AA
:102EC00000E00040F0B506462DED068B89B00D46BA
:102ED0009FED459B202101A8FFF7E8FBB0EE498A52
:102EE000F0EE698A4248C08B05F059FE9FED411B08
:102EF00053EC112B05F09EFC41EC1A0B102201A99A
:102F00003046FFF795FE002401AF04F1080037F8C2
:102F1000100005F044FE53EC182B05F0D7FB41ECF4
:102F2000180B641CE4B2082CEFD351EC180B9FED86
:102F3000330B53EC102B05F0C7FE41EC180B0D2E94
:102F400002D00E2E29D046E09FED2E0B51EC100B37
:102F500005F0B0FB41EC190B688805F020FE53EC3E
:102F6000192B05F0B1FE41EC190B288805F017FE6E
:102F700053EC182B05F0DCFF53EC192B05F05AFC31
:102F80009FED221B53EC112B05F054FC53EC1A2B34
:102F900005F09CFB41EC190B1DE09FED1E0B51EC65
:102FA000100B05F087FB41EC190B688805F0F7FD65
:102FB00041EC1A0BA88805F0F2FD53EC182B05F034
:102FC000B7FF53EC1A2B05F035FC53EC192B05F029
:102FD0007BFE41EC190B09B0B0EE490AF0EE690A2C
:102FE000BDEC068BF0BD00000000000000000000FA
:102FF000B045002000000000000059400000000023
:103000000000C03F000000000000004079E92631C8
:1030100008AC5CBFB76DDBB66DDB0E4030380A28FC
:1030200001D20120704700207047704710B501F0B1
:1030300027FA10BD03F02CBE70B504460D46294694
:10304000204604F0A7FE2946204603F00FF9294642
:10305000204603F067FA70BD03490A6822F4C06293
:1030600042EA40200860704704A80040014896F6F4
:1030700017BC0000547900202DE9F04101460029D9
:103080001BD000240F4E0E4A357814E002EB0410DA
:103090000F780378BB420CD14B684068034208D0DC
:1030A000707808B900F030FB2046BDE8F04100F030
:1030B00053BA641CE4B2AC42E8D3BDE8F08100002E
:1030C0009C850020607900207CB505460E46002DC9
:1030D00001D0002418E0E5207CBD05EB0410416818
:1030E0000091017A8DF80410417A8DF805100721BE
:1030F0008DF80610C26800780023694600F038F8A1
:103100000028E9D1641CE4B2B442E6D300207CBDBF
:1031100010B502460846052A25D2DFE802F003036F
:1031200003111900114951F832200104090C05D08E
:1031300022B10146104602F00BF910E0E42010BD68
:1031400010F0FF0F02D002F0AFF808E0E42010BD4D
:1031500010F0FF0F05D00146002024F6BFF8002034
:1031600010BDE42010BDE62010BD0000F892200044
:103170002DE9F05F05460C469046994626680027E3
:10318000042D11D031462846FFF7C2FF21462846BC
:1031900000F05EF8002808D1032D08D04FF0100A87
:1031A0002807070E002448E0E620BDE8F09F4FF016
:1031B000080AF7E7F0073DD03DB1012D05D0022DFB
:1031C00003D0032D21D0E620EFE71E4800EBC50019
:1031D00090F904B0BBF1000F15D0EFF3108101207E
:1031E00080F31088184AE01942F8308002EBC000E2
:1031F000C0F8049081F31088584624F6CBF858465E
:1032000024F6E6F816E0E420CFE7EFF31081012082
:1032100080F310880D4AE01942F8308002EBC000BC
:10322000C0F8049081F310881B2024F6B3F81B200B
:1032300024F6CEF87608641CE4B25445BAD30020D4
:10324000B3E70000F8922000B4820020C48300207D
:1032500070B58EB005460C46474991E84D00CDE962
:103260000A02CDE90C36D1E90523086906AEC96921
:103270000DC6099114224049203101A8FFF7E4F955
:10328000D4B13E49062004F0AFF83D49072004F0D0
:10329000ABF83C491B2004F0A7F83B49122004F08E
:1032A000A3F835493C39A1F12C02052D61D2DFE8A4
:1032B00005F0060606213900E5200EB070BD207924
:1032C00031F810000B90607932F810000C90A07962
:1032D0000D9020680A902848543850F8350021880D
:1032E0000904090C04D018B10AA902F05BF839E00E
:1032F000E420E2E7207901EB4000808A07906079C2
:1033000002EB4000C0880890A079099020680690E0
:10331000207810F0FF0F03D006A801F0C7FF21E0CE
:10332000E420CAE72079031F042B01D8E720C4E773
:10333000022819D001200290207901EB4000008D75
:103340000390607902EB400080890490A079059099
:1033500020680190207810F0FF0F08D001A900200C
:1033600023F6CCFF0020A8E702200290E4E7E42047
:10337000A3E7E620A1E700004C932000E5601000E1
:10338000DF601000DB601000D560100002460020F6
:10339000052A11D2DFE802F0030303090C000748F5
:1033A00050F8320089B220F614BC88B21CF6FABA82
:1033B00089B2002023F6A4BF70470000F8922000D5
:1033C000002803D0024908600120704700207047A0
:1033D0006879002070B505460024091F062917D218
:1033E000DFE801F003070C111315284600F0A4F8DC
:1033F0000EE00124284600F09FF809E00224284648
:1034000000F09AF804E0032402E0042400E005241C
:10341000034A214628461268BDE870401047000064
:10342000687900202DE9F0410446204600F0AEF80E
:1034300001462E4800230826025D00F10A0700F12C
:103440001405AAB1052A33D0082A2AD1092945D062
:10345000082926D1295D491CC9B22955142920D330
:103460002B5506552046BDE8F0410821FFF7B2BFB5
:10347000052913D0042916D0072914D0082910D102
:10348000295D491CC9B2295514290AD32B55065563
:103490002046BDE8F0410821FFF79CBF3B550521C0
:1034A0000155BDE8F0812046BDE8F041FFF792BF2D
:1034B00005290CD0395D491CC9B239553229F0D3E0
:1034C00003552046BDE8F0410521FFF783BF0355B2
:1034D0002046BDE8F0410621FFF77CBF035520469A
:1034E000BDE8F0410921FFF775BF00007C86002090
:1034F00070B504460D4600F00FF808B100F01AF957
:103500000348044A2946005D5268BDE870401047F0
:1035100090850020607900200020064911F81020D5
:103520000AB100207047401CC0B20A28F6D301201F
:10353000704700009A8600200349002201F81020FD
:1035400001EB4000427070479A860020014A02F861
:10355000101070479A860020024A012102EB4000B9
:10356000417070479A86002070B50024064D05EB27
:103570004400407810B12046FFF754FF641CE4B2C9
:103580000A2CF4D370BD00009A86002070B500218B
:103590001D4B03F132051A5C002A09D0002403F107
:1035A0000A06012A0AD0022A12D0032A24D11FE0D7
:1035B00015F8102002B301221A541DE015F810204E
:1035C0001AB1345402221A5416E01C54042113E098
:1035D00015F810204AB1325C521CD2B23254642A1F
:1035E0000AD3072103221A5406E005211C5403E0E4
:1035F00015F8101011B10821084670BD1C54FFF7D2
:103600009BFF0921F8E70000688600207047000052
:103610002DE9F0410F4690460A2F04D8B8F1000F6B
:1036200001D0002323E00020BDE8F08103EB430636
:1036300010F826402CB1012C03D0022C01D0032C11
:1036400013D100EB8605124AA97AD154104910F81B
:1036500026200C3101EB0314227069686160297A1D
:103660002172697A61720B49E1605B1CDBB2BB427B
:10367000DCD3074839460C30FFF726FD06480770B3
:10368000C0F804800548FFF79BFE0120CCE700004E
:10369000908500207930200060790020F1342000EE
:1036A0002DE9F0410024124FDFF8488019E0002690
:1036B00007EB041528786968FFF768FE10B9697A86
:1036C000012902D0012802D005E0012603E0687A32
:1036D000022800D1012631462046FFF737FF641C3F
:1036E000E4B298F800008442E1D3BDE8F081000024
:1036F0009C8500206079002010B5FFF7D1FFBDE860
:103700001040FFF731BF000010B5074A01210748FC
:1037100000F00EF900220A21044800F05FFA044983
:103720000120487010BD0000F936200040860020BE
:103730006079002010B5034800F028F90249002004
:10374000487010BD4086002060790020002806D017
:10375000002904D0024AD269002A00D010477047DD
:103760006885002070B50D4616460D4C00280AD01D
:103770000178032911D80121A17601461A22204699
:10378000FEF71DFF05E00020A0761A210448FEF791
:103790008DFFE5612662002070BD012070BD000034
:1037A0006885002010B50848017800290AD1012158
:1037B0000170064893F6DEFEBDE810400021044883
:1037C00094F66EB810BD00004C7900205D601000CA
:1037D000E96C200070B50D4C2068002814D090F8DA
:1037E000250088B1132023F6E2FD2068002580F82B
:1037F0002550092003F0F4FA2068001D01F044FE72
:10380000002800D1256070BDE92070BD48790020F6
:103810000178002904D1034901220A604068486008
:10382000704700006C79002010B501460E48006812
:10383000002808D090F825202AB190F82420012AE9
:1038400003D021B109E0E92010BDE72010BD826856
:10385000B2F5805F01D0E42010BD001D01F0D0FE64
:103860000028F9D110BD00004879002010B50D4A9C
:103870001368002B05D093F8252012B139B110B18F
:1038800007E0E92010BD9A68B2F5805F01D0E4201E
:1038900010BD0A460146181D01F0F8FD0028F7D1B9
:1038A00010BD0000487900202DE9F04104460026B3
:1038B000002C25D01A4D04F114002860227880F8DD
:1038C00024200160211D08308EC98EC0183815498A
:1038D0004160001D01F0D8FD002812D12868001DAC
:1038E00001F000FF00280CD1092202210E4803F04C
:1038F0005FFA2968012081F82500207818B10CE0D2
:10390000E520BDE8F0810949132003F06DFD132087
:1039100023F640FD132023F65BFD3046F1E700005F
:103920004879002000780140DC9220000129200025
:103930002DE9F04104460D461746002D04D0012D17
:1039400002D00120BDE8F081E4B1DFB16078012848
:103950001AD0EFF311860220FFF7B2F88046FFF786
:10396000CBF8401C0121814008EB0100C0B280F37C
:10397000118800206070A570E761F0B280F31188B3
:103980000020DFE70120DDE70620DBE710B5044675
:10399000002C0CD0204600F0B3F9FF20607000210D
:1039A000A160E160216161610020E06110BD012042
:1039B00010BDF0B5DDE90745059981614FF47A76D0
:1039C000A2FB061C03FB06C3002702FB0732C0E96B
:1039D000021209196A41C0E9041200210162F0BD16
:1039E0002DE9F0410446002C13D0EFF3118502209D
:1039F000FFF766F80746FFF77FF8401C012606FA36
:103A000000F03844C0B280F31188124800212162CE
:103A10000EE00020BDE8F081D4E90432D1E9047C55
:103A2000DB1B72EB0C0202D2016A216203E0084642
:103A3000016A0029F0D104626670064810380168F6
:103A4000491C0160016B4160E8B280F311880120DC
:103A5000E0E70000308400202DE9F0410546002415
:103A6000EFF311860220FFF72BF80746FFF744F823
:103A7000401C012181407818C0B280F31188134A9C
:103A8000106BE8B115B102F1100010E00446206A95
:103A900010631068401E10600CE0A94206D1116846
:103AA000491E1160296A01622C4603E00846016A3A
:103AB0000029F2D124B1002020626070106B5060A8
:103AC000F0B280F311882046BDE8F0812084002008
:103AD0002DE9F041EFF311870220FEF7F1FF0446D4
:103AE000FFF70AF8401C012181406018C0B280F342
:103AF0001188114D002608E02078012804D1E169E1
:103B000009B1A069884726702D6A2C6A002CF3D170
:103B1000094D103D07E0E16909B1A06988472670A9
:103B2000206AA8632662AC6B002CF4D1F8B280F353
:103B300011880120BDE8F081308400202DE9F0419A
:103B4000EFF311870220FEF7BBFF0446FEF7D4FF18
:103B5000401C012606FA00F02044C0B280F3118810
:103B60001D4DA5F110082DE0D4E90430D8E902126A
:103B70005B1A60EB0200D8E91021D21A814124D3EC
:103B800026702046FFF768FFA078012806D012486B
:103B9000283000212162016861B10FE0D8E90220DC
:103BA000D4E9021351185841C4E904102046FFF724
:103BB00017FF07E0046005E001F12000016800291B
:103BC000FAD104602C6A002CCED1F8B280F31188AF
:103BD0000120BDE8F0810000308400202DE9FF5F66
:103BE00082460E4693464FF00008BAF1000F20D0EF
:103BF000414886421DD8E6B1EFF311870220FEF757
:103C00005FFF0446FEF778FF401C012181406018E9
:103C1000C0B280F31188504602F0BAF910B19AF898
:103C2000010040B1F8B280F311880F2004B0BDE864
:103C3000F09F0120FAE702F035FA04460D464FF4F2
:103C40007A7106FB01F022462B46002102F064F84F
:103C5000DFF8A890B0B1D9F8040048B1D0E9041059
:103C6000091B60EB0500C9E9021002F095FA04E0B7
:103C70000021C9F80810C9F80C104FF00108D9E963
:103C8000020106E0D9F80400D0E90421101B61EB21
:103C90000501CDE9020132460023CDF800B05046BF
:103CA000FFF787FE5046FFF79BFE03F003FB4FF044
:103CB000E024D4F800014FF0806510F0806F01D04F
:103CC000012000E0002020B91A20FEF7B4FEC4F85D
:103CD0000051B8F1000F0AD0D9F80400D0E904313E
:103CE000D9E90202181A61EB020102F011FAF8B2E6
:103CF00080F31188002099E7008AB907208400200A
:103D00002DE9F04104460025002C39D0EFF311874E
:103D10000220FEF7D5FE0646FEF7EEFE401C01210E
:103D200081407018C0B280F311886078012824D1D6
:103D3000144E7068A0420BD102F0B4F9D4E90432F9
:103D4000181A62EB0102C6E9020202F025FA012507
:103D50002046FFF781FE5DB1706848B1D0E90421CB
:103D6000D6E90203101A61EB030102F0D1F904E075
:103D70001DB9706808B902F00FFAF8B280F3118823
:103D8000BDE8F0812084002070B504461A4D55F836
:103D90002400703003F09BF882B21646A2B155F8A9
:103DA000240090F8011101290ED0012180F804119E
:103DB000802A0FD355F82400802200F18001703052
:103DC00003F09AF880260CE055F82410002081F8C2
:103DD000000170BD55F8240000F18001703003F03F
:103DE0008BF855F82400324600F18001001D2DF6B5
:103DF0000BFA0028EDD170BD04840020704700004C
:103E00002DE9F84304464D4F57F82400061D062CB3
:103E10007ED290F86C1000297AD0012978D190F8E0
:103E20000011012974D190F80111002970D10121EC
:103E300080F80111002157F82400D0E9032313442E
:103E4000027D02F00102D21D9D184268D36FC3F3B8
:103E50008003002BFAD090F80421A2B1384A1368ED
:103E6000491C90F83B20102A06D08268B3FBF2F27E
:103E70006A43B1EBC21FF3D957F82400703003F046
:103E800026F885B226E0B0F82480C58C001D2CF6FB
:103E900035FC57F8240041F2883300EB0801491B38
:103EA0008031001D2A462DF65CF9E5E757F824001D
:103EB00001227030694603F01FF857F8240040686B
:103EC000C16FC1F340010029FAD09DF800100160D4
:103ED0006D1EADB2002DE9D157F82400703002F00C
:103EE000F6FF0028C8D1306841694906FCD5EFF3D8
:103EF0001085012080F3108857F82400703002F0FC
:103F0000E6FF68B1EFF31081012080F3108800E034
:103F100011E03068426842F08202426081F310880A
:103F200057F82410002081F8000157F8241081F878
:103F3000010185F31088BDE8F883000004840020A7
:103F4000600300202DE9F04105460F46002D06D004
:103F50002AB12C78062C04D3E820BDE8F081E520B6
:103F6000FBE7384E05F1580046F82400D2E900314D
:103F70000A467030194602F095FF291D286D03F09E
:103F800055FF0028E9D156F82410281D486656F838
:103F90002400076056F824001822083005F140017B
:103FA000FEF752FB284856F8241000EBC405686859
:103FB000486056F82400001D01F01EFC56F824004D
:103FC000001D01F035FC204801220321103802F0C9
:103FD000EFFE56F82410012081F86C0056F82410EA
:103FE000002081F8000156F8241081F8010156F8EC
:103FF000241081F8020156F8241081F803011349B6
:104000000C2003F0F1F912490D2003F0EDF91149EC
:10401000342003F0E9F91049352003F0E5F90F49A0
:10402000362003F0E1F90E49372003F0DDF995F968
:10403000010023F6AFF995F9010023F6C9F9002034
:104040008BE700000484002090932000D5292000F5
:10405000E5292000F5292000052A2000152A200046
:10406000252A20002DE9F04104461A4D55F8240078
:10407000703002F02CFF82B2164600277AB155F854
:10408000240090F80111012909D0802A0ED300F1F3
:1040900080017030802202F02FFF80260BE055F85F
:1040A000240080F800710020BDE8F08100F180015B
:1040B000703002F021FF55F8240080F8047155F8A3
:1040C0002400324600F18001001D2DF661F9002820
:1040D000EAD1E9E70484002070B5062801D3E8207E
:1040E00070BD104D55F8204064B194F86C604EB12D
:1040F00051B14AB15E1C09D044F62066B34205D9DD
:10410000E42070BDE52070BDE42070BD002684F879
:10411000026155F82000001D2DF623F80028F4D187
:1041200070BD0000048400202DE9F84307460C46CA
:10413000904604F10805204690F638F80346344EC0
:1041400070680021A7F58042DFF8C8C0B2F5804F43
:1041500003D2DCF80010401A0121E218824202DD8D
:104160000520BDE8F8833068421EC2F30B02821AB4
:1041700002F6FF72C2F3073211B1DCF8001000E062
:104180000021DFF894C0DFF89490DCF800C0D9F883
:104190000090ACEB090C96F80990A2EB09020CEB2D
:1041A000C202101A401A001FE918814229DD0025B9
:1041B0004FF4004911231F2249462846009573F603
:1041C0004DFA0021084600F075FE40B113231F226E
:1041D00049460020009573F641FA0F20C1E7707A36
:1041E00001F0D8FC0028BCD112231F2249460095BB
:1041F00073F634FA424621463846BDE8F84303F0E8
:1042000027BF424621463846BDE8F84303F020BFA9
:1042100090470020B8350020C4350020BC35002070
:1042200070B503F0D5FA40F21A4120B140F24C408B
:1042300003F03EF903E040F22E4003F039F90D4C53
:10424000A07850B1E08803F043F90546208903F0D7
:104250003FF9294603F082FA05E04FF461714FF40B
:104260007A7003F07BFABDE8704002484A3002F0F1
:104270005FBC0000747A002000214FF03040C16024
:104280008161C0F8D011C11741610162C0F8D81135
:1042900003496FF4806008600220FEF7D9BB00007C
:1042A00084A0004010B500F08FF8BDE8104000F089
:1042B00069B8000010B51248016821F0070141F00B
:1042C000040101600A200BF6A1F90D488438016849
:1042D00021F4807101600121002026F63DFC0120BF
:1042E0001CF6DCF907490220087002F0F3FF0649CA
:1042F000322003F079F8BDE810403220FEF7C6BB4B
:1043000090A80040407A00207B28200010B5194872
:104310000068C0F30B0017490831096821F07F419C
:10432000401C00EE100ADFED140AB8EE400A60EE01
:10433000200A00EE101A1149B8EE400A80EE801AE9
:10434000B6EE000A31EE000ABCEEC00A10EE100A0A
:10435000486002F0CBFB03F06BFA0948016841F4B6
:104360008071016006488430016821F00701016016
:1043700010BD000004E400400024F44B407A00200B
:104380000CA8004000B587B003218DF8041002206E
:10439000029005228DF80C2001208DF80D000023DD
:1043A0008DF80E308DF8101005908DF818208DF8CE
:1043B00019008DF81A00034A022101A8FFF728F915
:1043C00007B000BD0D36200000B587B000F01EF824
:1043D00003208DF800001D208DF8160001208DF8B7
:1043E00017008DF818008DF81900044A0449684632
:1043F000FFF7B8F9FEF73AFE07B000BD054420000C
:10440000714420000320FFF7FBBC00001CB51448DA
:1044100000904FF4806001901248032202704FF424
:10442000E1310164426400218164C16401650123BA
:1044300043650174202444614274037601711023A2
:10444000836042710173084941638163022180F8EE
:104450003C1080F83D206A460449FFF773FD1CBDFF
:10446000F87C0020F880002000900140FD3D2000F5
:104470000A4601464FF47A730320FFF72DBE000071
:10448000052110F1190F01DC022110E000F11402E6
:104490000F2A01D803210AE00F2801D8042106E0E1
:1044A000A0F11402192A02D932280CDB0621064891
:1044B0000268C2F303328A4205D0026822F47042D5
:1044C00042EA01310160704714A8004010B5002194
:1044D000084626F641FB01201CF6C0F80248816818
:1044E00021F48071816010BD00A0004010B5144817
:1044F0000068C0F30000002807D0114808380068A1
:10450000C0F3000008B102F03DFF0E480068C0F3A0
:10451000000038B10B4808380068C0F3000008B14B
:1045200000F084FB02F0BCFE002807D001F066FA20
:10453000002803D0BDE81040FFF7C8BF10BD000041
:1045400008E4004008E5004010B502F0A9FE20B1E3
:1045500001F054FA08B1012010BD002010BD10B5C3
:1045600002F030FF00F00EFB10BD10B500F0AAFE07
:1045700002F00AF902F014FCBDE8104000F092B815
:104580002DE9FC4104468846164D4FF6FF76164F3E
:1045900012E02968082201EB0030694688F63AF9F2
:1045A000082802D01020BDE8FC81BDF80000B04210
:1045B00008D12078401C20702078797A8842E8D38E
:1045C0000020F0E709489DF80010C170BDF8021006
:1045D00081809DF8011088F800102178417000203A
:1045E000E1E70000BC35002090470020C8350020DE
:1045F00010B51248016821F0004101600F23011D30
:104600000A6863F31F720A600A6822F4E07242F4D7
:10461000C0720A60016841F0004101600848016809
:1046200041F0010101600749312002F0DDFE064939
:104630004FF40030C1F8000110BD000004A9004093
:1046400088E200408528200004E000E0F8B5EFF3A0
:104650001085012080F31088072000906846FEF73F
:104660006DF90220FEF772F932200AF6CFFF0B4CEB
:10467000206840F002002060094E70890AF6C6FFEB
:10468000206820F002002060B0890AF6BFFF9DF884
:104690000000FEF75BF985F31088F8BD04A900401F
:1046A000D87A0020024901480860704775731000ED
:1046B000CC05002010B595F641FA002800D0FEE7A1
:1046C00010BD00B500F00AF85DF804EB01F026BA61
:1046D00001480078704700000C8D002030B5084C70
:1046E000012525706060E2602361A1600548806853
:1046F000884201D2081A00E0401A606130BD000013
:104700000C8D00205C7A002010B501F0E1F9044620
:1047100018210548FDF7CAFF034A00211170204601
:10472000BDE8104000F046B90C8D0020F0B40446FE
:104730000E462C482C4FB9680578026244628C42C0
:1047400001D9631A00E00B1BFF689F4206D3134692
:1047500032462146F0BC0020FFF7B3BF87699F4275
:1047600001D98361C261012D0AD0022D27D0032D0A
:1047700036D1134632462146F0BC0020FFF7A1BFD8
:1047800044618C4203D90169491EC16002E001699C
:10479000491C8160D0E90212914209D211444908B2
:1047A00001610121017001693046F0BC00F01EB8C2
:1047B0000221017081683046F0BC00F017B8C16971
:1047C000914206D1134632462146F0BC0020FFF745
:1047D00078BF03210170C1693046F0BC00F006B813
:1047E000F0BC7047B48C00205C7A0020054A936AC4
:1047F0005B1C93628AB2C1B20348044B406801F06B
:104800000BB90000B48C00205C7A00202D472000FA
:1048100070B505460D4C2C212046FDF747FF0020C2
:10482000A06040F2FF10E060FF2222614FF0FF30F5
:10483000A061A06A401CA062012020700448E9B277
:10484000044B4068BDE8704001F0E6B8B48C00202D
:104850005C7A00202D4720002DE9F84307460D46DD
:1048600090462E4C207801280BD0022813D0082027
:10487000E06101B043462A463946BDE8F043FFF700
:1048800020BFE76040F2FF1121612846BDE8F843F0
:10489000022200F079B8002600966761684600F0B1
:1048A0003FF870B1012810D002281FD003282DD066
:1048B0000720E06143462A463946FFF702FFBDE87C
:1048C000F8832846FFF7A4FFF9E70F2D06D23146FB
:1048D000A6600122681C00F057F8F0E70520E061AF
:1048E00043462A463946FFF7ECFEE8E735B1A660B5
:1048F00001220021681E00F047F8E0E70620E06191
:1049000043462A463946FFF7DCFED8E70098E061C7
:1049100043462A463946FFF7D4FED0E7948C002060
:1049200010B5174B17490A698968154CDB6864692B
:104930008B4203D98C4201D9022010BD8B4203D295
:104940008C4201D2012010BD8B4201D95B1A00E0DC
:10495000CB1A8C4201D9611A00E0091B934203D3A0
:10496000914201D3002010BD934201D2022010BD1C
:10497000914201D2012010BD02210160032010BD2F
:10498000948C00205C7A002030B4074B9C69641C36
:104990009C6158601A708AB2C1B20448044B4068E6
:1049A00030BC01F039B80000948C00205C7A002003
:1049B0005948200070B50546064C20212046FDF7D9
:1049C00075FE0021A1602846BDE870400122FFF776
:1049D000DBBF0000948C0020F8B50E461F4C00256C
:1049E0000095E169491CE1616660A260E1682161AE
:1049F000E0601B498B68834201D2C01A00E0181A9C
:104A00006169814201D96061A261684600F02AF8BB
:104A100058B101280ED0022814D0032818D00098CD
:104A2000A062204600F0BFF8F8BDA562204600F065
:104A3000BAF8F8BD012084F820003046A16900F0E2
:104A400077F8F8BDA1683046491C00F071F8F8BD50
:104A5000A1683046491E00F06BF8F8BDE08C0020DC
:104A60005C7A00202DE9F0432F4A304FB9680025C9
:104A70000026D3688B4201D95C1A00E0CC1AFF688B
:104A8000A74202D30020BDE8F083D2F82480B8F119
:104A9000010F10D092F82040012C0ED0224CD2F8F9
:104AA0001CC04FF00109A769A468C4450BD3A742F5
:104AB00005D10020E7E70020E5E70020E3E782F8E2
:104AC00020900120DFE7BCF1010F11D9D2F810C00E
:104AD0008C4501D98B4203D38C4509D28B4207D92F
:104AE000A74201D10020CEE782F820900120CAE73A
:104AF0008B4201D9012600E0012545B1B4F5FF7FC5
:104B000003D9092101600420BDE70220BBE736B1CB
:104B10000CB10320B7E70A2101600420B3E70B21A1
:104B200001600420AFE70000E08C00205C7A0020E8
:104B30008AB2C1B20248034B406800F06DBF00006A
:104B40005C7A0020D949200070B504460E4615460F
:104B50002C210948FDF7AAFD074B002183F82010FE
:104B6000491E59615C620548AAB2F1B24068BDE8CD
:104B70007040034B00F050BFE08C00205C7A0020B6
:104B8000D949200010B500F029FF00280AD0FFF70E
:104B90009FFD18B1BDE8104000F028B8BDE81040F6
:104BA000FFF7B2BD10BD00B500F004F85DF804EBEE
:104BB00000F0B4BF0B4901220A71826A8A60C2699F
:104BC000CA60C2680A6142684A6182688A61064AAC
:104BD000C0689268904201D9801A00E0101AC8613A
:104BE00070470000248D00205C7A00202DE9F04100
:104BF00000F06EFF074600F07DFF8046094C2668F6
:104C00000948456920212046FDF750FD761C2660A5
:104C100000202071424639462846BDE8F041FFF7A2
:104C200093BF0000248D00205C7A002010B50E4C4C
:104C30002069401C206100F077FFE06000F048FF31
:104C4000606000F057FFA060084A002111606161B8
:104C5000E3692BB182B22179E068BDE810401847C2
:104C6000BDE8104000F05ABF748C002000E5004001
:104C70002DE9F04106460F461C4C4FF6FF75238C7C
:104C8000102B0AD3208821466084CD835B1E0B84C1
:104C90001E22891C2046FDF792FC608C3246394664
:104CA00091F654FD10B10C20BDE8F081208C102845
:104CB00004D3401C2084608CE08308E0618C24F8DD
:104CC0001010208C401C2084608C401C608400F0FC
:104CD0000FF80028E8D0218C491E89B22184628C0B
:104CE000521E628424F81150DEE70000B08A0020D2
:104CF00010B5054A24214FF4204091F627FD08B154
:104D00000C2010BD002010BDB08A00202DE9FC4110
:104D1000164804680834164E3078002802D0002067
:104D200091F622FA134D4FF6FF7708226946204686
:104D300091F624FABDF80000B84211D080B1BDF858
:104D400002008FF633FABDF802100830084481B231
:104D500020468FF607FD044628688442E5D32C6878
:104D6000307891F601FA2046BDE8FC81BC35002080
:104D7000B5350020C435002008B51A48016821F077
:104D800070010160016821F0070141F00401016038
:104D900015490978002909D0124984390A6842F472
:104DA00080720A60016821F007010160012001F0B2
:104DB00053FB0020FEF750F901F054FD80B10020B4
:104DC0008DF80000A3208DF8010002208DF802006C
:104DD000684691F6ADFF01F0E3FC01F08BFD08BDE4
:104DE000FEE7000090A80040E87A002070B5044675
:104DF00000BFFDF789FE05460120FDF715FF0948B4
:104E0000047024B9482208490848FDF71DFC1DB963
:104E10000020FDF709FF02E00120FDF705FF00BFBC
:104E200070BD0000FC790020AC8B0020002000E069
:104E300010B50748406807494860064808304022D6
:104E400003490831FDF700FC03200249086010BD4A
:104E5000648B0020002000E070B500BFFDF754FE19
:104E600005460120FDF7E0FE0B48047834B94822DE
:104E70000A490B48FDF7E8FBFFF7DAFF0120064976
:104E800008701DB90020FDF7CFFE02E00120FDF7FC
:104E9000CBFE00BF204670BDFC790020002000E062
:104EA000AC8B002013B501216846FEF74FFC0120B2
:104EB0001CBD00002DE9F04F8DB008220C9200229D
:104EC0000B924FF008080A92099100269A4FDFF8DA
:104ED0006CB24FF0010A002848D0082204A93868B3
:104EE00087F698FC082803D00F200DB0BDE8F08F9E
:104EF0009DF81000A52806D09148C1880C914478EF
:104F000080780B9046E09DF81100DBF8001002223B
:104F100001EB0030083001A987F67CFCBDF80410D5
:104F2000A1F57F40FF380AD09DF81100DBF8001092
:104F300001EB00304FF4805191F6EEF890B19DF8FE
:104F40001200BDF816100C919DF81110491CCCB23E
:104F50000B9009AB0CAA0BA904A803F0CBF901280C
:104F600002D017E01020C0E70020BEE7FFF7CEFE1A
:104F7000411EC1F30B01401ADBF80010401A00F685
:104F8000FF70FF2101EB1030C4B20B9414B1CDF8C7
:104F900024A0012695F690F8C7E000250695079510
:104FA0005CB1DBF80000042200EB043006A987F6B0
:104FB00031FC042801D00F2097E761480560456067
:104FC000A521017044709DF82C108170BDF830103F
:104FD000C1809DF81810C170BDF81A108180DBF8EF
:104FE000000000EB043040440A90386800EB0801F0
:104FF00008914FF4805191F68FF850B19DF8182028
:105000004AB1012308A90AA803F048F918B10F20F2
:105010006BE7102069E7BDF81A203AB1002308A910
:105020000AA803F03BF908B10F205EE7C4F10009BC
:105030000A98DBF80010401A00EB0930C0F58055E3
:10504000082D2CDD082302AA08A90AA8CDF800A083
:1050500095F644FC08B10F2047E7BDF80810A1F50C
:105060007F40FF3830D0083DBDF80A008FF69EF82B
:10507000BDF80A100844A84208DDAAB2002308A916
:105080000AA803F00BF9C8B10F202EE782B2002363
:1050900008A90AA803F002F980B10F2025E7A8B2F9
:1050A0008FF684F8284483B2264A08A90AA8CDF8C6
:1050B00000A095F613FC08B10F2016E73868089990
:1050C00000F580508142B3D308221D49386887F625
:1050D000EFFB082801D00F2007E7DBF800004FF4B2
:1050E000805100EB043091F617F860B176B1DBF82F
:1050F0000000042200EB043006A987F6D9FB04283F
:1051000003D00F20F1E61020EFE6002609AB0CAA31
:105110000BA90B4803F0EEF8012802D018B10F20BC
:10512000E3E60020E1E6641CE4B20748407AA042CE
:10513000BFF433AF0020D8E6C0350020BC350020D6
:10514000C835002064460020904700200246002118
:105150000BE0084850F83130501E834204D1054816
:1051600000EBC10040687047491C1029F1DB0020AA
:10517000F9E70000F48B0020002101E0491C400801
:10518000C207FBD00846704710B502F021FB50B1B2
:105190004FF48C642146204602F08AF921462046CD
:1051A00002F0DCFA09E040F24C442146204602F0CD
:1051B0007FF92146204602F0D1FABDE810400148AF
:1051C00001F0B6BCC87A0020014840787047000062
:1051D000747A002070B5044600BFFDF795FC0546C3
:1051E0000120FDF721FD00201449087014481549DD
:1051F0000860154815490860482215491548FDF70B
:1052000023FA1548124948600320086048221348D1
:10521000FDF71AFA48220F490D48FDF715FA882CB8
:1052200001D002F05FFC1DB90020FDF7FDFC02E09B
:105230000120FDF7F9FC00BF70BD0000FC790020E3
:10524000ED4D200084380020594E20008038002089
:10525000002000E0AC8B0020808E0020648B0020BA
:105260002DE9FE430546002403208DF800000026AA
:105270000C4F4FF00108E8070BD008FA04F001903A
:1052800007EBC4004068029057F8341009B1684633
:105290008847641CA4B26D08761C082EEBDBBDE8C1
:1052A000FE830000C48300201AF61EBB10B504461E
:1052B00003481AF685FB2046BDE810401AF62CBBC1
:1052C000087A002000B5012002F09CFA024901484A
:1052D000086000BD317310001400002010B5EFF31A
:1052E0001084012181F310881BF69EF903480068A1
:1052F00008B900F005F884F3108810BDD00500202F
:1053000010B594F61FFD00281ED1EFF31084012084
:1053100080F310880D48016841F0040101600B49D9
:10532000083108684007FCD503F0A0F9012000F01F
:105330007FFE012000F07CFE04481C38016821F04B
:105340005001016084F3108810BD000040A40040AB
:105350001EF60CBC2DE9FE4380460F463846FFF78B
:105360000BFF85B20024DFF834900D4E59F834005D
:1053700040450ED105EB041085B28DF80040019731
:1053800006EBC5004068029056F835200AB1684621
:105390009047641C032CE9DBBDE8FE83F8922000F3
:1053A000B482002070B504460D4604481EF61AFC6F
:1053B00029462046BDE870401EF609BC0C7A002044
:1053C0002DE9F041EFF311870220FDF779FB044648
:1053D000FDF792FB401C012181406018C0B280F3B0
:1053E00011880020FEF738FB0546254ED5E904124A
:1053F000C6E902122348081A72F11E0019D306F1F9
:1054000010000EE0DCE90412D6E90234B1EB030827
:1054100072EB040804D3C91A62EB0402CCE904124B
:10542000006AD0F820C0BCF1000FEBD10021B160C0
:10543000F160A87801280AD1D6E90230D5E9021234
:1054400059185041C5E904102846FEF7C9FAF8B2C8
:1054500080F31188FEF772FB706840B1D0E9042137
:10546000D6E90203101A61EB030100F051FEE9696D
:1054700009B1A8698847BDE8F041FEF729BB0000E3
:10548000208400200010C32C28F610BC2DE9F04F1A
:1054900087B004460D469046142102A8FDF706F990
:1054A0004FF0000994B1B8F1000F0FD0207D012812
:1054B0000ED001202075607D002601280AD04FF013
:1054C00001092675484607B0BDE8F08F0120FAE7CC
:1054D0000220F8E70021204601F072FE204601F08C
:1054E000AAFE0221204601F08FFE60680290A068AB
:1054F0000390E068049020690590069602A9206850
:1055000042F654FE20B16068B0F5C05F07D021E0DC
:105510000421204601F078FE26750120D3E7CDB1A5
:10552000A068A8B3298820680162698820680162A0
:10553000A98820680162E9882068016229892068B9
:105540000162698920680162A98920680162E9898C
:10555000206801622068016841F00101016024486F
:1055600000680190DFF88CA0DAF800B00198594685
:105570001DF6D4FBDAF80450FDF714FA1E484FF478
:105580007A710068B0FBF1F1C82041431B4F1DE068
:10559000FFE7298820680162698820680162A9887C
:1055A00020680162E98820680162D3E7DAF8040024
:1055B000401B88420AD90421204601F025FE2675A9
:1055C000594601981DF682FB03207CE77868C0F3FA
:1055D00000000028EAD0594601981DF677FBB8680C
:1055E000A061C8F800000121204601F00DFE68E727
:1055F000FCED00E0001000E06003002000780140B6
:10560000F0B585B004460D4614216846FDF74EF806
:1056100000276CB1207D01280CD001202075607D11
:105620000026012808D026750127384605B0F0BDB0
:105630000120FBE70220F9E70021204601F0C0FD30
:10564000204601F0F8FD0221204601F0DDFD6068F2
:105650000090A0680190E0680290206903904FF4E8
:10566000005004906946206842F6A0FD20B16068B1
:10567000B0F5C05F07D021E00421204601F0C4FD51
:1056800026750120D2E7CDB1A068F0B12988206845
:105690000162698820680162A98820680162E9883E
:1056A0002068016229892068016269892068016295
:1056B000A98920680162E98920680162267520684D
:1056C000016841F001010160AFE7298820680162AB
:1056D000698820680162A98820680162E9882068D9
:1056E0000162EBE710B50446034828F69DFC20460E
:1056F000BDE8104028F64CBC107A00207047704777
:105700001CB500208DF80000019104480068016874
:10571000002901D0684688471CBD00004879002058
:1057200070B504460D46044825F628FA2946204659
:10573000BDE8704025F6D4B8C1532000094841782F
:10574000002907D101214170074A126802F00302C3
:1057500002B90170007810B104480068704704482D
:1057600000687047047A00203CA50040447A00207D
:105770005C0300201CB502F047FB05218DF80010EA
:105780000649002251F8203083F8002151F820000A
:105790000168002901D0684688471CBD04840020A8
:1057A0001CB502F031FB04218DF8001006490022DF
:1057B00051F8203083F8002151F8200001680029B9
:1057C00001D0684688471CBD048400201CB502F047
:1057D0001BFB03218DF800100649002251F82030F0
:1057E00083F8002151F820000168002901D06846A3
:1057F00088471CBD048400202BF68AB81CB50446DB
:10580000204602F001FB00228DF80020E16B01919F
:10581000064951F8203083F8002151F82000016832
:10582000002901D0684688471CBD00000484002080
:1058300010B5044603482BF6DDFB2046BDE81040BA
:105840002BF6D8B91C7A002070B5044622689068FF
:1058500000F00F000021022809D004280CD00628EF
:1058600016D00C2844D1A06901280BD00BE02046AB
:10587000BDE8704002F048BB2046BDE87040002102
:1058800072F61ABA01212046BDE8704072F614BAC9
:105890005069E16B00F01E000143E163D06FC0F37B
:1058A000C00018B10021204672F606FAE06B4FF0F6
:1058B000000580071DD5204672F699F994F8350049
:1058C000012804D02046BDE87040FFF797BF206B49
:1058D00048B10A490164206B1BF6ECF830B1206B2B
:1058E000016C884702E02046FFF788FF84F83550B6
:1058F00070BD2046FFF782FFE56370BD1D7A07008B
:10590000704770471CB50446204602F07DFA02211C
:105910008DF80010218D628D891AADF804100449AC
:1059200051F820000168002901D0684688471CBD55
:10593000048400207CB50546284602F065FA04463A
:1059400001208DF80000288C698C401AADF8040005
:105950000C4D55F8240090F8040118B12046FEF7CC
:1059600013FA02E02046FEF77DFB55F8240090F87C
:105970000011002904D10168002901D06846884738
:105980007CBD0000048400202DE9F04F87B004683E
:1059900045688668C768D0F81080D0F81490D0F8B1
:1059A00018A0D0F81CB04FF480610A48FCF77EFEC6
:1059B0008DE8C00F2B46224607490648FCF7E0FB5E
:1059C0000448FCF7DDFD07B081B2BDE8F04F0148A7
:1059D000FFF74EB9B0860020749420000548406956
:1059E000002804D00448006808B100207047012056
:1059F00070470000748C0020D805002000B5FFF728
:105A0000EDFF20B10348806908B1012000BD0020EE
:105A100000BD0000748C00202DE9F04105460C46C5
:105A200016469846FFF7DAFF002847D001210020EC
:105A300025F692F801201AF631FE214F01207861F7
:105A40003D607C60BE60C7F81C800020B8611D4DC1
:105A5000286820F001002860204600F041F8304618
:105A600000F050F8174CDFF85C80174E143408F142
:105A70000C08B06840F48070B060022000F0F4FAC6
:105A8000386800F0FBFA206840F0010020602068D0
:105A900040F002002060286840F001002860D8F83B
:105AA000000020F07F400028E3D00849322001F0B8
:105AB0009BFCBDE8F0413220FCF7E8BFBDE8F08177
:105AC000748C002000E5004000A000407B282000EE
:105AD0000248006800F00F007047000054A8004022
:105AE00003490A6822F00F0202430A60704700006F
:105AF00054A8004002480068C0F308407047000006
:105B000050A8004003490A68034B1A4042EA00408B
:105B10000860704750A80040FFFF00FE01490120C7
:105B200088617047748C00202DE9F0412DED028BC7
:105B30001648006820F07F400022144B083B1B6889
:105B4000C3F30B041146641C0D4647F61223A0FB59
:105B5000032701FB0371002600FB0611104603F02A
:105B600008FB08EE100A2046294603F002FB00EE6F
:105B7000100A0749C8EE000ABCEEE00A10EE100A4F
:105B8000C860BDEC028BBDE8F08100000CE5004070
:105B9000407A00202DE9F04F87B05B490E68083647
:105BA0004FF0000BCDF818B0584F787208213960CB
:105BB000C0EB40206FF00B0101EBC00806A800F01D
:105BC000DBF820B19DF818100120FFF773F908F1F8
:105BD000080078604FF001094FF0000A4C48007847
:105BE00010B1002090F6C0FA042204A9304690F6C5
:105BF000C5FABDF81010A1F57F40FF3829D0082262
:105C000004A9304690F6BAFABDF8120000F1080473
:105C10008EF6CCFA0546BDF8100090B304A894F6B1
:105C2000DBFCC8B178686119401A7860002822DA74
:105C30000E231F224FF400410020CDF800B071F672
:105C40000DFD3348007890F68FFA0E2007B0BDE8BE
:105C5000F08F4FF0010A22E00C231F224FF4004185
:105C60000020CDF800B071F6F9FC2948007890F6D4
:105C70007BFA0B20EAE74FF00009314604A894F6BE
:105C800029FA601981B230468EF66CFD06461E4830
:105C90000068301A38601F4800688642A4D31C4848
:105CA000007890F661FABAF1000F05D0B9F1000F53
:105CB00004D0C7F804800AE00D20C7E778680828F8
:105CC00002DD0838786002E03872C7F804B07868FE
:105CD0000122052140450BD8CDE9002102900F2378
:105CE0001F224FF40041002071F6B8FC0020ADE700
:105CF000CDE90021102302901F22D902002071F665
:105D0000ADFC0E20A2E70000BC350020904700202B
:105D1000B5350020C43500202DE9F04705460E4674
:105D200017469846EFF311840220FCF7C9FE81461E
:105D3000FCF7E2FE401C0121814009EB0100C0B2EA
:105D400080F311880B48406848B1E81B76EB0806E1
:105D50000AD2E0B280F311880120BDE8F087E0B2FA
:105D600080F311880120F8E7E0B280F31188002069
:105D7000F3E70000208400202DE9F04F85B00746AE
:105D8000DFF8FC91D9F8004008342646DFF8F481AA
:105D900008226946D8F8000086F63CFD082803D0A2
:105DA000002005B0BDE8F08F9DF80000A5280BD0BD
:105DB000DFF8D4B1DFF8D4A1082202A9204686F684
:105DC00043FD082842D0A4E001254FF6FF761EE0EF
:105DD000082202A9204686F637FD082817D1BDF80B
:105DE0000800B04213D0BDF80A008EF6DFF9BDF806
:105DF0000A100830084481B220468EF6B3FC0446EF
:105E0000D8F80000844202D33D700120C9E79DF814
:105E10000210D9F80020BDF8060002EB0131084459
:105E2000A042D5D89DF80210D9F80020BDF8060090
:105E300002EB01310844A04201D23D7003E002D1DF
:105E40004FF0000038704FF00100AAE7BDF80810CD
:105E5000A1F57F40FF3837D02646BDF80A008EF600
:105E6000A5F9BDF80A100830084481B220468EF624
:105E700079FC0446D8F8000084424AD3701EC0F36F
:105E80000B00D9F80010301A401A00F6FF70C0F36A
:105E900007350495394604A8FEF772FB98BB38789D
:105EA00088B39AF80300C0F108003044411EC1F3E2
:105EB0000B01411A081AC0F10100AAF806006D1E74
:105EC0008AF8025001206CE7601EC0F30B00211A13
:105ED000D9F80000081A00F6FF70C0F307350495E2
:105EE0009BF80900A84201D100205AE7D8F8002009
:105EF000944209D2401EA84206D101F6FF71914298
:105F000002D100204DE704E0394604A8FEF738FB33
:105F100030B1D8F800008442FFF44EAF002040E7D3
:105F20009BF809009DF81010884226D03878B0B14F
:105F30009AF8030038B1C0F1080081B230468EF6FD
:105F400011FC04460BE0BAF8040040B1241A601EAC
:105F5000C0F30B00201AC01DA04200D9083C601EEF
:105F6000C0F30B00201A001BC0F10100AAF80600C4
:105F70006D1E8AF80250012013E7002011E700008F
:105F8000BC350020C035002090470020C8350020D7
:105F9000002805D0C16919B1807818B1012801D055
:105FA000002070470120704702480068C0F380500D
:105FB0007047000014A8004003490A6822F4F81250
:105FC00042EA00400860704714A8004003490A688C
:105FD00022F4F85242EA00200860704798A8004076
:105FE00003490A6822F4706242EA002008607047A0
:105FF00094A8004003490A6822F4C05242EAC02033
:106000000860704704A8004003490A6822F00F02A4
:1060100002430A607047000094A8004003490A68E0
:1060200022F0030202430A60704700003CA60040D1
:1060300005498A6922F0010202438A618A6922F0D5
:10604000010202438A61704700A0004005490A68C6
:1060500022F0070202430A600A6822F007020243A4
:106060000A60704700A0004003490A6822F0FF025E
:1060700002430A607047000020E5004003490A68B7
:106080006FF30B0202430A607047000004E5004012
:1060900003490A6822F0030202430A6070470000C5
:1060A0003CA5004070B528F6B5FA0446601C24D023
:1060B000FFF744FB00EE100A9FED131AF8EE400ABA
:1060C00000EE104AB8EE400A20EE011A81EE200AD6
:1060D00010EE100A03F0C8F80C4A536883B1D3E9F4
:1060E0000463D2E90254721B63EB0403141A73EBCA
:1060F000010401D21046194670BD0020014670BD52
:106100000020014670BD0000002474492084002056
:1061100070B505462DED028B0E460024FFF70EFBF1
:1061200002F03DFD41EC180B2846314602F04AFDD5
:1061300053EC182B02F0C8FD9FED131B53EC112BF1
:1061400002F078FB9FED121B53EC112B02F0BEFA0C
:1061500002F0F8FC01460420FFF7E2FA4FF47A75EA
:1061600006E0012009F652FA2046641CA84207D234
:1061700028F65CFA0028F4D028F64CFA401CF0D03F
:10618000BDEC028B70BD00000000000080842E4139
:10619000000000000000E03F70B5002428F64EFA31
:1061A0004FF47A7506E0012009F630FA2046641CA7
:1061B000A84203D228F63AFA0028F4D170BD0000B4
:1061C00010B50121002024F6C7FC01201AF666FA5A
:1061D00007490120087001F02FF901F07BF805490B
:1061E000322001F001F9BDE810403220FCF74EBC2E
:1061F000407A00207B28200010B518480068C0F3C2
:106200000B0016490831096821F07F41401C00EE5F
:10621000100ADFED130A134CB8EE400A60EE200AB4
:1062200000EE101AB8EE401A80EE810A84ED020AE0
:10623000F6EE000A0C4930EE200ABCEEC00A10EE61
:10624000100A086093F632FD6069002804D094EDCE
:10625000020ABDE81040004710BD000004E4004001
:106260000024F44B407A00205C0300200023042229
:1062700010F10A0F01DBC82901DA012305220848C1
:10628000016821F0700141EA0311016005490978B4
:10629000002904D1016821F0070111430160704712
:1062A00090A80040E87A0020FDF7FCFF11A0FBF762
:1062B0005BFF1148FBF758FF1048FBF755FF1048EC
:1062C000FBF752FF0F48FBF74FFF0F48FBF74CFF60
:1062D0000E48FBF749FF0848FBF746FF05A0FBF710
:1062E00043FF00F0DBFE00F059FE09A0FBF73CFF86
:1062F000FEE700000D0A00002896200018952000F7
:10630000D4942000A0952000E49520005C95200006
:106310000D0A54686973206578616D706C6520643E
:10632000656D6F20656E642E0D0A000010B591F644
:1063300067F910B101F057FEFEE7BDE81040FBF72A
:106340007FBE000070B501F043FA40F22E424FF4D8
:106350007A7528B1114640F24C4001F0A9F803E0EB
:106360002946104601F0A4F80C4CA07850B1E08802
:1063700001F0AEF80546208901F0AAF8294601F09F
:10638000EDF904E04FF46171284601F0E7F9BDE84A
:1063900070400248403000F0CBBB0000747A00200F
:1063A0002DE9FF41044600200090019002900390E7
:1063B00021482249B0F5001F02D9B0F5401F08D38B
:1063C000C0F31300C1F3130100F062F82168084321
:1063D000206000251A4F1B48C61B10E007EB051173
:1063E00010226846FCF7EBF80198C0F313000299FD
:1063F000014400F04DF82168084320606D1CB5EBA6
:10640000161FEBD31048C0F313001049C1F313015A
:1064100000F03EF82168084320600D48C0F31300E7
:106420000C49C1F31301884204D000F031F821680F
:1064300008432060BDE8FF8100202000B0962000C6
:106440006C962000AC96200000D0072000000820A9
:106450000090072000D0072038B50F2100910128B7
:1064600009D00A4C20468FF617FF20468FF600FF12
:1064700000F03CF838BD6846FFF792FF00988FF6B1
:106480000BFF00988FF6F4FEF2E70000FFFF3F00DD
:10649000F0B5024600200025002300260024124FFC
:1064A00057F824C06544AA4201D2234603E0641C85
:1064B000E4B20B2CF4D30024002257F822502C44D1
:1064C000A14201D8164603E0521CD2B20B2AF4D3E3
:1064D000032405E05A0004FA02F108435B1CDBB216
:1064E000B342F7D9F0BD00000C9420000C480168BD
:1064F00021F4401141F40011016009480838016895
:1065000021F4401141F44011016005480121083097
:1065100001600168C1F300410029FAD17047000011
:1065200088A400402DE9F0410125002400261930FF
:10653000502800D3032518480068C0F3C120A842A2
:1065400028D01649097821B12846BDE8F041FFF767
:1065500051BD114F8C37854205D9386800F00704CA
:10656000062C00D2012646B1386820F0070040F022
:1065700006003860322009F649F82846FFF73AFD50
:10658000002E07D0322009F641F8386820F00700C5
:1065900020433860BDE8F08104A80040E87A00207C
:1065A000F0B58DB004460D46002D0BD00BA90CA8FC
:1065B0008FF6BCFD374E681C8CB1210504D0092034
:1065C0000DB0F0BD0820FBE704EB00310B9800F59F
:1065D0000010814201D8346008E00A20F0E70B99EE
:1065E000404201EB003000F5001030604FF4D071F4
:1065F0002948FCF75BF8294C0020207030682849B6
:1066000000EB05300860274F38608FF699FD26496A
:106610000870082207A9306886F6FCF801260828C9
:1066200017D01CF64BFF04461CF654FF04AB0221A6
:1066300013C30321CDE90016072240F2771003921D
:10664000002302901F22F103184671F607F810206C
:10665000B6E7082209A9386886F6DCF8082801D0D0
:106660001020ADE70822114907A8FBF75DFF18B11C
:106670009DF82400FF2807D02846FFF78BFA002852
:106680009ED1267000209BE728468EF6F3FA00285C
:10669000F7D095E7BC35002090470020B4350020A6
:1066A000C4350020C0350020B5350020A4B709004E
:1066B0002DE9FF4706460C469046324800780028F0
:1066C00039D0B8F1000F34D094B340F6EC70844266
:1066D0002FD86EB3A6F57F40FF382AD003A93046E5
:1066E00086F6CCFF0746C7B3082201A9384686F6CE
:1066F000ABF801A893F670FFF8B1BDF80C000025C7
:106700004FF40049A04229D1082138468EF62AF8D4
:10671000424621468EF6F6FB88B108231F224946E1
:106720000020009570F69AFF002004B0BDE8F087C5
:10673000FFE70720F9E70320F7E71020F5E7092333
:106740001F2249460020009570F688FF43462246E6
:106750003146384600F04EFBE7E70DE00A231F22E2
:1067600049460020009570F679FF4346224631469F
:10677000384600F03FFBD8E7424621463046FDF759
:10678000D3FCD2E7B4350020034802490160034935
:1067900081607047A16520007C470020B166200021
:1067A00010B5012100208FF64DFF002815D00228DA
:1067B00002D0102800D0FEE78FF63EFF04468EF68A
:1067C000C2F8014620468EF683F828B10121204602
:1067D0008FF638FF002800D0FEE710BD0220FEF73C
:1067E000F9BC00002DE9F04104460D4616461F464F
:1067F00001F016F91349012041F8D00CC8678867E9
:10680000384691F6BBFB3146284600F0C5F82846CD
:1068100000F034F9284600F03DF80B4810F8242029
:106820000A48416962F303014161416964F3471118
:106830004161074804702146BDE8F041054890F6E3
:10684000E9BE000080D11D42DC932000BC2C00205A
:106850003C7A0020EC7A002013460A460121FFF71B
:10686000C1BF000010B500F02DF9084C0020E06118
:10687000A0618EF656F80121E1610549096801F42D
:106880000061002900D0FEE710BD0000BC10002010
:1068900000D0004010B50446962008F6B7FE012C43
:1068A00007D0022C04D10648016821F08001016064
:1068B00010BD03484430016821F40041016010BD5F
:1068C00004A8004070B50024094D55F8240000B11B
:1068D0008047641C032CF8D30024054D0C3D55F86B
:1068E000240000B18047641C002CF8D070BD00006B
:1068F000D092200038B51A49192000F075FD1949C9
:10690000382000F071FD01F0EFF8FDF72EFE174979
:106910001548086017491648086018491648086065
:10692000184917480860002400946A4601214CF277
:1069300005008FF60BFFFDF75BFE1348016821F0A1
:10694000C0010160124811490160011F0A684FF03F
:1069500080720A600460BDE838400E4891F6CEB8F7
:106960001B691000E11608004F6E1000A40D0020F6
:10697000D16E1000180000204B6F1000A80D0020F1
:10698000A96F1000AC0D00200CA80040A2B4982BF9
:1069900004A70040A96610002DE9F8430D464FF00A
:1069A00002084FF4FA710091314FD7F8801221F4A8
:1069B0004034304E4FF47A71012812D0022840D072
:1069C000D7F8800244F480310843C7F88002002DD4
:1069D00005D06A4641464CF203008FF6B7FEBDE88B
:1069E000F8830095DFF88C90A9F14409D9F80000EC
:1069F00020F08000C9F80000084608F607FE30685D
:106A000020F4F81040F440303060306820F07C50C2
:106A100040F08060306018480221808CB1EB102F6C
:106A200003D1306840F400103060D9F8000040F025
:106A30008000C9F80000962008F6E8FDC7F88042FB
:106A4000C5E70095306842F20B726FF30F001044F7
:106A50003060084608F6DAFD306840F400403060E7
:106A6000962008F6D3FD44F48030C7F88002AEE7E4
:106A700000A0004048A800407445002010B510490F
:106A80000A6822F003020A600D4CBC3C01280CD0BD
:106A90000020FFF7FDFA0220FFF7C0FAE06B20F0BC
:106AA000030040F00200E06310BD0320FFF7F0FA9E
:106AB0000320FFF7B3FAE06B40F00300E06310BD82
:106AC0003CA70040054904480860064804490160A5
:106AD0000549416270470000F569100090050020EB
:106AE000D5631000D4030020B964100000EE100A32
:106AF0009FED081AF8EE400A80EE810ADFED060AE3
:106B000020EE200AF5EE000A044820EE200A80ED6F
:106B1000000A70470000FA468941803FD47A00207D
:106B200010B500F091F8BDE81040FDF718BD000069
:106B30000449098F018004490968C1F30441818037
:106B400000F004B8747A002014A8004010B5044680
:106B50000648808F608006480068C0F30420E0800B
:106B6000FFF722FA00B10120207210BD747A0020D4
:106B700098A8004030B587B0182101A8FBF796FD12
:106B8000EFF311850220FBF7A9FF2A490968C1F339
:106B90000221491C01228A401044C0B280F31188AE
:106BA000012091F68FF92448C06810F4E02000D04D
:106BB0000120224C88BB6420FCF70CF968B301A8C3
:106BC00092F63CFE38BBBDF8040020B301A90D20AD
:106BD000FCF778F951EC100B01F084FF60616069FB
:106BE000FCF724FA01A90E20FCF76CF99FED141BA9
:106BF00051EC100B53EC112B02F066F801F072FF10
:106C0000A061A069FCF716FAA1696069FCF714FAA3
:106C1000E069401CE061FCF713F9E8B280F31188E9
:106C200000F0FEFB002802D0207800F0D1FC07B075
:106C300030BD00000CED00E000E00040747A002060
:106C40000000000000005940FFF794BF10B50E4C43
:106C5000A08BA0F58E4144390AD114F82C0FFFF710
:106C6000ABF9E078C01C1F2800D91F20FFF7AEF950
:106C70000648016841F00101016004488438016858
:106C800021F48001016010BD7445002098A80040E7
:106C900070B5044692F652FF05460DBB8EF622F9FA
:106CA000010010480FD0B4F5AC7F04DC016841F05E
:106CB0008061016014E0B4F5AF7F11DD016821F05F
:106CC000806101600CE0C32C04DA016841F080614E
:106CD000016005E0C82C03DD016821F080610160DE
:106CE000284670BD10A800402DE9F05F244F386899
:106CF000002804D1DFF88C80D8F8000010B1002003
:106D0000BDE8F09F204D28684FF000090126A8B18A
:106D10000024DFF878A0DFF878B05AF8241041B1E9
:106D20005BF8240028B12B6806FA04F21A4200D05E
:106D30008847641C202CF0D3C5F80090154D2868B6
:106D4000A0B10024DFF850A0DFF850B05AF82410AA
:106D500039B12A6806FA04F0104202D05BF8240028
:106D60008847641C042CF1D3C5F80090386810B92A
:106D7000D8F8000008B10020C2E70120C0E70000F9
:106D800094050020980500209C0500200411002097
:106D900004120020A005002084120020A41200206C
:106DA00002490148086070471D701000F837002044
:106DB00070B506460D461446FCF7F4FC122C02D2C0
:106DC000681E022801D9122070BD044840F82460D2
:106DD000204480F84850204670BD000058820020B2
:106DE000122803D2024A002142F820107047000006
:106DF000588200202DE9F0438BB006460F4690469E
:106E0000994600250A95032402220AA9304685F6F0
:106E100035FD022803D0641E14F0FF04F4D10228CB
:106E20001AD01CF64BFB04461CF654FB04AB0221A3
:106E300013C30722039201210322CDE9002140F26E
:106E40005B20029004231F22C903002070F606FC79
:106E500010200BB0BDE8F083082208A9304685F663
:106E6000F3FCBDF822008DF6A1F90D4A516871B10D
:106E7000BDF822300830194408445060384693F673
:106E800041F94A4641463846FDF74EF9E1E7117AA5
:106E9000BDF822301944084450601572EEE7000036
:106EA0009047002010B500290FD070B16AB1EFF300
:106EB0001083012484F31088026041600021816006
:106EC000C16083F31088012010BD002010BD002890
:106ED0000AD0EFF31083012181F310888168C26822
:106EE0008A4203D8881A04E0002070470068801A9C
:106EF000084483F3108870472DE9F04705468A4619
:106F00004FF00008EFF31089012080F31088AF687C
:106F1000EE68002D2ED0696861B3BAF1000F29D058
:106F2000B74204D3BC1BA2420DD814460BE028681C
:106F3000831BDC19A24200D814463219824202D3C4
:106F4000A219A2EB0008A4EB080231445046FBF75B
:106F500036FB0AEB0400A0EB080042466968FBF729
:106F60002EFB30192968814202D8B84200D9401A54
:106F7000E86000E0002489F310882046BDE8F0872F
:106F8000024601201268044B9A4202D11A220A706A
:106F900070470020704700000078014070B5194923
:106FA0001948FCF781FC19A0FBF7DEF8164C002508
:106FB000443C256004F18000FCF736FC2068002882
:106FC000FCD0616821A0FBF7CFF8FCF703FC0E486A
:106FD0004FF4805141600421C1600A49FCF764FC10
:106FE00021A0FBF7C1F825600020FCF71DFC2068FC
:106FF0000028FCD0616815A0FBF7B6F8BDE870402A
:10700000FCF7E8BB11382000B07900200D0A757339
:107010006520746865207365656420666F722075ED
:1070200073657220746F2067656E65726174652088
:1070300072616E646F6D206E756D62657228496E47
:1070400074657272757074290D0A000072616E6445
:107050006F6D206E756D62657273206973202530C7
:1070600038780D0A000000000D0A7573652046523D
:107070003020746F2067656E65726174652072617F
:107080006E646F6D206E756D62657228496E7465F1
:107090007272757074290D0A0000000008B5002096
:1070A000009000211348FCF7FFFB13A0FBF75CF8EE
:1070B000104869467830FCF7D9FB1FA00099FBF710
:1070C00053F8FCF787FB0B484FF4805141600421D3
:1070D000C1600021FCF7E8FB1EA0FBF745F86946FC
:1070E0000020FCF7C3FB14A00099FBF73DF8FCF768
:1070F00071FB08BD747900200D0A757365207468F2
:1071000065207365656420666F72207573657220F3
:10711000746F2067656E65726174652072616E645C
:107120006F6D206E756D62657228506F6C6C696E44
:1071300067290D0A0000000072616E646F6D206E99
:10714000756D6265727320697320253038780D0A79
:10715000000000000D0A7573652046523020746FE0
:107160002067656E65726174652072616E646F6D13
:10717000206E756D62657228506F6C6C696E672940
:107180000D0A000070B50D4D286890F825100129F2
:1071900012D1001D26F6B8FE012802D008B1002049
:1071A00070BDEFF31084012080F310882868001D63
:1071B00026F645FF84F31088012070BD4879002031
:1071C00038B505460C462020009069462846FFF752
:1071D000D7FE012815D19DF800209040094A11687A
:1071E00008420ED04CB9EFF31084012080F31088D0
:1071F000284626F61FFF84F310889DF8000023F62A
:10720000DFFB38BDA4050020F8B506460C4620205B
:107210000090002569463046FFF7B2FE012808D1EC
:10722000012C01D004B1012529469DF8000023F668
:1072300067FC7475F8BD08B5202100916946FFF719
:107240009FFE012803D19DF8000023F63FFC08BDF6
:1072500010B500224FF4FA711046FFF7FDFA002036
:1072600000F0F2FC0020FBF771FB0020FBF752FB63
:10727000094CD4F88403C00602D40020FFF750FC68
:10728000FCF790FAD4F88403C00604D4BDE810409B
:10729000024800F095BE10BD00E0004040420F00E3
:1072A00003480078032801D0002070470120704770
:1072B000407A002010B5054C2078002805D10449FB
:1072C0001A2000F091F80120207010BD4D790020A7
:1072D000112920002DE9F043DFF89CC0DCF80010F4
:1072E00021F00101CCF800100021244B244C224E47
:1072F000A4F11C08204A2568203698F803400CF1B8
:1073000004071432D6F8009029F0FF0949EA000971
:10731000C6F80090D7F800906FF30B0949EA050909
:10732000C7F80090D2F8009049F00109C2F8009027
:10733000D2F8009049F00209C2F80090DCF8009001
:1073400049F00109CCF800900CB14FF47A738946EA
:10735000491C994504D9641C88F80340BDE8F083B2
:10736000DFF8149009F10C09D9F8009029F07F4951
:10737000B9F1000FC6D0F1E700E4004040420F0031
:107380005C7A00202DE9F0410C4C00250C4E207851
:10739000012806D0032702280AD027703560BDE8EF
:1073A000F081FEF729FF3560BDE8F041FCF782BFB0
:1073B000FCF7ACFF35602770F1E70000407A002051
:1073C00000E4004010B5FFF76BFF002803D0BDE8D4
:1073D0001040FEF7F5BE10BD10B500F0D1FDBDE8C0
:1073E0001040FFF76FBA0000024A103042F8201038
:1073F000704700000078002002480068002800D094
:10740000004770470074002010B500F01BF9FDF72D
:10741000BBFEFCF705FFBDE81040FEF793BF000080
:107420000448008CA0F58441323901D00020704717
:1074300001207047744500200748006800F4403080
:10744000002804D0B0F5803F03D001207047002011
:10745000704701207047000080A2004010B5029CD8
:10746000002C01D0801A00E0101A40B200FB01305D
:1074700010BD000008B5083040F24C420B49904264
:1074800002DD91F82C1001E091F82D1002DD40F2A0
:107490007E4301E040F21A434FF0000200924AB2EC
:1074A0004FF0110100F09AF908BD0000744500206A
:1074B00070B5064D2A78002A00D0084604462046BA
:1074C000FFF7D8FFFEF778FDAC6370BD747A00203B
:1074D00008B50D490A780D49002A05D091F82E10FB
:1074E00005D140F21A4304E091F82F10F8E74FF469
:1074F00061734FF0010200924AB24FF0110140B2A5
:10750000FFF7ACFF08BD0000747A0020744500202E
:1075100070B5024601231D4C002904D0606BAA28D7
:107520001ED2002070BD216B8C2901D2002070BDBD
:10753000A1F18C004631824204D2208910B1FDF7BE
:1075400043FE38B18A4209D920891F2806D2401C3F
:10755000208119E02089401E208115E0002313E0DE
:10756000A0F1AA0500F1AA060848AA42C18803D2E0
:1075700011B1491EE18007E0B24204D91F2902D2AD
:10758000491CE18000E00023184670BD747A002099
:1075900008B508300C490A780C49002A05D091F842
:1075A0002E1005D140F21A4304E091F82F10F8E7AD
:1075B0004FF461734FF0010200924AB24FF0110193
:1075C00000F00CF908BD0000747A0020744500201A
:1075D00070B506461A4CA078002830D0FEF7E4FCBF
:1075E00000282CD1032019F659F800F069F800F0B2
:1075F0009BF80546032019F631F8002D1FD03146BF
:107600002846FFF785FF88B1E088FFF761FF054650
:107610002089FFF75DFF294600F0A0F804F1400043
:10762000FFF794FA04F14A00FFF790FA1EB1E088E0
:107630001F2804D1FEE720891F2800D1FEE770BD76
:10764000747A002070B5EFF31085012080F3108864
:10765000032019F623F8174E96F82C00FEF7ACFC21
:107660000120FBF773F900F02BF813480168C1F310
:107670000B110029FAD01F2140F26C7000F040F885
:107680000E4C2081217829B1014640F6BE2000F041
:1076900037F8E080032018F6E1FF96F82F002189E3
:1076A000884201D8012000E00020E07085F31088B6
:1076B00070BD0000744500200CE80040747A002082
:1076C0000E48016821F0C04141F0005101600121E4
:1076D000026861F3DF72026008493C310A6842F0D7
:1076E00001020A60011F0A6842F001020A60016893
:1076F00021F0F05141F080610160704704E80040E2
:1077000070B505460C460BE02046FEF75FFC0120F5
:1077100007F676FF00F008F8A84203D2641EA4B270
:10772000002CF1D1204670BD2DE9F0410024002647
:107730000025094F09E0C82007F668FF3868C0F344
:107740000B1008B106446D1C641C052CF3D3B6FB6A
:10775000F5F080B2BDE8F0810CE8004070B50F4D47
:107760002A78002A12D00C462046FFF711FFFEF7B8
:107770002DFCEC63A86B0A49A04202D9001B1F280C
:1077800006D8086840F48000086070BD0446EBE746
:10779000086820F48000086070BD0000747A002042
:1077A00014A8004010B58DF69DFB074910B191F863
:1077B000310001E091F8300004490A6822F0FE42ED
:1077C00042EA0060086010BD7445002004A8004033
:1077D0000148C07870470000747A002010B5029C00
:1077E000002C01D0C01A00E0181A90FBF1F01044F0
:1077F00040B21F2800DD1F20002800DA0020C0B2A0
:1078000010BD0000064A0749002804D00648106051
:10781000064808607047002010600860704700004C
:10782000D8050020D4050020DD522000AD0602005E
:107830002DE9F05F2DED028BB0EE408A764CA088EA
:1078400000EE100AB8EE400A20EE080A10EE100A08
:1078500001F064FC41EC100BFBF75AF951EC100BF2
:1078600001F070F90546E08800EE100AB8EE400A13
:1078700020EE080A10EE100A01F050FC41EC100B4B
:10788000FBF746F951EC100B01F05CF90746208834
:1078900000EE100AB8EE400A20EE080A10EE100AB8
:1078A00001F03CFC41EC100BFBF732F951EC100BF2
:1078B00001F048F98246608800EE100AB8EE400AEE
:1078C00020EE080A10EE100A01F028FC41EC100B23
:1078D000FBF71EF951EC100B01F034F98346608977
:1078E00000EE100AB8EE400A20EE080A10EE100A68
:1078F00001F014FC41EC100BFBF70AF951EC100BF2
:1079000001F020F90646A08900EE100AB8EE400A00
:1079100020EE080A10EE100A01F000FC41EC100BFA
:10792000FBF7F6F851EC100B01F00CF980462089BA
:1079300000EE100AB8EE400A20EE080A10EE100A17
:1079400001F0ECFB41EC100BFBF7E2F851EC100BF3
:1079500001F0F8F88146E08900EE100AB8EE400A1E
:1079600020EE080A10EE100A01F0D8FB41EC100BD3
:10797000FBF7CEF851EC100B01F0E4F803466A1E59
:107980002648016821F0FF01114301607F1E016854
:1079900021F47F0141EA07410160AAF1010A001DBB
:1079A000016821F0FF0141EA0A010160ABF1010B1E
:1079B000016821F47F0141EA0B410160A8F101084F
:1079C000001D016821F0FF0141EA08010160711EFC
:1079D000026822F47F0242EA014101605B1E001D41
:1079E000016821F0FF0119430160A9F1010102685A
:1079F00022F47F0242EA0141016005EB09003044B4
:107A0000401E064910310A6822F0FF0202430A6054
:107A1000BDEC028BBDE8F09FD87A002000A40040A6
:107A200070B5294801686FF30A01016026480830E3
:107A3000016821F007010160001D016821F0A061CB
:107A40000160214A14321168204B19401160111D48
:107A50000A6842F6AA239A430A6040F223441A4B6A
:107A60001B1D1A6841F27F75AA4322431A60184B06
:107A70000268184C22401A43026041F255520868CD
:107A8000904310430860081D016821F03F0141F058
:107A90003B0101606FF6BAFF60B10F490020C1F8E9
:107AA0008000C1F8E4010860C1F8E001C1F82003DA
:107AB000C1F824030948016841F4F06101600849F4
:107AC0000220086070BD000080EE0040C00000FC95
:107AD000FFCF7F300030800000D01D4200D000403A
