:020000040020DA
:1020000000000820592120006121200001601000FB
:1020100009292000FF2120003D2A200000000000A7
:10202000000000000000000000000000156010002B
:102030006B212000000000006D2120007121200094
:1020400000F002F800F077F80AA090E8000C824453
:102050008344AAF10107DA4501D100F06CF8AFF230
:10206000090EBAE80F0013F0010F18BFFB1A43F076
:1020700001031847B0880000F08800000A444FF0C0
:10208000000C10F8013B13F0070408BF10F8014BD7
:102090001D1108BF10F8015B641E05D010F8016B1C
:1020A000641E01F8016BF9D113F0080F1EBF10F880
:1020B000014BAD1C0C1B09D16D1E58BF01F801CBA3
:1020C000FAD505E014F8016B01F8016B6D1EF9D526
:1020D0009142D6D370470000103A24BF78C878C127
:1020E000FAD8520724BF30C830C144BF04680C601E
:1020F000704700000023002400250026103A28BF66
:1021000078C1FBD8520728BF30C148BF0B60704769
:10211000642900F0E580782900F04981732900F0F6
:102120008E83002070471FB508F0F9F900F0ECFA33
:102130001FBD10B510BDDFF810D0FFF7F4FF05F09C
:10214000BDF800F097FB00000000082003B4FFF783
:10215000F0FF03BC00F061FF0648804706480047D7
:10216000FEE7FEE7FEE7FEE7FEE7FEE7FEE7FEE747
:10217000FEE70000CD292000417320000FB4044980
:1021800010B503AA029800F05FFB10BC5DF814FBC9
:10219000507900200FB41CB5084B06AA7B44694651
:1021A0000090059800F021FB04460020694600F0ED
:1021B0002FFB20461CBC5DF814FB000071060000DC
:1021C00010B5431C02E010F8011B71B18107FAD170
:1021D0004FF0013202C88C1A8C4314EAC211F9D0B4
:1021E000C01A0A0603D0C01E10BDC01A10BD0A04D2
:1021F00001D0801E10BD0902FCD0401E10BDFEE7BC
:1022000058585247010000002655000000202000C9
:10221000002020007FED9247010100000000000037
:1022200000000000000000000000000000000000AE
:10223000000000000000000000000000000000009E
:1022400070B5044685690068C10601D5302600E0F6
:102250002026C00707D070BDD4E901213046904741
:10226000206A401C20626D1EF6D570BD70B5044614
:1022700085690078C00707D170BDD4E9012120200D
:102280009047206A401C20626D1EF6D570BD70B567
:102290000C460546012A05D02878800600D5EA6953
:1022A000002302E0012305E05B1C934202D2E05CC4
:1022B0000028F9D1A869E618C01AA861286A18444C
:1022C00028622846FFF7BCFF04E0D5E9012114F895
:1022D000010B9047B442F8D32846FFF7C7FF70BD03
:1022E0002DE9F0410646002410687529314616A5EF
:1022F00010D0AFF30080002802DA404213A507E0B7
:1023000031688A0701D512A502E0490704D511A555
:10231000012401E0AFF3008000210A2206F1240726
:1023200009E0B0FBF2FCB0FBF2F302FB1C00303022
:1023300078541846491C0028F3D123462A463046D3
:10234000BDE8F04100F0F2B9000000002D000000EF
:102350002B00000020000000F0B40D4601880905A4
:1023600002D5214C7C4402E01F4C7C440E340021F9
:1023700000F1240608E002F00F071209E75D42EAC7
:1023800003721B097754491C52EA0307F3D1027800
:102390000023120704D5702D06D009B10223113491
:1023A0002246F0BC00F0C2B901231034F8E770B542
:1023B00004460D4621461068AFF3008002462946C8
:1023C0002046BDE870400023C6E7D21D22F0070377
:1023D000D3E90023C0E70368126843F020030360D9
:1023E0000823C3610023B7E7888300002DE9F05F6D
:1023F000894604464FF0000ADFF874B1FB44C0F888
:1024000020A02046E1688847002874D0252806D0FF
:10241000D4E901219047206A401C2062F1E70026A0
:102420005F462046E16888472028054607DB312DB6
:1024300005D2781910F8200C08B10643F1E7B0076F
:1024400001D526F00406C4F81CA00027C4F818A083
:102450002A2D09D0284600F0D9FD38B304EB8708AF
:10246000303DC8F8185019E059F8041B204604EB19
:1024700087029161E1688847012F054618D1E0691C
:10248000002820DA26F020061DE0D8F8180000EB1E
:10249000800005EB40003038C8F818002046E1689D
:1024A0008847054600F0B2FD0028EED1012F0AD082
:1024B0002E2D08D12046E16888477F1C0546022F53
:1024C00046F02006C4DBA069002803DA404246F04B
:1024D0000106A061F00701D026F010066C2D0BD08C
:1024E000682D09D04C2D39D06A2D35D0742D35D0BA
:1024F0007A2D33D016E038E0E1682F462046884731
:10250000B842054609D16C2F26D04FF48060E168AF
:10251000064320468847054604E06C2F1AD04FF446
:10252000807006430DB3A5F14100192802D820356B
:1025300046F400664A462946204626604E46FFF786
:10254000E7FD80B101280BD0F61D26F0070000F151
:10255000080956E74020E4E78020D8E70020D6E7C6
:1025600006F104094DE7284652E7206ABDE8F09FCE
:102570001883000040EA010310B59B070FD1042A1D
:102580000DD310C808C9121F9C42F8D020BA19BA3E
:10259000884201D9012010BD4FF0FF3010BD1AB1A3
:1025A000D30703D0521C07E0002010BD10F8013BF8
:1025B00011F8014B1B1B07D110F8013B11F8014B1F
:1025C0001B1B01D1921EF1D1184610BD032A40F207
:1025D000308010F0030C00F0158011F8013BBCF1C5
:1025E000020F624498BF11F801CB00F8013B38BFDD
:1025F00011F8013BA2F1040298BF00F801CB38BFEB
:1026000000F8013B11F0030300F02580083AC0F008
:10261000088051F8043B083A51F804CBA0E80810B0
:10262000F5E7121D5CBF51F8043B40F8043BAFF3E3
:102630000080D20724BF11F8013B11F801CB48BF3D
:1026400011F8012B24BF00F8013B00F801CB48BF73
:1026500000F8012B704710B5203AC0F00B80B1E8AC
:102660001850203AA0E81850B1E81850A0E81850C7
:10267000BFF4F5AF5FEA027C24BFB1E81850A0E8D0
:10268000185044BF18C918C0BDE810405FEA827CEA
:1026900024BF51F8043B40F8043B08BF7047D20701
:1026A00028BF31F8023B48BF11F8012B28BF20F8A2
:1026B000023B48BF00F8012B70474FF0000200B505
:1026C000134694469646203922BFA0E80C50A0E855
:1026D0000C50B1F12001BFF4F7AF090728BFA0E803
:1026E0000C5048BF0CC05DF804EB890028BF40F8CF
:1026F000042B08BF704748BF20F8022B11F0804F11
:1027000018BF00F8012B704770B5064C7C44064D8D
:102710007D4403E0206820448047241DAC42F9D169
:1027200070BD000054820000548200002DE9F04783
:102730000D4699469246044600F124080168880631
:1027400004D5E06921F01001216000E00120A842D9
:1027500001DD471B00E00027A1697A1902EB09009F
:10276000081AA0612078C00602D42046FFF768FD51
:10277000002608E0D4E901211AF806009047206AF3
:10278000401C761C20624E45F4DB2078C0060AD53A
:102790002046FFF755FD06E0D4E90121302090479F
:1027A000206A401C2062381EA7F10107F4DC07E014
:1027B000D4E9012118F805009047206A401C2062E6
:1027C000281EA5F10105F3DC2046FFF74FFD207818
:1027D000000602D50220BDE8F0870120FBE70000DB
:1027E00001694A1C02610878704700B58FB0CDE9D5
:1027F00001310021059105497944CDE903101146C5
:102800006846FFF7F3FD0FB000BD0000E5FFFFFFD6
:102810000A6802F8010B0A60704710B5436913B1EA
:10282000AFF3008001E0FFF732FD012010BD127808
:1028300000F124010A7000224A700122EDE71168BC
:102840004FF0FF32E9E70000074B70B50D467B44BF
:10285000FFF7CBFF0446284600F008F810B14FF010
:10286000FF3070BD204670BD57260000007B00F091
:102870008000704710B50446AFF300802046BDE8E5
:102880001040FFF763BC01F065BC10B501F0F8FD26
:1028900010BD000070B503201749096841F380019D
:1028A000491C164D00290CD113490C310968C1F39C
:1028B000000131B110498C39096801F007018843E2
:1028C00003D02869401C286170BD0D4C206820F0A1
:1028D00001002060206840F00400206009494FF4A6
:1028E0000030086001F072FEE868401CE860206873
:1028F00040F00100206070BDD4A40040787A002030
:1029000088E2004084E200E0FEE700000248006840
:10291000001D2BF63FBB00004879002028F63EB989
:1029200005280CD2064A116801F4E021B1EB004FF2
:1029300005D0116821F4E02141EA004010607047A1
:1029400000A000400249096801F0070101707047CA
:1029500000A0004070B50446072C20D2104E30680D
:1029600000F00700A04214D0032004F01DF9F06825
:1029700020F0070545F00100F06000BF00BF00BF78
:1029800000BF204604F010F9064850F82400284300
:10299000F060044804491C3850F82400086070BDF9
:1029A00000A0004094A620006003002004480068B6
:1029B000044900F0070051F82000034908607047FF
:1029C00000A0004078A620006003002002480168B3
:1029D00041F470010160704788ED00E00248006832
:1029E000001D03F029BB000040840020024840681D
:1029F000001D03F021BB00004084002002488068D5
:102A0000001D03F019BB0000408400200248C0688C
:102A1000001D03F011BB0000408400200248006943
:102A2000001D03F009BB00004084002002484069FB
:102A3000001D03F001BB000040840020FEE70028D9
:102A400009DB00F01F02012191404009800000F1E4
:102A5000E020C0F88012704700280DDB00F01F0254
:102A6000012191404009800000F1E020C0F8801170
:102A7000BFF34F8FBFF36F8F7047002809DB00F063
:102A80001F02012191404009800000F1E020C0F8C0
:102A900000117047002809DB00F01F02012191405E
:102AA0004009800000F1E020C0F8001170470028C4
:102AB00004DB00F1E02090F80004704700F00F0004
:102AC00000F1E02090F8140D7047002804DB00F1BD
:102AD000E02090F80004704700F00F0000F1E020C3
:102AE00090F8140D7047000002480068C0F30220FF
:102AF000704700000CED00E0EFF31080704700001D
:102B00002DE9F0412DED020B9FED3D0B2DED028BDC
:102B10009FED3D8BDDE90254C4F30A50A0F2FF366D
:102B2000142E37DA002E18DA53EC102B9DED020B21
:102B300051EC100B06F02AFF53EC182B07F022FB88
:102B400057D2002CBCBF4FF00044002551DB54EAA3
:102B5000050018BF2E4C1BD14BE02E4820FA06F77B
:102B600004EA070028431FD053EC102B9DED020B05
:102B700051EC100B06F00AFF53EC182B07F002FB88
:102B800037D2002C03DD4FF48010F0400444BC43E6
:102B900000252EE0332E07DCA6F114004FF0FF31A4
:102BA00021FA00F73D4206D19DED020BBDEC028BF0
:102BB00002B0BDE8F08153EC102B9DED020B51ECFF
:102BC000100B07F015FB53EC182B07F0DBFA10D2B3
:102BD000002C0DDD142E08BF641C09D0C6F1340092
:102BE000012101FA00F02844A84238BF641C0546C0
:102BF000BD43CDE902549DED020BD7E70000000074
:102C00009C7500883CE4377E000000000000000056
:102C10000000F03FFFFF0F0080F3108870470000B6
:102C20002DE9F74F07460298DFF888A1DFF8888181
:102C30004FEA500B5C46019D6048CAF800003F20F7
:102C4000D8F8041060F30501C8F80410D8F804009F
:102C500020F48030C8F80400DAF8000020F4700096
:102C600040EA0750CAF80000DAF8000020F47020AB
:102C700040EA0740CAF800000D2F05D1DAF800003D
:102C800040F40040CAF800000E2F05D1DAF8000029
:102C900040F48040CAF80000DAF8000040F4005028
:102CA000CAF80000DAF8000020F06050CAF800000E
:102CB000DAF8000020F00F0040F00300CAF800002E
:102CC000002000F0CFF8012871D1DAF8000040F0C0
:102CD0008040CAF80000002008E0D8F8081041F44D
:102CE0008031C8F80810401C411C05D0D8F80810E5
:102CF000C1F300210029F0D1072000F0B3F801282A
:102D000055D141E000264FF47A7924E04E451ED992
:102D1000DAF8000020F08040CAF80000DAF800007D
:102D200040F00040CAF80000DAF8000020F000404F
:102D3000CAF80000002000F095F8012837D120499A
:102D4000086A401C086205200CF660FC72E701204E
:102D50000CF65CFC761CD8F80800C0F300200028B4
:102D6000D4D0D8F8080000F07F02A24200D9224651
:102D7000002006E0D8F800102980090C69802D1D7C
:102D8000401C9042F6D3A41A002CBBD10298C00775
:102D900008D0D8F80800C0F300200028F9D0D8F8EF
:102DA00000002880BDE8FE4F002000F05BB8BDE8C1
:102DB000FE8F000000A8004000E000400A0708075E
:102DC000787A00202DE9F041044615480021C0F82A
:102DD000941001214161134D686A134EF06200F0B6
:102DE000010149420140C80512D440F2011704E034
:102DF00044B1641E01200CF609FCA869B84204D154
:102E0000012003E00020BDE8F08100200028EFD081
:102E10000648006870626868B0620120F3E700004D
:102E200000D01D4200E00040787A002000A8004059
:102E300009480A49826A4A60094B426A1A60808DD1
:102E400000F0010252420240D00503D4086A20F08B
:102E50000100086270470000787A002000E000401E
:102E600000A800402DE9F0410546114FF868C0F375
:102E70000240A84202D10120BDE8F081F86820F0AC
:102E800007002843F86000244FF6FF76F868C0F387
:102E90000240A84205D001200CF6B8FB641CB442E5
:102EA000F4D3B44201D10020E6E70120E4E70000BA
:102EB00000E00040F0B506462DED068B89B00D46CA
:102EC0009FED459B202101A8FFF7F7FBB0EE498A53
:102ED000F0EE698A4248C08B06F0C1FF9FED411BAE
:102EE00053EC112B06F006FE41EC1A0B102201A93F
:102EF0003046FFF795FE002401AF04F1080037F8D3
:102F0000100006F0ACFF53EC182B06F03FFD41EC2F
:102F1000180B641CE4B2082CEFD351EC180B9FED96
:102F2000330B53EC102B07F02FF841EC180B0D2E40
:102F300002D00E2E29D046E09FED2E0B51EC100B47
:102F400006F018FD41EC190B688806F088FF53EC79
:102F5000192B07F019F841EC190B288806F07FFFB0
:102F600053EC182B07F044F953EC192B06F0C2FD73
:102F70009FED221B53EC112B06F0BCFD53EC1A2BDA
:102F800006F004FD41EC190B1DE09FED1E0B51EC0A
:102F9000100B06F0EFFC41EC190B688806F05FFFA0
:102FA00041EC1A0BA88806F05AFF53EC182B07F0D7
:102FB0001FF953EC1A2B06F09DFD53EC192B06F06C
:102FC000E3FF41EC190B09B0B0EE490AF0EE690AD3
:102FD000BDEC068BF0BD000000000000000000000A
:102FE000B045002000000000000059400000000033
:102FF0000000C03F000000000000004079E92631D9
:1030000008AC5CBFB76DDBB66DDB0E4030380A280C
:1030100001D20120704700207047704710B501F0C1
:10302000F9F910BD04F02CBE70B504460D462946D2
:10303000204606F033F82946204604F021F92946B7
:10304000204604F079FA70BD03490A6822F4C06290
:1030500042EA40200860704704A80040014896F604
:103060001FBC0000547900202DE9F04101460029E1
:103070001BD000240F4E0E4A357814E002EB0410EA
:103080000F780378BB420CD14B684068034208D0EC
:10309000707808B900F030FB2046BDE8F04100F040
:1030A00053BA641CE4B2AC42E8D3BDE8F08100003E
:1030B000C4850020607900207CB505460E46002DB1
:1030C00001D0002418E0E5207CBD05EB0410416828
:1030D0000091017A8DF80410417A8DF805100721CE
:1030E0008DF80610C26800780023694600F038F8B1
:1030F0000028E9D1641CE4B2B442E6D300207CBDD0
:1031000010B502460846052A25D2DFE802F003037F
:1031100003111900114951F832200104090C05D09E
:1031200022B10146104602F0F3FC10E0E42010BD8D
:1031300010F0FF0F02D002F08FFC08E0E42010BD79
:1031400010F0FF0F05D00146002002F023FD002003
:1031500010BDE42010BDE62010BD0000B0A5200089
:103160002DE9F05F05460C469046994626680027F3
:10317000042D11D031462846FFF7C2FF21462846CC
:1031800000F05EF8002808D1032D08D04FF0100A97
:103190002807070E002448E0E620BDE8F09F4FF026
:1031A000080AF7E7F0073DD03DB1012D05D0022D0B
:1031B00003D0032D21D0E620EFE71E4800EBC50029
:1031C00090F904B0BBF1000F15D0EFF3108101208E
:1031D00080F31088184AE01942F8308002EBC000F2
:1031E000C0F8049081F31088584624F6D3F8584666
:1031F00024F6EEF816E0E420CFE7EFF3108101208B
:1032000080F310880D4AE01942F8308002EBC000CC
:10321000C0F8049081F310881B2024F6BBF81B2013
:1032200024F6D6F87608641CE4B25445BAD30020DC
:10323000B3E70000B0A52000F08200200084002049
:1032400070B58EB005460C46474991E84D00CDE972
:103250000A02CDE90C36D1E90523086906AEC96931
:103260000DC6099114224049203101A8FFF7F3F956
:10327000D4B13E49062005F039FA3D49072005F052
:1032800035FA3C491B2005F031FA3B49122005F084
:103290002DFA35493C39A1F12C02052D61D2DFE828
:1032A00005F0060606213900E5200EB070BD207934
:1032B00031F810000B90607932F810000C90A07972
:1032C0000D9020680A902848543850F8350021881D
:1032D0000904090C04D018B10AA902F04DFC39E028
:1032E000E420E2E7207901EB4000808A07906079D2
:1032F00002EB4000C0880890A079099020680690F1
:10330000207810F0FF0F03D006A802F0AFFB21E0F9
:10331000E420CAE72079031F042B01D8E720C4E783
:10332000022819D001200290207901EB4000008D85
:103330000390607902EB400080890490A0790590A9
:1033400020680190207810F0FF0F08D001A900201C
:1033500002F02EFC0020A8E702200290E4E7E4201F
:10336000A3E7E620A1E7000004A62000E560100026
:10337000DF601000DB601000D56010000246002006
:10338000052A11D2DFE802F0030303090C00074805
:1033900050F8320089B220F61CBC88B21CF602BB81
:1033A00089B2002023F6ACBF70470000B0A5200012
:1033B000002803D0024908600120704700207047B0
:1033C0006879002070B505460024091F062917D228
:1033D000DFE801F003070C111315284600F0A4F8EC
:1033E0000EE00124284600F09FF809E00224284658
:1033F00000F09AF804E0032402E0042400E005242D
:10340000034A214628461268BDE870401047000074
:10341000687900202DE9F0410446204600F0AEF81E
:1034200001462E4800230826025D00F10A0700F13C
:103430001405AAB1052A33D0082A2AD1092945D072
:10344000082926D1295D491CC9B22955142920D340
:103450002B5506552046BDE8F0410821FFF7B2BFC5
:10346000052913D0042916D0072914D0082910D112
:10347000295D491CC9B2295514290AD32B55065573
:103480002046BDE8F0410821FFF79CBF3B550521D0
:103490000155BDE8F0812046BDE8F041FFF792BF3D
:1034A00005290CD0395D491CC9B239553229F0D3F0
:1034B00003552046BDE8F0410521FFF783BF0355C2
:1034C0002046BDE8F0410621FFF77CBF03552046AA
:1034D000BDE8F0410921FFF775BF0000A486002078
:1034E00070B504460D4600F00FF808B100F01AF967
:1034F0000348044A2946005D5268BDE87040104701
:10350000B8850020607900200020064911F81020BD
:103510000AB100207047401CC0B20A28F6D301202F
:1035200070470000C28600200349002201F81020E5
:1035300001EB400042707047C2860020014A02F849
:1035400010107047C2860020024A012102EB4000A1
:1035500041707047C286002070B50024064D05EB0F
:103560004400407810B12046FFF754FF641CE4B2D9
:103570000A2CF4D370BD0000C286002070B5002173
:103580001D4B03F132051A5C002A09D0002403F117
:103590000A06012A0AD0022A12D0032A24D11FE0E7
:1035A00015F8102002B301221A541DE015F810205E
:1035B0001AB1345402221A5416E01C54042113E0A8
:1035C00015F810204AB1325C521CD2B23254642A2F
:1035D0000AD3072103221A5406E005211C5403E0F4
:1035E00015F8101011B10821084670BD1C54FFF7E2
:1035F0009BFF0921F8E7000090860020704700003B
:103600002DE9F0410F4690460A2F04D8B8F1000F7B
:1036100001D0002323E00020BDE8F08103EB430646
:1036200010F826402CB1012C03D0022C01D0032C21
:1036300013D100EB8605124AA97AD154104910F82B
:1036400026200C3101EB0314227069686160297A2D
:103650002172697A61720B49E1605B1CDBB2BB428B
:10366000DCD3074839460C30FFF726FD06480770C3
:10367000C0F804800548FFF79BFE0120CCE700005E
:10368000B88500206930200060790020E1342000F6
:103690002DE9F0410024124FDFF8488019E00026A0
:1036A00007EB041528786968FFF768FE10B9697A96
:1036B000012902D0012802D005E0012603E0687A42
:1036C000022800D1012631462046FFF737FF641C4F
:1036D000E4B298F800008442E1D3BDE8F081000034
:1036E000C48500206079002010B5FFF7D1FFBDE848
:1036F0001040FFF731BF000010B5074A012107480D
:1037000000F00EF900220A21044800F0D5F904491E
:103710000120487010BD0000E936200068860020B6
:103720006079002010B5034800F023F90249002019
:10373000487010BD6886002060790020002806D0FF
:10374000002904D0024AD269002A00D010477047ED
:103750009085002070B50D4616460D4C00280AD005
:103760000178032911D80121A17601461A222046A9
:10377000FEF72CFF05E00020A0761A210448FEF792
:103780009CFFE5612662002070BD012070BD000035
:103790009085002010B50848017800290AD1012140
:1037A0000170064893F6E6FEBDE81040002104488B
:1037B00094F676B810BD00004C7900205D601000D2
:1037C000D97C200070B50D4C2068002814D090F8EA
:1037D000250088B1132023F6EAFD2068002580F833
:1037E0002550092004F0F4FA2068001D02F03CFA8C
:1037F000002800D1256070BDE92070BD4879002007
:103800000178002904D1034901220A604068486018
:10381000704700006C79002010B501460E48006822
:10382000002808D090F825202AB190F82420012AF9
:1038300003D021B109E0E92010BDE72010BD826866
:10384000B2F5805F01D0E42010BD001D02F0D0FA77
:103850000028F9D110BD00004879002010B50D4AAC
:103860001368002B05D093F8252012B139B110B19F
:1038700007E0E92010BD9A68B2F5805F01D0E4202E
:1038800010BD0A460146181D02F0F8F90028F7D1CC
:1038900010BD0000487900202DE9F04104460026C3
:1038A000002C25D01A4D04F114002860227880F8ED
:1038B00024200160211D08308EC98EC0183815499A
:1038C0004160001D02F0D0F9002812D12868001DC7
:1038D00002F000FB00280CD1092202210E4804F05E
:1038E0005FFA2968012081F82500207818B10CE0E2
:1038F000E520BDE8F0810949132004F0F7FE13200C
:1039000023F648FD132023F663FD3046F1E700005F
:10391000487900200078014094A520000D2920005E
:103920002DE9F04104460D461746002D04D0012D27
:1039300002D00120BDE8F081CCB1C7B1EFF3118610
:103940000220FFF7B4F88046FFF7CEF8401C0121B3
:10395000814008EB0100C0B280F311880020607044
:10396000A570E761F0B280F311880020E2E7012042
:10397000E0E710B50446002C0CD0204600F02EF9EC
:10398000FF2060700021A160E16021616161002081
:10399000E06110BD012010BDF0B5DDE907450599D6
:1039A00081614FF47A76A2FB061C03FB06C3002755
:1039B00002FB0732C0E9021209196A41C0E9041288
:1039C00000210162F0BD00002DE9F0410446002C09
:1039D00013D0EFF311850220FFF769F80746FFF7D0
:1039E00083F8401C012606FA00F03844C0B280F388
:1039F00011881248002121620EE00020BDE8F0810C
:103A0000D4E90432D1E9047CDB1B72EB0C0202D254
:103A1000016A216203E00846016A0029F0D10462CC
:103A20006670064810380168491C0160016B4160EE
:103A3000E8B280F311880120E0E7000068840020EC
:103A40002DE9F04105460024EFF311860220FFF72F
:103A50002EF80746FFF748F8401C012181407818EE
:103A6000C0B280F31188134A106BE8B115B102F1AE
:103A7000100010E00446206A10631068401E1060B9
:103A80000CE0A94206D11168491E1160296A016241
:103A90002C4603E00846016A0029F2D124B1002037
:103AA00020626070106B5060F0B280F31188204685
:103AB000BDE8F081588400202DE9FF5F82460E4664
:103AC00093464FF00008BAF1000F20D041488642DB
:103AD0001DD8E6B1EFF311870220FEF7E8FF044698
:103AE000FFF702F8401C012181406018C0B280F34A
:103AF0001188504602F084FF10B19AF8010040B1DD
:103B0000F8B280F311880F2004B0BDE8F09F0120C7
:103B1000FAE703F0D1FA04460D464FF47A7106FB3A
:103B200001F022462B46002102F02EFEDFF8A8907D
:103B3000B0B1D9F8040048B1D0E90410091B60EB1A
:103B40000500C9E9021003F031FB04E00021C9F8C7
:103B50000810C9F80C104FF00108D9E9020106E07D
:103B6000D9F80400D0E90421101B61EB0501CDE96F
:103B7000020132460023CDF800B05046FFF70CFF9B
:103B80005046FFF721FF04F01DFD4FF0E021D1F872
:103B900000014FF0806210F0806F01D0012000E042
:103BA000002018B9C1F88022C1F80021B8F1000F37
:103BB0000AD0D9F80400D0E90431D9E90202181A70
:103BC00061EB020103F0AEFAF8B280F31188002035
:103BD0009AE70000008AB907588400202DE9F041D7
:103BE00004460025002C39D0EFF311870220FEF7A0
:103BF0005EFF0646FEF778FF401C012181407018E9
:103C0000C0B280F311886078012824D1144E706806
:103C1000A0420BD103F050FAD4E90432181A62EB37
:103C20000102C6E9020203F0C1FA01252046FFF7AE
:103C300007FF5DB1706848B1D0E90421D6E90203FD
:103C4000101A61EB030103F06DFA04E01DB970680E
:103C500008B903F0ABFAF8B280F31188BDE8F0813F
:103C60005884002070B504461A4D55F82400703071
:103C700004F025F982B21646A2B155F8240090F856
:103C8000011101290ED0012180F80411802A0FD3DF
:103C900055F82400802200F18001703004F024F9EE
:103CA00080260CE055F82410002081F8000170BD3A
:103CB00055F8240000F18001703004F015F955F832
:103CC0002400324600F18001001D2DF69DFA0028E7
:103CD000EDD170BD40840020704700002DE9F8430D
:103CE00004464B4E56F82400071D062C7ED290F851
:103CF0006C1000297AD0012978D180F801110025B3
:103D000056F82400D0E903120A44017D01F00101B4
:103D1000C91D02EB01084168CA6FC2F38002002A84
:103D2000FAD090F80411E1B1DFF8E8906D1C56F874
:103D30002400001D2CF6C4FE10280BD056F82400D9
:103D4000D9F800108068B1FBF0F000FB08F0B5EB8B
:103D5000C01FEBD956F82400703004F0B0F885B2DB
:103D600026E0B0F82480C58C001D2CF6C7FC56F860
:103D7000240041F2883300EB0801491B8031001D0B
:103D80002A462DF6EEF9E5E756F8240001227030B8
:103D9000694604F0A9F856F824004068C16FC1F3E1
:103DA00040010029FAD09DF8001001606D1EADB2EF
:103DB000002DE9D156F82400703004F080F8002876
:103DC000C8D1386841694906FCD5EFF31085012058
:103DD00080F3108856F82400703004F070F868B151
:103DE000EFF31081012080F3108800E00DE03868C7
:103DF000426842F08202426081F3108856F8241033
:103E0000002081F8010185F31088BDE8F8830000E7
:103E100040840020600300202DE9F04105460F4654
:103E20002C78002D05D022B1062C04D3E820BDE863
:103E3000F081E520FBE7384E05F1580046F82400F4
:103E4000D2E900310A467030194604F023F8291DE2
:103E5000286D05F06FF90028E9D156F82410281DC7
:103E6000486656F82400076056F8240018220830E7
:103E700005F14001FEF7EFFB284856F8241000EB4F
:103E8000C4056868486056F82400001D02F0ACF8CC
:103E900056F82400001D02F0C3F820480122032137
:103EA000103803F07DFF56F82410012081F86C00D3
:103EB00056F82410002081F8000156F8241081F8EB
:103EC000010156F8241081F8020156F8241081F8F7
:103ED000030113490C2004F009FC12490D2004F0E1
:103EE00005FC1149342004F001FC1049352004F090
:103EF000FDFB0F49362004F0F9FB0E49372004F092
:103F0000F5FB95F9010023F645FA95F9010023F632
:103F10005FFA00208BE700004084002048A62000C4
:103F2000DD292000ED292000FD2920000D2A200098
:103F30001D2A20002D2A20002DE9F04104461A4DAB
:103F400055F82400703003F0BAFF82B216460027FD
:103F50007AB155F8240090F80111012909D0802A7E
:103F60000ED300F180017030802203F0BDFF802667
:103F70000BE055F8240080F800710020BDE8F081C6
:103F800000F18001703003F0AFFF55F8240080F895
:103F9000047155F82400324600F18001001D2DF611
:103FA000F7F90028EAD1E9E74084002070B5062837
:103FB00001D3E82070BD0C4D55F820407CB194F839
:103FC0006C6066B169B162B1002684F8026155F88F
:103FD0002000001D2DF6C5F80028EBD170BDE520AE
:103FE00070BDE42070BD0000408400202DE9F8433E
:103FF00007460C46904604F10805204690F6D6F890
:104000000346344E70680021A7F58042DFF8C8C02F
:10401000B2F5804F03D2DCF80010401A0121E218FB
:10402000824202DD0520BDE8F8833068421EC2F3FB
:104030000B02821A02F6FF72C2F3073211B1DCF8EA
:10404000001000E00021DFF894C0DFF89490DCF865
:1040500000C0D9F80090ACEB090C96F80990A2EBDF
:1040600009020CEBC202101A401A001FE918814223
:1040700029DD00254FF4004911231F224946284617
:10408000009573F6EBFA0021084601F075FA40B18D
:1040900013231F2249460020009573F6DFFA0F20F4
:1040A000C1E7707A02F0AEFA0028BCD112231F22B9
:1040B0004946009573F6D2FA424621463846BDE895
:1040C000F84305F025B9424621463846BDE8F84395
:1040D00005F01EB990470020B8350020C4350020F7
:1040E000BC35002070B504F0F1FC40F21A4120B15B
:1040F00040F24C4004F05EFB03E040F22E4004F03E
:1041000059FB0D4CA07850B1E08804F063FB0546E4
:10411000208904F05FFB294604F09EFC05E04FF483
:1041200061714FF47A7004F097FCBDE8704002486A
:104130004A3003F0F5BC0000787A0020044A52F8B7
:10414000200050F84B2F0A6080888880704700005C
:104150001419002000214FF03040C1608161C0F887
:10416000D011C11741610162C0F8D81103496FF441
:10417000806008600220FEF762BC000084A000405E
:104180002DE9F04105460E4614461F46204600F034
:104190002BF83B46224631462846BDE8F04186F6DC
:1041A00005BD2DE9F04105460E4614461F46204642
:1041B00000F01AF83B46224631462846BDE8F04159
:1041C00086F62ABF2DE9F04105460E4614461F46E5
:1041D000204600F009F83B46224631462846BDE815
:1041E000F04186F681BF000010B5C0B285F6BAFF77
:1041F00001491438087010BD107C002010B500F083
:10420000ADF800F06DF8BDE8104000F08BB800008C
:1042100010B51248016821F0070141F00401016066
:104220000A200BF6F3F90D488438016821F48071F7
:1042300001600121002026F68FFC01201CF62EFAD9
:1042400007490220087004F0CDF90649322004F035
:104250004DFABDE810403220FEF71CBC90A800408B
:10426000147C00208B28200010B519480068C0F38A
:104270000B0017490831096821F07F41401C00EE0E
:10428000100ADFED140AB8EE400A60EE200A00EED4
:10429000101A1149B8EE400A80EE801AB6EE000AF4
:1042A00031EE000ABCEEC00A10EE100A486003F0BE
:1042B00015FC04F03BFC0948016841F48071016081
:1042C00006488430016821F00701016010BD00003C
:1042D00004E400400024F44B147C00200CA80040AF
:1042E00000B587B003218DF804100220029005224A
:1042F0008DF80C2001208DF80D0000238DF80E3074
:104300008DF8101005908DF818208DF819008DF893
:104310001A00034A022101A8FFF772F907B000BD95
:10432000FD3520007CB51020009002248DF804405B
:104330008DF8054007258DF8065069460420FEF7E4
:104340007FFF402000908DF804408DF805408DF8E7
:10435000065069460420FEF773FF7CBD00B587B0A8
:1043600000F01EF803208DF800001D208DF81600C7
:1043700001208DF817008DF818008DF81900044AF7
:1043800004496846FFF7E6F9FEF768FE07B000BD8E
:1043900099432000054420000320FFF79FBC000044
:1043A0001CB5144800904FF480600190124803221D
:1043B00002704FF4E1310164426400218164C16400
:1043C000016501234365017420244461427403762E
:1043D0000171102383604271017308494163816355
:1043E000022180F83C1080F83D206A460449FFF71E
:1043F00013FD1CBD347D002034810020009001405D
:10440000D93C20000A4601464FF47A730320FFF797
:10441000CDBD0000052110F1190F01DC022110E0D3
:1044200000F114020F2A01D803210AE00F2801D855
:10443000042106E0A0F11402192A02D932280CDB6B
:10444000062106480268C2F303328A4205D0026898
:1044500022F4704242EA01310160704714A8004022
:1044600010B50021084626F677FB01201CF6F6F869
:104470000248816821F48071816010BD00A0004075
:1044800010B514480068C0F30000002807D0114898
:1044900008380068C0F3000008B104F0FBF80E48CB
:1044A0000068C0F3000038B10B4808380068C0F35A
:1044B000000008B100F07AFB04F07AF8002807D079
:1044C00001F084FF002803D0BDE81040FFF7C8BF0B
:1044D00010BD000008E4004008E5004010B504F0FD
:1044E000F9F800F00FFB10BD10B501F0CBFA03F0A6
:1044F00055F903F04DFCBDE8104000F093B8000002
:104500002DE9FC4104468846164D4FF6FF76164FBE
:1045100012E02968082201EB0030694688F67AF932
:10452000082802D01020BDE8FC81BDF80000B04290
:1045300008D12078401C20702078797A8842E8D30E
:104540000020F0E709489DF80010C170BDF8021086
:1045500081809DF8011088F80010217841700020BA
:10456000E1E70000BC35002090470020C83500205E
:1045700010B51248016821F0004101600F23011DB0
:104580000A6863F31F720A600A6822F4E07242F458
:10459000C0720A60016841F000410160084801688A
:1045A00041F0010101600749312004F09FF80649FC
:1045B0004FF40030C1F8000110BD000004A9004014
:1045C00088E200409528200004E000E0F8B5EFF311
:1045D0001085012080F31088072000906846FEF7C0
:1045E000B1F90220FEF7B6F932200BF60FF80B4CAA
:1045F000206840F002002060094E70890BF606F832
:10460000206820F002002060B0890AF6FFFF9DF8C4
:104610000000FEF79FF985F31088F8BD04A900405B
:10462000DC7A00200249014808607047D56F10000D
:10463000CC05002010B595F681FA002800D0FEE7E1
:1046400010BD00B500F00AF85DF804EB01F04EBFB4
:104650000148007870470000408D002030B5084CBC
:10466000012525706060E2602361A16005488068D3
:10467000884201D2081A00E0401A606130BD000093
:10468000408D0020307C002010B501F009FF044669
:1046900018210548FEF711F8034A00211170204641
:1046A000BDE8104000F046B9408D0020F0B404464B
:1046B0000E462C482C4FB9680578026244628C4241
:1046C00001D9631A00E00B1BFF689F4206D3134613
:1046D00032462146F0BC0020FFF7B3BF87699F42F6
:1046E00001D98361C261012D0AD0022D27D0032D8B
:1046F00036D1134632462146F0BC0020FFF7A1BF59
:1047000044618C4203D90169491EC16002E001691C
:10471000491C8160D0E90212914209D21144490832
:1047200001610121017001693046F0BC00F01EB842
:104730000221017081683046F0BC00F017B8C169F1
:10474000914206D1134632462146F0BC0020FFF7C5
:1047500078BF03210170C1693046F0BC00F006B893
:10476000F0BC7047E88C0020307C0020054A936A3A
:104770005B1C93628AB2C1B20348044B406801F0EB
:1047800033BE0000E88C0020307C0020AD462000C5
:1047900070B505460D4C2C212046FDF78EFF0020FC
:1047A000A06040F2FF10E060FF2222614FF0FF3076
:1047B000A061A06A401CA062012020700448E9B2F8
:1047C000044B4068BDE8704001F00EBEE88C00204C
:1047D000307C0020AD4620002DE9F84307460D4609
:1047E00090462E4C207801280BD0022813D00820A8
:1047F000E06101B043462A463946BDE8F043FFF781
:1048000020BFE76040F2FF1121612846BDE8F84370
:10481000022200F079B8002600966761684600F031
:104820003FF870B1012810D002281FD003282DD0E6
:104830000720E06143462A463946FFF702FFBDE8FC
:10484000F8832846FFF7A4FFF9E70F2D06D231467B
:10485000A6600122681C00F057F8F0E70520E0612F
:1048600043462A463946FFF7ECFEE8E735B1A66035
:1048700001220021681E00F047F8E0E70620E06111
:1048800043462A463946FFF7DCFED8E70098E06148
:1048900043462A463946FFF7D4FED0E7C88C0020AD
:1048A00010B5174B17490A698968154CDB686469AC
:1048B0008B4203D98C4201D9022010BD8B4203D216
:1048C0008C4201D2012010BD8B4201D95B1A00E05D
:1048D000CB1A8C4201D9611A00E0091B934203D321
:1048E000914201D3002010BD934201D2022010BD9D
:1048F000914201D2012010BD02210160032010BDB0
:10490000C88C0020307C002030B4074B9C69641CAC
:104910009C6158601A708AB2C1B20448044B406866
:1049200030BC01F061BD0000C88C0020307C00204C
:10493000D947200070B50546064C20212046FDF7DA
:10494000BCFE0021A1602846BDE870400122FFF7AF
:10495000DBBF0000C88C0020F8B50E461F4C0025B8
:104960000095E169491CE1616660A260E16821612E
:10497000E0601B498B68834201D2C01A00E0181A1C
:104980006169814201D96061A261684600F02AF83C
:1049900058B101280ED0022814D0032818D000984E
:1049A000A062204600F0BFF8F8BDA562204600F0E6
:1049B000BAF8F8BD012084F820003046A16900F063
:1049C00077F8F8BDA1683046491C00F071F8F8BDD1
:1049D000A1683046491E00F06BF8F8BD148D002028
:1049E000307C00202DE9F0432F4A304FB968002574
:1049F0000026D3688B4201D95C1A00E0CC1AFF680C
:104A0000A74202D30020BDE8F083D2F82480B8F199
:104A1000010F10D092F82040012C0ED0224CD2F879
:104A20001CC04FF00109A769A468C4450BD3A74275
:104A300005D10020E7E70020E5E70020E3E782F862
:104A400020900120DFE7BCF1010F11D9D2F810C08E
:104A50008C4501D98B4203D38C4509D28B4207D9AF
:104A6000A74201D10020CEE782F820900120CAE7BA
:104A70008B4201D9012600E0012545B1B4F5FF7F45
:104A800003D9092101600420BDE70220BBE736B14C
:104A90000CB10320B7E70A2101600420B3E70B2122
:104AA00001600420AFE70000148D0020307C00205E
:104AB0008AB2C1B20248034B406801F095BC0000C5
:104AC000307C00205949200070B504460E4615463A
:104AD0002C210948FDF7F1FD074B002183F8201038
:104AE000491E59615C620548AAB2F1B24068BDE84E
:104AF0007040034B01F078BC148D0020307C002006
:104B00005949200010B501F051FC00280AD0FFF7E8
:104B10009FFD18B1BDE8104000F028B8BDE8104076
:104B2000FFF7B2BD10BD00B500F004F85DF804EB6E
:104B300001F0DCBC0B4901220A71826A8A60C269F9
:104B4000CA60C2680A6142684A6182688A61064A2C
:104B5000C0689268904201D9801A00E0101AC861BA
:104B600070470000588D0020307C00202DE9F04176
:104B700001F096FC074601F0A5FC8046094C26682A
:104B80000948456920212046FDF797FD761C2660DF
:104B900000202071424639462846BDE8F041FFF723
:104BA00093BF0000588D0020307C002010B50E4CC3
:104BB0002069401C206101F09FFCE06001F070FC66
:104BC000606001F07FFCA060084A00211160616113
:104BD000E3692BB182B22179E068BDE81040184743
:104BE000BDE8104001F082BCA88C002000E5004028
:104BF0002DE9F04106460F461C4C4FF6FF75238CFD
:104C0000102B0AD3208821466084CD835B1E0B8441
:104C10001E22891C2046FDF7D9FC608C324639469D
:104C200091F694FD10B10C20BDE8F081208C102885
:104C300004D3401C2084608CE08308E0618C24F85D
:104C40001010208C401C2084608C401C608400F07C
:104C50000FF80028E8D0218C491E89B22184628C8B
:104C6000521E628424F81150DEE70000D88A00202A
:104C700010B5054A24214FF4204091F667FD08B194
:104C80000C2010BD002010BDD88A00202DE9FC4169
:104C9000164804680834164E3078002802D00020E8
:104CA00091F662FA134D4FF6FF77082269462046C7
:104CB00091F664FABDF80000B84211D080B1BDF899
:104CC00002008FF673FABDF802100830084481B272
:104CD00020468FF647FD044628688442E5D32C68B9
:104CE000307891F641FA2046BDE8FC81BC350020C1
:104CF000B5350020C435002010B50021084B5A6896
:104D00001B8809E052F83140844203D102EBC10014
:104D1000406810BD491C89B29942F3D310BD000010
:104D2000147A002010B50021084B5A695B8809E00D
:104D300052F83140844203D102EBC100406810BDFB
:104D4000491C89B29942F3D310BD00001C7A00209F
:104D500010B50021084B5A681B8809E052F8314011
:104D6000844203D102EBC100406810BD491C89B2E6
:104D70009942F3D310BD00000C7A00200349095C6E
:104D8000002902D0002102F031B870479C8C00202D
:104D900008B51A48016821F070010160016821F02E
:104DA000070141F00401016015490978002909D083
:104DB000124984390A6842F480720A60016821F05D
:104DC00007010160012002F051FB0020FEF73CF9D1
:104DD00002F04AFD80B100208DF80000A3208DF87C
:104DE000010002208DF80200684691F6A1FF02F052
:104DF000E1FC02F077FD08BDFEE7000090A800404E
:104E0000EC7A002070B5044600BFFDF775FE05463C
:104E10000120FDF701FF0648047024B94822054926
:104E20000548FDF718FC2846FDF7F6FE00BF70BDEB
:104E3000FC790020D48B0020002000E010B507484A
:104E40004068074948600648083040220349083155
:104E5000FDF701FC03200249086010BD8C8B002087
:104E6000002000E070B500BFFDF746FE05460120BA
:104E7000FDF7D2FE0948047834B9482208490948A8
:104E8000FDF7E9FBFFF7DAFF012004490870284627
:104E9000FDF7C2FE00BF204670BD0000FC79002077
:104EA000002000E0D48B002013B501216846FEF7F6
:104EB00045FC01201CBD00002DE9F04387B00C46E5
:104EC00007276278A178CDE903720020CDE90501BA
:104ED00021784FF00308CDE900800291EE230922EA
:104EE000102172F6BBFB60780126DFF8F8900525EB
:104EF00030B1012834D0022846D003286ED157E0C3
:104F000020788AF6D3FDC0EBC00109EB81014D7218
:104F1000A278452A09D1CA681278022A16D091F8D7
:104F20002020022A01D081F8206091F82020012A57
:104F300003D0022A01D081F8208091F82020022A93
:104F40004CD0C9680978022905D101E04F72ECE71D
:104F5000A178452942D0244A0021126890473DE0BB
:104F600089F89950A078452805D199F89C00022825
:104F700001D089F89C6099F89C0002282ED01B492A
:104F800000200968884729E089F8A550A0784528BD
:104F900005D199F8A800062801D089F8A86099F8E9
:104FA000A80006281AD0124900200968884715E091
:104FB00020788AF6E9FD09EB001181F8B150A2785A
:104FC000462A01D0CE2A01D181F8B35091F8B3100E
:104FD000022903D0074A00211268904707B0002039
:104FE000BDE8F083F4380020343400203834002049
:104FF000403400203C3400202DE9F04186B00C46BE
:10500000C3F30725284681F65FFA0746284681F64E
:105010005BFA0026CDE901650721CDE903100220E6
:105020000090172309221021304672F617FBFF2D3E
:1050300066D035492088088060884880A0888880AC
:10504000E088C880207A0872607A48720F74D4F8B9
:105050000A20C1F80A20E289CA812C4B03EBC50261
:1050600016605660B4F800C023F835C0DFF8A080A1
:1050700001280CD1C87B0121B1EB901F07D198F812
:105080001C01400703D5234841780A2931D804F18F
:105090000A02617A1646284693F63CFD617A32464A
:1050A00028468CF613FF1C4C6FB1002088F620FCBC
:1050B000206828B1836B1BB1134A0021284698470A
:1050C00088F65EFC1CE0032088F8A800D8F8AC0045
:1050D0000078012814D1002088F60AFC206828B145
:1050E000836B1BB1084A00212846984788F648FC84
:1050F00006E006700449074A0A3128468BF668FA2A
:1051000006B00020BDE8F08190380020A2380020D1
:10511000F43800204035002084330020FEB50E46D0
:105120001C46B07800250127CDE9007502901823B0
:1051300009221021284672F691FAEFF311811C48DA
:1051400002781C480068C0F30220401C8740D01938
:10515000C0B280F31188C4F30724174A02EBC400DD
:10516000056045604FF6FF7022F83400C8B280F346
:105170001188204693F64EFD20468CF619FF2046F6
:1051800093F634FC204600F01BF8002088F6B0FBB4
:105190000A48006838B1C36B2BB1B0789030C2B206
:1051A00000212046984788F6EBFB0020FEBD00005A
:1051B00002E400E00CED00E0A2380020843300207F
:1051C00070B5064600240D4D05EB041090F8B110A3
:1051D00007290DD1D0F8BC100A79022A08D14979E3
:1051E000B14205D190F8B80010B920467FF6F8FF1B
:1051F000641CE4B2052CE7D370BD0000F438002035
:105200002DE9F0410027002500266FF48854041989
:10521000184806D0012C07D0022C0CD0032C0CD13E
:1052200005E00568466808E08568C66805E08569A8
:10523000C6690B7801E005694669002414E035F879
:10524000340098420FD105EBC400446874B1A4F552
:105250004F30F93803D098B2A047074606E098B21D
:1052600000F0B4FF02E0641CB442E8D33846BDE865
:10527000F0810000D80F00202DE9FC410E4629A046
:1052800003C8CDE900016A463146012014F604FB4B
:105290000746012F43D1304611F622FE0446200076
:1052A00037D111F6B1FE0546FF2D09D03078A02880
:1052B00008D0A1280CD0A22816D0A32819D10DE01F
:1052C0004B2426E03146284612F600FB044610E047
:1052D0003146284614F6A2FC04460AE03146284628
:1052E00000F064F8044604E03146284613F662FAFA
:1052F000044674B9707860B90C4890F87410C90706
:1053000007D000EB8501C968C26E8A61B0F87000F1
:10531000888324B1064A2146012012689047384606
:10532000BDE8FC81A0A1A3A2000000008419002018
:10533000E80600202DE9F04102460F461E460020F7
:10534000002400256FF48851511804D0012906D09B
:1053500003290CD107E012490C684D6807E0114998
:105360000C684D6803E010490C684D683E780022D7
:1053700012E034F83210B1420DD104EBC201496899
:1053800000290BD00846FFF7B7FC0246B0B23946F9
:10539000BDE8F0411047521CAA42EAD3BDE8F081B3
:1053A0001C070020140700200C07002070B5002502
:1053B0003C2111F67DFD04468CB103206073012071
:1053C00013F680F86061074820600748606007486E
:1053D000A0600021204611F68BFD284670BD4B25AC
:1053E000FBE7000081970100F153200005950100C3
:1053F0007CB504461D4D207B85F88000207CC107CC
:1054000007D020F0010020742046BDE87C4014F64F
:10541000A5B9A07B022806D0204614F650F9FF203B
:1054200085F881007CBD94F838000DF615FAA0F5DA
:105430007F41FF390ED094F838000DF60DFA014681
:1054400000200A22CDE9002003460246204613F63A
:10545000EBFF02E0204614F632F994F838200121DF
:10546000286D9140884328657CBD00008419002088
:105470002DE9F8430C463BA0006800906A4621469F
:10548000002014F609FA0746012F62D1607800F077
:105490000F084FF00009A18C608C12F663FE08B172
:1054A000402550E0304E86F8749086F8729004F6ED
:1054B00039F92E492046096888470546280042D117
:1054C00002206DF6DBF986F8728013F6E7FA86F8AB
:1054D0007B9094F82A0086F87A0096F8720080088B
:1054E00020D04120E17E86F875108A0704D421F08F
:1054F000020086F875001720E18C4FF4006291429B
:1055000000D31146884200D9014689B2A6F8761028
:10551000228D8A4200D21146884200D80846A6F859
:10552000780001E086F875900F48102204F10A0116
:105530005C30FDF74BF8A07EC00704D06068F066D1
:105540002089A6F870003DB1094A2946002012685A
:1055500090473846BDE8F883064A0021084612689D
:105560009047F6E70300000084190020FC060020A5
:10557000E8060020F80600202DE9F04F8DB0082243
:105580000C9200220B924FF008080A920991002613
:105590009A4FDFF86CB24FF0010A002848D0082279
:1055A00004A9386887F636F9082803D00F200DB013
:1055B000BDE8F08F9DF81000A52806D09148C1885D
:1055C0000C91447880780B9046E09DF81100DBF850
:1055D0000010022201EB0030083001A987F61AF909
:1055E000BDF80410A1F57F40FF380AD09DF81100E6
:1055F000DBF8001001EB00304FF4805190F68CFD89
:1056000090B19DF81200BDF816100C919DF8111084
:10561000491CCCB20B9009AB0CAA0BA904A803F04F
:10562000C9FF012802D017E01020C0E70020BEE724
:10563000FFF72CFB411EC1F30B01401ADBF80010F1
:10564000401A00F6FF70FF2101EB1030C4B20B943A
:1056500014B1CDF824A0012694F62EFDC7E0002554
:10566000069507955CB1DBF80000042200EB0430DE
:1056700006A987F6CFF8042801D00F2097E76148E4
:1056800005604560A521017044709DF82C10817063
:10569000BDF83010C1809DF81810C170BDF81A1007
:1056A0008180DBF8000000EB043040440A90386849
:1056B00000EB080108914FF4805190F62DFD50B198
:1056C0009DF818204AB1012308A90AA803F046FF53
:1056D00018B10F206BE7102069E7BDF81A203AB126
:1056E000002308A90AA803F039FF08B10F205EE7DC
:1056F000C4F100090A98DBF80010401A00EB0930E9
:10570000C0F58055082D2CDD082302AA08A90AA897
:10571000CDF800A095F6E2F808B10F2047E7BDF8F4
:105720000810A1F57F40FF3830D0083DBDF80A00D1
:105730008EF63CFDBDF80A100844A84208DDAAB266
:10574000002308A90AA803F009FFC8B10F202EE71B
:1057500082B2002308A90AA803F000FF80B10F203D
:1057600025E7A8B28EF622FD284483B2264A08A96E
:105770000AA8CDF800A095F6B1F808B10F2016E7F9
:105780003868089900F580508142B3D308221D493A
:10579000386887F68DF8082801D00F2007E7DBF876
:1057A00000004FF4805100EB043090F6B5FC60B17E
:1057B00076B1DBF80000042200EB043006A987F67E
:1057C00077F8042803D00F20F1E61020EFE600263A
:1057D00009AB0CAA0BA90B4803F0ECFE012802D080
:1057E00018B10F20E3E60020E1E6641CE4B20748AC
:1057F000407AA042BFF433AF0020D8E6C035002085
:10580000BC350020C83500206446002090470020A9
:10581000024600210BE0084850F83130501E834208
:1058200004D1054800EBC10040687047491C1029AD
:10583000F1DB0020F9E700001C8C0020002101E0D2
:10584000491C4008C207FBD0084670470248006860
:1058500000F480707047000040A3004010B503F0D2
:1058600035F950B14FF48C642146204602F0A2FF76
:105870002146204603F0F0F809E040F24C4421466E
:10588000204602F097FF2146204603F0E5F8BDE8E8
:105890001040014802F044B9CC7A00200148407819
:1058A00070470000787A00202DE9F04704460D4645
:1058B0004FF0000800BFFDF71FF981460120FDF7FA
:1058C000ABF92D480068102802D34FF0FF384BE0A9
:1058D00048222A492A48FCF7BEFE4822294927487F
:1058E000FCF7B9FE28482449096840F831402249AC
:1058F000096800EBC100456027884DF6FF7624F06B
:10590000010425F0010504F0030080B1A01E40F061
:1059100001011A480830184A126840F8221007EBB3
:1059200006401A49144A126841F822000CE044F07B
:10593000010112480830104A126840F8221013483A
:105940000D49096840F8216048220C490D48FCF7D0
:1059500082FE48220A490948FCF77DFE0648006895
:10596000401C0549086000BF4846FDF755F900BFD7
:105970004046BDE8F0870000007A0020002000E0EB
:10598000D48B00208C8B00201C8C0020008F0020EA
:1059900070B5044600BFFDF7AFF805460120FDF7DE
:1059A0003BF900201149087011481249086012485B
:1059B00012490860482212491248FCF74CFE12486E
:1059C0000F4948600320086048221048FCF743FE56
:1059D00048220C490A48FCF73EFE882C01D003F00F
:1059E000FFF92846FDF718F900BF70BDFC790020CB
:1059F000054E200084380020654E200080380020AD
:105A0000002000E0D48B0020008F00208C8B002031
:105A10002DE9FE430546002403208DF800000026F2
:105A20000C4F4FF00108E8070BD008FA04F0019082
:105A300007EBC4004068029057F8341009B168467B
:105A40008847641CA4B26D08761C082EEBDBBDE809
:105A5000FE8300000084002010B50446002019F6E3
:105A6000AFFF2046BDE8104019F63EBF10B5044612
:105A7000034819F6A5FF2046BDE8104019F64CBFB3
:105A80003C7A002000B5012003F03AF802490148B1
:105A9000086000BD916F10001400002010B5EFF3F6
:105AA0001084012181F310881AF6BEFD03480068B6
:105AB00008B900F005F884F3108810BDD005002067
:105AC00010B594F63FF900281ED1EFF310840120A1
:105AD00080F310880D48016841F0040101600B4912
:105AE000083108684007FCD503F020FF012001F0D1
:105AF0004DF8012001F04AF804481C38016821F0F3
:105B00005001016084F3108810BD000040A40040E3
:105B100070B504460D4600201EF664F8294620465E
:105B2000BDE870401EF622B82DE9FE4380460F46C0
:105B30003846FFF783FE85B20024DFF834900D4E1F
:105B400059F8340040450ED105EB041085B28DF8AC
:105B50000040019706EBC5004068029056F83520DA
:105B60000AB168469047641C032CE9DBBDE8FE835C
:105B7000B0A52000F082002070B504460D46044810
:105B80001EF630F829462046BDE870401EF61FB8C4
:105B9000407A002070B504460D46002021F6BEFB79
:105BA00029462046BDE8704021F698BB70470000AA
:105BB00070B504460D46044821F6B0FB2946204640
:105BC000BDE8704021F69ABB447A00202DE9F041EF
:105BD0000020FDF735FF0546214FD5E90412C7E93E
:105BE00002122048081A72F11E0017D307F11000A4
:105BF0000EE0D6E90412D7E90234B1EB030C72EBE4
:105C0000040C04D3C91A62EB0402C6E90412006A48
:105C1000066A002EEDD10021B960F960A87801284C
:105C20000AD1D7E90230D5E9021259185041C5E925
:105C300004102846FDF7C8FE786840B1D0E9043169
:105C4000D7E90202181A61EB020101F06BFAE96967
:105C5000002903D0A869BDE8F0410847BDE8F081FC
:105C6000588400200010C32C10B50446002028F6EC
:105C7000DBF92046BDE8104028F618B82DE9F04FB2
:105C800087B004460D469046142102A8FCF715FD86
:105C90004FF0000994B1B8F1000F0FD0207D01281A
:105CA0000ED001202075607D002601280AD04FF01B
:105CB00001092675484607B0BDE8F08F0120FAE7D4
:105CC0000220F8E70021204602F072FA204602F096
:105CD000AAFA0221204602F08FFA60680290A068BA
:105CE0000390E068049020690590069602A9206858
:105CF00042F65CFA20B16068B0F5C05F07D021E0E1
:105D00000421204602F078FA26750120D3E7CDB1B0
:105D1000A068A8B3298820680162698820680162A8
:105D2000A98820680162E9882068016229892068C1
:105D30000162698920680162A98920680162E98994
:105D4000206801622068016841F001010160244877
:105D500000680190DFF88CA0DAF800B0019859468D
:105D60001CF6DCFFDAF80450FCF720FE1E484FF466
:105D70007A710068B0FBF1F1C82041431B4F1DE070
:105D8000FFE7298820680162698820680162A98884
:105D900020680162E98820680162D3E7DAF804002C
:105DA000401B88420AD90421204602F025FA2675B4
:105DB000594601981CF68AFF03207CE77868C0F3F7
:105DC00000000028EAD0594601981CF67FFFB86809
:105DD000A061C8F800000121204602F00DFA68E732
:105DE000FCED00E0001000E06003002000780140BE
:105DF000F0B585B004460D4614216846FCF75DFCFD
:105E000000276CB1207D01280CD001202075607D19
:105E10000026012808D026750127384605B0F0BDB8
:105E20000120FBE70220F9E70021204602F0C0F93B
:105E3000204602F0F8F90221204602F0DDF9606800
:105E40000090A0680190E0680290206903904FF4F0
:105E5000005004906946206842F6A8F920B16068B5
:105E6000B0F5C05F07D021E00421204602F0C4F95C
:105E700026750120D2E7CDB1A068F0B1298820684D
:105E80000162698820680162A98820680162E98846
:105E9000206801622989206801626989206801629D
:105EA000A98920680162E989206801622675206855
:105EB000016841F001010160AFE7298820680162B3
:105EC000698820680162A98820680162E9882068E1
:105ED0000162EBE710B50446034828F6A5F8204612
:105EE000BDE8104028F654B8487A00207047704743
:105EF0001CB500208DF8000001910448006801687D
:105F0000002901D0684688471CBD00004879002060
:105F100070B504460D46044824F630FE2946204656
:105F2000BDE8704024F6DCBCCD5B20000948417818
:105F3000002907D101214170074A126802F00302CB
:105F400002B90170007810B1044800687047044835
:105F500000687047387A00203CA50040187C00207B
:105F60005C0300201CB503F0D3F805218DF8001068
:105F70000649002251F8203083F8002151F8200012
:105F80000168002901D0684688471CBD4084002074
:105F90001CB503F0BDF804218DF80010064900225D
:105FA00051F8203083F8002151F8200001680029C1
:105FB00001D0684688471CBD408400201CB503F012
:105FC000A7F803218DF800100649002251F820306F
:105FD00083F8002151F820000168002901D06846AB
:105FE00088471CBD408400202AF692BC1CB504469C
:105FF000204603F08DF800228DF80020E16B01911E
:10600000064951F8203083F8002151F8200001683A
:10601000002901D0684688471CBD0000408400204C
:1060200010B5044603482AF6E5FF2046BDE81040B7
:106030002AF6E0BD547A002070B5044622689068C4
:1060400000F00F000021022809D004280CD00628F7
:1060500016D00C2844D1A06901280BD00BE02046B3
:10606000BDE8704003F0D4B82046BDE87040002180
:1060700071F622BE01212046BDE8704071F61CBEBB
:106080005069E16B00F01E000143E163D06FC0F383
:10609000C00018B10021204671F60EFEE06B4FF0F3
:1060A000000580071DD5204671F6A1FD94F8350046
:1060B000012804D02046BDE87040FFF797BF206B51
:1060C00048B10A490164206B1AF6F4FC30B1206B28
:1060D000016C884702E02046FFF788FF84F83550BE
:1060E00070BD2046FFF782FFE56370BD1D7A070093
:1060F000704770471CB50446204603F009F802219A
:106100008DF80010218D628D891AADF804100449B4
:1061100051F820000168002901D0684688471CBD5D
:10612000408400207CB50546284602F0F1FF044675
:1061300001208DF80000288C698C401AADF804000D
:106140000C4D55F8240090F8040118B12046FDF7D5
:1061500089FD02E02046FDF7EFFE55F8240090F897
:106160000011002904D10168002901D06846884740
:106170007CBD0000408400202DE9F04F87B004680A
:1061800045688668C768D0F81080D0F81490D0F8B9
:1061900018A0D0F81CB04FF480610A48FCF78DFAC3
:1061A0008DE8C00F2B46224607490648FBF7F2FF51
:1061B0000448FCF705F807B081B2BDE8F04F01488C
:1061C000FEF716BDD88600202CA7200070B50C461F
:1061D000154628463AF67EFCC5F307253F281DD014
:1061E00028460CF65DFB0346A278217928460DF679
:1061F000B7F90B4850F82500C268FF2A09D020786B
:1062000008B1903000E00020C3B2012128460DF60D
:10621000BAF922796188284611F6C6FE002070BDC1
:10622000141900202DE9FC4104460F4612254FF0B9
:1062300000082178012946D8601C69F65DFA264ECF
:10624000142807D200EB800006EB400090F81505FB
:10625000C0F340082178601C6BF6CCF80A2832D3D2
:106260000025C5EBC50000EB451030448079FF28C0
:1062700003D06D1CEDB20A2DF3D30A2D2AD020785D
:10628000CDE9000804F117039846E21D611C284679
:106290005FF642F8C5EBC50101EB45118D19207879
:1062A000A871D4F801002860B4F80500A880E81DA2
:1062B00010224146FCF78AF905F117001022E11D72
:1062C000FCF784F900252946384669F6E7F90020ED
:1062D000BDE8FC810725F6E75822002070B50D4681
:1062E00000220A4CFF23C2EBC20000EB4210204404
:1062F0008371521CD2B20A2AF5D35FF6A9F80021A5
:10630000284669F6CBF9002070BD00005822002015
:1063100070B50D4610F8011B6BF66CF804460A2C9C
:106320000CD220465FF60AF9C4EBC401064A01EB21
:1063300044111144FF208871002100E00221284609
:1063400069F6ACF9002070BD5822002010B50A464D
:106350000078012806D800B10120054981F812060D
:10636000002100E01221104669F698F9002010BDC6
:106370005822002070B504460D46E07901280ED859
:10638000217801290BD8601C6BF634F80A2804D256
:10639000E1795FF6ADF8002102E0022100E0122170
:1063A000284669F67BF9002070BD00000548406969
:1063B000002804D00448006808B10020704701207C
:1063C00070470000A88C0020D805002000B5FFF71A
:1063D000EDFF20B10348806908B1012000BD002015
:1063E00000BD0000A88C00202DE9F04105460C46B8
:1063F00016469846FFF7DAFF002847D00121002013
:1064000024F6AAFB01201AF649F9214F01207861F0
:106410003D607C60BE60C7F81C800020B8611D4DE7
:10642000286820F001002860204600F041F830463E
:1064300000F050F8174CDFF85C80174E143408F168
:106440000C08B06840F48070B060022000F0BAFB25
:10645000386800F0C1FB206840F00100206020682F
:1064600040F002002060286840F001002860D8F861
:10647000000020F07F400028E3D00849322002F0DD
:1064800035F9BDE8F0413220FCF704BBBDE8F081EE
:10649000A88C002000E5004000A000408B282000D0
:1064A0000248006800F00F007047000054A8004048
:1064B00003490A6822F00F0202430A607047000095
:1064C00054A8004002480068C0F30840704700002C
:1064D00050A8004003490A68034B1A4042EA0040B2
:1064E0000860704750A80040FFFF00FE01490120EE
:1064F00088617047A88C00202DE9F0412DED028BBA
:106500001648006820F07F400022144B083B1B68AF
:10651000C3F30B041146641C0D4647F61223A0FB7F
:10652000032701FB0371002600FB0611104603F050
:1065300080FF08EE100A2046294603F07AFF00EE9D
:10654000100A0749C8EE000ABCEEE00A10EE100A75
:10655000C860BDEC028BBDE8F08100000CE5004096
:10656000147C00202DE9F05F80468B461F464FF0DB
:106570000009C2F307400004C7F3072140EA012ADB
:10658000D0B24AEA000A002400263B46594640465B
:1065900086F697F808B1154C0DE0FDB2042D1DD01C
:1065A000062D1DD0072D1FD0082D1BD0A8F510607B
:1065B0000A2800D20E4E3CB1A288404621688EF6D1
:1065C0009FF8FEF7C5FB06462EB13B46524659469C
:1065D0004046B04781464846BDE8F09F054CEAE793
:1065E000054CE8E7054CE6E7054CE4E750360020AB
:1065F00065A4080054340020703400201C340020AE
:10660000443400202DE9F04F87B05B490E6808360E
:106610004FF0000BCDF818B0584F78720821396050
:10662000C0EB40206FF00B0101EBC00806A800F0A2
:10663000DBF820B19DF818100120FEF79DFF08F14E
:10664000080078604FF001094FF0000A4C480078CC
:1066500010B100208FF688FD042204A930468FF681
:106660008DFDBDF81010A1F57F40FF3829D008221C
:1066700004A930468FF682FDBDF8120000F108042F
:106680008DF694FD0546BDF8100090B304A893F66E
:10669000A3FFC8B178686119401A7860002822DA2F
:1066A0000E231F224FF400410020CDF800B070F6F9
:1066B000D5FF334800788FF657FD0E2007B0BDE8B0
:1066C000F08F4FF0010A22E00C231F224FF400410B
:1066D0000020CDF800B070F6C1FF294800788FF691
:1066E00043FD0B20EAE74FF00009314604A893F67A
:1066F000F1FC601981B230468EF634F806461E4829
:106700000068301A38601F4800688642A4D31C48CD
:1067100000788FF629FDBAF1000F05D0B9F1000F0E
:1067200004D0C7F804800AE00D20C7E7786808287D
:1067300002DD0838786002E03872C7F804B0786883
:106740000122052140450BD8CDE9002102900F23FD
:106750001F224FF40041002070F680FF0020ADE7BB
:10676000CDE90021102302901F22D902002070F6EB
:1067700075FF0E20A2E70000BC35002090470020E6
:10678000B5350020C43500202DE9F04705460E46FA
:1067900017469846EFF311840220FCF788F98146EA
:1067A000FCF7A2F9401C0121814009EB0100C0B2B5
:1067B00080F311880B48406848B1E81B76EB080667
:1067C0000AD2E0B280F311880120BDE8F087E0B280
:1067D00080F311880120F8E7E0B280F311880020EF
:1067E000F3E70000588400202DE9F04F85B00746FC
:1067F000DFF8FC91D9F8004008342646DFF8F48130
:1068000008226946D8F8000086F604F8082803D064
:10681000002005B0BDE8F08F9DF80000A5280BD042
:10682000DFF8D4B1DFF8D4A1082202A9204686F609
:106830000BF8082842D0A4E001254FF6FF761EE0B1
:10684000082202A9204685F6FFFF082817D1BDF8C7
:106850000800B04213D0BDF80A008DF6A7FCBDF8C1
:106860000A100830084481B220468DF67BFF0446AA
:10687000D8F80000844202D33D700120C9E79DF89A
:106880000210D9F80020BDF8060002EB01310844DF
:10689000A042D5D89DF80210D9F80020BDF8060016
:1068A00002EB01310844A04201D23D7003E002D165
:1068B0004FF0000038704FF00100AAE7BDF8081053
:1068C000A1F57F40FF3837D02646BDF80A008DF687
:1068D0006DFCBDF80A100830084481B220468DF6E0
:1068E00041FF0446D8F8000084424AD3701EC0F32A
:1068F0000B00D9F80010301A401A00F6FF70C0F3F0
:1069000007350495394604A8FDF7FAFD98BB387899
:1069100088B39AF80300C0F108003044411EC1F367
:106920000B01411A081AC0F10100AAF806006D1EF9
:106930008AF8025001206CE7601EC0F30B00211A98
:10694000D9F80000081A00F6FF70C0F30735049567
:106950009BF80900A84201D100205AE7D8F800208E
:10696000944209D2401EA84206D101F6FF7191421D
:1069700002D100204DE704E0394604A8FDF7C0FD30
:1069800030B1D8F800008442FFF44EAF002040E759
:106990009BF809009DF81010884226D03878B0B1D5
:1069A0009AF8030038B1C0F1080081B230468DF684
:1069B000D9FE04460BE0BAF8040040B1241A601E68
:1069C000C0F30B00201AC01DA04200D9083C601E75
:1069D000C0F30B00201A001BC0F10100AAF806004A
:1069E0006D1E8AF80250012013E7002011E7000015
:1069F000BC350020C035002090470020C83500205D
:106A0000002805D0C16919B1807818B1012801D0DA
:106A100000207047012070472DE9FF4F89B00C46D8
:106A20001546E28821890120CDE90502CDE907015B
:106A30002278A1884FF0000ACDE901A2CDE9030137
:106A40000420402300900D221946504670F606FEA1
:106A5000C5F30728A188404613F67AFF0646D146BB
:106A60000B2E48D22789300440EA08218B468A1D24
:106A70002078891DA0B100204A3083B240F613204F
:106A800039F660FF0546A5F802A021782970207824
:106A900000B10027AF80A07A2872207810B116E0EC
:106AA0003846E9E70420E880208900F14A0108918E
:106AB00004F10A01CDE90010114FAA1C08AB3F6890
:106AC000291D4046B847A088E88028782870A28809
:106AD0003146404609F656FA284639F67FFF6CF6ED
:106AE000EFFF4A2807D14BF04A0120460C9A39F6AD
:106AF0005CFF4FF001090DB04846BDE8F08F000083
:106B00001809002002480068C0F380507047000058
:106B100014A8004003490A6822F4F81242EA00402F
:106B20000860704714A8004003490A6822F4F8522C
:106B300042EA00200860704798A8004003490A68AC
:106B400022F4706242EA00200860704794A8004076
:106B500003490A6822F4C05242EAC0200860704724
:106B600004A8004003490A6822F00F0202430A60A9
:106B70007047000094A8004003490A6822F003020D
:106B800002430A60704700003CA6004005498A693C
:106B900022F0010202438A618A6922F00102024363
:106BA0008A61704700A0004005490A6822F0070288
:106BB00002430A600A6822F0070202430A60704733
:106BC00000A0004003490A6822F0FF0202430A6065
:106BD0007047000020E5004003490A686FF30B028C
:106BE00002430A607047000004E5004003490A6858
:106BF00022F0030202430A60704700003CA50040F7
:106C0000002909D001290CD002290AD0032908D073
:106C1000842304A201F692B81278084B04211B6861
:106C2000184770476C6C635F63685F636C61737374
:106C30005F70617463682E6300000000C409002067
:106C4000002909D001290CD002290AD0032908D033
:106C5000B52304A201F672B81278084B04211B6810
:106C6000184770476C6C635F63685F636C61737334
:106C70005F70617463682E6300000000C809002023
:106C8000084602490160114646F61ABC016C200014
:106C9000084602490160114646F612BC416C2000CC
:106CA00030B4064C2478002C04D1054C2588CD81C5
:106CB00064888C8130BC46F62DBE0000440A00205A
:106CC000087A00202DE9F04780460F4615464148D6
:106CD00050F828900121404647F6CEFC0446002695
:106CE000204647F643FDB8420BD0142F00D03D2577
:106CF0003D2D04D101222946404643F6D3F9012611
:106D00005DE0204647F632FD0A380A284CD2DFE81B
:106D100000F0050B10151A262C324648224649462B
:106D2000404648F68FFA4AE02146404649F640F888
:106D300045E02146404648F6EFFF40E02146404608
:106D400049F602F83BE0218F04F10802404643F681
:106D500064FF0F224146204647F60AFD2FE02A46EF
:106D60002146404649F618F929E04A462146404660
:106D700049F6C4F823E040F2622008F647FC2146B9
:106D8000404600F07FF8D4B115B194F83A00B0B1A4
:106D900094F83A202946404643F646FE0FE0012685
:106DA0000DE0012606250AE01F25204647F6DEFCF9
:106DB000014640F24B1308A2404600F6BFFF002EEA
:106DC00005D029464046BDE8F04700F00FB8BDE8C1
:106DD000F0870000941E00206C6C635F656E637228
:106DE0007970745F70617463682E63002DE9F041FF
:106DF00005460E46214F57F825400121284647F603
:106E00003BFC1F4A00215155002833D001200C2D96
:106E100008D257F825202AB192F8AA00C04380076B
:106E200002D0002010B11CE00120FBE70121284620
:106E300054F662FD00220221284644F62BFCB4F8E9
:106E4000A80020F02001BEB1002041EA4010A4F8C3
:106E5000A800284643F6DEFF00221146284647F6E2
:106E600089FC0121284647F63FFD34F8A80F20F49D
:106E700000702080BDE8F0810120E6E7941E00202C
:106E80009C8C002070B504460D460022012120464E
:106E900047F6CCFC0121204658F67EF81222214606
:106EA000284647F665FC0949204644F698FA002230
:106EB0000221204644F6EEFB0549012008552046F4
:106EC000BDE870400222012144F6E4BBBFB30400D8
:106ED0009C8C00202DE9F0479EB00C4690464FF068
:106EE0000009C8F30727554850F82750002D05D151
:106EF0005F2353A20021384600F620FF002D1CD04E
:106F0000384654F6DBFE002817D13846FDF736FF29
:106F100095F8A800400610D4384608F6F9F8DFF8CE
:106F200034C158B1A18815A824226144FBF74EFB57
:106F3000A27815A938462CF6E1FD71E00026A1885B
:106F4000A07814AB2422242800D3104682B26144D6
:106F50001846FBF73BFB9DF850008DF81C005CF6D3
:106F600005F919214FF0000AD8B11D9195F8AA1022
:106F700011F003000DD001280DD002280BD00328FA
:106F800032D001F003019B232DA2384600F6D6FE35
:106F90002AE0012628E001223D21384643F682F806
:106FA00022E09DF81C00A37800EB40022A4800680C
:106FB00000EB82000289934202D01D91012613E06A
:106FC000342106914068009006AA14A907A807F684
:106FD0007DFA1D9070B31E201D909DF81C2029463F
:106FE000384650F6C1FC064636B11C4D1DAB07AA0B
:106FF0002D6821464046A8479DF874109DF81C0056
:10700000CDE905A10722CDE90320CDE901A70320A1
:1070100000900A2321224FF48031002070F61EFBDD
:10702000A08805F607FD384643F6F4FE1EB0484634
:10703000BDE8F087CDF874A0CFE70000941E0020D3
:107040006C6C635F6C6C63705F70617463682E63FB
:1070500000000000008000B0501000204C0A00200A
:10706000FEB50E461C4600210022124828C81CE02E
:1070700033F83200A04217D1042000EBC2001D58A3
:10708000ADB101200090CDE90104002301042122CB
:10709000184670F6E3FA2846FDF744FE0246A1B210
:1070A00030469047014602E0521C9542E0D808461F
:1070B000FEBD00000010002070B527F6ABFA0446B4
:1070C000601C24D0FEF732FF00EE100A9FED131A69
:1070D000F8EE400A00EE104AB8EE400A20EE011A1F
:1070E00081EE200A10EE100A03F01EFA0C4A5368D3
:1070F00083B1D3E90463D2E90254721B63EB040346
:10710000141A73EB010401D21046194670BD002019
:10711000014670BD0020014670BD00000024744986
:107120005884002070B505462DED028B0E460024D4
:10713000FEF7FCFE02F093FE41EC180B28463146A8
:1071400002F0A0FE53EC182B02F01EFF9FED131B64
:1071500053EC112B02F0CEFC9FED121B53EC112BC4
:1071600002F014FC02F04EFE01460420FEF7D0FEB1
:107170004FF47A7506E0012008F648FA2046641CB0
:10718000A84207D227F652FA0028F4D027F642FA8E
:10719000401CF0D0BDEC028B70BD00000000000070
:1071A00080842E41000000000000E03F70B5002404
:1071B00027F644FA4FF47A7506E0012008F626FA1D
:1071C0002046641CA84203D227F630FA0028F4D1E6
:1071D00070BD000010B50121002023F6BDFC012088
:1071E00019F65CFA07490120087001F0A7FA01F0CE
:1071F000F9F90549322001F079FABDE81040322052
:10720000FBF748BC147C00208B28200010B51848E0
:107210000068C0F30B0016490831096821F07F416E
:10722000401C00EE100ADFED130A134CB8EE400AC2
:1072300060EE200A00EE101AB8EE401A80EE810AC5
:1072400084ED020AF6EE000A0C4930EE200ABCEE8C
:10725000C00A10EE100A086092F628FD6069002846
:1072600004D094ED020ABDE81040004710BD0000B4
:1072700004E400400024F44B147C00205C03002054
:107280000023042210F10A0F01DBC82901DA0123CF
:1072900005220848016821F0700141EA03110160EC
:1072A00005490978002904D1016821F0070111433B
:1072B0000160704790A80040EC7A0020FCF79EFF28
:1072C00011A0FAF75BFF1148FAF758FF1048FAF7D8
:1072D00055FF1048FAF752FF0F48FAF74FFF0F48D3
:1072E000FAF74CFF0E48FAF749FF0848FAF746FF4D
:1072F00005A0FAF743FF00F0C9FE00F047FE09A021
:10730000FAF73CFFFEE700000D0A0000E0A82000AD
:10731000D0A720008CA7200058A820009CA82000FF
:1073200014A820000D0A54686973206578616D7097
:107330006C652064656D6F20656E642E0D0A00001B
:1073400010B5FEF783FA10B101F0AEFFFEE7BDE81D
:107350001040FAF775BE000070B501F0B7FB40F2BF
:107360002E424FF47A7528B1114640F24C4001F09C
:1073700021FA03E02946104601F01CFA0C4CA078D3
:1073800050B1E08801F026FA0546208901F022FA82
:10739000294601F061FB04E04FF46171284601F0D9
:1073A0005BFBBDE870400248403000F0B9BB000014
:1073B000787A00202DE9FF410446002000900190DA
:1073C0000290039021482249B0F5001F02D9B0F580
:1073D000401F08D3C0F31300C1F3130100F062F89B
:1073E00021680843206000251A4F1B48C61B10E087
:1073F00007EB051110226846FBF7E8F80198C0F387
:1074000013000299014400F04DF821680843206000
:107410006D1CB5EB161FEBD31048C0F313001049D9
:10742000C1F3130100F03EF82168084320600D48C5
:10743000C0F313000C49C1F31301884204D000F0DB
:1074400031F8216808432060BDE8FF81002020005A
:1074500068A9200024A9200064A9200000D00720EA
:10746000000008200090072000D0072038B50F2129
:107470000091012809D00A4C20468EF60DFF2046C7
:107480008EF6F6FE00F03CF838BD6846FFF792FF36
:1074900000988EF601FF00988EF6EAFEF2E70000F3
:1074A000FFFF3F00F0B50246002000250023002624
:1074B0000024124F57F824C06544AA4201D2234643
:1074C00003E0641CE4B20B2CF4D30024002257F830
:1074D00022502C44A14201D8164603E0521CD2B2DD
:1074E0000B2AF4D3032405E05A0004FA02F10843FE
:1074F0005B1CDBB2B342F7D9F0BD0000C4A620008C
:107500000C48016821F4401141F400110160094860
:107510000838016821F4401141F440110160054828
:107520000121083001600168C1F300410029FAD14E
:107530007047000088A400402DE9F0410125002497
:1075400000261930502800D3032518480068C0F3DE
:10755000C120A84228D01649097821B12846BDE8A3
:10756000F041FFF7F5BA114F8C37854205D93868DD
:1075700000F00704062C00D2012646B1386820F03E
:10758000070040F006003860322008F63FF8284631
:10759000FFF7DEFA002E07D0322008F637F83868F9
:1075A00020F0070020433860BDE8F08104A80040C7
:1075B000EC7A0020F0B58DB004460D46002D0BD0BE
:1075C0000BA90CA88EF6B2FD374E681C8CB12105B4
:1075D00004D009200DB0F0BD0820FBE704EB00311A
:1075E0000B9800F50010814201D8346008E00A20B1
:1075F000F0E70B99404201EB003000F500103060DD
:107600004FF4D0712948FBF758F8294C002020701E
:107610003068284900EB05300860274F38608EF647
:107620008FFD26490870082207A9306885F6F2F810
:107630000126082817D01BF641FF04461BF64AFF17
:1076400004AB022113C30321CDE90016072240F247
:1076500077100392002302901F22F10318466FF661
:10766000FDFF1020B6E7082209A9386885F6D2F890
:10767000082801D01020ADE70822114907A8FAF721
:1076800079FF18B19DF82400FF2807D02846FEF79F
:10769000B9FF00289ED1267000209BE728468DF672
:1076A000E9FA0028F7D095E7BC3500209047002084
:1076B000B4350020C4350020C0350020B535002089
:1076C000A4B709002DE9FF4706460C46904632480C
:1076D0000078002839D0B8F1000F34D094B340F6C8
:1076E000EC7084422FD86EB3A6F57F40FF382AD0C5
:1076F00003A9304685F6C2FF0746C7B3082201A991
:10770000384685F6A1F801A892F666FFF8B1BDF8F3
:107710000C0000254FF40049A04229D10821384629
:107720008DF620F8424621468DF6ECFB88B1082301
:107730001F224946002000956FF690FF002004B0FC
:10774000BDE8F087FFE70720F9E70320F7E71020FF
:10775000F5E709231F224946002000956FF67EFFBA
:10776000434622463146384600F03CFBE7E70DE051
:107770000A231F224946002000956FF66FFF4346FB
:1077800022463146384600F02DFBD8E742462146D6
:107790003046FCF72BFCD2E7B43500200348024901
:1077A0000160034981607047B57520007C47002067
:1077B000C576200010B5012100208EF643FF002879
:1077C00015D0022802D0102800D0FEE78EF634FF34
:1077D00004468DF6B8F8014620468DF679F828B1B2
:1077E000012120468EF62EFF002800D0FEE710BDB6
:1077F0000220FEF7CDB800002DE9F04104460D4609
:1078000016461F4601F08AFA384690F6B7FB314615
:10781000284600F0B9F8284600F028F9284600F07C
:1078200031F80A4810F824200948416962F303013D
:107830004161416964F34711416106480470214682
:10784000BDE8F04104488FF6E5BE000094A6200094
:10785000BC2C0020747A0020F07A002013460A46DF
:107860000121FFF7C9BF000010B500F023F9044C57
:107870000020E061A0618DF654F80121E16110BDA6
:10788000BC10002010B50446962007F6BFFE012C60
:1078900007D0022C04D10648016821F08001016064
:1078A00010BD03484430016821F40041016010BD5F
:1078B00004A8004070B50024094D55F8240000B11B
:1078C0008047641C032CF8D30024054D2D1F55F868
:1078D000240000B18047641C002CF8D070BD00006B
:1078E00088A5200038B51A49192000F0FFFE194973
:1078F000382000F0FBFE01F07BFAFCF7F5FD17499C
:107900001548086017491648086018491648086065
:10791000184917480860002400946A4601214CF277
:1079200005008EF613FFFCF723FE1348016821F0D3
:10793000C0010160124811490160011F0A684FF03F
:1079400080720A600460BDE838400E4890F6D6B8F0
:10795000936B1000E116080067711000A40D002061
:10796000E97110001800002063721000A80D0020BB
:10797000C1721000AC0D00200CA80040A2B4982BDE
:1079800004A70040A96610002DE9F8430D464FF00A
:1079900002084FF4FA710091314FD7F8801221F4A8
:1079A0004034304E4FF47A71012812D0022840D072
:1079B000D7F8800244F480310843C7F88002002DD4
:1079C00005D06A4641464CF203008EF6BFFEBDE884
:1079D000F8830095DFF88C90A9F14409D9F80000EC
:1079E00020F08000C9F80000084607F60FFE306856
:1079F00020F4F81040F440303060306820F07C50C3
:107A000040F08060306018480221808CB1EB102F6C
:107A100003D1306840F400103060D9F8000040F025
:107A20008000C9F80000962007F6F0FDC7F88042F4
:107A3000C5E70095306842F20B726FF30F001044F7
:107A40003060084607F6E2FD306840F400403060E0
:107A5000962007F6DBFD44F48030C7F88002AEE7DD
:107A600000A0004048A800407445002010B510490F
:107A70000A6822F003020A600D4CBC3C01280CD0BD
:107A80000020FFF7B3F80220FFF776F8E06B20F054
:107A9000030040F00200E06310BD0320FFF7A6F8EA
:107AA0000320FFF769F8E06B40F00300E06310BDCE
:107AB0003CA70040054904480860064804490160A5
:107AC00005494162704700006D6C10009005002070
:107AD000D5631000D4030020B964100000EE100A32
