:020000040020DA
:1020000000000820592020006120200001601000FD
:10201000F7212000ED212000FD212000000000001C
:10202000000000000000000000000000156010002B
:102030006B202000000000006D2020007120200097
:10204000DFF810D000F048FC00F062F800480047CC
:102050002DBB2000000008200648804706480047A6
:10206000FEE7FEE7FEE7FEE7FEE7FEE7FEE7FEE748
:10207000FEE70000852A200051BB20000649074AE0
:102080000868504343F23902104408604008704722
:102090000149086070470000248300206D4EC6414E
:1020A00040EA01039B0703D009E008C9121F08C0DA
:1020B000042AFAD203E011F8013B00F8013B521E5A
:1020C000F9D27047D2B201E000F8012B491EFBD2D1
:1020D00070470022F6E710B513460A460446194633
:1020E000FFF7F0FF204610BD421C10F8011B00292D
:1020F000FBD1801A704730B504460020034600E04B
:102100005B1C934203D2E05CCD5C401BF8D030BD39
:1021100070B5054C054D03E0206820448047241D20
:10212000AC42F9D170BD0000C4082100C8082100EC
:1021300030B4044696230800214604D0B62330BCB0
:10214000002200F0B2BA20460021F8E70EB540F2B6
:10215000334102910021CDE900110A460B4600F0FF
:10216000E1FA03B000BD0EB540F233420292002204
:10217000CDE90022134600F0D5FA03B000BD20F0EF
:102180000040C20DC0F3160040F400007F2A02DABE
:102190000020014670470021962A03DCC2F1960216
:1021A000D0407047963A00F046BA70B5C1F30A5273
:1021B00001F000450024C1F3130140F2FF3341F464
:1021C00080119A4201DA002070BD40F233439A42F6
:1021D000A2F2334203DC524200F03CFA00E09040AD
:1021E0002C43F1D0404270BD03F0D4B9FEE710B5E6
:1021F00003F094FC10BDFEE728F6D0BCFEE7704764
:1022000058585247010000002655000000202000C9
:10221000002020007FED9247010100000000000037
:1022200000000000000000000000000000000000AE
:10223000000000000000000000000000000000009E
:102240002DE9FE4F804681EA0300C00F0C46009046
:1022500021F0004123F00045B8EB0200A94105D26E
:102260004046214690461C460B46024623F000405D
:10227000104347D0270DC7F30A00C3F30A51029059
:10228000401A019040286BDAC3F3130040F4801B1E
:102290000098924620B10023D2EB030A63EB0B0BAC
:1022A00001985946C0F14002504600F0C4F9064674
:1022B0000D4650465946019A00F0DCF910EB080033
:1022C0006141002487EA115284EAE7731A4340D03F
:1022D000009A62B3019A012A4FEA075215DC001BEB
:1022E00061EB02014FF0004202EA0752CDE90042E1
:1022F000001C41F5801132462B4600F013FA03B062
:10230000BDE8F08F40462146F9E7001B61EB020172
:10231000001C41F5801300185B412018A2F500173E
:1023200047EB030140EAD570B6196D4111E06D0825
:102330004FEA360645EAC0754FEA0752001B61EBCB
:102340000201001C41F5801149084FEA30000019D4
:10235000514132462B4603B0BDE8F04F00F0D3B9EF
:102360000098012240000023D0EB020263EBE073EF
:10237000009821464FEAE074B8EB000061EB0401DD
:10238000E9E783F000435BE781F0004158E72DE97E
:10239000FE4F81EA030404F0004421F00041009460
:1023A0004FF0000B23F0004350EA01045ED052EAE4
:1023B00003045BD0C3F30A54C1F30A552C44A4F2BE
:1023C000F3340194A0FB0254C1F3130141F48011D2
:1023D000C3F3130343F4801301FB024400FB034ED9
:1023E000840A970A44EA815447EA8357A4FB0768A2
:1023F00002958D0A05FB07854FEA932C04FB0C54CC
:102400002705029D4FEA065847EA1637B5EB08053F
:102410006EEB070C870E920E47EA811742EA831291
:10242000A7FB0201B6EB0B0164EB00042B0D43EAA2
:102430000C335E1844EB1C50DA465146E7FB0201B0
:10244000C5F313044FEA0B3343EA14534FEA043243
:10245000019C43EA0603A4F10C040294009CCDE91C
:1024600000B400F05FF903B0BDE8F08F0020014632
:10247000F9E72DE9F04D81EA030404F0004B21F067
:10248000004514464FF0000A23F0004150EA0502CF
:1024900020D054EA01021DD0C5F30A570246C5F305
:1024A0001303C1F31300C1F30A5640F4801543F43B
:1024B0008013A7EB0608101BD64608F2FD3873EB15
:1024C000050002D308F1010801E092185B41B8F160
:1024D000000F03DA00200146BDE8F08D00204FF424
:1024E0008011064684460EE0171B73EB050705D3E3
:1024F000121B63EB050306434CEA010C49084FEA43
:10250000300092185B4150EA0107EDD152EA030016
:1025100012D082EA040083EA0501084305D0101BAB
:10252000AB4106D20122002306E000224FF0004317
:1025300002E06FF0010253101AEB06004CEB085159
:1025400010EB0A0041EB0B01BDE8F04D00F0DBB8E9
:10255000C1F30A5210B5C1F3130140F2FF3341F445
:1025600080119A4201DA002010BD40F233439A42B2
:10257000A2F2334203DC524200F06CF810BD9040EE
:1025800010BD00F0004230F000400AD0C10D01F54E
:102590006071C0F3160042EA0151C20840071143BE
:1025A000704700200146704730B50B4601460020B9
:1025B0002022012409E021FA02F59D4205D303FA05
:1025C00002F5491B04FA02F52844151EA2F1010286
:1025D000F1DC30BD2DE9F05F0546002092469B46B8
:1025E00088460646814640241BE028464146474629
:1025F000224600F02FF853465A46C01A914110D394
:1026000011461846224600F016F82D1A67EB01080D
:102610004F4622460120002100F00DF817EB00097B
:102620004E41201EA4F10104DFDC484631462A4613
:102630004346BDE8F09F202A04DB203A00FA02F16D
:10264000002070479140C2F1200320FA03F31943A0
:1026500090407047202A04DB203A21FA02F0002142
:10266000704721FA02F3D040C2F1200291400843A2
:1026700019467047202A06DBCB17203A41FA02F0B0
:1026800043EAE07306E041FA02F3D040C2F12002CF
:1026900091400843194670470029A8BF7047401C65
:1026A000490008BF20F00100704710B4B0FA80FC68
:1026B00000FA0CF050EA010404BF10BC704749B1A5
:1026C000CCF1200421FA04F411FA0CF118BF012115
:1026D00021430843A3EB0C01CB1D4FEA00614FEAF5
:1026E000102042BF002010BC704700EBC3501044C4
:1026F0000029A4BF10BC7047401C490008BF20F04F
:10270000010010BC704710B5141E73F1000408DA04
:10271000401C41F1000192185B411A4301D120F0A5
:10272000010010BD2DE9F04D92469B4611B1B1FA62
:1027300081F202E0B0FA80F220329046FFF77BFF90
:1027400004460F4640EA0A0041EA0B0153465A4646
:10275000084313D0114653EA010019D0C8F14002D2
:102760005046FFF777FF05460E465046594642460B
:10277000FFF761FF084305D0012004E020463946F9
:10278000BDE8F08D0020054346EAE0762C43374350
:102790000A986305E40AA0EB08000022FD0A44EA57
:1027A00047540A3002D500200146E9E70105101917
:1027B0006941DDE9084500196941BDE8F04DA2E72E
:1027C0002DE9F041054621F000400C46284309D090
:1027D000C4F30A5040F23341884205DD28462146C1
:1027E000BDE8F0812846FBE740F2FE31884210DC6C
:1027F0000CDB4FEA043040EA155050EA053105D0B1
:10280000104804F0004101430020E9E700200146A0
:10281000E6E7A0F233404642C6F140022846214690
:10282000FFF709FF07468846284621463246FFF74C
:1028300011FF43463A46FFF766FF3246BDE8F041D6
:10284000FFF7F9BE0000F03FC1F30A52C1F31301D4
:1028500040F2FF3341F480119A4202DA002001462F
:10286000704740F233439A42A2F2334202DC5242B2
:10287000FFF7F0BEFFF7DFBE30B5041E71F10004B4
:1028800004DB4FF00044404264EB0101141E73F17D
:10289000000405DB1C464FF00043524263EB040387
:1028A0008B4208BF824230BD30B5041E71F1000476
:1028B00004DB4FF00044404264EB0101141E73F14D
:1028C000000405DB1C464FF00043524263EB040357
:1028D000994208BF904230BD064C074D06E0E068C3
:1028E00040F0010394E8070098471034AC42F6D357
:1028F000FFF7AAFB84082100C408210070B58C18DA
:1029000010F8015B15F0070301D110F8013B2A1103
:1029100006D110F8012B03E010F8016B01F8016BF0
:102920005B1EF9D12B0705D40023521E0DD401F8EC
:10293000013BFAE710F8013BCB1A921C03E013F8B5
:10294000015B01F8015B521EF9D5A142D8D30020EA
:1029500070BD00000948C16921F00301C16101682F
:1029600041F008010160016821F00801016004489C
:10297000416E21F0800141667EF6D6BE005001B066
:10298000002001B070B503201749096841F38001A8
:10299000491C164D00290CD113490C310968C1F3AB
:1029A000000131B110498C39096801F007018843F1
:1029B00003D02869401C286170BD0D4C206820F0B0
:1029C00001002060206840F00400206009494FF4B5
:1029D0000030086003F048F9E868401CE8602068AF
:1029E00040F00100206070BDD4A40040248000208D
:1029F00088E2004084E200E005280CD2064A116813
:102A000001F4E021B1EB004F05D0116821F4E02181
:102A100041EA00401060704700A000400249096888
:102A200001F007010170704700A0004070B5044636
:102A3000072C20D2104E306800F00700A04214D0BE
:102A4000032007F047FCF06820F0070545F001007F
:102A5000F06000BF00BF00BF00BF204607F03AFC97
:102A6000064850F824002843F060044804491C3804
:102A700050F82400086070BD00A00040340121001F
:102A8000600300200248016841F470010160704752
:102A900088ED00E002480068001D06F0CFBB000092
:102AA000048A002002484068001D06F0C7BB0000F1
:102AB000048A002002488068001D06F0BFBB0000A9
:102AC000048A00200248C068001D06F0B7BB000061
:102AD000048A002002480069001D06F0AFBB000018
:102AE000048A002002484069001D06F0A7BB0000D0
:102AF000048A00200FB4054B10B503A9044A0298BC
:102B000000F0A8FC10BC5DF814FB00007967200001
:102B1000787D00200FB41CB50246002007AC0029C8
:102B20000BD0491ECDE90021054B6A462146069887
:102B300000F090FC009A002111701CBC5DF814FBA1
:102B4000833B20000FB4084B10B504A902AA0398D8
:102B500000F080FC044602A9002001F01DF8204688
:102B600010BC5DF814FB0000993B20007CB50446C6
:102B700000201D46164600290BD0491ECDE9004114
:102B8000044B6A462946304600F064FC009A002156
:102B900011707CBD833B2000002809DB00F01F0280
:102BA000012191404009800000F1E020C0F880122E
:102BB000704700280DDB00F01F0201219140400901
:102BC000800000F1E020C0F88011BFF34F8FBFF309
:102BD0006F8F7047002809DB00F01F020121914030
:102BE0004009800000F1E020C0F800117047002883
:102BF00009DB00F01F02012191404009800000F133
:102C0000E020C0F80011704700280FDB410989005F
:102C100001F1E021D1F8001100F01F0201209040E5
:102C2000014201D00120704700207047002070470A
:102C3000002804DB00F1E02090F80004704700F069
:102C40000F0000F1E02090F8140D7047002804DB1D
:102C500000F1E02090F80004704700F00F0000F150
:102C6000E02090F8140D7047002804DB00F1E0200C
:102C700090F80004704700F00F0000F1E02090F899
:102C8000140D7047002804DB00F1E02090F80004E8
:102C9000704700F00F0000F1E02090F8140D70472D
:102CA00002480068C0F30220704700000CED00E00D
:102CB00002480068C0F30220704700000CED00E0FD
:102CC000EFF31080704700002DE9F0412DED020B6D
:102CD0009FED3D0B2DED028B9FED3D8BDDE9025409
:102CE000C4F30A50A0F2FF36142E37DA002E18DA99
:102CF00053EC102B9DED020B51EC100BFFF7A0FADB
:102D000053EC182BFFF7D0FD57D2002CBCBF4FF06F
:102D10000044002551DB54EA050018BF2E4C1BD19E
:102D20004BE02E4820FA06F704EA070028431FD09C
:102D300053EC102B9DED020B51EC100BFFF780FABA
:102D400053EC182BFFF7B0FD37D2002C03DD4FF406
:102D50008010F0400444BC4300252EE0332E07DCF5
:102D6000A6F114004FF0FF3121FA00F73D4206D1E1
:102D70009DED020BBDEC028B02B0BDE8F08153EC7F
:102D8000102B9DED020B51EC100BFFF7FDFA53ECED
:102D9000182BFFF789FD10D2002C0DDD142E08BF73
:102DA000641C09D0C6F13400012101FA00F0284466
:102DB000A84238BF641C0546BD43CDE902549DEDD1
:102DC000020BD7E7000000009C7500883CE4377ECA
:102DD00000000000000000000000F03FFFFF0F00B7
:102DE00010B52DED020B2DED088B84B09DED0C0B75
:102DF00051EC100BFFF7E4FC41EC180B9DED0C0BB4
:102E000053EC182B51EC100BFFF7BBFA41EC190BEC
:102E10000D989FED290B10F0004F53EC102B51EC47
:102E2000190B9FED21AB9FED22BB0ED0FFF724FDC8
:102E30000ED953EC1B2B51EC190BFFF735FD1CD2AF
:102E400014E000BF41EC180B17E0FFF715FD06D2A8
:102E500053EC1A2B51EC180BFFF793FAF2E753ECF3
:102E60001B2B51EC190BFFF71FFD06D853EC1A2B47
:102E700051EC180BFFF7E4F9E4E78DED028B9DEDC3
:102E80000C0B18EE901A10EE900A8DED000B61F30A
:102E90001E0003909DED020B04B0BDEC088B02B048
:102EA00010BD000000000000000000000000F03F26
:102EB000000000000000E03F000000000000E0BF54
:102EC00002E008C8121F08C1002AFAD1704700208A
:102ED00001E001C1121F002AFBD1704780F3108866
:102EE000704700002DE9F74F07460298DFF888A1E8
:102EF000DFF888814FEA500B5C46019D6048CAF8B4
:102F000000003F20D8F8041060F30501C8F8041051
:102F1000D8F8040020F48030C8F80400DAF8000083
:102F200020F4700040EA0750CAF80000DAF8000008
:102F300020F4702040EA0740CAF800000D2F05D1A8
:102F4000DAF8000040F40040CAF800000E2F05D166
:102F5000DAF8000040F48040CAF80000DAF8000017
:102F600040F40050CAF80000DAF8000020F0605089
:102F7000CAF80000DAF8000020F00F0040F003006B
:102F8000CAF80000002000F0CFF8012871D1DAF86B
:102F9000000040F08040CAF80000002008E0D8F8A7
:102FA000081041F48031C8F80810401C411C05D0BD
:102FB000D8F80810C1F300210029F0D1072000F053
:102FC000B3F8012855D141E000264FF47A7924E086
:102FD0004E451ED9DAF8000020F08040CAF8000003
:102FE000DAF8000040F00040CAF80000DAF800000B
:102FF00020F00040CAF80000002000F095F80128F9
:1030000037D12049086A401C086205200CF6FEFAF8
:1030100072E701200CF6FAFA761CD8F80800C0F323
:1030200000200028D4D0D8F8080000F07F02A24287
:1030300000D92246002006E0D8F800102980090CAB
:1030400069802D1D401C9042F6D3A41A002CBBD1E0
:103050000298C00708D0D8F80800C0F30020002864
:10306000F9D0D8F800002880BDE8FE4F002000F01D
:103070005BB8BDE8FE8F000000A8004000E0004003
:103080000A070807248000202DE9F041044615486E
:103090000021C0F8941001214161134D686A134E5C
:1030A000F06200F0010149420140C80512D440F22B
:1030B000011704E044B1641E01200CF6A7FAA869C8
:1030C000B84204D1012003E00020BDE8F0810020D7
:1030D0000028EFD00648006870626868B06201207E
:1030E000F3E7000000D01D4200E0004024800020F3
:1030F00000A8004009480A49826A4A60094B426AAE
:103100001A60808D00F0010252420240D00503D4C3
:10311000086A20F001000862704700002480002047
:1031200000E0004000A800402DE9F0410546114FA5
:10313000F868C0F30240A84202D10120BDE8F08146
:10314000F86820F007002843F86000244FF6FF7667
:10315000F868C0F30240A84205D001200CF656FAE8
:10316000641CB442F4D3B44201D10020E6E701204C
:10317000E4E7000000E000402DE9FF5F82B000219D
:10318000DDE90430020DDDF840B0034318D044F609
:103190001050A2F2FF3242431514119801281FD09B
:1031A000A5EB0B00401C5FEA000A4FF000064E4FF3
:1031B000DFF83891B046504615D5CAF1000413E047
:1031C000119801244AA3012801D16FEA0B0102984A
:1031D000119AC0E90031C0E9024206B0BDE8F09F93
:1031E000CBF10000DFE704460021404A491842EBDA
:1031F0000450CDE9001012E0E00707D032463B460C
:1032000040464946FFF7C3F88046894632463B466A
:1032100010461946FFF7BBF806460F466410002C0F
:10322000EAD1DDE90401DDE90023BAF1000F06DA95
:10323000FFF7ADF842464B46FFF7A9F805E0FFF768
:1032400018F942464B46FFF714F904460E46002291
:10325000284BFFF729FB03D84FF0FF30014607E06A
:103260000022254B20463146FEF7EAFFFFF7ECFA35
:10327000102409E0002C0ADB0A220023FFF7AAF938
:10328000039B30321A55641E50EA0102F2D1641CCD
:10329000039AC4F111031444119A012A03D00122A4
:1032A00008430DD10AE0084304D000204FF0110B71
:1032B000119072E7A3EB0B056D1E0DE05B4504DD7D
:1032C0004FF0000205F1010504E003DA4FF00002BF
:1032D000A5F10105002AECD002981199C0E902314C
:1032E000C0E9004579E70000000014400000F03F0D
:1032F000300000000000F0430000E03FF0B506465B
:103300002DED068B89B00D469FED459B202101A830
:10331000FEF7DFFEB0EE498AF0EE698A4248C08BC4
:10332000FEF714FF9FED411B53EC112BFFF7A1F8A3
:1033300041EC1A0B102201A93046FFF7D3FD0024FF
:1033400001AF04F1080037F81000FEF7FFFE53EC60
:10335000182BFEF775FF41EC180B641CE4B2082C27
:10336000EFD351EC180B9FED330B53EC102BFFF701
:103370000EF841EC180B0D2E02D00E2E29D046E08F
:103380009FED2E0B51EC100B81F0004141EC190B1D
:103390006888FEF7DBFE53EC192BFEF7F8FF41ECD3
:1033A000190B2888FEF7D2FE53EC182BFEF7ECFF22
:1033B00053EC192BFFF75DF89FED221B53EC112BFB
:1033C000FFF757F853EC1A2BFEF73AFF41EC190BB5
:1033D0001DE09FED1E0B51EC100B81F0004141EC04
:1033E000190B6888FEF7B2FE41EC1A0BA888FEF7AD
:1033F000ADFE53EC182BFEF7C7FF53EC1A2BFFF76B
:1034000038F853EC192BFEF7C2FF41EC190B09B049
:10341000B0EE490AF0EE690ABDEC068BF0BD000083
:103420000000000000000000B04500200000000087
:1034300000005940000000000000C03F00000000F4
:103440000000004079E9263108AC5CBFB76DDBB6FF
:103450006DDB0E402DE9FF4F95B09B468946064631
:1034600000250FE2252877D100242746F84A0121BC
:10347000059400E0044316F8013F203B01FA03F0F5
:103480001042F7D130782A2811D06FF02F0330780E
:10349000A0F13002092A16D8059A44F0020402EB82
:1034A000820203EB42021044761C0590EFE759F8C4
:1034B000042B0592002A03DA504244F4005405908C
:1034C00044F00204761C30782E2816D116F8010F2D
:1034D00044F004042A280DD06FF02F023078A0F1B8
:1034E0003003092B09D807EB870302EB4303C71806
:1034F000761CF3E759F8047B761C30786C280FD0E3
:1035000006DC4C2817D068280DD06A2814D104E0B6
:10351000742810D07A280FD10DE044F400140AE08A
:1035200044F4801401E044F440147278824202D1E1
:1035300004F58014761C761C307866280BD013DCDA
:10354000582877D009DC002875D04528F6D04628C1
:10355000F4D047281AD19DE118E0632835D06428BB
:1035600079D0652812D195E1702873D008DC6728DE
:10357000F1D069286FD06E280DD06F2806D1B5E044
:1035800073282CD0752875D0782874D05A4617998E
:1035900090476D1C75E1C4F30250022809D003283E
:1035A0000DD0D9F8001004280DD00D6009F10409E0
:1035B00067E1D9F80010EA17C1E90052F6E7D9F837
:1035C00000100D80F2E70D70F0E719F8041B8DF87C
:1035D000001000208DF80100EA46012003E059F8B0
:1035E00004AB4FF0FF3061074FF0000102D40DE053
:1035F00008F101018846B9420FDA8045F8DB1AF874
:1036000008100029F4D108E008F101018846814240
:10361000FADB1AF808100029F6D105985B46A0EBF2
:10362000080721463846179A00F094FA284400EB20
:10363000080507E04DE029E10DE01AF8010B5A46B4
:1036400017999047B8F10108F7D25B4621463846F2
:10365000179A13E142E00A220092C4F302524FF09B
:10366000000A022A08D059F804CB032A4FEAEC7169
:103670000AD00DE029E02AE009F1070121F0070254
:10368000F2E802C1914609E00FFA8CFC4FEAEC71B6
:10369000042A03D14FFA8CFC4FEAEC71002907DAB7
:1036A0000A460021DCF1000C61EB02012D2202E050
:1036B000220504D52B228DF80420012203E0E20725
:1036C00001D02022F7E7904659E00A2102E01022BB
:1036D0000DE010214FF0000A00910BE010224FF096
:1036E000000A44F004040827009203E008224FF087
:1036F000000A0092C4F30252022A05D059F804CB02
:103700000021032A08D009E009F1070121F007028E
:10371000F2E802C1914605E01FFA8CFC042A01D1AF
:103720000CF0FF0C4FF00008220728D5702806D0B7
:10373000009B83F0100353EA0A0305D00EE04022F9
:103740008DF80420012208E05CEA010206D0302254
:103750008DF804208DF8050002229046009B83F02E
:10376000080353EA0A030AD15CEA010201D16207A5
:1037700005D530228DF804204FF001087F1E58280F
:1037800004D034A003900EA802900DE036A0F9E713
:1037900053466046009AFEF71DFF84460398825CFC
:1037A0000298401E029002705CEA0100F0D102987B
:1037B00006A9081A00F1200A600702D524F4803413
:1037C00000E00127574502DDA7EB0A0000E00020DA
:1037D00000EB0A01009005984144401A0590E0036F
:1037E00006D45B462146179A059800F0B3F90544C4
:1037F000002706E001A85A46C05D179990476D1C46
:103800007F1C4745F6DBE0030CD55B462146179A43
:10381000059800F09FF9054404E030205A461799B6
:1038200090476D1C0099481E00900029F5DC08E0C7
:10383000029802995A460078491C029117999047BC
:103840006D1CBAF10001AAF1010AF1DC65E100008A
:103850000928010030313233343536373839616266
:10386000636465660000000030313233343536372A
:1038700038394142434445460000000000F058F901
:103880000544761C307800287FF4ECAD19B028464A
:10389000BDE8F08F620700D4062709F1070222F085
:1038A000070CFCE80223E14603F000485FEA080C3D
:1038B00002D00FF2702C0DE05FEA045C02D50FF22B
:1038C000682C07E05FEAC47C02D00FF2602C01E0B4
:1038D000AFF2700C4FF0FF3823F00043CDF850C02A
:1038E00065280CD006DC452809D046281DD047287D
:1038F0003DD13DE0662818D067287ED138E0002110
:10390000112F01DB112000E0781CCDE9000106A990
:103910000EA8FFF731FCDDE90F010E9A039100219B
:10392000009207F1010A04914DE04FF0004000972A
:10393000CDE9011006A90EA8FFF71EFCDDE90F0274
:1039400003920E9B11990022DDF80CA000930492C3
:1039500011B9791C00EB010AB7EB0A0004D4C0F1DD
:10396000FF3007F1010A0490AAEB0700019044E040
:10397000012F00DA01270021112F01DD112000E0C5
:103980003846CDE9000106A90EA8FFF7F5FBDDE9F1
:103990000F010E9A0391002104910092BA4621076B
:1039A0000CD40399514500DA8A46BAF1010F05DDBE
:1039B000009AAAF10101515C302908D0B84202DA1C
:1039C00010F1040F06DA0121CDE9011015E0AAF18A
:1039D0000101E9E7002805DC049901440491AAEB00
:1039E000000102E0411C514500DD8A460499401A5D
:1039F000401C01904FF000400290200704D4019831
:103A0000504501DBCDF8048000208DF84F0002986E
:103A10000DF14F07B0F1004F25D02B200E900298EA
:103A20004FF0020800280CDA404202902D200E9040
:103A300007E00A210298FEF7B7FD3031029007F83F
:103A4000011DB8F10001A8F10108F2DC029800287C
:103A5000EFD1791E0E980870307800F0200040F009
:103A6000450007F8020D12A8C01B00F107081498C2
:103A7000007800B1012000EB0A01019801EBE07130
:103A800005984144401A401E0590E00306D45B4669
:103A90002146179A059800F05DF8054414980078BF
:103AA00018B15A46179990476D1CE00324D55B4620
:103AB0002146179A059800F04DF805441CE004983B
:103AC000002807DBDDE90301884203DD0098405C44
:103AD000179901E0179930205A469047049805F14C
:103AE0000105401C04900198401E019004D12E2035
:103AF0005A46179990476D1CBAF10001AAF1010AC4
:103B0000DDDC05E017F8010B5A46179990476D1C4C
:103B1000B8F10001A8F10108F4DC5B462146179AD0
:103B20000598ABE62D0000002B00000020000000EF
:103B30002DE9F041044600251E461746880404D4AA
:103B400005E039462020B0476D1C641EF9D5284693
:103B5000BDE8F0812DE9F041044600251E4690465F
:103B6000C80301D5302700E02027880404D505E0EC
:103B700041463846B0476D1C641EF9D52846BDE85D
:103B8000F0814A68002A06D00A68531C0B60107046
:103B90004868401E486070470A68531C0B601070EC
:103BA000704710B501F084FF10BD08F0BDBD70B5C1
:103BB00004460D46294620460BF05CFA294620466D
:103BC00007F096FF2946204608F0BEF870BD0000B9
:103BD00003490A6822F4C06242EA40200860704744
:103BE00004A8004006460F46154672B63846FEF752
:103BF0007BFA402801D9402002E03846FEF774FAEB
:103C000080463046FEF770FA402801D9402002E095
:103C10003046FEF769FA04469C211048FEF759FA2F
:103C2000424639460D48FEF73BFA0C4822463146DB
:103C30005C30FEF735FA09484FF0AA31016445645B
:103C40004FF0BB3181644FF0CC3101654FF0DD3175
:103C50008165002000F004F8FEE70000808A002063
:103C600030B5ADF20C4D04464FF4806103A8FEF769
:103C700030FA184D202085F83F0085F89B003CB1B4
:103C80002846012C436DC26C09D0022C0CD00FE0E9
:103C9000104A11A15C3203A8FEF754FF08E011A1FD
:103CA00003A8FEF74FFF03E016A103A8FEF74AFFA3
:103CB00003A90BA2686CCDE90121009018A3054A65
:103CC00018A1002000F058FB00F022FB0DF20C4D73
:103CD00030BD0000808A00205B4552524F525D206B
:103CE000257300005B5741524E494E475D2050619D
:103CF00072616D303A25642C506172616D313A25E4
:103D0000640000005B504152414D5D205061726182
:103D10006D303A25642C506172616D313A25640032
:103D2000000000006170705F6173736572742E63D0
:103D300000000000014895F6B3BD00005C7D002046
:103D400006460F4690461D4672B64046FEF7CCF931
:103D5000402801D9402002E04046FEF7C5F904465C
:103D60009C210D48FEF7B5F9224641460A48FEF768
:103D700097F909484FF05531016445644FF06631B9
:103D80008164C6644FF0773101654765C943816539
:103D90000220FFF765FFFEE7808A00202DE9F04151
:103DA00006460F4690461D464046FEF79DF94028C0
:103DB00001D9402002E04046FEF796F904469C21D6
:103DC0000D48FEF786F9224641460B48FEF768F992
:103DD00009484FF011310164456449008164C664AB
:103DE0004FF03331016547654FF044318165BDE8DF
:103DF000F0410120FFF734BF808A002010B588B061
:103E0000817AC27A037B447BCDE90443CDE9062164
:103E1000817BC07B06A2DD23CDE90032CDE9020122
:103E2000114B12A217A1022000F0A6FA08B010BD93
:103E3000436F6E6E6563746564207769746820747F
:103E40006865207065657220253032583A25303219
:103E5000583A253032583A253032583A25303258BF
:103E60003A253032582E00006C0021002E2E5C5373
:103E700072635C757365725C757365725F61707097
:103E80002E6300004E4F5F544147000010B586B0CE
:103E9000044610A2D423CDE900320291134B14A2A0
:103EA00019A1022000F068FA0BF06EF918492046BB
:103EB0007EF6D4FF0446002C0AD014220B491C3194
:103EC00001A8FEF7EDF8ADF8084001A800F0E4F80D
:103ED00006B010BD446973636F6E6E65637465648C
:103EE0002028307825303258292E00003C0021004F
:103EF0002E2E5C5372635C757365725C75736572AC
:103F00005F6170702E6300004E4F5F5441470000A8
:103F1000C87D00200C2801D30020704700EBC000B2
:103F2000054900EB400011F820201AB101EB800098
:103F3000001D704700207047488300202DE9F05F86
:103F40000546894600244FF0FF3846464FF0010AE7
:103F5000002D16D0474903200AF022FB46492320B2
:103F60000AF01EFB287970B101280CD002280AD073
:103F7000032808D0042806D0052804D04046BDE810
:103F8000F09FE520FBE7EFF31083012181F3108818
:103F90003A4F04EBC40101EB410117F8212052B163
:103FA00007EB8102D5F800B0D2F804C0DC4514D18B
:103FB000127A824211D104EBC40000EB400207EBFD
:103FC0008202384692F83120022A04D026B2012219
:103FD00000F8212004E00C2402E0641C0C2CD8D34F
:103FE00083F310880C2C3FD200220321244808F0D0
:103FF000B9FC04EBC40000EB400007EB8004296827
:1040000061602879207204F10C00242205F1080176
:10401000FEF746F81B48A0631B4820641B48E0637A
:1040200000206064C4F868901949606888420AD129
:104030000320FEF7E9FD98B9032023F6ABF903202E
:1040400023F6C6F90CE01349884209D12320FEF774
:10405000DBFD28B9232023F69DF9232023F6B8F9A8
:10406000201D04F03FFE8246BAF1000F00D0464604
:10407000304684E7B1611000E16110004883002000
:1040800008FC2000C15D2000315D2000E15C2000C3
:104090000090014000A001403EB504464FF400717D
:1040A0001A48FEF716F8207810B1012819D01DE043
:1040B00000211748A28830F831309A4207D100EB2E
:1040C000C10014A143681148FEF73CFD0EE02E2903
:1040D00002D0491CC9B2EEE714A10C48FEF732FD2C
:1040E00004E01DA109486268FEF72CFD074921A2E2
:1040F0002069CDE901210090D4E902231EA100200E
:1041000000F03AF9BDE83E4000F002B91C8B0020F7
:104110004CFD20004572726F7220636F6465203021
:1041200078253034583A2025730000004572726FAC
:104130007220636F6465203078253034583A204E01
:104140006F20666F756E6420696E666F726D617444
:10415000696F6E2E000000002825732920697320E6
:104160006E6F742065737461626C69736865642E28
:1041700000000000257300006170705F6572726F4F
:10418000722E630070B58EB005460C46474991E823
:104190004D00CDE90A02CDE90C36D1E905230869C5
:1041A00006AEC9690DC6099114224049203101A803
:1041B000FDF776FFD4B13E4906200AF0F1F93D49FA
:1041C00007200AF0EDF93C491B200AF0E9F93B49C8
:1041D00012200AF0E5F935493C39A1F12C02052DF0
:1041E00061D2DFE805F0060606213900E5200EB0B1
:1041F00070BD207931F810000B90607932F8100012
:104200000C90A0790D9020680A902848543850F8F6
:10421000350021880904090C04D018B10AA904F05A
:104220000DFF39E0E420E2E7207901EB4000808ACD
:104230000790607902EB4000C0880890A07909904F
:1042400020680690207810F0FF0F03D006A804F035
:10425000F7FC21E0E420CAE72079031F042B01D8F2
:10426000E720C4E7022819D001200290207901EB51
:104270004000008D0390607902EB4000808904903B
:10428000A079059020680190207810F0FF0F08D0E9
:1042900001A9002004F0E2FE0020A8E7022002901D
:1042A000E4E7E420A3E7E620A1E7000078FC200093
:1042B000916210008B621000876210008162100012
:1042C00000B587B003208DF800001D208DF8160082
:1042D00001208DF817008DF818008DF81900044A98
:1042E0000449684600F01CF8FFF724FD07B000BD44
:1042F00021B92000AFF42000002806D0002904D006
:10430000024AD269002A00D0104770471C8E002054
:104310000248006A002800D0004770471C8E002029
:1043200070B50D4616460D4C00280AD001780329B9
:1043300011D80121A17601461A222046FDF7B0FED0
:1043400005E00020A0761A210448FDF7C2FEE561D1
:104350002662002070BD012070BD00001C8E002070
:10436000044A1044807D084201D00120704700209B
:10437000704700001C8E00202DE9FE4FDDF830B0A4
:1043800006469246994600240027019702975A480C
:104390000178B14202D2807E00287DD10DF138082B
:1043A000CDF80080EFF311850220FEF74FFC0146A7
:1043B00052480068C0F30220401C01228240881845
:1043C000C0B280F3118801213046FFF7C9FF38B130
:1043D0004B484C4950F82620204600F0A5F80446EA
:1043E0001C213046FFF7BCFF00285ED046A245499D
:1043F000204600F099F8204484B204213046FFF7AB
:10440000AFFFF8B152463F49204600F08DF82044F6
:1044100084B208213046FFF7A3FF38B13BA23949E7
:10442000204600F081F8204484B20BE01021304691
:10443000FFF796FF30B136A23249204600F074F8FB
:10444000204484B208213046FFF78AFF90B14A46E3
:104450002C49204600F068F8204484B210213046F0
:10446000FFF77EFF30B12BA22649204600F05CF812
:10447000204484B210213046FFF772FF70B15B46D2
:1044800026A2052101A8FEF745FB01AA1D492046E9
:1044900000F04AF8204400E02BE084B220A2194941
:1044A000204600F041F8204484B21648C4F58071DB
:1044B000204443460D9AFEF759FB00974FF4807154
:1044C000002804DB2044884201DC86B200E00E466E
:1044D000B01C884200D9FE2612A20A49304600F0DC
:1044E00023F8304481B20748FFF706FFE8B280F3B3
:1044F0001188BDE8FE8F00001C8E00200CED00E04E
:10450000687D00201C8D0020280000002000000095
:104510003A000000204C696E653A0000256C64008A
:10452000292000000D0A000030B5054600200029B2
:104530000CD0002A0AD006E02B18FF2B06D8CC544A
:10454000521C401C80B21478002CF5D130BD000004
:1045500010B5074A06214CF2010092F6F7F80AF06E
:10456000FDFEFFF7ADFEBDE81040002008F0C2B927
:1045700094FF200010B50848017800290AD10121D4
:104580000170064892F6F6FFBDE81040002104488D
:1045900093F686B910BD0000487D0020A56210008A
:1045A0003DC820002DE9F04104460D461746002D78
:1045B00004D0012D02D00120BDE8F081CCB1C7B1FB
:1045C000EFF311860220FEF733FB8046FEF768FB0F
:1045D000401C0121814008EB0100C0B280F311882A
:1045E00000206070A570E761F0B280F311880020B0
:1045F000E2E70120E0E710B50446002C0CD020468D
:1046000000F02EF9FF2060700021A160E1602161BF
:1046100061610020E06110BD012010BDF0B5DDE951
:104620000745059981614FF47A76A2FB061C03FBCE
:1046300006C3002702FB0732C0E9021209196A41CA
:10464000C0E9041200210162F0BD00002DE9F04133
:104650000446002C13D0EFF311850220FEF7E8FA90
:104660000746FEF71DFB401C012606FA00F0384401
:10467000C0B280F311881248002121620EE00020B0
:10468000BDE8F081D4E90432D1E9047CDB1B72EB94
:104690000C0202D2016A216203E00846016A002985
:1046A000F0D104626670064810380168491C016048
:1046B000016B4160E8B280F311880120E0E700005F
:1046C000588A00202DE9F04105460024EFF31186B9
:1046D0000220FEF7ADFA0746FEF7E2FA401C012180
:1046E00081407818C0B280F31188134A106BE8B18A
:1046F00015B102F1100010E00446206A1063106842
:10470000401E10600CE0A94206D11168491E1160DC
:10471000296A01622C4603E00846016A0029F2D1A9
:1047200024B1002020626070106B5060F0B280F302
:1047300011882046BDE8F081488A00202DE9FF5FFE
:1047400082460E4693464FF00008BAF1000F20D083
:10475000414886421DD8E6B1EFF311870220FEF7EB
:1047600067FA0446FEF79CFA401C0121814060185C
:10477000C0B280F31188504605F09EFB10B19AF844
:10478000010040B1F8B280F311880F2004B0BDE8F9
:10479000F09F0120FAE707F0C7F804460D464FF4F2
:1047A0007A7106FB01F022462B46002105F048FAFB
:1047B000DFF8A890B0B1D9F8040048B1D0E90410EE
:1047C000091B60EB0500C9E9021007F027F904E0B6
:1047D0000021C9F80810C9F80C104FF00108D9E9F8
:1047E000020106E0D9F80400D0E90421101B61EBB6
:1047F0000501CDE9020132460023CDF800B0504654
:10480000FFF70CFF5046FFF721FF09F035FE4FF090
:10481000E021D1F800014FF0806210F0806F01D0EC
:10482000012000E0002018B9C1F88022C1F8002161
:10483000B8F1000F0AD0D9F80400D0E90431D9E961
:104840000202181A61EB020107F0A4F8F8B280F333
:10485000118800209AE70000008AB907488A0020E2
:104860002DE9F04104460025002C39D0EFF31187E3
:104870000220FEF7DDF90646FEF712FA401C012180
:1048800081407018C0B280F311886078012824D16B
:10489000144E7068A0420BD107F046F8D4E90432F8
:1048A000181A62EB0102C6E9020207F0B7F8012507
:1048B0002046FFF707FF5DB1706848B1D0E90421D9
:1048C000D6E90203101A61EB030107F063F804E074
:1048D0001DB9706808B907F0A1F8F8B280F3118823
:1048E000BDE8F081488A002010B5044611482278BE
:1048F0004FF0FF3150F82220A2F86810227850F8CB
:104900002200A0F86A10606B002801D1A16B71B180
:1049100020B1204600F070F8002807D1A06B20B12C
:10492000204600F009F8002800D1002010BDE42046
:1049300010BD0000048A002030B58BB004462C2145
:104940006846FDF7C6FBA06B009094F83D008DF81B
:1049500004002548009B2549254A834205D1237838
:1049600001EB03114968029107E0009B934204D1D7
:10497000237801EB0311C9680291029929B10099CA
:10498000814205D10B20039007E0E7200BB030BD3A
:104990000098904201D1092003904FF40010049038
:1049A000C0120590002006900790089009904020C2
:1049B0000A9000216846FFF7C1FA21780D4D55F89D
:1049C0002110A1F86A00002801DAE420DEE7FFF7F1
:1049D000A1FA217855F821104863217855F8211063
:1049E000091D01630020D1E700900140ECFC20008C
:1049F00000A00140048A002030B58BB004462C2171
:104A00006846FDF766FB606B009094F83C008DF8FB
:104A100004002548009A2549824202D10B220292C5
:104A200004E0009A8A4201D109220292009B204AA6
:104A3000834205D1207802EB00100068039007E064
:104A40000098884204D1207802EB0010806803901F
:104A50000398D0B14FF480100490002005904FF4DB
:104A6000807106910790089009900A90002168468D
:104A7000FFF764FA21780F4D55F82110A1F868006E
:104A8000002804DAE4200BB030BDE720FBE7FFF795
:104A900041FA217855F821100863217855F8211042
:104AA000091D01630020EEE70090014000A00140D5
:104AB000ECFC2000048A002070B5047800280BD09C
:104AC0000F4E56F8241049B191F86C2032B191F88C
:104AD0006D1029B1EA2070BDE52070BDE92070BDE0
:104AE000EFF31085012181F31088FFF7FDFE20B957
:104AF00056F82420012182F86D1085F3108870BDCE
:104B0000048A002070B5062801D3E82070BD134C3C
:104B100054F820304BB193F86C5035B139B132B103
:104B200093F80351012D04D010E0E52070BDE4207E
:104B300070BD002583F8035154F820305B680225CE
:104B4000C3F8885054F820305B681B6854F8200084
:104B5000001D04F0D1FB0028EAD170BD048A0020BA
:104B600070B504461A4D55F82400703008F025FF42
:104B700082B21646A2B155F8240090F8011101291D
:104B80000ED0012180F80411802A0FD355F824009B
:104B9000802200F18001703008F024FF80260CE0B4
:104BA00055F82410002081F8000170BD55F824004C
:104BB00000F18001703008F015FF55F824003246EE
:104BC00000F18001001D2CF61FFB0028EDD170BD07
:104BD000048A002070B50446062C01D3E82070BD7D
:104BE000184D55F8240090B190F86C307BB181B12C
:104BF0007AB1002680F8026155F82400703008F080
:104C00004DFF55F8240090F8001121B10AE0E5208D
:104C100070BDE42070BD90F8011119B990F86C10C6
:104C2000012901D0E22070BD012180F80011204649
:104C3000FFF796FF20B155F8241081F8006170BD90
:104C4000002070BD048A00202DE9F84304464B4E35
:104C500056F82400071D062C7ED290F86C1000290F
:104C60007AD0012978D180F80111002556F8240066
:104C7000D0E903120A44017D01F00101C91D02EBD4
:104C800001084168CA6FC2F38002002AFAD090F886
:104C90000411E1B1DFF8E8906D1C56F82400001D06
:104CA0002BF60EFF10280BD056F82400D9F8001070
:104CB0008068B1FBF0F000FB08F0B5EBC01FEBD94A
:104CC00056F82400703008F078FE85B226E0B0F87F
:104CD0002480C58C001D2BF611FD56F8240041F2EE
:104CE000883300EB0801491B8031001D2A462CF651
:104CF00038FAE5E756F8240001227030694608F0DA
:104D000071FE56F824004068C16FC1F340010029CC
:104D1000FAD09DF8001001606D1EADB2002DE9D1F2
:104D200056F82400703008F048FE0028C8D13868D2
:104D300041694906FCD5EFF31085012080F3108806
:104D400056F82400703008F038FE68B1EFF3108197
:104D5000012080F3108800E00DE03868426842F0DE
:104D60008202426081F3108856F82410002081F8F6
:104D7000010185F31088BDE8F8830000048A002053
:104D8000600300202DE9F04105460F462C78002DE8
:104D900005D022B1062C04D3E820BDE8F081E5203F
:104DA000FBE7384E05F1580046F82400D2E90031FF
:104DB0000A467030194608F0E1FD291D286D0AF0F9
:104DC00085FA0028E9D156F82410281D486656F8BF
:104DD0002400076056F824001822083005F140012D
:104DE000FDF75EF9284856F8241000EBC405686802
:104DF000486056F82400001D04F0F8F956F8240025
:104E0000001D04F00FFA204801220321103807F09A
:104E1000A9FD56F82410012081F86C0056F82410E2
:104E2000002081F8000156F8241081F8010156F89D
:104E3000241081F8020156F8241081F80301134967
:104E40000C2009F0ADFB12490D2009F0A9FB114916
:104E5000342009F0A5FB1049352009F0A1FB0F49CA
:104E6000362009F09DFB0E49372009F099FB95F992
:104E7000010022F68FFA95F9010022F6A9FA002026
:104E80008BE70000048A0020BCFC2000952A20004B
:104E9000A52A2000B52A2000C52A2000D52A2000F6
:104EA000E52A20002DE9F04104461A4D55F824006A
:104EB000703008F082FD82B2164600277AB155F8AC
:104EC000240090F80111012909D0802A0ED300F1A5
:104ED00080017030802208F085FD80260BE055F8B7
:104EE000240080F800710020BDE8F08100F180010D
:104EF000703008F077FD55F8240080F8047155F8FB
:104F00002400324600F18001001D2CF641FA0028F1
:104F1000EAD1E9E7048A00202DE9F84307460C4668
:104F2000904604F1080520468FF640F90346344EBA
:104F300070680021A7F58042DFF8C8C0B2F5804F45
:104F400003D2DCF80010401A0121E218824202DD8F
:104F50000520BDE8F8833068421EC2F30B02821AB6
:104F600002F6FF72C2F3073211B1DCF8001000E064
:104F70000021DFF894C0DFF89490DCF800C0D9F885
:104F80000090ACEB090C96F80990A2EB09020CEB2F
:104F9000C202101A401A001FE918814229DD0025BB
:104FA0004FF4004911231F2249462846009572F606
:104FB00055FB0021084603F003FA40B113231F22DA
:104FC00049460020009572F649FB0F20C1E7707A30
:104FD00004F074FD0028BCD112231F22494600951D
:104FE00072F63CFB424621463846BDE8F8430AF0DB
:104FF000D1BA424621463846BDE8F8430AF0CABA5B
:1050000090470020B8350020C4350020BC35002072
:105010000948006800280DD090F82E10012909D108
:1050200090F83000FF2805D24FF03041086840F07A
:105030008060086070470000400C002010B586B00A
:10504000044668466FF66EFA9DE80E0003A80EC08F
:105050000B4A891C21F07041516010466FF650FCDC
:1050600007486FF6C1FC207F002806D1054991F85A
:105070000101054A01EB0010426006B010BD0000BE
:105080008C290020A0290020F5B7200002F0EEBBFB
:1050900010B58CB008A809F0FDFCBDF822100998E5
:1050A0009DF82120CDE904109DF8203030A04FF468
:1050B0008971CDE90232CDE90010374B37A23DA10D
:1050C0000220FFF759F90AA87DF692FC044654B174
:1050D000142231490E3103A8FCF7E2FFADF810406D
:1050E00003A8FEF7D9FF9DF828009DF82910CDE907
:1050F00006109DF82A209DF82B30CDE904329DF84A
:105100002C109DF82D002DA240F21713CDE900328E
:10511000CDE90201204B21A226A10220FFF72CF9A4
:1051200031A04FF48F71CDE900101B4B1BA221A1C0
:105130000220FFF721F90AF027F80AF08BF809F0AE
:1051400077F901F09FFF304900207DF687FE044685
:10515000002C0AD014221049223103A8FCF7A0FF2A
:10516000ADF8104003A8FEF797FF0CB010BD00008B
:10517000476F6F64697820424C452053444B20565A
:1051800025642E25642E25642028636F6D6D697457
:105190002025782900000000920021002E2E5C536B
:1051A00072635C757365725C757365725F61707054
:1051B0002E6300004E4F5F54414700004C6F636107
:1051C0006C20426F61726420253032583A253032AB
:1051D000583A253032583A253032583A253032582C
:1051E0003A253032582E0000476F6F646978205599
:1051F000415254206578616D706C652073746172E2
:105200007465642E00000000C87D002000207047F7
:105210000020704710B508F00DFD07F02BFD09F0D8
:10522000C7F90AF049F906F017FA04F051FE08F040
:10523000B9FE08F0BFFE04F0BDFABDE8104008F06A
:10524000EBBC00002DE9F0413D4C6FF00200C4F8CA
:1052500098003C490125280608603B490020086069
:10526000394A1C32106840F002001060106840F0AB
:1052700001001060106820F0020010600B1F186819
:1052800040F001001860186820F0020018602E48F5
:1052900034380168C1F300410029FAD12A4940F2AB
:1052A000AA2638390F6866F301070F600E6826F0EA
:1052B0000C0646F008060E600E6826F0C00646F0A2
:1052C00080060E60204940F2FF3740390E6867F3D0
:1052D00001060E600E6826F00C0646F00C060E6005
:1052E0000E6826F0C00646F0C0060E600560016834
:1052F000C1F300410029FAD1106820F004001060C9
:10530000186820F004001860106840F00400106075
:10531000186840F004001860012009F0CAF904F58B
:105320002074206820F040002060206820F01000E9
:105330002060206820F020002060BDE8F08100009F
:1053400000A0004084E200E0C4A4004010B505F0D5
:105350007DFA05F029FA01F025FE05F015FABDE801
:10536000104005F09BBE00000F49086820F00400C3
:1053700008600D482030026822F0040202600A68CA
:1053800042F002020A600A6822F001020A60016823
:1053900041F001010160016841F002010160016812
:1053A00021F0010101607047C0A4004070B509F010
:1053B00057FB40F21A4120B140F24C4009F0C4F9C9
:1053C00003E040F22E4009F0BFF90D4CA07850B137
:1053D000E08809F0C9F90546208909F0C5F9294690
:1053E00009F004FB05E04FF461714FF47A7009F0A5
:1053F000FDFABDE8704002484A3007F0E5B8000009
:105400002480002010B50446002C0CD0204600F06B
:10541000DDF8002807D104494968002903D0204657
:10542000BDE81040084710BDB47E00200EB50188CD
:1054300040F20233A1F2023299422CD00DDCB1F5D8
:10544000807F15D0A1F50071073915D0FA2921D137
:10545000BDE80E400830FEF7D1BC042A22D0A2F5E8
:105460000072FE3A16D1C088BDE80E400AF048B876
:10547000BDE80E40FFF70CBE408800280AD00DA101
:10548000F522CDE900210290134B14A219A10320AB
:10549000FEF772FF0EBD017A007903B05DF804EBF0
:1054A000FEF7F4BC007903B001215DF804EB7EF651
:1054B00067B90000416476657274696E6720737421
:1054C0006172746564206661696C65642830582572
:1054D000303258292E000000820021002E2E5C530D
:1054E00072635C757365725C757365725F61707011
:1054F0002E6300004E4F5F5441470000044A52F8AB
:10550000200050F84B2F0A60808888807047000088
:105510001419002070B504460E46002C05D00F4823
:1055200086F642FD054615B113E0022070BD142039
:1055300094F6D4FB014671B10C6120680088C880E4
:10554000CE60074A10780871401C1070101D04F0DE
:105550006AFE284670BD102070BD0000E8002100E2
:10556000A07F002000B5AFB0094901200870FF22DC
:10557000B82101A8FCF7A6FD4FF48070ADF8040037
:105580000020ADF8060001A8FFF73CFF2FB000BDDA
:10559000B47E002000214FF03040C1608161C0F82E
:1055A000D011C11741610162C0F8D81103496FF4ED
:1055B000806008600220FDF7EFBA000084A0004080
:1055C0000149002001F0B4B84DA9200010B50446EF
:1055D000002C22D00021228840F20253A2F2025075
:1055E0009A4279D033DC40F20643A2F206409A4256
:1055F0005DD01BDC40F20243A2F202409A424ED040
:105600000DDCA2F54072013A3DD0012A3BD0FF2AC1
:1056100041D0B2F5807F55D13FE0002010BD012878
:105620003FD002283FD003284CD13EE0042846D08A
:1056300006DC01283DD002283DD0032842D13CE0C1
:1056400005283ED0FA2842D0FB283BD144E0082868
:1056500047D007DC082835D2DFE800F0343E3E3E74
:105660003E3E3E430C283CD006DC092839D00A28AF
:1056700037D00B2826D134E00D2832D00E2830D078
:10568000FF281FD132E0204602F03AFD204602F00A
:10569000C3FA002010BD218914E0218912E021897C
:1056A00010E061890EE0218A0CE021890AE061891D
:1056B00008E0A18906E0618904E0A18902E0218A6D
:1056C00000E061892046BDE8104002F0E7BD2046B9
:1056D000BDE8104002F090BC2046BDE8104002F04A
:1056E000F7BB2046BDE8104002F0F0BA204602F0B9
:1056F000E7F9002010BD000070B50446002C1CD056
:105700000225114EF079844210D0304690F90610EF
:10571000ACB10320C91CB1710C490A6800EB9203BB
:105720000A6863F389020A6008F016FAF4710849FE
:10573000086C65F38710086470BD0025E1E76FF021
:105740000200C91EB171E7E7B4810020201101B049
:10575000002001B02DE9F04105460E4614461F46D3
:10576000204600F033F83B46224631462846BDE845
:10577000F04185F61BBA2DE9F04105460E46144668
:105780001F46204600F022F83B4622463146284676
:10579000BDE8F04185F640BC2DE9F04105460E46D6
:1057A00014461F46204600F011F83B46224631467B
:1057B0002846BDE8F04185F697BC0000024908780C
:1057C000FF220A70704700000A82002010B5C0B2A4
:1057D00084F6C8FC01491438087010BD0A82002004
:1057E00010B513210A4807F0DBF805210848983066
:1057F00007F0DCF801210648083807F0CBF8FFF77E
:1058000009FDFFF7A3FDBDE81040FFF73FBC000016
:105810000C78002030B58568027B002D02D0002076
:1058200001210CE0104630BDCB0801F00704EB5C11
:10583000E340DB0701D0401CC0B2491CC9B28A4218
:10584000F2D830BD00230849496808E00A8982423D
:1058500004D84A89824201D3CB6802E00968002952
:10586000F4D1184670470000A07F0020014605488B
:10587000406803E002798A4202D000680028F9D12A
:1058800070470000A07F0020F0B5AFB0204E7078C8
:10589000FFF7ECFF044620000AD02169E088096880
:1058A0000880206982F6F0FB054600271DB124E040
:1058B0000C202FB0F0BD2069FFF7ACFF0146206936
:1058C0000268128822810068008808446081E068CC
:1058D00098B1FF22B82101A8FCF7F4FB40F20C407C
:1058E000ADF80400ADF806702089ADF80C006089B1
:1058F000ADF80E00E16801A888477078401CC0B27E
:1059000070703178884200D17770E8B2D1E700003A
:10591000A07F002010B5084A1378002B01D00F207B
:1059200010BD31B150600448083000F007F8002085
:1059300010BD022010BD0000B47E002070B50446EA
:105940000D46FFF73DFE0849012008F029FE0749F2
:10595000022008F025FEFFF743FF29462046BDE858
:10596000704086F6A7BC00009D1708003D16080091
:1059700010B50A4601460A4808F090F8094801881F
:10598000074808F010F8002809D00021052009F088
:1059900027FC0021BDE81040084603F019B810BDEF
:1059A000AC1A0120CC7D002010B51248016821F00E
:1059B000070141F0040101600A2009F627FE0D48A5
:1059C0008438016821F4807101600121002025F6EE
:1059D000C3F801201AF662FE07490220087008F099
:1059E0005BFD0649322008F0DBFDBDE810403220A7
:1059F000FDF7FDB890A8004024820020EF21200090
:105A000010B519480068C0F30B0017490831096840
:105A100021F07F41401C00EE100ADFED140AB8EEC1
:105A2000400A60EE200A00EE101A1149B8EE400A52
:105A300080EE801AB6EE000A31EE000ABCEEC00A13
:105A400010EE100A486006F083FD09F03FF809489F
:105A5000016841F48071016006488430016821F0DA
:105A60000701016010BD000004E400400024F44B75
:105A7000248200200CA800400A2804D840F66411B3
:105A800001EB40007047242804D840F6661101EB72
:105A900040007047252804D0262805D04FF41B600D
:105AA000704740F66210704740F67A107047000069
:105AB000052110F1190F01DC022110E000F11402A0
:105AC0000F2A01D803210AE00F2801D8042106E09B
:105AD000A0F11402192A02D932280CDB062106484B
:105AE0000268C2F303328A4205D0026822F470428F
:105AF00042EA01310160704714A8004010B500214E
:105B0000084625F629F801201AF6A8FD0248816802
:105B100021F48071816010BD00A0004010B51448D0
:105B20000068C0F30000002807D01148083800685A
:105B3000C0F3000008B108F007FD0E480068C0F38C
:105B4000000038B10B4808380068C0F3000008B105
:105B500000F0CCFC08F086FC002807D003F068FEBB
:105B6000002803D0BDE81040FFF7C8BF10BD0000FB
:105B700008E4004008E5004010B508F005FD00F01D
:105B800061FC10BD10B503F067F806F00FFA06F0DF
:105B9000E1FEBDE8104000F09BB800002DE9FC419B
:105BA00004468846164D4FF6FF76164F12E02968D8
:105BB000082201EB0030694686F62CFE082802D048
:105BC0001020BDE8FC81BDF80000B04208D120786B
:105BD000401C20702078797A8842E8D30020F0E7D2
:105BE00009489DF80010C170BDF8021081809DF831
:105BF000011088F80010217841700020E1E70000D2
:105C0000BC35002090470020C835002010B5124850
:105C1000016821F0004101600F23011D0A6863F350
:105C20001F720A600A6822F4E07242F4C0720A60CD
:105C3000016841F0004101600848016841F001013C
:105C400001600749312008F0ABFC06494FF40030F1
:105C5000C1F8000110BD000004A9004088E2004026
:105C60008529200004E000E0F8B5EFF3108501205D
:105C700080F31088072000906846FCF7CFFE0220D2
:105C8000FCF7D4FE322009F6C1FC0B4C206840F032
:105C900002002060094E708909F6B8FC206820F0E7
:105CA00002002060B08909F6B1FC9DF80000FCF705
:105CB000BDFE85F31088F8BD04A90040888000204F
:105CC00008B500906A460121092084F691F908BDC3
:105CD000024901480860704741721000CC0500205D
:105CE00030B40021114B01EBC10202EB420213F868
:105CF0002240012C15D103EB82020579147AAC42C3
:105D00000FD152680468A2420BD101EBC10000EB35
:105D1000400003EB8000816E002905D030BC0220DA
:105D20000847491C0C29DED330BC7047488300204B
:105D300030B40021114B01EBC10202EB420213F817
:105D40002240012C15D103EB82020579147AAC4272
:105D50000FD152680468A2420BD101EBC10000EBE5
:105D6000400003EB8000816E002905D030BC00208C
:105D70000847491C0C29DED330BC704748830020FB
:105D800070B500240D4E04EBC40000EB400016F883
:105D9000201001290DD106EB80000546001D1BF6E1
:105DA00015F818B1012801D0002070BD281D1BF680
:105DB0008FFD641C0C2CE6D3012070BD48830020AD
:105DC00030B40021114B01EBC10202EB420213F887
:105DD0002240012C15D103EB82020579147AAC42E2
:105DE0000FD152680468A2420BD101EBC10000EB55
:105DF000400003EB8000816E002905D030BC0120FB
:105E00000847491C0C29DED330BC7047488300206A
:105E10000249014808607047016E1000440D0020DF
:105E200010B593F68BFE002800D0FEE710BD0000F1
:105E30000148408B704700007445002000B585B0D4
:105E400000210191029103910491124A537E127E26
:105E50001B0243EA0040104300900191029103911C
:105E600004910120029001A802F0C6FF01A802F0EF
:105E7000CDFF01236A464A2101A803F021F80F2330
:105E8000044A442101A81DF69DF801A802F0B4FFC0
:105E900005B000BD7445002070B506460C46154699
:105EA0006FF4004010EAC43F05D040F24D420AA111
:105EB0000FA001F633FFE80B05D040F24E4206A1D9
:105EC0001AA001F62BFF94204643274845EAC43127
:105ED0003044A0F8661170BD72665F6764785F62D7
:105EE000616C695F62315F70617463682E6300008A
:105EF00028282875696E7431365F7429727877693D
:105F00006465203C3C203135292026207E282875D8
:105F1000696E7431365F7429307830303030383003
:105F200030302929203D3D203000000028282875E8
:105F3000696E7431365F7429727877696E737A206E
:105F40003C3C2030292026207E282875696E74313B
:105F5000365F74293078303030303746464629294C
:105F6000203D3D2030000000008000B00249282282
:105F70000248FCF795B8000008022100008100B03B
:105F800000B500F00BF85DF804EB03F0E1BC000095
:105F900001480078704700003820012030B5084CD7
:105FA000012525706060E2602361A160054880687A
:105FB000884201D2081A00E0401A606130BD00003A
:105FC000382001204082002010B503F09BFC0446DD
:105FD00018210548FCF77DF8034A0021117020467E
:105FE000BDE8104000F046B938200120F0B4044666
:105FF0000E462C482C4FB9680578026244628C42E8
:1060000001D9631A00E00B1BFF689F4206D31346B9
:1060100032462146F0BC0020FFF7B2BF87699F429D
:1060200001D98361C261012D0AD0022D27D0032D31
:1060300036D1134632462146F0BC0020FFF7A0BF00
:1060400044618C4203D90169491EC16002E00169C3
:10605000491C8160D0E90212914209D211444908D9
:1060600001610121017001693046F0BC00F01EB8E9
:106070000221017081683046F0BC00F017B8C16998
:10608000914206D1134632462146F0BC0020FFF76C
:1060900077BF03210170C1693046F0BC00F006B83B
:1060A000F0BC7047E01F012040820020054A936A3F
:1060B0005B1C93628AB2C1B20348044B406803F090
:1060C000C5BB0000E01F012040820020ED5F2000E2
:1060D00070B505460D4C2C212046FBF7FAFF002039
:1060E000A06040F2FF10E060FF2222614FF0FF301D
:1060F000A061A06A401CA062012020700448E9B29F
:10610000044B4068BDE8704003F0A0BBE01F0120D5
:1061100040820020ED5F20002DE9F84307460D4640
:1061200090462E4C207801280BD0022813D008204E
:10613000E06101B043462A463946BDE8F043FFF727
:106140001FBFE76040F2FF1121612846BDE8F84318
:10615000022200F079B8002600966761684600F0D8
:106160003FF870B1012810D002281FD003282DD08D
:106170000720E06143462A463946FFF701FFBDE8A4
:10618000F8832846FFF7A4FFF9E70F2D06D2314622
:10619000A6600122681C00F057F8F0E70520E061D6
:1061A00043462A463946FFF7EBFEE8E735B1A660DD
:1061B00001220021681E00F047F8E0E70620E061B8
:1061C00043462A463946FFF7DBFED8E70098E061F0
:1061D00043462A463946FFF7D3FED0E7C01F0120C9
:1061E00010B5174B17490A698968154CDB68646953
:1061F0008B4203D98C4201D9022010BD8B4203D2BD
:106200008C4201D2012010BD8B4201D95B1A00E003
:10621000CB1A8C4201D9611A00E0091B934203D3C7
:10622000914201D3002010BD934201D2022010BD43
:10623000914201D2012010BD02210160032010BD56
:10624000C01F01204082002030B4074B9C69641CB1
:106250009C6158601A708AB2C1B20448044B40680D
:1062600030BC03F0F3BA0000C01F012040820020C0
:106270001961200070B50546064C20212046FBF729
:1062800028FF0021A1602846BDE870400122FFF7E9
:10629000DBBF0000C01F0120F8B50E461F4C0025D3
:1062A0000095E169491CE1616660A260E1682161D5
:1062B000E0601B498B68834201D2C01A00E0181AC3
:1062C0006169814201D96061A261684600F02AF8E3
:1062D00058B101280ED0022814D0032818D00098F5
:1062E000A062204600F0BFF8F8BDA562204600F08D
:1062F000BAF8F8BD012084F820003046A16900F00A
:1063000077F8F8BDA1683046491C00F071F8F8BD77
:10631000A1683046491E00F06BF8F8BD0C20012042
:10632000408200202DE9F0432F4A304FB968002504
:106330000026D3688B4201D95C1A00E0CC1AFF68B2
:10634000A74202D30020BDE8F083D2F82480B8F140
:10635000010F10D092F82040012C0ED0224CD2F820
:106360001CC04FF00109A769A468C4450BD3A7421C
:1063700005D10020E7E70020E5E70020E3E782F809
:1063800020900120DFE7BCF1010F11D9D2F810C035
:106390008C4501D98B4203D38C4509D28B4207D956
:1063A000A74201D10020CEE782F820900120CAE761
:1063B0008B4201D9012600E0012545B1B4F5FF7FEC
:1063C00003D9092101600420BDE70220BBE736B1F3
:1063D0000CB10320B7E70A2101600420B3E70B21C9
:1063E00001600420AFE700000C2001204082002063
:1063F0008AB2C1B20248034B406803F027BA0000DA
:10640000408200209962200070B504460E46154671
:106410002C210948FBF75DFE074B002183F8201073
:10642000491E59615C620548AAB2F1B24068BDE8F4
:106430007040034B03F00ABA0C2001204082002078
:106440009962200010B503F0E3F900280AD0FFF7A5
:106450009FFD18B1BDE8104000F028B8BDE810401D
:10646000FFF7B2BD10BD00B500F004F85DF804EB15
:1064700003F06EBA0B4901220A71826A8A60C2690E
:10648000CA60C2680A6142684A6182688A61064AD3
:10649000C0689268904201D9801A00E0101AC86161
:1064A0007047000050200120408200202DE9F0417B
:1064B00003F028FA074603F037FA8046094C2668AD
:1064C0000948456920212046FBF703FE761C26601B
:1064D00000202071424639462846BDE8F041FFF7CA
:1064E00093BF0000502001204082002010B50E4CC8
:1064F0002069401C206103F031FAE06003F002FAE9
:10650000606003F011FAA060084A00211160616127
:10651000E3692BB182B22179E068BDE810401847E9
:10652000BDE8104003F014BAA01F012000E50040B0
:1065300005490448086006490448086105490520E2
:10654000087070473D502000380D00201150200089
:106550008C290020198200202DE9FC41164804688E
:106560000834164E3078002802D000208FF6FCFD4B
:10657000134D4FF6FF770822694620468FF6FEFD41
:10658000BDF80000B84211D080B1BDF802008DF610
:106590000DFEBDF802100830084481B220468EF688
:1065A000E1F8044628688442E5D32C6830788FF6F9
:1065B000DBFD2046BDE8FC81BC350020B535002060
:1065C000C435002010B50021084B5A681B8809E02B
:1065D00052F83140844203D102EBC100406810BD43
:1065E000491C89B29942F3D310BD0000CC7F002032
:1065F00010B50021084B5A695B8809E052F8314018
:10660000844203D102EBC100406810BD491C89B22D
:106610009942F3D310BD0000D47F002010B50021B3
:10662000084B5A681B8809E052F83140844203D174
:1066300002EBC100406810BD491C89B29942F3D3F6
:1066400010BD0000B47F00200349095C002902D07E
:10665000002104F00FBA7047941F012008B51A48B2
:10666000016821F070010160016821F0070141F02B
:106670000401016015490978002909D012498439BB
:106680000A6842F480720A60016821F00701016023
:10669000012005F0F3FA0020FDF79AFA05F0FAFD63
:1066A00080B100208DF80000A3208DF801000220A9
:1066B0008DF80200684690F63BFB05F083FC05F080
:1066C00027FE08BDFEE7000090A80040988000204B
:1066D00070B5044600BFFCF7F3FA05460120FCF74D
:1066E000FDFB0648047024B9482205490548FBF71C
:1066F000D7FC2846FCF7F2FB00BF70BDD87D002018
:10670000041B0120002000E010B50748406807493D
:10671000486006480830402203490831FBF7C0FCB6
:1067200003200249086010BDBC1A0120002000E0CF
:106730007047000070B500BFFCF7C2FA05460120A3
:10674000FCF7CCFB0948047834B9482208490948C9
:10675000FBF7A6FCFFF7D8FF012004490870284684
:10676000FCF7BCFB00BF204670BD0000D87D0020B8
:10677000002000E0041B012013B501216846FDF74D
:10678000BBFD01201CBD00002DE9F04387B00C4685
:1067900007276278A178CDE903720020CDE90501D1
:1067A00021784FF00308CDE900800291EE23092201
:1067B000102170F653FF60780126DFF8F890052568
:1067C00030B1012834D0022846D003286ED157E0DA
:1067D000207889F66BF9C0EBC00109EB81014D729D
:1067E000A278452A09D1CA681278022A16D091F8EF
:1067F0002020022A01D081F8206091F82020012A6F
:1068000003D0022A01D081F8208091F82020022AAA
:106810004CD0C9680978022905D101E04F72ECE734
:10682000A178452942D0244A0021126890473DE0D2
:1068300089F89950A078452805D199F89C0002283C
:1068400001D089F89C6099F89C0002282ED01B4941
:1068500000200968884729E089F8A550A0784528D4
:1068600005D199F8A800062801D089F8A86099F800
:10687000A80006281AD0124900200968884715E0A8
:10688000207889F681F909EB001181F8B150A278DE
:10689000462A01D0CE2A01D181F8B35091F8B31025
:1068A000022903D0074A00211268904707B0002050
:1068B000BDE8F083F4380020343400203834002060
:1068C000403400203C34002010B5AEB00C46FF220E
:1068D000B8216846FBF7F6FB40F20A20ADF800004D
:1068E000ADF802406846FEF78DFD2EB010BD10B524
:1068F000AEB00446FF22B8216846FBF7E3FB40F246
:106900000D20ADF800000020ADF802001C22214649
:1069100002A8FBF7C5FB1C3409946846FEF772FD1C
:106920002EB010BD30B5AFB005460C46FF22B821E1
:1069300001A8FBF7C7FB40F20722ADF80420ADF831
:1069400006408DF8085001A8FEF75CFD2FB030BD61
:1069500037B5AEB005460C46FF22B8216846FBF7B6
:10696000B1FB4FF40272ADF80020ADF802408DF893
:1069700004509DF8C0008DF808006846FEF742FDFF
:1069800031B030BD00B5AFB0FF22B82101A8FBF790
:1069900099FB4FF44170ADF804000020ADF80600FB
:1069A00001A8FEF72FFD2FB000BD30B5AFB00446F3
:1069B0000D46FF22B82101A8FBF784FB4FF4437278
:1069C000ADF804200022ADF806208DF80840B02272
:1069D000294603A8FBF764FB01A8FEF713FD2FB0BF
:1069E00030BD10B5AEB00446FF22B8216846FBF7B3
:1069F00069FB40F20331ADF80010ADF80240684683
:106A0000FEF700FD2EB010BD70B5AEB005460C46C9
:106A10001646FF22B8216846FBF754FB40F20131CD
:106A2000ADF80010ADF802408DF804501222314646
:106A300002A8FBF735FB6846FEF7E4FC2EB070BDFC
:106A400070B5AEB006460D461446FF22B821684622
:106A5000FBF738FB4FF44273ADF80030ADF802504D
:106A60008DF8046020680290A088ADF80C0068469C
:106A7000FEF7C8FC2EB070BD2DE9F04186B00C4683
:106A8000C3F3072528467FF61FFD074628467FF6F5
:106A90001BFD0026CDE901650721CDE90310022089
:106AA0000090172309221021304670F6D7FDFF2DE4
:106AB00066D035492088088060884880A088888012
:106AC000E088C880207A0872607A48720F74D4F81F
:106AD0000A20C1F80A20E289CA812C4B03EBC502C7
:106AE00016605660B4F800C023F835C0DFF8A08007
:106AF00001280CD1C87B0121B1EB901F07D198F878
:106B00001C01400703D5234841780A2931D804F1F4
:106B10000A02617A1646284691F6FCFF617A3246EF
:106B200028468BF6D3F91C4C6FB1002086F6E0FEA8
:106B3000206828B1836B1BB1134A0021284698476F
:106B400086F61EFF1CE0032088F8A800D8F8AC00E9
:106B50000078012814D1002086F6CAFE206828B1EA
:106B6000836B1BB1084A00212846984786F608FF28
:106B700006E006700449074A0A31284689F628FDCE
:106B800006B00020BDE8F08190380020A238002037
:106B9000F4380020403500208433002070B5AEB0BA
:106BA00006460D461446FF22B8216846FBF78AFACE
:106BB00040F20533ADF80030ADF802508DF80460B6
:106BC00020680290A088ADF80C006846FEF71AFC19
:106BD0002EB070BD30B5AFB005460C46FF22B821CF
:106BE00001A8FBF76FFA40F20632ADF8042000224C
:106BF000ADF806208DF80850206803906068049076
:106C000001A8FEF7FFFB2FB030BD30B5AFB0044692
:106C10000D46FF22B82101A8FBF754FA40F20D32CD
:106C2000ADF804200022ADF806208DF80840B0220F
:106C3000294603A8FBF734FA01A8FEF7E3FB2FB0BF
:106C400030BD30B5AFB004460D46FF22B82101A8D3
:106C5000FBF738FA40F20622ADF80420ADF8064002
:106C60000E22294603A8FBF71BFA01A8FEF7CAFB70
:106C70002FB030BD30B5AFB004460D46FF22B8216D
:106C800001A8FBF71FFA40F20B32ADF804200022F6
:106C9000ADF806208DF808402868039001A8FEF79B
:106CA000B1FB2FB030BD10B5AEB00446FF22B82105
:106CB0006846FBF707FA40F21531ADF80010ADF861
:106CC00002406846FEF79EFB2EB010BD70B5AEB018
:106CD00005460C461646FF22B8216846FBF7F2F936
:106CE00040F20233ADF80030ADF802408DF80450A8
:106CF0008DF808606846FEF785FB2EB070BD000079
:106D0000FEB50E461C46B07800250127CDE900757A
:106D10000290182309221021284670F69FFCEFF3F9
:106D200011811C4802781C480068C0F30220401CF6
:106D30008740D019C0B280F31188C4F30724174AE2
:106D400002EBC400056045604FF6FF7022F8340086
:106D5000C8B280F31188204691F65CFF20468BF67E
:106D600027F9204691F642FE204600F069FA0020FD
:106D700086F6BEFD0A48006838B1C36B2BB1B07807
:106D80009030C2B200212046984786F6F9FD0020D7
:106D9000FEBD000002E400E00CED00E0A23800209F
:106DA000843300202DE9F04F87B00446EFF31189BA
:106DB0000220FBF759FF0546FBF77AFF401C4FF016
:106DC000010808FA00F02844C0B280F3118886F662
:106DD000D7FD8246694D0727002695F8A500DC23DC
:106DE000CDE90170CDE90364022000900922102151
:106DF000304670F633FC8DF8194095F8A5000C214B
:106E00000D224FF0090B0A2874D2DFE800F0050CC0
:106E10009C9C9C19283C424D88F66EF885F8A5800C
:106E200085F8A86094E0002C09D085F8A56085F865
:106E3000A6608DF8181006A9002086F683FE87E06C
:106E400095F8A600A22804D088F60EFA85F8A5B019
:106E50007EE08AF61DF9062085F8A50078E04CB1A1
:106E600088F602FA85F8A5B0042085F8A80085F810
:106E7000A9406DE085F8A5708DF8181006A90020CE
:106E800086F660FE64E08AF625FA082085F8A500FB
:106E90005EE0002C5CD085F8A5708DF8182006A95E
:106EA000002086F64FFE53E0A4356E70FF20287058
:106EB0002879A43D042807D0062812D0304C012898
:106EC00019D0032824D043E085F8A8608DF8181065
:106ED00095F8A9008DF8190006A9002086F632FE63
:106EE00036E085F8A8608DF8182006A9002086F6FF
:106EF00029FE2DE027E085F8A860002086F6F8FC42
:106F0000206810B1406C00B1804786F639FD1FE063
:106F100085F8A860D5F8AC000078012818D00020CA
:106F200086F6E6FC206858B1806B48B115480088A9
:106F30008DF672F92168C0B2124A8B6B0021984716
:106F400086F61EFD04E09D220FA115A000F6E6FEC8
:106F500095F8A500CDE900870290DD2309221021D4
:106F6000002070F67BFB504686F6C2FC09F0FF005D
:106F700080F3118807B0BDE8F08F0000F4380020DE
:106F80008433002090380020626C655F73646B5F0F
:106F90006761706D5F70617463682E63000000004C
:106FA000300000000249014808607047A56D2000CC
:106FB0004034002070B5AEB006460D461446FF22A0
:106FC000B8216846FBF77EF840F20A33ADF800308E
:106FD000ADF802508DF8046020680290606803905C
:106FE0006846FEF70FFA2EB070BD70B5AEB006461B
:106FF0000D461446FF22B8216846FBF763F840F2BD
:107000000E33ADF80030ADF802508DF804602088E2
:10701000ADF80800A0788DF80A006846FEF7F2F98E
:107020002EB070BD30B5AFB005460C46FF22B8217A
:1070300001A8FBF747F84FF6FF72ADF80420ADF852
:10704000065034B1012C09D0022C0CD0032C13D1E2
:107050000EE04FF40070ADF804000DE040F20120A6
:10706000ADF8040008E040F20220ADF8040003E0AF
:1070700040F20320ADF8040001A8FEF7C3F92FB0D9
:1070800030BD000030B585B00B223CA100207CF65D
:107090002BFF3D484FF4C87181812021418100259B
:1070A000057007218173012141708570024600211E
:1070B00008467BF6D5FD04464CB114223349684698
:1070C000FAF7EEFFADF804406846FCF7E5FF2F4AFB
:1070D00000211823283A08467BF63AFD044654B1AD
:1070E00014222A4914316846FAF7DAFFADF8044051
:1070F0006846FCF7D1FF254A0D23103A01210020F4
:107100007BF626FD044654B11422204928316846F6
:10711000FAF7C6FFADF804406846FCF7BDFF1C480F
:1071200005808570F721022208467DF6F3F90446B2
:1071300054B1142215493C316846FAF7B1FFADF855
:1071400004406846FCF7A8FF40F64801FB207CF6A7
:107150001DFD044654B114220C4950316846FAF71B
:107160009FFFADF804406846FCF796FF05B000218C
:10717000BDE8304008467EF6B7B90000476F6F643F
:1071800069785F5541525400A0F00020C4FF2000F0
:10719000C87D002030B5AFB004460D46FF22B821AF
:1071A00001A8FAF78FFF40F21132ADF80420002257
:1071B000ADF806208DF808402888ADF80C0001A82D
:1071C000FEF720F92FB030BD70B5AEB006460D46C3
:1071D0001446FF22B8216846FAF774FF40F20933DB
:1071E000ADF80030ADF802508DF8046020680290D0
:1071F000606803902089ADF810006846FEF702F938
:107200002EB070BD30B5AFB005460C46FF22B82198
:1072100001A8FAF757FF40F20731ADF8041000213A
:10722000ADF806108DF8085020680390606804904F
:107230000834059401A8FEF7E5F82FB030BD000032
:1072400070B5064600240D4D05EB041090F8B11002
:1072500007290DD1D0F8BC100A79022A08D1497942
:10726000B14205D190F8B80010B920467DF6B8FFBC
:10727000641CE4B2052CE7D370BD0000F438002094
:1072800070B5AEB005460C461646FF22B8216846DA
:10729000FAF718FF4FF44073ADF80030ADF8024034
:1072A0008DF804503088ADF808006846FEF7AAF85B
:1072B0002EB070BD30B5AFB004460D46FF22B821E8
:1072C00001A8FAF7FFFE4FF6FF72ADF80420ADF803
:1072D000064045B140F20520ADF8040001A8FEF7D4
:1072E00091F82FB030BD4FF40170ADF80400F5E710
:1072F00030B5AFB004460D46FF22B82101A8FAF719
:10730000E1FE4FF44572ADF804200022ADF80620EE
:107310008DF8084028788DF80C0001A8FEF772F867
:107320002FB030BD30B5AFB004460D46FF22B821B6
:1073300001A8FAF7C7FE40F21232ADF8042000228D
:10734000ADF806208DF8084028788DF80C0001A8CB
:10735000FEF758F82FB030BD30B5AFB005460C463B
:10736000FF22B82101A8FAF7ADFE40F21332ADF8C2
:1073700004200022ADF806208DF8085003CCCDE99A
:10738000030101A8FEF73EF82FB030BD70B5AEB0D6
:1073900006460D461446FF22B8216846FAF792FECB
:1073A00040F20F33ADF80030ADF802508DF80460B4
:1073B0002088ADF80800A0788DF80A006846FEF72E
:1073C00021F82EB070BD30B5AFB005460C46FF2297
:1073D000B82101A8FAF776FE40F21122ADF8042098
:1073E000ADF8065020680390A088ADF81000A07991
:1073F0008DF8120001A8FEF705F82FB030BD10B5CA
:10740000AEB00C46FF22B8216846FAF75BFE40F2A8
:107410000920ADF800000020ADF8020020680290BD
:10742000A088ADF80C00A0798DF80E006846FDF735
:10743000E9FF2EB010BD10B5AEB00446FF22B82152
:107440006846FAF73FFE40F20B21ADF80010ADF8A8
:1074500002406846FDF7D6FF2EB010BD13B5AEB0A2
:107460000446FF22B8216846FAF72CFE4FF4037158
:10747000ADF80010ADF802409DF8BC008DF8080092
:107480006846FDF7BFFF30B010BD30B5AFB0054660
:107490000C46FF22B82101A8FAF714FE40F20F2291
:1074A000ADF80420ADF806408DF8085001A8FDF7AE
:1074B000A9FF2FB030BD70B5AEB006460D461446DC
:1074C000FF22B8216846FAF7FDFD40F21633ADF809
:1074D0000030ADF802508DF80460206802906068BA
:1074E00003906846FDF78EFF2EB070BD70B5AEB04C
:1074F00004460D461646FF22B8216846FAF7E2FD1B
:1075000040F20E20ADF80000ADF8025014223146D2
:1075100002A8FAF7C5FD8DF804406846FDF772FF32
:107520002EB070BD10B5AEB00446FF22B82168463B
:10753000FAF7C8FD4FF40471ADF800100021ADF862
:1075400002108DF804406846FDF75CFF2EB010BDB8
:1075500030B5AFB005460C46FF22B82101A8FAF7B6
:10756000B1FD4FF44472ADF804200022ADF80620BE
:107570008DF808502068039020798DF8100001A83C
:10758000FDF740FF2FB030BD2DE9F0410027002569
:1075900000266FF488540419184806D0012C07D02F
:1075A000022C0CD0032C0CD105E00568466808E0DD
:1075B0008568C66805E08569C6690B7801E00569DC
:1075C0004669002414E035F8340098420FD105EBE9
:1075D000C400446874B1A4F54F30F93803D098B2B0
:1075E000A047074606E098B201F05AFF02E0641C8B
:1075F000B442E8D33846BDE8F0810000D80F00203F
:107600002DE9FC410E4629A003C8CDE900016A46D8
:107610003146012012F640F90746012F43D130468A
:107620000FF65EFC0446200037D10FF6EDFC054650
:10763000FF2D09D03078A02808D0A1280CD0A2288E
:1076400016D0A32819D10DE04B2426E03146284658
:1076500010F63CF9044610E03146284612F6DEFAF0
:1076600004460AE03146284600F044F9044604E0A6
:107670003146284611F69EF8044674B9707860B910
:107680000C4890F87410C90707D000EB8501C96851
:10769000C26E8A61B0F87000888324B1064A214620
:1076A0000120126890473846BDE8FC81A0A1A3A242
:1076B0000000000084190020E8060020F8B54024EE
:1076C0000221C688684DF2074FF0000304D095F8F8
:1076D00073100A290BD00A214279042A10D300938F
:1076E0000F230922102100206FF6B8FFBAE04324CF
:1076F00000930D230922102100206FF6AFFFB1E0A7
:1077000012B1032A00D00A2195F87250A94308D07B
:107710004224009310230922194600206FF69EFF91
:10772000A0E00579022D07D9009311230922102129
:1077300000206FF693FF95E0710708D53AB10093EA
:1077400012230922102100206FF688FF8AE065B11C
:1077500026F01001C1800E073AD5009316230922A6
:10776000102100206FF67AFF7CE046F01001C18006
:107770008E0601D44E0607D500931323092210214B
:1077800000206FF66BFF6DE0CE0715D04E0709D4D1
:107790008E0711D4009314230922102100206FF6C4
:1077A0005DFF5FE08E0707D50093152309221021A6
:1077B00000206FF653FF55E04E0738D5C90736D184
:1077C000009316230922102100206FF647FF49E09D
:1077D000012D02D0CE0722D11DE0CE0709D08E07A1
:1077E00007D5009317230922102100206FF636FFDA
:1077F00038E08E061BD5012A05D0022A03D0CE0719
:1078000001D1890713D500931623092210210020E6
:107810006FF624FF26E08E0701D4890607D5009372
:1078200018230922102100206FF618FF1AE0022DFC
:1078300017D2407A032807D900931923092210216F
:1078400000206FF60BFF0DE0012A01D0022A08D1BB
:1078500038B100931A230922102100206FF6FEFE92
:1078600000E000242046F8BD8419002002490148A8
:1078700008607047BD762000F00600202DE9F04139
:1078800002460F461E460020002400256FF4885152
:10789000511804D0012906D003290CD107E0124960
:1078A0000C684D6807E011490C684D6803E0104909
:1078B0000C684D683E78002212E034F83210B14274
:1078C0000DD104EBC201496800290BD00846FEF730
:1078D00079FE0246B0B23946BDE8F0411047521C6D
:1078E000AA42EAD3BDE8F0811C070020140700205B
:1078F0000C07002070B500253C210FF6D9FA04468C
:107900008CB103206073012010F6DCFD6061074834
:107910002060074860600748A060002120460FF6FD
:10792000E7FA284670BD4B25FBE700008197010070
:1079300039792000059501007CB504461D4D207B5A
:1079400085F88000207CC10707D020F0010020745A
:107950002046BDE87C4011F601BFA07B022806D07E
:10796000204611F6ACFEFF2085F881007CBD94F81E
:1079700038000AF671FFA0F57F41FF390ED094F868
:1079800038000AF669FF014600200A22CDE90020EE
:1079900003460246204611F647FD02E0204611F656
:1079A0008EFE94F838200121286D91408843286587
:1079B0007CBD0000841900202DE9F8430C463BA053
:1079C000006800906A462146002011F665FF0746D0
:1079D000012F62D1607800F00F084FF00009A18CF0
:1079E000608C10F6BFFB08B1402550E0304E86F8A1
:1079F000749086F8729001F695FE2E49204609682B
:107A000088470546280042D102206AF637FF86F8EB
:107A1000728011F643F886F87B9094F82A0086F875
:107A20007A0096F87200800820D04120E17E86F826
:107A300075108A0704D421F0020086F8750017201B
:107A4000E18C4FF40062914200D31146884200D984
:107A5000014689B2A6F87610228D8A4200D21146DC
:107A6000884200D80846A6F8780001E086F87590AC
:107A70000F48102204F10A015C30FAF711FBA07ED6
:107A8000C00704D06068F0662089A6F870003DB198
:107A9000094A29460020126890473846BDE8F88315
:107AA000064A0021084612689047F6E703000000E6
:107AB00084190020FC060020E8060020F8060020BB
:107AC00070B505460548446804E0E16809B12846F8
:107AD00088472468002CF8D170BD0000A07F0020EA
